:020000040800F2
:10000000B0310020F9D2000839D300084B31000884
:100010003DD300083FD3000841D300080000000092
:1000200000000000000000000000000043D30008B2
:1000300045D300080000000047D300083DA3000896
:100040004BD300084BD300084BD300084BD3000818
:100050004BD300084BD300084BD30008C5AF0008B2
:100060004BD300084BD300084BD300084BD30008F8
:1000700051AA00084BD3000825AA00084BD300085A
:100080004BD300084BD300084BD300084BD30008D8
:100090004BD300084BD300084BD30008C7AF000870
:1000A0004BD300084BD300084BD300082FB80008EF
:1000B00035B800083BB8000841B80008A19B00080B
:1000C000A1990008A59B0008A39B00084BD300083A
:1000D0004BD300087DAA0008B1AA000815AB0008A0
:1000E000F99200084BD300084BD30008DFF80CD07E
:1000F0000DF0F6FC00480047112E0008B03100203A
:1001000070B50C46911E232900D30A220025002831
:1001100004DA2D212170611C404200E0214601F0EB
:100120007DFC0570204670BD2DE9F047044600E0D7
:10013000641C20782028FBD00928F9D04FF07E5885
:10014000C1B247462D2902D02B2801D001E0FC4F37
:10015000641C0026DFF8EC930CE000BF0DF040FBC0
:100160000546494630460DF0BFFA29460DF064FABF
:100170000646641C207830380928EFD920782E28CC
:1001800015D14D460EE000BF0DF02AFB29460DF0BB
:10019000DDFA31460DF050FA0646494628460DF084
:1001A000A3FA054614F8010F30380928ECD9217854
:1001B0004046652901D0452935D114F8011F4FF07B
:1001C00000082D2902D02B2902D002E04FF00108AF
:1001D000641C00256FF02F0206E000BF05EB8503CD
:1001E00002EB4303CD18641C2178A1F13003092BE5
:1001F000F4D94FF49A718D4204D90D46D2490DF0CD
:1002000073FA083D082DF9D203E049460DF06CFA67
:100210006D1E002DF9D1B8F1000F04D00146304613
:100220000DF094FA03E0014630460DF05DFA3946D0
:10023000BDE8F0470DF058BAF0B587B000260D467E
:10024000C34900960196C1A70296B0F5000F02DBE4
:100250000DF0F2F901E00DF041FABE490DF044FA5B
:100260000DF0CCFA041E00DC60420A2203A9FFF75D
:1002700047FF002C01DB202000E02D208DF800003E
:1002800003A80DF08AF9302401280AD003A80DF044
:1002900084F902280CD003A80DF07FF903280CD0B4
:1002A0000DE08DF801408DF802408DF8034006E026
:1002B0008DF801408DF8024001E08DF8014003A95E
:1002C00068460DF036F968460DF067F9C01EC4B2F5
:1002D0002246694628460DF04AF92E5539462846E9
:1002E0000DF027F90DEB040128460DF022F9284600
:1002F00007B0F0BD70B505460C4608680DF04DF925
:10030000024621682868BDE870400DF06FB970B5ED
:1003100006460DF042F9904D10F0FF0F10D0304618
:100320000DF07DF90446182818DA202130460DF02A
:100330002AF90DF074F905EB4401A1F8460070BDEF
:100340005FF0000405EB44002146B0F8462083A08E
:100350000DF080FC641C182CF4DB70BDBDE870400F
:10036000182181A00DF076BC2DE9F041002588B060
:1003700007462E460DF011F9854C10F0FF0FA846E8
:1003800051D0052283A138460DF030F900287DD0E8
:10039000042282A138460DF029F9002877D038468A
:1003A0000DF03DF9461E0C2E72DA202138460DF074
:1003B000EAF8070007D0781C0746FFF7B5FE04EB04
:1003C000061101250861202138460DF0DCF80700F0
:1003D00007D0471C3846FFF7A7FE04EB06116D1C3B
:1003E0004861202138460DF0CEF8070007D0471CA1
:1003F0003846FFF799FE04EB06116D1C8861202139
:1004000038460DF0C0F830B1401CFFF78DFE04EB0C
:1004100006116D1CC861042D77D062A001F011FB9C
:1004200008B0BDE8F0816EA001F00BFB5FF00005A5
:1004300004EB0517386910F0FF4F2BD0691C73A02F
:10044000761C0DF007FC03A93869FFF7F5FE01469D
:1004500070A00DF0FFFB03A97869FFF7EDFE0146E0
:100460006CA00DF0F7FB03A9B869FFF7E5FE0146A4
:1004700068A00DF0EFFB03A9F869FFF7DDFE014668
:1004800065A00DF0E7FB6D1C0C2D02E034E03DE0B3
:10049000E5E0CDDBCDF80880CDF804800025CDF86F
:1004A000008011E004EB0517009879690DF0C4F89D
:1004B0000090B96901980DF0BFF80190F9690298B0
:1004C0000DF0BAF86D1C0290B542EBDB54A001F0C0
:1004D000B8FA574E00246D4655F8240020F000402D
:1004E000B04201DD53A000E053A001F0AAFA641C61
:1004F000032CF1DB44A091E70020414604EB0012FD
:10050000401C11610C28F9DB8AE7A3E02021384662
:100510000DF039F8002883D0401C06460DF03DF858
:10052000464DC7B2002400BF55F8241031B13A46F9
:1005300030460DF05BF810B1641CF5E780E081E017
:10054000000080BF0000204120BCBE4C2E000000F7
:100550006F12033A00007A44F00800206175782099
:1005600025752025750D0A00496E76616C69642039
:100570004665617475726520696E6465783A206DB0
:10058000757374206265203C2025750D0A000000FB
:100590002C04002072657365740000006C6F616448
:1005A0000000000057726F6E67206E756D62657295
:1005B000206F6620617267756D656E74732C206E96
:1005C00065656473206964782074687220726F6C4A
:1005D0006C207069746368207961770D0A000000EF
:1005E000437573746F6D206D697865723A200D0ADA
:1005F0004D6F746F720954687209526F6C6C0950B8
:1006000069746368095961770D0A00002325643A0B
:10061000090000002573090025730D0A0000000081
:1006200053616E69747920636865636B3A090000F1
:100630000AD7233C4E4709004F4B0900E0EC000865
:10064000F3A0EBE6204602F0D1FE55F82410F6A008
:100650000DF000FBAFF2B800FFF786FEE0E60C21DC
:10066000F6A00DF0F7FADBE6F0B5FEA187B006467E
:10067000D1E90001CDE9050130460CF08EFFFB4DBC
:1006800010F0FF0F0ED00522AFF2F80130460CF04B
:10069000ADFF002832D00024F5A130460CF084FFD5
:1006A0006E464AE0F3A00DF0D5FA0024611CAFF2CB
:1006B000A4000DF0CFFA04EB840005EB4006F8A08F
:1006C00036F97E1F0DF0C6FAB6F90410F4A00DF04D
:1006D000C1FAB6F90210F2A00DF0BCFA96F90610B4
:1006E000EFA00DF0B7FAD4A00DF0B4FA641C082CFA
:1006F000DCDBD1A00DF0AEFAEAA025E0002005AACF
:100700004FF47F734FF4FA6440F2DC5600EB800143
:1007100005EB410121F87E3F4C808E80175C401C28
:100720008F710828F2DBE3E50CF079FF46F824002E
:10073000CFA10020641C0CF037FF10B1052CF3DBB7
:1007400001E0052C03D0DE480DF084FAD0E50099D5
:10075000491E072931D801984FF4617290422CDB71
:10076000034640F63400834227DC039B934224DB9C
:10077000834222DC029B93421FDB1A4683421CDC2D
:10078000049810F1640F18DB642816DC0198984275
:1007900013DC1046039A90420FDC0091DDE9000162
:1007A00000EB800005EB400020F87E1F039941809C
:1007B000029981800499817102E0C2480DF04AFAE1
:1007C000B6A0FFF751FF93E52DE9F04188B08046D0
:1007D00000240CF0E2FEBC4D10F0FF0F1BD00522F0
:1007E000AFF2502140460CF001FFA04E00284BD044
:1007F0000422AFF2582140460CF0F8FE002855D0F4
:100800000922B2A140460CF0F1FE6F46002871D0DB
:1008100097A14046F5E0B0480DF01CFAAF480DF046
:1008200019FA0026C6EBC600441994F8D20048B362
:10083000711CAFF228200DF00DFA14F8D01F98A00B
:10084000491C0DF007FA617895A0491C0DF002FAD9
:1008500094F9021092A00DF0FDF9E17890A00DF04E
:10086000F9F994F904108EA00DF0F4F994F905103B
:100870008BA00DF0EFF9A17999A00DF0EBF9761CA2
:10088000102ECFDB6CA0BAE18F487021D0300CF075
:1008900045FE00204FEA000100EB800206EB420219
:1008A000401CA2F886100828F6DBB9E52021404656
:1008B0000CF069FE0028F8D0401C06460CF06DFED6
:1008C000894DC7B2002400BF55F8241031B13A4613
:1008D00030460CF08BFE18B1641CF5E74CA08EE19D
:1008E000204602F057FD55F824104FA00DF0B2F944
:1008F00080E1FFE7202140460CF045FE80460CF0E9
:100900004CFE10F0FF0F4FF0010502D058A14046F9
:1009100039E076480DF09EF975A00DF09BF90024A2
:10092000611C74A00DF096F9641C0C2CF8DB42A03D
:100930000DF090F90024B046611C70A00DF08AF90A
:1009400004EB8401002608EB410700BFB7F88600DE
:1009500005FA06F1084201D069A100E05DA169A095
:100960000DF078F9761C0C2EF0DB33A00DF072F947
:10097000641C082CE0DB53E50CF051FE47F8240022
:100980003BA10020641C0CF00FFE10B1032CF3DB24
:1009900001E0032C01D05DA031E10098401E072842
:1009A0000AD80199012907DB0C2905DC0299491CA9
:1009B00009D00299012906D063A00DF04BF943A09C
:1009C000FFF702FF2CE500900198401E019002986D
:1009D000019A401C009805FA02F500EB800006EB36
:1009E000400030F8861F02D0A9430180E7E7294381
:1009F000FBE700BF0CF013FE47F824001CA1002009
:100A0000641C0CF0D1FD10B1082CF3DBB0E0ADE0BC
:100A1000496E76616C6964206D69786572207479BD
:100A200070652E2E2E0D0A004C6F616465642025C2
:100A300073206D69782E2E2E0D0A00004D6F746F95
:100A400072206E756D626572206D757374206265BB
:100A5000206265747765656E203120616E642025A3
:100A6000640D0A001E1E646464646464F00800205F
:100A700020000000736572766F20736572766F5F79
:100A80006E756D626572096D696E096D6964646C7D
:100A900065096D617809726174650D0A00000000D6
:100AA00025640900526573657420736572766F73EF
:100AB0003A20736572766F2072657365740D0A0053
:100AC00034080108B80701082C0400206469726525
:100AD0006374696F6E000000E00801088008010877
:100AE00025640D0A00000000E0EC0008680701081A
:100AF00073000000096925640000000025640000FF
:100B000072000000092573202000000057726F6EEC
:100B100067206E756D626572206F66206172677501
:100B20006D656E74732C206E6565647320736572D9
:100B3000766F20696E70757420646972656374697C
:100B40006F6E0D0A000000004552523A2057726F36
:100B50006E672072616E676520666F7220617267D2
:100B6000756D656E74730D0A00000000082C01D0CD
:100B7000FD4844E00098401E10283ED2019900290B
:100B80003BDD082939DC0299012936DB0C2934DCEC
:100B9000039911F1640F30DB64292EDC04990029DC
:100BA0002BDBFF2929DC0599002926DB642924DCBD
:100BB0000699002921DB64291FDCDDE90512914239
:100BC0001BDA0799002918DB032916DCC0EBC000EB
:100BD00001992844491E00F8D01F0299491E41700E
:100BE000039981700499C170059901710699417149
:100BF00007998171AFF25C10E2E6AFF2B4000DF03C
:100C000029F80DE410B5D9A000F01BFF012001F078
:100C1000CEFADDA000F015FF0A2009F055FCBDE872
:100C20001040002009F098BC7CB504460D460079C0
:100C30000021062814D2DFE800F003060A0D111F78
:100C4000A06801780CE0A06890F9001008E0A068A6
:100C5000018805E0A068B0F9001001E0A068016813
:100C6000AFF268100CF0F6FF002D04D0D4E90312A7
:100C7000C9A00CF0EFFF7CBDA06869460068FFF7D3
:100C8000DBFA0146C6A00CF0E5FF002DF3D0E068CA
:100C90000CF0A6FD6946FFF7CFFA0146C1A00CF0A3
:100CA000D9FF20690CF09CFD6946FFF7C5FA0146A3
:100CB000BCA00CF0CFFF7CBDBBA000F0C2BE2DE9F4
:100CC000F04786B00020FFF7F7FFC3A00CF0C2FF8B
:100CD000B0A0FFF71CFBCC4DCC49687901EB80003C
:100CE00050F8041CCAA00CF0B5FF286910F0FF4FA3
:100CF00050D0DFF828A3002405EB0410066916F095
:100D0000FF4F43D0D0E90589C769611CC4A00CF02E
:100D1000A1FF564503D3AFF2A8200CF09BFF02A918
:100D20003046FFF789FA01469DA00CF093FF564626
:100D3000B04503D3AFF2C8200CF08CFF02A94046A7
:100D4000FFF77AFA014696A00CF084FFB14503D371
:100D5000AFF2E4200CF07EFF02A94846FFF76CFAE0
:100D600001468FA00CF076FFB74203D3AFF20030FC
:100D70000CF070FF02A93846FFF75EFA0146AFF2A9
:100D800068700CF067FF641C0C2CB5D3611CA6A026
:100D90000CF060FF95F8D200A946002836D0002557
:100DA0004FEA0906C5EBC500841994F8D20048B390
:100DB000691CA2A00CF04EFF14F8D01FA2A0491C81
:100DC0000CF048FF6178A0A0491C0CF043FF94F997
:100DD00002109DA00CF03EFFE1789BA00CF03AFFC2
:100DE00094F9041098A00CF035FF94F9051096A022
:100DF0000CF030FFA179AFF218300CF02BFF6D1C16
:100E0000102DCFD3691C91A00CF024FF0026DFF831
:100E10005082012506EB8601002408EB410700BF44
:100E2000B7F8860005FA04F1084204D0621C711C70
:100E30008CA00CF00FFF641C0C2CF1D3761C082E38
:100E4000E8D300244FEA080604EB840006EB4000D8
:100E500090F98420B0F98010CDE90012B0F9823009
:100E6000B0F97E20611C86A00CF0F4FE641C082CF6
:100E7000EAD301F0CDF9654E0024074616F1640669
:100E800056F8241021B184A00CF0E4FE641CF7E7AE
:100E90005FF0000456F8241041B105FA04F038421E
:100EA00002D081A00CF0D6FE641CF3E7824B002038
:100EB00002AA49460D181C5C95F88251401C08286E
:100EC0005455F7D30021115411467CA00CF0C2FEFA
:100ED0007D4D002404EB840005EB800655F82010BE
:100EE0007AA00CF0B7FE00213046FFF79DFE25A04A
:100EF00000F0A7FD641C8D2CECD306B0BDE8F08794
:100F000010B575A000F09DFD0121002000F03FFF0D
:100F100074A000F096FD0A2009F0D6FABDE8104052
:100F2000002009F019BB10B5044672A000F089FD3D
:100F30007648774A002101705160117002F06FF914
:100F40002046BDE81040DBE72DE9F04706460CF0EF
:100F500024FB054601F05CF9DFF8B08007464FF04E
:100F6000010908F16408D5E0480901085265736574
:100F70007474696E6720746F2064656661756C7443
:100F8000732E2E2E0D0A00005265626F6F74696E0B
:100F9000672E2E2E0000000020256420256400000E
:100FA00025730000202573004166726F33322043A1
:100FB0004C492076657273696F6E20322E33204A59
:100FC000756E2032372032303135202F2031343ABF
:100FD00034393A343000000043757272656E742003
:100FE000436F6E6669673A20436F70792065766556
:100FF00072797468696E672062656C6F77206865C6
:1010000072652E2E2E0D0A002C040020E0EC000844
:101010006D697865722025730D0A000000008080DC
:10102000636D697820256400636D697820256420EC
:10103000302030203020300D0A000000736D6978B8
:10104000202564200000000025642000736D69786D
:1010500020256420302030203020300D0A00000090
:10106000F0080020736D69782064697265637469A3
:101070006F6E202564202564202D310D0A000000AC
:10108000736572766F2025642025642025642025F1
:10109000642025640D0A0000666561747572652020
:1010A0002D25730D0A000000666561747572652058
:1010B00025730D0A00000000BCF900086D61702066
:1010C00025730D0A00000000B8EE00087365742057
:1010D0002573203D20000000536176696E672E2E37
:1010E0002E0000000D0A5265626F6F74696E672EE4
:1010F0002E2E00000D0A4C656176696E6720434C08
:1011000049206D6F64652E2E2E0D0A00FC03002011
:101110000000002055B12A46F5A130460CF066FAD1
:10112000C8B1307800272D2823D025E0F2A000F0A8
:1011300088FC00244D46464656F8241041B105FA75
:1011400004F0384202D0F1A00CF084FD641CF3E7F7
:10115000AFF2D0101DE0EEA000F073FC0024454675
:1011600055F824100029F3D0E8A00CF073FD641C9E
:10117000F6E701276D1E761C5FF0000458F8241076
:1011800031B12A4630460CF031FA30B1641CF5E733
:10119000E5A0BDE8F04700F054BC09FA04F01FB127
:1011A00001F031F8E7A002E000F054FEE8A000F002
:1011B00048FC58F82410AFF20810BDE8F0470CF0D6
:1011C00049BD10B506F059FB401C04D0E3A0BDE8B2
:1011D000104000F036BCE9A0F9E770B50024F1A09A
:1011E00000F02FFCF54D00BF04EB440005EB80013F
:1011F0004A6855F82010F2A00CF02CFD641C122C4B
:10120000F2D370BD3EB505460CF0C7F908281DD1D4
:101210000024285D0CF040F92855641C082CF8D3F4
:101220000024E948295D0CF0AEF928B12819295DA0
:10123000401C0CF0A8F918B1E4A000F002FC3EBD7F
:10124000641C082CEDD3284600F0E3FCE7A000F076
:10125000F8FBDD4BEB4A0020694615181C5C95F83D
:101260008251401C08284C55F7D300220A54AFF293
:10127000C0100CF0EFFC3EBD2DE9F04180460CF0B3
:101280008CF9E14DDF4E070010D0024698A1404690
:101290000CF0ACF9A0B1002455F82410F9B13A468D
:1012A00040460CF0A3F900B3641CF5E7707905EB38
:1012B000800050F8041CBDE8F041D4A00CF0CABC7A
:1012C000D7A000F0BEFB002455F8241021B18FA058
:1012D0000CF0C0FC641CF7E7AFF2583001E0AFF649
:1012E000D000BDE8F04100F0ACBB601C707155F857
:1012F0002410D0A00CF0AEFC7079082801D00E2884
:1013000010D1D1483221002280F8261080F8202008
:101310001E221423027183732D2404768176C271F8
:101320004374C476BDE8F0812DE9F04100250746FD
:101330002C462E460CF031F910B184A138460FE04E
:10134000C2A02AE016B1012E07D103E00CF067F924
:10135000054602E00CF063F904467CA10020761CEF
:101360000CF022F90028EDD10C2D05D3BDE8F04199
:101370000C21C5A00CF06EBCCD4F022E07DA37F958
:1013800015202946BDE8F041CAA00CF063BCA4F5C5
:101390007A70B0F57A7F04D9CCA0BDE8F0410CF0AA
:1013A00059BC22462946D2A00CF054FC27F815401F
:1013B000B8E770B505460CF0F0F8924C10F0FF0F4E
:1013C0000CD028460CF02BF902280ED884F8C00463
:1013D0000021084600F0DBFC46A0EBE794F8C014BF
:1013E000BDE87040C9A00CF035BC70BD2DE9F047D8
:1013F00082460CF0D2F8714D060005F1D80529D0CF
:10140000012E03D19AF800002A2823D0C5A1504606
:101410000CF09BF800286AD0401C04460CF0FFF842
:1014200081462046FEF780FE8046002606EB8607B2
:1014300005EB870455F827000CF0AFF8024655F885
:10144000271050460CF0D2F8F0B1761C8D2EEDD35B
:10145000B5A08CE1BCA000F0F4FA002404EB8400F9
:1014600005EB800755F82010AFF29C300CF0F2FB32
:1014700031463846FFF7D8FBAFF2F84000F0E1FA0A
:10148000641C8D2CEAD339E506EB860605EB86074E
:10149000F8680CF0A5F941460CF0DEF926D8386959
:1014A0000CF09EF941460CF0E1F91FD83979052975
:1014B00007D0484606290ED2DFE801F005050808E6
:1014C0000B0B4046F6E7A168087004E0A1680880AD
:1014D00001E0A168086055F82610A1A00CF0BAFB45
:1014E0002046BDE8F0470021FFF79EBB3EE142E108
:1014F0006C69737400000000456E61626C65642065
:1015000066656174757265733A200000257320006A
:10151000417661696C61626C6520666561747572A3
:1015200065733A2000000000496E76616C696420A2
:1015300066656174757265206E616D652E2E2E0D67
:101540000A00000044697361626C65642000000059
:10155000456E61626C65642000000000456E61624A
:101560006C696E67204750532070617373746872A2
:101570006F7567682E2E2E0D0A0000004572726F7F
:10158000723A20456E61626C6520616E6420706CF9
:10159000756720696E204750532066697273740D19
:1015A0000A000000417661696C61626C6520636FBE
:1015B0006D6D616E64733A0D0A000000E0ED000885
:1015C00025730925730D0A00BCF900084D75737465
:1015D00020626520616E79206F72646572206F668B
:1015E0002041455452313233340D0A004375727232
:1015F000656E742061737369676E6D656E743A20F1
:10160000000000002C040020E0EC0008437572721A
:10161000656E74206D697865723A2025730D0A0035
:10162000417661696C61626C65206D697865727381
:101630003A2000004D697865722073657420746FDC
:101640002025730D0A000000F00800205573616723
:10165000653A0D0A6D6F746F7220696E646578204B
:101660005B76616C75655D202D2073686F77205BFC
:101670006F72207365745D206D6F746F7220766178
:101680006C75650D0A0000004E6F2073756368204D
:101690006D6F746F722C207573652061206E756D8F
:1016A000626572205B302C2025645D0D0A0000000D
:1016B000740A00204D6F746F7220256420697320B6
:1016C0007365742061742025640D0A00496E76618B
:1016D0006C6964206D6F746F722076616C75652C17
:1016E00020313030302E2E323030300D0A000000E4
:1016F00053657474696E67206D6F746F7220256412
:1017000020746F2025640D0A00000000437572727A
:10171000656E742070726F66696C653A2025640D81
:101720000A0000003D0000004552523A20556E6B01
:101730006E6F776E207661726961626C65206E6192
:101740006D650D0A0000000043757272656E7420AD
:1017500073657474696E67733A200D0A00000000A7
:1017600025732073657420746F200000BDA0BDE850
:10177000F04700F066B9002404EB8406514655F8A2
:1017800026000BF0E2FE78B155F8261005EB86072F
:10179000AFF2C4600CF05EFA00213846FFF744FA5D
:1017A000AFF620000CF056FA641C8D2CE4D36AE6E8
:1017B0002DE9F04108F0E1FD4FF47A71B0FBF1F151
:1017C000B2480378B2480288B2A00CF043FA00F0A5
:1017D0000FFD0646BF48C0490068B0FBF1F2C049A2
:1017E000BE48096850F82110BEA00CF033FABB4F78
:1017F00000240125B7F1400757F8241051B105FA2C
:1018000004F0304203D0AFF2FC200CF023FA641C49
:10181000E4B2F1E7022000F0D9FCA0B1BC4CAF4823
:101820002178203850F82110BAA00CF013FA207853
:10183000022808D1BA48007D08B16F2100E06E216E
:10184000B8A00CF007FAAFF6C40000F0FAF808F000
:1018500026FA0246B44840F2C4430188BDE8F0418C
:10186000B2A00CF0F7B92DE9FF5FDFF8F49299F818
:10187000000040B9012189F80010BAA000F0E1F899
:10188000C6A000F0DEF8DFF81CB3DFF894A25446DF
:10189000DAF800000AF09BFA00286FD020680AF0FE
:1018A00099FA092807D03F2805D0D9F804104C46EA
:1018B000002950D051E00024884F2546103707F109
:1018C000D808D9F804600BE0D9F8042022B1B54853
:1018D00039680BF08BFE10B904B93C463D460C3715
:1018E0004745F1D39CB149465F46486822682B685A
:1018F000125C1B5C9A420AD19AB92E2811D220227E
:101900003A54401C0021C9F804000BF80010D9F823
:1019100004004F4608B1AC4214D0A3A000F091F8E7
:101920000AE03A54401C4860DFE7206800F089F87C
:10193000092000F092F80C34AC42F6D997A000F0E0
:1019400080F800265C4678688642A0D2A05D00F050
:1019500084F8761CF7E7042811D00C2815D019B1AB
:101960000A2816D00D2814D07F283ED030298ED2D8
:1019700020288CD37E288AD8B1B345E04CE004B04F
:101980008848BDE8F05FFFF7CEBA89A000F059F8AB
:1019900028E0AFF6102000F054F8606800254F49A9
:1019A0000BF800508548CDE9000B5E460C2312224F
:1019B0001031029501A80BF075FD070007D03868BB
:1019C0000BF0EBFD3044B968401C884702E07CA076
:1019D00000F037F8302173480BF0A0FD65602078E7
:1019E000002819D06DA00AE00CE000293FF44FAFA9
:1019F000491E0020C9F804100BF8010079A000F07E
:101A000020F844E72028FCD00BF80100491CC9F855
:101A1000041000F022F83AE7BDE8FF9F30B5144605
:101A20000546A04204D3B5FBF4F0FFF7F7FF0146EB
:101A3000B5FBF4F004FB10506BA2105C0870481C5E
:101A400030BD70B50446364D03E0641C28680AF0CA
:101A5000AFF921780029F8D170BD014630480068FF
:101A60000AF0A6B94552523A2056616C756520615C
:101A7000737369676E6D656E74206F7574206F6621
:101A80002072616E67650D0A00000000940100205D
:101A9000F800002053797374656D20557074696D7A
:101AA000653A202564207365636F6E64732C20563D
:101AB0006F6C746167653A202564202A20302E31CE
:101AC0005620282564532062617474657279290D4B
:101AD0000A000000C403002040420F00D0ED0008BF
:101AE000C800002048617264776172653A202573EE
:101AF00020402025644D487A2C2064657465637409
:101B000065642073656E736F72733A200000000085
:101B1000C001002041434348573A2025730000008C
:101B2000240A00202E256300EC0000204379636C1A
:101B3000652054696D653A2025642C204932432084
:101B40004572726F72733A2025642C20636F6E6643
:101B500069672073697A653A2025640D0A000000E0
:101B6000000000200D0A456E746572696E6720439F
:101B70004C49204D6F64652C207479706520276571
:101B80007869742720746F2072657475726E2C20CA
:101B90006F72202768656C70270D0A000D0A2320DC
:101BA00000000000FC0300200D1B5B4B0000000048
:101BB0001B5B324A1B5B313B31480000F5020008D9
:101BC0004552523A20556E6B6E6F776E20636F6D83
:101BD0006D616E642C20747279202768656C7027A3
:101BE0000000000008200800303132333435363729
:101BF00038394142434445464748494A4B4C4D4E8B
:101C00004F505152535455565758595A00000000DE
:101C100070472DE9F04105460446FE4EFE4F09E0AF
:101C2000FC480BF0B0FC20B1611B801B384480F8ED
:101C30008211641C21780029F2D1BDE8F081F748B7
:101C4000002102784A2A13D14288A2F58063C43B5E
:101C50000ED10279BE2A0BD190F8C224EF2A07D107
:101C600000F2C44210F8013B59409042FAD309B146
:101C7000002070470120704710B5FFF7E0FF10B952
:101C80000A2008F02CFC40F2C442E449E2480BF080
:101C90002CFCE14890F8C014022902D9002180F8F8
:101CA000C014C9B201EB811100EB8101BDE8104005
:101CB0004FF48272DA4801F5DA710BF016BC2DE9A7
:101CC000F05FD74AD74E002092F8201092F81F40BC
:101CD00040F6C41500FB00F3193B4B4303F6C41355
:101CE0004343634393FBF5F326F81030401CC0B226
:101CF0000728EFD3C84B914692F8212099F822404B
:101D0000B3F84211B3F840710020DFF81CA34FF084
:101D10000A0B4FF47A7EC4F1640802EB820CCD1BEF
:101D200000EB8001C2EB41030121002B03DDC2F176
:101D30006401C9B201E000DA114603FB03F604FBBB
:101D400006F601FB01F196FBF1F1414401FB03F1C1
:101D500091FBFBF101EB4C0109B205FB01F191FB99
:101D6000FEF139442AF8101000F10100C0B20C282D
:101D7000D6D399F8000002F0F9FABDE8F05F04F05C
:101D8000C9BC10B5FFF778FFBDE8104097E72DE913
:101D9000F047A14C81464A20207040F2C44565803E
:101DA000BE2000262071EF2084F8C20484F8C364AA
:101DB00061B194F8C0044FF4827200EB801004EB20
:101DC0008000974900F5DA700BF08FFB9248944938
:101DD00003E000BF10F8012B56408842FAD384F884
:101DE000C3640BF011FADFF844A28C4F0326A84617
:101DF00034200BF077FA38460BF034FA50460BF0EB
:101E000031FA002506E06159E8190BF047FA2D1D5B
:101E1000454502D20428F6D001E0042804D0761EFD
:101E2000E6D10BF0F7F904E00BF0F4F9FFF707FF48
:101E300010B90A2008F053FBFFF7A3FFB9F1000F18
:101E400006D0BDE8F047012214210F2001F02ABE80
:101E5000BDE8F08770498A6802438A6070476E491E
:101E60000020886070472DE9FC5F71A1D1E9000175
:101E7000CDE9000140F2C44167480BF04FFB4FF43D
:101E8000827167480BF04AFB634B4A2000251870AB
:101E90000320587102209D60FFF7DCFF83F8C054D7
:101EA0004FF41670A3F86201FA20A3F864012A2007
:101EB000A3F86001A3F86A51A3F86C51A3F86E511E
:101EC00083F8535183F8545183F85551A3F8565170
:101ED000A3F85851A3F85A5183F85D5183F85E5125
:101EE0004FF4FA70A3F86801012683F85C612020A2
:101EF00083F866014FF4C870A3F878016E2083F868
:101F00007D012B2083F87E01212083F87F0123208F
:101F100083F8800183F8815183F88A5183F88B51CB
:101F200083F8AE5183F8AF5183F8B05140F2DC50E2
:101F3000A3F88E0140F24C40A3F8900140F26C707F
:101F4000A3F8920183F8945183F8956183F8966120
:101F500040F27E40A3F8400140F23A70A3F84201FB
:101F60004FF47A70A3F8440140F27E50A3F8460182
:101F700040F2EA50A3F8480140F2B450A3F84A01F5
:101F80003220A3F84C01C100A3F84E11A3F8500170
:101F9000052183F8761183F89E5183F89F514FF401
:101FA000E131C3F8A4114FF41651C3F8A81183F816
:101FB000AC5183F8AD5140F6AC5199819D7383F8D3
:101FC000975140F6FF71164CA3F89A1128272570F7
:101FD00067704FF01E0984F80B9017226275A77086
:101FE00084F80C90A2755521E1702D216173E5757F
:101FF0002071A57325760B226271E57365764FF02B
:10200000140A84F806A008222274A1760E22E27136
:1020100012E00000BCF900082C04002000F80108C0
:10202000F00800207C0C00208A0C002000FC010835
:102030001E1E64646464646484F811A05022E27615
:102040005A2222724FF00A0B84F812B04FF0640843
:1020500084F81C8067727823A3722175A677E277D3
:10206000412184F8201084F8255084F8265040F24D
:10207000DC51218584F8210084F82250A585E5856E
:102080006585042084F8300084F8317084F832705B
:10209000152084F83300604860636048A06360489E
:1020A000E0636048206484F84460192084F84500A7
:1020B0005DA0FFF7AEFD84F8765084F8775084F881
:1020C000787084F8796084F87C504FF44870A4F8F4
:1020D0007A00C82584F8CEB084F8CF504FF49660CB
:1020E000A4F8D00040F2D930A4F8D2005148002121
:1020F0006C4640F2DC534FF47F764FF4FA6700BF32
:1021000001EB810200EB420222F87E6F5780938040
:1021100014F801C0491C82F806C00829F0DB01212F
:1021200000F8D41F444C41708170858080F806A06F
:1021300080F807900172A0F80A804FF496718181AF
:102140002821C1814FF07C5101614161A0F81AA0A2
:102150000F218183C183018440F26C7141848384A7
:1021600040F21451C184082101854FF07E51C162B3
:10217000522084F8C10400204FEA000104EB001251
:10218000401C11610C28F9DB00254FF4827600BF5A
:1021900005EB851004EB80003246264900F5DA7025
:1021A0000BF0A3F96D1C032DF2DBBDE8FC9F10B50D
:1021B0000446FFF744FD641E204206D1FFF753FE9C
:1021C0000021BDE810400846E1E510BD1B49096843
:1021D000014201D0012070470020704717490A686A
:1021E00002430A60704715490A6882430A607047D3
:1021F00012480068704710498968014201D00120E7
:102200007047002070470C498A6882438A60704793
:1022100009488068704700009A99193FF6287C3F6A
:102220003D0A773F0000A0404145545231323334DB
:1022300000000000F00800202C040020080000200E
:1022400070B5F84D95F8450040350BF0D2FAF649D7
:102250000BF04AFA0CF0A0F8F44E044630880BF06C
:10226000C8FA21460BF040FA0CF054F9F04C6080AB
:1022700030880BF0BEFA0146EE480BF067FAEE49E3
:102280000BF064FAE066688F0BF0B3FA0146EB4896
:102290000BF05CFAEA490BF027FA2067E949286855
:1022A0000BF022FA01464FF07C500BF04FFA6067BA
:1022B0000820FFF78BFF002803D0BDE8704003F033
:1022C0003FB970BD002801DD024600E042428A426B
:1022D00001DA00207047002802DDA0EB0100704702
:1022E000FDDA084470472DE9F04F91B0D0E9004580
:1022F000814686680F4608680CF04EF804903868EE
:102300000CF014FC059078680CF046F88346786869
:102310000CF00CFC8046B8680CF03EF88246B868B9
:102320000CF004FC0746504604990BF0DDF90990C7
:10233000384604990BF0D8F90890514605980BF0EF
:10234000D3F90790394605980BF0CEF90690594617
:1023500050460BF0C9F910908BF0004039460BF055
:10236000C3F90746414607980BF0BEF908990BF0F0
:1023700063F90390414606980BF0B6F909990BF002
:10238000B0F982460598594680F000400BF0ACF950
:102390000590414609980BF0A7F906990BF0A1F9B1
:1023A0000290414608980BF09FF907990BF044F909
:1023B0000690584604990BF097F9834630460299E7
:1023C0000BF092F90090284603990BF08DF90190DB
:1023D000204610990BF088F901990BF02DF900991E
:1023E0000BF02AF9C9F80000304606990BF07CF989
:1023F0000090514628460BF077F982463946204630
:102400000BF072F951460BF017F900990BF014F923
:10241000C9F80400594630460BF066F906462846CE
:1024200005990BF061F90546414620460BF05CF931
:1024300029460BF001F931460BF0FEF8C9F8080007
:1024400011B0BDE8F08F2DE9F04387B080460BF066
:10245000D0F97D490BF048F9054675489830016878
:1024600081F000410391406880F00040049077487B
:10247000B0F900000BF0B4F975490BF035F96C4C6C
:1024800005908A34B4F900000BF0AAF90090B4F971
:1024900002000BF0A5F90190B4F904000BF0A0F9CB
:1024A000029003A96846FFF71EFF5E4E8A3C96F82D
:1024B0004400012804D05D4800880BF09AF917E029
:1024C000644840780028E06B0CD1C11700EB9161A3
:1024D000A0EBA1100BF084F902990BF0ADF80BF012
:1024E0008DF9E063C11700EB916080110BF078F972
:1024F00002990BF0F6F80290216C89460BF0EEF889
:1025000007462946606F0BF097F8014628460BF006
:102510001DF939460BF0E8F849460BF08DF82064B8
:1025200000980BF0F7FF96F832103136FFF7CAFE2D
:10253000494D29680844286001980BF0EBFF717839
:10254000FFF7C0FE696808446860206C0BF0E2FF8A
:102550003178FFF7B7FEA9680844A860A16801EBCD
:102560000800A060E068401CE06007B0BDE8F083B0
:102570002DE9F05F2E4D0446983528680BF00CFFCE
:10258000834628680CF0D2FA824668680BF004FF94
:10259000814668680CF0CAFA0546D4F808802946D6
:1025A00040460BF0A1F859460BF09EF867680646C6
:1025B000514638460BF098F829460BF095F8054639
:1025C000494620680BF090F829460BF035F8314663
:1025D0000BF032F80446514640460BF085F80546AC
:1025E000594638460BF080F829460BF077F821461B
:1025F0000BF0A4FD19490BF077F812490BF0A6F87F
:102600000B49496B0BF018F815490BF09FF80BF0CC
:1026100081FF00B2002802DA00F5B47000B2BDE814
:10262000F09F0000F008002035FA8E3CC801002021
:102630000C0000200AE81C4100401C4600006144D8
:102640004C3D0F44DB0F4940BD378635F801002073
:1026500035FA8EBC440C00200C0A00200000E14436
:10266000000020412DE9F041044680680D460146F6
:102670000BF03AF80746606801460BF035F806465D
:10268000206801460BF030F831460AF0D5FF394694
:102690000AF0D2FF0CF00EFB064610F0FF4F0ED0F2
:1026A000314620680BF052F82860314660680BF024
:1026B0004DF868603146A0680BF048F8A860BDE8A6
:1026C000F0812DE9F04F87B0002607F03CFEDFF8DF
:1026D00008B405465C46DBF84400281A03900BF06A
:1026E00088F8FE49C9680AF0FFFF0590DFF8F0A3FB
:1026F000656400249AF830700BF18A054FF07E581B
:10270000F5487E3030F914000BF06AF805990AF0AC
:10271000EBFF4DF8240027B338460BF06AF801466A
:1027200040460BF013F881460490EB48843030F9B2
:1027300014000BF055F849460AF0D6FF8146414691
:1027400004980AF0CEFFE74951F824100AF0CCFFB4
:1027500049460AF071FFE34941F824000BF04EF8B6
:1027600003E0DD48843030F8140025F8140035F912
:102770001400641C00FB0066032CC1DB642046438C
:10278000D94869460088404396FBF0F4D548183094
:10279000FFF7A9FDD34EA0B2183649383C2826D2FF
:1027A000D2480024A946B0F862010BF022F8454651
:1027B000414604900AF040FF014628460AF0C6FF51
:1027C0004FEA000539F914000BF00AF8074656F8ED
:1027D000241004980AF088FF39460AF02DFF294694
:1027E0000AF082FF46F82400641C032CEADB5D46F5
:1027F000BBF902000AF0F4FF3446B1680BF02CF884
:1028000001D2012000E00020B949A1464873D4E973
:1028100001010BF093FCB04E98363060A068014681
:102820000AF062FF0746606801460AF05DFF39461C
:102830000AF002FF0CF03EFA0146206880F00040EA
:102840000BF07CFCAB4F7060394630680AF04CFFEF
:102850000BF060FEA6F160043946208070680AF033
:1028600043FF0BF057FE60800820FFF7AFFCDFF856
:1028700088B2002869465CD09A480C38FFF733FDCF
:102880009A48984F002446460C3FB0F864010AF07D
:10289000B0FF314604900AF0CFFE014630460AF000
:1028A00055FF06468C48903030F914000AF098FF26
:1028B000804657F8241004980AF016FF41460AF0A3
:1028C000BBFE31460AF010FF47F82400641C032CBD
:1028D000E8DB8448B0F10C00FFF74AFEABF80000DB
:1028E0000398FFF7B0FD9AF87C00564600284AD0BE
:1028F000D9F808004C4601460AF0F6FE80466068AA
:1029000001460AF0F1FE0746206801460AF0ECFE97
:1029100039460AF091FE41460AF08EFE0CF0CAF9E3
:102920000146A0680AF012FF744988420DDC0020BD
:1029300028E06948A030FFF7D6FC6749A031084677
:10294000FFF790FE6448A030C6E70BF069FB296FE3
:102950000AF0CAFE0BF0DEFD4FF46171884200DD23
:1029600008460AF03DFF66490AF0F0FE0CF0DEF87A
:10297000044696F87C000AF03CFF21460AF0B4FEBB
:102980000BF0C8FDA88007B05BE510B502F0CFFDE5
:102990000220FFF71BFC20B102F0F6FCFFF791FECE
:1029A00005E04D49002084310880488088804F48E8
:1029B000494942797E31881F012A06D08A8882805F
:1029C0000A8802804988418010BD434BB1F9042038
:1029D000B3F9064002EB4402032492FBF4F2828036
:1029E000DA80EDE73F4900200C31086048608860DC
:1029F0003949C860886070472DE9FE4F07F0A3FC95
:102A0000024635483830B0F90010002901DD0B4688
:102A100000E04B42B0F90200002801DD044600E06E
:102A20004442A34205DD002901DD084604E0484296
:102A300002E0002800DC4042274C05B246F2A81113
:102A4000A06CA2EB0009894502D20020BDE8FE8FF0
:102A50002C4EA264DFF8B0A03088DFF8B0B0204F71
:102A60004FF07E5840B3206E2269C11700EB5171C0
:102A7000A0EBE10097F83310491EB2FBF1F10844D6
:102A8000C117206600EB5170C0100AF0A9FE514634
:102A90000AF05CFE59460BF057FD41460AF021FE54
:102AA0001B490AF021FE0AF0A9FEE065002020651E
:102AB00060653088401E3080094F216997F83300E7
:102AC000401EB1FBF0F00AF094FE51460AF03EFEC3
:102AD00059460BF039FD1DE00C000020840E00204B
:102AE000F0080020000A0020C80100202C0400206B
:102AF000440C00204C3D0F44F80100208FC2753C6F
:102B0000EFB6B044F601002080E6C547B1DC423E96
:102B1000D048874A4FF07E5841460AF0E2FDAD4961
:102B20000AF0E2FD0BF0F6FCE16D7F6B461A3946C8
:102B300040460AF0D3FD804630460AF051FE414639
:102B40000AF0D2FD064660690AF04AFE39460AF0EC
:102B5000CBFD31460AF070FD0BF0DCFC06464FF071
:102B6000FF3B6061FA2D01DD584613E028460AF06C
:102B700037FEDFF8648241460AF0B3FD0746206A5B
:102B80000AF02EFE39460AF0AFFD41460AF0DEFD9E
:102B90000AF034FEA0F1010807462062B8F1C70F21
:102BA00003D2F01B6761E06126E0E069361A6661D6
:102BB000002F21DDC7F596700AF012FE87490AF052
:102BC000C5FD8246A06151464FF07E500AF086FD59
:102BD000009030460AF004FE00990AF085FD064692
:102BE00038460AF0FDFD51460AF07EFD31460AF0F6
:102BF00023FD0AF003FE6061A0680AF0FAFD0746B3
:102C000077490AF071FD0646E0680AF0E9FD824660
:102C1000744880680AF0E4FD51460AF097FD824648
:102C2000E16E0AF061FD39460AF05EFD0090206D0C
:102C3000314601900AF058FD0746594600980AF0BF
:102C4000C3FD31460AF050FD39460AF0F5FC616DCE
:102C50000AF0F2FC83466448C76B4FF07E50394659
:102C60000AF03CFD0646606902900AF0B9FD314663
:102C70000AF03AFD0646394658460AF035FD314617
:102C80000AF0DAFC6065B8F1C70F01D2029801E0E2
:102C90000AF0B4FD6066DDE900100AF0CDFC2065A5
:102CA000FFF7A0FE48460AF0A4FD07466669A06D3E
:102CB000301A0AF095FD4D490AF016FD39460AF022
:102CC00045FD0AF09BFD40F2DC525142A66505F03D
:102CD00041F80A21FFF7F6FA434E81464FF07E5045
:102CE000D6F8388041460AF0F9FC074648460AF013
:102CF00077FD39460AF0F8FC07464146206D0AF098
:102D0000F3FC39460AF098FC20650BF003FC0746FB
:102D10000521FFF7D7FA2063B5F5487F57DA207809
:102D20004FF49678C8F10009C8B3A06A4246C51BA3
:102D3000B07A6843C11700EBD1604011494605F0F5
:102D400009F86062307DE16A294A00FB05105142B2
:102D5000E06204F0FFFF42F20401E06290FBF1F058
:102D6000616A084460625046E16C0AF065FC054601
:102D7000B07F0AF03EFD29460AF0B6FC6FF008016C
:102D80000AF022FD0AF03AFD9622514204F0E2FFD9
:102D9000616A081AC4F84CA06062012056E6FFE799
:102DA000D4E91910401A4FF4FA72514204F0D2FFDC
:102DB0000A21FFF787FA0146307942464843C11796
:102DC00000EB5160C011494604F0C4FFAEE700209B
:102DD000E0E70000D048874A000061440000C84294
:102DE000BD3786350C0A0020F00800200024744905
:102DF0002003190070B5D84D0446286808F0F0FF8C
:102E00000028FAD0E1B2286808F0D2FF204670BD51
:102E100088B0FEF7FDFE0020FFF7C9F9FEF72CFF92
:102E2000CE4CA07B00B1012009F0FBFACC48CD4983
:102E3000CD4D00680126884201D12E6004E0CB49C7
:102E4000884201D10220286007F0AFFA0820FFF77E
:102E5000D2F930B194F88A0108B1012801D104F007
:102E600046FE642007F030FBFEF729FF08F0A7FBC1
:102E7000022802D1286802281ED02868032802D020
:102E8000012006F003FD94F88101002528B10128F6
:102E900015D0092813D0052811D08DF8185084F8C2
:102EA000815100BF94F8980198B101280AD00928EF
:102EB00008D0052806D00CE003202860E3E78DF851
:102EC0001800EFE794F88111884202D08DF81900BC
:102ED00003E08DF8195084F8985106A806F0B2F86E
:102EE0000220FFF788F908B102F024F904F03AFF54
:102EF0000E20FFF773F901F0B5FF10B9032007F0BA
:102F0000EEFA9B494FF0100AC1F800A0A1F10408A5
:102F10004FF00809C8F800900027A8F1040B00BF83
:102F2000DBF8001081F01001CBF80010DBF8001086
:102F300081F00801CBF80010192007F0C5FA012034
:102F400007F01EFA192007F0BFFA002007F018FA60
:102F50007F1CFFB20A2FE3D34F46C8F80090C8F891
:102F600000A0FFF76DF900F072F9D4F8A40102F0A7
:102F700090FC60790E280BD0082809D0182807D0BB
:102F80008DF806504FF48070FFF735F938B902E03C
:102F90008DF80660F6E70820FFF72DF900B1012053
:102FA0008DF802004020FFF726F98DF8030001207C
:102FB000FFF721F98DF801000820FFF71CF9DFF871
:102FC000988180F001008DF80000DFF8A89198F852
:102FD00016008DF8040099F8D6004FF47A7AC0F301
:102FE00080008DF80500B4F84E01ADF80A00B4F881
:102FF0005001ADF80C0094F852018DF80700ADF8BF
:103000000EA04FF48040FFF7F6F818B1B4F84A016B
:10301000ADF80E00BDF80A00B0F5FA7F01D9ADF8A1
:103020000E504FF48030FFF7E6F88DF814004FF49F
:103030000030FFF7E0F88DF81500B4F88E01ADF818
:103040001000B9F8D200ADF8120094F881010128FF
:1030500026D0092827D08DF80850684607F036F8A2
:103060009DF8160088F81700434B002040F2DE520E
:1030700023F81020401CC0B21228F9D340483F4A20
:10308000026088F815700820FFF7B5F810B394F8BF
:103090008A0106281ED2DFE800F00A0A0E12161A6C
:1030A0008DF80860D9E707208DF80800D5E7344887
:1030B00004F0F5FC0EE0324804F0C7FF0AE03048A7
:1030C00005F07AF806E02E4805F07DFC02E02C4879
:1030D00005F052FF94F89F0103F07FFB0120FFF7FA
:1030E0008AF830B14FF48060FFF785F808B102F03C
:1030F000B4FA4020FFF77FF848B194F8AC11D4F847
:10310000A80108F073FD94F8AD0108F082FD4FF4BA
:103110000060FFF770F808B105F0E2FA07F013F964
:10312000184908606079052803D117494FF4C87021
:1031300008801649C820A1F800A015490880154844
:1031400080F80D6001F01AF9FCE70448B0F9440179
:1031500000F0F9F9FEE70000240A00202C0400200A
:10316000C803002000127A00C8000020001BB7002E
:10317000140C0140F0080020580C00200D3F0008FE
:103180001801002014010020C4010020C601002005
:10319000F6010020440C0020014600EB8102FE48AD
:1031A00000EB4200B0F98200122804DA082902DAA2
:1031B000FA4931F910007047F74A00EB800002EB42
:1031C00040000122B0F886008A40104202D04FF041
:1031D000FF3070470120704770B5F14C002070211E
:1031E0006070F0480AF09AF9EE4DEF49002000BFF8
:1031F000C0EBC0035A1892F8D260002E0ED02B44B8
:1032000052F8D06F1E6096889E8092799A7162788B
:10321000401C521CC0B262701028E9D370BD2DE969
:10322000F041E04E0024E04D4FF48047D83E384650
:10323000FEF7E1FF10B1B5F84A0101E0B5F844012D
:1032400026F81400641C0C2CF1DBBDE8F0812DE99C
:10325000F05FD54DD54E687906EBC000407808B1D7
:10326000012100E00021DFF848A320208AF8161091
:10327000FEF7C1FF10B101208AF816006979DFF866
:103280002493C74CA9F1C00917290AD016F8312098
:1032900006EBC100227040685FEA000B25D00020D9
:1032A00021E000204FEA090805EB0012136913F032
:1032B000FF4F1AD0143208EB001692E8841008C6AB
:1032C000401C86E884102278521C22700C28EBDB0C
:1032D0000BE000BF0BEB001609EB001396E8C011E2
:1032E00083E8C011401C9042F4DB9AF81600E0B16C
:1032F000AE48C83010F8312000EBC1006270416860
:1033000099B10020A74E0EE0C0EBC003CF183344A4
:10331000D7F800C0C3F800C0B7F804C0A3F804C0D1
:10332000BF799F71401C9042EEDB4FF48040FEF766
:1033300062FFD8B12778012F18D9002614E000BF0A
:1033400009EB06144FF0FF384146A0680AF03CFA3A
:10335000A060414660680AF037FA60604146E06864
:103360000AF032FA761CE060BE42E9DB68799149E6
:10337000082808D00E2806D0182804D00020087489
:10338000BDE8F05F4BE701220A741828F8D1FFF777
:1033900023FFF5E770B500228349144610F10100C0
:1033A000C2EBC2030B44521C83F8D64083F8D240D0
:1033B00083F8D14083F8D040102AF1DB7B4B002208
:1033C000C83303EBC00413F830000CE0C2EBC203B7
:1033D0006568521C1D440B442E6843F8D06FAE88BC
:1033E0009E80AD799D719042F0DC70BDF0B50021FA
:1033F0006D4A0B4610F1010002EB0114491C2361D8
:103400000C29F9DB694B03EBC0014C68002C0FD091
:10341000002113F8300009E004EB011302EB011561
:1034200093E8C8101035491C85E8C8108842F3DCC1
:10343000F0BD5F4810B5807D002872D0584C5A48C6
:10344000A41C4079E18822890E2836D008DC0128A6
:1034500017D0042826D005280DD0082806D127E04B
:1034600014281FD0152828D0182834D02020FEF783
:10347000C2FE002855D02188002006F0E1FE6188B8
:103480000EE047494448891C90F8D500498908B1A5
:10349000002042E0474840780028F9D10021F7E7B2
:1034A00001203AE01146002006F0CAFE6189F7E7E4
:1034B000002006F0C5FE2189F2E7002006F0C0FEDC
:1034C0002189012006F0BCFE6189022006F0B8FEC9
:1034D000A189032021E0002006F0B2FE218901200D
:1034E00006F0AEFE6189022006F0AAFEA189032043
:1034F00006F0A6FE0120FEF77EFE002811D02188EE
:10350000042006F09DFE6188052006F099FEA18842
:10351000062006F095FEE1890720BDE8104006F080
:103520008FBE10BD70B51F4E0024F03E1C4D06E04E
:1035300036F81410204606F07CFE641CE4B22878AD
:103540008442F5D370BD164A164B00211278F03B29
:1035500004E000BF23F81100491CC9B29142F9D31D
:10356000E0E72DE9F04F134889B0807A08B112489E
:1035700000E012480188ADF800104188ADF8021053
:103580008088ADF8040007480449F0380088ADF899
:1035900006000A89044813E0F0080020580C0020B7
:1035A000CC0000204C0B00202C04002098FE0008CA
:1035B000240A0020440C0020800100206801002023
:1035C000B0F88E01121AADF808204A89121AADF827
:1035D0000A208A89121AADF80C20CA89121AADF88D
:1035E0000E200A88121AADF810204A88121AADF877
:1035F00012208A88121AADF81420C988081AADF86A
:10360000160000200146FD4D894625F81010401C8B
:10361000C0B20828F8D3DFF8E4A30024DFF8E0B351
:10362000AAF1020A60E000BFF648C4EBC4010E181C
:10363000B27912B1F44BD25C82B310F80180F34836
:1036400008EB880100EB410096F90420B0F88010E7
:10365000B0F87E007778081A80B24243642192FB6A
:10366000F1F2A2EB500212B2079296F90520424302
:1036700092FBF1F1A1EB500000B20690F07840B15E
:103680003BF914103DF91730994208DA08441A46FC
:103690000AE03DF817102BF8141009E020E007DDD0
:1036A000A1EB00000A46194604F054FB2BF8140065
:1036B00039464046FFF780FD07463BF9141096F95E
:1036C00002004143642091FBF0F0DDE9062104F0A3
:1036D00041FB35F9181007FB001025F8180001E030
:1036E0002BF81490641CE4B29AF8010084429BD336
:1036F0000023C64C5FF0640603EB830004EB40003C
:1037000035F9131090F98400484390FBF6F025F842
:1037100013001846FFF740FD35F81310084425F84C
:1037200013005B1CDBB2082BE6D309B0BDE8F08FB9
:103730002DE9F84FB14CDFF8D8A2A41E2078032859
:1037400015D9BAF904004142002801DD024600E023
:103750000A4602F1640200DC0846AE4D6FF06301D8
:10376000A1EB0001B5F9040004F0F4FAA880A34825
:10377000A34D801EDFF8948207782035012F3AD9B7
:10378000002436E0DFF88C9298F9D400B9F90410DF
:10379000404248430AF024F89949503101EB04169D
:1037A000F16809F0A1FF0090B9F900000AF018F8DB
:1037B000716809F099FF8346B9F902000AF010F820
:1037C000B16809F091FF8146BAF906000AF008F8DD
:1037D000316809F089FF494609F02EFF594609F082
:1037E0002BFF009909F028FF0AF008F825F81400CB
:1037F000641CBC42C6D3DFF82092884C99F81000B4
:1038000058B199F80100C8B1B4F84221B4F8401198
:10381000BAF9060004F09EFA2880A2466079804F2B
:103820003226764C0E2812D00BDC01280FD004284B
:103830000DD005280ED0082825D108E0B4F84401A1
:10384000EAE7142803D0152801D018281BD1FFF768
:1038500088FE18E098F98400B7F90210C44648437E
:1038600090FBF6F30020FFF797FC184420809CF9AA
:103870008E00B7F90010484390FBF6F30120FFF7E4
:103880008BFC184460802020FEF7B5FCC8B30020F4
:10389000FFF782FC20800120FFF77EFC5A49608000
:1038A0001439097A69B398F8D620920798F98420D8
:1038B00016D5B7F9023098F98E10B7F90070524258
:1038C0005A43794392FBF6F391FBF6F792FBF6F23B
:1038D00091FBF6F1DB1B27881144FB1A23800EE0D5
:1038E000B7F902305A4392FBF6F223881A44228039
:1038F00098F98E10B7F90020514391FBF6F1084476
:10390000608000264FEA080706EB860007EB4000C0
:10391000B0F98020B0F97E1034F9160004F01AFADC
:1039200024F81600761C082EEED33848DFF8F4B0E1
:1039300090F8D60040070FD53B480026D846C77DF3
:10394000B7F1040708EB46000189F019C0B206F090
:1039500077FC761C042EF5D328490120891EB5F981
:1039600000700B7806E000BF35F91020BA4200DD88
:103970001746401C9842F7D30026884689E000BFCE
:10398000BAF84201B84205DA35F81610381A081AA2
:1039900025F816004FF48040FEF72DFC68B3BBF904
:1039A0000610BAF88E21914213DDBAF84221BAF816
:1039B000481135F9160004F0CDF925F816009AF8EB
:1039C0000500012859D11148B0F9B220B0F9B01062
:1039D00012E0BAF84621BAF8441135F9160004F09D
:1039E000B9F925F816009AF80500012845D10748CD
:1039F00030F9B02FB0F9021018E01DE0CE00002021
:103A00003C0A00204C0B0020B60C0020F0080020DF
:103A10008001002068010020440C00202C040020BC
:103A200044000020580C0020240A0020B4F90A00A9
:103A300004F090F9608120E0BAF84221BAF8401110
:103A400035F9160004F086F925F81600BBF90610C2
:103A5000BAF89001814214DA1020FEF7CCFB40B195
:103A6000BAF8440125F816005FF0010189F8111039
:103A700003E0BAF8400125F8160099F8010010B1EA
:103A800006E00021F2E7064830F8160025F8160097
:103A9000761C98F800008642FFF472AFBDE8F88FFC
:103AA000740A00202DE9F04717468946064600258E
:103AB000DFF81C841AE0002411E000BFD8F80010E1
:103AC00081F00801C8F80010012006F059FC4846B2
:103AD00006F0FAFC002006F053FC641CE4B2B44289
:103AE000ECD33C2006F0F0FC6D1CEDB2BD42E2D3FD
:103AF000BDE8F0872DE9F84FF64AF74CB2F90630E9
:103B0000218D8B4201DA64250DE0F348B3F5FA6F9D
:103B100090F8260005DA5D1A4543C1F5FA6095FB79
:103B2000F0F0C0F16405DFF8B4E3A14694F876B094
:103B300094F877A0BEF88E410021E64840F2E63CBA
:103B400030F91160301B00F2F317674503D80028E5
:103B500003DCA01B01E04FF4FA70022935D0BBF161
:103B6000000F05D0834502DAA0EB0B0000E0002037
:103B7000642290FBF2F2D74F6FF01808243707EB5E
:103B8000420C37F91270BCF902C002FB08F2ACEB30
:103B9000070C00EB82020CFB02FC64229CFBF2F29D
:103BA0003A44CF4F27F8112009EB010292F8232065
:103BB00042434FF4FA7092FBF0F0C0F1640080B21F
:103BC0006843642290FBF2F01CE0BAF1000F05D0CC
:103BD000824502DAA0EB0A0000E000209EF95C2199
:103BE000DFF8FCC252424243ACF8042099F8252089
:103BF000002800DC404242434FF4FA7092FBF0F0A0
:103C0000C0F1640009EB0107642297F801C0DFF8F6
:103C1000D0820CFB00FC9CFBF2FCA8F17C0808F8AD
:103C200001C097F80BC008F103080CFB00FC9CFBDB
:103C3000F2FC08F801C07F7D474397FBF2F008F1E2
:103C40000302A642505405DAA54830F8112052422A
:103C500020F81120491C0329FFF66FAFF146744686
:103C6000BEF8901118464FF4FA6204F073F8B4F8F5
:103C700090114FF47A72401A5043C1F5FA61B0FBCB
:103C8000F1F1642291FBF2F0924B6FF018053233A0
:103C900003EB400433F910306843B4F9024001EB00
:103CA0008000E41A444394FBF2F08D4E894D184491
:103CB000143DF080687AA6F1A004E0B38948B4F915
:103CC0001610B0F90000401A09F08AFD864909F083
:103CD0000BFD864909F03AFD07460AF05DFB0090AE
:103CE00038460AF023FF8346B6F9000009F078FD54
:103CF0008246594609F0F8FC0746B6F9020009F079
:103D00006FFD8046009909F0EFFC394609F094FCFC
:103D100009F074FD07464046594609F0E5FC804627
:103D20005046009909F0E0FC414609F0D7FC09F043
:103D300065FD308077800220FEF75DFA0026E8B34B
:103D4000A189206D084420656079401CC0B206211D
:103D5000B0FBF1F2607101FB120080BBA06CC117D7
:103D600000EB5171A0EBE100A064002005F0F0F938
:103D7000A16C0844C117A06400EB5170C0F3CF00E0
:103D800001F0ADF9208399F88101C0B1E06CC11751
:103D900000EB5171A0EBE100E064022005F0D8F9DE
:103DA000E16C0844C117E06400EB5170C0F3CF0030
:103DB00001F0ADF9E066216D484301E01FE012E03B
:103DC0004FF47A7190FBF1F0454AC117203AD2E9DD
:103DD0000637C0187941C2E90601454A002309F0B7
:103DE00025FB26652067208B618C884201D8012045
:103DF00003E0218C884202D8022003F0DFFE03F0AA
:103E000068FF3C48324F008818B10220FEF7DEF907
:103E100010B93948008820B1386880F0080038604F
:103E20000CE0A978082011B12949091D08606978BA
:103E300011B127490831086004F037FC8020FEF7F3
:103E4000DAF948B1616D206B411A05D44CF250315A
:103E50000844606506F078FE616C206B411A03D45B
:103E6000697B39B10120A87002F0ACFB23480078CF
:103E700048B10FE0AE70396881F00801396020491F
:103E800008446064F0E74FF40060FEF7B4F908B14D
:103E900004F043FC2020FEF799F968B1A16D206B76
:103EA000411A09D4A17A052906D316490844A06508
:103EB000386880F01000386013488168002905D008
:103EC00001B00748BDE8F04F86380847BDE8F88FD5
:103ED0000C0C0140580C0020F00800202C0400209D
:103EE00080010020F8010020DB0F4940000034432E
:103EF000407E0500C4010020C60100200000002013
:103F000020A10700F0490200840E0020FE49084469
:103F100090F8820106F09FB92DE9F0470820FEF7DE
:103F20006AF9FA4EFA4D4FF0000440B1B16BE0B2BD
:103F3000884725F81400641C082CF7DBD8E5F44FFB
:103F400040F2DD584FF00009903FB16BE0B2884776
:103F5000A0F2EE21414502D3EB48B0F88E01F16D9D
:103F600007EBC402CB1701EB937323F00303C91AC9
:103F700022F8110025F814905FF0000035F8143095
:103F800032F81010401C194425F814100428F5DBF1
:103F900035F91400C11700EB9170801025F814005A
:103FA000641C082CD1DBF06D401CF065A0E570B5F9
:103FB000D848D74C143C01886078D1B9A178C1B1F8
:103FC00000281ED101206070D348D04D0088E882BF
:103FD0004FF48070FEF70FF930B1E07A20B1A87A83
:103FE000052801D3072000E00620BDE8704003F05B
:103FF000E5BD002805D1BDE870400122FF21022067
:1040000050E570BD2DE9FC5F00208346054607465C
:104010000190BE48A030B0F902104B42002901DDEA
:104020000C4600E01C468246B0F9000042420028DF
:1040300001DD064600E01646B44205DD002901DD3B
:10404000084604E0184602E0002800DC1046DFF8CD
:10405000CC9200240090AE4E143EF07808B930792E
:10406000F0B3022C40DAA9487C3030F914103AF948
:10407000140001EB4000A449B1F86821514203F05B
:1040800069FEA749DFF89CB231F91410411A0BEB15
:104090004400B0F92C0001EB00089BF808106420E4
:1040A00001FB08F191FBF0F09BF81C1001EB810281
:1040B000494201EB810103F04DFE0190934842F229
:1040C0001072903050F8241001EB0800514203F0B8
:1040D00041FE8E49903141F824009BF8121000E017
:1040E00008E048434FEA203BF07818B1307908B92E
:1040F000022C4FD13AF91450854F05EB8500010190
:1041000088489C3F00EB04084FF47A5298F801006D
:1041100091FBF0F039F91410401A57F824100844B4
:10412000514203F017FE47F8240039F9140000F556
:104130002070B0F5A06F06D8022C07D1BAF90400A0
:104140006430C82802D9002047F8240057F824001A
:104150007D2190FBF1F198F80B00414330798F11EC
:10416000B0B1022C14DA0098009BC0F5FA710198E6
:1041700001FB00F2009801FB0BF105FB00204FF45E
:10418000FA7207FB031190FBF2F091FBF2F608E0E4
:10419000F07820B1022C02DA5E46019801E0284650
:1041A0003E465A4A39F9141024325023125DDFF882
:1041B00060814A4392FBF3F2544B821A8233A8F196
:1041C000500833F9140023F81410081A08F10C01F0
:1041D00058F8243051F824C041F824309C448444D9
:1041E00048F8240049482A30005D00FB0CF0C11754
:1041F00000EBD1609119A1EB60104449883121F89E
:104200001400641C032CFFF626AFBDE8FC9F2DE9CB
:10421000F05FDFF8F8B03E4E00240BF1A00BDFF8A2
:1042200004A19C3EDFF8E49001E0022C6BD03748FB
:104230003BF914107C304FF4FA7230F91400084442
:10424000514203F087FD3649554631F91410401AA2
:104250000AEB4401B1F92C10084409F0C1FA3249C3
:1042600009F074FA09F0CAFA294A143AD178E9B384
:10427000297A41430911AA4628480AEB040730F974
:104280001400FA7A0D1A787856F8241068434FEA29
:10429000E018B9F80C006843C01200FB02104FF49C
:1042A000001246F82400514203F054FD46F8240061
:1042B00043131748203850F8241040F82450B9F818
:1042C0000C00691A02094FF6FF70B0FBF2F0484388
:1042D0000F498011383901F10C0251F8245052F87D
:1042E00024C042F82450AC44844400E02EE041F85D
:1042F0002400787D00FB0CF0011208EB0300084459
:104300000249883112E019E02C040020E00000206E
:10431000580C0020C6010020F80100208400002075
:1043200044000020F00800200000204121F8140083
:10433000641C032CFFF679AFBDE8F09F9AF82500C6
:10434000BBF904101B304843411195E729193BF98B
:10435000143091F8231012791B3159430911002AA6
:1043600089D0AA7C424301EB222184E7F849012845
:1043700001D0F84800E0F848C86370472DE9F84FCD
:104380004FF00008C146C34645460820FDF733FFFD
:10439000DFF8C8A3B8B19AF88A01062813D2DFE87B
:1043A00000F0030306090C0F03F09EFB0AE003F084
:1043B00079FE07E003F010FF04E004F0F9FA01E0F1
:1043C00004F0EAFD0546E248E54C4FF00107016BB9
:1043D000006E4FF00006081A01D5002D7ED0DC4D8E
:1043E00044F6206211442966FFF796FD4FF48040A1
:1043F000FDF701FF28B1DA485E30007808B900F017
:1044000005FD00F037FED24988834FF40070FDF7B8
:10441000F2FE20B94FF40040FDF7EDFEF0B3D148B5
:10442000CB4D90F8CE0000EB8001B5F90E00814233
:1044300029DA607838B3CA490020BAF98E211431DC
:1044400021F81020401C0328FADBC648B0F8D00041
:10445000C880032003F0B2FBC24890F8CE1090F859
:10446000CF00084400EB8001B5F90E00814207DA65
:10447000A07C28B900F0CAFC2670042003F09EFB43
:10448000298A491C2982B74890F8CE0000EB8001A8
:10449000B5F90E00814209DA607800E009E028B938
:1044A00000F0B4FC2670042003F088FBE989491C65
:1044B000E981BAF89051BAF892310020A8494FEA40
:1044C0009808143131F91020AA4201DD48F0800823
:1044D0009A4201DA48F04008401C00E0CEE204288D
:1044E000ECDB9B4DE879804505D1A879FA2803D209
:1044F000401CA87100E0AE7185F807804FF4804839
:104500004046FDF778FE68B1954ABAF88E1114322C
:10451000BAF84C01B2F906200B1A934202DA0844A9
:1045200090420BDC4046FDF766FEF0B98C48143033
:10453000B0F90610BAF89001814216DA88484FF0B7
:10454000010B8838066046608660814890300660BE
:1045500046608448B0F84600C8B181485E300078B3
:1045600058B1207898B1FFF722FD7E48B0F8460098
:1045700068B17B485E30007848B9607838B19AF805
:10458000950110B9BBF1000F01D000F03FFCA879F4
:10459000142818D16078B8B1DFF8C881B8F846009F
:1045A00020B9E8795F2801D100F030FC9AF8940135
:1045B000002808D0B8F84600002804D1E8797D2802
:1045C00001D100F023FC8CE0E879572807D00420C3
:1045D000FDF711FE58B3E8795A2819D027E062494F
:1045E0004FF47A7008804FF48070FDF704FE08B134
:1045F00002F053FC0420FDF7E9FD10B15B490A20ED
:1046000008800820FDF7E2FD88B9594806800EE0D1
:10461000A87810B1AE70EF7023E0687890F00100D8
:10462000687001D00A2000E00B2003F0C7FAE87997
:104630005D2804D05B2804D05E2804D011E001205E
:1046400002E0022000E003208046401E8AF8C004F9
:1046500000210846FDF79BFB424628210220FFF778
:1046600021FADFF80081B8F8460010B9E9796F291E
:104670000CD09AF8941119B110B9E8797E2805D0B8
:10468000E879972805D0A72808D008E0FFF78FFC25
:1046900005E038494FF4C870088000E0A773E87956
:1046A000BB2806D0B72808D0BE280CD0BD280ED015
:1046B00017E0B8F82E10891C02E0B8F82E10891EF9
:1046C000A8F82E1008E0B8F82C10891C02E0B8F801
:1046D0002C10891EA8F82C1001210846FDF757FB65
:1046E000AE710420FDF787FD18B36978322079B1E7
:1046F000617869B11A491431B1F90620BAF89011FC
:104700008A4205DD16495E31097809B968826E7002
:1047100013495E31497C31B12979AA78114300D11E
:1047200068822F7105E0A87818B1607808B9AE707A
:10473000EF70DFF82CE000200EF1140E0EEB4001BC
:10474000B1F9082040F214518A4215DA012314E02D
:10475000E0000020054000080F4200082C04002063
:10476000440C0020F0080020C6010020F6010020C3
:10477000F8010020C4010020002300EB40018B4021
:10478000A2F2155CBCF5C77F02D84FF0010C01E026
:104790004FF0000C01F101080CFA08FC43EA0C038D
:1047A00040F2A46C624501DD012200E00022891C78
:1047B0008A40134343EA0903401C1FFA83F9042883
:1047C000BCDBFF49DFF8FC83002000BF08EB4002A0
:1047D000B2F8462012EA090200D001220A54401C15
:1047E0001828F3DB4878894638B998F8CE00B5F92F
:1047F0000E1000EB800088421CDA0220FDF7E6FC78
:10480000C0B1E07818B9F04806604660E7704FF430
:104810000040FDF7F0FC78B198F8CE00B5F90E1025
:1048200000EB8000884207DA2020FDF7CFFC18B1AA
:10483000A77401E0E670A67499F8021039B1E67029
:10484000217929B9E0490E604E60277100E0267198
:1048500099F8000000B92770E178102009B9217992
:1048600009B1DA4901E0D949091F08600420FDF7C0
:10487000ADFC00B399F8030078B1A07970B9D448C1
:10488000A7710168D3480160CF481030C088A88262
:10489000D1480660D148066000E0A6714FF4005090
:1048A000FDF7A9FC38B199F8040018B1E07B10B904
:1048B000E77300E0E6730220FDF788FC18B90820D2
:1048C000FDF784FCC8B199F80510484639B1617903
:1048D00031B9C34967710A88C2490A8000E066712C
:1048E000817919B1617A11B9677200E0667299F83D
:1048F000070010B1BA480088E8822020FDF766FC66
:10490000F0B3E07AE8B3A87A052850D399F80A10F2
:1049100009B9A17C89B1E079A0BBA949E7712672E8
:104920001E312E72081F02F0D9FF02202870A44801
:10493000E98B26308160E77435E0E67199F80B0069
:1049400050B3A14A1032B2F90000002800DC404206
:10495000B8F8E21088421FDAB2F90200002800DC41
:104960004042884218DA207A60B9974A9448277200
:1049700018322E722630116801605168416002E0E1
:1049800018E014E00FE0011D02F0A8FF8C482F7022
:104990002630E98B816005E02672287A18B92F72DB
:1049A00002F03AFFE6740C2003F008F902E0E67129
:1049B00026722E7099F80C0008B1A07C48B1A6723E
:1049C0009AF80500082806D00E2804D0182802D02E
:1049D0002AE0A772F4E766724FF40070FDF70BFC53
:1049E00010B398F8CE00B5F90E1000EB4000B1EB13
:1049F000400F19DDA672E77071490020BAF98E21C7
:104A0000B1F14A0121F81020401C0328FADBB8F864
:104A1000D000C880E07A38B9A87A052804D8A674EE
:104A2000BAF88E01323808801020FDF7E4FB20B37D
:104A3000607810B3207C00BB286CBBF1000F1AD04B
:104A400068B105F09AFC296C884204D99AF876017D
:104A500008B100F0DBF9092003F0B0F84AE005F0F6
:104A60008CFC9AF8761101EB4102C2EBC11100EB0C
:104A7000C1002864EFE700B12E643BE0524D903D49
:104A8000A86E052836D2DFE800F0030B151F2A00B8
:104A90000820AF66FDF79AFB10B100F064FD48BB3B
:104AA000A86E401CA8660420FDF790FB10B100F032
:104AB0008DFCF8B9A86E401CA8660420FDF786FBA3
:104AC00010B1FDF799FFA8B9A86E401CA8664FF475
:104AD0008070FDF790FB10B102F000FE0AE010209C
:104AE000AE66FDF773FB08B100F0C2FD4FF4005055
:104AF000FDF781FB05F027FC334D903D2863BAF8A4
:104B00000C2012B16B6EC31A6ED41044D046686686
:104B1000FDF73BFF05F017FC2863A98E411AA98118
:104B20006863FEF7E7FF0820FDF750FB48B326490E
:104B30001031B1F9042002F145008A2822D86079A9
:104B400000B32748038827480088181A00B210F1DC
:104B5000B40F02DC00F5B47000B2B42802DBA0F59B
:104B6000B47000B298F95C315B42434318B2637B86
:104B70003BB1144B5B7A43431E2093FBF0F0101AB9
:104B8000888003E016480188164801800420FDF75C
:104B90001DFB70B1A07960B1207C30B30A480F4989
:104BA000103098F99631B0F90220096801FB032111
:104BB0004180DFF8109099F87C00B0B3E07815E000
:104BC000A20C0020F008002070010020140C01400D
:104BD0007000002074000020380000203000002009
:104BE000F8010020FA0100200EE101E0D8BB4DE001
:104BF0008F49DFF84092B5F9143091F87900B9F98E
:104C00000620E8B1A2EB030CBCF1000F01DCA3EB22
:104C1000020C91F87800844508DD87499A420E60BD
:104C20006F7200DD4042104407E037E0687A18B345
:104C300082480168824801601DE0A9F80600B8E7D3
:104C4000D01A002801DD024600E09A1A91F878C0D7
:104C50007C49624508DD7C4A00EBD0704010106052
:104C60000F706F7208E013E0687A28B17348026829
:104C7000734802600E706E727448B8F84221B8F83A
:104C800040110068184403F065F8D6E7207928B190
:104C900068486F4AC18812881144C1802020FDF7FE
:104CA00095FA10B3634FE079243F08B9207AE0B356
:104CB000207BD0B3674EB6F9000008F091FDDFF815
:104CC0009881414608F010FD09F030FF0090B6F9D8
:104CD000000008F085FD414608F006FD09F05CFB88
:104CE0008046207C10B103F090FE83E0514C99F88F
:104CF000DB00DFF868A14E462C3CE8B3A146B4F9CE
:104D00000200241DB4F90210401A01F074FE16F8D6
:104D1000DB2F514203F01EF8618808446080B9F926
:104D20000000B4F90010401A00E060E001F063FEFA
:104D30003278514203F00EF82188084400B22080F6
:104D400008F04EFD8346009908F0CEFC0646B4F903
:104D5000020008F045FD8146414608F0C5FC314699
:104D600008F0BCFC5646514608F0F0FC08F046FD41
:104D700038805846414600E00BE008F0B5FC044698
:104D80004846009908F0B0FC214608F055FC314631
:104D900027E0B4F9000008F023FD8346009908F0ED
:104DA000A3FC0646B4F9020008F01AFD814641460C
:104DB00008F09AFC314608F091FC5446514608F040
:104DC000C5FC08F01BFD38805846414608F08CFCB5
:104DD00006464846009908F087FC314608F02CFC4E
:104DE000214608F0B3FC08F009FD788002E03E801F
:104DF0007E80BE80E86B8047FEF79AFCFEF719FBC9
:104E0000BDE8F84FFEF78EBBBDE8F88F144810B52B
:104E1000417800290AD000244470052002F0CEFE1B
:104E20000448A038016C002900D0046410BD0000C3
:104E3000F0080020800100203800002070000020D1
:104E4000740000200C0000203400002030000020FE
:104E500010000020F801002035FA8E3C00002041AF
:104E6000440C00202DE9F84FFF4C00263746B4F8DB
:104E70006021FE4BFE499B46A1F1100005F05EFF4C
:104E800008B101271AE0FB480068032809D1F84956
:104E9000B4F86021A1F1100007F035F808B101263F
:104EA0000CE0B4F86011F24806F046F930B9B4F8F5
:104EB0006011EF4804F0B9FF00287DD0EE4D4FF0AF
:104EC000020A4FF001094FF0000800BF94F85D019D
:104ED00007284BD2DFE800F008081A3742290400FF
:104EE0000220FDF780F941E08DF800804FF4487012
:104EF000DF49ADF802001039684604F0D2F908B174
:104F000085F8009094F85D0101282FD06FB1D84941
:104F1000B4F860215B46A1F1100005F00FFF85F8A1
:104F200000A094F85D0102282DD066B1D049B4F8F4
:104F30006021A1F1100006F0E6FF0520287094F82A
:104F40005D0105281FD0CA48103805F0F1FF28B1CF
:104F50000320287094F85D01032814D0C448103849
:104F600006F005FF10B1042028700CE0287850B935
:104F700094F85D01401E052802D284F85D81A5E702
:104F80000220FDF730F9BA48203007F0B8F960B9CF
:104F9000B748203004F02AFA38B9B548203006F076
:104FA000CEF910B90420FDF71EF90220FDF70EF925
:104FB00038B194F8540100E05AE0AD49103909685D
:104FC0008847AB4994F85301096888474E464746DD
:104FD00094F85E0148B1012807D002280FD00328B9
:104FE00015D10820FDF7FFF811E0A148103004F0BA
:104FF00024FC20B16E7094F85E01012814D09C4806
:10500000103007F01CF810B185F801A00CE06878AA
:1050100050B994F85E01401E022802D284F85E71F5
:10502000D6E70820FDF7DFF894486421B0F92A009C
:1050300090FBF1F216B290FBF1F201FB1204082092
:10504000FDF7C4F88E4D88B1204608F0C9FB8D49A4
:1050500008F04AFB0446304608F0C2FB214608F03F
:10506000EBFA894908F040FB286000E02F6001203E
:10507000BDE8F88F10B57C4C002094F89711B1B1C1
:1050800082484FF47A7200EB41000021B0F906002B
:10509000A0F57A7002F05EFE08F0A2FB7C4908F0F1
:1050A00055FB7C4908F020FB08F0C1FB15E094F8A3
:1050B0009811002912D0032004F04AF8B4F89C118A
:1050C00040F2FF32401AB4F89A11C0EB802090FBF6
:1050D000F1F000B2002102F03DFE80B210BD70B5CB
:1050E0000546614890F87D0108F083FB0446284698
:1050F00008F07FFB684908F0F7FA684908F026FBDA
:10510000214608F0F1FA08F092FB80B270BD40F63B
:10511000E441484340F6FF71B0FBF1F05249B1F869
:105120007A21B1F87811801A4FF47A72504390FBCB
:10513000F1F0704770B500252C46002004F008F807
:1051400005440A2005F0C0F9641C202CF5D3C5F3F2
:105150004F10FFF7C4FF444A012192F87E3100BF8F
:1051600003FB01F4844202D8491C0829F8D34C48B7
:105170004C4B017092F880014843188092F87F01EF
:1051800048434949088070BD2DE9F05FDFF8E89099
:10519000464E3A4FB9F80420334C0025CAB344496F
:1051A00000204FF4C878424501D141F8205051F811
:1051B000203036F910C0634441F8203026F81050F2
:1051C00004EB4003401CA3F86A510328EBDB012ADF
:1051D0001AD10868C83090FBF8F0A4F86A01486852
:1051E000C83090FBF8F0A4F86C018868C83090FBD8
:1051F000F8F1B9F80800081AA4F86E01BD8501217C
:10520000FD850846FCF7C3FDB9F80410491EA9F84E
:1052100004100420FCF7EFFF00287DD0DFF8948015
:10522000DFF854B0DFF888A0B8F800200BF1240BA9
:105230000AF10C0A322A05D0F2B300205146322A74
:105240003DD03EE0B4F86A11ABF80010B4F86C1130
:10525000ABF802100848B4F86E11ABF804100A302D
:10526000B98D0180F98D28E02C040020380A002037
:10527000840E0020C8000020C0010020F00800209B
:10528000400000208988883C00002041580C002004
:1052900000007A4400C07F443333534000F07F4520
:1052A0009401002000010020020100209000002055
:1052B000540D0020F200002035E04180BDE741F8A8
:1052C000205051F8203036F910C0634441F82030A6
:1052D00026F8105004EB4003401CA3F86A51032841
:1052E000ADDB012A1AD1F848F84905700120087091
:1052F0000A2002F063FCBBF80010A4F86A11BBF8A6
:105300000210A4F86C11BBF80400A4F86E01F04878
:105310000188B985408800E025E0F885B8F80010DC
:10532000491EA8F80010EB480178E1B10570DAF8E1
:105330000020322192FBF1F2A4F86A21DAF804206D
:1053400092FBF1F2A4F86C21DAF8080090FBF1F17D
:10535000B9F80800081AA4F86E01BD850121FD8581
:105360000846FCF714FD3088B4F86A11401A308002
:105370007088B4F86C11401A7080B088B4F86E115F
:10538000401AB080BDE8F09FD34810B54168D348BB
:105390008847BDE81040F7E630B5CD4CD04A0A3C0E
:1053A000206992F833200146401C824200D100203F
:1053B000CC4A1368CC4A42F82130CC4952F820201C
:1053C0000D682B449A1A0A60206130BD70B5C04C3C
:1053D000C7480A3C00686169411A01D5002070BDC8
:1053E0006061BD4DA069303578B128698047686833
:1053F000804728886169084460616A69BD49B94885
:1054000090470020A061022070BDA8688047E8682E
:105410008047FFF7C1FF0120A061688861690844E7
:105420006061012070BD2DE9F05FA94D0A3DE8885B
:1054300000286DD0DFF8A0820024A8F13C08A34624
:105440004FF47A79A8F10C06E888484507D104EBB7
:10545000840208EB820146F824B0C1F810B0A64FD0
:1054600056F8241037F91400014446F8241008F0C7
:10547000B7F9014604EB840208EB8200824600F093
:10548000FAF827F814B09D4F27F814B0E8880128DF
:1054900038D1DAF81000012808DD401E08F0A0F924
:1054A0000146DAF80C0008F051F900E0002009F09C
:1054B00001FC8246924890F86601B0B108F099F973
:1054C000514608F0C9F910D28349A5F806903C3935
:1054D000C8F810B0C1F824B0C1F838B0C6F808B0A8
:1054E000C6F804B0C6F800B00CE056F8240001225B
:1054F00000F5FA7090FBF9F027F814000F210A204C
:10550000FEF7D0FA641C032C9EDBE888401EE8807E
:1055100079497A4A002000BF31F8103032F8104043
:105520001B1B21F81030401C0328F5DB2AE76A48D2
:1055300010B51030416870488847BDE8104072E7E8
:1055400010B570481024046063496D482031096823
:1055500090F8550188476B48001F04605C490120A2
:105560000A39887010BD2DE9F041594C60480A3C59
:105570000068E169411A02D50020BDE8F081624966
:105580000844E06154482030416860488847DFF8AB
:1055900080C14F4B00269CF80E005C49584A2033CE
:1055A0009D1D90B1E06920625FF0000002EB4007B2
:1055B000A7F8706131F8107023F8107025F810709A
:1055C000401C0328F2D38CF80E60A07870B10888D4
:1055D000B2F87071C01B08804888B2F87271C01BA5
:1055E00048808888B2F87471C01B8880206A90B3A4
:1055F000E769381A474FB84218D24248083802685B
:1056000082F008020260002031F9102033F91040C6
:10561000A24201DA23F8102035F91040A24201DD40
:1056200025F81020401C0328EED314E00020266249
:1056300033F9101035F91040214401EBD17102EB20
:1056400040044910401CA4F870110328F0D3012134
:105650000846FCF79CFB01208FE710B5012005F000
:10566000B3FC1020FCF7BAFD2B490020086010BDE8
:10567000294805F0FCBC2DE9F041044600690E46BE
:10568000401C2061012849D008F0AAF8256880460E
:105690002946304608F022F80746414608F056F8F9
:1056A000294607F0C9FF054660602946304608F0E4
:1056B00015F80146384608F017F8A16807F0BCFF56
:1056C000E0602560A06058E7E4000020E2000020D0
:1056D000CA010020E3000020740E0020900000208A
:1056E000F0080020B80000206C0D00201C000020F5
:1056F00010010020BC0000208A000020C000002013
:105700002C040020140C0140A08601009C00002005
:10571000440C002080C3C9012C00002066600020DA
:105720002660A06029E7000070B5FF4D04462146C1
:105730006868006806F03CFB6868017961400171A7
:1057400070BD10B50446C0B2FFF7EEFFC4F30720EA
:10575000FFF7EAFFC4F30740FFF7E6FF200EBDE8BE
:105760001040E1E710B50446C0B2FFF7DDFFC4F317
:105770000720BDE81040D7E7EB4841688B1D48790A
:10578000421C4A71C05C704710B5FFF7F5FF044634
:10579000FFF7F2FF04EB002080B210BD10B5FFF759
:1057A000F3FF0446FFF7F0FF04EB004010BD70B5B7
:1057B00004460D462420FFF7B7FF4D20FFF7B4FF46
:1057C0000CB1212000E03E20FFF7AEFFD64C0020B8
:1057D000616808712846FFF7A7FF606890F88600A7
:1057E000BDE87040A0E701460020E0E70146012047
:1057F000DDE7CD484068007996E770B504460D4670
:105800000846FFF7F0FF03E014F8010BFFF78CFFE9
:105810006D1EEDB2F8D270BD10B5044603E000BFB6
:10582000FFF782FF641C20780028F9D110BD2DE914
:10583000F05FDFF8F8B2DFF8F09201274FF0000ACE
:10584000002518E0BA48405D00EB40010BEB8108F1
:10585000D8F8040007F0A1FE06460FB1B24409E0F3
:10586000002405E0D8F80400005DFFF75DFF641C2C
:10587000B442F7DB6D1C99F800008542E2DB002F93
:1058800005D00AF0FF00FFF7AEFF0027D8E7BDE81C
:10589000F09F2DE9F047A44E0024814602460323E1
:1058A0002146A448B46004F069FFA34DDFF880826C
:1058B000A34F08F118082860C8F80000B068401C21
:1058C000B0609E48006803280EDB97F88C0158B939
:1058D00003234A4600219B4804F050FF6860C8F843
:1058E0008C00B068401CB060FF221821904807F07F
:1058F0000EFE8F4D02202C700124FCF767FC20B1B6
:10590000012068700220A87003240420FCF75EFCCC
:1059100050B1032028554FF40050641CFCF76BFC79
:1059200010B104202855641C0220FCF74FFC18B964
:105930000820FCF74BFC40B105202855641C0620CC
:105940002855641C07202855641C2020FCF753FCB4
:1059500010B108202855641C4FF48070FCF74BFCF4
:1059600028B10A202855641C0B202855641C78791E
:10597000082803D00E2801D0182802D10C20285561
:10598000641C0D2028550420641CFCF734FC10B165
:1059900011202855641C1320285597F8B001641C69
:1059A00000B10120FCF727FC10B114202855641C1D
:1059B0007879182808D115202855641C16202855F8
:1059C000641C17202855641C3470BDE8F0872DE94D
:1059D000F05F4FF00009CA460FF26C1B524C0127D2
:1059E0005C4E6068DFF87081554D90F88610204657
:1059F000772900786FD024DC6A296DD016DC642901
:105A00006BD00BDCA1F14001062967D2DFE811F071
:105A1000A605B30576054205C105C9056539052901
:105A2000F3D2DFE801F0F8F7F6F5F4006B390C2952
:105A3000EBD2DFE801F0FCFBFAF9F8F7F6F5F4F346
:105A4000F2F14548D029407868D019DCCA2966D0DF
:105A50000EDCA62964D006DC782962D0A02961D0AA
:105A6000A4293BD1F0E3C82925D0C929F9D13DE0CB
:105A7000CB390529C9D2DFE801F093A3FDFCB900B9
:105A8000EF292CD00ADCA1F1D1014FF00009062941
:105A9000BBD2DFE801F0F4F3F2F123F0F22942D0B7
:105AA00004DCF0297AD0F129DBD121E2FA2976D081
:105AB000FE29D6D1FAE3294D002400BFFFF764FE8A
:105AC00025F81400641C082CF8D30020FFF78BFE87
:105AD00002F06AFF0BE242E37CE2FDE0E7E3FFF75E
