:020000040800F2
:1000000000500020D5DD000881DE000801AF0008A7
:1000100081DE000881DE000881DE000800000000AB
:1000200000000000000000000000000081DE000869
:1000300081DE00080000000081DE0008DDAE00085F
:1000400081DE000881DE000881DE000881DE000814
:1000500081DE000881DE000881DE00085DAF000857
:1000600081DE000881DE000881DE000881DE0008F4
:100070006DAE000881DE0008A5AE000881DE000834
:1000800081DE000881DE000881DE000881DE0008D4
:1000900081DE000881DE000881DE000859AF00081B
:1000A00081DE000881DE000881DE00084DAF000817
:1000B00045AF000839AF00082DAF0008FDAE0008BD
:1000C000F5AE0008F9AE0008F1AE000881DE0008C8
:1000D00081DE000831AE0008C5AD000881DE0008F1
:1000E00061AF000881DE000881DE0008000000002A
:1000F0000000000000000000000000000000000000
:0C01000000000000000000005FF808F1A3
:100110002DE9F04F844D8DB0AB68844C13F008018D
:1001200000F0868095F81721042A00F28380DFE82A
:1001300002F003030550750023787CE060787B4A69
:10014000002877D000209F05507002D5137E1E072F
:1001500070D4E0780023A27800F00706A383744BE4
:1001600042EA06221A60227902F03F06760146EA48
:10017000D00058606079800040EA9210A27902F0C5
:10018000010640EA86209860E07900F00F06F6014B
:1001900046EA5202DA60227A02F07F06360146EA27
:1001A00010101861607A400040EAD212A07A00F084
:1001B000030642EA46225A61E27A02F01F06B601BD
:1001C00046EA90009861207BC00040EA5212DA6152
:1001D0002CE0A27F554B6AB393F82000002201283F
:1001E0009A7727D19A8393F83420082A84BF08226B
:1001F00083F8342094F834004E4A0023DEB286425D
:1002000002F1020212D212F8016C12F8027C46EAE4
:100210000727494E46F823700133EFE794F858302A
:10022000424A00203BB1908382F85800012302E04B
:100230000B4600E00023E26D206E101A002802DA5F
:10024000002B00F0268402F59C4220322266DFF863
:10025000FCA0DFF8FC80002939D1384E89460F46D2
:10026000DAF80030F8B29847A0F2EE2292B240F2EB
:10027000DC539A42D4F8A420314B88BFB5F81A0158
:100280001340002B03DA013B63F0030301332749DA
:1002900003EB870301EB4303A3F864003188738801
:1002A00001370B44B188082F0B44F18806F108068A
:1002B0000B441BB24FF0040193FBF1F328F8093013
:1002C00009F10209CCD10132C4F8A42009E00026CA
:1002D000F0B2DAF80030984728F816000136082EF8
:1002E000F6D1AB68580404D594F8A8300BB904F0E3
:1002F000AEFC95F82A210C4B62B3033238F9120098
:10030000A0F57A70B0F57A7FA8BF4FF47A7020EA32
:10031000E0700BF033FB0B490BF038FC0A490BF093
:1003200081FB0BF06BFD2AE0D018002000010020BB
:10033000E80600202201002038010020640100208E
:100340000300008000007A4400C07F44E0060020E3
:10035000BC06002093F82B0190B1AA4AD179AA4A91
:1003600032F81100B3F82E2180B2801AB3F82C3184
:10037000C0EB802090FBF3F000B280F30A0080B263
:10038000AB68A4F8BE0013F4024F42D09F4BA04FBD
:10039000B3F81CA097F8B8300FFA8AF603EB830283
:1003A000964226DDDFF8709299F801200AB3994A47
:1003B000B2F81A21A8F80020A8F80220A8F8042012
:1003C000B7F8BA20A8F8062097F8B920134403EB31
:1003D00083039E4208DD99F812B0BBF1000F03D1F0
:1003E00004F035FC89F800B0B4F8C0300133A4F84B
:1003F000C03097F8B83003EB83039E4205DD864E8C
:10040000777817B904F023FC37700AF1010AA4F8D1
:100410001CA00022B5F81C11B5F81E61134638F96E
:1004200002009B088842C4BF63F07F03DBB2023244
:10043000B042B8BF43F04003082AF0D194F8C2009C
:10044000724A984205D192F8C300F92804D80130C5
:1004500000E0002082F8C30084F8C230AB686D4A27
:1004600013F480436A4F0CD0B2F81A11B2F8DC20B2
:10047000B8F90630881A834208DD0A44934207DB44
:1004800004E0B8F906208A4202DB16E0002314E0FB
:100490000023C4F88033C4F88433C4F88833C4F824
:1004A000D030C4F8D430B7F846302BB1574B93F85E
:1004B000A830002B41F054870123B7F846206AB1D9
:1004C00094F8A82052B9544A52783AB195F82121AB
:1004D00012B104F0BCFB01E0002BFAD194F8C32068
:1004E0004A4B142A40F0B0804B4E7178D1B1B7F826
:1004F00046202AB993F8C2305F2B01D104F0A7FB44
:1005000095F82031002B00F09F80B7F84630002B83
:1005100040F09A8094F8C2307D2B40F0958004F032
:1005200096FB91E093F8C220572A15D13B4B4FF42C
:100530007A721A80AB68D90501D504F097FE384B62
:100540001B685A0702D5374A0A21118013F00803A5
:1005500026D1A4F8C43023E0A868400717D55A2A4A
:1005600015D193F8C6202AB1012283F8C61083F86A
:10057000C72015E093F8C82082F0010283F8C82054
:10058000294B0AB1022200E003221A7008E05D2A1A
:1005900001F0EF865B2A01F0EE865E2A01F0ED861F
:1005A000B7F8463033B994F8C2206F2A02D104F06C
:1005B000D9FA14E095F8202122B11BB994F8C23081
:1005C0007E2BF4D094F8C230972B04D1174B4FF404
:1005D000C8721A8003E0A72B04BF0123B37394F8F9
:1005E000C230BB2B02D1BB8D023303E0B72B03D14A
:1005F000BB8D023BBB8520E0BE2B19D17B8D023326
:100600001AE000BF98040020A00400200001002090
:10061000F81C0020D01800204C060020E00B002021
:10062000D0040020E20B0020E51D0020F01D00207A
:10063000BD2B09D17B8D023B7B850120014609F052
:1006400053FF002384F8C330A868420731D594F8DB
:10065000C8209D4B8AB19D4A527872B19C4AB8F924
:100660000610B2F81C21914207DD93F8A82022B9A8
:100670003221A3F8CA1083F8C82094F8B920924B0D
:1006800062B193F8CC202AB993F8C62012B932226D
:10069000A3F8CA20012384F8CC300AE093F8C620DE
:1006A0003AB18A4A527822B983F8C620012283F8E7
:1006B000C720884E0123002136F8022F03F1FF3CAA
:1006C000A2F2155EBEF5C77F8CBF4FF0000E4FF053
:1006D000010E0EFA03FE12B24EEA010140F2135E61
:1006E0007245CCBF4FF0000E4FF0010E0EFA0CFE1B
:1006F00041EA0E0140F2A46E7245D4BF00220122ED
:1007000003F1010E02FA0EF2033311430D2B89B2ED
:10071000D2D1002307EB430EBEF846E06A4A11EA45
:100720000E0F0CBF4FF0000E4FF0010E02F1A806A5
:1007300003F806E00133152BECD192F8A930634E93
:10074000654943B9654BB2F91C2093F8B83003EB07
:1007500083039A4217DD0B689B0714D5F37833B9EE
:10076000C4F8D030C4F8D430584B0122DA700004F9
:100770000CD597F8B830B4F91C2003EB83039A42E8
:1007800004DD012301E00023F370B37494F8AA3070
:100790004D4A5BB10023F370337943B9C2F8D030CE
:1007A000C2F8D430494B01221A7100E0337194F839
:1007B000A8300BB901233370F278494B12B9434A80
:1007C000127912B110225A6101E010221A610A68EE
:1007D000510725D594F8AB103B4B99B1B07990B93E
:1007E0003A494FF0010E81F806E0D3F8DC10C3F867
:1007F000EC00C3F8D810B3F8E810C3F8F000A3F881
:10080000E01000E0B171AB689B0409D594F8AC30FE
:100810002BB1F37B23B92D4B0121D97300E0F37386
:1008200012F00A0F20D094F8AD3027494BB17379FC
:1008300043B9264B01205871B1F8C430A1F8F43007
:1008400000E0737194F8AE302BB1737A23B91F4B6B
:100850000121597200E0737294F8AF101A4B19B16C
:10086000B3F8C410A3F8F610900640F1D080F37AE4
:10087000DFF85890002B00F0C58094F8F820124B58
:10088000042A40F2BF8093F8B22012B999F81220DE
:1008900062B3F379DFF83490002B40F0B880114850
:1008A000114A4FF0010A011D89F80830137089F8C8
:1008B00007A009F059F9022384F80831B4F8183177
:1008C000C4F8143149E000BF000100204C060020AC
:1008D000D0180020C2060020D0040020F81C002000
:1008E000000C0140FC0100200000002089F80720D6
:1008F00093F8B320A2B3B3F9E210B7F8CC200029E3
:10090000B8BF494291422BDAB3F9E4100029B8BFCD
:100910004942914224DA99F808A0BAF1000F76D141
:10092000BA4A4FF0010B82F800A0D3F81C2103F55E
:100930008670C3F80C21D3F8202103F58871C3F821
:10094000102189F808B0029309F00EF9029BB3F860
:10095000182183F808B1C3F8142189F813A056E0D0
:1009600000233372A94B1978002950D101221A7043
:100970008E46A74B002203F592702EF8002003F557
:1009800095702EF8002003F597702EF8002003F5DF
:100990009A7C002041F80C008C44CCF80420CCF860
:1009A000080003F5AE7C41F80C008C44CCF8042020
:1009B000CCF808000EF1020E03F5C27C41F80C00E1
:1009C000BEF1040F8C44CCF80420CCF8080001F1EF
:1009D0001401CED1317C11B90023F37417E0C3F8B0
:1009E000AC01C3F8B001A3F8B421A3F8B621A3F871
:1009F000B8218849002353520A31535202320A2A3D
:100A0000F7D1E9E70023F371337284F8083194F8E1
:100A1000B4302BB1B37C1BB97F4B01229A7201E039
:100A20000023B3726B79082B02D00E2B40F0B183F8
:100A3000A96800228905784B727240F1AA8397F861
:100A4000B81006267143B4F91C00884240F3A18314
:100A50009A720122DA70714AB2F81A118AB2A8F8B1
:100A60000020A8F80220A8F804206D4AB2F8BA20A5
:100A7000A8F80620DA7A002A40F08B83644890F8C0
:100A8000F800052800F285839A74664B3239198084
:100A90007FE35F4BD3F8D031042B00F27A83DFE899
:100AA00013F005008B00FC0051035C030123C4F824
:100AB000D0315D4B564E1B681F077DD5D6F8D4311B
:100AC000D31A002B78DB594B02F5C332A0325B6896
:100AD00006F5EC70C6F8D42198474F4B06F5EC7735
:100AE0009A7B184692B1D6F8D4210023C6F8E021AB
:100AF000E9180022A1F8002116464D49FA5A5A5227
:100B000006315A520233062BF2D18673494B1B78B9
:100B1000A3B1B4F8D821B5F80031D31AA4F8D8316C
:100B2000B4F8DA21B5F80231D31AA4F8DA31B4F8FE
:100B3000DC21B5F80431D31AA4F8DC31D4F8E03163
:100B4000334A002B00F02583D2F8D4113A48CB1A4F
:100B5000834202F5F57102F5F27019D8374BDA6865
:100B600082F00802DA600023FA5A30F903E016B284
:100B7000B645C4BFDFF8B8E023F80E2031F903E032
:100B8000B645BCBF2E4E9A530233062BECD100E380
:100B90000023C2F8E031C75ECE5EEA183E44022769
:100BA0003B4496FBF7F6062BA2F80061F3D1012037
:100BB000014609F099FCECE2D4F8D031144E01332F
:100BC000C4F8D031184B1B68580766D5D6F8F031F9
:100BD000D31A002B61DBD6F8F431C6F8F021194F97
:100BE00093B33B6998477B689847D6F8F0313A88C9
:100BF00006F5FC701344C6F8F03106F5FE717B690A
:100C000098470023C6F8F431C3E200BF000000207B
:100C100000010020BA0200204C060020D01800205D
:100C2000F81C0020BC060020D0040020480500204D
:100C3000E4020020700500207FC3C901000C0140C0
:100C4000EA02002020050020BB689847FB6898470F
:100C5000C54AD6F8001292F831204B1C934208BFC7
:100C60000023D4F8F82104EB8101C1F80422D4F860
:100C7000C412C4F800320A4404EB8301D1F8040220
:100C80000123121AC4F8C422C4F8F4317A88D4F8C3
:100C9000F0311344C4F8F0317BE2D4F8D031B34ED4
:100CA0000133C4F8D031B24B1B68590740F14A8276
:100CB00003F04CFED6F8CC7246F2A713C71B9F4236
:100CC000B6F8CAA2B6F8C8B240F23C82DFF8C892C1
:100CD000C6F8CC02B9F80030DFF88C827BB398F804
:100CE0003100D6F8C432D6F8D0220138B3FBF0F088
:100CF000082392FBF3F1521A1044C6F8D00290FB7D
:100D0000F3F00AF03BFE9B490AF040FF9A490DF0D0
:100D100057FB01464FF07E500AF07AFD97490AF0E2
:100D200081FE0BF045F80023C6F8D832C6F8DC3255
:100D3000B9F80030C6F8D402013BA9F8003098F8A1
:100D400031000FFA8BFB0FFA8AFAD4F8C432BBF1E8
:100D5000000FB8BFCBF1000BBAF1000FB8BFCAF15A
:100D6000000AD345A8BFDA460138B3FBF0F01FFAFA
:100D70008AFACDF814A00AF0FDFD7E490AF006FFBC
:100D80007D490DF01DFB01464FF07E500AF040FDFD
:100D90007A490AF047FE0DF045FAD8F834608146EA
:100DA000D4F8E0020AF0EAFD31460AF03BFE804644
:100DB000D4F8D402C0EB09000AF0E0FD31468146C8
:100DC0004FF07E500AF024FD014648460AF02AFE04
:100DD000014640460AF01EFD0DF024FADDF814A08D
:100DE00083460FFA8AF8B8F1FA0F654E03DD4FF02B
:100DF000FF33336014E030680AF0C0FD814640469E
:100E00000AF0BCFD01465F480AF002FD0146484673
:100E10000AF008FE5B490AF0B9FE0AF0C9FF30602B
:100E2000366806F1FF39B9F1C60F06D8C6EB0B03D9
:100E3000C4F8E432C4F8E0622FE0D4F8E432002EC3
:100E4000C3EB0B0BDFF824A1C4F8E0B225DDC6F537
:100E500096700AF093FD4C490AF098FE8046CAF855
:100E6000E80230460AF08AFD41460AF0DBFD0646FC
:100E700058460AF083FD414683464FF07E500AF003
:100E8000C7FC014658460AF0CDFD014630460AF03F
:100E9000C1FC0AF08DFFCAF8E0023C4B18680293CF
:100EA0000AF068FD3A4906460AF0BCFD8346D4F8CC
:100EB000F4020AF063FD8046D4F8F8020AF05EFD01
:100EC000014640460AF062FE324A079011680AF075
:100ED000A9FD31460AF0A6FD234A4FF07C51D2F815
:100EE0003CA0D4F8D882D4F8E062069004920AF0CC
:100EF00099FD59460AF096FD594684464046CDF87C
:100F00000CC00AF08FFDDDF80CC0014660460AF007
:100F100081FCD4F8DC120AF07DFC51460AF082FD17
:100F2000834630460AF02AFD514684464FF07E50F3
:100F3000CDF80CC00AF06CFCDDF80CC00146604630
:100F40000AF070FD014658460AF064FC049A029BC0
:100F5000B9F1C60FC4F8DC0291469A461ED8034A7E
:100F6000C2F8DC601FE000BFF81C00200001002078
:100F7000D004002080E6C547B1DC423ED048874A15
:100F800034000020000061440000C842E81D002039
:100F9000BD37863564050020E20B00200AF008FF0B
:100FA000A74BC3F8DC00069940460AF033FC034621
:100FB000D4F8FC024FF00008CAF80080C4F8EC82B4
:100FC000C4F8F082C4F8F482C4F8F882301A0293AC
:100FD0000AF0D4FC9B490AF025FD824638460AF007
:100FE000C9FC014650460AF0D1FD0AF0E1FE40F28C
:100FF000DC5295499042A8BF10468842B8BF0846C7
:101000000A21C4F8FC6203F08FFF029BD9F8386014
:101010008246314618460AF005FD074650460AF05A
:10102000ADFC314682464FF07E500AF0F1FB01469E
:1010300050460AF0F7FC014638460AF0EBFBC4F8CC
:10104000D8020DF0EFF80521064603F06DFF059A72
:10105000DFF8ECB113B2B3F5487FC4F800036BDAE4
:101060009BF804330BBBDBF8D820DBF8DC30774887
:10107000D31AB3F5FA7FA8BF4FF4FA738342A8BF1F
:1010800018460A2103F050FF714B80221B79584308
:1010900090FBF2F3B3F5967FA8BF4FF49673A2F5D9
:1010A000D6729342B8BF134601E0DBF8083399F8D3
:1010B0000A209B1B5A43202192FBF1F299F814005D
:1010C000D4F8EC1042F2040603FB0010614BB2F5B9
:1010D000967FA8BF4FF496729842A8BF18465E4B01
:1010E0009842B8BF1846C4F8EC0090FBF6F05B4E8F
:1010F000B242ACBF8618861999F81E000AF03EFC71
:10110000D4F80C13074607980AF084FB01463846CA
:101110000AF088FC4FF06C510AF084FC0AF048FE9B
:101120006FF095039628A8BF96209842B8BF18463E
:10113000301AC4F8F00001E0CBF8F080079BC4F847
:101140000C3326E0D4F8D0310133C4F8D031AB6889
:10115000DA0502D504F020FA1BE00023C4F8D031F0
:101160003F4B1B68DB0614D53E4B1A683E4B196893
:101170003C318A420DD31A603C4F3D4A304B3D4EC4
:10118000C3F810233B880B20336103F08DFC3B88B0
:10119000736103F0DBFBAB89E06533B1284AD2F819
:1011A0001423821A002AC1F2FA801844C4F81403E6
:1011B00006F0C2FF03F0CAFB2F4BE0651A68186007
:1011C000821AA4F8182301F0FFF8254B1C4F1A6867
:1011D000DFF87CB012F0080656D0B7F8E61001F13F
:1011E00045039BB28A2B4BD8244B58799E46002846
:1011F00046D0B7F8F430B7F8C400C01A80B283B252
:101200001FB2B337BCBF00F5B4739BB218B2B3289A
:101210009EF80D70C4BFA3F5B4739BB295F8EC00B3
:1012200097B340B2404243439BF809001BB243438B
:101230006FF01D0093FBF0F31944A4F8E61023E0CF
:10124000000100200024744924FAFFFF0CFEFFFF78
:10125000F81C002020031900E0FCE6FFD4FEFFFF8D
:10126000D0040020CC1800203C07002030070020CC
:1012700034000020000C0140DC0B00204C06002054
:10128000B4F8C430A4F8F430570779D5B44B997941
:10129000002975D01F7C002F68D19BF873009BF844
:1012A0007210B04B80B3B4F8E8C0B4F9E0000FFAA4
:1012B0008CFEC0EB0E08B8F1000FB8BFC8F10008F3
:1012C00088450FDD8645C8BF49421FFA8CFCC8BF60
:1012D00089B201256144C3F8EC7083F81A53A4F86D
:1012E000E8104DE093F81A1329B1D3F8DC1083F815
:1012F0001A73C3F8D810D4F8F030B5F8D2101844E7
:10130000B5F8D030984229E0B4F9E0E0B4F9E870DB
:10131000CEEB070787EAE77CACEBE77C8C450ADD80
:10132000022197FBF1F70121C3F8087383F8041336
:1013300083F81A130AE093F81A1339B1D3F8DC7062
:1013400083F80403C3F8D87083F81A03D4F8F010B4
:10135000B5F8D0307144B5F8D200994203DB814230
:10136000B4BF0B460346A4F8E83009E0B4F8E41033
:1013700095F92301D4F8F03000FB0313A4F8E4300E
:101380009BF876305BB1764BD97809B91B7933B1CC
:10139000B4F8E830B4F81C130B44A4F8E830900615
:1013A00040F1A4836E4BDD7905951DB91A7A002AA8
:1013B00000F095831B7B6A4F002B00F09083B4F8FC
:1013C000C480684D0FFA88F00AF0D8FA66490AF02E
:1013D00029FB81460CF064FF824648460CF0ECFE87
:1013E0003B7C8146002B40F08F809BF8C560B5F9AF
:1013F0003001002E57D0B5F82C3175429FB21BB288
:10140000C01A03F05BFFA84203DBB042A8BF30461E
:1014100000E02846B4F82A310744B4F92E011FFA37
:1014200083F81BB2BFB2C01AA4F82C7103F046FFB8
:10143000A84203DBB042B4BF054635464544ADB2D1
:10144000A4F82A5138B20AF099FA064628B20AF0EE
:1014500095FA4946054630460AF0E4FA51460746F1
:1014600028460AF0DFFA014638460AF0D1F93F492A
:101470000AF08CFB0AF09CFC5146A4F8240130468B
:101480000AF0D0FA4946064628460AF0CBFA014649
:1014900030460AF0BFF935490AF078FB0AF088FCBB
:1014A000A4F8260122E30AF069FA0746B5F92E01ED
:1014B0000AF064FA4946064638460AF0B3FA51463D
:1014C000804630460AF0AEFA014640460AF0A0F9DE
:1014D00026490AF05BFB0AF06BFC5146A5F8240193
:1014E00038460AF09FFA4946074630460AF09AFA0B
:1014F000014638460AF08EF91C490AF047FB0AF00B
:1015000057FCA5F82601F1E2194BD5F80421DB8838
:10151000B5F818E10793D5F814311FFA82FCCCEB2B
:101520000E0EB5F81EA3CCEB030CFB7C1FFA8EFE4F
:101530001FFA8AF99BF81A101FFA8EF01FFA8CFC1A
:101540002BB107B28F42BCBF5718C5F814710FFA00
:1015500089F5B5F5E16F0DDDAAF561690FE000BF12
:101560004C0600200001002035FA8E3C000020418E
:10157000BC06002015F5E16F03DA0AF561691FFA70
:1015800089F90A270FFA89F99B4D99FBF7F99EB162
:101590000FFA88F71FFA89F6C9EB0709B9F1000FAE
:1015A000B8BFC9F10009B9F10A0F07DDB5F820731A
:1015B000C82F88BFB04601E01FFA89F8D5F8246328
:1015C000642796FBF7F70897A5F828738B4FCCEBA9
:1015D0000E0CD5F82C63D7F800E01FFA8CFCC6EB94
:1015E0000E0EBEF1C70FA5F82AC3834EB94640F2CE
:1015F00055823F68C6F82C73814FB7F8E4E0BCF120
:10160000000F08D1A6F830E3EBB17E4B4FF0000E8F
:1016100083F813E017E0B7F8E8A00FFA8CFC0AFB98
:101620001CEAB7F8E6E0B7F8E2B0F245CDF818B03A
:1016300003DBDE46F245B8BFD646A6F830E313B169
:10164000BCF1000FE1DADDF820E0C8EB0E031FFA71
:1016500083FB059B1BB36B4BDB7CA3B1B7F8DEE0D0
:10166000CEEB4E3CCEEB8C0E4FEA4E0EA5F82AE3A5
:10167000B7F8E2E0A5F830E30FFA80FEBEF1130FF1
:10168000D8BF4FF0000BB6F832E3BEF1310F06D8E9
:1016900000B2884203DD58481144C0F8141159497A
:1016A000887C50B1B6F83203092806D8002048706B
:1016B000C87451490532C1F81421B6F83223092AF9
:1016C0000CD80FFA8BF009F0AFFD49A3D3E9002342
:1016D00009F010FE0AF020F81FFA80FB0FFA8BF2D7
:1016E000B332BCBF0BF5B4731FFA83FB0FFA8BF256
:1016F000B32AC4BFABF5B4731FFA83FB0FFA8BF2A6
:10170000002AB8BF5242AB2AD9F80000D4F83423DB
:10171000A8BF4FF0AF0B801A0AF02CF93A490AF033
:1017200035FAD9F80020B4F82A93C4F8342309F123
:10173000030292B2062ADFF8C0A0804606D8DAF883
:10174000B00141460AF06EF9CAF8B00109EB890907
:101750004FEA490A1FFA8AFA1FFA8AF9A4F82A936B
:101760000FFA89F00AF00AF9D4F83C1305900AF050
:1017700059F941460AF056F9D4F8B0110AF04AF87E
:101780000AF016FB214AB0F5FA7FA8BF4FF4FA70B1
:101790009042B8BF10460AF0F1F80246C4F8B00112
:1017A000B4F8B401A4F8B491C0EB0A0080B201B25D
:1017B0000029B8BF494265291549A8BF002001F199
:1017C0000A0EB1F804C021F802CF7145F9D1002109
:1017D000A6F8C2010846DFF8209009F5DD7E31F851
:1017E0000EE0023170440A2980B213D080B2F2E7D1
:1017F0009A9999999999B93F00010020CC18002035
:10180000F81C00204C06002000007A440CFEFFFF6C
:10181000B802002000B204920AF0B0F8D9F84013E0
:101820000AF000F941460AF0B1F90AF0C1FA1FFACC
:1018300080FAD9F838130598A9F848A30AF0F2F805
:101840000AF0B6FA00B20AF099F8049A114609F0C3
:10185000E1FF0AF0ADFA1FFA8BF3DA1C92B280B204
:10186000062A059008D8D9F8AC01414602930AF03F
:10187000D9F8029BC9F8AC0103EB83035B009BB270
:101880001FFA83F90FFA89F002930AF077F8D4F877
:10189000501383460AF0C6F841460AF0C3F8D4F85C
:1018A000AC1109F0B7FF0AF083FAB049B0F5FA7F3E
:1018B000A8BF4FF4FA708842B8BF08460AF05EF835
:1018C000B4F8B611029B84465B1A9BB21AB2002A86
:1018D000B8BF5242652AA64AC4F8AC01A4F8B69132
:1018E000A8BF002302F10A01908822F8020F8A4261
:1018F000FAD1A6F8CC3100231846DFF87C9209F51E
:10190000E271595A023308440A2B80B201D080B2E6
:10191000F3E700B20293CDF80CC00AF02FF8D9F823
:1019200054130AF07FF841460AF030F90AF040FA01
:101930001FFA80F8D9F84C135846A9F85C830AF0CE
:1019400071F80AF035FA00B20AF018F8DDF80CC0A8
:10195000614609F05FFF0AF02BFAB7F9DE1082B298
:10196000DDF814E06FF00900029B41430FFA8EFB93
:101970009BFBF3FB0FFA8BFBB7F9E0008B4503FBF6
:1019800000F303DB9B45B4BF59461946DFF8F491D9
:101990008A44B9F9DA106FF00900484312B20A27F5
:1019A00092FBF7F21FFA8AFA8242A5F826A104DB1D
:1019B00007FB01F08242B8BF10461FFA88F8404486
:1019C000A5F82401B9F9DC006FF0090141438A420E
:1019D00004DB0A2141438A42B8BF1146654A884464
:1019E000527CA5F828815AB10FFA8AF1002903DB4D
:1019F0009942B8BF0B4600E000235F4AA2F82631A7
:101A0000B5F9C832B5F82621002BB8BF5B42D31A0E
:101A1000A5F82631B5F9CA0209F0B0FF4FF07C51A4
:101A20000AF000F80AF0C4F9B5F83033B0F5E17FF8
:101A3000A8BF4FF4E17020EAE070181AB9F8E67018
:101A400000B2B842B9F8E23003DB9842B4BF0746AF
:101A50001F46B5F82003DFF82081A0F5E173642B61
:101A60000ED900B2C0F5FA7009F088FF434909F0B9
:101A7000D9FF0AF09DF9B8F8B8311844A8F8B801B0
:101A8000B5F9B831B3F5FA7FA8BF4FF4FA7323EA7A
:101A9000E373A5F8B8313B44A5F83033354BDA7819
:101AA0000AB91A7922B19B7A6BB1324B9B7C53B93C
:101AB000DDF81CB00023A6F830B3A6F82631A6F84E
:101AC0002431A6F82831B5F83033B5F82821A5F827
:101AD000E830B5F8E6301344A5F8E63006E0002318
:101AE000A4F82431A4F82631A4F82831244B254D3C
:101AF0005B689847244B93F80080B8F1030F14D922
:101B00001D496FF06303B1F9E660B1F96203002E7D
:101B1000B8BF76429B1B984204DB06F16403834204
:101B2000A8BF0346A1F8623332E0B8F1010F2FD805
:101B3000164F7B79013B142B00F2BE82DFE813F0D5
:101B4000BC00BC02BC027C00D000BC02BC02D401C0
:101B5000BC02BC02BC02BC02BC02EC00BC02BC0267
:101B6000BC02BC02BC025E02890200BF0CFEFFFF89
:101B7000C20200204C06002000010020CDCCCC3D4C
:101B800000000020F81C0020DC1C0020D0180020E1
:101B9000BE4B95F9BEB0B3F8E8C0B3F86093B3F8A4
:101BA0005EA3B3F96233CBF1000B03FB0BFBB84E22
:101BB0000027474506F11006BAD20FFA8CF0CDF88F
:101BC0000CC009F0DBFE56F8101C09F02BFF034691
:101BD0000FFA89F0029309F0D1FE56F8081C09F0BB
:101BE00021FF029B0146184609F014FE03460FFA36
:101BF0008AF0029309F0C2FE56F80C1C09F012FF9D
:101C0000029B0146184609F005FE0346584602931A
:101C100009F0B4FE56F8041C09F004FF029B0146CB
:101C2000184609F0F7FD0AF0C3F89A4BDDF80CC02E
:101C300023F817000137BCE795F89E30934A13F05C
:101C4000020F0CBF4FF0010B4FF0FF3B042013F0CD
:101C5000010FB2F862930CBF4FF0010A4FF0FF3A48
:101C600003F01AF8B4F860630BFB09FB0AFB06FAF1
:101C700095F8A6301FFA8BFB13F0020F0CBF012260
:101C80004FF0FF32844C584413F0010F1FFA8AFAC8
:101C900082440CBF01234FF0FF33052002FB09F9FA
:101CA0005E43A4F808A002F0F7FF1FFA89F9B6B264
:101CB000484406446681FFE195F8A630052013F0FC
:101CC000010F724B0CBF01244FF0FF34B3F86233A5
:101CD0005C4302F0E1FFA4B26F4B20445881EBE17A
:101CE000002002F0D9FFB4F9CA2295F97E304FF0F6
:101CF00032095343684E93FBF9F3184430800120B6
:101D000002F0CAFF95F98630B4F9C822534393FB19
:101D1000F9F948447080CFE1604B5C4C5A789B469F
:101D20005D4E12B9B7F8D4300BE0B4F9E820B7F83B
:101D3000D030B7F8D2109A4203DB9142B4BF0B46C1
:101D40001346F381F289534B55481A8097F8243192
:101D5000002B42D003F1FF39524B95F8D91033F9DB
:101D60001920B0F82631B0F828019A4203DB8242EC
:101D7000B4BF13460346B7F81A2197F82201D21AC6
:101D800092B2B0B1B4F9643312B2934209DA184492
:101D9000984203DB8242B4BF13460346A4F864337F
:101DA00009E008DD181A904203DB9842B4BF0246EE
:101DB0001A46A4F86423B4F864A34BB2CAF100092C
:101DC000012B1FFA89F909D0032B02D0012B06DD64
:101DD000D1465346CA46994601E09946CA4697F805
:101DE0002531002B36D0022002F056FFB5F98820AD
:101DF000B5F88A30904203DB1AB29042B8BF02466F
:101E0000B7F81A0197F82211821A92B2B1B1B4F957
:101E1000663312B2934209DA1944994203DB8A42CB
:101E2000B4BF13460B46A4F8663309E008DD591A1F
:101E3000914203DB9942B4BF0A461A46A4F86623CE
:101E4000B4F9662395F98E305343642293FBF2F381
:101E50001844B0809BF80A306BB1B4F8E230F380DC
:101E60003381B4F8E6307381B4F8E430B381DFF83D
:101E700028B0032418E0B4F85E33F3803381B4F85B
:101E800062337381B4F86033F0E700BF00010020D3
:101E90008C050020DE1C0020800000204C06002065
:101EA000D0180020BC06002005EBC403BBF90620B7
:101EB00093F97E3020465343642293FBF2F8ABF84B
:101EC000068002F0E9FE01344044072CABF806001E
:101ED0000BF1020BE8D1F3889A443389A6F806A0E7
:101EE0009944A6F80890E7E095F8D810B24AB34BA9
:101EF00019B9B2F8E810198059801988B04E5B887A
:101F0000F181B381AF4B5878194618B9B7F8D4307E
:101F1000F381B38195F896A08B7A1AF0010F0CBF6C
:101F200001204FF0FF30A3B1B2F9E480D5F8D4908E
:101F300008FB00F009F022FD494609F073FD1AF094
:101F4000020F8346B4F9E2A00CBF01204FF0FF302E
:101F500013E0B2F96083D5F8D49008FB00F009F0E3
:101F60000DFD494609F05EFD1AF0020FB4F95EA3BB
:101F700083460CBF01204FF0FF30D5F8D0400AFB5C
:101F800000F009F0FBFC214609F04CFD01465846E3
:101F900009F040FC09F00CFF95F89EB0F0801BF0B2
:101FA000010F0CBF01204FF0FF3008FB00F009F0DB
:101FB000E5FC494609F036FD1BF0020F81460CBFD7
:101FC00001204FF0FF300AFB00F009F0D7FC21465A
:101FD00009F028FD0146484609F01CFC09F0E8FE1E
:101FE0003081032002F058FEF3881844F08004206A
:101FF00002F052FE3389184430815DE06E4E95F850
:102000009E20B6F8603312F0010F0CBF4FF00109AB
:102010004FF0FF3909FB03F9694C1FFA89F90420D5
:10202000A4F8089002F038FE95F8A620B6F85E33C2
:1020300012F0010F0CBF01264FF0FF365E434844FB
:102040002081B6B20520668102F026FE3044608110
:1020500032E0594E0324B6F862B305EBC40393F89B
:102060007E30C4F1060113F0020F0CBF01224FF0C5
:10207000FF3202FB0BF221F00101314413F0010F9A
:10208000B1F85E130CBF4FF0010A4FF0FF3A0AFBA4
:10209000012ADFF82C911FFA8AFA29F814A02046A9
:1020A00002F0FAFD504429F814000134072CD4D171
:1020B000B6F8E820414B1A80BB68990631D500205C
:1020C00002F0EAFD3E4C06462080012002F0E4FDCD
:1020D000394A608092F8B0301BB395F8C030B2F93D
:1020E000C8C213F0020F95F986104FF0320395F92C
:1020F0007E90B2F9CA2219D00CFB01F1C9F1000996
:1021000002FB09F291FBF3F16FF0310C89B292FB03
:10211000FCFC8C4492FBF3F2664411442680084494
:102120006080294B294A03F1100411E002FB09F2F7
:102130000CFB01F192FBF3F2164491FBF3F32680C2
:102140001844EDE723F8021FA34202F108020CD065
:10215000B3F90200B2F97810B2F87A608842F1DB84
:1021600031B28142A8BF0146ECE795F8C0305A076A
:1021700006D4174B114A93F80090118801230FE001
:10218000144B0024DD7D043D134B601903EB440325
:10219000C0B21989013403F099F9042CF4D1E8E7AD
:1021A0004B451BD232F9130009B28842A8BF014641
:1021B00089B20133F4E700BF00010020DE1C0020DB
:1021C000800000204C0600207E000020F81C00202B
:1021D000DC1C002074050020BC060020B7F8D200EB
:1021E000B7F8D460431A1FFA83FBBB680196B7F8AF
:1021F000D06003F4804403F010030B93B3B2B7F83C
:102200001A51684A0893684B0A94B2F906C0019CB7
:10221000B7F8D6200595B7F8D8805D78B7F81C7167
:102220001FFA84FA07925C7C069709954FEA4909E0
:1022300000234B453DD00AB282425C4F02DDFA5A80
:102240005A44FA520A9D594AB5B1059DD75EAC452C
:1022500007DD474503DB8742A8BF07460AE047463C
:1022600008E0019DAF4204DB079DAF42A8BF2F46A7
:1022700000E0019FD75214E0FC5EB44203DB8442CD
:10228000A8BF044600E03446D452069CA44507DAB1
:10229000089C0B9D002D18BF5446D452012400E029
:1022A0000024099A1AB9424A9F5A404A9F5202335F
:1022B000BFE7404A3C4B927D5C741946002A4AD0E5
:1022C0003D4A5379013B142B39D8DFE803F00B3832
:1022D00038203B38381838383838382838383838C3
:1022E00038202800354B93F8BF301BB1344B002009
:1022F00059892EE048780028F8D1014629E0304C71
:102300000020E18803F0E2F80120218921E02C4C33
:102310000020218903F0DAF80120618919E0284CB6
:102320000020E18803F0D2F80120218903F0CEF8E3
:102330000220618903F0CAF80320A18909E09368AB
:102340009B0608D51E4C0020218803F0BFF8618849
:10235000012003F0BBF80DB0BDE8F04F02F080BCE7
:10236000114B1B78002B3EF4A7A802F0FBFBFEF7F5
:10237000A3B8012202E0022200E003225FFA82F900
:10238000002009F1FF33014685F8083408F0ACF865
:10239000022028214A4602F0BFFBFEF701B90DB02A
:1023A000BDE8F08FBC0600204C060020DE1C00209B
:1023B0006804002074050020D0180020F81C0020BC
:1023C00080000020AFF30080634B2DE9F04FB3F99C
:1023D0000600624B8DB0DA8C90420FDBB0F5FA6FDD
:1023E00093F8254007DA811A4C43A2F5FA6294FB70
:1023F000F2F4643403E0C4F1640400E06424584A55
:1024000093F82360B2F81A1192F9EC2093F8705007
:1024100093F87170524293F8243092B204910021E3
:102420000692059607930A464B4BDDF810C031F92A
:10243000038040F2E636CCEB080303F2F31EB64508
:1024400003D8002BB8BF5B4201E04FF4FA73022AB5
:10245000DFF814C12CD025B1AB42CCBFC5EB0303D0
:1024600000236426DFF804A193FBF6FE6FF0630BF4
:102470003AF81E900BFB0E3B0EF1010E3AF91EA02E
:102480000FFA89FECEEB0A0E0EFB0BFE9EFBF6FE4C
:10249000CE442CF801E0DDF814C003FB0CFE314BF8
:1024A0009EFBF3F333449BB2634393FBF6F314E0D8
:1024B00027B1BB42CCBFC7EB03030023DDF818E014
:1024C00003FB0EF6ACF80460079E002BB8BF5B421E
:1024D0007343244E93FBF6F36433DFF88090DFF808
:1024E00090C002EB090696F801A096F80BB0767D35
:1024F00003FB0AFA03FB0BFB73434FF0640E9AFBDA
:10250000FEFA02F80CA093FBFEF30CF1030A0CF1A7
:10251000060C02F80C30DDF810C09BFBFEFBE0451A
:1025200002F80AB0104B05DA33F801E0CEF1000EE4
:1025300023F801E00132032A01F102017FF474AFB4
:10254000074DB5F81C21904214DBB0F5FA6FA8BF17
:102550004FF4FA600FE000BFBC060020F81C00201A
:10256000D01800200CFEFFFFE2010020E80B002045
:10257000F60B00201046801A4FF47A714843C2F5DA
:10258000FA62B0FBF2F24FF0640CB34C92FBFCF138
:1025900004EB4100B0F818E06FF0630000FB01228B
:1025A00004EB4101B1F91A000FFA8EF1411A4A43C6
:1025B00092FBFCFCE644A3F806E0A84BA84F5B7A2C
:1025C000002B44D0A74BB3F90000A74BB3F9003060
:1025D000C01A08F029FE9EA3D3E9002308F08AFE62
:1025E0000022A24B08F0B0FF09F0BEF880460BF0C5
:1025F000E3FD814640460BF053FE8046B7F90200EA
:1026000009F0BCF98246B7F9000009F0B7F949466C
:10261000834609F007FA41460646504609F002FA99
:102620000146304609F0F4F809F0C2FB494638800B
:10263000504609F0F7F941468146584609F0F2F94B
:102640000146484609F0E6F809F0B2FB7880D5F873
:102650000880DFF848A218F0020F00F08380844B56
:1026600006211A88236B7C4F1A4494F83430226375
:102670000133DBB2B3FBF1F901FB193919F0FF06A5
:1026800084F8343004965CD17A4E7B4B7078B96B09
:1026900033F810E04FF0080B91FBFBF01FFA8EFEB1
:1026A000081A7044B86390FBFBF080B20392019368
:1026B00009F064F9714909F0B5F9714909F066FA50
:1026C00081469AF80B0109F059F90146484609F08C
:1026D000A9F909F093FB9AF80E11B887039A019BA8
:1026E00079B37079396C33F8100091FBFBF380B249
:1026F000CB1A03443B6493FBFBF39BB240F6E441EB
:10270000594340F6FF70B1FBF0F1BAF808014FF4FD
:102710007A73091A5943BAF8060191FBF0F14A435A
:1027200092FBF3F37964D7E91201C01841EBE3712E
:10273000C7E91201534A002309F080FB049E386563
:102740003E63514AA38F12889A4203D395F80D2114
:102750009A4203D9002384F8543003E03E4B04220C
:1027600083F8542049483C4B417B94F8542001B1F4
:10277000012118F4007F83F8551022D0444E454BB8
:1027800096F8B8101B8801EB810618B2B04215DD2F
:10279000324E76787EB1012684F856603C4E96F82B
:1027A000B960314401EB8101884207DD2A490220EA
:1027B00081F8560002E0022184F856100BB984F823
:1027C0005630354E33689B060CD530498B7A0BB9A1
:1027D000CB7A23B1214BDB7A0BB9012300E0002334
:1027E00084F8573094F856101B4B022902D14C2024
:1027F0004E211DE0012904D14D2153204C220B46CE
:1028000007E093F85710012906D1532001464E22C4
:102810004D2306F085FC4EE093F85510012903D1B5
:10282000532001460246F3E7042A03D153204D21E9
:102830000A460AE0022A03D1532001464D2204E051
:10284000012A2DD153204D214E224423E1E700BF20
:10285000182D4454FB210940E80B00204C060020B1
:10286000E2010020C4010020F60100200080664043
:102870001804002098040020A004002033335340A3
:1028800000F07F45407E0500A8040020A80100203C
:10289000F81C00201C010020D0040020D0180020CB
:1028A000B04A107818B1322006F00CFC03E083F82F
:1028B000580002F044F8AC4B1A8812B133689F07F5
:1028C00002D4AA4B1B882BB1A94BDA6882F008020C
:1028D000DA600FE0A74B9A7812B1A54A082111617E
:1028E0005B7813B1A24B08225A61A34B1B780BB142
:1028F00008F0FCF9AB68180662D5A04AA04F13682F
:10290000E26D9A1A002A5BDB03F543435033FB6503
:1029100097F860309BB97A238DF82430994B0222C6
:10292000B3F900306D20C3F1B40393FBF2F38DF8DB
:102930002530FF2109AB03F0DBFF012325E0012B4C
:1029400026D191497923B1F900208DF824300A234A
:1029500092FBF3F25A32B42AA8BFB42222EAE272FE
:102960008DF82520B1F902206D2092FBF3F35A3344
:10297000B42BA8BFB42323EAE3738DF82630FF21DC
:1029800009AB032203F0B4FF022387F8603017E09D
:10299000022B15D164238DF8243001238DF82530C6
:1029A000744B6D205B78FF21002B18BF01238DF83D
:1029B0002630032209AB03F09BFF002384F860302C
:1029C0006E4B1A68636ED31A002B11DB694B597B6F
:1029D00061B99970664BD96881F00801D96002F538
:1029E000F423674A03F59073536601E001229A705D
:1029F0000027D4F87421624B9742DFF8A4A180F23B
:102A0000398703F168014C2000FB07115F4A116010
:102A10009AF80010914619B104F070FE00F02ABF38
:102A200093F8003113B15A4A5A4BDA60D9F80030A2
:102A3000DFF858A1186801F0A4FE002800F01787FD
:102A4000DAF80030186801F097FEDAF8003093F8F1
:102A50004920C2B9B0F124014A424A4183F84920D1
:102A6000002AE3D1434B5B78002BDFD1232802D12E
:102A700004F044FEDAE795F809348342D6D1464A99
:102A8000464B1A60CFE7012A05D14D2814BF00221A
:102A9000022200F0E8BE022A05D13C2814BF002221
:102AA000032200F0E0BE032A0DD140284FF00002BF
:102AB00000F2D98683F847205A7183F848001871CC
:102AC000042200F0D0BE042A07D11A7983F8460008
:102AD00050401871052200F0C6BE052AA6D193F811
:102AE000481093F847209142197907D9414019714C
:102AF000511C83F847101344987197E7814240F0C6
:102B0000AF8693F84630752B00F0608400F2128196
:102B1000692B00F0778300F2C280452B00F081869C
:102B200040D8422B00F03A860CD8402B00F05C864F
:102B3000412B40F08C86002001F05AFE4FF0000A35
:102B400000F063BE432B00F0FD85442B40F07F86F0
:102B5000002001F04DFE0A4B012283F8002100F015
:102B60007ABE00BFE51D0020F01D0020E00B002014
:102B7000000C01404C060020D80B00205C01002016
:102B8000E80B0020C4010020C8030020380000200A
:102B90000400FA0500ED00E0EFBEADDEF04F0020CE
:102BA000F81D0020662B00F099826CD8642B00F091
:102BB0006682652B40F04B860B2001F019FECE4B50
:102BC000DFF854A3B3F9000001F015FEBAF81801BC
:102BD00000B201F010FE3368C3F3C000C3F38002FB
:102BE000800040EA4200C3F340021043C3F34012A6
:102BF00040EAC20003F01003184301F0FCFDBF4A95
:102C0000002092F804E0D3784FEA8E0E4EEA430E8D
:102C100053784EEA030E93794EEAC30E53794EEA87
:102C2000431E537A4EEA831EB54BD9794EEAC11E34
:102C3000197A4EEA012E597A4EEA412ED1794EEA9E
:102C4000812E117A927A4EEAC12E4EEA023E5A7BCA
:102C50009AF817114EEA423E9A7B4EEA823E1A7C5F
:102C60004EEA024E1A794EEA021E5A7C4EEA424E53
:102C70009A7C4EEA824EDA7C1B7D4EEAC24E4EEAC8
:102C8000035E034613E2672B00F06982682B40F075
:102C9000DE85102001F0ACFD4FF0000AA7E26F2B9B
:102CA00000F05C8325D86C2B00F0DD8219D86A2BEC
:102CB00000F0B8826B2B40F0CA85052001F098FD2A
:102CC000904BDFF854A2B3F9000001F094FDBAF97B
:102CD000260101F090FD9AF8010100F0010000F0DA
:102CE00064BC6D2B00F0CE826E2B00F0058300F0EB
:102CF000AEBD722B00F0DA8311D8702B00F04E833A
:102D0000712B40F0A485DFF810B24FF0000A9BF859
:102D10001701400000F0FE0001F06AFD63E3732B31
:102D200000F00A84742B40F092854FF0000A4FF0B7
:102D3000010B7CE3CE2B00F0A98444D8C82B00F013
:102D400094802BD8782B00F01A820FD8762B00F0C5
:102D50000284772B40F07B85DFF8BCA14FF0000B9D
:102D60009AF8170101F044FD534697E3A02B00F0B9
:102D7000B984A42B40F06B85DFF89CA14FF0000BC9
:102D80009AF8300180000130C0B201F031FD9AF8AC
:102D9000300101F000FD534600F0B2BCCB2B61D0F6
:102DA00009D8C92B75D0CA2B40F05185DFF884A112
:102DB0000AF10A0B8FE0CC2B00F0D380CD2B00F072
:102DC0003C8400F044BDD42B00F0F58116D8D12B03
:102DD00000F0EE8307D8CF2B00F0E680D02B00F078
:102DE000238400F034BDD22B00F03481D32B40F08B
:102DF0002E8501F019FF444B1880D0E0F02B00F035
:102E0000658410D8D62B00F01881EF2B40F01F8579
:102E100001F00AFFDFF818A1AAF82C0001F004FF66
:102E2000AAF82A00BBE0FA2B00F03884FE2B40F011
:102E30000E85082001F0DCFC344B354A1B684FF04E
:102E4000000AB3FBF2F3C3EB431103EB81033149F7
:102E50000968B1FBF2F2304902EBC303A1F82E314D
:102E600000F029BC4FF0000A68E04FF0000A01F0C2
:102E7000DBFE2A4B23F80A000AF1020ABAF1100F0E
:102E8000F5D1002001F0B4FC254B01221A7000F0AE
:102E9000E2BC01F0BEFE194BDFF89CA0D87201F035
:102EA000B8FE204B187001F0C9FECAF8000001F00E
:102EB000C5FECAF8040001F0B7FE1B4B188001F0F4
:102EC000B3FE1A4B1880144B93F8012142F0020212
:102ED00083F8012163E001F09CFE0AF1010A8AF8FF
:102EE000010001F096FE8AF80B0001F092FEDA452F
:102EF0008AF81500EFD152E0180400204C0600209B
:102F0000A801002032040020F40100200800002065
:102F100040420F0090000020E80B0020BC0600207B
:102F200058010020F8010020180200202004002091
:102F3000F81C0020F71C00201C020020D74B93F83F
:102F4000172192452BD203F581731AF803B001F0D3
:102F50006BFED34B0AF1010A03EB4B03A3F84600C7
:102F6000ECE701F056FEDFF838A38AF81F0001F005
:102F700050FE8AF8200001F04CFE8AF8230001F090
:102F800048FE8AF8240001F044FE8AF8250001F08A
:102F900040FE8AF8210001F03CFE8AF82200002061
:102FA00001F026FC00F057BC01F03EFE6FF4AF626A
:102FB0008318DFF8F8A2C62B98BFAAF81A0101F00F
:102FC00033FEAAF8D00001F02FFEAAF8D20001F0DB
:102FD0002BFEAAF8D40001F027FEDFF8C4B2ABF84C
:102FE000BA0001F016FE8AF8300101F012FE8AF8EC
:102FF000310101F00EFE8AF8320101F00AFE8AF872
:103000000A0101F006FE8AF82A0101F002FE01F031
:103010000BFE00EB80004000ABF8280001F0F9FD4A
:103020008AF80B0101F0F5FD8AF80D0101F0F1FDC0
:103030008AF80C0101F0EDFDB1E74FF0000A01F054
:10304000F3FD984B23F80A000AF1020ABAF1100FB7
:10305000F5D1A4E7944B5B78002BA0D101F0D9FD0A
:10306000924B022883F808044FF0000088BF00222A
:10307000014688BF83F8082407F036FA8FE7072057
:10308000DFF828A201F0B4FBE72001F084FB9AF8F6
:10309000050001F080FB002001F07DFB9AF825017E
:1030A000834B844A00280CBF10461846CCE38B4261
:1030B0000ED2814A13F802C0012202FA0CFC1CEA6B
:1030C0000E0F18BF9A4003F1010318BF1043EEE73B
:1030D00001F09BFB754B93F8080466E2122001F0A7
:1030E00087FB764B1B88B3F5806F29D94FF0000A18
:1030F000734B3AF90300082390FBF3F00AF1020A3C
:1031000001F079FBBAF1060FF2D1DFF890A1BAF91C
:10311000200101F070FBBAF9220101F06CFBBAF951
:103120002401DFF8C8A101F066FBBAF9000001F044
:1031300062FBBAF9020001F05EFBBAF9040050E349
:10314000DFF858A1BAF91A0101F055FBBAF91C01D0
:1031500001F051FBBAF91E0101F04DFBD5E710203B
:1031600001F046FB4FF0000A564B13F80A000AF133
:10317000010A01F010FBBAF1100FF5D16BE3382012
:1031800001F036FBDFF818A10AF1400BBAF978001C
:1031900001F031FBBAF97A0001F02DFBBAF97C009D
:1031A00001F029FB0AF1080A9AF8760001F0F3FA17
:1031B000DA45EBD14FE3002001F01AFBDFF8E0A085
:1031C0000AF1400B01F030FDAAF8780001F02CFD67
:1031D000AAF87A0001F028FDAAF87C0001F019FD98
:1031E0000AF1080A8AF87600DA45EBD133E3364B68
:1031F00013F80A000AF1010A01F0CDFABAF1100F32
:10320000F5D128E3102001F0F3FA4FF0000A2F4B1C
:1032100033F90A000AF1020A01F0EDFABAF1100FCF
:10322000F5D118E3102001F0E3FA1F4BDFF8C0A03E
:10323000D87A01F0B0FA264B187801F0ACFADAF837
:10324000000001F0E2FADAF8040001F0DEFA214BA6
:10325000B3F9000001F0CFFA1F4BB3F9000001F001
:10326000CAFA1E4B16E0DFF88CA0062001F0C0FA67
:10327000BAF9000001F0BFFABAF9020001F0BBFA96
:10328000174B07E0062001F0B3FA164B186801F05F
:10329000BCFA154BB3F90000A3E200BFE80B002015
:1032A000F81C0020680400204C060020D0180020E4
:1032B0000C0000C0040000C0EA0C00202000002028
:1032C000020D002080000020DE1C0020BC06002033
:1032D000F801002018020020200400201E04002015
:1032E000C4010020DC01002000040020D8020020DE
:1032F0001C020020C8030020DFF864A3072001F0AF
:1033000077FABAF83C004FF6FF7BFF28A8BFFF20F2
:10331000C0B201F040FADAF850005845A8BF58464C
:1033200020EAE07000B201F066FAC94BB3F9000080
:1033300001F061FAC74BDAF8440093F80A3100282B
:10334000B8BF40422BB10A2358435845A8BF58463E
:1033500002E05845A8BF584600B242E2DFF8FCA29E
:10336000072001F045FA9AF81F0001F014FA9AF8C4
:10337000200001F010FA9AF8230001F00CFA9AF8F4
:10338000240001F008FA9AF8250001F004FA9AF8EE
:10339000210001F000FA9AF8220006E11E2001F057
:1033A00027FADFF8E0A20AF10A0B0AF1010A9AF8FB
:1033B000010001F0F0F99AF80B0001F0ECF99AF82D
:1033C000150001F0E8F9DA45EFD144E22F2001F0D1
:1033D0000FFADFF8B4A21AF8010F002800F03B82C0
:1033E00001F0D9F9F7E79BF817319A4580F033825D
:1033F000994B1AF80320994B0AF1010A03EB420397
:10340000B3F9460001F0F7F9EDE7824408F101084D
:10341000934991F8170180450CDBBBF1000F00F0D8
:103420001A825FFA8AF001F0E3F94FF0000B4FF0D7
:103430000008EDE701F581718A4818F801104FF096
:103440000C0E0EFB0101496B084604910AF06BFC5F
:103450008446BBF1000FD8D159466145D6DA049AAB
:10346000505C0291CDF80CC001F095F90299DDF89D
:103470000CC00131F1E77C4A77495244127A1BF8BB
:103480000100904203D1019301F085F9019B0AF1FB
:103490000C0ABAF1FC0FEED10BF1010B93F81721D6
:1034A000934580F0D8814FF0000AE4E7DFF8A4A14B
:1034B000162001F09DF9BAF91A0101F09CF9BAF948
:1034C000D00001F098F9DFF894B1BAF9D20001F018
:1034D00092F9BAF9D40001F08EF9BBF9BA0001F003
:1034E0008AF99AF8300101F056F99AF8310101F0A1
:1034F00052F99AF8320101F04EF99AF80A0101F0F6
:103500004AF99AF82A0101F046F9002001F043F93E
:10351000BBF928000A2390FBF3F001F06CF99AF84C
:103520000B0101F038F99AF80D0101F034F99AF81D
:103530000C0101F030F937E0082001F059F94FF0A3
:10354000010A5FFA8AF00AF1010A01F024F9BAF1DE
:10355000090FF6D17FE101F05CFB034612200193D5
:1035600001F046F9019B0BB9404A02E0102B05D14E
:103570003F4AD2F800B0D2F804A002E04FF0000AAF
:10358000D346184601F007F9584601F03EF9504677
:1035900001F03BF9374B186801F037F9002001F0D2
:1035A0002AF9002001F027F9002001F0F4F852E197
:1035B00001F02FFB834601F041FB039001F03EFB3D
:1035C000019001F03BFB824601F02EFB01F02CFB49
:1035D00001F01FFB039A019BBBF1000F0FD12349A0
:1035E00081E80C00244B012283F807B01A73BAF16A
:1035F000000F3FF4D4AC1F4BC3F800A0CFE4BBF1E5
:10360000100F7FF4CCAC1A4981E80C00BAF1000F1E
:1036100002D0184BC3F800A01548184B0222011D18
:103620001A7006F0A1FABAE4134B5B78002B7FF412
:10363000B6AC012004F0A0F9B1E40F4B5B78002B8D
:103640007FF4ADAC0E494FF4C8730B80A7E400BF04
:10365000BE010020D0180020EA0C0020F81C002039
:10366000E80B00207C0A0108AC0A0108FC010020DC
:103670000C020020D80100204C0600200802002087
:10368000F01D0020F71C00207B0A0108864B5A78A9
:10369000002A7FF484AC01229A7380E4824B93F871
:1036A00001A0BAF1000F40F0D2805046012106F08F
:1036B0001BFF504674E47D4B33F90A000AF1020AFD
:1036C00001F099F8BAF1080FF5D1C4E0DFF8F8A1DC
:1036D000042001F08DF8BAF92C0001F08CF8BAF949
:1036E0002A007EE00C2001F083F8714B186801F08D
:1036F0008CF8704B186801F088F86F4B1868A3E0DD
:1037000093F83021934580F0A680DFF8C0A11AF825
:103710000B00019301F03FF80AF1100212F80B00C0
:1037200001F039F80AF1200212F80B000AF1300A10
:1037300001F031F81AF80B0001F02DF80BF1010B34
:10374000019BDDE7002001F053F801F062FADFF899
:103750006CA10023CAF808308AF8050001F06EFA5F
:10376000DAF808301843CAF8080001F052FA8AF86B
:10377000170101F059FAAAF8E60001F055FAAAF883
:10378000E80001F051FAAAF8EA0001F04DFAAAF8AF
:10379000060101F049FAAAF808015CE0DFF81CA173
:1037A000102001F025F89AF8050000F0F4FFDAF88F
:1037B000080001F02AF89AF8170100F0ECFFBAF9B6
:1037C000E60001F018F8BAF9E80001F014F8BAF9C7
:1037D000EA0001F010F8BAF9060101F00CF8BAF9A4
:1037E000080101F008F836E0082001F001F84FF078
:1037F000000A324B534493F80F010AF1010A00F01A
:10380000CAFFBAF1080FF4D125E001F002FA2B4B00
:1038100053440AF1010ABAF1080F83F80F01F4D1F9
:1038200019E0132000F0E4FF4FF0000A244B13F8D6
:103830000A000AF1010A00F0AEFFBAF10B0FF5D150
:10384000002000F0E2FF002000F0DFFF03E0012095
:10385000002100F0AFFFD9F80030187900F09BFF8D
:10386000D9F80030002283F84920FFF7DFB801378C
:10387000FFF7BFB89AF8003023B133689B0600F118
:10388000AC82C1E2AA680D4B1705F6D50D4A127835
:10389000002AF2D093F83F210ABB93F84031BBB91C
:1038A000014B5B7816E000BF4C060020100D002095
:1038B000E8F7FF1FECF7FF1FF0F7FF1FD0180020FD
:1038C000861A0108D80B0020F81C0020190D0020D2
:1038D000D44A137D003318BF0123002BCDD095F8B7
:1038E0003E31002B40F08581CF4BD86800F049FF76
:1038F000002840F07E81CD4FD4F878113A68CC4B47
:10390000511A7C29B84640F27481C3F8782193F8A3
:103910007C210746013283F87C2107F12400DFF87F
:1039200010A3C0B200F0D4FF0AF58D7333F917006D
:1039300008F024F8BF4B8346188808F01FF80146AA
:10394000584608F023F9BC4908F06CF808F030FA42
:10395000013700B200F0E8FF032FDED1302000F085
:10396000B7FFB64BB3F9000000F0DEFF00F0BEFF7A
:103970009AF87C0110F0030B2CD1DFF8D0A21020B4
:1039800000F0A6FFDAF80030642793FBF7F000B2EE
:1039900000F0CAFF212000F09BFFDAF8003093FB13
:1039A000F7F007FB103787EAE770A0EBE77000B28B
:1039B00000F0BAFF142000F08BFFA14BB3F9000018
:1039C00000F0B2FF1C2000F083FF584600F0ACFF6F
:1039D00000F08CFF94F87C31954F580740F0E3805D
:1039E000022000F075FFB7F97E014FF00A0A90FB44
:1039F000FAF000F099FFAB68990760D5BB8F4FF0E4
:103A00006E0B0BFB03FB15239BFBF3FB3A2000F033
:103A10005FFF1FFA8BFB6422BBFBF2F90FFA89F000
:103A2000039200F081FF3B2000F052FF039A02FB5B
:103A300019B080B20530DFF818B290FBFAF000B28E
:103A400000F072FF9BF80030BA8F40F6340192FB11
:103A5000F3F24A432A21B2FBF1F2B7F8801191FB4D
:103A6000F3F003FB10131B019BB243EA02239BB24A
:103A7000C2F3032243EA0209062000F029FF0FFAED
:103A800089F000F051FFB7F880219BF80030013237
:103A900092B292FBF3F103FB11232820A7F88031A7
:103AA00000F016FF786C90FBFAF000B200F03CFFDB
:103AB000042000F00DFFB7F9500000F035FF336827
:103AC0009A066ED5DFF88CA15E4FDAF800303C2103
:103AD00083EAE37CACEBE37C5B4B13209CFBF3F2CF
:103AE00007FB02CC01FB0CF9029199FBF3FB01935C
:103AF000039200F0EDFE039A02EB820202EB8202D7
:103B00000BEB820007FB0B9B00B200F00DFF4FF4A4
:103B10007A791B2000F0DCFE9BFBF9F000B200F08C
:103B200003FF232000F0D4FEDAF80020002AACBF07
:103B30004E20532000F0F8FEDAF80420019B82EAC0
:103B4000E27BABEBE27B9BFBF3F207FB02BB029950
:103B5000122001FB0BF1039291FBF3FB029100F0A9
:103B6000B7FE039A02EB820202EB82020BEB8200A9
:103B700000B200F0D9FE1A2000F0AAFE029907FB5D
:103B80000B1191FBF9F000B200F0CEFE222000F004
:103B90009FFEDAF80430002BACBF4520572000F020
:103BA000C3FE00F0A3FE94F87C31282B21D1204BDA
:103BB0000022D8F8007083F87C214FF47A73B7FBA9
:103BC000F3FA17203C2700F083FEBAFBF7F9B9FBA4
:103BD000F7F007FB1090000200B200F0A5FE1820DD
:103BE00000F076FE07FB19A000B200F09DFE00F089
:103BF0007DFE95F83E31012B7FF43FAE0A4DE8681B
:103C000000F0BFFD00283FF438AEE86800F0B4FDD6
:103C10000746052000F053FF8A2F4AD08E2FEDD1A2
:103C20001AE000BFA801002074050020CC18002075
:103C3000E80B00202000002000007A44000400204F
:103C4000C4010020806967FF80969800E00300208F
:103C50001C0000201C02002000212E226E480AF0C9
:103C600040F87C2384F8AE31E02384F8B1317D2321
:103C700084F8DA31A38F84F8AF71DAB21B0A84F8C2
:103C8000CD3184F8C331142384F8C63184F8C731A8
:103C90004FF4FA73A4F8C8314823A4F8D03178233C
:103CA00084F8CC2184F8C22184F8D2315A482E21DC
:103CB00090E033689B06A1D5584D002105F5C170F1
:103CC0002C220AF00EF87C2384F88231A02384F899
:103CD00085317D2384F8AD31514B84F883711B7895
:103CE00084F89C314F4BDB7A002B6ED04E494F4A03
:103CF0000F68DFF85CC197FBF2F06623C0B285F86D
:103D0000AB31FB0F0CFB00774FF0060E0EFB07F7F5
:103D100085F88B3142F21073B7FBF3F900EB8000AA
:103D200003FB197749685FFA89F900EB800009EB1A
:103D3000800080B291FBF2F2D2B285F88C01000AC9
:103D400085F88D01C80F0CFB02110EFB01F185F8FF
:103D50009001B1FBF3F003FB101302EB8202C0B23F
:103D600002EB820200EB820285F893311B0A92B2C9
:103D700085F894312E4B85F89121120A85F892210D
:103D80001A886423B2FBF3F303EBC3039B009BB2DB
:103D900085F889311B0A85F88A31264B85F88E71A2
:103DA0001B883F0A85F895311B0A85F89631224B0E
:103DB00085F88F711B8885F897311B0A85F8983133
:103DC000B5F8263185F89E3102E0202385F8AB3125
:103DD0001A482C2106F056F810E7194ED4F8DC21C9
:103DE00033689A1A002A0FDB0D4A1278042A0BD97D
:103DF0000A4A03F5123303F5F873C2F8DC31114BAC
:103E0000DA6882F01002DA600F4B9B680BB10F4842
:103E100098470DB0BDE8F08F960D0020E80B00200C
:103E2000F80100204C0600201C020020A0860100A2
:103E30002004002032040020180200206A0D002017
:103E40005C010020000C0140D4040020660D00201D
:103E50006079FEFFAFF30080084BDA68D10709D420
:103E6000DA68520708D4DB6813F0100F0CBF042087
:103E70000320704701207047022070470020024055
:103E80001C4BF0B51A781C46DAB11B4B1D781B4B46
:103E90001E7802231A4A5F1CD15C294101F00F01F0
:103EA000062909D812F803C0D75D02EB81020CEA9B
:103EB000060107EB012111610233102BEAD1002327
:103EC000237006280F4A03D80D4B93F82C1011B914
:103ED000B2F81A01F0BD10440B4990F80F2109788F
:103EE00003EB8203186901B1400800F5777080B2D6
:103EF000F0BD00BF00010020E4060020E506002020
:103F0000C80D0020D0180020E6060020044B1844FD
:103F100090F80F21034B53F82200C0F3CF007047F5
:103F2000D018002038010020064B074A184490F8AA
:103F30000F11B3F8183152F8210003EB500080B292
:103F4000704700BFD0180020E8060020016B034630
:103F5000C26810B5406941B1196C541A005D01394D
:103F600018BF0A46C0B21A6410BD196A405C01311C
:103F7000B1FBF2F402FB1412C0B21A6210BD436B23
:103F800013B190F844007047826A436AD31A5842CA
:103F900058417047036B13B15A68036C01E0026A21
:103FA000C369D01A18BF012070477047034B4FF404
:103FB000805208B11A6170475A6170470008014089
:103FC000034B4FF4805208B15A6170471A61704731
:103FD00000080140014B33F810007047BC06002078
:103FE000034B184490F80F21024B33F8120070472E
:103FF000D01800202810002003799B070AD5436AB7
:104000008269D154426A03690132B2FBF3F103FBC6
:10401000112343627047037913F001030BD0026A46
:10402000C3699A4205D09CBFC0681218D31AD8B28F
:1040300070470020704718467047037910B513F099
:10404000010304460ED0FFF7E6FF60B1E369626941
:10405000D05CE268C0B2013A934234BF013300231E
:10406000E36110BD184610BD426A806A131A5842B7
:1040700058417047017170477047034B53F8203027
:104080001B681980704700BF68060020074BA1F528
:104090007A7153F820304FF47A701A689B884B433A
:1040A00093FBF0F39BB21380704700BF68060020BB
:1040B000034B4FF480521A8008B1024B18707047BE
:1040C0002000002044000020064B1A78064B12B155
:1040D0004FF4FF6201E04FF480521A8008B1034BA5
:1040E00018707047F21000202000002048000020C7
:1040F0002DE9F04F504A514E176873898446308934
:10410000A7EB032785B0039187FB0001B288CB1191
:104110001404C209F08842EA416287FB000114EBF3
:10412000020872884FF000054FEAC2344FEA1022AD
:10413000B08945EB030942EA01620B1287FB0001DB
:1041400014EB020A4FEAD05242EA41224FF0000536
:1041500045EB030B12F5FA604FEAE15343F100011E
:10416000CDE90001B0F5FA6F71F1000147DAA2FB69
:10417000024502FB03F1052605EB4105A4FB060100
:1041800006FB05114D104FEA3004B8EB040869EB4B
:10419000050984082A4844EA81748D104FF0FF31E4
:1041A000BAEB040A6BEB050BDDE9004584428D4157
:1041B00025DA40F6AC5012184FF0000143EB010332
:1041C00002FB03F1A2FB02236FF0060003EB4103A5
:1041D000544200FB0344A2FB000118EB00082144F9
:1041E0004FF00B0449EB0109A2FB040104FB03118E
:1041F00049104FEA3000BAEB000A6BEB010B114B90
:104200001A68A2FB0A0102FB0B11420D42EAC1220D
:104210004B15B2EB080263EB0903D00B40EA4340B5
:10422000BCF1000F01D0CCF80000039808B1009950
:10423000016005B0BDE8F08FDC0F002038050020DC
:1042400024FAFFFFE00F0020324B2DE9F0411C88DB
:10425000314B0A265A89B3F91250A41A1A89ED0271
:104260005443B3F91420E413224495FBF2F22244A0
:10427000DA615643A2F57A6202FB02F4B3F90480D4
:10428000B3F902C0B3F90E7002FB0CFC02FB08F29A
:10429000B3F90C802413674304FB08F4241404EBE3
:1042A00062320232DC88921002F50042B3F92050EB
:1042B0006243B3F900304FEAEC2404EBE72404EB4B
:1042C0008304AC40154B02341B68D20BA3EBA4044F
:1042D0004CF250332B41634355BF5B00B3FBF2F309
:1042E000B3FBF2F35B001A12524340F6DE34624332
:1042F0000B4C08365C43241404EB224202F6CF62D6
:10430000361103EB221300B1036001B10E60BDE86A
:10431000F08100BFEC0F0020FC040020E80F00201B
:1043200043E3FFFF38B50C680546204609F0FBFC67
:10433000214602462868BDE8384009F0FDBC10B5AA
:104340000446FFF789FD012806D11CB1FFF784FD63
:10435000013CF8E7052010BD002C08BF052010BD6A
:1043600038B505464FF43020FFF7E9FF042812D195
:10437000094C4FF43020236943F002032361656147
:10438000236943F040032361FFF7D9FF226941F617
:10439000FD731340236138BD00200240826A8169A9
:1043A000436B1144D960416A914203D98A1A5A6019
:1043B000816204E001698A1A5A6000228262002246
:1043C00080F844201A6842F001021A6070478A6837
:1043D00010B50C6A036814430A6923F4FF431443BD
:1043E0004A6923F0700314438A691443CA69144369
:1043F0004A6A14438A6A224313430360CB684360CA
:104400000B6883604B68C36010BD02684FF6FE7393
:10441000134003600023036043608360C3602A4B42
:10442000984222D0294B984229D0294B984230D02B
:10443000284B984237D0284B98423ED0274B984281
:1044400006D153F8682C42F4700243F8682C704788
:10445000234B984206D153F87C2C42F0706243F80B
:104460007C2C70471F4B984206D153F8042C42F025
:104470000F0243F8042C70471B4B984206D153F8A7
:10448000182C42F0F00243F8182C7047174B984252
:1044900006D153F82C2C42F4706243F82C2C704750
:1044A000134B984206D153F8402C42F4704243F823
:1044B000402C70470F4B984205D153F8542C42F4CE
:1044C000702243F8542C7047080002401C00024040
:1044D0003000024044000240580002406C0002409C
:1044E00080000240080402401C04024030040240E4
:1044F000440402405804024010B5104B4178DB6878
:104500008478DB43C3F30223C3F1040201FA02F20D
:104510000F21D94021401143094B02780901C9B24A
:104520001A4482F8001302780120510902F01F0298
:1045300000FA02F243F8212010BD00BF00ED00E0B8
:1045400000E100E0013A2DE9F8430C46072A30D893
:10455000DFE802F004080C12191E222603880B80E3
:1045600043880DE043880B80038803E003885B42A7
:104570000B8043885B4203E043885B420B800388E7
:104580006380838814E003885B420B8043880CE0DF
:1045900043880B80038808E003880B80438803E08E
:1045A00043885B420B8003885B42638083885B4265
:1045B000A380304B1B78002B5AD1B4F9000007F0D0
:1045C000DDF98046B4F9020007F0D8F90746B4F9DE
:1045D000040007F0D3F9284D06462968404607F045
:1045E00021FAE9688146384607F01CFA0146484638
:1045F00007F010F9A9698146304607F013FA014621
:10460000484607F007F909F00DFE6968208040462A
:1046100007F008FA29698146384607F003FA01468F
:10462000484607F0F7F8E9698146304607F0FAF99D
:104630000146484607F0EEF809F0F4FDA9686080ED
:10464000404607F0EFF969698046384607F0EAF915
:104650000146404607F0DEF8296A0746304607F073
:10466000E1F90146384607F0D5F809F0DBFDA080F6
:10467000BDE8F8831D000020AC0400202DE9F041C6
:10468000069C002B06460F460CBF4FF020084FF04B
:104690003008234613F8011B09B9154603E0002A28
:1046A000FBDD013AF6E7002D04DD30464146B84710
:1046B000013DF8E714F8011B11B13046B847F9E79E
:1046C000BDE8F081F0B50124B0FBF4F58D4201D3D3
:1046D0004C43F9E70026DCB1B0FBF4F504FB150010
:1046E000B4FBF1F41EB9002D01DC002CF3D1092D2F
:1046F00003F101075FFA85FC04DD002A0CBF572592
:10470000372500E0302565441D7001363B46E2E761
:104710001C70F0BDF0B50124B0FBF4F58D4201D35F
:104720004C43F9E70026DCB1B0FBF4F504FB1500BF
:10473000B4FBF1F41EB9002D01DC002CF3D1092DDE
:1047400003F101075FFA85FC04DD002A0CBF572541
:10475000372500E0302565441D7001363B46E2E711
:104760001C70F0BD08B503685B69984708BD08B5C3
:104770000368DB68984708BD08B503689B689847DD
:1047800008BD08B503685B68984708BD08B50368AD
:104790001B68984708BD38B5054D04462B6821466F
:1047A0001868FFF7F3FF2B681A7954401C7138BD65
:1047B0003800002038B5044624200D46FFF7EBFFF3
:1047C0004D20FFF7E8FF002C084C0CBF3E202120B5
:1047D000FFF7E1FF2368002228461A71FFF7DBFF8D
:1047E000236893F84600BDE83840D4E7380000203D
:1047F00001460020DEE710B50446C0B2FFF7CBFF4C
:10480000C4F30720BDE81040C5E710B50446C0B2A8
:10481000FFF7C1FFC4F30720FFF7BDFFC4F3074054
:10482000FFF7B9FF200EBDE81040B4E7014B186850
:10483000ACE700BF7405002010B5441E14F8011F3A
:1048400021B1034B1868FFF7A1FFF7E710BD00BFC8
:1048500074050020F8B5184B1B78042B28D1174B92
:1048600008221A6110221A61154CA068FFF789FF0F
:1048700058B1124D08266E61A0682768FFF77CFFCB
:1048800001463846FFF782FF2E6120680C4EFFF785
:1048900078FF0028E8D0094C102565613068B768BA
:1048A000FFF76AFF01463846FFF770FF2561DBE737
:1048B0000448BDE8F840BFE708070020000C0140AD
:1048C00074050020411B01080048B5E7671B01087B
:1048D00038B5054C05465E21E068FFF757FFE068F4
:1048E0002946BDE8384051E774050020014B5E21A0
:1048F000D8684BE77405002010B50A4C5E280146C5
:10490000E06805D15D21FFF741FFE0683E2105E049
:104910005D2903D1FFF73AFFE0683D21BDE8104073
:1049200034E700BF7405002010B50446C0B2FFF79D
:10493000E3FFC4F30720BDE81040FFF7DDBF08B573
:10494000014B1B68984708BDF41D002010B5094AAB
:10495000094913688C6812689342F8D1074A1068B5
:1049600011684FF47A725043001BB0FBF1F002FB68
:10497000030010BDCC18002010E000E08C040020E3
:1049800038B5124C0123054684F82C30FFF7DEFFC2
:10499000236B41F28832C31A9342636384BF0023BE
:1049A00084F8383094F83830EDB20F2B2063E5549A
:1049B00006D1074B01221A70064B00221A8038BD1F
:1049C000024A013382F8383038BD00BFC80D0020DC
:1049D000000100201C01002010B50446FFF7B6FFBF
:1049E000164AD36BD063C31AB3F57A6F84BF002322
:1049F00082F8403092F8403023B9A82C1CD11049DD
:104A00000B7006E0022B02D10E490C7001E0142B52
:104A100001D80D49CC540133DBB282F84030094A49
:104A2000127852000532934206D1044B002283F8DB
:104A30004020034B01221A7010BD00BFC80D00209A
:104A40001E010020340100201F01002038B504465B
:104A5000FFF77CFF114B40F6C4115A6C5864821A60
:104A60008A4284BF002283F8482093F848200AB97C
:104A70000F2C11D10A480021017052B1094D182A9A
:104A8000154405F8014C04D1012283F84810027046
:104A900038BD013283F8482038BD00BFC80D002062
:104AA000010100200201002038B50446FFF74EFF47
:104AB0000546FFF74BFF401BA042FAD338BD10B5A7
:104AC00004462CB14FF47A70FFF7EEFF013CF8E793
:104AD00010BD40F2DB14604308B50E4B10221A6182
:104AE00008225A61841E0B4B2046DA6882F01002BD
:104AF000DA60DA6882F00802DA60FFF7E0FF01208E
:104B0000FFF71DFF1920FFF7DAFF0020FFF717FF5F
:104B1000E9E700BF000C01402DE9F04106460F46D1
:104B200090460025EBB2434518D20024E3B2B342CD
:104B30000FD20B4B0120DA68013482F00802DA60F0
:104B4000FFF7FDFE3846FFF7BAFF0020FFF7F7FE3C
:104B5000ECE73C20FFF7B3FF0135E3E7BDE8F08168
:104B6000000C01400A4B1A880A4B52B99A7842B19C
:104B70005A7862B901225A70074B1A88074B1A807B
:104B800070475B781BB90220FF210122C4E7704700
:104B9000E00B00204C060020C4010020F60100209C
:104BA0002DE9F0410F88002347FA03F2D2072BD5F5
:104BB0008A7803F0070512F0100F18BF91F803C0B0
:104BC00002F00F0618BF46EA0C06AD004FF00F0CBE
:104BD0000CFA05FC06FA05F5DC0850F82480282AB2
:104BE00028EA0C0C45EA0C0540F8245005D10122B6
:104BF0009A40C46824EA020205E0482A04D101224E
:104C00009A40C4682243C2600133102BCCD1BDE866
:104C1000F081044B1B685A79511C597113449879DF
:104C2000704700BF3800002010B5FFF7F2FF0446C0
:104C3000FFF7EFFF04EB002080B210BD10B5FFF7C7
:104C4000F3FF0446FFF7F0FF04EB004010BD034BF9
:104C50005A780AB100225A70704700BF4C060020F3
:104C600010B50024084BE0B21B7883420BD9074BE8
:104C700033F81010064B1B78834202D9054B1B6892
:104C800098470134EEE710BDDC1C0020DE1C00203C
:104C90006506002060060020074B03EBC003B3F855
:104CA0007C301AB2112A04DC0728DCBF034B33F82E
:104CB000123018B2704700BFF81C0020BC0600205C
:104CC0002DE9F04F0C68836889B0D0F800A0D0F8C7
:104CD00004800646204603938B4609F06DFA07468A
:104CE000204609F0DDFADBF804408146204609F051
:104CF00063FA0546204609F0D3FADBF8082004469B
:104D00001046019209F058FA019A8346104609F0BC
:104D1000C7FA39460290584606F084FE3946049098
:104D2000029806F07FFE59460590484606F07AFE46
:104D300002990690484606F075FE294607905846A7
:104D400006F070FE0146504606F06CFE2146834692
:104D5000069806F067FE0146059806F05BFD0146E1
:104D6000404606F05FFE0146584606F053FD2146D8
:104D70008346049806F056FE0146079806F048FD63
:104D80000146039806F04EFE0146584606F042FDE5
:104D90003060029905F1004006F044FE014650469D
:104DA00006F040FE21468346079806F03BFE01468A
:104DB000049806F02DFD0146404606F033FE0146FC
:104DC000584606F027FD21468346059806F02AFE40
:104DD0000146069806F01EFD0146039806F022FEE5
:104DE0000146584606F016FD21467060504606F012
:104DF00019FE2946044609F1004006F013FE01465B
:104E0000404606F00FFE0146204606F003FD3946F7
:104E10000446284606F006FE0146039806F002FE08
:104E20000146204606F0F6FCB06009B0BDE8F08F00
:104E30002DE9F84F384E04463768384609F0BCF97A
:104E40000546384609F02CFA76688046304609F067
:104E5000B3F98346304609F023FAD4F804900646A5
:104E60002946484606F0DEFDA76882464146384698
:104E700006F0D8FD0146504606F0CAFC216882467D
:104E8000584606F0CFFD41460446484606F0CAFDA6
:104E9000314606F0C7FD0146204606F0BBFC314610
:104EA0000446384606F0BEFD294606F0BBFD014625
:104EB000204606F0AFFC0146504609F07FFA17493C
:104EC00006F0B0FD06F0C2F911A3D3E9002306F005
:104ED0003BFB134B044618680D4606F0B7F9024633
:104EE0000B462046294606F053F800220D4B06F0EB
:104EF0002BFB06F039FC09F095F983B21A0444BF84
:104F000000F5B4739BB218B2BDE8F88FAFF3008020
:104F1000182D4454FB210940D41000200000E14426
:104F20005C0500200000244080EAE073A3EBE073FE
:104F30008B4206DB002801DD401A704702D008448E
:104F400070470020704770B50546441E14F8011FD5
:104F500061B1074E304608F0D9FE0028F6D0861B16
:104F60000448631B304480F80F31EFE770BD00BF89
:104F700018230108D01800200F4B1A78452A17D1A2
:104F8000598840F20C42914212D11A79BE2A0FD1AF
:104F900093F80A240020EF2A0CD113F8012B50407B
:104FA000064A9342F9D1D0F1010038BF0020704782
:104FB00000207047704700BF00F801080CFC010892
:104FC00008B5FFF7D9FF10B90A20FFF782FD0C4B97
:104FD0000C49184640F20C4208F07AFE90F808247A
:104FE000022A84BF002280F8082490F80814EC22DA
:104FF00002FB0101044801F5A27108F069FE08BD39
:10500000D018002000F80108F81C00202DE9F0411C
:1050100002780346202A00F10100F9D0092AF7D0CE
:105020002D2A02D10346414D04E02B2A08BF034636
:105030004FF07E551E460024334616F8012BA2F190
:105040003007F9B209290DD83949204606F0EAFCA3
:105050000446384606F092FC0146204606F0DAFB8C
:105060000446E9E72E2A17D1314F334616F8010BD3
:105070003038C2B2092A0FD806F080FC394606F053
:1050800085FD0146204606F0C5FB29490446384601
:1050900006F0C8FC0746E8E71A7802F0DF02452A66
:1050A00038D15A782D2A02D10233012604E02B2A66
:1050B00014BF013302330026013B002713F8012FF0
:1050C000303AD1B2092903D80A2101FB0727F5E7B5
:1050D000B7F59A7F28BF4FF49A77B8464FF07E51C4
:1050E000B8F1070F07D90846124906F09BFCA8F152
:1050F00008080146F4E707F0070737B108460C49EE
:1051000006F090FC013F0146F7E72EB1204606F07D
:105110003DFD04E04FF07E51204606F083FC014641
:10512000284606F07FFCBDE8F08100BF000080BF8C
:105130000000204120BCBE4C70B50646B6FBF2F420
:105140000846154614B12046FFF7F6FF05FB146428
:10515000024B1B5D00F8013B70BD00BF951B0108B1
:1051600090F83B3210B57BB990F83A3290F839227A
:10517000934209D201219940B0F8404201332143C2
:10518000A0F84012DBB2F3E710BD90F842321BB139
:10519000D1F1010138BF0021D0F834315A689B6841
:1051A00009B11361704753617047F8B5101A0C4686
:1051B0001F4606F0E3FB0546381B06F0DFFB184BE5
:1051C000079E196806F02EFC29460446284606F07C
:1051D00029FC21460746204606F024FC01463846B5
:1051E00006F018FB09F074FA0E4906F01BFC06F0F5
:1051F000DFFD069B2146186005F1004009F0DEF84E
:10520000094906F00FFC094906F004FB06F0D0FD41
:105210000028BCBF00F50C40A0303060F8BD00BFD6
:105220003C0000202C7D8E3FA00CB34500A00C4616
:1052300010B506F0A3FB0021044606F0AFFD08B14F
:10524000204601E004F10040054906F09FFC0549B5
:1052500006F0E8FB08F0B0FF034B186010BD00BF7C
:105260008096184B35FA8E3C3C00002038B50C4D2A
:10527000EB7AA3B10B4B1B78042B10D90A4B0B4CC8
:1052800018685B6820606360FFF7D2FF084B1A88DC
:10529000084B1A80084B1B88A36001232B7338BD71
:1052A0004C060020F80100201C020020FC01002018
:1052B000C4010020C20F00201802002044F25063F5
:1052C000984203DDA0F50C40A0387047034B98428C
:1052D000BCBF00F50C40A030704700BFB0B9FFFF65
:1052E00070B52D4C2D4D607906F044FB2C4906F02D
:1052F0004DFC2860E07B06F03DFB294906F046FCAA
:10530000284E6860EE60A07906F034FB264906F06E
:105310003DFC264D2860207C06F02CFB204906F041
:1053200035FC6860A07E06F025FB214906F02EFCC6
:10533000EE60A860E07906F01DFB1B4906F026FC34
:105340001C4D2860607C06F015FB154906F01EFC1C
:105350006860E07E06F00EFB154906F017FC164B60
:10536000A8601B7CEE60ABB1207906F003FB0E4910
:1053700006F00CFC114D2860A07B06F0FBFA0849F2
:1053800006F004FC6860207E06F0F4FA084906F096
:10539000FDFBA86070BD00BFF81C0020940F00202A
:1053A0000000C8420000FA4400002041A40F002081
:1053B00000007A444C0400204C06002038040020F1
:1053C0002DE9F047304A002392F82050D47F03FBA8
:1053D00003F01938684300F6C4105843604340F6A0
:1053E000C41190FBF1F0294921F813000133072B78
:1053F000EDD192F8213092F82260254AC3F1640C75
:10540000B2F8D050B2F8D29003EB830758425FFA5B
:105410008CFC7F00C6F16408C5EB090980B200224C
:1054200084B221B2002904DC002C14BF1C460124E4
:1054300000E0644601FB01FA64430AFB06FA9AFBAA
:10544000F4F444444C434FF00A0A94FBFAF43C440D
:1054500024B204FB09F44FF47A7194FBF1F40D4982
:105460002C44545202325044182A80B2D8D1064BF0
:10547000BDE8F0471B78012B18BF074A074B08BF50
:10548000074A1A602CE700BFF81C0020E80B002038
:10549000D0180020000C0020F98B00080400002028
:1054A0005D8E0008084B9A8998811A89D007FCD52F
:1054B000054B9889C0B2044B1A899107FBD51A890C
:1054C0001206FCD4704700BF00380040044B1B7824
:1054D000834204D9034B53F820301B68198070476E
:1054E000980600209C0600200328104B0BD8104A79
:1054F00012888A4207D2012202FA00F093F849206A
:10550000104383F8490093F849300F2B0CD1074B17
:10551000002283F84920074B198808B2142802DDBD
:105520001439198070471A80704700BFC80D0020D9
:10553000220000201C010020144B10B5B3F84A20B3
:10554000A3F84A10891AA3F84C2089B240F68C229D
:1055500091421C4603D9002283F84E2010BDA1F2CF
:10556000EF2292B240F2DA539A4208D894F84E00F1
:10557000072804D8064B23F81010FFF7B5FF94F85E
:105580004E30013384F84E3010BD00BFC80D0020EE
:1055900028100020AFF300802DE9F04F944B95B018
:1055A0009B68CBB9934D2B78013B042B00F20F87FE
:1055B000DFE813F03C063C063C06FD06E606A06864
:1055C000FFF7DAF88C4B044693F83031012B00F0EA
:1055D000FD8008D3022B06D0854CA068FFF7D1F8D8
:1055E0000028ECD1DEE7242C844D0CD006D80A2C00
:1055F00000F08C800D2C00F08980D3E02A2C07D09D
:105600002C2C05D0CEE000232B706B70AB70DAE051
:105610006A782E782A440021784BD170EEB9DA7876
:105620009E74472A19D11A79502A16D15A79472AD5
:1056300007D19A79472A04D1DA79412A01D1012286
:105640009A746A796D4B522A07D19A794D2A04D1FE
:10565000DA79432A04BF02229A74AB7C674F012B8C
:1056600002D0022B33D046E0B31E072B43D8DFE82D
:1056700003F0040810141C24422904F0DFFE6861C2
:1056800039E0EA785D4B532A35D15A6952425A6162
:1056900031E004F0D3FEA8612DE0EA78574B572A99
:1056A00029D19A6952429A6125E0EA78544B302A0E
:1056B00094BF00220122DA721DE0002004F09EFE59
:1056C000287718E0002004F099FEE88313E0072E05
:1056D00006D0082E0FD1012004F090FE78840AE055
:1056E000012004F08BFE41F2184358434FF47A72C4
:1056F000B0FBF2F33B84013600232A2C3F4A2E7084
:105700006B705BD1012182F824105CE095F82430A5
:10571000002B43D0394BDB78402B04D9A3F137025F
:105720001201D2B202E01B0103F0F0022B79A9783A
:10573000402B8CBF373B303BDBB21344DBB299428A
:105740002E4A2AD1937C012B08D0022B25D1118C13
:105750002C4B528C19802C4B1A801EE02849C87A99
:1057600008B901231AE02948546904609469446027
:10577000147F2748D28B0470264802802648006890
:105780004607EED4097C0029EBD024498968521AD7
:1057900064214A4322490A6000E00023002285F880
:1057A000242010E06B78154A0E2B03D8591C1344A3
:1057B0005170DC7095F82430104A1BB991784C4038
:1057C000947000E0002303F0010382E10B4B002101
:1057D00093F82520082A00F27B81DFE802F02505F6
:1057E0002E3849597793A00062281BD1022221E06C
:1057F0007405002008070020D0180020180E002093
:105800004C060020200400201E0400201C02002062
:10581000F801002018020020D0040020FC01002024
:10582000DC01002083F82510B52C40F0518193F85D
:105830002520013283F825204AE1032283F8252020
:1058400083F8260083F8270083F8280040E104222B
:1058500083F8252093F8272093F828100244D2B229
:1058600083F827200A4483F8282083F829002FE1B1
:10587000052283F8252093F8272093F82810024466
:10588000D2B283F827200A4483F8282058851FE1E4
:10589000062183F8251093F8271093F82800214457
:1058A000C9B283F82710014483F82810598D774A2C
:1058B00001EB0424A4B2B4F5007F89BF0021548514
:1058C000518582F8251000229A8501E193F827205E
:1058D00093F828100244D2B283F827200A4483F8B0
:1058E00028209A8DC72A03D86849114481F83000CE
:1058F000013292B29A855B8D934240F0E980072293
:10590000624B97E7082283F8252093F827308342DB
:1059100000F0DE805D4A002382F82530D9E083F86C
:10592000251093F82810594A814240F0D18092F80E
:10593000291006294BD004D8022912D0032933D0CC
:10594000C6E0122959D0302940F0C28092F83410B4
:105950004F4A102988BF1021117010784D4900223C
:1059600070E04D49506B92F8F8404860906B0860C9
:10597000116C4FF47A7091FBF0F14848018048486F
:10598000C472012482F8F940464A126854076ED462
:10599000027C002A6BD0444A89B29268891A642238
:1059A0005143424A116062E092F8351011F0010152
:1059B00005D092F83420D01E4242424100E00A460F
:1059C00083F8F820002A52D13549CA724FE092F884
:1059D0003B1011F0010105D092F83A20D11E4A4245
:1059E0004A4100E00A4683F8F8200AB92C49CA72F5
:1059F00093F85F102E4A117039E0B2F844002D4937
:105A000042F210740880916C91FBF4F12A4C89B237
:105A10002180012482F8FA40224A1268120726D413
:105A20001F4A127C1AB3642821D90A22B1FBF2F171
:105A3000224A88B2108000B2B32818DDA1F5B471F3
:105A4000118014E0824201F10C0110DA11F8045CBB
:105A50001B4C155511F8035C1A4C155511F8015CD7
:105A6000194C15550D78194C15550132EAE793F884
:105A7000F930064A63B392F8FA304BB3002382F848
:105A8000F93082F8FA30012323E000BF180E00201D
:105A9000180D0020480E00201C02002018020020D3
:105AA0004C060020D0040020FC010020DC01002076
:105AB000F8010020200400201E040020C401002062
:105AC000190D0020290D0020390D0020490D00205E
:105AD0000023002B3FF480AD994B9A4D9A68DA6011
