:020000040800F2
:10000000A831002071D20008B1D200081B310008CD
:10001000B5D20008B7D20008B9D20008000000002D
:10002000000000000000000000000000BBD200083B
:10003000BDD2000800000000BFD20008B5A2000831
:10004000C3D20008C3D20008C3D20008C3D200083C
:10005000C3D20008C3D20008C3D20008F9AC00081C
:10006000C3D20008C3D20008C3D20008C3D200081C
:10007000C9A90008C3D200089DA90008C3D200087E
:10008000C3D20008C3D20008C3D20008C3D20008FC
:10009000C3D20008C3D20008C3D20008FBAC0008DA
:1000A000C3D20008C3D20008C3D200088BB5000831
:1000B00091B5000897B500089DB50008659C00083B
:1000C000659A0008699C0008679C0008C3D2000874
:1000D000C3D20008F5A9000829AA00088DAA0008C3
:1000E000BD930008C3D20008C3D20008DFF80CD0CB
:1000F0000DF0B2FC00480047E12D0008A8310020B7
:1001000070B50C46911E232900D30A220025002831
:1001100004DA2D212170611C404200E0214601F0EB
:1001200071FC0570204670BD2DE9F047044600E0E3
:10013000641C20782028FBD00928F9D04FF07E5885
:10014000C1B247462D2902D02B2801D001E0FC4F37
:10015000641C0026DFF8EC930CE000BF0DF0FCFA05
:100160000546494630460DF07BFA29460DF020FA47
:100170000646641C207830380928EFD920782E28CC
:1001800015D14D460EE000BF0DF0E6FA29460DF000
:1001900099FA31460DF00CFA0646494628460DF00C
:1001A0005FFA054614F8010F30380928ECD9217898
:1001B0004046652901D0452935D114F8011F4FF07B
:1001C00000082D2902D02B2902D002E04FF00108AF
:1001D000641C00256FF02F0206E000BF05EB8503CD
:1001E00002EB4303CD18641C2178A1F13003092BE5
:1001F000F4D94FF49A718D4204D90D46D2490DF0CD
:100200002FFA083D082DF9D203E049460DF028FAEF
:100210006D1E002DF9D1B8F1000F04D00146304613
:100220000DF050FA03E0014630460DF019FA394658
:10023000BDE8F0470DF014BAF0B587B000260D46C2
:10024000C34900960196C1A70296B0F5000F02DBE4
:100250000DF0AEF901E00DF0FDF9BE490DF000FA28
:100260000DF088FA041E00DC60420A2203A9FFF7A1
:1002700047FF002C01DB202000E02D208DF800003E
:1002800003A80DF046F9302401280AD003A80DF088
:1002900040F902280CD003A80DF03BF903280CD03C
:1002A0000DE08DF801408DF802408DF8034006E026
:1002B0008DF801408DF8024001E08DF8014003A95E
:1002C00068460DF0F2F868460DF023F9C01EC4B27E
:1002D0002246694628460DF006F92E55394628462D
:1002E0000DF0E3F80DEB040128460DF0DEF828468A
:1002F00007B0F0BD70B505460C4608680DF009F969
:10030000024621682868BDE870400DF02BB970B531
:1003100006460DF0FEF8904D10F0FF0F10D030465D
:100320000DF039F90446182818DA202130460DF06E
:10033000E6F80DF030F905EB4401A1F84A0070BD74
:100340005FF0000405EB44002146B0F84A2083A08A
:100350000DF03CFC641C182CF4DB70BDBDE8704053
:10036000182181A00DF032BC2DE9F041002588B0A4
:1003700007462E460DF0CDF8854C10F0FF0FA8462D
:1003800051D0052283A138460DF0ECF800287DD02D
:10039000042282A138460DF0E5F8002877D03846CF
:1003A0000DF0F9F8461E0C2E72DA202138460DF0B9
:1003B000A6F8070007D0781C0746FFF7B5FE04EB48
:1003C000061101250861202138460DF098F8070034
:1003D00007D0471C3846FFF7A7FE04EB06116D1C3B
:1003E0004861202138460DF08AF8070007D0471CE5
:1003F0003846FFF799FE04EB06116D1C8861202139
:1004000038460DF07CF830B1401CFFF78DFE04EB50
:1004100006116D1CC861042D77D062A001F005FBA8
:1004200008B0BDE8F0816EA001F0FFFA5FF00005B2
:1004300004EB0517386910F0FF4F2BD0691C73A02F
:10044000761C0DF0C3FB03A93869FFF7F5FE0146E2
:1004500070A00DF0BBFB03A97869FFF7EDFE014624
:100460006CA00DF0B3FB03A9B869FFF7E5FE0146E8
:1004700068A00DF0ABFB03A9F869FFF7DDFE0146AC
:1004800065A00DF0A3FB6D1C0C2D02E034E03DE0F7
:10049000E5E0CDDBCDF80880CDF804800025CDF86F
:1004A000008011E004EB0517009879690DF080F8E1
:1004B0000090B96901980DF07BF80190F9690298F4
:1004C0000DF076F86D1C0290B542EBDB54A001F004
:1004D000ACFA574E00246D4655F8240020F0004039
:1004E000B04201DD53A000E053A001F09EFA641C6D
:1004F000032CF1DB44A091E70020414604EB0012FD
:10050000401C11610C28F9DB8AE7A3E02021384662
:100510000CF0F5FF002883D0401C06460CF0F9FFD4
:10052000464DC7B2002400BF55F8241031B13A46F9
:1005300030460DF017F810B1641CF5E780E081E05B
:10054000000080BF0000204120BCBE4C2E000000F7
:100550006F12033A00007A44E008002061757820A9
:1005600025752025750D0A00496E76616C69642039
:100570004665617475726520696E6465783A206DB0
:10058000757374206265203C2025750D0A000000FB
:100590002804002072657365740000006C6F61644C
:1005A0000000000057726F6E67206E756D62657295
:1005B000206F6620617267756D656E74732C206E96
:1005C00065656473206964782074687220726F6C4A
:1005D0006C207069746368207961770D0A000000EF
:1005E000437573746F6D206D697865723A200D0ADA
:1005F0004D6F746F720954687209526F6C6C0950B8
:1006000069746368095961770D0A00002325643A0B
:10061000090000002573090025730D0A0000000081
:1006200053616E69747920636865636B3A090000F1
:100630000AD7233C4E4709004F4B090058EC0008ED
:10064000F3A0EBE6204602F0BDFE55F82410F6A01C
:100650000DF0BCFAAFF2B800FFF786FEE0E60C2121
:10066000F6A00DF0B3FADBE6F0B5FEA187B00646C2
:10067000D1E90001CDE9050130460CF04AFFFB4D00
:1006800010F0FF0F0ED00522AFF2F80130460CF04B
:1006900069FF002832D00024F5A130460CF040FF5D
:1006A0006E464AE0F3A00DF091FA0024611CAFF20F
:1006B000A4000DF08BFA04EB840005EB4006F8A0D3
:1006C00036F9821F0DF082FAB6F90410F4A00DF08D
:1006D0007DFAB6F90210F2A00DF078FA96F906103C
:1006E000EFA00DF073FAD4A00DF070FA641C082C82
:1006F000DCDBD1A00DF06AFAEAA025E0002005AA13
:100700004FF47F734FF4FA6440F2DC5600EB800143
:1007100005EB410121F8823F4C808E80175C401C24
:100720008F710828F2DBE3E50CF035FF46F8240072
:10073000CFA10020641C0CF0F3FE10B1052CF3DBFC
:1007400001E0052C03D0DE480DF040FAD0E5009919
:10075000491E072931D801984FF4617290422CDB71
:10076000034640F63400834227DC039B934224DB9C
:10077000834222DC029B93421FDB1A4683421CDC2D
:10078000049810F1640F18DB642816DC0198984275
:1007900013DC1046039A90420FDC0091DDE9000162
:1007A00000EB800005EB400020F8821F0399418098
:1007B000029981800499817102E0C2480DF006FA25
:1007C000B6A0FFF751FF93E52DE9F04188B08046D0
:1007D00000240CF09EFEBC4D10F0FF0F1BD0052234
:1007E000AFF2502140460CF0BDFEA04E00284BD089
:1007F0000422AFF2582140460CF0B4FE002855D038
:100800000922B2A140460CF0ADFE6F46002871D01F
:1008100097A14046F5E0B0480DF0D8F9AF480DF08B
:10082000D5F90026C6EBC600441994F8D20048B3A7
:10083000711CAFF228200DF0C9F914F8D01F98A050
:10084000491C0DF0C3F9617895A0491C0DF0BEF963
:1008500094F9021092A00DF0B9F9E17890A00DF092
:10086000B5F994F904108EA00DF0B0F994F90510C3
:100870008BA00DF0ABF9A17999A00DF0A7F9761C2A
:10088000102ECFDB6CA0BAE18F487021D0300CF075
:1008900001FE00204FEA000100EB800206EB42025D
:1008A000401CA2F88A100828F6DBB9E52021404652
:1008B0000CF025FE0028F8D0401C06460CF029FE5E
:1008C000894DC7B2002400BF55F8241031B13A4613
:1008D00030460CF047FE18B1641CF5E74CA08EE1E1
:1008E000204602F043FD55F824104FA00DF06EF99C
:1008F00080E1FFE7202140460CF001FE80460CF02D
:1009000008FE10F0FF0F4FF0010502D058A140463D
:1009100039E076480DF05AF975A00DF057F900242A
:10092000611C74A00DF052F9641C0C2CF8DB42A081
:100930000DF04CF90024B046611C70A00DF046F992
:1009400004EB8401002608EB410700BFB7F88A00DA
:1009500005FA06F1084201D069A100E05DA169A095
:100960000DF034F9761C0C2EF0DB33A00DF02EF9CF
:10097000641C082CE0DB53E50CF00DFE47F8240066
:100980003BA10020641C0CF0CBFD10B1032CF3DB69
:1009900001E0032C01D05DA031E10098401E072842
:1009A0000AD80199012907DB0C2905DC0299491CA9
:1009B00009D00299012906D063A00DF007F943A0E0
:1009C000FFF702FF2CE500900198401E019002986D
:1009D000019A401C009805FA02F500EB800006EB36
:1009E000400030F88A1F02D0A9430180E7E729437D
:1009F000FBE700BF0CF0CFFD47F824001CA100204E
:100A0000641C0CF08DFD10B1082CF3DBB0E0ADE000
:100A1000496E76616C6964206D69786572207479BD
:100A200070652E2E2E0D0A004C6F616465642025C2
:100A300073206D69782E2E2E0D0A00004D6F746F95
:100A400072206E756D626572206D757374206265BB
:100A5000206265747765656E203120616E642025A3
:100A6000640D0A001E1E646464646464E00800206F
:100A700020000000736572766F20736572766F5F79
:100A80006E756D626572096D696E096D6964646C7D
:100A900065096D617809726174650D0A00000000D6
:100AA00025640900526573657420736572766F73EF
:100AB0003A20736572766F2072657365740D0A0053
:100AC00078070108FC0601082804002064697265A3
:100AD0006374696F6E00000024080108C4070108F0
:100AE00025640D0A0000000058EC0008AC0601085F
:100AF00073000000096925640000000025640000FF
:100B000072000000092573202000000057726F6EEC
:100B100067206E756D626572206F66206172677501
:100B20006D656E74732C206E6565647320736572D9
:100B3000766F20696E70757420646972656374697C
:100B40006F6E0D0A000000004552523A2057726F36
:100B50006E672072616E676520666F7220617267D2
:100B6000756D656E74730D0A00000000082C01D0CD
:100B7000FD4844E00098401E10283ED2019900290B
:100B80003BDD082939DC0299012936DB0C2934DCEC
:100B9000039911F1640F30DB64292EDC04990029DC
:100BA0002BDBFF2929DC0599002926DB642924DCBD
:100BB0000699002921DB64291FDCDDE90512914239
:100BC0001BDA0799002918DB032916DCC0EBC000EB
:100BD00001992844491E00F8D01F0299491E41700E
:100BE000039981700499C170059901710699417149
:100BF00007998171AFF25C10E2E6AFF2B4000CF03D
:100C0000E5FF0DE410B5D9A000F00FFF012001F0C1
:100C1000B6FADDA000F009FF0A2009F011FCBDE8DA
:100C20001040002009F054BC7CB504460D46007904
:100C30000021062814D2DFE800F003060A0D111F78
:100C4000A06801780CE0A06890F9001008E0A068A6
:100C5000018805E0A068B0F9001001E0A068016813
:100C6000AFF268100CF0B2FF002D04D0D4E90312EB
:100C7000C9A00CF0ABFF7CBDA06869460068FFF717
:100C8000DBFA0146C6A00CF0A1FF002DF3D0E0680E
:100C90000CF062FD6946FFF7CFFA0146C1A00CF0E7
:100CA00095FF20690CF058FD6946FFF7C5FA01462B
:100CB000BCA00CF08BFF7CBDBBA000F0B6BE2DE944
:100CC000F04786B00020FFF7F7FFC3A00CF07EFFCF
:100CD000B0A0FFF71CFBCC4DCC49687901EB80003C
:100CE00050F8041CCAA00CF071FF286910F0FF4FE7
:100CF00050D0DFF828A3002405EB0410066916F095
:100D0000FF4F43D0D0E90589C769611CC4A00CF02E
:100D10005DFF564503D3AFF2A8200CF057FF02A9A0
:100D20003046FFF789FA01469DA00CF04FFF56466A
:100D3000B04503D3AFF2C8200CF048FF02A94046EB
:100D4000FFF77AFA014696A00CF040FFB14503D3B5
:100D5000AFF2E4200CF03AFF02A94846FFF76CFA24
:100D600001468FA00CF032FFB74203D3AFF2003040
:100D70000CF02CFF02A93846FFF75EFA0146AFF2ED
:100D800068700CF023FF641C0C2CB5D3611CA6A06A
:100D90000CF01CFF95F8D200A946002836D000259B
:100DA0004FEA0906C5EBC500841994F8D20048B390
:100DB000691CA2A00CF00AFF14F8D01FA2A0491CC5
:100DC0000CF004FF6178A0A0491C0CF0FFFE94F920
:100DD00002109DA00CF0FAFEE1789BA00CF0F6FE4C
:100DE00094F9041098A00CF0F1FE94F9051096A067
:100DF0000CF0ECFEA179AFF218300CF0E7FE6D1CA0
:100E0000102DCFD3691C91A00CF0E0FE0026DFF876
:100E10005082012506EB8601002408EB410700BF44
:100E2000B7F88A0005FA04F1084204D0621C711C6C
:100E30008CA00CF0CBFE641C0C2CF1D3761C082E7D
:100E4000E8D300244FEA080604EB840006EB4000D8
:100E500090F98820B0F98410CDE90012B0F98630FD
:100E6000B0F98220611C86A00CF0B0FE641C082C36
:100E7000EAD301F0B5F9654E0024074616F1640681
:100E800056F8241021B184A00CF0A0FE641CF7E7F2
:100E90005FF0000456F8241041B105FA04F038421E
:100EA00002D081A00CF092FE641CF3E7824B00207C
:100EB00002AA49460D181C5C95F88251401C08286E
:100EC0005455F7D30021115411467CA00CF07EFE3E
:100ED0007D4D002404EB840005EB800655F82010BE
:100EE0007AA00CF073FE00213046FFF79DFE25A08E
:100EF00000F09BFD641C8A2CECD306B0BDE8F087A3
:100F000010B575A000F091FD0121002000F02FFF29
:100F100074A000F08AFD0A2009F092FABDE81040A2
:100F2000002009F0D5BA10B5044672A000F07DFD8E
:100F30007648774A002101705160117002F057F92C
:100F40002046BDE81040DBE72DE9F04706460CF0EF
:100F5000E0FA054601F044F9DFF8B08007464FF0AB
:100F6000010908F16408D5E08C0801085265736531
:100F70007474696E6720746F2064656661756C7443
:100F8000732E2E2E0D0A00005265626F6F74696E0B
:100F9000672E2E2E0000000020256420256400000E
:100FA00025730000202573004166726F33322043A1
:100FB0004C492076657273696F6E20322E33204162
:100FC00075672032372032303135202F2031323AC8
:100FD00033373A353600000043757272656E7420FF
:100FE000436F6E6669673A20436F70792065766556
:100FF00072797468696E672062656C6F77206865C6
:1010000072652E2E2E0D0A002804002058EC0008D0
:101010006D697865722025730D0A000000008080DC
:10102000636D697820256400636D697820256420EC
:10103000302030203020300D0A000000736D6978B8
:10104000202564200000000025642000736D69786D
:1010500020256420302030203020300D0A00000090
:10106000E0080020736D69782064697265637469B3
:101070006F6E202564202564202D310D0A000000AC
:10108000736572766F2025642025642025642025F1
:10109000642025640D0A0000666561747572652020
:1010A0002D25730D0A000000666561747572652058
:1010B00025730D0A0000000000F900086D61702022
:1010C00025730D0A0000000038EE000873657420D7
:1010D0002573203D20000000536176696E672E2E37
:1010E0002E0000000D0A5265626F6F74696E672EE4
:1010F0002E2E00000D0A4C656176696E6720434C08
:1011000049206D6F64652E2E2E0D0A00F803002015
:101110000000002055B12A46F5A130460CF022FA15
:10112000C8B1307800272D2823D025E0F2A000F0A8
:101130007CFC00244D46464656F8241041B105FA81
:1011400004F0384202D0F1A00CF040FD641CF3E73B
:10115000AFF2D0101DE0EEA000F067FC0024454681
:1011600055F824100029F3D0E8A00CF02FFD641CE2
:10117000F6E701276D1E761C5FF0000458F8241076
:1011800031B12A4630460CF0EDF930B1641CF5E778
:10119000E5A0BDE8F04700F048BC09FA04F01FB133
:1011A00001F019F8E7A002E000F042FEE8A000F02C
:1011B0003CFC58F82410AFF20810BDE8F0470CF0E2
:1011C00005BD10B506F0BBFB401C04D0E3A0BDE894
:1011D000104000F02ABCE9A0F9E770B50024F1A0A6
:1011E00000F023FCF54D00BF04EB440005EB80014B
:1011F0004A6855F82010F2A00CF0E8FC641C122C90
:10120000F2D370BD3EB505460CF083F908281DD118
:101210000024285D0CF0FCF82855641C082CF8D339
:101220000024E948295D0CF06AF928B12819295DE4
:10123000401C0CF064F918B1E4A000F0F6FB3EBDD0
:10124000641C082CEDD3284600F0D5FCE7A000F084
:10125000ECFBDD4BEB4A0020694615181C5C95F849
:101260008251401C08284C55F7D300220A54AFF293
:10127000C0100CF0ABFC3EBD2DE9F04180460CF0F7
:1012800048F9E14DDF4E070010D0024698A14046D4
:101290000CF068F9A0B1002455F82410F9B13A46D1
:1012A00040460CF05FF900B3641CF5E7707905EB7C
:1012B000800050F8041CBDE8F041D4A00CF086BCBE
:1012C000D7A000F0B2FB002455F8241021B18FA064
:1012D0000CF07CFC641CF7E7AFF2583001E0AFF68D
:1012E000D000BDE8F04100F0A0BB601C707155F863
:1012F0002410D0A00CF06AFC7079082801D00E28C8
:1013000010D1D1483221002280F8261080F8202008
:101310001E221423027183732D2404768176C271F8
:101320004374C476BDE8F0812DE9F04100250746FD
:101330002C462E460CF0EDF810B184A138460FE093
:10134000C2A02AE016B1012E07D103E00CF023F968
:10135000054602E00CF01FF904467CA10020761C33
:101360000CF0DEF80028EDD10C2D05D3BDE8F041DE
:101370000C21C5A00CF02ABCCD4F022E07DA37F99C
:1013800015202946BDE8F041CAA00CF01FBCA4F509
:101390007A70B0F57A7F04D9CCA0BDE8F0410CF0AA
:1013A00015BC22462946D2A00CF010FC27F81540A7
:1013B000B8E770B505460CF0ACF8924C10F0FF0F92
:1013C0000CD028460CF0E7F802280ED884F8B404B4
:1013D0000021084600F0CBFC46A0EBE794F8B414DB
:1013E000BDE87040C9A00CF0F1BB70BD2DE9F0471D
:1013F00082460CF08EF8714D060005F1D80529D013
:10140000012E03D19AF800002A2823D0C5A1504606
:101410000CF057F800286AD0401C04460CF0BBF8CA
:1014200081462046FEF780FE8046002606EB8607B2
:1014300005EB870455F827000CF06BF8024655F8C9
:10144000271050460CF08EF8F0B1761C8A2EEDD3A2
:10145000B5A08CE1BCA000F0E8FA002404EB840005
:1014600005EB800755F82010AFF29C300CF0AEFB76
:1014700031463846FFF7D8FBAFF2F84000F0D5FA16
:10148000641C8A2CEAD339E506EB860605EB860751
:10149000F8680CF061F941460CF09AF926D83869E1
:1014A0000CF05AF941460CF09DF91FD839790529FD
:1014B00007D0484606290ED2DFE801F005050808E6
:1014C0000B0B4046F6E7A168087004E0A1680880AD
:1014D00001E0A168086055F82610A1A00CF076FB89
:1014E0002046BDE8F0470021FFF79EBB3EE142E108
:1014F0006C69737400000000456E61626C65642065
:1015000066656174757265733A200000257320006A
:10151000417661696C61626C6520666561747572A3
:1015200065733A2000000000496E76616C696420A2
:1015300066656174757265206E616D652E2E2E0D67
:101540000A00000044697361626C65642000000059
:10155000456E61626C65642000000000456E61624A
:101560006C696E67204750532070617373746872A2
:101570006F7567682E2E2E0D0A0000004572726F7F
:10158000723A20456E61626C6520616E6420706CF9
:10159000756720696E204750532066697273740D19
:1015A0000A000000417661696C61626C6520636FBE
:1015B0006D6D616E64733A0D0A00000060ED000805
:1015C00025730925730D0A0000F900084D75737421
:1015D00020626520616E79206F72646572206F668B
:1015E0002041455452313233340D0A004375727232
:1015F000656E742061737369676E6D656E743A20F1
:10160000000000002804002058EC000843757272A6
:10161000656E74206D697865723A2025730D0A0035
:10162000417661696C61626C65206D697865727381
:101630003A2000004D697865722073657420746FDC
:101640002025730D0A000000E00800205573616733
:10165000653A0D0A6D6F746F7220696E646578204B
:101660005B76616C75655D202D2073686F77205BFC
:101670006F72207365745D206D6F746F7220766178
:101680006C75650D0A0000004E6F2073756368204D
:101690006D6F746F722C207573652061206E756D8F
:1016A000626572205B302C2025645D0D0A0000000D
:1016B000600A00204D6F746F7220256420697320CA
:1016C0007365742061742025640D0A00496E76618B
:1016D0006C6964206D6F746F722076616C75652C17
:1016E00020313030302E2E323030300D0A000000E4
:1016F00053657474696E67206D6F746F7220256412
:1017000020746F2025640D0A00000000437572727A
:10171000656E742070726F66696C653A2025640D81
:101720000A0000003D0000004552523A20556E6B01
:101730006E6F776E207661726961626C65206E6192
:101740006D650D0A0000000043757272656E7420AD
:1017500073657474696E67733A200D0A00000000A7
:1017600025732073657420746F200000B7A0BDE856
:10177000F04700F05AB9002404EB8406514655F8AE
:1017800026000BF09EFE78B155F8261005EB860773
:10179000AFF2C4600CF01AFA00213846FFF744FAA1
:1017A000AFF620000CF012FA641C8A2CE4D36AE62F
:1017B0002DE9F04108F09DFD4FF47A71B0FBF1F195
:1017C000AC480378AC480288ACA00CF0FFF900F0FC
:1017D000F7FC0646B948BA490068B0FBF1F2BA49CD
:1017E000B848096850F82110B8A00CF0EFF9B54FCF
:1017F00000240125B7F1400757F8241051B105FA2C
:1018000004F0304203D0AFF2FC200CF0DFF9641C8E
:10181000E4B2F1E7022000F0C1FC40B1B649A948AA
:101820000978203850F82110B4A00CF0CFF9AFF6A9
:10183000AC0000F0FAF808F094FA0246B2484FF40F
:1018400097630188BDE8F041B0A00CF0BFB92DE965
:10185000FF5FDFF8EC9299F8000040B9012189F8A8
:101860000010B8A000F0E1F8C4A000F0DEF8DFF846
:1018700014B3DFF814A35446DAF800000AF055F95F
:1018800000286FD020680AF053F9092807D03F28B4
:1018900005D0D9F804104C46002950D051E000245E
:1018A000884F2546143707F1D808D9F804600BE0B3
:1018B000D9F8042022B1B34839680BF053FE10B9AF
:1018C00004B93C463D460C374745F1D39CB14946E7
:1018D0005F46486822682B68125C1B5C9A420AD1FA
:1018E0009AB92E2811D220223A54401C0021C9F85E
:1018F00004000BF80010D9F804004F4608B1AC42C0
:1019000014D0A2A000F091F80AE03A54401C4860BC
:10191000DFE7206800F089F8092000F092F80C3425
:10192000AC42F6D995A000F080F800265C467868B5
:101930008642A0D2A05D00F084F8761CF7E7042868
:1019400011D00C2815D019B10A2816D00D2814D0A2
:101950007F283ED030298ED220288CD37E288AD86A
:10196000B1B345E04CE004B08648BDE8F05FFFF756
:10197000DABA88A000F059F828E0AFF6F81000F0C5
:1019800054F8606800254F490BF800508448CDE9B1
:10199000000B5E460C2312221431029501A80BF0B5
:1019A0003DFD070007D038680BF0B3FD3044B9683F
:1019B000401C884702E07BA000F037F830217148D6
:1019C0000BF068FD65602078002819D06BA00AE054
:1019D0000CE000293FF44FAF491E0020C9F8041065
:1019E0000BF8010078A000F020F844E72028FCD094
:1019F0000BF80100491CC9F8041000F022F83AE77E
:101A0000BDE8FF9F30B514460546A04204D3B5FBA0
:101A1000F4F0FFF7F7FF0146B5FBF4F004FB1050BC
:101A20006AA2105C0870481C30BD70B50446564D63
:101A300003E0641C28680AF069F821780029F8D1CD
:101A400070BD0146504800680AF060B84552523AED
:101A50002056616C75652061737369676E6D656E84
:101A600074206F7574206F662072616E67650D0A51
:101A70000000000094010020F800002053797374E6
:101A8000656D20557074696D653A20256420736515
:101A9000636F6E64732C20566F6C746167653A20B7
:101AA0002564202A20302E315620282564532062B8
:101AB000617474657279290D0A000000C00300206A
:101AC00040420F004CED0008C800002048617264DD
:101AD000776172653A20257320402025644D487A4D
:101AE0002C2064657465637465642073656E736F20
:101AF00072733A2000000000C001002041434348B7
:101B0000573A202573000000EC0000204379636CF5
:101B1000652054696D653A2025642C2049324320A4
:101B20004572726F72733A2025642C20636F6E6663
:101B300069672073697A653A2025640D0A00000000
:101B4000000000200D0A456E746572696E672043BF
:101B50004C49204D6F64652C207479706520276591
:101B60007869742720746F2072657475726E2C20EA
:101B70006F72202768656C70270D0A000D0A2320FC
:101B800000000000F8030020100A00200D1B5B4B32
:101B9000000000001B5B324A1B5B313B31480000F8
:101BA000F50200084552523A20556E6B6E6F776E03
:101BB00020636F6D6D616E642C20747279202768CC
:101BC000656C7027000000000820080030313233B7
:101BD0003435363738394142434445464748494A07
:101BE0004B4C4D4E4F505152535455565758595ACD
:101BF0000000000070472DE9F04105460446FE4E06
:101C0000FE4F09E0FC480BF07AFC20B1611B801B01
:101C1000384480F88211641C21780029F2D1BDE893
:101C2000F081F748002102784B2A13D14288B2F59F
:101C3000976F0FD10279BE2A0CD190F8B624EF2A03
:101C400008D100F5976200BF10F8013B594090425F
:101C5000FAD309B1002070470120704710B5FFF793
:101C6000E0FF10B90A2008F0F6FB4FF49762E44950
:101C7000E2480BF0F6FBE14890F8B414022902D9CF
:101C8000002180F8B414C9B200EB0121BDE8104076
:101C90004FF48072DB4801F5DA710BF0E2BB2DE9FD
:101CA000F05FD84AD84E002092F8201092F81F40DA
:101CB00040F6C41500FB00F3193B4B4303F6C41375
:101CC0004343634393FBF5F326F81030401CC0B246
:101CD0000728EFD3C94B914692F8212099F822406A
:101CE000B3F84211B3F840710020DFF820A34FF0A1
:101CF0000A0B4FF47A7EC4F1640802EB820CCD1B10
:101D000000EB8001C2EB41030121002B03DDC2F196
:101D10006401C9B201E000DA114603FB03F604FBDB
:101D200006F601FB01F196FBF1F1414401FB03F1E1
:101D300091FBFBF101EB4C0109B205FB01F191FBB9
:101D4000FEF139442AF8101000F10100C0B20C284D
:101D5000D6D399F8000002F0F7FABDE8F05F04F07E
:101D60003BBD10B5FFF77AFFBDE8104097E72DE9BE
:101D7000F047A24C81464B2020704FF49765658058
:101D8000BE2000262071EF2084F8B60484F8B764E2
:101D900051B194F8B4044FF4807204EB00209949D7
:101DA00000F5DA700BF05DFB9448964903E000BF44
:101DB00010F8012B56408842FAD384F8B7640BF030
:101DC000DFF9DFF84CA28E4F0326A84634200BF033
:101DD00045FA38460BF002FA50460BF0FFF90025A1
:101DE00006E06159E8190BF015FA2D1D454502D2A0
:101DF0000428F6D001E0042804D0761EE6D10BF0CA
:101E0000C5F904E00BF0C2F9FFF70BFF10B90A2087
:101E100008F021FBFFF7A5FFB9F1000F06D0BDE8E0
:101E2000F047012214210F2001F02ABEBDE8F087FF
:101E300072498A6802438A6070477049002088604E
:101E400070472DE9FC5F73A1D1E90001CDE90001E4
:101E50004FF4976169480BF01DFB4FF4807169489E
:101E60000BF018FB654B4B200025187003205871B0
:101E700002209D60FFF7DCFF83F8B4544FF4167026
:101E8000A3F86201FA20A3F864012A20A3F86001F4
:101E9000A3F86A51A3F86C51A3F86E5183F853511B
:101EA00083F8545183F85551A3F85651A3F858516B
:101EB000A3F85A5183F85D5183F85E514FF4FA70DC
:101EC000A3F86801012683F85C61202083F866018D
:101ED0004FF4C870A3F878016E2083F87D012B20A1
:101EE00083F87E01212083F87F01232083F880017D
:101EF00083F8815183F88A5183F88B5183F8AE516E
:101F000083F8AF5183F8B05140F2DC50A3F88E0152
:101F100040F24C40A3F8900140F26C70A3F892019B
:101F200083F8945183F8956183F8966140F27E407E
:101F3000A3F8400140F23A70A3F842014FF47A70DE
:101F4000A3F8440140F27E50A3F8460140F2EA5063
:101F5000A3F8480140F2B450A3F84A013220A3F894
:101F60004C01C100A3F84E11A3F85001052183F8DC
:101F7000761183F89E5183F89F514FF4E131C3F8F5
:101F8000A4114FF41651C3F8A81183F8AC5183F88B
:101F9000AD5140F6AC5199819D7383F8975140F64D
:101FA000FF71184CA3F89A112827257067704FF01D
:101FB0001E0884F80B8017226275A77084F80C80C5
:101FC000A2755521E1702D216173E5752071A5730E
:101FD00025760B226271E57365764FF0140984F85B
:101FE000069008222274A1760E22E27184F81190E4
:101FF0005022E2765A2211E000F90008280400205D
:1020000000F80108E0080020680C0020760C002091
:1020100000FC01081E1E64646464646422724FF054
:102020000A0A84F812A04FF0640B84F81CB067729F
:102030007823A3722175A677E277412184F82010D6
:1020400084F8255084F8265040F2DC51218584F82C
:10205000210084F82250A585E58584F830506585F7
:10206000042084F8310084F8327084F8337015202D
:1020700084F834005C48A0635C48E0635C482064FA
:102080005C48606484F84860192084F849005AA0CC
:10209000FFF7B1FD84F87A5084F87B5084F87C70A7
:1020A00084F87D6084F880504FF44870A4F87E0076
:1020B000C82584F8D2A084F8D3504FF49660A4F8D1
:1020C000D40040F2D930A4F8D6004E4800216C4626
:1020D00040F2DC534FF47F764FF4FA6701EB810254
:1020E00000EB420222F8826F5780938014F801C0FF
:1020F000491C82F806C00829F0DB012100F8D81F2E
:1021000041708170858080F8069080F807800172A8
:10211000A0F80AB04FF4967181812821C181A0F8FE
:1021200010900F2141828182C18240F26C71018343
:10213000438340F2145181830821C1834FF07E51C3
:10214000314D0162522085F8B50400204FEA0001AC
:1021500005EB0012401C11610C28F9DB00244FF440
:10216000807600BF05EB04203246264900F5DA7080
:102170000BF077F9641C032CF4DBBDE8FC9F10B571
:102180000446FFF74EFD641E204206D1FFF759FEBC
:102190000021BDE810400846E9E510BD1B4909686B
:1021A000014201D0012070470020704717490A689A
:1021B00002430A60704715490A6882430A60704703
:1021C00012480068704710498968014201D0012017
:1021D0007047002070470C498A6882438A607047C4
:1021E00009488068704700009A99193FF6287C3F9B
:1021F0003D0A773F0000A04041455452313233340C
:1022000000000000E0080020280400200800002052
:1022100070B5F84D95F8490044350BF0A6FAF6492B
:102220000BF01EFA0CF074F8F44E044630880BF0F4
:102230009CFA21460BF014FA0CF028F9F04C60805F
:1022400030880BF092FA0146EE480BF03BFAEE496B
:102250000BF038FAE066688F0BF087FA0146EB481E
:102260000BF030FAEA490BF0FBF92067E9492868DE
:102270000BF0F6F901464FF07C500BF023FA606743
:102280000820FFF78BFF002803D0BDE8704003F063
:1022900035B970BD002801DD024600E042428A42A5
:1022A00001DA00207047002802DDA0EB0100704732
:1022B000FDDA084470472DE9F04F91B0D0E90045B0
:1022C000814686680F4608680CF022F8049038684A
:1022D0000CF0E8FB059078680CF01AF883467868F3
:1022E0000CF0E0FB8046B8680CF012F88246B86843
:1022F0000CF0D8FB0746504604990BF0B1F9099051
:10230000384604990BF0ACF90890514605980BF04B
:10231000A7F90790394605980BF0A2F9069059469F
:1023200050460BF09DF910908BF0004039460BF0B1
:1023300097F90746414607980BF092F908990BF078
:1023400037F90390414606980BF08AF909990BF08A
:1023500084F982460598594680F000400BF080F9D8
:102360000590414609980BF07BF906990BF075F939
:102370000290414608980BF073F907990BF018F991
:102380000690584604990BF06BF983463046029943
:102390000BF066F90090284603990BF061F9019063
:1023A000204610990BF05CF901990BF001F90099A6
:1023B0000BF0FEF8C9F80000304606990BF050F912
:1023C0000090514628460BF04BF98246394620468C
:1023D0000BF046F951460BF0EBF800990BF0E8F8DA
:1023E000C9F80400594630460BF03AF9064628462B
:1023F00005990BF035F90546414620460BF030F9BA
:1024000029460BF0D5F831460BF0D2F8C9F8080090
:1024100011B0BDE8F08F2DE9F04387B080460BF096
:10242000A4F97D490BF01CF9054675489830016800
:1024300081F000410391406880F0004004907748AB
:10244000B0F900000BF088F975490BF009F96C4CF4
:1024500005908A34B4F900000BF07EF90090B4F9CD
:1024600002000BF079F90190B4F904000BF074F953
:10247000029003A96846FFF71EFF5E4E8A3C96F85D
:102480004800012804D05D4800880BF06EF917E081
:10249000644840780028E06B0CD1C11700EB9161D3
:1024A000A0EBA1100BF058F902990BF081F80BF09A
:1024B00061F9E063C11700EB916080110BF04CF9FA
:1024C00002990BF0CAF80290216C89460BF0C2F811
:1024D00007462946606F0BF06BF8014628460BF063
:1024E000F1F839460BF0BCF849460BF061F820646E
:1024F00000980BF0CBFF96F833103236FFF7CAFE88
:10250000494D29680844286001980BF0BFFF717895
:10251000FFF7C0FE696808446860206C0BF0B6FFE6
:102520003178FFF7B7FEA9680844A860A16801EBFD
:102530000800A060E068401CE06007B0BDE8F083E0
:102540002DE9F05F2E4D0446983528680BF0E0FE2B
:10255000834628680CF0A6FA824668680BF0D8FE1D
:10256000814668680CF09EFA0546D4F80880294632
:1025700040460BF075F859460BF072F8676806464E
:10258000514638460BF06CF829460BF069F80546C1
:10259000494620680BF064F829460BF009F83146EB
:1025A0000BF006F80446514640460BF059F8054634
:1025B000594638460BF054F829460BF04BF82146A3
:1025C0000BF078FD19490BF04BF812490BF07AF833
:1025D0000B49496B0AF0ECFF15490BF073F80BF04F
:1025E00055FF00B2002802DA00F5B47000B2BDE871
:1025F000F09F0000E008002035FA8E3CC801002062
:102600000C0000200AE81C4100401C460000614408
:102610004C3D0F44DB0F4940BD378635F8010020A3
:1026200035FA8EBC300C0020F80900200000E1448F
:10263000000020412DE9F041044680680D46014626
:102640000BF00EF80746606801460BF009F80646E5
:10265000206801460BF004F831460AF0A9FF39461C
:102660000AF0A6FF0CF0E2FA064610F0FF4F0ED07B
:10267000314620680BF026F82860314660680BF080
:1026800021F868603146A0680BF01CF8A860BDE82E
:10269000F0812DE9F04F87B0002607F010FEDFF83B
:1026A00008B405465C46DBF84400281A03900BF09A
:1026B0005CF8FE49C9680AF0D3FF0590DFF8F0A383
:1026C000656400249AF831700BF18A054FF07E584A
:1026D000F5487E3030F914000BF03EF805990AF009
:1026E000BFFF4DF8240027B338460BF03EF80146F3
:1026F00040460AF0E7FF81460490EB48843030F909
:1027000014000BF029F849460AF0AAFF8146414619
:1027100004980AF0A2FFE74951F824100AF0A0FF3C
:1027200049460AF045FFE34941F824000BF022F83E
:1027300003E0DD48843030F8140025F8140035F942
:102740001400641C00FB0066032CC1DB64204643BC
:10275000D94869460088404396FBF0F4D5481830C4
:10276000FFF7A9FDD34EA0B2183649383C2826D22F
:10277000D2480024A946B0F862010AF0F6FF4546A7
:10278000414604900AF014FF014628460AF09AFFD9
:102790004FEA000539F914000AF0DEFF074656F843
:1027A000241004980AF05CFF39460AF001FF29461C
:1027B0000AF056FF46F82400641C032CEADB5D4651
:1027C000BBF902000AF0C8FF3446B1680BF000F80C
:1027D00001D2012000E00020B949A1464873D4E9A4
:1027E00001010BF067FCB04E98363060A0680146DE
:1027F0000AF036FF0746606801460AF031FF3946A5
:102800000AF0D6FE0CF012FA0146206880F0004073
:102810000BF050FCAB4F7060394630680AF020FF77
:102820000BF034FEA6F160043946208070680AF08F
:1028300017FF0BF02BFE60800820FFF7AFFCDFF8DE
:1028400088B2002869465CD09A480C38FFF733FDFF
:102850009A48984F002446460C3FB0F864010AF0AD
:1028600084FF314604900AF0A3FE014630460AF088
:1028700029FF06468C48903030F914000AF06CFFAE
:10288000804657F8241004980AF0EAFE41460AF000
:102890008FFE31460AF0E4FE47F82400641C032C46
:1028A000E8DB8448B0F10C00FFF74AFEABF800000B
:1028B0000398FFF7B0FD9AF88000564600284AD0EA
:1028C000D9F808004C4601460AF0CAFE8046606806
:1028D00001460AF0C5FE0746206801460AF0C0FE20
:1028E00039460AF065FE41460AF062FE0CF09EF998
:1028F0000146A0680AF0E6FE744988420DDC00201B
:1029000028E06948A030FFF7D6FC6749A0310846A7
:10291000FFF790FE6448A030C6E70BF03DFB296F3F
:102920000AF09EFE0BF0B2FD4FF46171884200DDAB
:1029300008460AF011FF66490AF0C4FE0CF0B2F82E
:10294000044696F880000AF010FF21460AF088FE3F
:102950000BF09CFDA88007B05BE510B502F0C5FD4B
:102960000220FFF71BFC20B102F0EDFCFFF791FE07
:1029700005E04D49002084310880488088804F4818
:10298000494942797E31881F012A06D08A8882808F
:102990000A8802804988418010BD434BB1F9042068
:1029A000B3F9064002EB4402032492FBF4F2828066
:1029B000DA80EDE73F4900200C310860486088600C
:1029C0003949C860886070472DE9FE4F07F077FCF1
:1029D000024635483830B0F90010002901DD0B46B9
:1029E00000E04B42B0F90200002801DD044600E09F
:1029F0004442A34205DD002901DD084604E04842C7
:102A000002E0002800DC4042274C05B246F2A81143
:102A1000A06CA2EB0009894502D20020BDE8FE8F20
:102A20002C4EA264DFF8B0A03088DFF8B0B0204FA1
:102A30004FF07E5840B3206E2269C11700EB5171F0
:102A4000A0EBE10097F83410491EB2FBF1F1084405
:102A5000C117206600EB5170C0100AF07DFE514690
:102A60000AF030FE59460BF02BFD41460AF0F5FD09
:102A70001B490AF0F5FD0AF07DFEE06500202065A7
:102A800060653088401E3080094F216997F8340016
:102A9000401EB1FBF0F00AF068FE51460AF012FE4B
:102AA00059460BF00DFD1DE00C000020700E0020BB
:102AB000E0080020EC090020C801002028040020C4
:102AC000300C00204C3D0F44F80100208FC2753CB3
:102AD000EFB6B044F601002080E6C547B1DC423EC7
:102AE000D048874A4FF07E5841460AF0B6FDAD49BE
:102AF0000AF0B6FD0BF0CAFCE16DBF6B461A394611
:102B000040460AF0A7FD804630460AF025FE4146C1
:102B10000AF0A6FD064660690AF01EFE39460AF074
:102B20009FFD31460AF044FD0BF0B0FC06464FF025
:102B3000FF3B6061FA2D01DD584613E028460AF09C
:102B40000BFEDFF8648241460AF087FD0746206AE3
:102B50000AF002FE39460AF083FD41460AF0B2FD52
:102B60000AF008FEA0F1010807462062B8F1C70F7D
:102B700003D2F01B6761E06126E0E069361A666106
:102B8000002F21DDC7F596700AF0E6FD87490AF0AF
:102B900099FD8246A06151464FF07E500AF05AFDE1
:102BA000009030460AF0D8FD00990AF059FD06461B
:102BB00038460AF0D1FD51460AF052FD31460AF07E
:102BC000F7FC0AF0D7FD6061A0680AF0CEFD074669
:102BD00077490AF045FD0646E0680AF0BDFD8246E9
:102BE000744880680AF0B8FD51460AF06BFD8246D1
:102BF000E16E0AF035FD39460AF032FD0090206D95
:102C0000314601900AF02CFD0746594600980AF01B
:102C100097FD31460AF024FD39460AF0C9FC616D82
:102C20000AF0C6FC83466448076C4FF07E50394674
:102C30000AF010FD0646606902900AF08DFD3146EB
:102C40000AF00EFD0646394658460AF009FD31469F
:102C50000AF0AEFC6065B8F1C70F01D2029801E03E
:102C60000AF088FD6066DDE900100AF0A1FC20652D
:102C7000FFF7A0FE48460AF078FD07466669A06D9A
:102C8000301A0AF069FD4D490AF0EAFC39460AF0AB
:102C900019FD0AF06FFD40F2DC525142A66505F0C5
:102CA000BBF80A21FFF7F6FA434E81464FF07E50FB
:102CB000D6F83C8041460AF0CDFC074648460AF06B
:102CC0004BFD39460AF0CCFC07464146206D0AF020
:102CD000C7FC39460AF06CFC20650BF0D7FB0746B1
:102CE0000521FFF7D7FA2063B5F5487F57DA20783A
:102CF0004FF49678C8F10009C8B3A06A4246C51BD4
:102D0000B07A6843C11700EBD1604011494605F025
:102D100083F86062307DE16A294A00FB0510514268
:102D2000E06205F079F842F20401E06290FBF1F014
:102D3000616A084460625046E16C0AF039FC05465D
:102D4000B07F0AF012FD29460AF08AFC6FF00801F4
:102D50000AF0F6FC0AF00EFD9622514205F05CF8EE
:102D6000616A081AC4F84CA06062012056E6FFE7C9
:102D7000D4E91910401A4FF4FA72514205F04CF898
:102D80000A21FFF787FA0146307942464843C117C6
:102D900000EB5160C011494605F03EF8AEE7002057
:102DA000E0E70000D048874A000061440000C842C4
:102DB000BD378635F8090020E0080020002474495A
:102DC0002003190070B5D84D0446286808F0B6FEF7
:102DD0000028FAD0E1B2286808F098FE204670BDBD
:102DE00088B0FEF707FF0020FFF7C9F9FEF736FFAE
:102DF000CE4CA07B00B1012009F0CFFACC48CD49E0
:102E0000CD4D00680126884201D12E6004E0CB49F7
:102E1000884201D10220286007F083FA0820FFF7DA
:102E2000D2F930B194F88A0108B1012801D104F037
:102E3000C0FE642007F004FBFEF731FF08F066FADD
:102E4000022802D1286802281ED02868032802D050
:102E5000012006F07DFD94F88101002528B10128AC
:102E600015D0092813D0052811D08DF8185084F8F2
:102E7000815100BF94F8980198B101280AD009281F
:102E800008D0052806D00CE003202860E3E78DF881
:102E90001800EFE794F88111884202D08DF81900EC
:102EA00003E08DF8195084F8985106A806F02CF923
:102EB0000220FFF788F908B102F01AF904F0B4FF14
:102EC0000E20FFF773F901F0BBFF10B9032007F0E4
:102ED000C2FA9B494FF0100AC1F800A0A1F1040802
:102EE0004FF00809C8F800900027A8F1040B00BFB4
:102EF000DBF8001081F01001CBF80010DBF80010B7
:102F000081F00801CBF80010192007F099FA012090
:102F100007F0F2F9192007F093FA002007F0ECF916
:102F20007F1CFFB20A2FE3D34F46C8F80090C8F8C1
:102F300000A0FFF76DF900F072F9D4F8A40102F0D7
:102F400086FC60790E280BD0082809D0182807D0F5
:102F50008DF806504FF48070FFF735F938B902E06C
:102F60008DF80660F6E70820FFF72DF900B1012083
:102F70008DF802004020FFF726F98DF803000120AC
:102F8000FFF721F98DF801000820FFF71CF9DFF8A1
:102F9000988180F001008DF80000DFF8A89198F882
:102FA00015008DF8040099F8DA004FF47A7AC0F32E
:102FB00080008DF80500B4F84E01ADF80A00B4F8B1
:102FC0005001ADF80C0094F852018DF80700ADF8EF
:102FD0000EA04FF48040FFF7F6F818B1B4F84A019C
:102FE000ADF80E00BDF80A00B0F5FA7F01D9ADF8D2
:102FF0000E504FF48030FFF7E6F88DF814004FF4D0
:103000000030FFF7E0F88DF81500B4F88E01ADF848
:103010001000B9F8D600ADF8120094F8810101282B
:1030200026D0092827D08DF80850684607F00AF8FE
:103030009DF8160088F81600434B002040F2DE523F
:1030400023F81020401CC0B21228F9D340483F4A50
:10305000026088F814700820FFF7B5F810B394F8F0
:103060008A0106281ED2DFE800F00A0A0E12161A9C
:103070008DF80860D9E707208DF80800D5E73448B7
:1030800004F06FFD0EE0324805F041F80AE03048E8
:1030900005F0F4F806E02E4805F0F7FC02E02C48B5
:1030A00005F0CCFF94F89F0103F0F9FB0120FFF736
:1030B0008AF830B14FF48060FFF785F808B102F06C
:1030C000AAFA4020FFF77FF848B194F8AC11D4F881
:1030D000A80108F039FC94F8AD0108F048FC4FF461
:1030E0000060FFF770F808B105F05CFB07F0E7F847
:1030F000184908606079052803D117494FF4C87052
:1031000008801649C820A1F800A015490880154874
:1031100080F80D6001F020F9FCE70448B0F94401A3
:1031200000F02AFAFEE70000100A00202804002020
:10313000C403002000127A00C8000020001BB70062
:10314000140C0140E0080020440C0020E93E000877
:103150001801002014010020C4010020C601002035
:10316000F6010020300C0020014600EB8102FA48F5
:1031700000EB4200B0F98600122804DA082902DACE
:10318000F64931F910007047F34A00EB800002EB7A
:1031900040000122B0F88A008A40104202D04FF06D
:1031A000FF3070470120704770B5ED4C0020702152
:1031B0006070EC480AF06EF9EA4DEB49002000BF60
:1031C000C0EBC0035A1892F8D260002E0ED02B44E8
:1031D00052F8D06F1E6096889E8092799A716278BC
:1031E000401C521CC0B262701028E9D370BD2DE99A
:1031F000F041DC4E0024DC4D4FF48047D83E384689
:10320000FEF7E1FF10B1B5F84A0101E0B5F844015D
:1032100026F81400641C0C2CF1DBBDE8F0812DE9CC
:10322000F05FD14DD14E687906EBC000407808B10F
:10323000012100E00021DFF838A320208AF81510D2
:10324000FEF7C1FF20B94FF48020FEF7BCFF10B19C
:1032500001208AF815006979DFF80893C04CA9F1BC
:10326000C00917290AD016F8312006EBC1002270D8
:1032700040685FEA000B24D0002020E00020C84610
:1032800005EB0012136913F0FF4F1AD0143208EB4C
:10329000001692E8841008C6401C86E88410227844
:1032A000521C22700C28EBDB0BE000BF0BEB00166E
:1032B00009EB001396E8C01183E8C011401C90424E
:1032C000F4DB9AF81500E0B1A848C83010F83120B6
:1032D00000EBC1006270416899B10020A14E0EE080
:1032E000C0EBC003CF183344D7F800C0C3F800C008
:1032F000B7F804C0A3F804C0BF799F71401C904286
:10330000EEDB4FF48040FEF75EFFD8B12778012F47
:1033100018D9002614E000BF09EB06144FF0FF385F
:103320004146A0680AF00CFAA060414660680AF0C5
:1033300007FA60604146E0680AF002FA761CE06035
:10334000BE42E9DB68798B4908280DD00E280BD0E6
:10335000182809D0002008749AF8150008B1FFF762
:1033600023FFBDE8F05F42E70120F4E770B50022DB
:103370007D49144610F10100C2EBC2030B44521CFC
:1033800083F8D64083F8D24083F8D14083F8D04008
:10339000102AF1DB754B0022C83303EBC00413F88D
:1033A00030000CE0C2EBC2036568521C1D440B44A4
:1033B0002E6843F8D06FAE889E80AD799D719042A3
:1033C000F0DC70BDF0B50021674A0B4610F101003A
:1033D00002EB0114491C23610C29F9DB634B03EB5D
:1033E000C0014C68002C0FD0002113F8300009E018
:1033F00004EB011302EB011593E8C8101035491CCA
:1034000085E8C8108842F3DCF0BD2DE9F04158484A
:10341000417D00296BD0504E96F8DA1049070DD542
:10342000857D00244D4F2D1F07EB44000189601955
:10343000C0B206F0C1FE641C042CF5DB4A48484CBF
:103440004079A41C0E282ED008DC012811D00428B5
:103450001DD0052866D0082806D11EE0142816D0F5
:10346000152820D018282DD02020FEF7ACFEE8BB70
:1034700052E096F8D90008B1618904E03D484078EF
:103480000028F9D10021002042E0012040E02189FC
:10349000002006F091FE6189F7E7E188002006F040
:1034A0008BFE2189F1E7E188002006F085FE218965
:1034B000012006F081FE6189022006F07DFEA189CF
:1034C000032025E0E188002006F076FE2189012016
:1034D00006F072FE6189022006F06EFEA1890320CB
:1034E00006F06AFE0120FEF76EFE01E01AE01FE022
:1034F00000281DD02188042006F05EFE618805208A
:1035000006F05AFEA188062006F056FEE189072043
:10351000BDE8F04106F050BE4FF48020FEF753FEA8
:10352000002805D02188002006F046FE6188ACE71F
:1035300073E670B50B4E0024F03E094D07E000BF66
:1035400036F81410204606F030FE641CE4B22878E9
:103550008442F5D370BD0000E0080020440C002038
:10356000CC000020380B002028040020DCFD0008DF
:10357000100A0020300C0020FE4A0021FE4B127879
:1035800004E000BF23F81100491CC9B29142F9D3ED
:10359000CFE72DE9F04FF94891B0807A08B1F848AB
:1035A00000E0F848DFF8D093DFF8C8830188ADF871
:1035B00014104188ADF816108088ADF81800EE4858
:1035C000F149A9F120090088ADF81A00EF480A89ED
:1035D000B0F88E01121AADF81C204A89121AADF803
:1035E0001E208A89121AADF82020CA89121AADF855
:1035F00022200A88121AADF824204A88121AADF83F
:1036000026208A88121AADF82820C988081AADF831
:103610002A0000248FE000BFD748C4EBC401F0307B
:103620000E18B2791AB1DA4BD25C002A7ED0455C12
:10363000D84805EB850196F801A000EB4100049005
:10364000B0F88410B0F8820096F90420081A80B20D
:103650004243642192FBF1F2A2EB500212B20392B8
:1036600096F90520424392FBF1F1A1EB500000B224
:103670000B90F07870B105A939F9142031F91A10BE
:103680004F468A420CDA02EB000310460A46014616
:10369000184608E005A830F81A1029F8141006E0BA
:1036A00005DDA2EB000004F0B7FB27F81400B14FD2
:1036B00039F914B0BF1C96F902000AF04DF8B6496A
:1036C0000AF000F8064658460AF046F8314609F076
:1036D000C7FF0AF04FF806B2049890F988000AF084
:1036E0003BF8AD4909F0EEFF834630460AF034F866
:1036F000594609F0B5FF0AF03DF800B227F8150069
:103700000B9A039904F088FB27F8150051462846C8
:10371000FFF73AFD37F81510484327F81500204603
:10372000FFF722FD37F81510084400E001E027F804
:103730001500641CE4B298F801008442FFF46CAFF9
:1037400011B0BDE8F08F2DE9F84F8A4CDFF830A2B8
:103750002078032815D9BAF904004142002801DD78
:10376000024600E00A4602F1640200DC0846854D8C
:103770006FF06301A1EB0001B5F9040004F04CFB0C
:10378000A8807C48DFF80C827B4F0678012E3AD95E
:10379000002436E0DFF8EC9198F9D800B9F904106C
:1037A0004042484309F0D8FF7349303101EB04151A
:1037B000E96809F055FF8346B9F9000009F0CCFF2C
:1037C000696809F04DFF0090B9F9020009F0C4FFE3
:1037D000A96809F045FF8146BAF9060009F0BCFF67
:1037E000296809F03DFF494609F0E2FE009909F019
:1037F000DFFE594609F0DCFE09F0BCFF27F8140093
:10380000641CB442C6D3DFF87491604D99F810007F
:1038100058B199F80100F8B1B5F84221B5F8401156
:10382000BAF9060004F0F8FA3880DFF870B1514CAC
:103830009BF81500A41C40B100231846FFF794FC28
:1038400024F813005B1C082BF7DBAA466879544E5A
:103850003225052803D01BE0B5F84401E4E798F9C8
:103860008800B6F90210C446484390FBF5F30020E7
:10387000FFF77AFC184420809CF99210B6F90000FA
:10388000414391FBF5F30120FFF76EFC1844608083
:103890002020FEF798FC90B33D481438007A70B3AE
:1038A00098F8DA10890798F9881016D5B6F9022029
:1038B00098F99200B6F9003049425143584391FBC0
:1038C000F5F290FBF5F391FBF5F190FBF5F0D31ACF
:1038D00022880844D21A22800EE0B6F90220514311
:1038E00091FBF5F122881144218098F99200B6F9F4
:1038F0000010484390FBF5F06188084460809BF815
:10390000150008B1FFF745FE0025464605EB85008A
:1039100006EB4000B0F98420B0F9821034F91500AC
:1039200004F07AFA24F815006D1C082DEED3114925
:10393000B7F9005001200B78B84605E038F910209F
:10394000AA4200DD1546401C9842F7D300278B465B
:103950008BE000BFBAF84201A84208DA99F81010CB
:1039600029B938F81720281A101A28F817004FF428
:10397000804017E0CC000020480A0020300C0020D6
:103980008001002068010020440C00202804002051
:10399000A20C0020E00800200000C842100A00200D
:1039A00044000020FEF70FFC88B33348B0F906202E
:1039B000BAF88E01824212DDBAF84221BAF84811F3
:1039C00038F9170004F028FA28F817009AF80500CB
:1039D00001283ED1B6F9B620B6F9B41011E0BAF814
:1039E0004621BAF8441138F9170004F015FA28F8FE
:1039F00017009AF8050001282BD1B6F9B420B6F9C2
:103A0000B610B4F90A0004F007FA608121E0FFE77C
:103A1000BAF84221BAF8401138F9170004F0FCF95D
:103A200028F817001448BAF89011B0F90600884237
:103A300013DA1020FEF7C7FB38B1BAF8441128F8A2
:103A40001710012189F8111003E0BAF8401128F885
:103A5000171099F8010010B106E00021F2E70748BD
:103A600030F8170028F817007F1C9BF800008742E9
:103A7000FFF470AFBDE8F88F440C0020600A00200E
:103A80002DE9F0471746894606460025DFF81C84D5
:103A90001AE0002411E000BFD8F8001081F00801FE
:103AA000C8F80010012006F027FC484606F0C8FCC4
:103AB000002006F021FC641CE4B2B442ECD33C20AC
:103AC00006F0BEFC6D1CEDB2BD42E2D3BDE8F0874E
:103AD0002DE9F84FF64AF74CB2F90630218D8B42AA
:103AE00001DA64250DE0F348B3F5FA6F90F826008B
:103AF00005DA5D1A4543C1F5FA6095FBF0F0C0F1B7
:103B00006405DFF8B4E3A14694F87AB094F87BA09A
:103B1000BEF88E410021E64840F2E63C30F91160E3
:103B2000301B00F2F317674503D8002803DCA01B05
:103B300001E04FF4FA70022935D0BBF1000F05D037
:103B4000834502DAA0EB0B0000E00020642290FB2A
:103B5000F2F2D74F6FF01808243707EB420C37F911
:103B60001270BCF902C002FB08F2ACEB070C00EBD0
:103B700082020CFB02FC64229CFBF2F23A44CF4F1F
:103B800027F8112009EB010292F8232042434FF459
:103B9000FA7092FBF0F0C0F1640080B268436422D6
:103BA00090FBF2F01CE0BAF1000F05D0824502DA7A
:103BB000A0EB0A0000E000209EF95C21DFF8FCC2C7
:103BC00052424243ACF8042099F82520002800DC3A
:103BD000404242434FF4FA7092FBF0F0C0F16400AF
:103BE00009EB0107642297F801C0DFF8D0820CFBD3
:103BF00000FC9CFBF2FCA8F17C0808F801C097F8D7
:103C00000BC008F103080CFB00FC9CFBF2FC08F85D
:103C100001C07F7D474397FBF2F008F10302A64203
:103C2000505405DAA54830F81120524220F81120EE
:103C3000491C0329FFF66FAFF1467446BEF8901198
:103C400018464FF4FA6204F0E7F8B4F890114FF414
:103C50007A72401A5043C1F5FA61B0FBF1F1642267
:103C600091FBF2F0924B6FF01805323303EB4004F6
:103C700033F910306843B4F9024001EB8000E41AD4
:103C8000444394FBF2F08D4E894D1844143DF0806E
:103C9000687AA6F1A004E0B38948B4F91610B0F927
:103CA0000000401A09F058FD864909F0D9FC864900
:103CB00009F008FD07460AF02BFB009038460AF091
:103CC000F1FE8346B6F9000009F046FD82465946EA
:103CD00009F0C6FC0746B6F9020009F03DFD804632
:103CE000009909F0BDFC394609F062FC09F042FD7B
:103CF00007464046594609F0B3FC804650460099B5
:103D000009F0AEFC414609F0A5FC09F033FD308016
:103D100077800220FEF757FA0026E8B3A189206DCC
:103D2000084420656079401CC0B20621B0FBF1F266
:103D3000607101FB120080BBA06CC11700EB5171D8
:103D4000A0EBE100A064002005F064FAA16C084437
:103D5000C117A06400EB5170C0F3CF0001F09DF9D2
:103D6000208399F88101C0B1E06CC11700EB51715B
:103D7000A0EBE100E064022005F04CFAE16C08449D
:103D8000C117E06400EB5170C0F3CF0001F09DF962
:103D9000E066216D484301E01FE012E04FF47A71C4
:103DA00090FBF1F0454AC117203AD2E90637C01816
:103DB0007941C2E90601454A002309F0F3FA266574
:103DC0002067208B618C884201D8012003E0218C80
:103DD000884202D8022003F053FF03F0DCFF3C4886
:103DE000324F008818B10220FEF7D8F910B93948CF
:103DF000008820B1386880F0080038600CE0A978AD
:103E0000082011B12949091D0860697811B12749B5
:103E10000831086004F0ABFC8020FEF7D4F948B10B
:103E2000616D206B411A05D44CF250310844606535
:103E300006F046FE616C206B411A03D4697B39B1F0
:103E40000120A87002F020FC2348007848B10FE060
:103E5000AE70396881F00801396020490844606417
:103E6000F0E74FF40060FEF7AEF908B104F0B7FCDC
:103E70002020FEF793F968B1A16D206B411A09D497
:103E8000A17A052906D316490844A065386880F050
:103E90001000386013488168002905D001B0074838
:103EA000BDE8F04F86380847BDE8F88F0C0C01409C
:103EB000440C0020E008002028040020800100209D
:103EC000F8010020DB0F494000003443407E05002C
:103ED000C4010020C60100200000002020A107002E
:103EE000F0490200700E0020FE49084490F882015B
:103EF00006F06DB92DE9F0470820FEF764F9FA4E97
:103F0000FA4D4FF0000440B1B16BE0B2884725F89C
:103F10001400641C082CF7DBD8E5F44F40F2DD58A0
:103F20004FF00009903FB16BE0B28847A0F2EE215C
:103F3000414502D3EB48B0F88E01F16D07EBC402A6
:103F4000CB1701EB937323F00303C91A22F8110076
:103F500025F814905FF0000035F8143032F8101096
:103F6000401C194425F814100428F5DB35F9140019
:103F7000C11700EB9170801025F81400641C082C08
:103F8000D1DBF06D401CF065A0E570B5D848D74C8A
:103F9000143C01886078D1B9A178C1B100281ED144
:103FA00001206070D348D04D0088E8824FF48070C3
:103FB000FEF709F930B1E07A20B1A87A052801D3DB
:103FC000072000E00620BDE8704003F059BE00283D
:103FD00005D1BDE870400122FF21022050E570BDEF
:103FE0002DE9FC5F00208346054607460190BE4848
:103FF000A030B0F902104B42002901DD0C4600E070
:104000001C468246B0F900004242002801DD064607
:1040100000E01646B44205DD002901DD084604E053
:10402000184602E0002800DC1046DFF8CC9200249D
:104030000090AE4E143EF07808B93079F0B3022CFF
:1040400040DAA9487C3030F914103AF9140001EB39
:104050004000A449B1F86821514203F0DDFEA749B0
:10406000DFF89CB231F91410411A0BEB4400B0F99F
:104070002C0001EB00089BF80810642001FB08F1FC
:1040800091FBF0F09BF81C1001EB8102494201EB1F
:10409000810103F0C1FE0190934842F2107290300A
:1040A00050F8241001EB0800514203F0B5FE8E4990
:1040B000903141F824009BF8121000E008E04843DA
:1040C0004FEA203BF07818B1307908B9022C4FD173
:1040D0003AF91450854F05EB8500010188489C3F53
:1040E00000EB04084FF47A5298F8010091FBF0F0CD
:1040F00039F91410401A57F824100844514203F0BB
:104100008BFE47F8240039F9140000F52070B0F553
:10411000A06F06D8022C07D1BAF904006430C82871
:1041200002D9002047F8240057F824007D2190FB95
:10413000F1F198F80B00414330798F11B0B1022CA6
:1041400014DA0098009BC0F5FA71019801FB00F2A7
:10415000009801FB0BF105FB00204FF4FA7207FBFE
:10416000031190FBF2F091FBF2F608E0F07820B139
:10417000022C02DA5E46019801E028463E465A4A81
:1041800039F9141024325023125DDFF860814A435C
:1041900092FBF3F2544B821A8233A8F1500833F9A0
:1041A000140023F81410081A08F10C0158F82430F0
:1041B00051F824C041F824309C44844448F8240039
:1041C00049482A30005D00FB0CF0C11700EBD160BC
:1041D0009119A1EB60104449883121F81400641C46
:1041E000032CFFF626AFBDE8FC9F2DE9F05FDFF85A
:1041F000F8B03E4E00240BF1A00BDFF804A19C3E6A
:10420000DFF8E49001E0022C6BD037483BF9141042
:104210007C304FF4FA7230F914000844514203F034
:10422000FBFD3649554631F91410401A0AEB44019A
:10423000B1F92C10084409F08FFA324909F042FA1A
:1042400009F098FA294A143AD178E9B3297A414316
:104250000911AA4628480AEB040730F91400FA7A33
:104260000D1A787856F8241068434FEAE018B9F828
:104270000C006843C01200FB02104FF4001246F815
:104280002400514203F0C8FD46F8240043131748A8
:10429000203850F8241040F82450B9F80C00691A5E
:1042A00002094FF6FF70B0FBF2F048430F4980114E
:1042B000383901F10C0251F8245052F824C042F868
:1042C0002450AC44844400E02EE041F82400787D82
:1042D00000FB0CF0011208EB03000844024988318E
:1042E00012E019E028040020E0000020440C002027
:1042F000C6010020F80100208400002044000020B6
:10430000E00800200000204121F81400641C032C68
:10431000FFF679AFBDE8F09F9AF82500BBF90410CD
:104320001B304843411195E729193BF9143091F8A6
:10433000231012791B3159430911002A89D0AA7C14
:10434000424301EB222184E7F849012801D0F848D3
:1043500000E0F848C86370472DE9F84F4FF00008B7
:10436000C146C34645460820FDF72DFFDFF8C8A328
:10437000B8B19AF88A01062813D2DFE800F00303E7
:1043800006090C0F03F012FC0AE003F0EDFE07E053
:1043900003F084FF04E004F06DFB01E004F05EFE36
:1043A0000546E248E54C4FF00107016B006E4FF007
:1043B0000006081A01D5002D7ED0DC4D44F620629F
:1043C00011442966FFF796FD4FF48040FDF7FBFE90
:1043D00028B1DA485E30007808B900F005FD00F039
:1043E00027FED24988834FF40070FDF7ECFE20B918
:1043F0004FF40040FDF7E7FEF0B3D148CB4D90F805
:10440000D20000EB8001B5F90E00814229DA607814
:1044100038B3CA490020BAF98E21143121F810208E
:10442000401C0328FADBC648B0F8D400C88003203B
:1044300003F026FCC24890F8D21090F8D30008444C
:1044400000EB8001B5F90E00814207DAA07C28B9A3
:1044500000F0CAFC2670042003F012FC298A491CD3
:104460002982B74890F8D20000EB8001B5F90E0020
:10447000814209DA607800E009E028B900F0B4FC74
:104480002670042003F0FCFBE989491CE981BAF895
:104490009051BAF892310020A8494FEA9808143197
:1044A00031F91020AA4201DD48F080089A4201DA71
:1044B00048F04008401C00E0CEE20428ECDB9B4DB5
:1044C000E879804505D1A879FA2803D2401CA87163
:1044D00000E0AE7185F807804FF480484046FDF754
:1044E00072FE68B1954ABAF88E111432BAF84C01CE
:1044F000B2F906200B1A934202DA084490420BDC10
:104500004046FDF760FEF0B98C481430B0F9061053
:10451000BAF89001814216DA88484FF0010B8838CA
:104520000660466086608148903006604660844838
:10453000B0F84A00C8B181485E30007858B12078A0
:1045400098B1FFF722FD7E48B0F84A0068B17B4879
:104550005E30007848B9607838B19AF8950110B9A2
:10456000BBF1000F01D000F03FFCA879142818D14E
:104570006078B8B1DFF8C881B8F84A0020B9E879A6
:104580005F2801D100F030FC9AF89401002808D08F
:10459000B8F84A00002804D1E8797D2801D100F05C
:1045A00023FC8CE0E879572807D00420FDF70BFEA8
:1045B00058B3E8795A2819D027E062494FF47A7045
:1045C00008804FF48070FDF7FEFD08B102F0C7FCD3
:1045D0000420FDF7E3FD10B15B490A2008800820A4
:1045E000FDF7DCFD88B9594806800EE0A87810B1C7
:1045F000AE70EF7023E0687890F00100687001D031
:104600000A2000E00B2003F03BFBE8795D2804D092
:104610005B2804D05E2804D011E0012002E00220D3
:1046200000E003208046401E8AF8B40400210846BA
:10463000FDF79DFB424628210220FFF721FADFF813
:104640000081B8F84A0010B9E9796F290CD09AF8BE
:10465000941119B110B9E8797E2805D0E879972826
:1046600005D0A72808D008E0FFF78FFC05E03849FF
:104670004FF4C870088000E0A773E879BB2806D023
:10468000B72808D0BE280CD0BD280ED017E0B8F847
:104690002E10891C02E0B8F82E10891EA8F82E10E2
:1046A00008E0B8F82C10891C02E0B8F82C10891E1C
:1046B000A8F82C1001210846FDF759FBAE71042023
:1046C000FDF781FD18B36978322079B1617869B15D
:1046D0001A491431B1F90620BAF890118A4205DD61
:1046E00016495E31097809B968826E7013495E31E6
:1046F000497C31B12979AA78114300D168822F71A0
:1047000005E0A87818B1607808B9AE70EF70DFF8EE
:104710002CE000200EF1140E0EEB4001B1F9082040
:1047200040F214518A4215DA012314E0E00000201F
:10473000E13F0008EB41000828040020300C002075
:10474000E0080020C6010020F6010020F80100204A
:10475000C4010020002300EB40018B40A2F2155C55
:10476000BCF5C77F02D84FF0010C01E04FF0000C00
:1047700001F101080CFA08FC43EA0C0340F2A46CB6
:10478000624501DD012200E00022891C8A401343BA
:1047900043EA0903401C1FFA83F90428BCDBFF49E4
:1047A000DFF8FC83002000BF08EB4002B2F84A208B
:1047B00012EA090200D001220A54401C1828F3DB37
:1047C0004878894638B998F8D200B5F90E1000EB50
:1047D000800088421CDA0220FDF7E0FCC0B1E078DE
:1047E00018B9F04806604660E7704FF40040FDF7E6
:1047F000EAFC78B198F8D200B5F90E1000EB800011
:10480000884207DA2020FDF7C9FC18B1A77401E03F
:10481000E670A67499F8021039B1E670217929B9C9
:10482000E0490E604E60277100E0267199F80000A3
:1048300000B92770E178102009B9217909B1DA4966
:1048400001E0D949091F08600420FDF7A7FC00B367
:1048500099F8030078B1A07970B9D448A7710168BC
:10486000D3480160CF481030C088A882D148066084
:10487000D148066000E0A6714FF40050FDF7A3FC9C
:1048800038B199F8040018B1E07B10B9E77300E083
:10489000E6730220FDF782FC18B90820FDF77EFCC4
:1048A000C8B199F80510484639B1617931B9C349A1
:1048B00067710A88C2490A8000E06671817919B17E
:1048C000617A11B9677200E0667299F8070010B159
:1048D000BA480088E8822020FDF760FCF0B3E07A57
:1048E000E8B3A87A052850D399F80A1009B9A17C31
:1048F00089B1E079A0BBA949E77126721E312E72F9
:10490000081F03F04DF802202870A448E98B2630D8
:104910008160E77435E0E67199F80B0050B3A14A65
:104920001032B2F90000002800DC4042B8F8E6106E
:1049300088421FDAB2F90200002800DC40428842B7
:1049400018DA207A60B9974A9448277218322E7282
:104950002630116801605168416002E018E014E0FF
:104960000FE0011D03F01CF88C482F702630E98BF6
:10497000816005E02672287A18B92F7202F0AEFF26
:10498000E6740C2003F07CF902E0E67126722E70CA
:1049900099F80C0008B1A07C48B1A6729AF80500FD
:1049A000082806D00E2804D0182802D02AE0A772C2
:1049B000F4E766724FF40070FDF705FC10B398F849
:1049C000D200B5F90E1000EB4000B1EB400F19DD3D
:1049D000A672E77071490020BAF98E21B1F14A013F
:1049E00021F81020401C0328FADBB8F8D400C88056
:1049F000E07A38B9A87A052804D8A674BAF88E01E6
:104A0000323808801020FDF7DEFB20B3607810B349
:104A1000207C00BB286CBBF1000F1AD068B105F0F8
:104A200068FC296C884204D99AF8760108B100F034
:104A3000DBF9092003F024F94AE005F05AFC9AF862
:104A4000761101EB4102C2EBC11100EBC1002864F9
:104A5000EFE700B12E643BE0524D903DA86E052873
:104A600036D2DFE800F0030B151F2A000820AF66DE
:104A7000FDF794FB10B100F054FD48BBA86E401C3C
:104A8000A8660420FDF78AFB10B100F07EFCF8B99F
:104A9000A86E401CA8660420FDF780FB10B1FDF74E
:104AA00093FFA8B9A86E401CA8664FF48070FDF76C
:104AB0008AFB10B102F074FE0AE01020AE66FDF72A
:104AC0006DFB08B100F0B2FD4FF40050FDF77BFB29
:104AD00005F0F5FB334D903D2863BAF80C2012B178
:104AE0006B6EC31A6ED41044D0466866FDF735FF6E
:104AF00005F0E5FB2863A98E411AA9816863FEF7DA
:104B0000E7FF0820FDF74AFB48B326491031B1F909
:104B1000042002F145008A2822D8607900B3274892
:104B2000038827480088181A00B210F1B40F02DC7D
:104B300000F5B47000B2B42802DBA0F5B47000B286
:104B400098F95C315B42434318B2637B3BB1144B31
:104B50005B7A43431E2093FBF0F0101A888003E039
:104B600016480188164801800420FDF717FB70B134
:104B7000A07960B1207C30B30A480F49103098F911
:104B80009631B0F90220096801FB03214180DFF86A
:104B9000109099F88000B0B3E07815E08E0C0020FA
:104BA000E008002070010020140C0140700000207B
:104BB000740000203800002030000020F8010020A0
:104BC000FA0100200EE101E0D8BB4DE08F49DFF88B
:104BD0004092B5F9143091F87D00B9F90620E8B19A
:104BE000A2EB030CBCF1000F01DCA3EB020C91F86B
:104BF0007C00844508DD87499A420E606F7200DDB3
:104C00004042104407E037E0687A18B382480168F0
:104C1000824801601DE0A9F80600B8E7D01A002814
:104C200001DD024600E09A1A91F87CC07C49624599
:104C300008DD7C4A00EBD070401010600F706F727E
:104C400008E013E0687A28B173480268734802608C
:104C50000E706E727448B8F84221B8F840110068BE
:104C6000184403F0D9F8D6E7207928B168486F4A8C
:104C7000C18812881144C1802020FDF78FFA10B33B
:104C8000634FE079243F08B9207AE0B3207BD0B3AA
:104C9000674EB6F9000008F05FFDDFF898814146E5
:104CA00008F0DEFC09F0FEFE0090B6F9000008F006
:104CB00053FD414608F0D4FC09F02AFB8046207CD5
:104CC00010B103F004FF83E0514C99F8DF00DFF8E6
:104CD00068A14E462C3CE8B3A146B4F90200241D5D
:104CE000B4F90210401A01F0E8FE16F8DF2F514225
:104CF00003F092F8618808446080B9F90000B4F9C3
:104D00000010401A00E060E001F0D7FE3278514216
:104D100003F082F82188084400B2208008F01CFDCE
:104D20008346009908F09CFC0646B4F9020008F09E
:104D300013FD8146414608F093FC314608F08AFC99
:104D40005646514608F0BEFC08F014FD388058461F
:104D5000414600E00BE008F083FC04464846009919
:104D600008F07EFC214608F023FC314627E0B4F928
:104D7000000008F0F1FC8346009908F071FC06463B
:104D8000B4F9020008F0E8FC8146414608F068FCEE
:104D9000314608F05FFC5446514608F093FC08F099
:104DA000E9FC38805846414608F05AFC0646484619
:104DB000009908F055FC314608F0FAFB214608F04E
:104DC00081FC08F0D7FC788002E03E807E80BE80C7
:104DD000E86B8047FEF7B7FCFEF717FBBDE8F84F1E
:104DE000FEF7A7BBBDE8F88F144810B5417800293D
:104DF0000AD000244470052002F042FF0448A03885
:104E0000016C002900D0046410BD0000E0080020FF
:104E10008001002038000020700000207400002075
:104E20000C00002034000020300000201000002082
:104E3000F801002035FA8E3C00002041300C0020A3
:104E40002DE9FC47F84CF9496A4694F860018DF861
:104E50000000A1F1100007F06AF90646F448F54990
:104E600004270068884205D19DF80100032801D17C
:104E7000F148076036B9B4F86011EC4805F0F6FF68
:104E800000287DD0ED4D4FF0020A4FF001094FF0A0
:104E9000000800BF94F85D01072844D2DFE800F065
:104EA00008081A313C2604000220FDF784F93AE094
:104EB0008DF804804FF44870DC49ADF806001039D5
:104EC00001A804F050FA08B185F8009094F85D014B
:104ED000012828D0AEB19DF80100022807D185F83D
:104EE00000A094F85D0102282AD00AE04EB19DF896
:104EF0000100032805D30520287094F85D010528DA
:104F00001ED0CA48103805F0ADFE28B10320287025
:104F100094F85D01032813D0C448103806F0D5FD7D
:104F200008B12F700CE0287850B994F85D01401E4C
:104F3000052802D284F85D81ACE70220FDF73BF939
:104F4000BA48203006F091FF60B9B848203004F02C
:104F5000AFFA38B9B548203006F08BF810B9042004
:104F6000FDF729F90220FDF719F928B1AF4994F8A6
:104F7000540110390968884794F85301AB4900E09F
:104F800054E0096888474E464FEA080794F85E01E6
:104F900048B1012807D002280FD0032815D10820D6
:104FA000FDF709F911E0A148103004F0A8FC20B188
:104FB0006E7094F85E01012814D09C48103006F001
:104FC000F4FD10B185F801A00CE0687850B994F8B0
:104FD0005E01401E022802D284F85E71D6E70820E6
:104FE000FDF7E9F896486421B0F92A0090FBF1F248
:104FF00016B290FBF1F201FB12040820FDF7CEF887
:10500000904D88B1204608F0A7FB8F4908F028FB97
:105010000446304608F0A0FB214608F0C9FA8B4947
:1050200008F01EFB286000E02F600120BDE8FC872F
:1050300010B57D4C002094F89711B1B184484FF41D
:105040007A7200EB41000021B0F90600A0F57A70F9
:1050500002F0E2FE08F080FB7E4908F033FB7E4957
:1050600008F0FEFA08F09FFB15E094F8981100296B
:1050700012D0032004F0CEF8B4F89C1140F2FF32B5
:10508000401AB4F89A11C0EB802090FBF1F000B206
:10509000002102F0C1FE80B210BD70B50546624825
:1050A00090F87D0108F061FB0446284608F05DFB9E
:1050B0006A4908F0D5FA6A4908F004FB214608F06D
:1050C000CFFA08F070FB80B270BD40F6E44148436F
:1050D00040F6FF71B0FBF1F05349B1F87A21B1F815
:1050E0007811801A4FF47A72504390FBF1F07047B8
:1050F00070B500252C46002004F08CF805440A20E9
:1051000005F09EF9641C202CF5D3C5F34F10FFF772
:10511000C4FF454A012192F87E3100BF03FB01F430
:10512000844202D8491C0829F8D34E484E4B0170DE
:1051300092F880014843188092F87F0148434B4918
:10514000088070BD2DE9F05FDFF8F090484E3C4FCD
:10515000B9F80420344C0025CAB3464900204FF466
:10516000C878424501D141F8205051F8203036F935
:1051700010C0634441F8203026F8105004EB40037F
:10518000401CA3F86A510328EBDB012A1AD10868F6
:10519000C83090FBF8F0A4F86A014868C83090FB6A
:1051A000F8F0A4F86C018868C83090FBF8F1B9F801
:1051B0000800081AA4F86E01BD850121FD85084686
:1051C000FCF7D5FDB9F80410491EA9F80410042015
:1051D000FCF7F9FF00287DD0DFF89C80DFF85CB099
:1051E000DFF890A0B8F800200BF1240B0AF10C0AAC
:1051F000322A05D0BAB100205146322A3ED03FE0D3
:10520000B4F86A11ABF80010B4F86C11ABF80210E6
:105210000A48B4F86E11ABF804100A30B98D018059
:10522000F98D4180E7E75DE028040020700E002042
:10523000C4030020001BB700C8000020C0010020EC
:10524000E0080020400000208988883C00002041C0
:10525000440C002000007A4400C07F4433335340A4
:1052600000F07F4594010020000100200201002091
:1052700090000020400D0020F200002041F8205056
:1052800051F8203036F910C0634441F8203026F838
:10529000105004EB4003401CA3F86A510328ACDB18
:1052A000012A1AD1F748F8490570012008700A2030
:1052B00002F0E6FCBBF80010A4F86A11BBF802107B
:1052C000A4F86C11BBF80400A4F86E01EF48018843
:1052D000B98500E026E04088F885B8F80010491E3E
:1052E000A8F80010EA480178E1B10570DAF800206A
:1052F000322192FBF1F2A4F86A21DAF8042092FB41
:10530000F1F2A4F86C21DAF8080090FBF1F1B9F899
:105310000800081AA4F86E01BD850121FD85084624
:10532000FCF725FD3088B4F86A11401A3080708887
:10533000B4F86C11401A7080B088B4F86E11401A3D
:10534000B080BDE8F09FD34810B54168D248884787
:10535000BDE81040F6E630B5CC4CD04A0A3C206996
:1053600092F834200146401C824200D10020CC4AF1
:105370001368CC4A42F82130CB4952F820200D68FE
:105380002B449A1A0A60206130BD70B5BF4CC748E3
:105390000A3C00686169411A01D5002070BD606156
:1053A000BC4DA069303578B128698047686880476E
:1053B00028886169084460616A69BD49B8489047B6
:1053C0000020A061022070BDA8688047E86880477F
:1053D000FFF7C1FF0120A06168886169084460612E
:1053E000012070BD2DE9F05FA84D0A3DE888002836
:1053F0006DD0DFF8A0820024A8F13C08A3464FF44A
:105400007A79A8F10C06E888484507D104EB8402B4
:1054100008EB820146F824B0C1F810B0A54F56F849
:10542000241037F91400014446F8241008F094F9C8
:10543000014604EB840208EB8200824600F0F9F892
:1054400027F814B09C4F27F814B0E888012838D109
:10545000DAF81000012808DD401E08F07DF9014649
:10546000DAF80C0008F02EF900E0002009F0DEFB6D
:105470008246924890F86601B0B108F076F951463C
:1054800008F0A6F910D28349A5F806903C39C8F86F
:1054900010B0C1F824B0C1F838B0C6F808B0C6F8EA
:1054A00004B0C6F800B00CE056F82400012200F564
:1054B000FA7090FBF9F027F814000F210A20FEF78C
:1054C000DFFA641C032C9EDBE888401EE8807949E3
:1054D000794A002031F8103032F810401B1B21F8B7
:1054E0001030401C0328F5DB2BE76A4810B510305C
:1054F000416870488847BDE8104073E710B57048B0
:105500001024046063496D482031096890F8550102
:1055100088476B48001F04605C4901200A39887085
:1055200010BD2DE9F041594C60480A3C0068E16922
:10553000411A02D50020BDE8F08162490844E061CB
:1055400054482030416860488847DFF880C14F4B9D
:1055500000269CF80E005C49584A20339D1D90B1EE
:10556000E06920625FF0000002EB4007A7F870617D
:1055700031F8107023F8107025F81070401C0328C3
:10558000F2D38CF80E60A07870B10888B2F8707110
:10559000C01B08804888B2F87271C01B4880888898
:1055A000B2F87471C01B8880206A90B3E769381A1A
:1055B000474FB84218D242480838026882F00802C1
:1055C0000260002031F9102033F91040A24201DAC4
:1055D00023F8102035F91040A24201DD25F81020F3
:1055E000401C0328EED314E00020266233F910108B
:1055F00035F91040214401EBD17102EB4004491010
:10560000401CA4F870110328F0D301210846FCF7D0
:10561000AEFB01208FE710B5012005F06FFB1020D5
:10562000FCF7C4FD2B490020086010BD294805F097
:10563000B8BB2DE9F041044600690E46401C2061CC
:10564000012849D008F088F8256880462946304668
:1056500008F000F80746414608F034F8294607F0FC
:10566000A7FF054660602946304607F0F3FF014674
:10567000384607F0F5FFA16807F09AFFE060256063
:10568000A06058E7E4000020E2000020CA010020EA
:10569000E3000020600E002090000020E0080020C1
:1056A000B8000020580D00201C0000201001002030
:1056B000BC0000208A000020C00000202804002038
:1056C000140C0140A08601009C000020300C00203A
:1056D00080C3C9012C000020666000202660A06005
:1056E00029E7000070B5FF4D044621466868006850
:1056F00006F00CFA686801796140017170BD10B55F
:105700000446C0B2FFF7EEFFC4F30720FFF7EAFF3D
:10571000C4F30740FFF7E6FF200EBDE81040E1E7C5
:1057200010B50446C0B2FFF7DDFFC4F30720BDE8A3
:105730001040D7E7EB4841688B1D4879421C4A71FD
:10574000C05C704710B5FFF7F5FF0446FFF7F2FFA6
:1057500004EB002080B210BD10B5FFF7F3FF044644
:10576000FFF7F0FF04EB004010BD70B504460D4696
:105770002420FFF7B7FF4D20FFF7B4FF0CB1212025
:1057800000E03E20FFF7AEFFD64C002061680871B4
:105790002846FFF7A7FF606890F88600BDE87040D4
:1057A000A0E701460020E0E701460120DDE7CD4803
:1057B0004068007996E770B504460D460846FFF745
:1057C000F0FF03E014F8010BFFF78CFF6D1EEDB244
:1057D000F8D270BD10B5044603E000BFFFF782FFAA
:1057E000641C20780028F9D110BD2DE9F05FDFF8A6
:1057F000F8B2DFF8F09201274FF0000A002518E018
:10580000BA48405D00EB40010BEB8108D8F804007A
:1058100007F07FFE06460FB1B24409E0002405E020
:10582000D8F80400005DFFF75DFF641CB442F7DBAD
:105830006D1C99F800008542E2DB002F05D00AF0CC
:10584000FF00FFF7AEFF0027D8E7BDE8F09F2DE986
:10585000F047A44E00248146024603232146A44873
:10586000B46004F047FFA34DDFF88082A34F08F136
:1058700018082860C8F80000B068401CB0609E4856
:10588000006803280ED197F88C0158B903234A46C3
:1058900000219B4804F02EFF6860C8F88C00B068B7
:1058A000401CB060FF221821904807F0ECFD8F4D9E
:1058B00002202C700124FCF771FC20B101206870DB
:1058C0000220A87003240420FCF768FC50B10320D8
:1058D00028554FF40050641CFCF775FC10B10420EF
:1058E0002855641C0220FCF759FC18B90820FCF765
:1058F00055FC40B105202855641C06202855641C21
:1059000007202855641C2020FCF75DFC10B10820FE
:105910002855641C4FF48070FCF755FC28B10A2010
:105920002855641C0B202855641C7879082803D05E
:105930000E2801D0182802D10C202855641C0D20F7
:1059400028550420641CFCF73EFC10B1112028559A
:10595000641C1320285597F8B001641C00B1012085
:10596000FCF731FC10B114202855641C78791828F4
:1059700008D115202855641C16202855641C1720B2
:105980002855641C3470BDE8F0872DE9F05F4FF0B6
:105990000009CA460FF26C1B524C01275C4D60682F
:1059A000DFF87081554E90F88610782971D026DC8A
:1059B0006B296FD016DC64296DD00BDCA1F140019E
:1059C000062969D2DFE811F02D063A06F205B40582
:1059D00047064F0665390629F3D2DFE801F0FBFAE6
:1059E000F9F8F7F63F486C390C290078E9D2DFE87E
:1059F00001F0FDFCFBFAF9F8F7F6F5F4F3F245488F
:105A0000D029407868D019DCCA2966D00EDCA629D6
:105A100064D006DC7B2962D0A02961D0A4293BD1C7
:105A2000FDE3C82926D0C929F9D13DE0CB390529A4
:105A3000C7D2DFE801F093A3FEFDB900EF292CD017
:105A40000BDCA1F1D1014FF000090829B9D2DFE840
:105A500001F0F6F5F4F323F223F1F22941D004DC4E
:105A6000F02979D0F129DAD122E2FA2975D0FE297C
:105A7000D5D1FCE30024284DFFF764FE25F814007F
:105A8000641C082CF8D30020FFF78BFE02F0EEFF19
:105A90000DE2D0E104E3FFE0EAE3FFF753FEE8851F
:105AA000FFF750FEA885FDE3FFF744FE88F80B00E2
:105AB000FFF740FE19490870FFF74EFE184C2060B2
:105AC000FFF74AFE6060FFF73DFE16490880FFF7CA
:105AD00039FE1549088029E0F9E32DE0F8E345E2B5
