:020000040800F2
:10000000E03100205122010891220108D73900086F
:10001000952201089722010899220108000000009A
:100020000000000000000000000000009B2201080A
:100030009D220108000000009F220108CBDC00087F
:10004000A3220108A3220108A3220108A322010878
:10005000A3220108A3220108A322010847EB0008FC
:10006000A3220108A3220108A3220108A322010858
:10007000B9E40008A32201088DE40008A3220108C6
:10008000A3220108A3220108A3220108A322010838
:10009000A3220108A3220108A32201084FEB0008B4
:1000A000A3220108A3220108A3220108A7F6000841
:1000B000B3F60008BFF60008CBF600086FD20008C0
:1000C00089CE00087FD2000877D20008A322010859
:1000D000A3220108E3E4000823E5000891E50008F5
:1000E000F1C40008A3220108A3220108DFF80CD004
:1000F00012F08EFE00480047C3350008E0310020B2
:10010000F0B504460E461546B4FBF5F038B1B4FB25
:10011000F5F72A4631463846FFF7F2FF0646B4FBAC
:10012000F5F005FB1040FCA1085C3070701CF0BDC0
:1001300070B505460C461646022E01DB242E00DD66
:100140000A26002D09DA2D2020703246611C6842F3
:10015000FFF7D6FF0021017006E03246214628460F
:10016000FFF7CEFF00210170204670BD2DE9F05F42
:1001700004464FF0000900E0641C20782028FBD0E2
:1001800020780928F8D04FF07E5820782D2803D108
:10019000DFF8AC83641C03E020782B2800D1641CBA
:1001A00000260FE02178A1F1300012F009FC05468D
:1001B000E449304612F022FB8246294612F0C6FA84
:1001C0000646641C2078302802DB20783928E9DDD7
:1001D00020782E281DD1DB4D641C13E02178A1F17D
:1001E000300012F0EDFB8346294612F039FB8246BF
:1001F000314612F0ABFA0646D249284612F0FEFA12
:100200000546641C2078302802DB20783928E5DD9B
:1002100000BF4FF07E572078652802D0207845280F
:1002200034D1641C4FF0000920782D2803D14FF001
:100230000109641C03E020782B2800D1641C0025F0
:1002400006E02078303805EB850100EB4105641CA1
:100250002078302802DB20783928F2DDB5F59A7F46
:1002600001D94FF49A7505E0B749384612F0C6FA3D
:100270000746083D082DF7D205E0B249384612F08E
:10028000BDFA07466D1E002DF7D100BFB9F1000F72
:1002900004D03946304612F0E3FA03E039463046DE
:1002A00012F0ACFA0546414612F0A8FABDE8F09FFC
:1002B0002DE9F04387B007460E46002001900290DA
:1002C00003900FF288280021384612F0EFFB05D288
:1002D0009F49384612F03AFA074604E09C493846EE
:1002E00012F086FA07469B49384612F087FA814693
:1002F00012F085FB0446002C01DD214600E061423E
:1003000008460A2204A9FFF713FF002C03DB202074
:100310008DF8040002E02D208DF8040004A812F0EE
:10032000C6F901280BD130208DF805008DF80600A4
:100330008DF8070004A901A812F085F91FE004A8B0
:1003400012F0B5F9022809D130208DF805008DF89A
:10035000060004A901A812F076F910E004A812F032
:10036000A6F9032807D130208DF8050004A901A8BB
:1003700012F069F903E004A901A812F064F901A8D8
:1003800012F095F9C01EC5B22A4601A9304612F0F6
:1003900078F9002070554146304612F054F901A812
:1003A0004119304612F04FF9304607B0BDE8F083EE
:1003B00010B5044605E014F8011B674A10680FF0F9
:1003C00003FD20780028F6D110BD10B563A0FFF71B
:1003D000EFFF10BD2DE9F04105460C462F4626469D
:1003E000306812F064F9804631684246386812F08D
:1003F00087F9BDE8F0812DE9F04105460027284640
:1004000012F055F900F0FF08B8F1000F0CD10024EC
:1004100007E0544830F81420214653A012F0A2FD02
:10042000641C182CF5DB17E02E46304612F081F9DB
:100430000446182C0CDA2021284612F02EF9064624
:10044000304612F076F90746464820F8147003E06B
:10045000182148A012F086FDBDE8F0812DE9F04F8B
:1004600087B007460026B046384612F020F900F063
:10047000FF09B9F1000F4DD148A0FFF799FF002403
:100480003FE0514901EB04110868002112F004FB20
:1004900000D138E008F10108611C4CA012F062FDA7
:1004A000494901EB0411086803A9FFF701FF8246DF
:1004B000514648A012F056FD434901EB041148682B
:1004C00003A9FFF7F5FE8246514642A012F04AFD0D
:1004D0003D4901EB0411886803A9FFF7E9FE824654
:1004E00051463CA012F03EFD374901EB0411C868AB
:1004F00003A9FFF7DDFE8246514637A012F032FD18
:10050000641C0C2CBDDB00BF002002900190009009
:1005100000247EE0A0E0000030313233343536373D
:1005200038394142434445464748494A4B4C4D4E71
:100530004F505152535455565758595A00000000C5
:10054000000080BF0000204120BCBE4C2E000000F7
:100550006F12033A00007A44700A00200D0A23202B
:100560000000000082090020617578202575202593
:10057000750D0A00496E76616C6964204665617488
:1005800075726520696E6465783A206D75737420A4
:100590006265203C2025750D0A00000043757374C8
:1005A0006F6D206D697865723A200D0A4D6F746F1A
:1005B000720954687209526F6C6C095069746368EF
:1005C000095961770D0A0000880400202325643A48
:1005D000090000002573090025730D0A00000000C2
:1005E000F74A02EB04125168009812F0AFF800903D
:1005F000F34A02EB04129168019812F0A7F80190F7
:10060000EF4A02EB0412D168029812F09FF80290B0
:10061000641C4445E4DBEBA0FFF7CAFE002004465F
:1006200011E05DF8240020F000418B46E94958466E
:1006300012F03CFA01D2E8A000E0E8A08246FFF701
:10064000B7FE601C0446032CEBDBAFF28800FFF71B
:10065000AFFE07B0BDE8F08F0522E1A1384612F0E9
:100660004FF850B9002405E00021D54800EB0410F4
:100670000160641C0C2CF7DB8EE00422DAA1384602
:1006800012F03EF800282FD12021384612F005F84C
:100690000546002DF0D0691C0D46084612F007F8FB
:1006A00000F0FF09002400BFD14850F8240018B919
:1006B000D0A0FFF77DFE16E0CD4850F824104A4642
:1006C000284612F01DF860B9204603F020FBC84808
:1006D00050F82410CDA012F045FCC4A0FFF7BEFED8
:1006E00001E0641CE0E757E03D46284612F021F89F
:1006F0000446601E04460C284ADA2021284611F0E0
:10070000CCFF05464DB1691C0D460846FFF72EFD8E
:10071000AB4901EB04110860761C2021284611F03A
:10072000BCFF054655B1691C0D460846FFF71EFD86
:100730000146A34800EB04104160761C20212846A6
:1007400011F0ABFF05464DB1691C0D460846FFF799
:100750000DFD9B4901EB04118860761C2021284681
:1007600011F09BFF05464DB1691C0D460846FFF789
:10077000FDFC934901EB0411C860761C042E03D0E4
:10078000A7A0FFF715FE07E098A0FFF767FE03E0BC
:100790000C21B2A012F0E6FB00BF5AE72DE9F047AA
:1007A00088B082460027504611F081FF00F0FF0913
:1007B000B9F1000F61D1B34812F0D4FBB24812F086
:1007C000D1FB002450E0C4EBC4017D48C030084494
:1007D000807800B94AE0611CAFF2102012F0C2FB31
:1007E000C4EBC4027648C030805C411CA7A012F064
:1007F000B9FBC4EBC4027248C03010444078411CBD
:10080000A2A012F0AFFBC4EBC4026D48C03010448C
:1008100090F902109DA012F0A5FBC4EBC402684839
:10082000C0301044C17899A012F09CFBC4EBC40204
:100830006348C030104490F9041094A012F092FB69
:10084000C4EBC4025E48C030104490F905108FA07C
:1008500012F088FBC4EBC4025948C03010448179BF
:100860008BA012F07FFB641C102CACDB00BF6BA0D4
:1008700012F078FB08B0BDE8F087052258A1504679
:1008800011F03EFF88B970214D48C03011F0D0FE04
:10089000002407E0002104EB84027F4800EB4200C3
:1008A0000181641C082CF5DBFBE104224EA15046BB
:1008B00011F026FF00282FD12021504611F0EDFE27
:1008C0000546002DF0D0691C0D46084611F0EFFEDC
:1008D00000F0FF09002400BF454850F8240018B973
:1008E00044A012F03FFB16E0414850F824104A465D
:1008F000284611F005FF60B9204603F0D2F93C48C4
:1009000050F8241041A012F02DFB38A0FFF746FF4D
:1009100001E0641CE0E7C4E1092260A1504611F047
:10092000EFFE00284BD12021504611F0B6FE0546BF
:10093000284611F0BCFE00F0FF09B9F1000F38D1D4
:10094000594812F00FFB59A012F00CFB002604E0EE
:10095000711C57A012F006FB761C0C2EF8DB2FA0A2
:1009600012F000FB4FF000081FE008F1010152A057
:1009700012F0F8FA002611E008EB8802464800EB76
:10098000420000890122B240104008B14BA000E0B3
:1009900044A001464AA012F0E5FA761C0C2EEBDBCF
:1009A0001EA012F0DFFA08F10108B8F1080FDCDB35
:1009B00060E744A1284611F081FE054691E0E4E09D
:1009C0008804002053616E69747920636865636BE5
:1009D0003A0900000AD7233C4E4709004F4B090053
:1009E00072657365740000006C6F61640000000044
:1009F000F03F0108496E76616C6964206D69786525
:100A00007220747970652E2E2E0D0A004C6F616471
:100A10006564202573206D69782E2E2E0D0A000046
:100A200057726F6E67206E756D626572206F6620FB
:100A3000617267756D656E74732C206E6565647385
:100A4000206964782074687220726F6C6C20706901
:100A5000746368207961770D0A0000004D6F746F30
:100A600072206E756D626572206D7573742062659B
:100A7000206265747765656E203120616E64202583
:100A8000640D0A001C5B0108BC5A010825640900BA
:100A900025640D0A00000000BA090020646972652F
:100AA0006374696F6E0000006C5A010873000000E7
:100AB0000969256400000000256400007200000040
:100AC0000925732020000000284611F032FE394627
:100AD0007F1C4DF82100AFF21401002011F0EEFD53
:100AE00005460DB1032FEFDB0DB9032F03D0FEA098
:100AF00012F038FABEE6009801283EDB009808287C
:100B00003BDC0198012838DB01980C2835DC029881
:100B1000401C10B1029801282FD10098401E00906F
:100B20000198401E01900298401C98B9009800EB73
:100B30008001FC4800EB410000890121019A9140AD
:100B4000084381B2009800EB8002F64800EB4200B7
:100B5000018115E0009800EB8001F24800EB4100B4
:100B600000890121019A91408843009901EB81029B
:100B7000EC4901EB4201088102E0EBA012F0F2F92E
:100B8000AFF2E800FFF70AFE8BE0AFF2C801504673
:100B900011F094FD05460CE0284611F0CAFD3946D7
:100BA0007F1C4DF82100AFF2E401002011F086FD1A
:100BB00005460DB1082FEFDB0DB9082F03D0E34830
:100BC00012F0D0F956E60098441E002C66DB102C7B
:100BD00064DA0198002861DD019808285EDC02983B
:100BE00001285BDB02980C2858DC039810F1640F95
:100BF00054DB0398642851DC049800284EDB0498E9
:100C0000FF284BDC0598002848DB0598642845DC64
:100C10000698002842DB069864283FDCDDE90501E0
:100C200088423BDA0798002838DB0798032835DC30
:100C30000198401EC1B2C4EBC402C5488154029859
:100C4000401EC1B2C4EBC402C148104441700398B5
:100C500041B2C4EBC402BE48104481700498C1B2D2
:100C6000C4EBC402BA481044C170059841B2C4EB49
:100C7000C402B74810440171069841B2C4EBC402E3
:100C8000B348104441710798C1B2C4EBC402B048E4
:100C900010448171A2A0FFF781FD02E0A2A012F032
:100CA00061F900BFE6E510B50446AAA0FFF780FB96
:100CB000012001F062FCAEA0FFF77AFB0A200DF0E4
:100CC000E7F800200DF033F910BD2DE9FC41044692
:100CD0000D460026207906283AD2DFE800F0030608
:100CE0000A0D1114A068067832E0A06890F900603F
:100CF0002EE0A06806882BE0A068B0F9006027E02D
:100D0000A068066824E0A16808686946FFF7D0FA81
:100D1000074639469AA012F025F9BDB1E06811F0F6
:100D20004FFE80466946FFF7C3FA0746394695A04D
:100D300012F018F9206911F043FE80466946FFF76A
:100D4000B7FA074639468FA012F00CF9BDE8FC81CE
:100D500000BF3146AFF2A02012F004F925B18AA0FD
:100D6000D4E9031212F0FEF800BFEFE710B5044615
:100D700087A0FFF71DFB10BD2DE9F04F85B00020C7
:100D8000FFF7F4FF8EA012F0EDF865A0FFF733FB3C
:100D90006F48D0384079401E954A52F8201095A0EF
:100DA00012F0E0F86A49D0390869002111F074FEA8
:100DB00077D000246EE06649C03901EB0411086861
:100DC000002111F069FE00D166E06148C03800EBF7
:100DD000041007685E48C03800EB0410D0F80480A7
:100DE0005B48C03800EB0410D0F808905848C03871
:100DF00000EB0410D0F80CA0611C81A012F0B2F836
:100E00000021384611F048FE03D2AFF2483012F00C
:100E1000A9F801A93846FFF74BFA0146009058A0FF
:100E200012F0A0F80021404611F036FE03D2AFF2D6
:100E30006C3012F097F801A94046FFF739FA0146E5
:100E400000904FA012F08EF80021484611F024FEC9
:100E500003D2AFF2903012F085F801A94846FFF7AF
:100E600027FA0146009046A012F07CF80021504677
:100E700011F012FE03D2AFF2B43012F073F801A9F0
:100E80005046FFF715FA01460090AFF6B40012F095
:100E900069F8641C0C2C8ED300BF611C5AA012F0A0
:100EA00061F82B48D03890F8D20000281AD00024DE
:100EB000F2E0C4EBC40126480844807800B9EEE0B3
:100EC000611C56A012F04EF8C4EBC4022048805CAE
:100ED000411C55A012F046F8C4EBC4021C48104453
:100EE0004078A3E0E0E0000057726F6E67206E75F7
:100EF0006D626572206F6620617267756D656E74D4
:100F0000732C206E6565647320736572766F20693B
:100F10006E70757420646972656374696F6E0D0A12
:100F200000000000BA0900204552523A2057726F63
:100F30006E672072616E676520666F7220617267EE
:100F4000756D656E74730D0A00000000845B010806
:100F500048050020526573657474696E6720746F6C
:100F60002064656661756C74732E2E2E0D0A000068
:100F70005265626F6F74696E672E2E2E000000003E
:100F800025730000202573002025642025640000BF
:100F90004166726F333220434C4920766572736923
:100FA0006F6E20322E33204170722020322032307A
:100FB0003135202F2032333A35343A3334000000B3
:100FC00043757272656E7420436F6E6669673A206E
:100FD000436F70792065766572797468696E6720F1
:100FE00062656C6F7720686572652E2E2E0D0A0083
:100FF000F03F01086D697865722025730D0A0000C5
:10100000636D697820256400636D6978202564200C
:10101000302030203020300D0A000000736D6978D8
:10102000202564200000000025642000411CAFF250
:10103000080011F097FFC4EBC402F848104490F97F
:101040000210AFF21C0011F08DFFC4EBC402F34894
:101050001044C178AFF2300011F084FFC4EBC40239
:10106000EE48104490F90410AFF2440011F07AFFFA
:10107000C4EBC402E948104490F90510AFF25800DF
:1010800011F070FFC4EBC402E44810448179AFF260
:10109000006011F067FF641C102CFFF40AAF00BF62
:1010A000611CDFA011F05EFF002414E000250FE0BA
:1010B00004EB8401DF4800EB410001890120A840D6
:1010C000014021B16A1C611CDBA011F04BFF6D1CBB
:1010D0000C2DEDD3641C082CE8D301F082FA0646EF
:1010E000002400BFDB4850F8240000B907E0D948CD
:1010F00050F82410D8A011F035FF641CF2E700BFAF
:10110000002400BFD34850F8240000B90BE00120B0
:10111000A040304028B1CF4850F82410D2A011F0A0
:1011200021FF641CEEE700BF002407E0D248015D08
:10113000BA48B230005D01AA1154641C082CF5D3E2
:10114000002001A90855CDA011F00CFF002415E0E6
:1011500004EB8400CC4901EB800B04EB84000A46CD
:1011600052F82010C9A011F0FDFE00215846FFF7EB
:10117000ACFDAFF20820FFF71BF9641C8D2CE7D300
:1011800005B0BDE8F08F10B50446C3A0FFF710F915
:101190000121002000F08EFFC2A0FFF709F90A200C
:1011A0000CF076FE00200CF0C2FE10BD10B5044617
:1011B000C0A0FFF7FDF80020C4490870C4490860CA
:1011C000C449087002F06BFC2046FFF7DCFF10BD3D
:1011D0002DE9F0410546284611F069FA064601F06E
:1011E00000FA0746DEB9BCA0FFF7E2F8002400BF12
:1011F000984850F8240000B90BE00120A040384086
:1012000028B1944850F82410B8A011F0ABFE641C2B
:10121000EEE700BFAFF2AC20FFF7CAF858E0324665
:10122000B3A1284611F06CFAC0B9B3A0FFF7C0F81B
:10123000002400BF874850F8240000B907E0854823
:1012400050F82410A9A011F08DFE641CF2E700BF35
:10125000AFF2E820FFF7ACF8BDE8F0814FF00008EE
:1012600028782D2803D14FF001086D1C761E00242C
:1012700000BF784850F8240018B9A5A0FFF798F8E7
:1012800024E0744850F824103246284611F038FA09
:10129000D0B9B8F1000F08D0012101FA04F001F033
:1012A0009AF9A2A0FFF784F807E0012101FA04F0FF
:1012B00000F06CFFA0A0FFF77BF8664850F8241000
:1012C0006BA011F04FFE01E0641CD2E700BF00BF2D
:1012D00000BFC1E710B5044608F0B4FF401C18B9C0
:1012E00098A0FFF765F802E0A0A0FFF761F810BD35
:1012F00070B505460024A5A0FFF75AF800BF0DE021
:1013000004EB4400A74B03EB8000426804EB44006D
:1013100053F82010A4A011F025FE641C112CEFD36B
:1013200070BDFEB50546284611F0C1F90646082EE7
:1013300020D1002404E0285D11F038F92855641C00
:10134000082CF8D3002410E0295D4B4811F0A5F9D2
:1013500030B1295D2A19501C11F09FF900B903E042
:1013600093A0FFF725F8FEBD641C082CECD328469B
:1013700000F0C9FD96A0FFF71BF8002407E03E48E7
:10138000015D2648B230005D0DF80010641C082C89
:10139000F5D300200DF80400694635A011F0E2FDF8
:1013A00000BFE0E770B50646304611F080F905460B
:1013B00055B91A48D0384079401E8B4A52F820104F
:1013C0008AA011F0CFFD70BD2A4649A1304611F028
:1013D00097F9B8B98AA0FEF7EBFF002400BF824856
:1013E00050F8240000B907E07F4850F824103FA0CF
:1013F00011F0B8FD641CF2E700BFAFF29040FEF7B9
:10140000D7FFE0E7002400BF774850F8240020B958
:10141000AFF62020FEF7CCFF2EE1FBE048050020D0
:10142000736D697820256420302030203020300D05
:101430000A000000BA090020736D6978206469729F
:10144000656374696F6E202564202564202D310D3D
:101450000A000000544001086665617475726520D9
:101460002D25730D0A000000666561747572652094
:1014700025730D0A00000000C04C01086D6170204A
:1014800025730D0A00000000BC410108736574203B
:101490002573203D20000000536176696E672E2E73
:1014A0002E0000000D0A5265626F6F74696E672E20
:1014B0002E2E00000D0A4C656176696E6720434C44
:1014C00049206D6F64652E2E2E0D0A004804002001
:1014D0000400002000000020456E61626C656420FD
:1014E00066656174757265733A200000257320008B
:1014F0006C69737400000000417661696C61626C14
:10150000652066656174757265733A20000000009D
:10151000496E76616C6964206665617475726520D8
:101520006E616D652E2E2E0D0A00000044697361F8
:10153000626C656420000000456E61626C65642029
:10154000000000004572726F723A20456E61626C55
:101550006520616E6420706C756720696E2047504D
:10156000532066697273740D0A000000456E616253
:101570006C696E6720475053207061737374687292
:101580006F7567682E2E2E0D0A0000004176616986
:101590006C61626C6520636F6D6D616E64733A0D92
:1015A0000A000000F040010825730925730D0A00A8
:1015B0004D75737420626520616E79206F72646569
:1015C00072206F662041455452313233340D0A0087
:1015D00043757272656E742061737369676E6D65B1
:1015E0006E743A2000000000F03F010843757272EB
:1015F000656E74206D697865723A2025730D0A0056
:10160000417661696C61626C65206D6978657273A1
:101610003A200000FD4850F824102A46304611F0C8
:101620006FF838BB601CFA494871F84850F824102C
:10163000F8A011F097FCF6484079082803D0F44848
:1016400040790E2815D13220F74981F82600002074
:1016500081F820001E21F4480171142181732D218D
:101660000176322181761E21C171142141742D2110
:10167000C17601E0641CC7E600BF00BFA3E62DE908
:10168000F04780460024002500260027404611F040
:101690000EF88146B9F1000F04D1E4A011F062FC0C
:1016A000BDE8F087AFF21421404611F007F8074675
:1016B00015E016B1012E0AD104E0384611F039F8D0
:1016C000044604E0384611F034F8054600BF00BF78
:1016D000761CAFF24021002010F0F0FF0746002FEB
:1016E000E7D1002C01DB0C2C04DB0C21DEA011F077
:1016F00039FCD5E7022E07DAE54830F914202146F7
:10170000E4A011F02FFCCBE7B5F57A7F02DBB5F54D
:10171000FA6F03DDE5A011F025FCC1E72A4621465A
:10172000EBA011F01FFC28B2D94921F8140000BF2A
:10173000B6E770B50546284610F0B9FFC6B236B90F
:10174000B34890F8C014E9A011F00CFC70BD284615
:1017500010F0EFFF0446002C0BDB022C09DCAC4937
:1017600081F8C0440021084600F0A4FCDEA0FFF789
:10177000E0FF00BFEAE710B50446E24908682146E9
:101780000EF022FB10BD03B50179062917D2DFE860
:1017900001F0030408090E1200BF0199826811705C
:1017A0000DE000BF019909B28268118007E001993C
:1017B0008268116003E001998268116000BF00BF78
:1017C0000CBD2DE9F84F07464FF00008C246C14650
:1017D000384610F06CFF054625B1012D21D138782F
:1017E0002A281ED1C8A0FEF7E3FD002416E004EB72
:1017F0008400CB4901EB800604EB84000A4652F8D2
:101800002010AFF2743011F0ADFB29463046FFF7DF
:101810005CFAAFF6A800FEF7CBFD641C8D2CE6D376
:1018200093E0C0A1384610F01AFF5FEA000868D0C4
:1018300008F101086D1E404610F07BFF82464046CD
:10184000FEF794FC8146002455E004EB8400B44983
:1018500001EB800604EB8401B14A52F8210010F03C
:1018600026FF834604EB8400AD4A52F820105A4606
:10187000384610F045FF00283CD104EB8401A84A0B
:1018800002EB8101C86811F09BF88346494611F0CC
:1018900003F92AD804EB8401A14A02EB810108690B
:1018A00011F08EF88346494611F000F91DD804EB7B
:1018B00084009B4901EB80000079052802D1CDF816
:1018C000009001E0CDF800A030460099FFF75BFFE3
:1018D00004EB8400924A52F8201093A011F042FBCE
:1018E00000213046FFF7F1F902E092A0FEF760FD1B
:1018F000BDE8F88F641C8D2CA7D398A0FEF758FD87
:1019000023E000241FE004EB8401854A52F8210003
:10191000394610F0A4FEA8B104EB8400804901EB25
:10192000800604EB84000A4652F82010AFF2A04073
:1019300011F018FB00213046FFF7C7F9AFF6D410BD
:1019400011F010FB641C8D2CDDD300BFD0E72DE916
:10195000F04107460CF0DCF94FF47A71B0FBF1F678
:101960008648037886480288314686A011F0FAFA44
:1019700000F025FE0546934800689349B0FBF1F658
:101980009248934A126850F82210324691A011F002
:10199000E9FA002400BF9A4850F8240000B90DE08D
:1019A0000120A040284030B1954850F82410AFF2F3
:1019B000C44011F0D7FA601CC4B2ECE700BF0220AB
:1019C00000F0E8FDA8B18F488F4A127850F8221035
:1019D0008EA011F0C7FA8C480078022809D1494836
:1019E000007D08B16F2000E06E2001468AA011F052
:1019F000B9FAAFF68820FEF7DBFC0BF018FD0646BF
:101A000040F2C44332468548018809E1F03F0108AD
:101A1000780400204D697865722073657420746FB6
:101A20002025730D0A0000003C09002055736167F2
:101A3000653A0D0A6D6F746F7220696E6465782067
:101A40005B76616C75655D202D2073686F77205B18
:101A50006F72207365745D206D6F746F7220766194
:101A60006C75650D0A0000004E6F20737563682069
:101A70006D6F746F722C207573652061206E756DAB
:101A8000626572205B302C2025645D0D0A00000029
:101A9000A40A00204D6F746F7220256420697320A2
:101AA0007365742061742025640D0A00496E7661A7
:101AB0006C6964206D6F746F722076616C75652C33
:101AC00020313030302E2E323030300D0A00000000
:101AD00053657474696E67206D6F746F722025642E
:101AE00020746F2025640D0A000000004375727297
:101AF000656E742070726F66696C653A2025640D9E
:101B00000A000000700A002043757272656E74202E
:101B100073657474696E67733A200D0A00000000E3
:101B2000BC4101083D0000002573207365742074DA
:101B30006F2000004552523A2056616C7565206155
:101B4000737369676E6D656E74206F7574206F6650
:101B50002072616E67650D0A000000004552523A1E
:101B600020556E6B6E6F776E207661726961626C64
:101B700065206E616D650D0A000000007601002091
:101B8000FC00002053797374656D20557074696D85
:101B9000653A202564207365636F6E64732C20564C
:101BA0006F6C746167653A202564202A20302E31DD
:101BB0005620282564532062617474657279290D5A
:101BC0000A0000001004002040420F00E04001081D
:101BD000CC00002048617264776172653A202573F9
:101BE00020402025644D487A2C2064657465637418
:101BF00065642073656E736F72733A200000000095
:101C0000A0400108C04001080002002041434348B1
:101C1000573A2025730000002E256300F8000020AD
:101C200088A011F09FF9BDE8F0812DE9FF419248AD
:101C3000007838B901209049087090A0FEF7B8FBF1
:101C4000FEF7C3FBF5E09B4908680EF0DDF804469B
:101C5000092C01D03F2C74D1002600279648D0F8DB
:101C60000080964D0FE09448006838B1924829688A
:101C70000268934810F044FD00B103E006B92E4617
:101C80002F4600BF0C358D48CC308542EBD38EB348
:101C900000BF894930680968405C874A3968126822
:101CA000895C884200D026E0834930680968405C3E
:101CB00090B9814800682E280ED220217E48026803
:101CC0000068401C7C4B18607D48815400207C4992
:101CD0001A46126888540EE0774930680968405CFB
:101CE0007749754A1268885473480068401C7249E5
:101CF0000860CEE700E000BF6F48006808B1BE4250
:101D000011D070A0FEF754FB354606E02868FEF7B8
:101D10004FFB0920FFF72FFD0C35BD42F6D9FEF72A
:101D200054FB4FF0000806E0654911F80800FFF782
:101D300022FD08F10108604800688045F4D377E08F
:101D4000FFE75D48006830B9042C04D15C48FFF718
:101D50002DFABDE8FF810C2C05D15CA0FEF728FB15
:101D6000FEF733FB64E054480068002836D00A2CA4
:101D700001D00D2C32D10025AFF61060FEF718FB14
:101D800000204F494C4A12688854084601900020B0
:101D9000029051480C2311224849009001A810F0EC
:101DA0000BFC05464DB1286810F081FC44490844FD
:101DB000461C3046A968884702E048A0FEF7F8FABA
:101DC00030213F4810F034FC00203B4908602A488D
:101DD000007800B9BDE7FEF7F8FA29E07F2C0ED1B4
:101DE0003548006820B3002133480068401E324A5D
:101DF0001060334A115442A0FEF7DAFA18E02E4878
:101E00000068302814D2202C12DB7E2C10DC2A48EB
:101E1000006810B9202C00D10BE027480168006849
:101E2000401C254A1060264844542046FFF7A3FC76
:101E300000BF204908680DF0E0FF00287FF403AFE1
:101E400000BF86E74379636C652054696D653A206D
:101E500025642C20493243204572726F72733A20F8
:101E600025642C20636F6E6669672073697A653A12
:101E70002025640D0A000000000000200D0A456EB8
:101E8000746572696E6720434C49204D6F64652C00
:101E900020747970652027657869742720746F2015
:101EA00072657475726E2C206F72202768656C7075
:101EB000270D0A00700A002004000020F0400108ED
:101EC000480400200D1B5B4B000000001B5B324AE6
:101ED0001B5B313B31480000D50300084552523AA4
:101EE00020556E6B6E6F776E20636F6D6D616E64E3
:101EF0002C20747279202768656C70270000000020
:101F000008200800704770B5064634460CE021787A
:101F1000FE4810F0C2FB05462DB1A01BC1B2FB4824
:101F20002A1AFB488154641C20780028EFD170BD28
:101F300010B5F849002308784A2801D0002010BDC8
:101F4000488840F2C444A04206D10879BE2803D193
:101F500091F8C204EF2801D00020F0E70A4602E021
:101F600010784340521C01F2C4408242F8D30BB1B6
:101F70000020E4E70120E2E710B5FFF7D9FF10B930
:101F80000A200BF091FF40F2C442E249E24810F00F
:101F900036FBE14890F8C004022803DD0020DE494A
:101FA00081F8C004DC4890F8C00400EB8012D848E7
:101FB000323000EB82014FF48272D84810F01FFBE0
:101FC00010BD70B5002416E0D44890F8201004FB32
:101FD00004F01938484300F6C4106043CF49C97F64
:101FE000484340F6C41190FBF1F000B2CC4921F80F
:101FF0001400601CC4B2072CE6DB00244BE004EBA9
:102000008402C64B93F82130C3EB42000121002823
:1020100005DDC24A92F82120C2F16402D1B2002843
:1020200002DABE4A92F82110BC4A92F8222000FB44
:1020300000F35A4301FB01F392FBF3F2B74B93F821
:102040002230C3F164031A4442430A2392FBF3F2A1
:10205000B24B93F821300A2505FB032212B2B14B93
:1020600023F81420AC4AB2F84221AB4BB3F840310C
:10207000D21AAC4B33F914305A434FF47A7392FBB3
:10208000F3F2A54BB3F840311A4412B2A54B23F832
:102090001420601CC4B20C2CB1DBA049087803F0FA
:1020A0009DFC06F0AFFC70BD10B5FFF765FFFFF7B4
:1020B00088FF10BD2DE9F047074688464FF000091C
:1020C0004A209549087040F2C4404880BE200871FB
:1020D000EF2081F8C204002081F8C304B8F1000F9A
:1020E0000CD091F8C01401EB81128949323101EB17
:1020F00082004FF48272894910F081FA864C03E025
:10210000207880EA0909641C87488442F8D3824811
:1021100080F8C3940FF077FE4FF0030A1EE03420DE
:1021200010F07FF87B480FF0A9FE80480FF0A6FE64
:102130000646002507E0784A5159764AA8180FF05C
:102140003CFF06462D1D40F2C440854201D2042EBC
:10215000F1D0042E00D104E0AAF1010ABAF1000F77
:10216000DDD100BF0FF05BFE042E02D1FFF7E0FED1
:1021700010B90A200BF098FEFFF796FF27B1012255
:1021800014210F2002F0E8FABDE8F087624989685F
:102190000143614A9160704700205F498860704741
:1021A0001CB563A103C9CDE9000140F2C4415A48FE
:1021B00010F03EFA4FF48271584810F039FA4A2074
:1021C0005549087003204871FFF7E6FF0220FFF72A
:1021D000DDFF0020504981F8C0044FF41670A1F8CB
:1021E0006201FA20A1F864012A20A1F86001002010
:1021F000A1F86A0100214848A0F86C11A0F86E11FE
:102200000020454981F8530181F8540181F85501B6
:10221000A1F85601A1F85801A1F85A0181F85D0111
:1022200081F85E014FF4FA70A1F86801012081F88D
:102230005C01202081F866014FF4C870A1F8780194
:102240006E2081F87D012B2081F87E01212081F80C
:102250007F01232081F88001002081F8810181F82D
:102260008A0181F88B0181F8AE0181F8AF0181F814
:10227000B00140F2DC50A1F88E0140F24C40A1F8D0
:10228000900140F26C70A1F89201002081F8940155
:10229000012081F8950181F8960140F27E40A1F875
:1022A000400140F23A70A1F842014FF47A70A1F86F
:1022B000440140F27E50A1F8460140F2EA50A1F8F4
:1022C000480140F2B450A1F84A013220A1F84C0173
:1022D000C000A1F84E013220A1F85001052081F87C
:1022E0007601002081F89E0181F89F014FF4E130D2
:1022F000C1F8A4014FF41650C1F8A801002081F8DC
:10230000AC0181F8AD0140F6AC5015E0C04C0108BD
:10231000FA05002000F80108780400203C0900209C
:10232000440C0020520C00203C09002000FC010855
:102330001E1E64646464646488810020887381F86C
:10234000970140F6FF70A1F89A010020A649087095
:10235000282048701E20C872172048752821A248DE
:1023600081701E210173172181755521C1702D21A6
:1023700041730021C1753221017100218173017601
:102380000B2141710021C173417614218171082113
:1023900001742D2181760E21C171142141745021C7
:1023A000C1765A2101720A218174642101772821A2
:1023B0004172782181722D210175012181775A2086
:1023C0008949C877412081F82000002081F8250044
:1023D00081F8260040F2DC500885322081F8210087
:1023E000002081F82200888500217F48C1850020D7
:1023F0007D494885042081F83000282081F831008B
:1024000081F83200152081F8330078484863784815
:1024100088637848C86378480864012081F84400DC
:10242000192081F8450075A0FFF76DFD00206E4969
:1024300081F8760081F87700282081F87800012063
:1024400081F87900002081F87C004FF44870A1F8F1
:102450007A000A2081F8CE00C82081F8CF004FF41E
:102460009660A1F8D00040F2D930A1F8D200002443
:1024700021E04FF47F7104EB84025B487E3020F84A
:1024800012104FF4FA6104EB840200EB4200418029
:1024900040F2DC5104EB840253487E3000EB4200F2
:1024A00081801DF8041004EB84024F487E3000EB5D
:1024B00042008171641C082CDBDB01204A4981F851
:1024C000D40081F8D50081F8D600C820A1F8D80042
:1024D000142081F8DA001E2081F8DB00012081F849
:1024E000DC006420A1F8DE004FF49670A1F8E00053
:1024F0002820A1F8E2004FF07C50C1F8E400C1F8B8
:10250000E8001420A1F8EE000F20A1F8F000A1F8D7
:10251000F200A1F8F40040F26C70A1F8F60040F26D
:10252000DC50A1F8F80040F21450A1F8FA0008209D
:10253000A1F8FC004FF07E50C1F800015220324952
:1025400081F8C104002406E000212F48103000EB80
:1025500004100160641C0C2CF6DB00240AE004EB80
:1025600084122A4901EB82004FF482721E4910F056
:1025700046F8641C032CF2DB1CBD10B50446FFF7C3
:10258000D7FC00B12CB1FFF70BFE00210846FFF786
:1025900091FD10BD01461E480068084008B10120A9
:1025A00070470020FCE71A4909680143184A116086
:1025B0007047174909688143154A116070471448EC
:1025C00000687047014610488068084008B1012043
:1025D00070470020FCE70C49896881430A4A9160F2
:1025E00070470948806870473C0900209A99193F54
:1025F000F6287C3F3D0A773F0000A04041455452F9
:102600003132333400000000780400202C06002012
:10261000080000202DE9F041FE4991F8450010F036
:10262000D8F98046FC4910F0E9F8064611F03CF86C
:102630000546FA48008810F0CCF90746294610F004
:10264000DDF8044611F0EEF800B2F5490880F348D1
:10265000008810F0BEF905462946F24810F000F94E
:102660000446F14910F0FCF8F0490860E949B1F876
:102670007A0010F0AEF905462946ED4810F0F0F862
:102680000446EC4910F0BAF8EB490860E148016CE7
:10269000EA4810F0B3F8044621464FF07C5010F0A1
:1026A000DFF8E74908600820FFF774FF08B104F07D
:1026B0003AFEBDE8F081002801DD024600E042421A
:1026C0008A4201DA002006E0002801DD401A02E01B
:1026D000002800DA084470472DE9F04F95B0054610
:1026E0000C4695E8070012AB07C3206810F0DCFF2A
:1026F0000890206811F0A2FB0746606810F0D4FF34
:102700000646606811F09AFB8046A06810F0CCFF86
:102710008246A06811F092FB83465046089910F05B
:102720006DF807905846089910F068F806905146E1
:10273000384610F063F805905946384610F05EF8B8
:1027400004903146504610F059F8099086F000493F
:102750005946484610F052F80A90CDF82C80414670
:10276000059810F04BF8814606990FF0EFFF0C909A
:102770004146049810F042F88146079910F03BF862
:102780000D9087F000493146484610F037F80E901A
:102790004146079810F032F88146049910F02BF862
:1027A0000F904146069810F029F8814605990FF0E0
:1027B000CDFF10903046089910F020F811900F9935
:1027C000149810F01BF803900C99139810F016F859
:1027D00002900999129810F011F8019002990FF0E7
:1027E000B5FF814603990FF0B1FF28601099149846
:1027F00010F004F803900D9913980FF0FFFF02906A
:102800000A9912980FF0FAFF019002990FF09EFFBB
:10281000814603990FF09AFF6860119914980FF0A0
:10282000EDFF03900E9913980FF0E8FF02900B99BB
:1028300012980FF0E3FF019002990FF087FF814695
:1028400003990FF083FFA86015B0BDE8F08F2DE964
:10285000F04387B004460025204610F0BAF806463B
:1028600078490FF0CBFF05467748006880F00040BC
:1028700004907548406880F0004005907348B0F9B6
:10288000000010F09DF880F00046634930460FF0DC
:10289000B5FF06906E49B1F9000010F091F8019073
:1028A0006B49B1F9020010F08BF802906849B1F958
:1028B000040010F085F8039004A901A8FFF70CFFAD
:1028C000544890F84400012828D162484078B8B9AB
:1028D00061490868C11700EB91615F4A1268A2EB79
:1028E000A1115D4A11601046006810F069F80746B2
:1028F00003990FF02BFF064610F081F85649086047
:1029000055480668F11706EB9161881110F058F8E8
:10291000074603990FF06FFF039008E03F480088D7
:1029200010F057F8064603990FF065FF03904B49E6
:10293000039809680FF05CFF80462946404800680C
:102940000FF004FF8146494628460FF089FF0746ED
:1029500041460FF053FF06464048016830460FF0ED
:10296000F5FE3E490860019810F05CFF06462948D4
:1029700090F832103046FFF79EFE39490968084446
:1029800037490860029810F04DFF0646214890F83C
:1029900032103046FFF78FFE31494968084430490C
:1029A00048602E48006810F03DFF0646194890F830
:1029B00031103046FFF77FFE2949896808442849CD
:1029C0008860284800682044264908602648006836
:1029D000401C2549086007B0BDE8F0832DE9F04FA1
:1029E00087B004461849086810F05EFE0690164944
:1029F000086811F023FA05901349486810F054FE56
:102A000004901149486811F019FA0390A0680399DD
:102A10002CE000003C09002035FA8E3CFA01002031
:102A20002C0000200AE81C4100401C4670000020D9
:102A3000000061444C3D0F4474000020DB0F49400E
:102A400078000020BD3786358C000020FC01002076
:102A5000180000200C0C0020980000209C00002092
:102A6000400A002024000020280000200FF0C6FEAD
:102A7000834606990FF0C2FE8146606805990FF003
:102A8000BDFE019003990FF0B9FE834620680499BA
:102A90000FF0B4FE594602900FF058FE82464946A8
:102AA0000FF054FE0646A06805990FF0A7FE814678
:102AB000606806990FF0A2FE824649460FF098FE24
:102AC00007463146384610F0C1FCFD4902900FF030
:102AD00095FE8346FB490FF0C3FE8246FA48016823
:102AE00050460FF033FE8146F8490FF0B9FE80469C
:102AF000404610F097FE05B2002D02DA05F5B470DD
:102B000005B2284607B0BDE8F08F2DE9F05F044616
:102B10000D46A16808460FF071FE814661680846BF
:102B20000FF06CFE8246216808460FF067FE834670
:102B300051460FF00BFE804649460FF007FE074650
:102B400011F040FA0646002130460FF0A5FF0ED0E6
:102B5000314620680FF084FE2860314660680FF02F
:102B60007FFE68603146A0680FF07AFEA860BDE87D
:102B7000F09F2DE9F04F87B000250BF0ACF806462A
:102B8000D3480068301A069006980FF022FF0746D7
:102B9000D048C16838460FF031FE0590CC48066039
:102BA00000245CE0CC4931F914000FF009FF07461E
:102BB00005990FF023FE02A941F82400C74890F8B8
:102BC000300000283CDDC54991F830000FF001FFCE
:102BD000834659464FF07E500FF042FE8146C04971
:102BE00031F914000FF0ECFE824649460FF006FE64
:102BF0000746BA4991F830000FF0EBFE834659467C
:102C00004FF07E500FF02CFE82464FF07E510FF0B9
:102C1000F2FD8146B34850F8241048460FF0EEFD0F
:102C2000804639460FF092FDAE4941F8240051F834
:102C300024000FF0E4FE00B2AB4921F8140005E0D7
:102C4000A74830F81400A84921F81400A64830F924
:102C50001400A54931F9141000FB0155641C032C24
:102C6000A0DB64206843A1490988494390FBF1F542
:102C700002A99F48FFF730FDA8B2482835DDA8B269
:102C8000852832DA00242EE09A49B1F862010FF06B
:102C9000A0FE82464FF07E510FF058FD8146494616
:102CA0004FF07E500FF0DCFD07468F4931F91400DC
:102CB0000FF086FE82468F49B1F862010FF089FE5F
:102CC00083468B4850F8241058460FF097FD8146F4
:102CD00051460FF03BFD804639460FF08FFD844989
:102CE00041F82400641C032CCEDB8348B0F90000BB
:102CF0000FF066FE07467E48816838460FF0CCFE2E
:102D000001D2012000E000207C494873784A916894
:102D1000506810F09BFB7A490860754A916890688A
:102D20000FF06CFD8246724A516850680FF066FDE4
:102D3000834651460FF00AFD074611F043F98046DD
:102D40006B48006880F000494146484610F07EFB21
:102D50006B49486008686B490FF050FD074610F05A
:102D600061FD00B2684908806549486865490FF00F
:102D700045FD074610F056FD00B263494880082023
:102D8000FFF708FCE0B302A96048FFF7A5FC0024A8
:102D90002EE05849B1F864010FF01BFE82464FF057
:102DA0007E510FF0D3FC814649464FF07E500FF024
:102DB00057FD0746564931F914000FF001FE8246CF
:102DC0004C49B1F864010FF004FE83464F4850F8B7
:102DD000241058460FF012FD814651460FF0B6FC04
:102DE000804639460FF00AFD484941F82400641C2A
:102DF000032CCEDB4548FFF7F1FD464908800DE086
:102E0000FFE702A94448FFF767FC43490846FFF77C
:102E10007CFE4148FFF7E2FD3E4908800698FFF737
:102E200016FD2E4890F87C0000287FD0304A91682B
:102E300090680FF0E3FC2E4A0190516850680FF043
:102E4000DDFC83462A4A116810680FF0D7FC59460A
:102E500000900FF07BFC824601990FF077FC8146D1
:102E600011F0B0F807462249886839460FF0F8FC9F
:102E700080462A4940460FF00FFE03D8002028491B
:102E8000088064E0404610F053FA82462548016805
:102E900050460FF0B3FC814610F0C4FC0746B7F56E
:102EA000617F01DD4FF4617738460FF089FD1E49DF
:102EB00000900FF0D5FC834610F0C0FF824636E04C
:102EC0000000E144DB0F49406C000020000020417D
:102ED000AC000020B40D00200C0000203C090020B4
:102EE00012000020640A002018000020FA010020CF
:102EF0004C0A0020780400202C0000200C0C00203C
:102F00008C0000204C3D0F4488000020580A00200F
:102F10001E000020FC010020A00000208FC2753C94
:102F20006800002074000020EFB6B04410E0FE49B5
:102F300091F87C000FF04DFD514601900FF05EFCC2
:102F4000814610F06FFC00B2F849088000BF00BF56
:102F500007B0BDE8F08F10B504F0DDF90220FFF7EF
:102F600019FB20B104F04AF8FFF703FE04E000204B
:102F7000EF49088048808880EE484079012812D1C6
:102F8000ED48B0F90410ED48B0F9000001EB400045
:102F9000032190FBF1F000B2E9498880084680885F
:102FA000E649088003E0E4488088E5498880E248F3
:102FB0000088E3490880E0484088488010BD002030
:102FC000E049086048608860DF490860DF490860C0
:102FD00070472DE9F04F89B00AF07DFE0890DC487B
:102FE000B0F90000002803DDD948B0F9000003E083
:102FF000D748B0F900004042D549B1F90210002984
:1030000003DDD349B1F9021003E0D149B1F902104F
:10301000494288420DDDCE48B0F90000002803DDAA
:10302000CB48B0F9000011E0C948B0F900004042B7
:103030000CE0C748B0F90200002803DDC448B0F92D
:10304000020003E0C248B0F90200404206B2C149A2
:1030500008980968471A46F2A810874203D2002050
:1030600009B0BDE8F08FBB4908980860BA480088ED
:10307000002841DDB9490868C11700EB5171B74A12
:103080001268A2EBE101B54A1160A74890F833003D
:10309000401EB3490968B1FBF0F0114609680844C5
:1030A000114608600846D0F800B04FEAEB710BEB10
:1030B0005171C8100FF084FCAA4900900FF0D0FBAA
:1030C000A949019010F0C8FB4FF07E5102900FF01B
:1030D00092FBA64903900FF091FB04900FF08FFC38
:1030E000A34908600020A3490860A34908609A48E2
:1030F0000088401E984908808B4890F83300401E95
:1031000097490968B1FBF0F000900FF062FC83462C
:1031100094490FF0A5FB9449019010F09DFB4FF0EE
:103120007E5102900FF067FB904903900FF066FB11
:10313000049010F077FB06908D4906980968401AB4
:1031400006907948416B4FF07E500FF051FB029092
:1031500006980FF035FC019002990FF04FFB049098
:10316000864800680FF02CFC02906F48416B029873
:103170000FF044FB039004990FF0E8FA834610F037
:1031800051FB7E490860FA2E04DD4FF0FF307C4988
:10319000086018E030460FF013FC7A4901900FF0F8
:1031A0002AFB0390764800680FF00AFC029003990E
:1031B0000FF024FB734904900FF052FB83460FF08D
:1031C0001EFC6F4908606E48006800280FDD6C48DF
:1031D0000068C8280BDA6948006869490968401A1C
:1031E00069490860664800686449086039E06348D6
:1031F000006865490968401A6049086060480068CD
:1032000000282EDD5E490968C1F596700FF0D8FBE5
:1032100083465E490FF024FB5D490860084601685B
:103220004FF07E500FF0E4FA0290544800680FF01F
:10323000C7FB019002990FF0E1FA04905048006832
:103240000FF0BEFB02905248016802980FF0D6FAC8
:10325000039004990FF07AFA83460FF0D0FB4749A8
:1032600008603A4800680FF0B4FB834649490FF004
:10327000C5FA0590344800680FF0A2FB8346314937
:1032800088680FF09DFB594604900FF0E9FA8246DA
:103290002E4800680FF09DFB83463F48016850466A
:1032A0000FF0ACFA594604900FF0A8FA8146314865
:1032B000059900680FF0A2FA4FF07C510390484640
:1032C0000FF09CFA029005990FF098FA8346039943
:1032D0000FF03CFA04902848016804980FF036FA81
:1032E000254908601048C16B4FF07E500FF080FAFE
:1032F0000390224800680FF063FB029003990FF0DF
:103300007DFA83460848C16B1B4800680FF076FAC7
:10331000594604900FF01AFA1749086018480068D7
:10332000002843DD164839E03C09002068000020F1
:1033300012000020780400200C00002094000020DF
:103340007C000020400A00202800002024000020EB
:1033500088000020B0000020F6010020C8000020F6
:103360003800002080E6C547B1DC423ED048874A9D
:10337000C4000020B8000020BC0000203C00002059
:103380004800002000006144440000200000C842C2
:1033900040000020BD378635700000200068C82836
:1033A00004DA704800687049086005E06F480068FA
:1033B0000FF025FB6C49086049466D4800680FF026
:1033C000C5F96B490860FFF7FAFD38460FF001FBBD
:1033D000644904900968674A1268881A0FF0F0FA85
:1033E000654902900FF00AFA039004990FF038FA39
:1033F00083460FF004FB07905A4800685D49086057
:1034000040F2DC525142079807F04AFA07900A212D
:103410000798FFF750F907905848816B4FF07E509E
:103420000FF0E6F9039007980FF0CAFA029003999B
:103430000FF0E4F983465148816B4D4800680FF066
:10344000DDF9594604900FF081F9494908600846B2
:10345000006810F0E7F9804605214046FFF72BF998
:1034600047490860B6F5487F73DA46480078F8B9EE
:10347000454909683C4A1268881A4FF4FA72514269
:1034800007F00EFA04460A212046FFF714F9044615
:103490003A48007900FB04FB4FEAEB710BEB5161FA
:1034A000C8114FF49672514207F0FAF9054601E04F
:1034B00036480568A5EB08043048807A00FB04FB19
:1034C0004FEAEB710BEBD16148114FF49672514208
:1034D00007F0E6F92E4908602848007D2D49096863
:1034E00000FB04102B4908602B4A51422948006810
:1034F00007F0D6F9274908600846006842F204013F
:1035000090FBF1F0224909680844214908602348EA
:10351000016850460FF01AF918490290887F0FF0A1
:1035200058FA019002990FF069F983464FF08841EB
:103530000FF096F903900FF062FA96225142049030
:1035400007F0AEF912490968081A1149086003E04A
:10355000FFE700200E4908601048C0F800A00120D5
:103560007EE500003C0000204C000020BC00002054
:10357000B8000020C0000020002474493C0900204D
:10358000640000205C00002054000020580000204F
:10359000500000206000002020031900B40000202B
:1035A00070B504460D4600BFF94908680CF03CFCB4
:1035B0000028F9D0E1B2F64A10680CF005FC20466C
:1035C00070BD88B00025FEF79DFC0020FEF7D5FFFA
:1035D000FEF7D2FCEF49897B09B1012100E000210F
:1035E00008460CF0F4FDEC480068EC49884203D131
:1035F0000120EB49086007E0E7480068E949884294
:1036000002D10220E64908600AF0A4FB0820FEF778
:10361000D9FF58B1DF4890F88A0110B1012804D1D0
:1036200000E000BF06F068FF00BF00BF64200AF0A2
:103630002FFCFEF7C6FC0BF0ECFE022806D1D848A2
:103640000068022802D10320D5490860D4480068E8
:10365000032802D0012009F058FBCE4890F88101E0
:10366000002814DDCB4890F88101012809D0C94811
:1036700090F88101092804D0C64890F881010528F6
:1036800005D1C44890F881018DF8040005E00020C0
:103690008DF80400BF4981F88101BE4890F8980177
:1036A00000281CDDBB4890F89801012809D0B948D2
:1036B00090F89801092804D0B64890F89801052898
:1036C0000DD1B44890F89801B24991F8811188421F
:1036D00005D0B04890F898018DF8050005E000206D
:1036E0008DF80500AB4981F8980101A808F072FD3A
:1036F0000220FEF767FF08B103F00BFB07F0EFF8BD
:103700000E20FEF750FF03F057F9054615B90320C8
:103710000AF0CAFB1020A44908600820091F0860AD
:1037200000241AE0A0480838006880F010009E4984
:10373000083908600846006880F008000860192011
:103740000AF0A6FB01200AF0E6FA19200AF0A0FB15
:1037500000200AF0E0FA601CC4B20A2CE2DB082068
:103760009149091F086010200860FEF753FF00F020
:10377000AFF98849D1F8A40103F09BFF854840794F
:103780000E2807D083484079082803D08148407923
:10379000182803D101208DF80E0002E000208DF8DA
:1037A0000E004FF48070FEF70DFF18B90820FEF7E9
:1037B00009FF08B1012000E000208DF80A00402038
:1037C000FEF700FF8DF80B000120FEF7FBFE8DF8E1
:1037D00009000820FEF7F6FE80F001008DF80800D1
:1037E0006B48807D8DF80C00704890F8D600C0F3CF
:1037F00080008DF80D006748B0F84E01ADF812005A
:103800006448B0F85001ADF81400624890F85201D5
:103810008DF80F004FF47A70ADF816004FF4804029
:10382000FEF7D0FE20B15B48B0F84A01ADF81600B3
:10383000BDF81200B0F5FA7F02DD0020ADF81600E9
:103840004FF48030FEF7BEFE8DF81C004FF40030C0
:10385000FEF7B8FE8DF81D004E48B0F88E01ADF8A9
:1038600018005248B0F8D200ADF81A00494890F854
:103870008101012802D0092808D103E001208DF838
:10388000100007E007208DF8100003E000208DF8FD
:10389000100000BF00BF02A80AF0ECF89DF81E005F
:1038A0003B49C8759DF81F000876002406E040F2E9
:1038B000DE503F4921F81400601CC4B2122CF6DB24
:1038C0003C483D490860082031494875FEF77AFEBA
:1038D000F8B1304890F88A01062819D2DFE800F0E4
:1038E0000304080C101400BF334806F0D1FD0FE0AC
:1038F000314807F0EFF90BE02F4807F0CBFA07E06B
:103900002D4807F0B1FF03E02B4808F0DCFB00BFB7
:1039100000BF204991F89F0105F0EDF80120FEF766
:1039200051FE30B14FF48060FEF74CFE08B103F059
:10393000AEFD4020FEF746FE58B1164A92F8AC1193
:10394000D2F8A8010CF034F9124991F8AD010CF04D
:103950004DF94FF40060FEF735FE08B107F0CCFDDD
:103960000AF0B9F9154908600A484079052803D1D9
:103970004FF4C870124908804FF47A7011490880DA
:10398000C8201149088001201049487322E0000036
:10399000700A0020780400201404002000127A002D
:1039A000CC000020001BB700140C01403C09002093
:1039B000200C00202D4D000818010020F4000020EC
:1039C000F4010020F8010020F60100200C0C00207A
:1039D00002F019F8FCE70449B1F8441108B200F00C
:1039E000BEFA00BFFEE7000078040020014601EBAC
:1039F0008102F74800EB4200B0F9040012280CDA0B
:103A000008290ADA01EB8102F14800EB4200B0F923
:103A10000400F04A32F91000704701EB8102EC48D3
:103A200000EB4200B0F90400F6E7024602EB820325
:103A3000E74800EB4300008901238B40184010B198
:103A40004FF0FF3070470120FCE710B50020E2493D
:103A500008707021E1480EF0EBFD00241BE0C4EB80
:103A6000C401DF480844807800B916E0C4EBC40004
:103A7000DA490144C4EBC402D948104402680A6020
:103A800082888A8080798871D3480078401CD24926
:103A90000870601CC4B2102CE1DB00BF10BD10B573
:103AA000002412E04FF48040FEF78CFD20B1CC489A
:103AB000D038B0F84A0103E0C948D038B0F8440122
:103AC00000B2C84921F81400641C0C2CEADB10BDBC
:103AD00070B5C348D0384079C34901EBC000407885
:103AE00008B1012000E00020C04988752020FEF7C1
:103AF00069FD10B10120BD498875B948D0384079B9
:103B0000172823D100241EE0B549C03901EB041168
:103B1000086800210EF0C0FF00D116E0B44800EBA9
:103B20000411AF48C03800EB0413D3E90152186800
:103B3000DB68C1E90152CB600860AE480078401CE8
:103B4000AC490870641C0C2CDEDB28E0A448D0389B
:103B50004079A54911F83000A6490870A048D0382E
:103B60004079A14901EBC0004068C0B1002412E0D7
:103B70009B48D03840799C4901EBC000406800EB7D
:103B800004139B4800EB041093E82600DB6880E8F0
:103B90002600C360641C974800788442E8DB9348A1
:103BA000807D50B38E48D0384079934911F8300069
:103BB000894908708A48D03840798F4901EBC000A4
:103BC0004068D0B1002414E08548D03840798A4953
:103BD00001EBC0004068C4EBC4010844C4EBC4015D
:103BE0007E4A114402680A6082888A8080798871DE
:103BF000641C794800788442E6DB4FF48040FEF78D
:103C0000E1FC70B37B48007801282ADD002424E021
:103C1000774901EB041188684FF07C510EF0EEFDFE
:103C2000734901EB04118860714901EB0411486884
:103C30004FF07C510EF0E2FD6D4901EB041148603C
:103C40006B4901EB0411C8684FF07C510EF0D6FDB2
:103C5000674901EB0411C860641C6648007884421F
:103C6000D6DB5F48D0384079082809D05C48D03886
:103C700040790E2804D05A48D038407918280AD103
:103C800001205E4908745648D0384079182805D17B
:103C9000FFF7DBFE02E0002058490874FFF7FFFE43
:103CA00070BD10B50146491C002014E00022C0EB95
:103CB000C0044B4B23449A71C0EBC004484B2344CF
:103CC0009A70C0EBC004464B23445A70C0EBC0044A
:103CD000434B1A55401C1028E8DB002011E0464AEF
:103CE00002EBC1025268C0EBC0031344C0EBC00436
:103CF0003B4A22441C6814609C8894809B79937191
:103D0000401C3D4A12F831208242E8DC10BD70B5FB
:103D10000146491C002006E00023314AC03A02EB6C
:103D200000121360401C0C28F6DB2F4A02EBC10284
:103D30005268BAB1002010E02B4A02EBC10252686F
:103D400002EB0013264AC03A02EB001293E870001F
:103D5000DB6882E87000D360401C234A12F83120EF
:103D60008242E9DC70BD10B52048807D00B910BDED
:103D70001B48D03840790E287DD008DC01281AD0A5
:103D800004280BD005284CD0082872D163E01428F1
:103D900054D0152870D01828F7D186E0184800892B
:103DA00081B2002009F053FF1548408981B20120FB
:103DB00009F04DFFBFE006487E3890F8D50030B1DD
:103DC0000F48408981B2002009F041FF28E019E046
:103DD000BA090020200C0020D10000207C0B00201C
:103DE00048050020A40A00209C510108700A002008
:103DF000BC0A0020D0000020085301080C0C002051
:103E0000D2000020FB48407830B1FB48408981B2A5
:103E1000002009F01CFF03E00021084609F017FF0D
:103E200089E0F548008881B2002009F010FFF248CF
:103E3000408881B2012009F00AFF7CE0EE48008949
:103E400081B2002009F003FFEB48408981B20120D4
:103E500009F0FDFE6FE0E848C08881B2002009F05B
:103E6000F6FEE548008981B2012009F0F0FE62E02B
:103E700001E04FE000E000BFDF48C08881B20020D1
:103E800009F0E5FEDC48008981B2012009F0DFFE7F
:103E9000D948408981B2022009F0D9FED6488089EC
:103EA00081B2032009F0D3FE45E0D348C08881B237
:103EB000002009F0CCFED048008981B2012009F031
:103EC000C6FECD48408981B2022009F0C0FECA4832
:103ED000808981B2032009F0BAFE0120FEF772FB4F
:103EE000B8B1C548008881B2042009F0B0FEC248CC
:103EF000408881B2052009F0AAFEBF48808881B2BF
:103F0000062009F0A4FEBC48C08981B2072009F050
:103F10009EFE10E02020FEF755FB58B1B648008801
:103F200081B2002009F093FEB348408881B201209D
:103F300009F08DFE00BF00BF00BF18E710B50024D8
:103F400008E0AE4830F8140081B2204609F072FE55
:103F5000601CC4B2AA4800788442F2DB10BD70B580
:103F60000546002404E0A54820F81450601CC4B2A3
:103F7000A34800788442F6DBFFF7E0FF70BD2DE92F
:103F8000F04F87B09B48807A60B19E480088ADF8BA
:103F900004009C484088ADF806009A488088ADF837
:103FA00008000BE098480088ADF804009648408867
:103FB000ADF8060094488088ADF808008F48008866
:103FC000ADF80A009148B0F88E0191490989401A6C
:103FD00000B2ADF80C008D48B0F88E018C494989CB
:103FE000401A00B2ADF80E008848B0F88E0188493A
:103FF0008989401A00B2ADF810008448B0F88E01EB
:104000008349C989401A00B2ADF812007F48B0F860
:104010008E017F490988401A00B2ADF814007B4830
:10402000B0F88E017A494988401A00B2ADF81600FE
:104030007648B0F88E0176498988401A00B2ADF80A
:1040400018007248B0F88E017149C988401A00B250
:10405000ADF81A00002405E00020674921F814009B
:10406000601CC4B2082CF7DB0024BBE0C4EBC40026
:1040700068490844807940B1C4EBC40008448079A1
:1040800014306549085C00287ED0C4EBC400614947
:104090000F5CC4EBC4000844457807EB87015F4818
:1040A00000EB4100418807EB87025C4830F81200C2
:1040B000081A86B2C4EBC401564A114491F904109F
:1040C0007143642291FBF2F1304606EBD072A1EB12
:1040D00062010FFA81F8C4EBC4014E4A114491F910
:1040E00005107143642291FBF2F106EBD072A1EB53
:1040F00062010FFA81F9C4EBC40046490844C07854
:1041000030B901A830F81500454921F8140042E003
:10411000434830F9140001A931F91510884218DA22
:104120003F4B33F91430C4EBC40CDFF8E8A0D4449F
:104130009CF803C003EB0C0001AB33F91520384B9E
:1041400033F9141006F0ACFB00B2354921F8140025
:1041500021E0334830F9140001A931F915108842E3
:1041600019DD2F4B33F91430C4EBC40CDFF8A4A0D5
:10417000D4449CF803C0A3EB0C00294B33F9142062
:1041800001AB33F9151000E026E006F089FB00B220
:10419000234921F8140029463846FFF746FC834698
:1041A0001F4830F91400C4EBC4011A4A114491F9B4
:1041B00002104843642190FBF1FA4A4641465046BA
:1041C00006F06EFB0C4931F917100BFB001000B222
:1041D000094921F8170003E00020114921F81400D3
:1041E000601CC4B20F4800788442FFF63FAF002441
:1041F00039E000000C0C0020D20000208C0A0020C6
:10420000D00000200E0100202A01002078040020A8
:10421000200C00207C0B00206A0C0020BA09002032
:10422000EC0B0020D100002004EB8401FE4800EBE1
:10423000410090F90600FD4931F91410484364210A
:1042400090FBF1F000B2F94921F814002046FFF785
:10425000CDFBF64931F81410084400B2F34921F8B7
:104260001400601CC4B2082CDEDB07B0BDE8F08F80
:104270002DE9FC5FEE480078032826DDED4BB3F90D
:104280000430002B03DDEB4BB3F9043003E0E94BC2
:10429000B3F904305B4203F16402E64BB3F9043036
:1042A000002B03DDE34BB3F9043003E0E14BB3F93A
:1042B00004305B426FF06306F11ADF4BB3F9040080
:1042C00006F0EEFA00B2DC498880D948007801286F
:1042D00057DD002451E0D4497E3991F9D410494288
:1042E000D54AB2F9042001FB02F00EF069FB8146C9
:1042F000D24800EB0410C16848460EF07FFA07462A
:10430000CD49B1F900000EF05BFB8246CB4800EBD3
:104310000410416850460EF071FA8146C649B1F961
:1043200002000EF04DFB0090C44800EB04108168C1
:1043300000980EF063FA8246BE49B1F906000EF00D
:104340003FFB0090BD4800EB0410016800980EF0A0
:1043500055FA834651460EF0F9F9494601900EF0A0
:10436000F5F9804639460EF0F1F906460EF047FBA6
:1043700000B2B34921F81400641CAD4800788442AF
:10438000A9D3B048007CB0B1AE48407830B9AE484F
:10439000B0F8440100B2AA4908800CE0AA4BB3F877
:1043A0004221B3F84011A34BB3F9060006F078FAA6
:1043B00000B2A3490880A44840790E2811D008DC37
:1043C000012810D004280DD0052811D0082834D198
:1043D00006E0142808D0152807D018282DD100BFD2
:1043E00000BF00BF00BF00BF00BFFFF7C8FD24E053
:1043F0008D487E3890F984009449B1F90210484301
:10440000322190FBF1F30020FFF7F0FA184400B2DC
:104410008649088084487E3890F98E008B49B1F92E
:1044200000104843322190FBF1F30120FFF7DEFA40
:10443000184400B27D49488000BF00BF2020FEF72D
:10444000C1F8002875D00020FFF7D0FA774908801E
:104450000120FFF7CBFA754948807D48007AE8B320
:1044600071487E3890F8D60000F00200B8B36E486C
:104470007E3890F9840040427449B1F902104843F3
:10448000322190FBF1F168487E3890F98E006F4A36
:10449000B2F900205043322290FBF2F0081A63492F
:1044A0000988081A00B2614908805F487E3890F98F
:1044B000840040426549B1F902104843322190FB23
:1044C000F1F159487E3890F98E00604AB2F9002027
:1044D0005043322290FBF2F0084401E029E006E06C
:1044E00052494988084400B25049488021E04E486A
:1044F0007E3890F984005549B1F9021048433221C1
:1045000090FBF1F049490988084400B24749088006
:1045100045487E3890F98E004C49B1F90010484367
:10452000322190FBF1F041494988084400B23F49EB
:104530004880002415E004EB84063B4B03EB460364
:10454000B3F9022004EB8406374B33F91610374BCE
:1045500033F9140006F0A4F900B2344921F814002C
:10456000641C082CE7D330487E3890F8D60000F061
:10457000040088B13748007E061F002409E0221D90
:10458000354B33F8122091B2A219D0B209F05FFB7B
:10459000641C042CF3D300BF2948B0F90050012457
:1045A00008E0274830F91400A84202DD244830F919
:1045B0001450641C1E4800788442F2D30024B4E0F6
:1045C0002148B0F84201A8420BDA1D4830F8140027
:1045D0001D49B1F84211691A401A00B2184921F870
:1045E00014004FF48040FDF7EDFFE0B11A48B0F938
:1045F00006001549B1F88E1188423CDD124BB3F824
:104600004221B3F848110E4B33F9140006F048F973
:1046100000B20B4921F814000B48407901287AD1E7
:10462000014B7E3B1AE046E0BA090020D200002090
:10463000D00000200E0100202A010020BC0A00202A
:104640008C0A00200C0C0020780400208800002038
:104650006A0C0020700A0020200C0020B3F9B22060
:10466000B3F9B010344BB3F90A0006F019F900B2EF
:10467000314948814FE0314BB3F84621B3F844113A
:104680002F4B33F9140006F00BF900B22C4921F836
:1046900014002A48407901283DD12A4BB3F9B020B3
:1046A000B3F9B210244BB3F90A0006F0F9F800B2DE
:1046B000214948812FE0214BB3F84221B3F8401142
:1046C0001F4B33F9140006F0EBF800B21C4921F837
:1046D00014001D48B0F906001849B1F8901188423D
:1046E00016DA1020FDF76EFF38B91448B0F8400113
:1046F00000B2134921F814000DE01048B0F844014D
:1047000000B20F4921F8140001201049487402E05A
:1047100000200E4948740D48407828B90C4830F8FC
:104720001400074921F81400641C0A4800788442E8
:10473000FFF446AFBDE8FC9FD200002078040020C3
:104740008C0A00203C090020200C00200C0C0020CA
:10475000A40A0020D00000202DE9F04104460D46B7
:1047600016464FF000081BE0002710E0FE480068E6
:1047700080F00800FC490860012009F0CCFA2846C6
:1047800009F086FB002009F0C6FA781CC7B2A742E0
:10479000ECDB3C2009F07CFB08F1010000F0FF0895
:1047A000B045E1DBBDE8F0812DE9F04F85B0EF4881
:1047B000B0F90600EE49098D884202DA4FF064082C
:1047C0001DE0EA48B0F90600B0F5FA6F12DAE748E2
:1047D000B0F90600E649098D401AE54991F826101E
:1047E0004843E349098DC1F5FA6190FBF1F0C0F14E
:1047F000640804E0DE4890F82600C0F16408002454
:10480000C7E0DA4830F91400DA49B1F88E11401ADD
:10481000002807DDD54830F91400D649B1F88E11CB
:10482000401A06E0D348B0F88E01D04931F914108F
:10483000401AB0F5FA7F18DACC4830F91400CD49A7
:10484000B1F88E11401A002807DDC84830F914006D
:10485000C849B1F88E11401A09E0C648B0F88E0177
:10486000C24931F91410401A01E04FF4FA700546BC
:10487000022C3BD0BE4890F8760050B1BC4890F86E
:104880007600A84204DABA4890F876002D1A00E0C3
:104890000025642095FBF0F6B749701C31F9100033
:1048A00031F91610401A06EBC60101EB0611A5EB13
:1048B00081014843642190FBF1F0AF4931F81610B3
:1048C000084400B2AD4921F81400A9482330005D26
:1048D00068434FF4FA7190FBF1F0C0F16407B8B28D
:1048E00000FB08F0642190FBF1F726E0A04890F867
:1048F000770050B19E4890F87700A84204DA9C48AF
:1049000090F877002D1A00E000259A4890F95C0194
:104910004042684300B2994921F81400944890F845
:104920002500002D01DD294600E0694248434FF48F
:10493000FA7190FBF1F0C0F164078D48401C005DF6
:104940007843642190FBF1F08D49085588480B307D
:10495000005D7843642190FBF1F08A490855844852
:104960001530005D7843642190FBF1F086490855CD
:104970007E4830F914007F49B1F88E11884207DA79
:104980007E4830F81400404200B27C4921F81400FF
:10499000641C032CFFF635AF764AB2F89011734AC7
:1049A000B2F906004FF4FA6205F07AFF0546714845
:1049B000B0F89001281A4FF47A7148436D49B1F864
:1049C0009011C1F5FA61B0FBF1F5642095FBF0F6AA
:1049D0006E49701C31F9100031F91610401A06EBBF
:1049E000C60101EB0611A5EB81014843642190FB50
:1049F000F1F0664931F81610084400B25F49C880EA
:104A00006348407A002855D06249B1F90010624AE3
:104A1000B2F90020881A0DF0D3FF82465F490DF0ED
:104A2000EDFE81465E490DF01BFF049004980EF0E8
:104A30003BFE039004980FF001FA02904F49B1F940
:104A400000000DF0BDFF009002990DF0D7FE8246E8
:104A50004A49B1F902000DF0B3FF009003990DF03F
:104A6000CDFE834651460DF071FE81460DF0C7FF25
:104A700000B201904149B1F902000DF0A1FF009090
:104A800002990DF0BBFE82463C49B1F900000DF0E1
:104A900097FF009003990DF0B1FE834651460DF04B
:104AA000A7FE81460DF0ABFF00B2344908800198A3
:104AB000488000BF0220FDF785FD002853D039480B
:104AC0000068394909880844364908603748007841
:104AD000401CC0B235490870062190FBF1F201FB81
:104AE000120000286AD132490868C11700EB5171E1
:104AF0002F4A1268A2EBE1012D4A1160002007F055
:104B00000DFC2B490968084429490860D1F8009038
:104B10004FEAE97109EB5171C1F3CF0002F0C5F81A
:104B200024490880134890F88101002867DD224954
:104B30000868C11700EB51711F4A1268A2EBE1012E
:104B40001D4A1160022007F0E9FB1B49096808446F
:104B500019490860D1F800904FEAE97109EB5171E9
:104B6000C1F3CF002BE05DE00C0C0140200C0020D5
:104B70003C09002078040020440C00200E01002095
:104B8000200100202301002026010020520C0020DB
:104B90000C0C0020FC010020FA000020DB0F494033
:104BA00000003443B0010020F80000209C010020E8
:104BB000A0010020FC000020A40100201FE002F062
:104BC00092F8FE49086008460068FD4909684843B4
:104BD0004FF47A7190FBF1F0C117FA4AD2E9003232
:104BE000C0185141F74A03C2F74A0023F54903C9E7
:104BF0000DF0A6FCF54908600020F1490860F44872
:104C00000088F4490988884203DC012005F00AFD88
:104C100008E0EF480088F0490988884202DC022059
:104C200005F000FD05F0D0FDEC480088002803DD0C
:104C30000220FDF7AFFC18B9E9480088002806DD1E
:104C4000E848006880F00800E64908600FE0E648A0
:104C5000807818B10820E349091D0860E2484078CF
:104C600018B10820DF490831086006F02EFC8020CA
:104C7000FDF7A8FC70B1DD480068DD490968401AFD
:104C800008D4DA4800684CF250310844D84908602A
:104C900009F0AEFCD5480068D6490968401A15D419
:104CA000D148407B78B90020CF498870CD48006852
:104CB00080F00800CB490860CC480068CE49084421
:104CC000CC49086002E00120C749887003F087FDE5
:104CD000CA48007830B94FF40060FDF773FC08B1A2
:104CE00006F030FC2020FDF755FCA8B1BF48006855
:104CF000C3490968401A0FD4C248007805280BDB65
:104D0000BA480068C0490844BD490860B548006811
:104D100080F01000B3490860BC48806818B1BB48F7
:104D20008168BB48884705B0BDE8F08F10B50446E0
:104D3000B849085D08F095FF10BD70B50820FDF773
:104D400041FC68B1002408E0E0B2B3490968884733
:104D500000B2B24921F81400641C082CF4DB47E0CF
:104D600000243EE0E0B2AC4909688847054640F2BD
:104D7000EE20854203DB40F6CA00854202DDA848EA
:104D8000B0F88E5129B2A74A1068C21700EB927290
:104D90009210A0EB8202A44B03EBC40323F8121081
:104DA00000209E4921F8140000260DE09E4800EBEB
:104DB000C40030F81600994931F81410084400B2C4
:104DC000964921F81400761C042EEFDB934931F943
:104DD0001400C11700EB91718910904A22F8141049
:104DE000641C082CBEDB8F480068401C8D4908609D
:104DF00070BD10B57A48008808BB7B488078F0B158
:104E00007948407818BB0120774948708748B0F945
:104E10000000874908804FF48070FDF7D3FB50B144
:104E20007148C07A38B177480078052803DB07203D
:104E300005F0F8FB0BE0062005F0F4FB07E06A48FC
:104E4000407820B90122FF210220FFF785FC10BD28
:104E500010B56548407858B1002063494870052076
:104E600005F0E0FB7348006810B10020714908604C
:104E700010BD70472DE9F04F85B00027002003904A
:104E8000804602906C48B0F90200002803DD6A48B1
:104E9000B0F9020003E06848B0F9020040426649F8
:104EA000B1F90010002903DD6349B1F9001003E0F6
:104EB0006149B1F90010494288420DDD5E48B0F900
:104EC0000200002803DD5C48B0F9020011E05A48F6
:104ED000B0F9020040420CE05748B0F90000002849
:104EE00003DD5548B0F9000003E05348B0F9000075
:104EF0004042054600245AE13B48C07810B93A4880
:104F00000079E8B3022C47DA4C4B33F91430DFF860
:104F100028C13CF914C04FF0020E0EFB0C30404B80
:104F2000B3F86821B3F86831594205F0B9FC444937
:104F300031F91410411A434830F914000E18414851
:104F40002C38007A7043642190FBF1F73D482C38EF
:104F5000007F00EB80023B482C38007F404200EB92
:104F60008001384605F09CFC0746374951F824106B
:104F7000881942F21072514205F092FC324900E069
:104F80000AE041F82400084650F824002D492C3945
:104F9000897C4843001303901348C07820B112481D
:104FA000007908B9022C71D1234830F9140000EBC4
:104FB0008000010123482B38005D47E000010020FC
:104FC000B0010020A8010020407E0500040100205F
:104FD000FC0000207A01002078010020F40100206C
:104FE000F80100200C0C01400C0C0020F000002007
:104FF000B40100209801002020A10700000000203B
:10500000B801002038010020F0490200B40D002052
:1050100008010020FA05002018010020200C0020C3
:1050200078040020BC010020280D0020FC01002095
:10503000FA0000207C0100200E0100204401002025
:1050400088000020680900208001002091FBF0FA10
:10505000F74830F91400AAEB000AF64830F914803A
:10506000F54951F8241001EB0A004FF47A525142ED
:1050700005F016FCF04941F82400ED4830F9140021
:10508000002804DDEA4830F9140004E026E0E8488E
:1050900030F914004042B0F5207F10DC022C12D110
:1050A000E44830F91400002803DDE24830F9140028
:1050B00003E0E04830F914004042642803DD00209A
:1050C000DD4941F82400DC4850F824007D2190FBA4
:1050D000F1F0DA49095D484380110290D84800791F
:1050E000B8B1022C15DAC5F5FA70784308FB050053
:1050F0004FF4FA7190FBF1FBC5F5FA710398414347
:10510000029800FB05104FF4FA7190FBF1F0049047
:105110000BE0CB48C07828B1022C03DABB460398D9
:10512000049002E0C34602980490C14931F914107A
:10513000C44A125D51430A2291FBF2F0C11700EB01
:105140005171ABEBE10BBA4830F91400BE4931F9AB
:105150001410A0EB0109B64830F81400BA4921F840
:105160001400BA4850F82400B94951F824100844F2
:1051700000EB09010091B54850F82400B44941F80A
:105180002400B24840F82490B2490A5D009902FB1D
:1051900001F0C11700EBD161491101910498584405
:1051A0000199401A00B2AC4921F81400641C032C88
:1051B000FFF6A2AE05B0BDE8F08F2DE9FF5F002736
:1051C0000024A5E0022C0BD19C480B3890F8250058
:1051D0001B309849B1F904104843401103903EE058
:1051E000944931F914109D4A32F9142088184FF46B
:1051F000FA72514205F054FB994931F91410411AE1
:105200008E48213030F91400084400900DF0D8FB8E
:10521000944901900DF024FB02900DF0F0FB07463D
:105220008748C078A8B985481830005D1B3081498F
:1052300031F914104843001103908148007970B18E
:105240007E480B38807C7843039901EB2020039043
:1052500005E07A480B38007A7843001103907448CF
:1052600030F914100398451A74480A38005D6843F1
:105270004FEAE019704850F824107B4800886843D2
:10528000C2126E48005D02FB00106B4941F8240019
:1052900051F824004FF40012514205F001FB664919
:1052A00041F82400084650F824004FEA603A6F485D
:1052B00050F824002E1A6D4840F824506A4800889F
:1052C00000114FF6FF7191FBF0F0704386116848B2
:1052D00050F82400674951F82410084400EB0608F0
:1052E000634850F82400634941F82400604840F8BE
:1052F000246052480A30005D00FB08F04FEA202B82
:1053000009EB0A00584400B2534921F81400641C08
:10531000032CFFF657AFBDE8FF9F00B599B0002002
:1053200010900F900C9054481590544A01214E480B
:10533000008805F0B5FA07900DF042FB099050493E
:1053400009980DF05BFA0A900A9915980DF0FEF98C
:10535000014607900A980DF083FA179038480079B3
:10536000002863D03348B0F90200002803DD31483B
:10537000B0F9020003E02F48B0F9020040422D4985
:10538000B1F90010002903DD2A49B1F9001003E04A
:105390002849B1F90010494288420DDD2548B0F98D
:1053A0000200002803DD2348B0F9020011E0214883
:1053B000B0F9020040420CE01E48B0F9000000289D
:1053C00003DD1C48B0F9000003E01A48B0F9000002
:1053D0004042B0F5E17F63DA1648B0F902000028D8
:1053E00003DD1448B0F9020003E01248B0F90200EE
:1053F00040421049B1F90010002903DD0D49B1F90F
:10540000001003E00B49B1F900104942884239DD30
:105410000848B0F90200002803DD0648B0F9020090
:1054200040E00448B0F9020040423BE042E00000A6
:105430007C0000200E0100201C0D002047090020E8
:105440000C0C002020010020C0010020680D00206D
:10545000740D0020260100202A01002044010020B4
:105460008800002000002041F8000020980D002056
:10547000800D00208C0D0020AF4C593CA08601000F
:10548000BD378635FE48B0F90000002803DDFC4832
:10549000B0F9000006E0FA48B0F90000404201E02F
:1054A0004FF4E17006900DF08BFAF64907900DF07D
:1054B000D7F90C9000200B90A6E1F3490B9831F935
:1054C000100004900DF07CFAF04905900DF096F96B
:1054D00006900DF094FA079007980DF071FAEC49D8
:1054E00006900DF08BF91490E5490B9831F91000F6
:1054F00006900DF065FA1690E648C07818B9E548B0
:10550000007900287DD0E4490B9831F91000009013
:105510000DF056FA02904FF0804016990DF06EF99A
:10552000019002990DF012F903900DF068FA0490C1
:10553000DA48B0F868010390D848B0F868014042F2
:1055400002900146DDE9032005F0AAF9D44A0B993F
:1055500032F91110421AD3480B9930F91100104456
:1055600005900DF02DFA0D90CE482C38007A03905E
:105570000DF02FFA04900D990DF040F9CA490590ED
:105580000DF03CF91090C7482C38007F04900DF0C6
:1055900020FAC64905900DF031F9069006980DF0F5
:1055A0002EFA0490069880F0004001900DF027FA42
:1055B000039010980DF023FA0290DDE9031205F034
:1055C0006FF905900DF0FCF910900A990D980DF007
:1055D00015F9B74904900B9851F820000146039043
:1055E00004980DF0B3F8B34AB349059005F063F998
:1055F000AF4A0B9942F82100AA482C38807C0390CE
:1056000000E011E00DF0E5F9A94904900B9851F87C
:1056100020000146039004980DF0F0F8A74905908A
:105620000DF0ECF80F9000BF9A48C07800287DD1AB
:1056300095490B9831F91000002803DD0B9831F9DA
:10564000100004E090490B9831F910004042B0F589
:10565000206F05DD00219A4A0B9842F820102BE0BC
:1056600090482B380B99405C03900DF0B2F99549A6
:10567000059016980DF0C2F8049005990DF0F0F819
:10568000069014990DF0B4F80D900A990D980DF04C
:10569000B5F88B4905900B9851F82000014604900D
:1056A00005980DF053F8884A8849069005F003F9EB
:1056B000834A0B9942F821007A4821380B99405CC3
:1056C00004900DF086F97E4905900B9851F8200062
:1056D0000146049005980DF091F87D4906900DF073
:1056E0008DF80E906B480079D8B1109916980DF08E
:1056F0007FF805900C990DF081F8069010990DF047
:1057000025F81390DDE90E010DF072F805900C9963
:105710000DF074F806900F990DF018F8129009E04A
:1057200004E0169813900E98129003E010981390CE
:105730000F98129067490B98085C03900DF049F997
:10574000049014990DF05AF8634905900DF056F83D
:10575000069013990DF04FF8139060490B9851F88B
:1057600020000146059014980DF042F806900A9921
:105770000DF076F81890594A0B99149842F82100C8
:1057800057490B9851F820000146049018980DF0E5
:105790002FF8059017990DF031F8514906900B98A4
:1057A00051F820000146059006980CF0CFFF4C4AB6
:1057B0000B9942F821004B490B98085C04900DF0BE
:1057C00008F9474905900B9851F8200001460490CC
:1057D00005980DF013F8444906900DF00FF811905C
:1057E000DDE912100CF0B2FF059011990DF000F8F0
:1057F00006900EF017F802B23C490B9821F81020E1
:105800000B98401CC0B20B900B980228FFF655AEC7
:1058100009980DF0F4F820F0030007900DF0D0F88F
:105820000890334908980DF01BF808901448B0F917
:1058300004001C492C3991F82510282202EB410163
:105840004843401107901048B0F9040003900DF050
:10585000B7F84FF07A5104900CF0D0FF05900DF09E
:10586000E1FF0799081A06900DF0AAF80D900D486F
:105870002C38407B02900DF0ACF803900D9939E084
:105880000E0100200000E1437C0000200000A03E4B
:10589000CDCC4C400C0C00204401002078040020AA
:1058A00088000020680900206F12033C0000A0401F
:1058B000900100200000F0410000F0C10AD7A33D94
:1058C000880100200000A04300004043000040C3C6
:1058D0000AD7233C20010020A69B443BC80100209E
:1058E000D001002026010020F7CC92382A010020A8
:1058F00000803B450CF082FF049008990CF07EFF7D
:1059000005900DF07CF8FE4989680844FD4A514233
:10591000069004F0C5FFFA498860FB4890F87700CC
:1059200028B1FA48808870B1002088600BE00798A1
:10593000002801DD079801E007984042322802DD87
:105940000020EF498860EE48806840134FF4807271
:105950005142059004F0A4FF06900DF031F812902A
:105960000D980DF04CF8E849C9784843801106902D
:105970000DF026F81390E648C07D042817DB4FF49D
:1059800096700690E048C07D20B1DF48C17D069842
:10599000401A069013980DF032F80490069A51427E
:1059A00004F07EFF05900DF00BF8139000BFDDE9C9
:1059B00012100CF0CBFE07900DF021F801B2D54883
:1059C0008180B0F9040006900CF0FAFF07900DF00A
:1059D00029FF00B2CF49888019B000BD20B101284D
:1059E00006D0022808D000BFCB49CC4A116008E09D
:1059F000CB49CA4A116004E0AFF2E161C74A1160C5
:105A000000BF00BF70472DE9FF5F0025002700267B
:105A1000002003900820FCF7D5FDF8B1C14890F8AC
:105A20008A01062819D2DFE800F00304080C1014DC
:105A300000BF04F05EFD03900FE005F079F90390DC
:105A40000BE005F036FA039007E005F001FF039044
:105A500003E006F047FB039000BF00BFB2480068B8
:105A6000B2490968401A02D5039800287ED0002068
:105A70000390AD48006844F620610844AB490860D3
:105A8000FFF75BF94FF48040FCF79CFD20B1A8487C
:105A9000007808B9FFF7DCF901F0C2F8A5490880E1
:105AA0004FF40070FCF78EFD28B94FF40040FCF76E
:105AB00089FD00285DD0944890F8CE0000EB80006E
:105AC0009D49B1F90010884236DA9C48407898B375
:105AD000002407E09348B0F88E0100B2984921F8FD
