:020000040800F2
:10000000F03100201127010851270108773C000832
:10001000552701085727010859270108000000004B
:100020000000000000000000000000005B27010845
:100030005D270108000000005F27010873DD00084C
:100040006327010863270108632701086327010864
:100050006327010863270108632701083FE90008B7
:100060006327010863270108632701086327010844
:1000700061E500086327010835E5000863270108EA
:100080006327010863270108632701086327010824
:1000900063270108632701086327010847E900086F
:1000A000632701086327010863270108CFF40008CC
:1000B000DBF40008E7F40008F3F40008ABD4000810
:1000C000C5D00008BBD40008B3D4000863270108DA
:1000D000632701088BE50008CBE5000839E6000836
:1000E0002DC700086327010863270108DFF80CD03B
:1000F00013F004FA004800476B380008F031002084
:10010000F0B504460E461546B4FBF5F038B1B4FB25
:10011000F5F72A4631463846FFF7F2FF0646B4FBAC
:10012000F5F005FB1040FCA1085C3070701CF0BDC0
:1001300070B505460C461646022E01DB242E00DD66
:100140000A26002D09DA2D2020703246611C6842F3
:10015000FFF7D6FF0021017006E03246214628460F
:10016000FFF7CEFF00210170204670BD2DE9F05F42
:1001700004464FF0000900E0641C20782028FBD0E2
:1001800020780928F8D04FF07E5820782D2803D108
:10019000DFF8AC83641C03E020782B2800D1641CBA
:1001A00000260FE02178A1F1300012F065FE05462F
:1001B000E449304612F07EFD8246294612F022FDC7
:1001C0000646641C2078302802DB20783928E9DDD7
:1001D00020782E281DD1DB4D641C13E02178A1F17D
:1001E000300012F049FE8346294612F095FD824602
:1001F000314612F007FD0646D249284612F05AFD54
:100200000546641C2078302802DB20783928E5DD9B
:1002100000BF4FF07E572078652802D0207845280F
:1002200034D1641C4FF0000920782D2803D14FF001
:100230000109641C03E020782B2800D1641C0025F0
:1002400006E02078303805EB850100EB4105641CA1
:100250002078302802DB20783928F2DDB5F59A7F46
:1002600001D94FF49A7505E0B749384612F022FDDE
:100270000746083D082DF7D205E0B249384612F08E
:1002800019FD07466D1E002DF7D100BFB9F1000F13
:1002900004D03946304612F03FFD03E0394630467F
:1002A00012F008FD0546414612F004FDBDE8F09F3E
:1002B0002DE9F04387B007460E46002001900290DA
:1002C00003900FF288280021384612F049FE05D22B
:1002D0009F49384612F096FC074604E09C49384690
:1002E00012F0E2FC07469B49384612F0E3FC8146D7
:1002F00012F0D0FD0446002C01DD214600E06142F1
:1003000008460A2204A9FFF713FF002C03DB202074
:100310008DF8040002E02D208DF8040004A812F0EE
:1003200022FC01280BD130208DF805008DF8060045
:100330008DF8070004A901A812F0E1FB1FE004A852
:1003400012F011FC022809D130208DF805008DF83B
:10035000060004A901A812F0D2FB10E004A812F0D4
:1003600002FC032807D130208DF8050004A901A85C
:1003700012F0C5FB03E004A901A812F0C0FB01A81C
:1003800012F0F1FBC01EC5B22A4601A9304612F098
:10039000D4FB002070554146304612F0B0FB01A856
:1003A0004119304612F0ABFB304607B0BDE8F08390
:1003B00010B5044605E014F8011B674A10680FF0F9
:1003C00017FC20780028F6D110BD10B563A0FFF708
:1003D000EFFF10BD2DE9F04105460C462F4626469D
:1003E000306812F0C0FB804631684246386812F02F
:1003F000E3FBBDE8F0812DE9F041054600272846E2
:1004000012F0B1FB00F0FF08B8F1000F0CD100248E
:1004100007E0544830F81420214653A013F076F931
:10042000641C192CF5DB17E02E46304612F0DDFB7C
:100430000446192C0CDA2021284612F08AFB0646C5
:10044000304612F0D2FB0746464820F8147003E00D
:10045000192148A013F05AF9BDE8F0812DE9F04FB9
:1004600087B007460026B046384612F07CFB00F005
:10047000FF09B9F1000F4DD148A0FFF799FF002403
:100480003FE0514901EB04110868002112F05EFDC4
:1004900000D138E008F10108611C4CA013F036F9D6
:1004A000494901EB0411086803A9FFF701FF8246DF
:1004B000514648A013F02AF9434901EB041148685A
:1004C00003A9FFF7F5FE8246514642A013F01EF93C
:1004D0003D4901EB0411886803A9FFF7E9FE824654
:1004E00051463CA013F012F9374901EB0411C868DA
:1004F00003A9FFF7DDFE8246514637A013F006F947
:10050000641C0C2CBDDB00BF002002900190009009
:1005100000247EE0A0E0000030313233343536373D
:1005200038394142434445464748494A4B4C4D4E71
:100530004F505152535455565758595A00000000C5
:10054000000080BF0000204120BCBE4C2E000000F7
:100550006F12033A00007A44500A00200D0A23204B
:1005600000000000660900206175782025752025AF
:10057000750D0A00496E76616C6964204665617488
:1005800075726520696E6465783A206D75737420A4
:100590006265203C2025750D0A00000043757374C8
:1005A0006F6D206D697865723A200D0A4D6F746F1A
:1005B000720954687209526F6C6C095069746368EF
:1005C000095961770D0A0000680400202325643A68
:1005D000090000002573090025730D0A00000000C2
:1005E000F74A02EB04125168009812F00BFB0090DE
:1005F000F34A02EB04129168019812F003FB019098
:10060000EF4A02EB0412D168029812F0FBFA029052
:10061000641C4445E4DBEBA0FFF7CAFE002004465F
:1006200011E05DF8240020F000418B46E94958466E
:1006300012F096FC01D2E8A000E0E8A08246FFF7A5
:10064000B7FE601C0446032CEBDBAFF28800FFF71B
:10065000AFFE07B0BDE8F08F0522E1A1384612F0E9
:10066000ABFA50B9002405E00021D54800EB041096
:100670000160641C0C2CF7DB8EE00422DAA1384602
:1006800012F09AFA00282FD12021384612F061FA90
:100690000546002DF0D0691C0D46084612F063FA9D
:1006A00000F0FF09002400BFD14850F8240018B919
:1006B000D0A0FFF77DFE16E0CD4850F824104A4642
:1006C000284612F079FA60B9204603F070FCC84859
:1006D00050F82410CDA013F019F8C4A0FFF7BEFE07
:1006E00001E0641CE0E757E03D46284612F07DFA41
:1006F0000446601E04460C284ADA2021284612F0DF
:1007000028FA05464DB1691C0D460846FFF72EFD37
:10071000AB4901EB04110860761C2021284612F039
:1007200018FA054655B1691C0D460846FFF71EFD2F
:100730000146A34800EB04104160761C20212846A6
:1007400012F007FA05464DB1691C0D460846FFF741
:100750000DFD9B4901EB04118860761C2021284681
:1007600012F0F7F905464DB1691C0D460846FFF732
:10077000FDFC934901EB0411C860761C042E03D0E4
:10078000A7A0FFF715FE07E098A0FFF767FE03E0BC
:100790000C21B2A012F0BAFF00BF5AE72DE9F041D8
:1007A00088B00746B7A103C9CDE90601384612F063
:1007B000DAF900F0FF08B8F1000F3ED1B3A012F053
:1007C000A5FF00242EE0611CAFF2002012F09EFF76
:1007D00004EB8402B84830F91210B8A012F096FF6A
:1007E00004EB8402B44800EB4200B0F90410B3A05B
:1007F00012F08CFF04EB8402AF4800EB4200B0F92A
:100800000210AEA012F082FF04EB8402AA4800EBB3
:10081000420090F90610A9A012F078FF7FA012F014
:1008200075FF641C082CCEDB7CA012F06FFFA4A027
:1008300012F06CFF08B0BDE8F081052268A13846CF
:1008400012F0BAF918BB00241EE04FF47F7104EBDC
:100850008402994820F812104FF4FA6104EB8402E4
:1008600000EB4200418040F2DC5104EB84029248EC
:1008700000EB4200818006A8015D04EB84028E48F3
:1008800000EB42008171641C082CDEDB77E000265F
:1008900092A1384612F06EF905460CE0284612F097
:1008A000A4F93146761C01AA42F821008BA1002050
:1008B00012F060F905460DB1052EEFDB0DB9052EDE
:1008C00003D0874812F022FFB4E7019801284FDBDC
:1008D000019808284CDC0298B0F5617F48DB40F6AF
:1008E00034010298884243DC0498B0F5617F3FDB15
:1008F000049888423CDC0398B0F5617F38DB0398AC
:10090000884235DC059810F1640F31DB05986428C6
:100910002EDCDDE9020188422ADCDDE903018842A0
:1009200026DC0198401E0190029801B2019800EB6C
:100930008002614820F81210049801B2019800EB7F
:1009400080025D4800EB42004180039801B20198AB
:1009500000EB8002584800EB42008180059841B2CC
:10096000019800EB8002544800EB4200817102E0E4
:100970005C4812F0CBFE1DA0FFF710FF00BF00BFC8
:1009800058E72DE9F04788B082460027504612F01C
:10099000EAF800F0FF09B9F1000F10D1524812F047
:1009A000B5FE524812F0B2FE0024E9E0C4EBC401E7
:1009B0000348C0300844807800B9E4E098E0EAE0F9
:1009C0006804002053616E69747920636865636B05
:1009D0003A0900000AD7233C4E4709004F4B090053
:1009E00072657365740000006C6F61640000000044
:1009F0005C4F0108496E76616C6964206D697865A9
:100A00007220747970652E2E2E0D0A004C6F616471
:100A10006564202573206D69782E2E2E0D0A000046
:100A200057726F6E67206E756D626572206F6620FB
:100A3000617267756D656E74732C206E6565647385
:100A4000206964782074687220726F6C6C20706901
:100A5000746368207961770D0A0000004D6F746F30
:100A600072206E756D626572206D7573742062659B
:100A7000206265747765656E203120616E64202583
:100A8000640D0A001E1E6464646464647365727697
:100A90006F20736572766F5F6E756D626572096D3A
:100AA000696E096D6964646C65096D6178097261CC
:100AB00074650D0A00000000A009002025640900EB
:100AC000526573657420736572766F733A2073652F
:100AD00072766F2072657365740D0A002000000045
:100AE0003C6C0108C06B0108E86C0108886C0108C7
:100AF000611CAFF2285012F009FEC4EBC402F948A1
:100B0000805C411CAFF24C0012F000FEC4EBC4024A
:100B1000F44810444078411CAFF2600012F0F6FD3A
:100B2000C4EBC402EF48104490F90210AFF2740015
:100B300012F0ECFDC4EBC402EA481044C178AFF2F5
:100B4000840012F0E3FDC4EBC402E648104490F9BF
:100B50000410AFF2980012F0D9FDC4EBC402E148D2
:100B6000104490F90510AFF2AC0012F0CFFDC4EBC9
:100B7000C402DC4810448179DBA012F0C7FD641C7C
:100B8000102CFFF613AF00BFAFF2701012F0BEFDD5
:100B900008B0BDE8F0870522AFF2BC11504612F054
:100BA0000BF880B97021CF4811F09EFF002407E0B8
:100BB000002104EB8402CE4800EB42000181641C5A
:100BC000082CF5DB79E10422AFF2E411504611F074
:100BD000F3FF002831D12021504611F0BAFF05461D
:100BE000002DEFD0691C0D46084611F0BCFF00F047
:100BF000FF09002400BFBF4850F8240020B9AFF21D
:100C00000C2012F083FD17E0BA4850F824104A4631
:100C1000284611F0D1FF68B9204603F092F9B54893
:100C200050F82410AFF21C2012F070FDAFA0FFF7B7
:100C3000A8FE01E0641CDEE73FE10922AEA15046B8
:100C400011F0BAFF00287DD12021504611F081FF1C
:100C50000546284611F087FF00F0FF09B9F1000FA3
:100C60003AD1A84812F052FDA7A012F04FFD00267D
:100C700004E0711CA5A012F049FD761C0C2EF8DBD7
:100C8000AFF2682012F042FD4FF0000820E008F1BA
:100C90000101A0A012F03AFD002611E008EB880245
:100CA000934800EB420000890122B240104008B195
:100CB00099A000E092A0014698A012F027FD761CB2
:100CC0000C2EEBDBAFF2AC2012F020FD08F1010896
:100CD000B8F1080FDBDB5BE791A1284611F04AFF72
:100CE00005460BE0284611F080FF39467F1C4DF881
:100CF00021008BA1002011F03DFF05460DB1032F0F
:100D0000F0DB0DB9032F03D086A012F0FFFC3FE704
:100D10000098012840DB009808283DDC0198012854
:100D20003ADB01980C2837DC0298401C10B102987D
:100D3000012831D10098401E00900198401E01907A
:100D4000029800E02FE0401C98B9009800EB800169
:100D5000674800EB410000890121019A9140084356
:100D600081B2009800EB8002614800EB42000181F3
:100D700015E0009800EB80015D4800EB4100008920
:100D80000121019A91408843009901EB8102584961
:100D900001EB4201088102E071A012F0B7FC56A0FD
:100DA000FFF7EFFD89E05EA1504611F0E3FE054636
:100DB0000BE0284611F019FF39467F1C4DF8210041
:100DC00057A1002011F0D6FE05460DB1082FF0DB2B
:100DD0000DB9082F03D06B4812F098FCD8E60098A4
:100DE000441E002C66DB102C64DA0198002861DDBB
:100DF000019808285EDC029801285BDB02980C2829
:100E000058DC039810F1640F54DB0398642851DC1C
:100E1000049800284EDB0498FF284BDC0598002836
:100E200048DB0598642845DC0698002842DB0698D4
:100E300064283FDCDDE9050188423BDA0798002899
:100E400038DB0798032835DC0198401EC1B2C4EB9B
:100E5000C402244881540298401EC1B2C4EBC402AB
:100E6000204810444170039841B2C4EBC4021D48AD
:100E7000104481700498C1B2C4EBC40219481044F4
:100E8000C170059841B2C4EBC40216481044017108
:100E9000069841B2C4EBC40212481044417107984D
:100EA000C1B2C4EBC4020F48104481710FA0FFF718
:100EB00068FD02E02AA012F029FC00BF68E610B528
:100EC000044631A0FFF774FA012001F0AAFC35A016
:100ED000FFF76EFA0A200DF02FF800200DF07BF8D6
:100EE00010BD00002805002025640D0A0000000048
:100EF000A00900205C4F0108646972656374696F22
:100F00006E000000706B0108730000000969256421
:100F10000000000025640000720000000925732015
:100F20002000000057726F6E67206E756D626572EB
:100F3000206F6620617267756D656E74732C206E0C
:100F40006565647320736572766F20696E70757461
:100F500020646972656374696F6E0D0A0000000099
:100F60004552523A2057726F6E672072616E676504
:100F700020666F7220617267756D656E74730D0AFD
:100F800000000000506D0108526573657474696E4D
:100F90006720746F2064656661756C74732E2E2EE5
:100FA0000D0A00005265626F6F74696E672E2E2EF7
:100FB000000000002DE9FC4104460D460026207982
:100FC00006283AD2DFE800F003060A0D1114A068E3
:100FD000067832E0A06890F900602EE0A0680688EC
:100FE0002BE0A068B0F9006027E0A068066824E064
:100FF000A16808686946FFF75BF907463946F9A01A
:1010000012F084FBBDB1E06811F036FF80466946FE
:10101000FFF74EF907463946F3A012F077FB206937
:1010200011F02AFF80466946FFF742F90746394624
:10103000EDA012F06BFBBDE8FC8100BF3146AFF2C2
:101040002C1012F063FB25B1E8A0D4E9031212F0D2
:101050005DFB00BFEFE710B50446E6A0FFF7A8F977
:1010600010BD2DE9F04F87B00020FFF7F4FFEDA091
:1010700012F04CFBAFF28C10FFF7BDF9F548407948
:10108000401EF54A52F82010F4A012F03FFBF1493F
:101090000869002111F05AFF77D000246EE0ED4975
:1010A000103101EB04110868002111F04FFF00D14D
:1010B00066E0E848103000EB04100768E54810309F
:1010C00000EB0410D0F80480E248103000EB04106C
:1010D000D0F80890DF48103000EB0410D0F80CA0D6
:1010E000611CE1A012F012FB0021384611F02EFF26
:1010F00003D2AFF2D41012F009FB03A93846FFF770
:10110000D7F801460290B7A012F000FB002140463C
:1011100011F01CFF03D2AFF2F81012F0F7FA03A996
:101120004046FFF7C5F801460290AEA012F0EEFA75
:101130000021484611F00AFF03D2AFF21C2012F042
:10114000E5FA03A94846FFF7B3F801460290A5A0C7
:1011500012F0DCFA0021504611F0F8FE03D2AFF293
:10116000402012F0D3FA03A95046FFF7A1F8014638
:101170000290AFF69C3012F0C9FA641C0C2C8ED38E
:1011800000BF611CBAA012F0C1FAB24890F8D200B8
:10119000002859D0002450E0C4EBC401AD48D03041
:1011A0000844807800B94AE0611CB6A012F0AEFA9B
:1011B000C4EBC402A748D030805C411CB4A012F03C
:1011C000A5FAC4EBC402A348D03010444078411CB7
:1011D000AFA012F09BFAC4EBC4029E48D03010447A
:1011E00090F90210AAA012F091FAC4EBC402994837
:1011F000D0301044C178A6A012F088FAC4EBC40223
:101200009448D030104490F90410A1A012F07EFA56
:10121000C4EBC4028F48D030104490F905109CA054
:1012200012F074FAC4EBC4028A48D03010448179B9
:10123000AFF24C3012F06AFA641C102CACD300BF31
:10124000611C94A012F062FA002414E000250FE063
:1012500004EB8401944800EB410000890121A9407E
:10126000084020B16A1C611C90A012F04FFA6D1C5E
:101270000C2DEDD3641C082CE8D3002420E004EBF3
:101280008401894800EB410090F9060004EB8402D8
:10129000854901EB4201B1F90210CDE9001004EBE0
:1012A0008401814800EB4100B0F9043004EB840173
:1012B0007D4830F91120611C83A012F027FA641CCC
:1012C000082CDCD301F0E1FA0646002400BF844874
:1012D00050F8240000B907E0814850F8241081A09C
:1012E00012F014FA641CF2E700BF002400BF7C482F
:1012F00050F8240000B90BE00120A040304028B194
:10130000774850F824107BA012F000FA641CEEE736
:1013100000BF002406E07B48015D7B48005D03AA16
:101320001154641C082CF6D3002003A9085577A09B
:1013300012F0ECF9002414E004EB8400764901EB90
:10134000800B04EB84000A4652F8201073A012F0C0
:10135000DDF900215846FFF72DFE42A0FFF728F8DF
:10136000641C8D2CE8D307B0BDE8F08F10B504469F
:101370006DA0FFF71DF80121002000F0EDFF6DA02A
:10138000FFF716F80A200CF0D7FD00200CF023FE22
:1013900010BD10B504466BA0FFF70AF800206F4996
:1013A00008706F4908606F49087002F0C8FC204659
:1013B000FFF7DCFF10BD2DE9F0410546284611F08E
:1013C000D2FB064601F061FA07464EB966A0FEF769
:1013D000EFFF002400BF424850F8240008B9D9E0CC
:1013E000DEE0CBE02573000020257300202564207B
:1013F000256400004166726F333220434C492076E9
:10140000657273696F6E20322E332044656320321B
:10141000372032303135202F2031373A30303A31D1
:101420003500000043757272656E7420436F6E66FE
:1014300069673A20436F70792065766572797468C0
:10144000696E672062656C6F7720686572652E2E05
:101450002E0D0A00580400205C4F01086D69786564
:10146000722025730D0A0000636D697820256400E1
:10147000636D697820256420302030203020300DC5
:101480000A000000736D69782025642000000000C8
:1014900025642000736D6978202564203020302079
:1014A0003020300D0A000000A0090020736D69781B
:1014B00020646972656374696F6E202564202564F9
:1014C000202D310D0A000000736572766F202564AF
:1014D0002025642025642025642025640D0A000051
:1014E000C04F010866656174757265202D25730D06
:1014F0000A000000666561747572652025730D0A27
:10150000000000003C5C0108DA0500206D617020DD
:1015100025730D0A0000000038510108736574201E
:101520002573203D20000000536176696E672E2EE2
:101530002E0000000D0A5265626F6F74696E672E8F
:101540002E2E00000D0A4C656176696E6720434CB3
:1015500049206D6F64652E2E2E0D0A002804002090
:101560000400002000000020456E61626C6564206C
:1015700066656174757265733A2000000120A040B1
:10158000384028B1FA4850F82410FAA012F0BEF8FA
:10159000641C20E700BFAFF23410FEF709FF59E0EA
:1015A0003246F5A1284611F007FBC0B9F4A0FEF7BA
:1015B000FFFE002400BFEE4850F8240000B907E009
:1015C000EB4850F82410EBA012F0A0F8641CF2E7EE
:1015D00000BFAFF27010FEF7EBFEBDE8F0814FF0F8
:1015E000000828782D2803D14FF001086D1C761EC5
:1015F000002400BFDE4850F8240018B9E6A0FEF72A
:10160000D7FE25E0DA4850F824103246284611F07B
:10161000D3FAD8B9B8F1000F08D0012101FA04F0CB
:1016200001F02DF9E3A0FEF7C3FE07E0012101FA66
:1016300004F000F0FDFEE2A0FEF7BAFECC4850F840
:101640002410AFF2481012F061F801E0641CD1E7F9
:1016500000BF00BF00BFC0E710B5044608F0AAFEF7
:10166000401C18B9D9A0FEF7A3FE02E0E1A0FEF7E6
:101670009FFE10BD70B505460024E6A0FEF798FE5B
:1016800000BF0DE004EB4400E84B03EB8000426830
:1016900004EB440053F82010E5A012F037F8641C66
:1016A000122CEFD370BDFEB50546284611F05BFA4B
:1016B0000646082E20D1002404E0285D11F0D2F95E
:1016C0002855641C082CF8D3002410E0295DDA4862
:1016D00011F03FFA30B1295D2A19501C11F039FA86
:1016E00000B903E0D5A0FEF763FEFEBD641C082C24
:1016F000ECD3284600F059FDD8A0FEF759FE00248F
:1017000006E0CD48015DDB48005D0DF80010641C6B
:10171000082CF6D300200DF804006946AFF224200F
:1017200011F0F4FF00BFE0E770B50646304611F057
:101730001AFA05464DB9D0484079401ECF4A52F8B2
:101740002010CFA011F0E2FF70BD2A468AA13046DA
:1017500011F032FAB8B9CFA0FEF72AFE002400BF7C
:10176000C64850F8240000B907E0C44850F82410D7
:1017700080A011F0CBFF641CF2E700BFAFF21C3079
:10178000FEF716FEE0E7002400BFBC4850F8240036
:1017900020B9AFF6A050FEF70BFE2FE0B74850F887
:1017A00024102A46304611F007FA28BB601CB249C3
:1017B0004871B24850F82410BBA011F0A7FFAE4802
:1017C0004079082803D0AC4840790E2813D15A201C
:1017D000BA4981F82600002081F820001E21B74870
:1017E0000171142181732D2101761E21C1711421F3
:1017F00041742D21C17601E0641CC6E700BF00BF23
:10180000A2E72DE9F04780460024002500260027A6
:10181000404611F0A8F98146B9F1000F04D1A8A003
:1018200011F074FFBDE8F08764A1404611F0A2F901
:10183000074614E016B1012E0AD104E0384611F033
:10184000D4F9044604E0384611F0CFF9054600BF4C
:1018500000BF761C59A1002011F08CF90746002F1B
:10186000E8D1002C01DB0C2C04DB0C21A3A011F02F
:101870004DFFD7E7022E07DAAA4830F91420214697
:10188000A9A011F043FFCDE7B5F57A7F02DBB5F5EE
:10189000FA6F03DDAAA011F039FFC3E72A462146FB
:1018A000B0A011F033FF28B29E4921F8140000BF08
:1018B000B8E770B50546284611F055F9C6B236B9F5
:1018C0006D4890F8C014AEA011F020FF70BD2846FE
:1018D00011F08BF90446002C0BDB022C09DC664965
:1018E00081F8C0440021084600F036FD23A0FFF730
:1018F000E0FF00BFEAE710B50446A74908682146A3
:101900000EF076F910BD03B50179062917D2DFE88C
:1019100001F0030408090E1200BF019982681170DA
:101920000DE000BF019909B28268118007E00199BA
:101930008268116003E001998268116000BF00BFF6
:101940000CBD2DE9F84F07464FF00008C246C146CE
:10195000384611F008F9054625B1012D07D1387830
:101960002A2804D18DA0FEF723FD002439E13BE1B4
:10197000C04F0108257320006C69737400000000DB
:10198000417661696C61626C65206665617475722F
:1019900065733A2000000000496E76616C6964202E
:1019A00066656174757265206E616D652E2E2E0DF3
:1019B0000A00000044697361626C656420000000E5
:1019C000456E61626C656420000000004572726FB4
:1019D000723A20456E61626C6520616E6420706CA5
:1019E000756720696E204750532066697273740DC5
:1019F0000A000000456E61626C696E6720475053B3
:101A000020706173737468726F7567682E2E2E0D67
:101A10000A000000417661696C61626C6520636F49
:101A20006D6D616E64733A0D0A000000605001082C
:101A300025730925730D0A003C5C01084D7573740C
:101A400020626520616E79206F72646572206F6616
:101A50002041455452313233340D0A0043757272BD
:101A6000656E742061737369676E6D656E743A207C
:101A700000000000DA050020580400205C4F010837
:101A800043757272656E74206D697865723A2025AF
:101A9000730D0A00417661696C61626C65206D6945
:101AA000786572733A2000004D697865722073651D
:101AB0007420746F2025730D0A0000001C0900209B
:101AC00055736167653A0D0A6D6F746F7220696EA8
:101AD000646578205B76616C75655D202D20736888
:101AE0006F77205B6F72207365745D206D6F746F0C
:101AF000722076616C75650D0A0000004E6F2073D0
:101B0000756368206D6F746F722C2075736520612A
:101B1000206E756D626572205B302C2025645D0D32
:101B20000A000000800A00204D6F746F7220256447
:101B3000206973207365742061742025640D0A0088
:101B4000496E76616C6964206D6F746F7220766186
:101B50006C75652C20313030302E2E323030300D07
:101B60000A00000053657474696E67206D6F746FAE
:101B70007220256420746F2025640D0A0000000087
:101B800043757272656E742070726F66696C653A27
:101B90002025640D0A000000500A0020437572726F
:101BA000656E742073657474696E67733A200D0AEC
:101BB0000000000004EB8400F74901EB800604EB11
:101BC00084000A4652F82010AFF2AC6011F09EFD7E
:101BD00029463046FFF7EEF9AFF27870FEF7E8FBE2
:101BE000641C8D2CE6D393E0ECA1384610F093FFF3
:101BF0005FEA000868D008F101086D1E404610F049
:101C0000F4FF82464046FEF7B1FA8146002455E0D3
:101C100004EB8400E04901EB800604EB8401DE4A1A
:101C200052F8210010F09FFF834604EB8400DA4A4B
:101C300052F820105A46384610F0BEFF00283CD11A
:101C400004EB8401D44A02EB8101C86811F014F955
:101C50008346494611F07AF92AD804EB8401CE4A2A
:101C600002EB8101086911F007F98346494611F03A
:101C700077F91DD804EB8400C74901EB8000007997
:101C8000052802D1CDF8009001E0CDF800A0304643
:101C90000099FFF738FE04EB8400BF4A52F8201089
:101CA000BFA011F033FD00213046FFF783F902E0B9
:101CB000BEA0FEF77DFBBDE8F88F641C8D2CA7D37A
:101CC000C4A0FEF775FB23E000241FE004EB8401B1
:101CD000B14A52F82100394610F01DFFA8B104EBBB
:101CE0008400AD4901EB800604EB84000A4652F8FB
:101CF0002010AFF2D47011F009FD00213046FFF73B
:101D000059F9AFF6A00011F001FD641C8D2CDDD354
:101D100000BFD0E72DE9F04107460CF04DF84FF435
:101D20007A71B0FBF1F6B3480378B34802883146C4
:101D3000B2A011F0EBFC00F096FD0546BF4800682C
:101D4000BF49B0FBF1F6BF48BF4A126850F82210F5
:101D50003246BEA011F0DAFC002400BFC64850F89D
:101D6000240000B90DE00120A040284030B1C24855
:101D700050F82410AFF2044011F0C8FC601CC4B24B
:101D8000ECE700BF022000F059FD38B1BB48BC4A67
:101D9000127850F82210BBA011F0B8FCAFF63C103E
:101DA000FEF706FB0BF061FC064640F2C4433246E8
:101DB000B7480188B7A011F0A9FCBDE8F0812DE972
:101DC000FF41C148007838B90120BF490870BFA061
:101DD000FEF7EEFAFEF7F9FAD6E1CA4908680DF007
:101DE00027FF0446092C01D03F2C74D10026002780
:101DF000C548D0F80080C54D0FE0C348006838B131
:101E0000C14829680268C24810F0D6FE00B103E05C
:101E100006B92E462F4600BF0C35BC48D830854247
:101E2000EBD38EB300BFB84930680968405CB64A4E
:101E300039681268895C884200D026E0B24930686F
:101E40000968405C90B9B04800682E280ED2202165
:101E5000AD4802680068401CAB4B1860AC48815428
:101E60000020AB491A46126888540EE0A649306833
:101E70000968405CA649A44A12688854A2480068D0
:101E8000401CA1490860CEE700E000BF9E48006802
:101E900008B1BE4211D09FA0FEF78AFA354606E08F
:101EA0002868FEF785FA0920FFF725FD0C35BD42AD
:101EB000F6D9FEF78AFA4FF0000806E0944911F8C7
:101EC0000800FFF718FD08F101088F4800688045F9
:101ED000F4D358E1FFE78C48006830B9042C04D1F2
:101EE0008B48FFF756FABDE8FF810C2C05D18BA07B
:101EF000FEF75EFAFEF769FA45E1834800680028BC
:101F000036D00A2C01D00D2C32D10025AFF6AC20F2
:101F1000FEF74EFA00207E497B4A12688854084634
:101F200001900020029080480C23122277490090F3
:101F300001A810F09DFD05464DB1286810F013FE74
:101F400073490844461C3046A968884702E077A0D8
:101F5000FEF72EFA30216E4810F0C6FD00206A49C7
:101F600008605948007800B9BDE7FEF72EFA0AE18B
:101F70007F2C0FD16448006858B100216248006886
:101F8000401E614A1060624A115471A0FEF710FAB7
:101F9000F9E0F8E0DEE00000385101083D00000003
:101FA00025732073657420746F2000004552523AE7
:101FB0002056616C75652061737369676E6D656E1F
:101FC00074206F7574206F662072616E67650D0AEC
:101FD000000000004552523A20556E6B6E6F776ECE
:101FE000207661726961626C65206E616D650D0AB3
:101FF0000000000076010020FC000020537973747B
:10200000656D20557074696D653A2025642073658F
:10201000636F6E64732C20566F6C746167653A2031
:102020002564202A20302E31562028256453206232
:10203000617474657279290D0A000000F0030020B4
:1020400040420F004C500108CC00002048617264EF
:10205000776172653A20257320402025644D487AC7
:102060002C2064657465637465642073656E736F9A
:1020700072733A20000000000C5001082C50010837
:10208000DC01002041434348573A202573000000FB
:10209000F80000204379636C652054696D653A202F
:1020A00025642C20493243204572726F72733A20A6
:1020B00025642C20636F6E6669672073697A653AC0
:1020C0002025640D0A000000000000200D0A456E66
:1020D000746572696E6720434C49204D6F64652CAE
:1020E00020747970652027657869742720746F20C3
:1020F00072657475726E2C206F72202768656C7023
:10210000270D0A00500A002004000020605001083A
:10211000280400200D1B5B4B000000001B5B324AB3
:102120001B5B313B31480000D50300084552523A51
:1021300020556E6B6E6F776E20636F6D6D616E6490
:102140002C20747279202768656C702700000000CD
:102150000820080011480068302814D2202C12DB17
:102160007E2C10DC0D48006810B9202C00D10BE04B
:102170000A4801680068401C084A10600848445436
:102180002046FFF7B8FB00BF064908680DF049FD7F
:1021900000287FF422AE00BFA5E600000400002066
:1021A00028040020500A0020704770B506463446C7
:1021B0000CE02178FE4810F0CCFC05462DB1A01BA8
:1021C000C1B2FB482A1AFB488154641C20780028BD
:1021D000EFD170BD10B5F849002308784C2801D024
:1021E000002010BD488840F2C444A04206D10879BE
:1021F000BE2803D191F8C204EF2801D00020F0E7F7
:102200000A4602E010784340521C01F2C440824268
:10221000F8D30BB10020E4E70120E2E710B5FFF7A7
:10222000D9FF10B90A200BF093FE40F2C442E249F4
:10223000E24810F040FCE14890F8C004022803DDB9
:102240000020DE4981F8C004DC4890F8C00400EBAF
:102250008012D848323000EB82014FF48272D848A5
:1022600010F029FC10BD70B5002416E0D44890F899
:10227000201004FB04F01938484300F6C4106043F2
:10228000CF49C97F484340F6C41190FBF1F000B23A
:10229000CC4921F81400601CC4B2072CE6DB0024F2
:1022A0004BE004EB8402C64B93F82130C3EB4200B1
:1022B0000121002805DDC24A92F82120C2F1640202
:1022C000D1B2002802DABE4A92F82110BC4A92F834
:1022D000222000FB00F35A4301FB01F392FBF3F2CF
:1022E000B74B93F82230C3F164031A4442430A23E4
:1022F00092FBF3F2B24B93F821300A2505FB03223F
:1023000012B2B14B23F81420AC4AB2F84221AB4BC5
:10231000B3F84031D21AAC4B33F914305A434FF46E
:102320007A7392FBF3F2A54BB3F840311A4412B220
:10233000A54B23F81420601CC4B20C2CB1DBA049BF
:10234000087803F040FA06F015FC70BD10B5FFF7F1
:1023500065FFFFF788FF10BD2DE9F0470746884667
:102360004FF000094C209549087040F2C440488065
:10237000BE200871EF2081F8C204002081F8C30458
:10238000B8F1000F0CD091F8C01401EB811289490B
:10239000323101EB82004FF48272894910F08BFBDD
:1023A000864C03E0207880EA0909641C874884424F
:1023B000F8D3824880F8C3940FF085FF4FF0030AEA
:1023C0001EE0342010F08DF97B480FF0B7FF8048F5
:1023D0000FF0B4FF0646002507E0784A5159764AC7
:1023E000A81810F04AF806462D1D40F2C440854258
:1023F00001D2042EF1D0042E00D104E0AAF1010A8A
:10240000BAF1000FDDD100BF0FF069FF042E02D139
:10241000FFF7E0FE10B90A200BF09AFDFFF796FFD8
:1024200027B1012214210F2002F07AFBBDE8F087CA
:10243000624989680143614A9160704700205F49A1
:10244000886070471CB563A103C9CDE9000140F263
:10245000C4415A4810F048FB4FF48271584810F0BC
:1024600043FB4C205549087003204871FFF7E6FFF5
:102470000220FFF7DDFF0020504981F8C0044FF42F
:102480001670A1F86201FA20A1F864012A20A1F8CF
:1024900060010020A1F86A0100214848A0F86C11F1
:1024A000A0F86E110020454981F8530181F85401CC
:1024B00081F85501A1F85601A1F85801A1F85A0177
:1024C00081F85D0181F85E014FF4FA70A1F86801AE
:1024D000012081F85C01202081F866014FF4C8706A
:1024E000A1F878016E2081F87D012B2081F87E0112
:1024F000212081F87F01232081F88001002081F8CC
:10250000810181F88A0181F88B0181F8AE0181F89F
:10251000AF0181F8B00140F2DC50A1F88E0140F229
:102520004C40A1F8900140F26C70A1F8920100209B
:1025300081F89401012081F8950181F8960140F21B
:102540007E40A1F8400140F23A70A1F842014FF4F8
:102550007A70A1F8440140F27E50A1F8460140F2A1
:10256000EA50A1F8480140F2B450A1F84A013220E3
:10257000A1F84C01C000A1F84E013220A1F8500191
:10258000052081F87601002081F89E0181F89F01E5
:102590004FF4E130C1F8A4014FF41650C1F8A8017E
:1025A000002081F8AC0181F8AD0140F6AC5015E097
:1025B0003C5C0108DA05002000F8010858040020FE
:1025C0001C090020220C0020300C00201C090020D7
:1025D00000FC01081E1E6464646464648881002039
:1025E000887381F8970140F6FF70A1F89A010020E6
:1025F000A7490870282048701E20C8721720487507
:102600002821A34881701E2101731721817555214E
:10261000C1702D2141730021C1753221017100214A
:10262000817301760B2141710021C1734176142120
:102630008171082101742D2181760E21C17114212F
:1026400041745021C1765A2101720A21817464219A
:10265000017728214172782181722D210175012194
:1026600081775A208A49C877412081F820000020CC
:1026700081F8250081F8260040F2DC5008853220E0
:1026800081F82100002081F82200888500218048FF
:10269000C18500207E4981F830004885042081F8FA
:1026A0003100282081F8320081F83300152081F8AC
:1026B0003400784888637848C86378480864784864
:1026C0004864012081F84800192081F8490075A06C
:1026D000FFF76BFD00206E4981F87C0081F87D00DA
:1026E000282081F87E00012081F87F00002081F8F9
:1026F00082004FF44870A1F880000A2081F8D400CD
:10270000C82081F8D5004FF49660A1F8D60040F2B9
:10271000D930A1F8D800002421E04FF47F7104EBF8
:1027200084025B48843020F812104FF4FA6104EB05
:10273000840200EB4200418040F2DC5104EB840251
:102740005348843000EB420081801DF8041004EBF4
:1027500084024F48843000EB42008171641C082CD5
:10276000DBDB01204A4981F8DA0081F8DB0081F8DF
:10277000DC00C820A1F8DE00142081F8E0001E2053
:1027800081F8E100012081F8E2006420A1F8E40072
:102790004FF49670A1F8E6002820A1F8E800142074
:1027A000A1F8EC000F20A1F8EE00A1F8F000A1F8CC
:1027B000F20040F26C70A1F8F60040F2DC50A1F893
:1027C000F80040F21450A1F8FA000820A1F8FC002B
:1027D000642081F8FE004FF4FA70A1F80001322065
:1027E00081F802015220324981F8C104002406E038
:1027F00000212F48103000EB04100160641C0C2CE9
:10280000F6DB00240AE004EB84122A4901EB820083
:102810004FF482721E4910F04EF9641C032CF2DB57
:102820001CBD10B50446FFF7D5FC00B12CB1FFF775
:1028300009FE00210846FFF78FFD10BD01461E4826
:102840000068084008B1012070470020FCE71A49E1
:1028500009680143184A11607047174909688143A4
:10286000154A1160704714480068704701461048C7
:102870008068084008B1012070470020FCE70C493F
:10288000896881430A4A91607047094880687047A7
:102890001C0900209A99193FF6287C3F3D0A773F92
:1028A0000000A04041455452313233340000000052
:1028B000580400200C060020080000202DE9F041FB
:1028C000FE4991F8490010F0E0FA8046FC4910F00A
:1028D000F1F9064611F024FE0546FA48008810F08A
:1028E000D4FA0746294610F0E5F9044611F0DAFE5D
:1028F00000B2F5490880F348008810F0C6FA054692
:102900002946F24810F008FA0446F14910F004FA9A
:10291000F0490860E949B1F8800010F0B6FA0546C0
:102920002946ED4810F0F8F90446EC4910F0C2F9D8
:10293000EB490860E148416CEA4810F0BBF90446F5
:1029400021464FF07C5010F0E7F9E7490860082075
:10295000FFF774FF08B104F0EEFBBDE8F08100283A
:1029600001DD024600E042428A4201DA002006E030
:10297000002801DD401A02E0002800DA0844704710
:102980002DE9F04F95B005460C4695E8070012ABCF
:1029900007C3206811F0C4FD0890206812F002FA05
:1029A0000746606811F0BCFD0646606812F0FAF94F
:1029B0008046A06811F0B4FD8246A06812F0F2F9DA
:1029C00083465046089910F075F9079058460899C3
:1029D00010F070F906905146384610F06BF90590EA
:1029E0005946384610F066F904903146504610F0CA
:1029F00061F9099086F000495946484610F05AF9A5
:102A00000A90CDF82C804146059810F053F9814684
:102A1000069910F0F7F80C904146049810F04AF926
:102A20008146079910F043F90D9087F0004931462F
:102A3000484610F03FF90E904146079810F03AF9D9
:102A40008146049910F033F90F904146069810F032
:102A500031F98146059910F0D5F810903046089963
:102A600010F028F911900F99149810F023F90390A1
:102A70000C99139810F01EF902900999129810F011
:102A800019F90190029910F0BDF88146039910F0F0
:102A9000B9F828601099149810F00CF903900D996A
:102AA000139810F007F902900A99129810F002F9A1
:102AB0000190029910F0A6F88146039910F0A2F84F
:102AC00068601199149810F0F5F803900E99139816
:102AD00010F0F0F802900B99129810F0EBF80190BA
:102AE000029910F08FF88146039910F08BF8A860D6
:102AF00015B0BDE8F08F2DE9F04387B004460025FE
:102B0000204610F0C2F90646784910F0D3F8054681
:102B10007748006880F0004004907548406880F075
:102B2000004005907348B0F9000010F0A5F980F05E
:102B300000466349304610F0BDF806906E49B1F981
:102B4000000010F099F901906B49B1F9020010F002
:102B500093F902906849B1F9040010F08DF90390DF
:102B600004A901A8FFF70CFF544890F84800012879
:102B700028D162484078B8B961490868C11700EBAC
:102B800091615F4A1268A2EBA1115D4A1160104683
:102B9000006810F071F90746039910F033F8064603
:102BA00010F078F95649086055480668F11706EBA9
:102BB0009161881110F060F90746039910F077F8D9
:102BC000039008E03F48008810F05FF9064603993B
:102BD00010F06DF803904B490398096810F064F801
:102BE000804629464048006810F00CF88146494666
:102BF000284610F091F80746414610F05BF806466B
:102C00004048016830460FF0FDFF3E4908600198DA
:102C100011F048FD0646294890F833103046FFF77A
:102C20009EFE39490968084437490860029811F046
:102C300039FD0646214890F833103046FFF78FFEE5
:102C4000314949680844304948602E48006811F00D
:102C500029FD0646194890F832103046FFF77FFEEE
:102C60002949896808442849886028480068204420
:102C70002649086026480068401C2549086007B0BE
:102C8000BDE8F0832DE9F04F87B004461849086885
:102C900011F046FC06901649086812F083F805907A
:102CA0001349486811F03CFC04901149486812F03F
:102CB00079F80390A06803992CE000001C0900201B
:102CC00035FA8E3CD60100202C0000200AE81C4179
:102CD00000401C4670000020000061444C3D0F4441
:102CE00074000020DB0F494078000020BD37863596
:102CF0008C000020D801002018000020E80B0020E4
:102D0000980000209C000020200A002024000020C1
:102D1000280000200FF0CEFF834606990FF0CAFF6F
:102D20008146606805990FF0C5FF019003990FF087
:102D3000C1FF8346206804990FF0BCFF59460290FA
:102D40000FF060FF824649460FF05CFF0646A06820
:102D500005990FF0AFFF8146606806990FF0AAFF52
:102D6000824649460FF0A0FF07463146384611F02B
:102D700053FAFD4902900FF09DFF8346FB490FF087
:102D8000CBFF8246FA48016850460FF03BFF814670
:102D9000F8490FF0C1FF8046404611F083FC05B2B0
:102DA000002D02DA05F5B47005B2284607B0BDE87B
:102DB000F08F2DE9F05F04460D46A16808460FF03C
:102DC00079FF8146616808460FF074FF82462168EA
:102DD00008460FF06FFF834651460FF013FF804601
:102DE00049460FF00FFF074612F0A2F806460021F1
:102DF000304610F0ABF80ED0314620680FF08CFF53
:102E00002860314660680FF087FF68603146A0682F
:102E10000FF082FFA860BDE8F09F2DE9F04F87B06A
:102E200000250AF0ACFF0646D3480068301A069029
:102E3000069810F02AF80746D048C16838460FF0C7
:102E400039FF0590CC48066000245CE0CC4931F99C
:102E5000140010F011F8074605990FF02BFF02A996
:102E600041F82400C74890F8310000283CDDC549EE
:102E700091F8310010F009F8834659464FF07E5022
:102E80000FF04AFF8146C04931F914000FF0F4FFFA
:102E9000824649460FF00EFF0746BA4991F83100C5
:102EA0000FF0F3FF834659464FF07E500FF034FF8A
:102EB00082464FF07E510FF0FAFE8146B34850F83B
:102EC000241048460FF0F6FE804639460FF09AFE71
:102ED000AE4941F8240051F824000FF0DBFF00B2A6
:102EE000AB4921F8140005E0A74830F81400A849C0
:102EF00021F81400A64830F91400A54931F914103E
:102F000000FB0155641C032CA0DB64206843A1492D
:102F10000988494390FBF1F502A99F48FFF730FD6E
:102F2000A8B2482835DDA8B2852832DA00242EE080
:102F30009A49B1F862010FF0A8FF82464FF07E5126
:102F40000FF060FE814649464FF07E500FF0E4FEE0
:102F500007468F4931F914000FF08EFF82468F49E2
:102F6000B1F862010FF091FF83468B4850F82410AE
:102F700058460FF09FFE814651460FF043FE8046B3
:102F800039460FF097FE844941F82400641C032C55
:102F9000CEDB8348B0F900000FF06EFF07467E4895
:102FA000816838460FF0D2FF01D2012000E00020F6
:102FB0007C494873784A9168506811F02DF97A4934
:102FC0000860754A916890680FF074FE8246724AF4
:102FD000516850680FF06EFE834651460FF012FEA6
:102FE000074611F0A5FF80466B48006880F0004955
:102FF0004146484611F010F96B49486008686B4932
:103000000FF058FE074611F04DFB00B268490880EA
:103010006549486865490FF04DFE074611F042FBCF
:1030200000B2634948800820FFF708FCE0B302A91A
:103030006048FFF7A5FC00242EE05849B1F8640170
:103040000FF023FF82464FF07E510FF0DBFD8146EB
:1030500049464FF07E500FF05FFE0746564931F962
:1030600014000FF009FF82464C49B1F864010FF0DB
:103070000CFF83464F4850F8241058460FF01AFEB4
:10308000814651460FF0BEFD804639460FF012FED4
:10309000484941F82400641C032CCEDB4548FFF767
:1030A000F1FD464908800DE0FFE702A94448FFF71B
:1030B00067FC43490846FFF77CFE4148FFF7E2FD05
:1030C0003E4908800698FFF716FD2E4890F88200CA
:1030D00000287FD0304A916890680FF0EBFD2E4AAF
:1030E0000190516850680FF0E5FD83462A4A116847
:1030F00010680FF0DFFD594600900FF083FD824607
:1031000001990FF07FFD814611F012FF0746224919
:10311000886839460FF000FE80462A4940460FF085
:1031200015FF03D800202849088064E0404610F0CD
:10313000E3FF82462548016850460FF0BBFD8146FB
:1031400011F0B0FA0746B7F5617F01DD4FF4617702
:1031500038460FF091FE1E4900900FF0DDFD8346CA
:1031600011F020FE824636E00000E144DB0F4940CA
:103170006C00002000002041AC000020940D0020D5
:103180000C0000201C09002012000020440A00202E
:1031900018000020D60100202C0A0020580400202E
:1031A0002C000020E80B00208C0000204C3D0F4438
:1031B00088000020380A00201E000020D8010020CE
:1031C000A00000208FC2753C680000207400002021
:1031D000EFB6B04410E0FE4991F882000FF055FEC2
:1031E000514601900FF066FD814611F05BFA00B286
:1031F000F849088000BF00BF07B0BDE8F08F10B5E8
:1032000003F091FF0220FFF719FB20B103F0FFFD4F
:10321000FFF703FE04E00020EF4908804880888023
:10322000EE484079012812D1ED48B0F90410ED487C
:10323000B0F9000001EB4000032190FBF1F000B277
:10324000E949888008468088E649088003E0E44828
:103250008088E5498880E2480088E3490880E048A2
:103260004088488010BD0020E049086048608860C0
:10327000DF490860DF49086070472DE9F04F89B0E9
:103280000AF07DFD0890DC48B0F90000002803DD5D
:10329000D948B0F9000003E0D748B0F90000404237
:1032A000D549B1F90210002903DDD349B1F9021063
:1032B00003E0D149B1F90210494288420DDDCE4800
:1032C000B0F90000002803DDCB48B0F9000011E0A0
:1032D000C948B0F9000040420CE0C748B0F902000C
:1032E000002803DDC448B0F9020003E0C248B0F989
:1032F0000200404206B2C14908980968471A46F2DE
:10330000A810874203D2002009B0BDE8F08FBB4966
:1033100008980860BA480088002841DDB949086863
:10332000C11700EB5171B74A1268A2EBE101B54A2F
:103330001160A74890F83400401EB3490968B1FBFA
:10334000F0F0114609680844114608600846D0F8B4
:1033500000B04FEAEB710BEB5171C8100FF08CFD10
:10336000AA4900900FF0D8FCA949019011F0B4F9D6
:103370004FF07E5102900FF09AFCA64903900FF097
:1033800099FC04900FF086FDA34908600020A34932
:103390000860A34908609A480088401E9849088040
:1033A0008B4890F83400401E97490968B1FBF0F053
:1033B00000900FF06AFD834694490FF0ADFC9449EC
:1033C000019011F089F94FF07E5102900FF06FFCDF
:1033D000904903900FF06EFC049011F063F9069091
:1033E0008D4906980968401A06907948816B4FF01C
:1033F0007E500FF059FC029006980FF03DFD0190B1
:1034000002990FF057FC0490864800680FF034FDD5
:1034100002906F48816B02980FF04CFC0390049966
:103420000FF0F0FB834611F03DF97E490860FA2E5B
:1034300004DD4FF0FF307C49086018E030460FF0A3
:103440001BFD7A4901900FF032FC0390764800682A
:103450000FF012FD029003990FF02CFC73490490B9
:103460000FF05AFC83460FF015FD6F4908606E4857
:10347000006800280FDD6C480068C8280BDA69482E
:10348000006869490968401A694908606648006827
:103490006449086039E06348006865490968401A72
:1034A000604908606048006800282EDD5E490968B0
:1034B000C1F596700FF0E0FC83465E490FF02CFCDE
:1034C0005D490860084601684FF07E500FF0ECFB44
:1034D0000290544800680FF0CFFC019002990FF061
:1034E000E9FB0490504800680FF0C6FC0290524877
:1034F000016802980FF0DEFB039004990FF082FB45
:1035000083460FF0C7FC474908603A4800680FF04F
:10351000BCFC834649490FF0CDFB05903448006858
:103520000FF0AAFC8346314988680FF0A5FC594684
:1035300004900FF0F1FB82462E4800680FF0A5FCC6
:1035400083463F48016850460FF0B4FB594604904B
:103550000FF0B0FB81463148059900680FF0AAFBD7
:103560004FF07C51039048460FF0A4FB0290059960
:103570000FF0A0FB834603990FF044FB049028480A
:10358000016804980FF03EFB254908601048016C63
:103590004FF07E500FF088FB0390224800680FF038
:1035A0006BFC029003990FF085FB83460848016C81
:1035B0001B4800680FF07EFB594604900FF022FB79
:1035C0001749086018480068002843DD164839E0AC
:1035D0001C09002068000020120000205804002070
:1035E0000C000020940000207C000020200A002015
:1035F000280000202400002088000020B0000020C7
:10360000D2010020C80000203800002080E6C54715
:10361000B1DC423ED048874AC4000020B8000020F8
:10362000BC0000203C000020480000200000614455
:10363000440000200000C84240000020BD3786350D
:10364000700000200068C82804DA704800687049DB
:10365000086005E06F4800680FF01CFC6C490860CA
:1036600049466D4800680FF0CDFA6B490860FFF7D6
:10367000FAFD38460FF009FC644904900968674A6E
:103680001268881A0FF0F8FB654902900FF012FBE0
:10369000039004990FF040FB83460FF0FBFB07906B
:1036A0005A4800685D49086040F2DC525142079870
:1036B00007F0B2F907900A210798FFF750F9079031
:1036C0005848C16B4FF07E500FF0EEFA0390079808
:1036D0000FF0D2FB029003990FF0ECFA83465148A9
:1036E000C16B4D4800680FF0E5FA594604900FF0A1
:1036F00089FA494908600846006810F0D3FF8046FF
:1037000005214046FFF72BF947490860B6F5487F89
:1037100073DA46480078F8B9454909683C4A1268A6
:10372000881A4FF4FA72514207F076F904460A21DA
:103730002046FFF714F904463A48007900FB04FBE1
:103740004FEAEB710BEB5161C8114FF49672514285
:1037500007F062F9054601E036480568A5EB080464
:103760003048807A00FB04FB4FEAEB710BEBD16130
:1037700048114FF49672514207F04EF92E490860F5
:103780002848007D2D49096800FB04102B4908607A
:103790002B4A51422948006807F03EF92749086042
:1037A0000846006842F2040190FBF1F022490968E2
:1037B0000844214908602348016850460FF022FA66
:1037C00018490290887F0FF060FB019002990FF07A
:1037D00071FA83464FF088410FF09EFA03900FF084
:1037E00059FB96225142049007F016F912490968D4
:1037F000081A1149086003E0FFE700200E4908603D
:103800001048C0F800A001207EE500003C00002028
:103810004C000020BC000020B8000020C0000020A8
:10382000002474491C090020640000205C00002072
:1038300054000020580000205000002060000020AC
:1038400020031900B400002070B504460D4600BFE7
:10385000F74908680CF0FCF90028F9D0E1B2F44A05
:1038600010680CF0C5F9204670BD88B00025FEF741
:103870009BFC0020FEF7D5FFFEF7D0FCED49897BCD
:1038800009B1012100E0002108460CF000FFEA48E0
:103890000068EA49884203D10120E949086007E04D
:1038A000E5480068E749884202D10220E4490860FF
:1038B0000AF0A4FA0820FEF7D9FF58B1DD4890F8C5
:1038C0008A0110B1012804D100E000BF06F0D0FE4B
:1038D00000BF00BF64200AF02FFBFEF7C4FC0BF012
:1038E000A7FC022806D1D6480068022802D103208E
:1038F000D3490860D2480068032802D0012009F0AB
:1039000022FBCC4890F88101002814DDC94890F8CA
:103910008101012809D0C74890F88101092804D005
:10392000C44890F88101052805D1C24890F881016A
:103930008DF8040005E000208DF80400BD4981F8F1
:103940008101BC4890F8980100281CDDB94890F826
:103950009801012809D0B74890F89801092804D0A7
:10396000B44890F8980105280DD1B24890F8980114
:10397000B04991F88111884205D0AE4890F898017D
:103980008DF8050005E000208DF80500A94981F8B3
:10399000980101A808F03CFD0220FEF767FF08B17E
:1039A00003F0BEF807F043F80E20FEF750FF02F0D8
:1039B00017FF054615B903200AF0CAFA1020A249DC
:1039C00008600820091F086000241AE09E48083893
:1039D000006880F010009C490839086008460068BB
:1039E00080F00800086019200AF0A6FA01200AF009
:1039F000E6F919200AF0A0FA00200AF0E0F9601CAC
:103A0000C4B20A2CE2DB08208F49091F086010208D
:103A10000860FEF753FF00F0ABF98649D1F8A40126
:103A200003F04DFD834840790E2807D08148407946
:103A3000082803D07F484079182803D101208DF849
:103A40000E0002E000208DF80E004FF48070FEF7AB
:103A50000DFF18B90820FEF709FF08B1012000E0AA
:103A600000208DF80A004020FEF700FF8DF80B00C3
:103A70000120FEF7FBFE8DF809000820FEF7F6FE98
:103A800080F001008DF808006948407D8DF80C0039
:103A90006E4890F8DC00C0F380008DF80D0065489A
:103AA000B0F84E01ADF812006248B0F85001ADF820
:103AB0001400604890F852018DF80F004FF47A70AE
:103AC000ADF816004FF48040FEF7D0FE20B1594803
:103AD000B0F84A01ADF81600BDF81200B0F5FA7F53
:103AE00002DD0020ADF816004FF48030FEF7BEFE78
:103AF0008DF81C004FF40030FEF7B8FE8DF81D0065
:103B00004C48B0F88E01ADF818005048B0F8D80015
:103B1000ADF81A00474890F88101012802D0092821
:103B200008D103E001208DF8100007E007208DF890
:103B3000100003E000208DF8100000BF00BF02A8B5
:103B400009F0EEFF9DF81E0039498875002406E053
:103B500040F2DE503E4921F81400601CC4B2122C21
:103B6000F6DB3C483C490860082031490875FEF7FF
:103B70007DFEF8B12F4890F88A01062819D2DFE8B7
:103B800000F00304080C101400BF334806F03CFD9D
:103B90000FE0314807F046F90BE02F4807F022FA12
:103BA00007E02D4807F008FF03E02B4808F0A9FBC9
:103BB00000BF00BF1F4991F89F0105F054F8012094
:103BC000FEF754FE30B14FF48060FEF74FFE08B1AF
:103BD00003F065FB4020FEF749FE58B1154A92F804
:103BE000AC11D2F8A8010BF0F7FE124991F8AD0123
:103BF0000BF010FF4FF40060FEF738FE08B107F03D
:103C000023FD0AF0BCF8154908600A4840790528E8
:103C100003D14FF4C870124908804FF47A701149EB
:103C20000880C8201049088001201049487321E00D
:103C3000500A002058040020F403002000127A00EB
:103C4000CC000020001BB700140C01401C09002010
:103C5000FE0B0020C751000818010020F4000020CE
:103C6000D0010020D4010020D2010020E80B002068
:103C700001F0B7FDFCE70449B1F8441108B200F0C7
:103C8000BEFA00BFFEE7000058040020014601EB29
:103C90008102F74800EB4200B0F9040012280CDA68
:103CA00008290ADA01EB8102F14800EB4200B0F981
:103CB0000400F04A32F91000704701EB8102EC4831
:103CC00000EB4200B0F90400F6E7024602EB820383
:103CD000E74800EB4300008901238B40184010B1F6
:103CE0004FF0FF3070470120FCE710B50020E2499B
:103CF00008707021E1480EF0F7FE00241BE0C4EBD1
:103D0000C401DF480844807800B916E0C4EBC40061
:103D1000DA490144C4EBC402D948104402680A607D
:103D200082888A8080798871D3480078401CD24983
:103D30000870601CC4B2102CE1DB00BF10BD10B5D0
:103D4000002412E04FF48040FEF790FD20B1CC48F3
:103D5000D038B0F84A0103E0C948D038B0F844017F
:103D600000B2C84921F81400641C0C2CEADB10BD19
:103D700070B5C348D0384079C34901EBC0004078E2
:103D800008B1012000E00020C04948752020FEF75E
:103D90006DFD10B10120BD494875B948D038407952
:103DA000172823D100241EE0B549C03901EB0411C6
:103DB000086800210FF0CAF800D116E0B44800EB03
:103DC0000411AF48C03800EB0413D3E9015218685E
:103DD000DB68C1E90152CB600860AE480078401C46
:103DE000AC490870641C0C2CDEDB28E0A448D038F9
:103DF0004079A54911F83000A6490870A048D0388C
:103E00004079A14901EBC0004068C0B1002412E034
:103E10009B48D03840799C4901EBC000406800EBDA
:103E200004139B4800EB041093E82600DB6880E84D
:103E30002600C360641C974800788442E8DB9348FE
:103E4000407D50B38E48D0384079934911F8300006
:103E5000894908708A48D03840798F4901EBC00001
:103E60004068D0B1002414E08548D03840798A49B0
:103E700001EBC0004068C4EBC4010844C4EBC401BA
:103E80007E4A114402680A6082888A80807988713B
:103E9000641C794800788442E6DB4FF48040FEF7EA
:103EA000E5FC70B37B48007801282ADD002424E07B
:103EB000774901EB041188684FF07C510EF0FAFE4F
:103EC000734901EB04118860714901EB04114868E2
:103ED0004FF07C510EF0EEFE6D4901EB041148608D
:103EE0006B4901EB0411C8684FF07C510EF0E2FE03
:103EF000674901EB0411C860641C6648007884427D
:103F0000D6DB5F48D0384079082809D05C48D038E3
:103F100040790E2804D05A48D038407918280AD160
:103F200001205E4908745648D0384079182805D1D8
:103F3000FFF7DBFE02E0002058490874FFF7FFFEA0
:103F400070BD10B50146491C002014E00022C0EBF2
:103F5000C0044B4B23449A71C0EBC004484B23442C
:103F60009A70C0EBC004464B23445A70C0EBC004A7
:103F7000434B1A55401C1028E8DB002011E0464A4C
:103F800002EBC1025268C0EBC0031344C0EBC00493
:103F90003B4A22441C6814609C8894809B799371EE
:103FA000401C3D4A12F831208242E8DC10BD70B559
:103FB0000146491C002006E00023314AC03A02EBCA
:103FC00000121360401C0C28F6DB2F4A02EBC102E2
:103FD0005268BAB1002010E02B4A02EBC1025268CD
:103FE00002EB0013264AC03A02EB001293E870007D
:103FF000DB6882E87000D360401C234A12F831204D
:104000008242E9DC70BD10B52048407D00B910BD8A
:104010001B48D03840790E287DD008DC01281AD002
:1040200004280BD005284CD0082872D163E014284E
:1040300054D0152870D01828F7D186E01848008988
:1040400081B2002009F056FE1548408981B2012056
:1040500009F050FEBFE00648843890F8DB0030B12C
:104060000F48408981B2002009F044FE28E019E0A1
:10407000A0090020FE0B0020D1000020580B0020DA
:1040800028050020800A002018610108500A00203D
:10409000980A0020D000002084620108E80B00206C
:1040A000D2000020FB48407830B1FB48408981B203
:1040B000002009F01FFE03E00021084609F01AFE67
:1040C00089E0F548008881B2002009F013FEF2482B
:1040D000408881B2012009F00DFE7CE0EE480089A5
:1040E00081B2002009F006FEEB48408981B2012030
:1040F00009F000FE6FE0E848C08881B2002009F0B6
:10410000F9FDE548008981B2012009F0F3FD62E084
:1041100001E04FE000E000BFDF48C08881B200202E
:1041200009F0E8FDDC48008981B2012009F0E2FDD8
:10413000D948408981B2022009F0DCFDD648808947
:1041400081B2032009F0D6FD45E0D348C08881B292
:10415000002009F0CFFDD048008981B2012009F08C
:10416000C9FDCD48408981B2022009F0C3FDCA488B
:10417000808981B2032009F0BDFD0120FEF776FBA6
:10418000B8B1C548008881B2042009F0B3FDC24827
:10419000408881B2052009F0ADFDBF48808881B21A
:1041A000062009F0A7FDBC48C08981B2072009F0AC
:1041B000A1FD10E02020FEF759FB58B1B648008859
:1041C00081B2002009F096FDB348408881B20120F9
:1041D00009F090FD00BF00BF00BF18E710B5002434
:1041E00008E0AE4830F8140081B2204609F075FDB1
:1041F000601CC4B2AA4800788442F2DB10BD70B5DE
:104200000546002404E0A54820F81450601CC4B200
:10421000A34800788442F6DBFFF7E0FF70BD2DE98C
:10422000F04F87B09B48807A60B19E480088ADF817
:1042300004009C484088ADF806009A488088ADF894
:1042400008000BE098480088ADF8040096484088C4
:10425000ADF8060094488088ADF808008F480088C3
:10426000ADF80A00914800899149B1F88E11401AC1
:1042700000B2ADF80C008D4840898D49B1F88E111F
:10428000401A00B2ADF80E00884880898849B1F81C
:104290008E11401A00B2ADF810008448C0898449DC
:1042A000B1F88E11401A00B2ADF812007F480088B4
:1042B0007F49B1F88E11401A00B2ADF814007B4866
:1042C00040887B49B1F88E11401A00B2ADF8160053
:1042D000764880887649B1F88E11401A00B2ADF860
:1042E00018007248C0887249B1F88E11401A00B2A5
:1042F000ADF81A00002405E00020674921F81400F9
:10430000601CC4B2082CF7DB0024BBE0C4EBC40083
:1043100068490844807940B1C4EBC40008448079FE
:1043200014306549085C00287ED0C4EBC4006149A4
:104330000F5CC4EBC4000844457807EB87015F4875
:1043400000EB4100418807EB87025C4830F812001F
:10435000081A86B2C4EBC401564A114491F90410FC
:104360007143642291FBF2F1304606EBD072A1EB6F
:1043700062010FFA81F8C4EBC4014E4A114491F96D
:1043800005107143642291FBF2F106EBD072A1EBB0
:1043900062010FFA81F9C4EBC40046490844C078B1
:1043A00030B901A830F81500454921F8140042E061
:1043B000434830F9140001A931F91510884218DA80
:1043C0003F4B33F91430C4EBC40CDFF8E8A0D444FD
:1043D0009CF803C003EB0C0001AB33F91520384BFC
:1043E00033F9141006F018FB00B2354921F8140017
:1043F00021E0334830F9140001A931F91510884241
:1044000019DD2F4B33F91430C4EBC40CDFF8A4A032
:10441000D4449CF803C0A3EB0C00294B33F91420BF
:1044200001AB33F9151000E026E006F0F5FA00B212
:10443000234921F8140029463846FFF746FC8346F5
:104440001F4830F91400C4EBC4011A4A114491F911
:1044500002104843642190FBF1FA4A464146504617
:1044600006F0DAFA0C4931F917100BFB001000B214
:10447000094921F8170003E00020114921F8140030
:10448000601CC4B20F4800788442FFF63FAF00249E
:1044900039E00000E80B0020D2000020680A00206C
:1044A000D00000200E0100202A010020FE0B002079
:1044B00058040020580B0020480C0020A0090020C0
:1044C000C80B0020D100002004EB8401FE4800EB63
:1044D000410090F90600FD4931F914104843642168
:1044E00090FBF1F000B2F94921F814002046FFF7E3
:1044F000CDFBF64931F81410084400B2F34921F815
:104500001400601CC4B2082CDEDB07B0BDE8F08FDD
:104510002DE9FC5FEE480078032826DDED4BB3F96A
:104520000430002B03DDEB4BB3F9043003E0E94B1F
:10453000B3F904305B4203F16402E64BB3F9043093
:10454000002B03DDE34BB3F9043003E0E14BB3F997
:1045500004305B426FF06306F11ADF4BB3F90400DD
:1045600006F05AFA00B2DC498880D9480078012860
:1045700057DD002451E0D449843991F9DA104942D9
:10458000D54AB2F9042001FB02F00EF075FC814619
:10459000D24800EB0410C16848460EF08BFB07467A
:1045A000CD49B1F900000EF067FC8346CB4800EB23
:1045B0000410416858460EF07DFB8146C649B1F9AA
:1045C00002000EF059FC0090C44800EB0410816812
:1045D00000980EF06FFB8346BE49B1F906000EF05D
:1045E0004BFC0090BD4800EB0410016800980EF0F1
:1045F00061FB594601900EF005FB824649460EF0DC
:1046000001FB804639460EF0FDFA06460EF042FCEC
:1046100000B2B34921F81400641CAD48007884420C
:10462000A9D3B048007C00287ED0A748843890F8F1
:10463000EA00002870D0AB48407800286CD0A94828
:10464000807AA0B3A349B1F904000EF015FC8146AD
:104650004FF07C510EF02EFB07469E49B1F9060043
:104660000EF00AFC804639460EF01EFB06460EF0A0
:1046700011FC00B29A4908809649B1F904000EF085
:10468000FBFB81464FF07C510EF014FB074691492D
:10469000B1F906000EF0F0FB804639460EF0B2FA92
:1046A00006460EF0F7FB00B28D49488034E0FFE784
:1046B0008949B1F904000EF0DFFB81464FF07C51CF
:1046C0000EF0F8FA07468349B1F906000EF0D4FB64
:1046D000804639460EF0E8FA06460EF0DBFB00B2E3
:1046E0007F4908807C49B1F904000EF0C5FB814682
:1046F0004FF07C510EF0DEFA07467649B1F906001C
:104700000EF0BAFB804639460EF07CFA06460EF0F3
:10471000C1FB00B2724948806B48843890F8EA00C7
:1047200040B96C48C08800E01EE06D4908806948C7
:10473000C08848806B48407858B16B48B0F9060093
:104740006A49B1F8901188420EDA1020FEF78EF80F
:1047500050B16648B0F8440100B26149088063482E
:10476000B0F8440100B24880604840790E2811D06A
:1047700008DC012810D004280DD0052811D0082805
:1047800034D106E0142808D0152807D018282DD1D8
:1047900000BF00BF00BF00BF00BF00BFFFF73FFD6D
:1047A00024E04948843890F98A005149B1F902104F
:1047B0004843322190FBF1F30020FFF767FA1844D9
:1047C00000B2424908804048843890F99400484932
:1047D000B1F900104843322190FBF1F30120FFF7BB
:1047E00055FA184400B23949488000BF00BF202064
:1047F000FEF73CF800284BD00020FFF747FA33497A
:1048000008800120FFF742FA304948803948007A91
:10481000F0B32D48843890F8DC0000F00200C0B3FB
:104820002948843890F98A0040423149B1F9021090
:104830004843322190FBF1F12348843890F99400E9
:104840002B4AB2F900205043322290FBF2F0081AB2
:104850001E490988081A00B21C4908801A48843881
:1048600090F98A0040422249B1F9021048433221AE
:1048700090FBF1F11448843890F994001C4AB2F985
:1048800000205043322290FBF2F008440F4901E02F
:1048900041E005E04988084400B20C4948803AE00C
:1048A0000948843890F98A001149B1F90210484347
:1048B000322190FBF1F005490988084400B2034910
:1048C00008800148843817E0A0090020D2000020A9
:1048D000D00000200E0100202A010020980A0020AC
:1048E000680A0020E80B0020FE0B0020580400207E
:1048F00088000020480C002090F994007E49B1F90E
:1049000000104843322190FBF1F07C49498808446B
:1049100000B27A494880002415E004EB8406784B05
:1049200003EB4603B3F9022004EB8406744B33F91E
:104930001610724B33F9140006F06EF800B26F498E
:1049400021F81400641C082CE7D36D48843890F8D3
:10495000DC0000F0040088B16A48807D061F002456
:1049600009E0221D684B33F8122091B2A219D0B28F
:1049700009F0C0F9641C042CF3D300BF6348B0F9FC
:104980000050012408E0614830F91400A84202DD1B
:104990005E4830F91450641C5D4800788442F2D3BC
:1049A0000024A1E05B48B0F84201A8420EDA5A4860
:1049B000007C58B9554830F814005649B1F84211F6
:1049C000691A401A00B2514921F814004FF480408E
:1049D000FDF74CFFE8B34C48B0F906004D49B1F87B
:1049E0008E11884220DD4B4BB3F84221B3F84811B9
:1049F000464B33F9140006F00FF800B2434921F892
:104A0000140044484079012861D13D4B843BB3F9FF
:104A1000B820B3F9B610394BB3F90A0005F0FCFF22
:104A200000B23649488152E03A4BB3F84621B3F818
:104A30004411364B33F9140005F0EEFF00B2334950
:104A400021F8140033484079012840D12C4B843B95
:104A500000E00CE0B3F9B620B3F9B810274BB3F976
:104A60000A0005F0D9FF00B2244948812FE0294B04
:104A7000B3F84221B3F84011244B33F9140005F088
:104A8000CBFF00B2214921F814001F48B0F90600FD
:104A90002049B1F89011884216DA1020FDF7E6FEA1
:104AA00038B91C48B0F8400100B2184921F8140088
:104AB0000DE01848B0F8440100B2144921F8140080
:104AC00001201549487402E0002013494874124837
:104AD000407840B9114830F814000C4921F814000E
:104AE00001200D494874641C094800788442FFF491
:104AF00059AFBDE8FC9F000088000020D2000020D4
:104B0000A0090020500A0020FE0B0020680A0020A7
:104B1000D000002058040020E80B0020800A00206C
:104B20002DE9F04104460D4616464FF000081BE003
:104B3000002710E0FE48006880F00800FC4908608B
:104B4000012009F03CF9284609F0F6F9002009F0A7
:104B500036F9781CC7B2A742ECDB3C2009F0ECF92F
:104B600008F1010000F0FF08B045E1DBBDE8F0818D
:104B70002DE9F04F85B0EF48007C38BBEE48B0F926
:104B80000600EE49098D884201DA64276EE0EA48A2
:104B9000B0F90600B0F5FA6F12DAE748B0F906008E
:104BA000E649098D401AE54991F826104843E34942
:104BB000098DC1F5FA6190FBF1F0C0F1640755E091
:104BC000DE4890F82600C0F164074FE08027DA49FC
:104BD000B1F90610D94A128D914200DA1FE0D84986
:104BE000B1F90610D54A92F82620914217DDD44932
:104BF000B1F90610B1F5FA6F0DDAD149B1F9061025
:104C0000CE4A92F82620891ACC4A92F8262051439F
:104C1000A7EB612703E0C94991F826107F1A4FF4EA
:104C20009670C849B1F9021014290FDDC34991F8F3
:104C30002610C44AB2F90220824203DAC14AB2F90C
:104C4000022000E002465143A7EB2127BB4991F81F
:104C50002610C1F18001B94205DDB84991F826104E
:104C6000C1F1800100E039460F4600BF0024CAE0D0
:104C7000B14830F91400B449B1F88E11401A002837
:104C800007DDAD4830F91400AF49B1F88E11401A74
:104C900006E0AD48B0F88E01A74931F91410401A6A
:104CA000B0F5FA7F18DAA44830F91400A649B1F833
:104CB0008E11401A002807DD9F4830F91400A249E0
:104CC000B1F88E11401A09E09F48B0F88E019A4958
:104CD00031F91410401A01E04FF4FA700546022C25
:104CE0003BD0964890F87C0050B1944890F87C00F6
:104CF000A84204DA914890F87C002D1A00E00025C3
:104D0000642095FBF0F69149701C31F9100031F9DF
:104D10001610401A06EBC60101EB0611A5EB810146
:104D20004843642190FBF1F0884931F8161008449B
:104D300000B2834921F8140080482330005D6843A5
:104D40004FF4FA7190FBF1F0C0F164081FFA88F09B
:104D50007843642190FBF1F826E0784890F87D00D4
:104D600050B1764890F87D00A84204DA734890F874
:104D70007D002D1A00E00025734890F95C01404247
:104D8000684300B26E4921F814006C4890F8250081
:104D9000002D01DD294600E0694248434FF4FA71D5
:104DA00090FBF1F0C0F164086448401C005D00FB1A
:104DB00008F0642190FBF1F0654908555F480B301D
:104DC000005D00FB08F0642190FBF1F0614908559B
:104DD0005A481530005D00FB08F0642190FBF1F0AB
:104DE0005D490855544830F914005749B1F88E11FF
:104DF000884207DA524830F81400404200B2504965
:104E000021F81400641C032CFFF632AF4E4AB2F8AE
:104E10009011494AB2F906004FF4FA6205F0FCFD20
:104E200005464948B0F89001281A4FF47A71484372
:104E30004549B1F89011C1F5FA61B0FBF1F5642074
:104E400095FBF0F64549701C31F9100031F9161048
:104E5000401A06EBC60101EB0611A5EB81014843A0
:104E6000642190FBF1F03D4931F81610084400B27E
:104E70003349C8802F48407A002855D03849B1F9C5
:104E80000010384AB2F90020881A0DF0F5FF82466A
:104E900035490DF00FFF814634490DF03DFF049078
:104EA00004980FF03DFB039004980FF07BFF0290F5
:104EB0002349B1F900000DF0DFFF009002990DF0D9
:104EC000F9FE82461E49B1F902000DF0D5FF0090AF
:104ED00003990DF0EFFE834651460DF093FE814697
:104EE0000DF0D8FF00B201901549B1F902000DF0A4
:104EF000C3FF009002990DF0DDFE82461049B1F922
:104F000000000DF0B9FF009003990DF0D3FE834629
:104F100051460DF0C9FE81460DF0BCFF00B20849B4
:104F200008800198488000BF0220FDF79FFC1FE029
:104F30000C0C0140E80B0020FE0B00201C09002097
:104F40000E0100208800002058040020220C0020C0
:104F5000200100202301002026010020300C002029
:104F6000D8010020FA000020DB0F49400000344344
:104F700000287AD0FC480068FC4909880844FA49AE
:104F80000860FB480078401CC0B2F949087006214F
:104F900090FBF1F201FB120000285DD1F549086891
:104FA000C11700EB5171F34A1268A2EBE101F14A1B
:104FB0001160002007F0D0FAEE4909680844ED4975
:104FC0000860D1F800904FEAE97109EB5171C1F323
:104FD000CF0001F071FDE8490880E84890F88101B0
:104FE000002839DDE6490868C11700EB5171E44A31
:104FF0001268A2EBE101E24A1160022007F0ACFA6C
:10500000DF4909680844DE490860D1F800904FEA9A
:10501000E97109EB5171C1F3CF0001F06BFDD94982
:10502000086008460068D049096848434FF47A711F
:1050300090FBF1F0C117D44B0CCB80185941D24AE8
:1050400003C2D24A0023D04903C90DF0D9FCD0498C
:1050500008600020C4490860C7480088CD49098815
:10506000884203DC012005F099FB08E0C248008873
:10507000C9490988884202DC022005F08FFB05F04F
:105080005FFCC6480088002803DD0220FDF7D6FB40
:1050900018B9C3480088002806DDC248006880F0BF
:1050A0000800C04908600FE0BF48807818B10820A8
:1050B000BC49091D0860BC48407818B10820B949AE
:1050C0000831086006F0A9FA8020FDF7CFFB70B127
:1050D000B6480068B6490968401A08D4B348006861
:1050E0004CF250310844B249086009F0D5FAAF4893
:1050F0000068B0490968401A15D4AB48407B78B9BC
:105100000020A9498870A748006880F00800A549D8
:105110000860A6480068A8490844A649086002E05B
:105120000120A1498870A048007CE0B10820FDF76B
:1051300085FB58B9A1480088642807DDA04800888D
:105140000A2190FBF1F000B29E4908800420FDF78F
:1051500075FB40B99C4880689C490988081A6421FD
:1051600048439B49086003F0F5FB9A48007830B942
:105170004FF40060FDF77AFB08B106F08BFA2020AF
:10518000FDF75CFBA8B18948006893490968401A9B
:105190000FD49248007805280BDB844800689049BA
:1051A00008448D4908607F48006880F010007D4900
:1051B00008608C48806818B18A4881688A488847A6
:1051C00005B0BDE8F08F10B504468849085D08F0C9
:1051D0009BFD10BD70B50820FDF748FB68B10024A9
:1051E00008E0E0B282490968884700B2814921F8A5
:1051F0001400641C082CF4DB47E000243EE0E0B21D
:105200007B4909688847054640F2EE20854203DB6A
:1052100040F6CA00854202DD5848B0F88E5129B2E6
:10522000754A1068C21700EB92729210A0EB8202CE
:10523000724B03EBC40323F8121000206D4921F8D0
:10524000140000260DE06D4800EBC40030F8160095
:10525000684931F81410084400B2664921F8140076
:10526000761C042EEFDB634931F91400C11700EB03
:10527000917189105F4A22F81410641C082CBEDB5F
:105280005D480068401C5C49086070BD10B544482A
:10529000008808BB44488078F0B14348407818BB88
:1052A0000120414948704748B0F90000544908803E
:1052B0004FF48070FDF7DAFA50B13B48C07A38B14C
:1052C00046480078052803DB072005F067FA0BE065
:1052D000062005F063FA07E03348407820B9012240
:1052E000FF210220FFF71CFC10BD10B52E484078AE
:1052F00058B100202C494870052005F04FFA41486C
:10530000006810B100203F49086010BD70472DE9CA
:10531000F04F85B0002700200390804602903A4865
:10532000B0F90200002803DD3748B0F9020003E0BD
:105330003548B0F9020040423349B1F90010002964
:1053400003DD3149B1F9001003E02F49B1F9001034
:10535000494288425FDD2C48B0F90200002855DD43
:105360002948B0F9020063E0A0010020F800002005
:105370008C01002090010020FC0000205804002037
:10538000940100200001002098010020407E0500CB
:10539000040100207A01002078010020D0010020C3
:1053A000D40100200C0C0140E80B0020F00000208C
:1053B000A40100208801002020A107004001002056
:1053C0004A010020D8010020640C00203E0100208A
:1053D0004C00002000000020A8010020380100201F
:1053E000F0490200940D002008010020DA05002099
:1053F00018010020FE0B0020AC010020080D002049
:10540000FA0000207C0100200E010020FD48B0F9C8
:10541000020040420CE0FB48B0F90000002803DD28
:10542000F848B0F9000003E0F648B0F90000404247
:105430000546002411E1F448C07810B9F24800791B
:10544000E8B3022C47DAF14B33F91430DFF8B4C378
:105450003CF914C04FF0020E0EFB0C30EC4BB3F8CD
:105460006821B3F86831594205F0D6FAE94931F9B3
:105470001410411AE84830F914000E18E6482C3888
:10548000007A7043642190FBF1F7E3482C38007FE9
:1054900000EB8002E0482C38007F404200EB8001A6
:1054A000384605F0B9FA0746DC4951F82410881946
:1054B00042F21072514205F0AFFAD84900E00AE01A
:1054C00041F82400084650F82400D3492C39897C3F
:1054D000484300130390CC48C07820B1CA480079F3
:1054E00008B9022C50D1C74830F9140000EB8000F5
:1054F0000101C9482B38005D91FBF0FAC84830F92A
:105500001400AAEB000ABF4830F91480C54951F8CD
:10551000241001EB0A004FF47A52514205F07CFA54
:10552000C04941F82400BE4830F91400002803DDCA
:10553000BB4830F9140003E0B94830F91400404288
:10554000B0F5207F10DC022C12D1AE4830F91400E7
:10555000002803DDAB4830F9140003E0A94830F916
:1055600014004042642803DD0020AE4941F82400C5
:10557000AC4850F824007D2190FBF1F0A649213978
:10558000095D4843801102909F480079B8B1022C10
:1055900015DAC5F5FA70784308FB05004FF4FA7187
:1055A00090FBF1FBC5F5FA7103984143029800FBAB
:1055B00005104FF4FA7190FBF1F004900BE0924863
:1055C000C07828B1022C03DABB460398049002E0AD
:1055D000C34602980490924931F91410924A125D20
:1055E00051430A2291FBF2F0C11700EB5171ABEB72
:1055F000E10B8B4830F914008C4931F91410A0EB01
:105600000109874830F81400884921F814008848B7
:1056100050F82400874951F82410084400EB090190
:105620000091834850F82400824941F824008048C2
:1056300040F8249080490A5D009902FB01F0C117EF
:1056400000EBD16149110191049858440199401A25
:1056500000B27A4921F81400641C032CFFF6EBAE6B
:1056600005B0BDE8F08F2DE9FF5F00270024A5E01D
:10567000022C0BD168482C3890F825001B3061496A
:10568000B1F904104843401103903DE05D4931F900
:1056900014105E4A32F9142088184FF4FA725142FD
:1056A00005F0BAF95B4931F91410411A5A4830F93A
:1056B0001400084400900DF0DFFB614901900DF0EB
:1056C0002BFB02900DF0E6FB07464F48C078A8B9C7
:1056D00051480938005D1B304A4931F914104843DC
:1056E000001103904848007970B14B482C38807CF9
:1056F0007843039901EB2020039005E046482C38BD
:10570000007A784300110390454830F9141003984B
:10571000451A41482B38005D68434FEAE01941487B
:1057200050F82410474800886843C2123A4821388C
:10573000005D02FB00103B4941F8240051F82400B1
:105740004FF40012514205F067F9364941F8240040
:10575000084650F824004FEA603A3B4850F82400CD
:105760002E1A394840F824503648008800114FF668
:10577000FF7191FBF0F070438611344850F824001B
:10578000334951F82410084400EB06082F4850F81C
:1057900024002F4941F824002C4840F824601E487A
:1057A0001738005D00FB08F04FEA202B09EB0A00D8
:1057B000584400B2214921F81400641C032CFFF660
:1057C00057AFBDE8FF9F10B1012804D000BF2149A9
:1057D000214A116003E021491F4A116000BF00BF48
:1057E00070472DE9FF5F0025002700260020039069
:1057F0000820FDF73BF898B3054890F88A01062881
:1058000049D22EE00E010020E80B002044010020C8
:105810005804002088000020480900208001002052
:105820007C000020FC0C002020010020B0010020A2
:10583000480D0020540D0020260100202A010020E0
:1058400000002041F8000020780D0020600D0020AD
:105850006C0D00200F5300081C0100206756000843
:105860001AE0DFE800F00304080C101400BF04F095
:10587000FCFE03900FE005F003FB03900BE005F046
:10588000C0FB039007E006F08BF8039003E006F0FE
:1058900047FD039000BF00BFFE480068FE4909684D
:1058A000401A02D5039800287ED000200390F948C2
:1058B000006844F620610844F7490860FFF78AFC55
:1058C0004FF48040FCF7D2FF20B1F448007808B9CB
:1058D000FFF70BFD01F0ABF8F14908804FF40070C1
:1058E000FCF7C4FF28B94FF40040FCF7BFFF0028C5
:1058F0005DD0EC4890F8D40000EB8000EA49B1F9A3
:105900000010884236DAE948407898B3002407E06E
:10591000E748B0F88E0100B2E64921F81400641C93
:10592000032CF5DBDF48B0F8D60000B2E149C880AF
:10593000032004F033FFDB4890F8D400D94991F8F4
:10594000D510084400EB8000D749B1F90010884217
:105950000ADAD648807C38B9FFF7C7FC0020D34963
:105960000870042004F01AFFD3480088401C00B2DD
:10597000D1490880CB4890F8D40000EB8000CA4998
:10598000B1F9001088420ADAC848407838B9FFF700
:10599000ACFC0020C5490870042004F0FFFEC2489A
:1059A0000088401C00B200E0FEE3BF4908800024EC
:1059B00015E0AD10BF4830F91400BD49B1F89011A1
:1059C000884201DD45F08005BA4830F91400B84935
:1059D000B1F89211884201DA45F04005641C042CAC
:1059E000E7DBB6480078854209D1B5480078FA2847
:1059F00008DAB3480078401CB149087002E0002082
:105A0000AF490870AD4805704FF48040FCF72EFF99
:105A1000C8B1A748B0F88E01A549B1F84C11401A99
:105A2000A449B1F9061088420DDAA148B0F88E01F8
:105A30009F49B1F84C1108449E49B1F906108842BB
:105A400001DD01260DE04FF48040FCF70FFF40B967
:105A50009848B0F906009649B1F89011884200DAEA
:105A60000126A6B1002097490860486088609649E1
:105A7000086048608B48B0F84A00002807DD874876
:105A8000007820B18948007808B1FFF7FFFB85480E
:105A9000B0F84A0000280FDD8048007860B98348DC
:105AA000407848B1824890F8950110B1FFF71DFC8D
:105AB00002E00EB1FFF719FC8148007814281CD1D0
:105AC0007A484078D0B17748B0F84A0028B97B4886
:105AD00000785F2801D1FFF708FC754890F8940121
