:020000040800F2
:1000000000500020A5F0000851F1000819C00008B8
:1000100051F1000851F1000851F100080000000002
:1000200000000000000000000000000051F1000886
:1000300051F100080000000051F10008F5BF000870
:1000400051F1000851F1000851F1000851F1000888
:1000500051F1000851F1000851F10008C5C0000835
:1000600051F1000851F1000851F1000851F1000868
:1000700089BF000851F10008B9BF000851F100081C
:1000800051F1000851F1000851F1000851F1000848
:1000900051F1000851F1000851F10008C1C00008F9
:1000A00051F1000851F1000851F10008B3C00008F7
:1000B000A9C000089DC0000891C0000815C0000834
:1000C0000DC0000811C0000809C0000851F1000867
:1000D00051F1000845BF0008D1BE000899BE0008D4
:1000E000C9C0000851F1000851F1000800000000EB
:1000F0000000000000000000000000000000000000
:0C01000000000000000000005FF808F1A3
:100110002DE9F04FB74C97B0A368B74D13F0080125
:1001200000F0E88094F88A21052A00F2E580DFE8F3
:1001300002F0030305527A852B78DEE06878AE4A38
:10014000002800F0D98000209F05507003D5137E51
:100150001E0700F1D180E8780023AA7800F0070696
:10016000AB83A64B42EA06221A602A7902F03F06C8
:10017000760146EAD00058606879800040EA921023
:10018000AA7902F0010640EA86209860E87900F03A
:100190000F06F60146EA5202DA602A7A02F07F067A
:1001A000360146EA10101861687A400040EAD2121F
:1001B000A87A00F0030642EA46225A61EA7A02F07F
:1001C0001F06B60146EA90009861287BC00040EA0D
:1001D0005212DA6130E0AA7F874B002A00F08C804F
:1001E00093F82000002201289A7740F085809A83B6
:1001F00093F83420082A84BF082283F8342095F825
:1002000034007F4A0023DEB2864202F1020213D29A
:1002100012F8016C12F8027C46EA0727794E46F87C
:1002200023700133EFE795F85830734A0020002B14
:1002300063D0908382F8580001235EE095F859302E
:10024000002B59D06C4B002283F859204FF6FF70D9
:10025000694B03F15A06965D0132801B1E2A80B25B
:10026000F6D193F8796093F8782002EB062292B2E7
:10027000904241D193F85D0093F85C2002EB00229C
:10028000DA6793F85F0093F85E2002EB0022C3F870
:10029000802093F8610093F8602002EB0022C3F8FD
:1002A000842093F8630093F8622002EB0022C3F8E5
:1002B000882093F8650093F8642002EB0022C3F8CD
:1002C0008C2093F8670093F8662002EB0022C3F8B5
:1002D000902093F8690093F8682002EB0022C3F89D
:1002E000942093F86B0093F86A2002EB0022C3F885
:1002F0009820A1E70B4600E000234348D5F89C6016
:1003000002688346961B002E02DA002B00F0BE84A2
:1003100002F59C422032C5F89C20DFF800A1DFF8EE
:100320000091002939D1394E88460F46DAF800305D
:10033000F8B29847A0F2EE2292B240F2DC539A4211
:10034000D5F8E020324B88BFB4F88E011340002B63
:1003500003DA013B63F003030133274903EB87030F
:1003600001EB4303A3F8A0003188738801370B44E5
:10037000B188082F0B44F18806F108060B441BB224
:100380004FF0040193FBF1F329F8083008F102085B
:10039000CCD10132C5F8E02009E00026F0B2DAF84D
:1003A0000030984729F816000136082EF6D1A368C8
:1003B000580404D595F8E4300BB90BF043FE94F8DB
:1003C00097210C4B72B3033239F91200A0F57A7001
:1003D000B0F57A7FA8BF4FF47A7020EAE0700CF095
:1003E00081FB0C490CF086FC0B490CF0CFFB0CF0A8
:1003F000B9FD2CE0EC1B00200801002008090020BA
:100400002A01002040010020D4210020A801002062
:100410000300008000007A4400C07F4400090020EF
:10042000DC08002093F8980190B1B84AD179B84A15
:1004300032F81100B3F89C2180B2801AB3F89A31D7
:10044000C0EB802090FBF3F000B280F30A0080B292
:10045000A368B04A13F4024FA5F8FC006AD0AE4E70
:10046000B2F91C0096F8CE3003EB8301884241DDDF
:10047000AA4991F801E00F46BEF1000F3AD0A84911
:10048000B1F88E11A9F80010A9F80210A9F804100B
:10049000B6F8D010A9F80610A24991F800E08846F5
:1004A000BEF1030F08D9A049C2F80011032188F852
:1004B00000100021A2F8041196F8CF20134403EB9A
:1004C0008303984211DDBF7C7FB90BF0BBFD934BDA
:1004D0001F7098F80030042B07D9944B0422C5F8FC
:1004E0000031904BA5F804711A70B5F8063101334C
:1004F000A5F8063196F8CE30B5F91C2003EB83033E
:100500009A42844F13DDDFF8148298F8016076B9BF
:100510000BF098FD834B88F800601A78042A06D9FE
:10052000824AA7F80461C7F8002104221A70AB8B35
:100530000133AB830022B4F89011B4F892611346F2
:1005400039F902009B088842C4BF63F07F03DBB225
:100550000232B042B8BF43F04003082AF0D195F808
:1005600008016C4A984205D192F80901F92804D88B
:10057000013000E0002082F8090185F80831A36805
:10058000674A13F4804A644FB9F906300AD0B2F8CA
:100590008E11B2F84C21881A834206DD0A44934238
:1005A00006DB02E08B4203DB21E04FF0000A1EE095
:1005B0000023C5F80435C5F80835C5F80C35C5F86D
:1005C0001431C5F818310023C5F81035C5F81435B5
:1005D000C5F81835C5F81C35B7F846302BB14D4B6A
:1005E00093F8E430002B41F048874FF0010AB7F848
:1005F000463073B195F8E4305BB9484B5B7843B152
:1006000094F8953113B10BF01DFD02E0BAF1000F23
:10061000F9D195F809213F4B142A40F0C6803F4E8E
:100620007178D1B1B7F846202AB993F808315F2B19
:1006300001D10BF007FD94F89431002B00F0B58048
:10064000B7F84630002B40F0B08095F808317D2B8C
:1006500040F0AB800BF0F6FCA7E093F80821572A96
:1006600015D1334B4FF47A721A80A368D90501D59E
:1006700006F03AFF2F4B1B685A0702D52E4A0A2173
:10068000118013F0080337D1A5F80A3134E0A068CF
:10069000400728D55A2A26D193F80C0128B1012207
:1006A00083F80C1183F80D2126E093F80E111D4AF2
:1006B00081F0010183F80E1151B111780A291BD97B
:1006C0001E49A3F80401C3F800110A21117013E0B8
:1006D00010780B2810D91A48A3F80411C3F80001A8
:1006E0000B20107008E05D2A01F0D0865B2A01F033
:1006F000CF865E2A01F0CE86B7F8463013BB95F858
:1007000008216F2A1ED103F0CBFD30E04006002007
:100710004806002008010020CC20002069080020A5
:10072000EC1B00200000002098160108AB16010801
:10073000000E002078060020020E0020AE160108F0
:10074000B316010894F8942122B11BB995F8083129
:100750007E2BD8D095F80831972B04D1984B4FF4C5
:10076000C8721A8003E0A72B04BF0123B37395F866
:100770000831BB2B02D1BB8D023303E0B72B03D171
:10078000BB8D023BBB8509E0BE2B02D17B8D0233C2
:1007900003E0BD2B09D17B8D023B7B850120014607
:1007A00004F044FD002385F80931A068420731D5E3
:1007B00095F80E21834B8AB1834A527872B1834AED
:1007C000B9F90610B2F89021914207DD93F8E420C0
:1007D00022B93221A3F8101183F80E2195F8F520E3
:1007E000784B62B193F812212AB993F80C2112B90F
:1007F0003222A3F81021012385F812310AE093F880
:100800000C213AB1704A527822B983F80C210122A6
:1008100083F80D216E4E0123002136F8022F03F1DB
:10082000FF3CA2F2155EBEF5C77F8CBF4FF0000EF5
:100830004FF0010E0EFA03FE12B24EEA010140F231
:10084000135E7245CCBF4FF0000E4FF0010E0EFA52
:100850000CFE41EA0E0140F2A46E7245D4BF0022A4
:10086000012203F1010E02FA0EF2033311430D2BA4
:1008700089B2D2D1002307EB430EBEF846E0514ABD
:1008800011EA0E0F0CBF4FF0000E4FF0010E02F1F7
:10089000E40603F806E00133182BECD192F8E530BA
:1008A000494E4C4943B94C4BB2F91C2093F8CE3019
:1008B00003EB83039A421BDD0A68930718D5F3788C
:1008C00043B9C5F81431C5F818313F4B4FF0010E4C
:1008D00083F803E003040ED597F8CE30B5F91C0079
:1008E00003EB8303984206DD900604D5012301E063
:1008F0000023F370B37495F8E630324A5BB10023FD
:10090000F370337943B9C2F81431C2F818312E4B61
:1009100001221A7100E0337195F8E4300BB901231C
:100920003370F2782D4B12B9274A127912B1102286
:100930005A6101E010221A6109684A0725D595F825
:10094000E720204B9AB1B07990B91F4A4FF0010EC1
:1009500082F806E0D3F82021C3F83001C3F81C2147
:10096000B3F82C21C3F83401A3F8242100E0B271BC
:10097000A3689B0409D595F8E8302BB1F37B23B924
:10098000114B0122DA7300E0F37311F00A0F30D03B
:1009900095F8E9300B4A4BB1737943B90A4B012002
:1009A0005871B2F80A31A2F8383100E0737195F845
:1009B000EA30ABB1737AA3B9034B01225A7210E04B
:1009C000E02100200801002069080020EC1B002025
:1009D000E208002078060020CC200020000C014016
:1009E000737295F8EB20B04B1AB1B3F80A21A3F853
:1009F0003A2111F0200FDFF8B08200F0CC80F27ABB
:100A0000AA4B002A00F0C28095F83C21042A40F24B
:100A1000BD8098F8EE20A6490AB99A7CB2B1F07967
:100A2000A24B002840F09F8048701872A148012214
:100A3000011DDA710292019309F0DEFC022185F8B2
:100A40004C11B5F85C11C5F8581136E0DA7198F818
:100A5000EF20002A35D0B8F92601B7F8E2200028A7
:100A6000B8BF404290422CDAB8F928010028B8BF3C
:100A70004042904225DA1A7A002A74D14A70D8F896
:100A800060114FF0010CC8F85011D8F8641108F546
:100A9000A870C8F8541108F5AA7183F808C0CDF8F9
:100AA0000CC00292019309F0A7FCDDF80CC0B8F865
:100AB0005C1188F84CC1C8F85811029A019BDA748D
:100AC00051E049780023337200294CD1784B012240
:100AD0005A708E46744B002203F5B4702EF8002035
:100AE00003F5B7702EF8002003F5B9702EF800203A
:100AF00003F5BC7C002041F80C008C44CCF80420A9
:100B0000CCF8080003F5D07C41F80C008C44CCF8FC
:100B10000420CCF808000EF1020E03F5E47C41F845
:100B20000C00BEF1040F8C44CCF80420CCF8080073
:100B300001F11401CED1317C11B90023F37412E01C
:100B4000C3F8F001C3F8F401A3F8F821A3F8FA21DF
:100B5000A3F8FC215849002353520C31535202325E
:100B60000A2AF7D1E9E752490B780C2B13D995F8EB
:100B700016224D4B7AB95148A3F80421C3F800015D
:100B80000C200870012183F8161204E00023F37191
:100B9000337285F84C3195F8F0302BB1B37C1BB92A
:100BA000424B01229A7201E00023B372637903F091
:100BB000EF02082A01D00E2B2AD1A268002190054D
:100BC0003A4B717224D597F8CE2006277A43B5F9AF
:100BD0001C0090421CDD0122DA70394A9972B2F889
:100BE0008E118AB2A9F80020A9F80220A9F80420E1
:100BF000344AB2F8D020A9F80620DA7A42B92A4855
:100C000090F83C01052803D89A742F4B323919808B
:100C1000A2682B4BD20640F168817278002A00F05E
:100C20006481224A127C002A40F05F81BAF1000FF1
:100C300023D02649D8F8182209684AB993F87631A2
:100C40004FF47A7202FB0312174BC3F8182206E026
:100C50008A4204D293F876310BB10BF0F3F9144BBE
:100C60001A78092A40F24181194AC8F8002109225C
:100C70001A700023A8F8043137E1D8F81832002B95
:100C800000F03381084BC3F818A22EE1064BD3F8CD
:100C90001C32042B00F22981DFE813F01C00A200B3
:100CA000F40000010B0100BF0801002069080020CA
:100CB000000000204802002006030020BA160108A8
:100CC000EC1B0020CC200020DC080020E81B0020CA
:100CD000AB1601080123C5F81C32B14BB14E1B689D
:100CE0001B077DD5D6F82032D31A002B78DBAE4B0C
:100CF00002F5C332A0325B6806F50970C6F82022FF
:100D00009847AA4B06F509779A7B184692B1D6F810
:100D100020220023C6F82C22E1180022A1F870211D
:100D20001646A349FA5A5A5206315A520233062B32
:100D3000F2D186739F4B1B78A3B1B5F82422B4F887
:100D40007031D31AA5F82432B5F82622B4F87231DE
:100D5000D31AA5F82632B5F82822B4F87431D31A7C
:100D6000A5F82832D5F82C328E4A002B00F0BD8031
:100D7000D2F820129048CB1A834202F2362102F5B3
:100D80000C7019D88D4BDA6882F00802DA60002303
:100D9000FA5A30F903E016B2B645C4BFDFF810E2E4
:100DA00023F80E2031F903E0B645BCBF844E9A53B8
:100DB0000233062BECD198E00023C2F82C32C75E38
:100DC000CE5EE2183E4402273B4496FBF7F6062B24
:100DD000A2F87061F3D10120014604F027FA84E003
:100DE000D5F81C326F4E0133C5F81C326C4B1B68B2
:100DF0005F0747D5D6F83C32D31A002B42DBD6F832
:100E00004032C6F83C226F4F9BB13B6998477B68E4
:100E10009847D6F83C323A8806F511701344C6F864
:100E20003C3206F512717B6998470023C6F84032C0
:100E30005BE0BB689847FB689847634AD6F84C125A
:100E400092F831204B1C934208BF0023D5F844226E
:100E500005EB8101C1F85022D5F81013C5F84C32CA
:100E60000A4405EB8301D1F850020123121AC5F898
:100E70001023C5F840327A88D5F83C321344C5F8BF
:100E80003C3232E0D5F81C320133C5F81C32444BF9
:100E90001B68580702D508F0A5F930BBD5F81C32FD
:100EA0000133C5F81C32A368D90502D502F080FAD7
:100EB0001BE00023C5F81C32394B1B68DA0614D539
:100EC000424B1A68424B19683C318A420DD31A6072
:100ED000404F414A334B394EC3F814233B880B2013
:100EE000336105F03DFF3B88736105F01FFFA38967
:100EF000CBF800002BB1D5F81823821A002AC1F2D2
:100F0000DB821844C5F8180303F024FA05F00EFF3D
:100F1000324BCBF800001A681860314B821AB3F9D3
:100F20000610294B92B20492A5F81C23DA8C914248
:100F30000FDBB1F5FA6F93F8257007DA881A47438B
:100F4000A2F5FA6297FBF2F7643703E0C7F1640792
:100F500000E06427B4F88E2193F82350059294F9A9
:100F60005C2193F87660524292B293F877E093F85E
:100F70002430079200220893069513461848DDF89E
:100F8000149032F900B040F2E634C9EB0B0000F2E5
:100F9000F315A54226D80028B8BF404224E000BF80
:100FA0007806002008010020F006002069080020D3
:100FB00038030020180700207FC3C901000C01403E
:100FC0003E030020C8060020CC200020E81B0020A3
:100FD000EC0D0020E00D002038000020FC0D00206A
:100FE000DC0800204FF4FA70022B30D026B1B0425A
:100FF000CCBFC6EB000000206424DFF810A390FBF8
:10100000F4F80AEB48056FF0630C0CFB080CB5F81C
:101010001E530AEB4808B8F920930FFA85F8C8EB7D
:10102000090808FB0CF8DDF818C098FBF4F800FB81
:101030000CF0A8440AF5937522F80580B24D90FB98
:10104000F5F52544ADB27D4395FBF4F518E0BEF10E
:10105000000F04D07045CCBFCEEB00000020079DF0
:10106000DDF8209000FB05F40028B8BF4042A74DF2
:1010700000FB09F0A5F82A41A34C90FBF4F5643578
:10108000DFF8BC82A24803EB080494F8019094F8BE
:101090000BA005FB09F905FB0AFA647D4FF0640C0F
:1010A00099FBFCF965439AFBFCFA03F8009000F108
:1010B000030903F809A0DDF814A000F1060995FB67
:1010C000FCF5D34503F809504446A0F54B7904DA02
:1010D00009F59370155A6D4215520133032B02F135
:1010E00002027FF44BAF8B4AB2F89031994205DB94
:1010F000B1F5FA6FA8BF4FF4FA6100E01946C91ABA
:101100004FF47A725143C3F5FA63B1FBF3F36426EB
:1011100093FBF6F209EB4201B1F836036FF063017D
:1011200001FB023309EB4202B2F9381302B28A1A08
:10113000534393FBF6F6784B30445B7A734DA9F832
:101140002C01002B44D0B5F93A31B5F90A01C01A87
:101150000BF01EF96AA3D3E900230BF07FF90022FC
:101160006E4B0BF0A5FA0BF0B3FB06460EF08CF9B4
:10117000074630460EF0FCF90646B5F928010BF09B
:10118000B1FC8046B5F926010BF0ACFC394682462D
:101190000BF0FCFC3146834640460BF0F7FC014661
:1011A00058460BF0E9FB0BF0B7FE3946A5F82601CF
:1011B00040460BF0EBFC3146074650460BF0E6FC90
:1011C000014638460BF0DAFB0BF0A6FEA5F8280125
:1011D000504ED6F8088018F0020F00F0C280D9F8FF
:1011E0005033DDF810B006229B4499F85433474D34
:1011F0000133DBB2B3FBF2FA02FB1A3A1AF0FF0733
:10120000C9F850B389F85433049766D1444A454B22
:101210005078D5F8581333F810E0082791FBF7F011
:101220001FFA8EFE081A7044C5F8580390FBF7F0B9
:1012300080B2029201930BF055FC3B490BF0A6FCE7
:101240003A490BF057FD824696F87D010BF04AFCB7
:10125000014650460BF09AFC0BF084FE96F8811183
:10126000A5F85C03029A019B002936D05279D5F883
:10127000601333F8122091FBF7F392B2CB1A1344A8
:10128000C5F8603393FBF7F39BB240F6E441594352
:1012900040F6FF72B1FBF2F1B6F87A21B6F8783178
:1012A000891A4FF47A72514391FBF3F10BFB01FB66
:1012B0002B469BFBF2F2C5F86413F3E9DA018018C0
:1012C00041EBE271C3E90001194A00230BF06AFE09
:1012D000049EC5F87003C5F85063164AB9F85C134C
:1012E00012880A4B8A42144A2CD31178012938D922
:1012F0001249C3F8001101212FE000BFAFF30080B5
:10130000182D4454FB2109400CFEFFFF080100206A
:1013100034040020EC1B0020690800200080664097
:1013200040060020480600203333534000F07F453C
:10133000407E05005206002000000020C91601086A
:10134000CC200020AF48008888420AD311780229B7
:1013500007D9AD49C3F80011022111700022A3F88A
:10136000042199F8F130A94D8BB32B78082B2ED995
:1013700018F4807F23D0A64BDB7A03B3A54B93F8F8
:101380003C0104281BD90023A34905225A540F26E7
:10139000CA185670122B03F10206F2B204D0B0EB59
:1013A000520F3346F0D800E014224A44642382F8F6
:1013B0007533FF2382F87633C9F8001102E0974BAA
:1013C000C9F8003108232B700023A9F804312B78C9
:1013D0000D2B1FD0D9F800218E4BDAB193F88A0378
:1013E0008F4980B90868D3F88C13814212D8012044
:1013F00083F88A03B3F80431D35C0BB105F08FFC9A
:1014000008F04CF906E00868D3F88C13814201D843
:101410000020EDE7834B1B881BB1834B1B689B07A8
:1014200002D4824B1B882BB1814BDA6882F0080210
:10143000DA600FE0764B9A7812B17D4A082111618B
:101440005B7813B17A4B08225A617A4B1B780BB147
:1014500003F0D6FC784EDFF8F481B36813F0800F08
:1014600062D0D8F80030D9F890236A4F9A1A002A2F
:101470005ADB03F543435033C7F8903397F894335E
:1014800093B97A238DF84030B7F90A310222C3F1BB
:10149000B40393FBF2F38DF841306D2010ABFF21C4
:1014A00009F052FB012324E0012B25D17923B7F960
:1014B00096238DF840300A2392FBF3F25A32B42A75
:1014C000A8BFB42222EAE2728DF84120B7F998232E
:1014D0006D2092FBF3F35A33B42BA8BFB42323EA55
:1014E000E3738DF84230FF2110AB032209F02CFB8F
:1014F000022387F8943317E0022B15D164238DF86B
:10150000403001238DF84130414B6D205B78FF2145
:10151000002B18BF01238DF84230032210AB09F0D5
:1015200013FB002389F89433D8F80020D9F89C33B2
:10153000D31A002B0FDB364B597B71B999703C4B9A
:10154000D96881F00801D96002F5F423314A03F526
:101550009073C2F89C3300270DE001229A70FAE7DD
:1015600093F838341BBB6B68DFF8A080186804F070
:1015700032FA10BB0137D9F83C24264B9742DFF8EA
:10158000D08080F2A08003F568724C2101FB072215
:101590006A6098F80020002AE2D009F061FF92E02A
:1015A00096F8C1348342DED1244A254B1A6009F0F3
:1015B00009FF244A244BDA60D5E7D8F804301868CC
:1015C00004F004FAD8F8043093F8492092B9B0F145
:1015D000240EDEF1000252EB0E0283F84920002AAD
:1015E000C1D10B4B5B78002BBDD12328D8D109F09A
:1015F00037FFB8E7012A2DD14D2814BF002202225F
:101600005EE000BF50060020CC160108000000205C
:1016100069080020080100207C040020CF16010882
:10162000E81B0020E021002078060020000E0020AA
:10163000000C0140F80D0020EC1B0020EFBEADDED9
:10164000F04F00200400FA0500ED00E0D421002056
:10165000D8210020022A04D13C2814BF00220322F2
:101660002EE0032A0BD140284FF0000228D883F83F
:1016700047205A7183F848001871042220E0042A98
:1016800006D11A7983F8460050401871052217E0F8
:10169000052A7FF468AF93F8481093F847209142E9
:1016A000197907D941401971511C83F84710134427
:1016B000987158E7814201D100F012FF6B68002257
:1016C00083F849204FE798F800303BB1B84B1A68CF
:1016D0001E4612F0200F40F085819AE1B268B54BAA
:1016E0001105F3D5B44A1278002AEFD093F8AF2150
:1016F00062B993F8B03113B9B04B5B7801E099F857
:10170000F830003318BF0123002BDFD096F8AE313C
:10171000002B72D1AA4BD86804F05DF900286CD177
:10172000A84BD9F840141A68A74B511A7C2964D9E0
:10173000C3F8402493F844248046013283F84424BB
:1017400008F12400A04FC0B204F0E2F907F24643CA
:1017500033F918000BF0C6F99C4B824618880BF041
:10176000C1F9014650460BF0C5FA99490BF00EFA43
:101770000BF0D2FB08F1010800B205F0C5FAB8F190
:10178000030FDDD1302004F0C3F9B7F94C0405F0A4
:10179000BBFA04F0CDF997F8440410F0030A2AD1FB
:1017A000102004F0B5F9D7F850344FF0640893FBDB
:1017B000F8F000B205F0A8FA212004F0A9F9D7F852
:1017C000503493FBF8F008FB103888EAE870A0EB7F
:1017D000E87000B205F098FA142004F099F9B7F90E
:1017E0000A0105F091FA1C2004F092F9504605F028
:1017F0008BFA04F09DF904F0F9FD96F8AE31012B57
:101800007FF464AF6E4EF06804F0E5F800283FF412
:101810005DAFF06804F0DAF80746052005F0ABFA92
:101820008A2F2FD08E2FEDD100212E2269480DF066
:10183000C0FB7C2389F88634E02389F889347D2332
:1018400089F8B234B9F85C3389F88774DAB21B0AC4
:1018500089F8A53489F89B34142389F89E3489F8D3
:101860009F344FF4FA73A9F8A0344823A9F8A83498
:10187000782389F8A42489F89A2489F8AA34554849
:101880002E2191E04A4B1B689A06BBD54E4E002193
:1018900006F254402C220DF08CFB7C2389F8543442
:1018A000A02389F857347D2389F87F3499F83C3197
:1018B00089F8557489F86E34404BDB7A002B6ED072
:1018C000D6F86071444ADFF8188197FBF2F066237E
:1018D000C0B286F87D34FB0F08FB00774FF0060E90
:1018E0000EFB07F786F85D3442F21073B7FBF3F195
:1018F00000EB800003FB117700EB8000C9B201EB25
:101900008000D6F8641180B291FBF2F2D2B286F870
:101910005E04000A86F85F04C80F08FB02110EFB84
:1019200001F186F8620402EB8202B1FBF3F003FBE3
:10193000101302EB8202C0B200EB820292B286F870
:101940006324120A86F8642486F86534B6F8802485
:101950001B0A86F866346423B2FBF3F303EBC3037C
:101960009B009BB286F85B341B0A86F85C34B6F8A1
:10197000823486F8607486F867341B0A86F8683407
:10198000B6F85C313F0A86F869341B0A86F86A3477
:10199000B6F8843486F8617486F8703402E0202347
:1019A00086F87D340D482C2108F0CAFE2AE700BFD6
:1019B00078060020EC1B0020F80D002069080020AC
:1019C0001C070020E81B0020080100202400002044
:1019D00000007A448E050020A08601005C050020EE
:1019E0006079FEFF8D4BD9F8B4141B688C4A591AE4
:1019F00000290EDB92F83C1104290AD903F51233B1
:101A000003F5F873C2F8B434864BDA6882F010023A
:101A1000DA60854B9B680BB18448984731680B07A7
:101A200035D5B9F82A217E4E02F145039BB28A2BA7
:101A300029D87F4B58791F4628B3B6F83831B6F805
:101A40000A01C01A80B283B21EB2B336BCBF00F521
:101A5000B4739BB218B2B3287E7B7648C4BFA3F59B
:101A6000B4739BB290F85C018EB140B240424343E4
:101A7000607A1BB243436FF01D0093FBF0F31A44EE
:101A8000A9F82A2103E0B9F80A31A9F838314F073B
:101A90007BD5674B9A79002A77D01E7C002E69D1BE
:101AA00094F8790094F878205D4B88B3B9F82CE16C
:101AB000B9F924010FFA8EF7C0EB0708B8F1000F4F
:101AC000B8BFC8F1000890450FDD8742C8BF524239
:101AD0001FFA8EFEC8BF92B2C3F83061724401266D
:101AE00083F8BA64A9F82C214FE093F8BA242AB1FC
:101AF000D3F8202183F8BA64C3F81C21D9F8343113
:101B00004C4A1844B2F84031B2F84221984229E0D8
:101B1000B9F92471B9F92C61F61B86EAE67EAEEBC1
:101B2000E67E96450ADD022296FBF2F60122C3F814
:101B3000BC6483F8C02483F8BA240AE093F8BA247A
:101B40003AB1D3F8206183F8C004C3F81C6183F86C
:101B5000BA043848D9F83421B0F840313A44B0F8E2
:101B600042019A4203DB8242B4BF13460346A9F8FE
:101B70002C310AE02F4BB9F8282193F99601D9F8B6
:101B8000343100FB0323A9F8283194F87C305BB191
:101B9000274BDA780AB91B7933B1B9F82C31B9F887
:101BA000C2241344A9F82C318E0640F1D480204B76
:101BB000DA791AB91A7A002A00F0C6801B7B002B4A
:101BC00000F0C280B9F90A010AF08CFF1A490AF044
:101BD000DDFF07460DF0CCFC804638460DF054FC86
:101BE000134B0F4E1B7C0746002B40F0AA8094F845
:101BF000DBA0B6F97401BAF1000F6FD0B6F87031FE
:101C0000CAF100061FFA83FB1BB2C01A05F094FC50
:101C1000B04213DB5045A8BF504610E0D42100204D
:101C200008010020000C01407C060020C0050020B7
:101C300069080020EC1B002035FA8E3C3046B9F8CC
:101C40006E218344B9F9720193B212B21FFA8BFB71
:101C5000801AA9F870B1019305F06EFCB042019BA7
:101C600003DB5045B4BF064656461E449F48B6B2F5
:101C7000A0F86E610FFA8BF00AF034FF824630B2A2
:101C80000AF030FF3946064650460AF07FFF4146CB
:101C9000834630460AF07AFF014658460AF06CFE49
:101CA00093490BF027F80BF037F99049A1F8680138
:101CB000414650460AF06AFF3946804630460AF0EF
:101CC00065FF014640460AF059FE89490BF012F8BB
:101CD0000BF022F9854AA2F86A013CE00AF002FF03
:101CE0008346B6F972010AF0FDFE3946824658462F
:101CF0000AF04CFF41460346504601930AF046FF66
:101D0000019B014618460AF037FE79490AF0F2FFB6
:101D10000BF002F94146A6F8680158460AF036FF72
:101D20003946804650460AF031FF014640460AF0E7
:101D300025FE6F490AF0DEFF0BF0EEF8A6F86A0107
:101D400009E006F002F906E00023A9F86831A9F8D5
:101D50006A31A9F86C31AB689847664B93F800B0CC
:101D6000BBF1030F13D9B9F92A11B9F9C824002915
:101D7000B8BF49426FF063035B1A9A4204DB01F17A
:101D800064039342A8BF1346A9F8C83408E0BBF126
:101D9000010F05D85849594B0A7C002A4FD161E000
:101DA00094F9D4A0B9F9C824CAF1000A02FB0AFACE
:101DB000B9F82C31B9F8C674B9F8C484504D00266E
:101DC0005E4505F11005E5D218B201930AF08AFECE
:101DD00055F8101C0AF0DAFE024638B202920AF0F8
:101DE00081FE55F8081C0AF0D1FE029A0146104601
:101DF0000AF0C4FD02460FFA88F002920AF072FE61
:101E000055F80C1C0AF0C2FE029A014610460AF070
:101E1000B5FD0246504602920AF064FE55F8041CD5
:101E20000AF0B4FE029A014610460AF0A7FD0BF034
:101E300073F8344A019B22F816000136C0E74A784D
:101E4000304812B9B3F844210BE0B9F92C51B3F87A
:101E50004021B3F84261954203DBAE42B4BF324643
:101E60002A4602805A79013AD2B2172A00F23C81FE
:101E7000012303FA02F2244B134053BBD00640F176
:101E8000338194F98430B9F99803204958433223B7
:101E900090FBF3F0B4F8823080B21AB2112ADCBFA2
:101EA0001B4B33F8123003440B80B9F9960394F9B5
:101EB0008E305843322390FBF3F0B4F88C3080B26C
:101EC0001AB2112ADCBF124B33F8123003444B8094
:101ED0000AE18B7AF3B1B9F82631ADF84030B9F8A0
:101EE0002831ADF84230B9F82A311DE00801002050
:101EF00000002041B020002069080020EC1B0020D9
:101F000038070020B220002089209800820000209D
:101F1000DC080020B9F8C434ADF84030B9F8C63454
:101F2000ADF84230B9F8C834ADF84430B54B1B8831
:101F3000ADF84630B44BB3F88E21B44B1989511A21
:101F4000ADF848105989511AADF84A109989511ABB
:101F5000ADF84C10D989511AADF84E101988511AA4
:101F6000ADF850105988511AADF852109988511A8D
:101F7000ADF85410D988521AADF85620002202EB61
:101F800082012144B1F8821008B21128D8BF33F879
:101F900010109F4811520232102AF0D19D4B00219F
:101FA0001B785B0005930B46DDF814B05B4500F031
:101FB0008A80994D4A19907920B1484490F8F800E8
:101FC00000287BD0685C0A2505FB0045B5F88070C9
:101FD0007835ED8892F904B07F1BBFB207FB0BFB8D
:101FE00064259BFBF5FB92F801A055794FEA570C4D
:101FF00092F80380CCEB0B0B04951FFA8BFB874DFB
:102000004FEA4A0E16AEB8F1000F03D1764436F807
:10201000186C0CE0B6443EF918ECEE5E764508DA32
:10202000B044B04503DBC645B4BF76464646EE52E3
:102030000AE009DDC8EB0608F04503DBB045B4BF94
:10204000C646B64625F803E0DFF8D8E14FF00A08A7
:1020500008FB00EEBEF886E0DFF8C0814EFA0AFA0F
:1020600033F9088092F902201AF0010F02FB08F2FE
:102070004FF06408664D92FBF8F20FFA8BFB0CBF31
:102080004FF0010E4FF0FF3E5A4535F810601FFA31
:102090008EFE0EDBDDF810A04FFA8AFB07FB0BFB70
:1020A0009BFBF8FBCCEB0B0B0FFA8BFB9345A8BF0C
:1020B00093460BFB0E6B25F810B001E0574A98527F
:1020C0000233073170E7564A00235649B2F902003D
:1020D000194491F984100A334143642091FBF0F1D3
:1020E000502B22F8021FF0D1474CA36813F0200FA9
:1020F0004C4B3ED0B3F88220B3F88C5011B211296A
:10210000D8BF424A4248D8BF32F8112029B211291B
:10211000D8BF3E4D0280D8BF35F81150DFF810818E
:10212000458099F8EC003A492E4610B393F8D60052
:1021300093F98E5010F0020FB8F996734FF03200F9
:1021400093F984E0B8F998C318D07D43CEF1000E1E
:102150000CFB0EFC95FBF0F56FF03107ADB29CFB6C
:10216000F7F72F449CFBF0FC3A4465440A802E4468
:102170004E802B4A2B4902F1100610E00CFB0EFE9C
:102180007D439EFBF0FE724495FBF0F00A8006440E
:10219000EEE722F8020FB24201F10A010CD0B2F9C7
:1021A0000250B1F97E00B1F880708542F1DB38B29F
:1021B000A842A8BF2846ECE793F8D630590705D4C3
:1021C0001049194B08881B7801220FE0174B002596
:1021D0001E7E043E0D4BA81903EB4503C0B21989BE
:1021E000013505F0BBFA042DF4D1E9E79A4221D27A
:1021F00031F9125000B28542A8BF284680B20132A0
:10220000F4E700BFB2200020EC1B0020DC08002017
:1022100082000020F8070020F9070020D2050020E6
:1022200080000020CC200020B02000201C070020CF
:1022300008010020B4F84251B4F844C12A1A92B2FD
:102240000692A268B4F88E6102F4804102F0100296
:102250000D910E929A491FFA8CF2B4F84871B4F8B5
:1022600046B1B4F8408194F805900B92B4F89041CF
:10227000944AB1F9061009945478049192490C9447
:10228000924CB1F9B0A0B1F9B2E01FFA88F15B004D
:1022900007960A91567C61890F930597CDF800A0A7
:1022A000CDF820B000230F9FBB4271D002B2AA42EA
:1022B000DFF81CA205DD3AF80320069F3A442AF80D
:1022C00003200D9F824A002F39D0DDF810A0DDF8E1
:1022D0001CB0DA4532F903A018DD059FBA4503DBCF
:1022E000AA45A8BFAA4601E0DDF814A0B9F1010F84
:1022F00022F803A042D1DDF800A009B2514503DB6A
:102300007145A8BF714618E0009916E0E24505DB6B
:10231000DDF820B0DA45A8BFDA4600E0E246B9F1C0
:10232000010F22F803A029D109B2714504DB009AFC
:102330009142A8BF114600E0714689B21EE03AF909
:1023400003B0C34503DBAB45A8BFAB4600E0C346C3
:1023500022F803B0049FDDF824B002EB030A5F45C6
:102360000BDA0E9A1AB90A9FAAF8007006E0DDF897
:102370002CB00126AAF800B000E000260C9A2AB979
:10238000544A33F802A0524A23F802A002338AE7E3
:10239000514A4E4D4B4B6981917D5E741A4600291E
:1023A00068D04E4E7379013B172B58D8DFE803F005
:1023B0000C5757185A57571E57575757572557579F
:1023C00057575718255757343F4B93F8D53013B10B
:1023D000002069894CE050780028F9D1014647E097
:1023E0000020298905F0BAF90120F2E70020E988E8
:1023F00005F0B4F9012029893AE00020E98805F0C8
:10240000ADF90120298905F0A9F90220698905F0B3
:10241000A5F90320A9892BE00020E18805F09EF9A9
:102420000120218905F09AF90220618905F096F9C9
:102430000320A18905F092F9B368244DDA0719D574
:102440000420298805F08AF90520698805F086F9B5
:102450000620A98805F082F90720E98908E0B36819
:102460009B0607D50020298805F078F969880120A6
:1024700005F074F904F044FD1EE0124B1B78002BAC
:102480003EF4B3A801F00CFFFEF7AFB8012202E062
:10249000022200E003225FFA82F8002008F1FF33F5
:1024A000014684F8C03402F0C1FE022028214246D1
:1024B00004F08EFCFEF720B917B0BDE8F08F00BF26
:1024C000DC08002069080020CC20002082000020C9
:1024D000B2200020F20500201C070020EC1B002089
:1024E0002DE9F347B84D2B6893F84630752B00F073
:1024F000DF8400F2EF80692B00F0388400F2A280C4
:10250000452B00F030871CD8422B00F0EF860BD80B
:10251000402B00F00E87412B40F03787002003F05E
:102520008DFA002400F013BF432B00F0B886442B33
:1025300040F02B87002003F081FA0122A34B00F02A
:1025400010BF662B00F05C8271D8642B00F03382E0
:10255000652B40F01A870B2003F070FA9C4BB3F9FF
:10256000000003F06EFA9B4B588800B203F069FA42
:10257000994B1B68C3F3C000C3F38002800040EA9C
:102580004200C3F340021043C3F3401240EAC200CA
:1025900003F01003184303F054FA904A0020147912
:1025A000D378A40044EA430453781C43937944EA63
:1025B000C304537944EA4314537A44EA8314884B9E
:1025C000D97944EAC114197A44EA0124597A44EACF
:1025D0004124D17944EA8124117A927A44EAC124CF
:1025E00044EA02345A7B44EA42349A7B44EA823415
:1025F0001A7C44EA02441A7944EA02145A7C44EAF6
:1026000042449A7C44EA8244DA7C44EAC2441A7D19
:1026100044EA02545A7D44EA42549A7DDB7D44EAFE
:10262000825444EAC3546F4B19780346D3E1672BB5
:1026300000F02082682B40F0A886102003F0FEF9FD
:1026400000248BE36F2B00F0028424D86C2B00F065
:10265000B98318D86A2B00F095836B2B40F09586D0
:10266000052003F0EBF9604BB3F9000003F0E9F942
:102670005E4BB3F9000003F0E4F9564B187800F014
:10268000010000F009BD6D2B00F0AA836E2B00F055
:10269000B28300F07ABE722B00F088840FD8702BC2
:1026A00000F0F383712B40F070864E4E002430789A
:1026B000400000F0FE0003F0C1F900F02DBC732BC8
:1026C00000F0BA84742B40F060864FF000080124BB
:1026D00000F03FBCCD2B00F0208500F29380A62BAC
:1026E00000F0BA8525D8782B00F0D1810DD8762B53
:1026F00000F0AD84772B40F048863A4C00262078D5
:1027000003F09CF9274600F04BBCA02B00F03F855E
:10271000A42B40F03A862F4E0024B07B3746800031
:102720000130C0B203F08AF9B07B03F059F900F030
:102730003CBDCA2B00F0FD8022D8C82B00F0E280FF
:10274000C92B40F0228604F0A2FB244B284CD872FF
:1027500004F09DFB274B187004F0AEFB206004F0E2
:10276000ABFB606004F09EFB234B188004F09AFBE7
:10277000224B1880174B1A7842F002021A70E7E0D9
:10278000CB2B00F0BD80CC2B40F0FF8504F07FFB0D
:102790001B4CE07704F07BFB84F8200004F077FB0F
:1027A00084F8230004F073FB84F8240004F06FFB2A
:1027B00084F8250004F06BFB84F8210004F067FB2B
:1027C00084F82200C4E000BF04000020400500207F
:1027D00024040020040E0020780600206908002050
:1027E000EC010020601200208A0500208C050020EA
:1027F00068020020440200206402002088050020B6
:10280000CC200020D32B00F0D18058D8D02B00F062
:102810007B844DD8CE2B00F08A84CF2B40F0B58539
:1028200004F040FB6FF4AF614318C64CC62B98BF51
:10283000A4F88E0104F036FBA4F8400104F032FB4A
:10284000A4F8420104F02EFBA4F8440104F02AFB92
:10285000BD4EA6F8D00004F01AFB84F89E0104F0E7
:1028600016FB84F89F0104F012FB84F8A00104F029
:102870000EFB84F87C0104F00AFB84F8970104F055
:1028800006FB04F00FFB00EB80004000308504F0F5
:10289000FEFA84F87D0104F0FAFA84F87F0104F06E
:1028A000F6FA84F87E0104F0F2FA84F880014FE031
:1028B000D12B00F0F483D22B66D000F066BDEF2B55
:1028C0002FD008D8D42B00F07681D62B08BF002457
:1028D00052D000F05ABDFA2B00F03184FE2B00F0EC
:1028E0003984F02B40F05185974C042003F0A6F872
:1028F000B4F92C0003F0A5F8B4F92A0000F016BDD5
:1029000000242AE0002404F0CDFA904B185302343E
:10291000102CF8D1002003F091F801228C4B00F02C
:1029200020BD04F0BFFA884CA08504F0BBFA608596
:102930000EE0884C04F10A0604F0A9FA0134607034
:1029400004F0A5FAE07204F0A2FAB4426075F3D183
:10295000002003F073F800F01CBD7F4B1B789C42F5
:10296000F6D27E4BE65C04F09DFA774B013403EB24
:102970004606A6F84600F0E704F094FA784B1853A0
:102980000234102CF8D1E3E7764B5C78002CDFD1D1
:1029900004F07DFA6B4B022898BF83F8C0044FF017
:1029A000000088BF83F8C0440146CFE304F07AFA00
:1029B0006D4B1880CCE7072003F040F8E72003F0C8
:1029C0000FF8604B587903F00BF8012003F008F87A
:1029D000664800F0D7BC8B420CD2604A9E5C012254
:1029E00002FA06F6264218BF9A4003F1010318BF07
:1029F0001043F0E703F02FF8524B93F8C0044BE379
:102A0000122003F01BF85A4B5A4C1B88B3F5806F09
:102A100023D90026A05F082390FBF3F0023603F0D1
:102A200010F8062EF6D1544CB4F9000003F009F862
:102A3000B4F9020003F005F8B4F904004F4C03F0B8
:102A400000F8B4F9000002F0FCFFB4F9020002F053
:102A5000F8FFB4F9040000F069BCB4F9000002F01A
:102A6000F0FFB4F9020002F0ECFFB4F9040002F048
:102A7000E8FFD8E7102002F0E1FF0024404B185D8A
:102A8000013402F0ADFF102CF8D100F082BC3820E8
:102A900002F0D4FF2C4C0026B4F97E0002F0D1FFE6
:102AA000B4F9800002F0CDFFB4F9820002F0C9FF52
:102AB000244B94F884005B79082B18D004D8012BA0
:102AC0000DD0042B05D06DE0142B1ED0152B2ED06D
:102AD00068E0F3B2042B2FD0052B2DD062E0F3B2C7
:102AE000052B5FD1B4F8863013F0040F1BE0F3B26E
:102AF000032B01D0042B55D1B4F886309A0748BF78
:102B000040F0010013F0010F49E0F3B2042B04D1AF
:102B1000B4F8863013F0020F05E0052B42D1B4F86B
:102B2000863013F0010F3DD040F001003AE0F3B2DF
:102B3000032B01D0042B25D1B4F8863013F0020FFB
:102B400028E000BFEC1B0020CC200020DC08002087
:102B500060010020CB2000206012002048120020DD
:102B6000F205002069080020400200200C0000C08F
:102B7000240000204E050020421200202C030020DB
:102B800082000020052B01D0062B0BD1B4F8863033
:102B900013F0010F18BF40F0010013F0040F18BF2D
:102BA00040F00200013602F01BFF082E04F10A0477
:102BB0007FF472AFEDE3002002F040FFDFF84C93AA
:102BC000002604F06FF9A9F87E0004F06BF9A9F86B
:102BD000800004F067F9A9F8820004F058F920F0A9
:102BE000030389F88430B84B04465F79082F78D006
:102BF00029D8012F71D0042F40F0A9804FF0010A8D
:102C00005FFA86F85346CDF800A0404621463A4682
:102C100004F05BF95346CDF800A040464FF0020A9D
:102C20002146052204F051F9404621463A465346D2
:102C3000CDF800A004F049F9CDF800A040462146A7
:102C40000522534681E0142F6FD0152F7FD1F7B2A4
:102C50004FF001084346CDF8008038462146032254
:102C600004F033F94FF0000A4346CDF800803846AF
:102C70002146042204F029F943463846214605221C
:102C8000CDF800A004F021F9434638464FF0020881
:102C900021460622CDF800A004F017F93846214657
:102CA00003224346CDF8008004F00FF93846214650
:102CB00004224346CDF8008004F007F93846214647
:102CC00005224346CDF8008004F0FFF8CDF80080DF
:102CD000384621460622434637E002230093F0B2ED
:102CE00030E04FF00108F7B24346CDF80080384697
:102CF0002146032204F0E9F84346CDF80080384627
:102D0000214604224FF0000804F0DFF8384621463F
:102D100003220223CDF8008004F0D7F8CDF800801C
:102D200038462146042202230FE05FFA86F8012785
:102D300040463B4600972146042204F0C6F8002393
:102D400000934046214605223B4604F0BEF801367A
:102D5000082E09F10A097FF434AF1AE35B4B185DC2
:102D6000013402F03DFE102CF8D112E3102002F0E5
:102D700065FE0024564B185F023402F062FE102CF0
:102D8000F8D106E3102002F059FE524B524CD87A8B
:102D900002F026FE514B187802F022FE206802F065
:102DA0005AFE606802F057FE4D4BB3F9000002F086
:102DB00048FE4C4BB3F9000002F043FE4A4BB3F916
:102DC0000400B3E2494C062002F038FEB4F90000DA
:102DD00002F037FEB4F9020002F033FE444B07E084
:102DE000062002F02BFE434B186802F034FE424BE3
:102DF000B3F900009AE2072002F020FE3F4B4FF6A5
:102E0000FF741888FF28A8BFFF20C0B202F0E8FDB9
:102E10003B4B1868A042A8BF204620EAE07000B2F1
:102E200002F00FFE374BB3F9000002F00AFE264B0A
:102E300093F87C21344B18680028B8BF40420AB18F
:102E40000A235843A042A8BF204600B26EE22F4C8E
:102E5000072002F0F3FDE07F02F0C2FD94F82000AD
:102E600002F0BEFD94F8230002F0BAFD94F82400AD
:102E700002F0B6FD94F8250002F0B2FD94F82100AE
:102E800002F0AEFD94F8220006E11E2002F0D6FD0D
:102E90001F4C04F10A060134607802F0A1FDE07ACB
:102EA00002F09EFD607D02F09BFDB442F3D170E222
:102EB0002F2002F0C3FD174C14F8010F002800F07A
:102EC000688202F08DFDF7E7EC1B0020B2200020A5
:102ED000DC0800206908002068020020440200206D
:102EE0006402002088050020040E00209E040020BB
:102EF0001202002028020020540500206404002053
:102F000078040020040200206C040020CC20002063
:102F1000CB200020831F010833789C4280F0398247
:102F2000B64BE25CB64B013403EB4203B3F9460007
:102F300002F087FDF0E780440136B24B1B789E42D9
:102F400009DB002C00F025825FFA88F002F076FDA4
:102F500000240026F1E7A94BAB4AF35C0C2101FBEE
:102F60000323D3F8349048460CF045F88246002CF1
:102F7000E1D127465745DFDA19F8070002F030FDA6
:102F80000137F7E7A14B9D4A23441B7AB05C984276
:102F900001D102F025FD0C34B4F5907FF2D1013659
:102FA0003B789E4280F0F5810024EBE7984C162098
:102FB00002F044FDB4F98E0102F043FDB4F9400182
:102FC00002F03FFD8E4EB4F9420102F03AFDB4F931
:102FD000440102F036FDB6F9D00002F032FD94F85B
:102FE0009E0102F0FDFC94F89F0102F0F9FC94F8B8
:102FF000A00102F0F5FC94F87C0102F0F1FC94F8D9
:10300000970102F0EDFC002002F0EAFCB6F928007E
:103010000A2390FBF3F002F014FD94F87D0102F016
:10302000DFFC94F87F0102F0DBFC94F87E0102F0F3
:10303000D7FC94F880012FE0082002F0FFFC012467
:10304000E0B2013402F0CCFC092CF9D1A1E103F08B
:103050001EFF0746122002F0F1FC0FB96D4B02E093
:10306000102F03D16C4B1E685C6801E000242646DB
:10307000384602F0B5FC304602F0EDFC204602F086
:10308000EAFC664B186802F0E6FC002002F0D9FC6E
:10309000002002F0D6FC002002F0A2FC79E103F04F
:1030A000F6FE804603F008FF074603F005FF0646DC
:1030B00003F002FF044603F0F5FE03F0F3FE03F015
:1030C000E6FEB8F1000F0DD1524B00225E601F608A
:1030D000534BDA7101221A73002C3FF439AC4F4B79
:1030E0001C6035E4B8F1100F7FF432AC4A4B1F601E
:1030F0005E600CB1494B1C6047484A4B0222011DDF
:103100001A7007F079F923E4454B5B78002B7FF4C4
:103110001FAC012003F084FA1AE4414B5B78002BCA
:103120007FF416AC404B4FF4C8721A8010E43C4B4D
:103130005A78002A7FF40CAC01229A7308E4384BC9
:103140005B78002B40F021810020012102F06EF815
:10315000FFF7FEBB082002F071FC344B344A1B68B9
:103160000024B3FBF2F3C3EB431103EB81033149BA
:103170000968B1FBF2F2304902EBC3038B812F4B9C
:10318000185F023402F05DFC082CF8D101E10C203C
:1031900002F054FC2A4B186802F05DFC294B1868B9
:1031A00002F059FC284B1868ECE0BB7B9C4213D220
:1031B000264E305D02F014FC06F12003185D02F08B
:1031C0000FFC06F14003185D603602F009FC305D2B
:1031D00002F006FC0134E8E70D4B93F89E31012B19
:1031E00040F0D78000241A4B98681A4B195D0134BF
:1031F00003F06DFD082CF6D1CBE000BF4812002093
:10320000CC20002060120020841F0108B41F010898
:10321000EC1B00204802002058020020240200205D
:103220006908002054020020E02100200C0000204A
:1032300040420F0094000020040E00200A0E0020DF
:10324000E8F7FF1FECF7FF1FF0F7FF1F130E00203A
:103250001C070020E0200108102002F0EFFB504B7B
:10326000504C1E6816F020060CD0D4F89030D4F8DC
:103270009400C01A02F0EFFBD4F89C00D4F8983008
:10328000C01A03E0304602F0E6FB304602F0E3FBF2
:10329000D4F8A00002F0DFFBD4F8A40072E0002014
:1032A00002F0CCFB03F0F3FD3F4C0023A360607100
:1032B00003F002FEA3681843A06003F0E8FD84F861
:1032C0008A0103F0EFFDA4F8560103F0EBFDA4F82A
:1032D000580103F0E7FDA4F85A0103F0E3FDA4F858
:1032E000780103F0DFFDA4F87A0152E02E4C1020A3
:1032F00002F0A4FB607902F073FBA06802F0ABFB64
:1033000094F88A0102F06CFBB4F9560102F099FBC3
:10331000B4F9580102F095FBB4F95A0102F091FB9F
:10332000B4F9780102F08DFBB4F97A0102F089FB5F
:103330002FE0082002F082FB00241B4B234493F86B
:103340008201013402F04CFB082CF6D121E003F09D
:103350009EFD154B23440134082C83F88201F6D1DD
:1033600017E01A7015E0132002F068FB00240F4BE1
:10337000185D013402F034FB0B2CF8D1002002F070
:103380006AFB002002F067FB03E00120002102F04D
:1033900037FB2B68187902B0BDE8F04702F020BB7C
:1033A00078060020040E0020EC1B0020FF2F0108EF
:1033B0002DE9F04F954B95B09B68CBB9944D2B7888
:1033C000013B042B00F25987DFE813F06A066A0616
:1033D0006A0647072A07A06802F0F8FA8D4B0546EF
:1033E00093F89E31012B00F02D8108D3022B06D0DB
:1033F000864CA06802F0EFFA0028ECD1DEE7242D1D
:10340000854C0CD006D80A2D00F08C800D2D00F0D4
:103410008980E6E02A2D07D02C2D05D0E1E000239D
:1034200023706370A370EDE0627826782244002157
:10343000794BD170EEB9DA789E74472A19D11A798E
:10344000502A16D15A79472A07D19A79472A04D1A6
:10345000DA79412A01D101229A7462796E4B522A9B
:1034600007D19A794D2A04D1DA79432A04BF02227E
:103470009A74A37C684F012B02D0022B33D046E014
:10348000B31E072B43D8DFE803F0040810141C24F4
:10349000422906F097FD606139E0E2785E4B532ADD
:1034A00035D15A6952425A6131E006F08BFDA06174
:1034B0002DE0E278584B572A29D19A6952429A61F5
:1034C00025E0E278554B302A94BF00220122DA72BF
:1034D0001DE0002006F056FD207718E0002006F0E1
:1034E00051FDE08313E0072E06D0082E0FD10120F6
:1034F00006F048FD78840AE0012006F043FD41F221
:10350000184358434FF47A72B0FBF2F33B84013610
:1035100000232A2D404A267063706ED1012182F863
:1035200024106FE094F82430002B55D03A4BDB7810
:10353000402B04D9A3F137021201D2B202E01B01E1
:1035400003F0F0022379A178402B8CBF373B303B4E
:10355000DBB21344DBB299422F4A3DD1937C012B5D
:1035600002D0022B1FD037E02C49C87A08B90123BA
:1035700033E02B485569056095694560157F2948FA
:10358000D28B057028480280284800684507EED491
:10359000097C0029EBD026498968521A64214A43E4
:1035A00024490A6019E0244B118C508C19801F4B60
:1035B000224E1B68308013F008070DD164290BD907
:1035C0000A25684303F0B8FF90FBF5F080B21C4B6E
:1035D000B0FBF5F530801D800023002284F8242004
:1035E00010E063780C4A0E2B03D8591C1344517019
:1035F000DD7094F82430084A1BB991784D409570DD
:1036000000E0002303F0010399E100BF1C07002044
:1036100028090020EC1B0020AC0E002069080020C7
:103620006802002044020020640200207806002086
:10363000480200202802002088050020080E0020F3
:1036400012020020A74C002294F82530082B00F22B
:103650007581DFE803F00B05141C2D3D5B7A8700B4
:10366000622801D1022307E084F82520B52D40F01F
:10367000658194F82530013384F825305EE1032319
:1036800084F8253084F8260084F8270056E10423C6
:1036900084F8253094F8263094F827200344DBB2D0
:1036A00084F82630134484F8273084F8280045E154
:1036B000052384F8253094F8263094F82720034415
:1036C000DBB284F82630134484F82730608535E176
:1036D000062284F8252094F8262094F82710024426
:1036E000D2B284F826200A4484F82720628D7D4BCC
:1036F00002EB0025ADB2B5F5E87F89BF00225D85FC
:103700005A8583F825200023A38518E194F82630F4
:1037100094F827200344DBB284F82630134484F85D
:103720002730A38DB3F5E87F03D26E4A1A4482F89E
:1037300030000133628D9BB29A42A38540F0FE8037
:10374000684B072283F82520F8E0082384F8253009
:1037500094F82630834200F0F180624A002382F818
:103760002530ECE084F8252094F827205D4B824238
:1037700040F0E48093F82820062A51D004D8022A89
:1037800012D0032A39D0D9E0122A5FD0302A40F073
:10379000D58093F83420544B202A88BF20221A70F9
:1037A0001978524A002373E0514A596B51485160CD
:1037B000996B11601A6C4FF47A7192FBF1F24E49D9
:1037C0000A80596C0160996C4C48016093F80002C2
:1037D0004B49C872012083F801024A4B1B68580705
:1037E00009D40B7C3BB1484B92B29B68D21A64233C
:1037F0005A43464B1A60464B60E093F8352012F06E
:10380000010205D093F83430D91E4B424B4100E001
:10381000134684F80032002B55D1394AD37252E056
:1038200093F83B2012F0010205D093F83A30DA1EEB
:103830005342534100E0134684F800320BB9304A3A
:10384000D37294F85F20334B1A703CE0B3F84420F5
:10385000314942F210700A80996C304E91FBF0F0C1
:10386000012183F80212274B30801B681B072AD4E2
:10387000642A28D90A2580B2684303F05DFE90FBD4
:10388000F5F080B2264BB0FBF5F530801D801AE0D4
:103890008B4202F10C0210DA12F8045C21481D542C
:1038A00012F8035C20481D5412F8015C1F481D5497
:1038B00015781F481D540133EAE71E4B5A681A60F9
:1038C0001D4A12685A6094F80122064BB2B393F86D
:1038D00002229AB3002283F8012283F802220123F4
:1038E0002DE000BFAC0E0020120E0020DC0E0020E8
:1038F00068020020A40E002064020020A80E002010
:1039000069080020780600204802002028020020D4
:10391000940E00204402002088050020080E00209C
:1039200012020020130E0020330E0020530E002040
:10393000730E00209C0E0020E81B00200023002BAB
:103940003FF456AD994B9A4D9A68DA602A689A60AE
:10395000984B1A6842F020021A60974B1A78012A95
:103960000CBF002201221A70944BDA7A002A3FF42D
:103970003FAD934A1278042A7FF63AAD5A7812B9CD
:10398000197C01B91A731B7B13B90AB103F0ACFDA2
:103990008C4C4FF0050C94F8033204F202270133EB
:1039A00093FBFCFC0CEB8C0CCCEB030C864B84F8EF
:1039B00003C21B780397049304F5027303EB8C0C8A
:1039C00000238249DFF828925E58814A96FBF9F776
:1039D000069758180590069802F10807D8517D4FB0
:1039E00042F2107807FB00679E5097FBF8F8039EA1
:1039F0001FFA88F802F1100A26F8028F03EB830BF6
:103A000053F80A0003965CF80B604CF80B70C6EB99
:103A1000000E0EEB0706069F4FF0050E43F80A60F6
:103A200096FBFEF609FB076018329850049A0F4681
:103A3000012A06D1A8F10208B8F5797F9CBF059E3E
:103A400030600433082BBCD15E4E2868D6F8503263
:103A5000C01A09F043F8604909F04CF92B684FF09F
:103A60007E51C6F85032804609F02EFA10B94FF058
:103A70007E5000E0404610AAC6F85402574B009210
:103A800011AA019297E803000CCB03F0CCFC109A2A
:103A90006423534992FBF3F211980A80DFF81C81EA
:103AA000504A90FBF3F3138098F80C300BB90B805D
:103AB000138096F85832434D002B3AD0D5F8541263
:103AC0004FF07E5009F016F9D5F85C32814638681F
:103AD000C01A09F007F8494609F058F809F01CFA2D
:103AE000D5F860221FFA80FA78680FFA8AFA801AED
:103AF00008F0F8FF3C4B196809F048F8494609F00E
:103B000045F809F009FAB5F9663200B2C218B5F9FC
:103B100064320221534492FBF1F293FBF1F392B22F
:103B20009BB2A5F86A22A5F86832A5F86622A5F826
:103B30006432012386F858327968386898F808307A
:103B4000C6F86012C6F85C0223B91C4BDB79002B67
:103B50003FF44EAC254B009304330193D4F86C2210
:103B6000D4F8703203F05FFC7B68D4F87002C01A9E
:103B700008F0B8FF1C4B196809F008F809F0CCF9F7
:103B80003A68D4F86C32C4F880029B1A98F8102076
:103B9000C4F87C320C4B0AB102221A7093F900303F
:103BA000012B27D0022B00F0F68021E42809002009
:103BB000E81B002078060020040E00206908002081
:103BC00044020020AC0E00205402002068020020B5
:103BD000DC100020806967FF00007A444802002062
:103BE0008A0500208C0500203C00002020110020C8
:103BF00080969800D4F88472D4F8A052D4F89462D5
:103C00000397D4F8987205F100400496069709F0DE
:103C100083F98146284609F07FF9D4F85482D4F814
:103C20009C4207904046059408F0C4FB8E4B044626
:103C300093F8DA000D4608F051FF08F0BBFB88A3AB
:103C4000D3E9002308F00AFC02460B46002087490E
:103C500008F02EFD2B46224608F04EFA02460B468F
:103C60002046294608F024FDCDE90801804E0025B4
:103C7000804C54F81570A4F11403384635F803A0AD
:103C800008F030FF039908F081FF09F045F9CAEB0D
:103C9000000080B22834285304B2204608F022FFE6
:103CA000049908F073FF09F037F91FFA80FBE01957
:103CB00008F018FF069908F069FF414608F066FF12
:103CC000316808F05BFE09F027F9484504DB0799E5
:103CD0008842A8BF084600E0484608F003FF30606D
:103CE00009F01AF9B46858441FFA80FB204608F01E
:103CF00061FBCDE90A0170680AF1310A381A08F04F
:103D0000F1FE414608F0F6FF214608F035FE08F0C6
:103D100051FB02460B46DDE9080108F09FFB024615
:103D20000B46DDE90A0108F0E7F908F0D1FD1FFABA
:103D30008AFABAF1620F014630617760B0600ED93D
:103D4000059808F023FF09F0E7F84B4BB0F5FA6F40
:103D5000A8BF4FF4FA609842B8BF184600E00020B0
:103D6000834440F6B8330FFA8BFB9B45A8BF9B46B4
:103D7000424B0A229B45B8BF9B466A43404B56F8CC
:103D8000141B25F803B03F4B0235042DD1507FF4AE
:103D90006FAFFFF72DBB344AD6F874A2B2F9E090AA
:103DA0009AFBF3F39945A8BF9946B6F8A8521FFAB3
:103DB00089F90FFA89F22BB29A42334C0BDD334961
:103DC000D4F8540208F0E2FE09F0A6F828441FFADD
:103DD00080F9A4F8A892D6F87842D6F8AC52651BC0
:103DE000284603F0A9FB0028D8BF404241F29313B4
:103DF0009842CCBF0020012000284BD0284608F074
:103E000071FE234908F0C2FE0BF0B2FB0546504696
:103E100008F068FE0146284608F0B8FE09F07CF874
:103E200080B240F6B83203B29342A8BF1346134A99
:103E3000A6F8B0029342ACBFE318A31848F6A0421C
:103E4000934203DDA3F50C43A03B04E0002BBCBF71
:103E500003F50C43A033C6F8B4321DE0AFF3008085
:103E6000182D4454FB211940CC2000200000F03FC5
:103E7000A80200202811002030F8FFFF48F4FFFFBF
:103E80007A020020D0020020AC0E00200000C842C0
:103E9000D3023739C6F8B442D6F8B472C7F50C501D
:103EA0002830039708F01EFEAF4908F06FFE044665
:103EB0000BF0EAFA139020460BF05AFBD6F8B872D2
:103EC000D6F8C4420597D6F8BC72129004F10040AF
:103ED000089709F021F80490204609F01DF8D6F85B
:103EE00054B2D6F8C0620A905846079608F062FAB3
:103EF0009E4B044693F8DA000D4608F0EFFD08F0FB
:103F000059FA97A3D3E9002308F0A8FA02460B4612
:103F10000020974908F0CCFB22462B4608F0ECF82D
:103F200002460B462046294608F0C2FBCDE90C01AB
:103F3000904E00270FFA89F008F0D4FD12AB53F829
:103F4000171008F023FE8C4C0546E05F08F0CAFD10
:103F50000146284608F010FD08F0DEFF874B0FFAF7
:103F600080F8B8F57A7FA8BF4FF47A789845B8BF43
:103F700098461FFA88F03C34385300B208F0B2FD7E
:103F80000599044608F002FE08F0C6FF80B20690CC
:103F90000899204608F0FAFD594608F0F7FD316807
:103FA00008F0ECFC08F0B8FF0499884204DB0A9A98
:103FB0009042A8BF104600E0049808F093FDB46852
:103FC00005463060204608F0F5F9CDE90E0170682D
:103FD0001436C0EB080008F085FD594608F08AFE4B
:103FE000214608F0C9FC08F0E5F902460B46DDE978
:103FF0000C0108F033FA02460B46DDE90E0108F029
:104000007BF808F065FC46F8108C014646F8040C75
:1040100046F80C0C079808F0B9FD08F07DFF069CE7
:104020000444284608F078FF204440F6B83300B234
:104030009842A8BF1846524B0A229842B8BF184669
:104040007A43504BF852504B0237042FD5507FF42F
:1040500071AF464B93F8DC202AB1039E64214B4A92
:1040600096FBF1F11180B3F8D830494C9A450EDD3A
:10407000D4F8AC32D4F87802C01A03F05DFA42F2F8
:1040800010730028B8BF404298427FF7B1A9414B56
:1040900001221A70B4F8C8223C4B1A80FFF7A8B965
:1040A000DFF8048198F89E7117B1012F0AD0B4E0AF
:1040B0006A78394B03EB0213384A5968906801F06B
:1040C00080FCA7E0354EB068B14603681B6998478D
:1040D000002800F0A2802B78314C022B66D0032BF5
:1040E0006ED0012B40F099802E4B1E68636AF31A44
:1040F000632B40F29280E369042B2EDCD8F8082071
:10410000254C02F04802482A0ED0EB69D9F8080085
:1041100004EB0313596801F054FC6B78D9F808706C
:1041200004EB0314A4680CE098F88C21002AECD16D
:1041300004EB03135B68B3F5164FE6D90223EB617A
:10414000E3E714F8011B19B1384602F0C0FDF8E7A7
:10415000EB696E620133EB615FE002205BE000BF60
:10416000182D4454FB211940D3023739CC200020AC
:104170000000F03FD00200201411002018FCFFFFC7
:1041800048F4FFFF7A020020A8020020400200202D
:10419000AC0E002054020020A01801081C070020CB
:1041A00028090020E81B0020EC1B00206278344B1B
:1041B000B06803EB0213596801F003FC03202AE006
:1041C0002369012B0DD0022B24D033BB226A2D4B47
:1041D000276153F8321003EBC2035B686161A3618E
:1041E0001BE0E369A269934208DA6269B068D15CB6
:1041F00002F06DFDE3690133E3610EE0226A2149BB
:104200000132226251F832200023E36102B9022315
:10421000236102E0042005F06FFA00236B602CE0BC
:104220006A68194B01326A60184A92F8A1214AB1B2
:104230005A7805210132D2B2B2FBF1F101EB8101D2
:10424000521A5A70124B134A1B680120AB600023AC
:104250001370114A2B61D3720DE00D4B1A68AB68D5
:10426000D21A40F6C4139A4207D90C4B05201A689B
:1042700022F020021A6005F03FFA15B0BDE8F08F79
:10428000A0180108C019010828090020EC1B002013
:10429000E81B002044020020690800207806002066
:1042A000204B1A88204B002A33D19A78002A30D02C
:1042B0005978002934D101225A701C4A10881C4AAE
:1042C00010801C4A926812F4807F1B4A12D0DB7A5D
:1042D00083B11A4B1B78042B0CD91378072B1FD9E9
:1042E000174B1848186007231370174B1960174BAA
:1042F000198070471378062B12D9154A104B1A6093
:104300000D4B06221A70104A002313600F4A1380C7
:1043100070475B7823B90220FF21012202F058BDCB
:10432000704700BF000E0020690800201202002024
:1043300042020020EC1B002000000020440200206C
:1043400008020020D2160108940400200C0200206C
:10435000DB1601082DE9F04F904C93B0636890484C
:104360009847904B8E4C1A88984604F15009002AC1
:1043700000F09680002704F108053E46B8F800A03A
:10438000894BBAF57A7F07D10A21A3F13C0001FBE2
:1043900006010022DA510A61DA59A05F0244DA51BB
:1043A00008F0A0FB2A690132012A2A6104D1002306
:1043B00068602860AB602AE0D5F800C002926146D0
:1043C000CDF80CC0019008F0D7FA029A8346104647
:1043D00008F088FB0146584608F08CFCDDF80CC05C
:1043E0000146604608F0CAFA019B02461146686021
:1043F0001846029208F0C0FA0146584608F0C6FB7B
:10440000A96808F0BBFA029AE8602A60A860002355
:10441000BAF1010FA35329F8063034D128690128D5
:1044200007DD013808F05EFB0146E86808F062FC31
:1044300000E000200BF0B4FA5C4B824693F8660172
:1044400090B108F04FFB0146504608F05BFD58B1B3
:104450004FF47A73A8F800300023A361E362236469
:10446000E364A36463640EE04F4B4FF47A72FB582D
:104470000A2003F5FA7393FBF2F329F806300F21B3
:10448000012202F0A5FC0236062E07F1040705F111
:1044900014057FF473AFB8F80030013BA8F8003082
:1044A0000023E15A39F803203D4E8A1AE2520233C2
:1044B000062BF6D13E4A3D4D136813F0020300F07F
:1044C000B7833C4B3C4F06F156005B6898473888F1
:1044D0005636002844D000231A46DFF8ECC0B0F569
:1044E000C87F04BF00214CF8021036F903805CF845
:1044F0000210DFF8ACE041444CF80210002105EB5B
:104500000308F1520233062BDFF8A0C0A8F86A11A5
:1045100002F10402E1D101281FD1DEF85C304FF432
:10452000C872C83393FBF2F3ACF86A31DEF860303E
:10453000C83393FBF2F3ACF86C31DEF86430C83367
:1045400093FBF2F21D4B1B88D21A1D4BACF86E2167
:1045500059859985014600F069FE3B88013B3B8007
:10456000AA68124B520740F1908016490A888E467D
:10457000322A2BD1B3F86A11A4F86810B3F86C1181
:10458000B3F86E31A4F86A10A4F86C300C4B598D56
:104590009B8DA4F86E10A4F8703019E07C06002002
:1045A00078110020000E0020BC110020EC1B002020
:1045B0007806002090060020E02100202400002042
:1045C000CC20002018020020D4110020002A3DD069
:1045D00000231946322AAA4F04BF0020785036F92A
:1045E00003C0785860447850002005EB030CF0526B
:1045F0000233062BACF86A0101F10401EAD1012A69
:1046000021D1A04B1870A04B1A70A04B19780A2921
:1046100006D99F499F4E0E600A2119709E4B188043
:10462000B4F86830B4F86E10A5F86A31B4F86A309E
:10463000A5F86C31B4F86C30A5F86E31974B5985FC
:10464000B4F870109985013AAEF80020944A1378B6
:10465000DBB10023616F1370322291FBF2F1A5F8F8
:104660006A11A16F91FBF2F1A5F86C11E16F91FB5A
:10467000F2F28C490888121AA5F86E210120874AA7
:1046800001465385938500F0D1FDB4F85620B5F866
:104690006A310027D31AA4F85630B4F85820B5F878
:1046A0006C31BB46D31AA4F85830B4F85A20B5F888
:1046B0006E31D31AA4F85A3002F038FBD4F88030A7
:1046C0000646C31A1846049308F008FA764A06907C
:1046D000D16808F05BFA714AC4F8806092F82E3015
:1046E000079005933E469046A05F08F0FBF90799B6
:1046F00008F04CFA059A0DF1240A4AF807006AB34B
:10470000104608F0EFF901464FF07E5008F0F2FA3B
:10471000DFF8B491024611464FF07E50029208F045
:104720002BF957F8091008F031FAA9F12E01844647
:10473000885FCDF80CC008F0D5F9029A114608F050
:1047400025FADDF80CC00146604608F017F949F873
:10475000070008F0E1FB554A905303E0544AB15A70
:10476000524AB152514A0437B25E0236062E02FB5B
:1047700002BBB9D14B4A6426128806FB0BF35243A5
:1047800093FBF2F6493E4B4809A9B6B202F0D4FBBE
:104790003B2E40F29D80484BD4F89860B3F900005E
:1047A00008F0A0F9014630464FF0010708F0AAFBD7
:1047B00000B90746414B3146D4F894005F730AF0C4
:1047C00065FF0746C4F89C00D4F89000D4F898B070
:1047D00000F10046D4F89400014608F0D7F9594694
:1047E0008146584608F0D2F90146484608F0C6F816
:1047F0000BF0D6F8014630460AF048FF0646C4F8EA
:10480000A000384607F0D6FD1BA3D3E9002307F02C
:1048100025FE08F05DF80AF06DFEDFF8B090A9F80B
:104820000000304607F0C6FD13A3D3E9002307F0CC
:1048300015FE08F04DF80AF05DFEA9F802002048C8
:1048400003681B0740F1938009A91E4802F074FB1E
:10485000B5F8640108F042F94FF07E51824608F045
:104860008DF801464FF07E5008F044FA4FF0000BEF
:1048700081465CE0AFF300803B597E90A9E7814020
:10488000EC1100201A020020140200200000002079
:1048900008020020AE1601080C020020CC200020E7
:1048A00015020020240000207C0600204E05002078
:1048B000CE110020081200200807002069080020FF
:1048C000780600201C120020FC1100209E0400200D
:1048D000B5F8620108F002F94FF07E51074608F082
:1048E0004DF801464FF07E5008F004FA4FF00009F1
:1048F0000646DFF838B338465BF8191008F046F979
:10490000BB4A034632F90900019308F0EBF8019B1A
:104910000146184608F032F8314608F037F94BF8EE
:10492000190009F10209B9F1060FE2D133E7B14BE1
:10493000504653F81B10019308F028F9AE4902467F
:1049400031F90B00029208F0CDF8029A01461046A8
:1049500008F014F8494608F019F9019B43F81B00C8
:104960000BF1020BBBF1060FE1D118463FE0DFF877
:104970008CB25146584602F0DFFADBF80000DBF853
:1049800004300146DBF808A0019308F0FFF8019B12
:1049900081461946184608F0F9F80146484607F0DE
:1049A000EDFF51468146504608F0F0F80146484672
:1049B00007F0E4FF0AF0F4FF0021814608F07AFADC
:1049C000A0B9DBF80000494608F094F94946CBF855
:1049D0000000DBF8040008F08DF94946CBF804002C
:1049E000DBF8080008F086F9CBF80800834802F0ED
:1049F0005BFB834B83491880069808F0C7F8804B0F
:104A000006F10046814607F10047B3F900000D9614
:104A10000C9708F067F800F1004007F0CBFC70A39A
:104A2000D3E9002307F01AFD07F052FF704E0E90F5
:104A3000B6F9000008F056F80F90B6F9020008F039
:104A400051F81090B6F9040008F04CF80CA9119038
:104A50000FA802F071FA6C4B93F84430012B17D178
:104A60006A4B5B7873B9D4F8B030402093FBF0F018
:104A7000181A08F037F8119907F080FF08F04CFA7F
:104A8000C4F8B000D4F8B030402093FBF0F001E05F
:104A90005F4B188808F026F80146119807F06CFF64
:104AA0005C4B11901968484607F068FF014648467C
:104AB00008F020F9D4F8B47081463946119807F00F
:104AC0005BFF0146484608F061F80146384607F0AA
:104AD00055FF0746C4F8B4000F98D4F8B8900AF010
:104AE00009FD98F8301002F05BFB4844C4F8B800A8
:104AF0001098D4F8BC900AF0FDFC98F8301002F041
:104B00004FFB4844C4F8BC003846D4F8C0900AF0C3
:104B1000F1FC98F82F1002F043FB3F4B04991A6800
:104B200048440A441A60D4F8C4303C4E0133C4F8F7
:104B3000C43098F87C30C4F8C000002B7ED0D6F882
:104B40009000D6F89480014608F020F841460746C8
:104B5000404608F01BF80146384607F00FFFD6F82C
:104B6000986007463146304608F010F8014638464E
:104B700007F004FF0AF014FF0146304608F0BAF8C7
:104B80002749074608F0AAF9264E10B100233380C2
:104B900054E038460AF02AFD234B196807F0F6FF67
:104BA0000AF0A8FCB0F5617FA8BF4FF4617007F070
:104BB000EFFB0DA3D3E9002307F07AFD07F088FE91
:104BC0000AF0D6FC104B074693F87C0007F08AFFEA
:104BD000394607F0DBFF0AF08DFC30802EE000BF85
:104BE000399D52A246DF913FA2EB0FE5DD169640BC
:104BF0004E0500201C1200202C0300204000002045
:104C000012020020BD378635CC2000206908002024
:104C10002400002014070020E82100207811002043
:104C20008FC2753CCA050020100700200812002022
:104C3000A6F85630A6F85830A6F85A306B79012BF2
:104C40000ED1B4F9C820B4F9043003EB42030322B7
:104C500093FBF2F39BB2A4F8CE30A4F8C83002E084
:104C6000A388A4F8CE302388A4F8CA306388A4F8B7
:104C7000CC3013B0BDE8F08F2DE9F041574D8046A0
:104C80000021032356484246296006F0F3F92B68B9
:104C9000544F01332B60544B544E1B683860022B29
:104CA0003060534C0CDD94F88C1149B90323514802
:104CB000424606F0DFF92B6878600133F0642B6020
:104CC0004D4DFF21182205F1D0000AF072F90023A2
:104CD00085F8D030494B2A461968012311F0020F9C
:104CE00005D085F8D130022385F8D23003234E0752
:104CF0000FD5D518032685F8D060A568581CAD04DB
:104D000006D53D4D02332844042580F8D05000E0FC
:104D1000034611F00A0F0CD0D118052081F8D000FD
:104D20000625981C81F8D15011180720033381F80B
:104D3000D000A068810604D5D118082581F8D0508C
:104D40000133C70509D5D518591C0A2685F8D06046
:104D500011440B25023381F8D050657905F0EF013D
:104D6000082901D00E2D04D1D1180C2681F8D0606D
:104D70000133D6180D2786F8D070460703F10101DC
:104D800005D51D4E3144112681F8D060991C94F848
:104D9000B04156181327002C0CBF002000F0010072
:104DA0004B1C86F8D07028B113480344142083F8B4
:104DB000D0008B1C182D0CD1D118152081F8D000F3
:104DC0001624981C81F8D14011181720033381F85C
:104DD000D00082F8E830BDE8F08100BF4405002033
:104DE000003801401C070020DC210020A80400201E
:104DF000EC1B0020004800407811002078060020BD
:104E000070B51D4D95F8AF315BB995F8B02112B969
:104E10001A4A547801E01A4A147D003418BF01245C
:104E200000E00124174A92F8E9101646A14221D069
:104E300095F8AE2164B122B91BB94FF41650FFF7B3
:104E40001BFF95F8AE11012912D10F4BD8680DE068
:104E50002AB923B9084BD3F8A401FFF70DFF95F841
:104E6000AE31012B04D1084B0321D86800F0A4FD1A
:104E700086F8E94070BD00BFEC1B002069080020E7
:104E8000EC010020781100201C070020AFF3008007
:104E9000B0F8400080B27047808F80B27047008FBA
:104EA00080B27047808E80B27047094BDA68D107B4
:104EB00009D4DA68520708D4DB6813F0100F0CBF6E
:104EC000042003207047012070470220704700BF74
:104ED0000020024010B50446FFF7E7FF012806D185
:104EE0001CB1FFF7E2FF013CF8E7052010BD002CE4
:104EF00008BF052010BD38B505464FF43020FFF738
:104F0000E9FF042812D10A4C4FF43020236943F002
:104F1000020323616561236943F040032361FFF7C6
:104F2000D9FF226941F6FD731340236138BD00BFEC
:104F300000200240204B2DE9F0431A781D461F49FE
:104F4000FAB11F4B4F7D1E781E4B93F800C0022311
:104F50001D4A03F10108D45C344104F00F04BC4243
:104F60000AD212F8039012F8088002EB840209EAD0
:104F70000C0408EB042414610233102BE8D1002345
:104F80002B704B7D114A834203D90F4B93F830109D
:104F900019B9B2F88E01BDE8F08310440C4990F8BD
:104FA0008221097803EB8203186901B1400800F5FA
:104FB000777080B2BDE8F083080100201C07002054
:104FC000040900200509002064120020EC1B0020C9
:104FD00006090020044B184490F88221034B53F833
:104FE0002200C0F3CF007047EC1B002040010020DE
:104FF00008B5094B184490F88221084B53F8220059
:1050000007F06CFD064907F0C1FD064907F0B6FC44
:1050100007F0A8FF80B208BDEC1B002008090020A3
:105020000000203F00005C44034B184490F88221AC
:10503000024B33F822007047EC1B00208401002053
:10504000016B0346C26810B5406941B1196C541A2E
:10505000005D013918BF0A46C0B21A6410BD196A52
:10506000405C0131B1FBF2F402FB1412C0B21A62CF
:1050700010BD436B13B190F844007047826A436AD5
:10508000D31A584258417047036B13B15A68036CE6
:1050900001E0026AC369D01A18BF01207047704747
:1050A00038B5124C0123054684F8303001F03EFE3D
:1050B000636B41F28832C31A9342A36384BF002317
:1050C00084F83C3094F83C30EDB20F2B6063E5542B
:1050D00006D1074B01221A70064B00221A8038BDF8
:1050E000024A013382F83C3038BD00BF6412002010
:1050F000080100202401002010B5044601F016FE2E
:10510000164A136C1064C31AB3F57A6F84BF002378
:1051100082F8443092F8443023B9A82C1CD11049AD
:105120000B7006E0022B02D10E490C7001E0142B2B
:1051300001D80D49CC540133DBB282F84430094A1E
:10514000127852000532934206D1044B002283F8B4
:105150004420034B01221A7010BD00BF64120020CE
:10516000260100203C0100202701002038B504461C
:1051700001F0DCFD114B40F6C4119A6C9864821A60
:105180008A4284BF002283F84C2093F84C200AB94D
:105190000F2C11D10A480021017052B1094D182A73
:1051A000154405F8014C04D1012283F84C1002701B
:1051B00038BD013283F84C2038BD00BF6412002096
:1051C000090100200A01002010B5044601F0AEFDDF
:1051D0000F4B40F6B8311A6D1865821A8A4284BFA7
:1051E000002283F8542093F854200AB9202C0DD1C2
:1051F00008491F2A8C5406D1074B01221A70074B0D
:1052000000221A8010BD013283F8542010BD00BF67
:1052100064120020620100206101002024010020AE
:10522000014B186801F053BD1C070020454B2DE9C8
:10523000F74349221A7040F2C4425A80BE221A71C2
:10524000EF2283F8C2240022074683F8C3241E46B7
:1052500051B193F8C0044FF4827202FB00303A4916
:1052600000F5DA7009F09CFE00221346B15C0132B1
:105270004B4040F2C4418A42F8D1324A4FF0030811
:1052800082F8C334314B324A5A6002F188325A6094
:105290002E4B3422DA602F48FFF72DFE2E48FFF701
:1052A0002AFE2E4C04282FD12D4B321953F8029090
:1052B0004FF4005000230193FFF70CFE04281DD18A
:1052C000224D4FF400502B6943F001032B611FFA6C
:1052D00089F324F8023CFFF7FDFD042809D101946D
:1052E000019B4FEA1949A3F800904FF40050FFF7D3
:1052F000F1FD2A6941F6FE7313402B61194B04340A
:105300009C42CFD1042802D0B8F10108C0D10F4B84
:1053100004281A6942F080021A6102D101F068FF84
:1053200010B90A2001F031FD01F086FF02F086F984
:1053300027B10F201421012201F04AFD03B0BDE87E
:10534000F08300BFEC1B0020CC2000200020024096
:105350002301674500F8010800FC010802F8010874
:10536000FE07FEF7C6FC010830B587B005460C46BF
:1053700003A800210C2209F01CFE2846002107F09A
:10538000C1FD20B128462A4907F0F8FA03E0284673
:10539000274907F0F1FA274907F0F8FB07F0BCFDB1
:1053A000054685EAE570A0EBE57069460A2202F041
:1053B00001F800239D420370ACBF20232D236846D3
:1053C0008DF80C3009F017FE012807D130238DF835
:1053D0000D308DF80E308DF80F300CE0022805D11D
:1053E00030238DF80D308DF80E3004E0032804BF13
:1053F00030238DF80D30694603A809F0E2FD03A8BB
:1054000009F0F9FD0338C5B22A4603A9204609F080
:105410001DFE002363552046074909F0D2FD03A96C
:105420002046294409F0CDFD204607B030BD00BF1D
:105430006F12033A00007A448937010870B5104CA6
:10544000064604EB811400250E4A308A2A4453880C
:10545000B189034289B20CD00B420AD0DB439BB224
:105460003382304653689847A36801460BB1207BCE
:1054700098470835202D04F11004E5D170BD00BF18
:1054800098130020F02101081F4B10B55A6802F054
:105490000C02042A03D0082A04D01C4A14E01C4A37
:1054A000126811E05A685968C2F38342C90302F1D5
:1054B000020201D4174906E0596811F4003F14496B
:1054C000096818BF49084A4302605968124AC1F383
:1054D0000311545C0168E14041605C68C4F302243C
:1054E000145D21FA04F484605C68C4F3C224145D82
:1054F000E140C1605B68C3F381331A44137CB1FBA4
:10550000F3F1016110BD00BF0010024000127A00EB
:105510000C00002000093D004C000020038ACA88CE
:105520009BB223F44053134330B503820D46828966
:105530000989AB8892B20B43698922F4B0520B43BC
:1055400022F00C0213439BB28381838AAA899BB207
:1055500023F4407387B013430446838201A8FFF706
:1055600093FF1749049A039B8C4208BF1346A289F4
:10557000192112B25943002A2A684FF06403B4BFBC
:1055800052009200B1FBF2F1B1FBF3F212011009EB
:1055900003FB1011A08900B2002806DAC9003231DD
:1055A000B1FBF3F303F0070305E009013231B1FB6E
:1055B000F3F303F00F031A4392B2228107B030BD18
:1055C0000038014030B5002385B0ADF80A30ADF8A1
:1055D0000430ADF80630ADF80830ADF80C30037982
:1055E0000446DA0744BF0422ADF80A209B070D46A3
:1055F000009105D5BDF80A3043F00803ADF80A3034
:10560000A06C6946FFF78AFFA56005B030BD034B6B
:105610001A6922EA00001861704700BF00100240BA
:105620008A6810B50C6A036814430A6923F4FF43BF
:1056300014434A6923F0700314438A691443CA6906
:1056400014434A6A14438A6A224313430360CB68B3
:1056500043600B6883604B68C36010BD02684FF6FF
:10566000FE73134003600023036043608360C360E4
:105670002A4B984222D02A4B984229D0294B984253
:1056800030D0294B984237D0284B98423ED0284BF7
:10569000984206D153F8682C42F4700243F8682C03
:1056A0007047244B984206D153F87C2C42F070622C
:1056B00043F87C2C7047204B984206D153F8042CB9
:1056C00042F00F0243F8042C70471C4B984206D15D
:1056D00053F8182C42F0F00243F8182C7047184B7E
:1056E000984206D153F82C2C42F4706243F82C2CCB
:1056F0007047144B984206D153F8402C42F4704244
:1057000043F8402C7047104B984205D153F8542C65
:1057100042F4702243F8542C704700BF0800024046
:105720001C00024030000240440002405800024089
:105730006C00024080000240080402401C04024049
:1057400030040240440402405804024010B5104B9B
:105750004178DB688478DB43C3F30223C3F104029E
:1057600001FA02F20F21D94021401143094B02787E
:105770000901C9B21A4482F80013027801205109C4
:1057800002F01F0200FA02F243F8212010BD00BF10
:1057900000ED00E000E100E0013A2DE9F8430C469D
:1057A000072A30D8DFE802F004080C12191E22265E
:1057B00003880B8043880DE043880B80038803E057
:1057C00003885B420B8043885B4203E043885B4273
:1057D0000B8003886380838814E003885B420B801E
:1057E00043880CE043880B80038808E003880B8023
:1057F000438803E043885B420B8003885B426380FD
:1058000083885B42A380304B1B78002B5AD1B4F9BC
:10581000000007F067F98046B4F9020007F062F96A
:105820000746B4F9040007F05DF9284D06462968DB
:10583000404607F0ABF9E9688146384607F0A6F91B
:105840000146484607F09AF8A9698146304607F0B4
:105850009DF90146484607F091F809F04BFE69684A
:105860002080404607F092F929698146384607F0C2
:105870008DF90146484607F081F8E96981463046CE
:1058800007F084F90146484607F078F809F032FE3F
:10589000A9686080404607F079F969698046384612
:1058A00007F074F90146404607F068F8296A074690
:1058B000304607F06BF90146384607F05FF809F00B
:1058C00019FEA080BDE8F8832100002054060020C6
:1058D0002DE9F041069C002B06460F460CBF4FF009
:1058E00020084FF03008234613F8011B09B915466C
:1058F00003E0002AFBDD013AF6E7002D04DD304627
:105900004146B847013DF8E714F8011B11B1304694
:10591000B847F9E7BDE8F081F0B50124B0FBF4F534
:105920008D4201D34C43F9E70026DCB1B0FBF4F51E
:1059300004FB1500B4FBF1F41EB9002D01DC002CB2
:10594000F3D1092D03F101075FFA85FC04DD002A7C
:105950000CBF5725372500E0302565441D70013602
:105960003B46E2E71C70F0BDF0B50124B0FBF4F556
:105970008D4201D34C43F9E70026DCB1B0FBF4F5CE
:1059800004FB1500B4FBF1F41EB9002D01DC002C62
:10599000F3D1092D03F101075FFA85FC04DD002A2C
:1059A0000CBF5725372500E0302565441D700136B2
:1059B0003B46E2E71C70F0BD08B503685B69984799
:1059C00008BD08B50368DB68984708BD08B50368DB
:1059D0009B68984708BD08B503685B68984708BD91
:1059E00038B5064D04462B682146186801F06FF95A
:1059F0002B681A7954401C7138BD00BF0400002088
:105A000038B5044624200D46FFF7EAFF4D20FFF786
:105A1000E7FF002C084C0CBF3E202120FFF7E0FFE1
:105A20002368002228461A71FFF7DAFF236893F8EB
:105A30004600BDE83840D3E70400002001460020BE
:105A4000DEE710B50446C0B2FFF7CAFFC4F3072073
:105A5000BDE81040C4E710B50446C0B2FFF7C0FF70
:105A6000C4F30720FFF7BCFFC4F30740FFF7B8FFFC
:105A7000200EBDE81040B3E710B5441E14F8011F16
:105A800021B1034B186801F022F9F7E710BD00BF00
:105A90001C070020F8B5184B1B78042B28D1174B96
:105AA00008221A6110221A61154CA068FFF793FFB3
:105AB00058B1124D08266E61A0682768FFF786FF6F
:105AC0000146384601F003F92E6120680C4EFFF7BD
:105AD00082FF0028E8D0094C102565613068B7685E
