:020000040800F2
:1000000000500020ADDE000859DF000849AF0008AD
:1000100059DF000859DF000859DF00080000000020
:1000200000000000000000000000000059DF000890
:1000300059DF00080000000059DF000825AF000864
:1000400059DF000859DF000859DF000859DF0008B0
:1000500059DF000859DF000859DF0008A9AF000880
:1000600059DF000859DF000859DF000859DF000890
:10007000B9AE000859DF0008E9AE000859DF0008F2
:1000800059DF000859DF000859DF000859DF000870
:1000900059DF000859DF000859DF0008A5AF000844
:1000A00059DF000859DF000859DF000897AF000842
:1000B0008DAF000881AF000875AF000845AF00089C
:1000C0003DAF000841AF000839AF000859DF000814
:1000D00059DF000875AE000801AE0008C9AD000880
:1000E000ADAF000859DF000859DF0008000000002C
:1000F0000000000000000000000000000000000000
:0C01000000000000000000005FF808F1A3
:100110002DE9F04F844D8DB0AB68844C13F008018D
:1001200000F0868095F81721042A00F28380DFE82A
:1001300002F003030550750023787CE060787B4A69
:10014000002877D000209F05507002D5137E1E072F
:1001500070D4E0780023A27800F00706A383744BE4
:1001600042EA06221A60227902F03F06760146EA48
:10017000D00058606079800040EA9210A27902F0C5
:10018000010640EA86209860E07900F00F06F6014B
:1001900046EA5202DA60227A02F07F06360146EA27
:1001A00010101861607A400040EAD212A07A00F084
:1001B000030642EA46225A61E27A02F01F06B601BD
:1001C00046EA90009861207BC00040EA5212DA6152
:1001D0002CE0A27F554B6AB393F82000002201283F
:1001E0009A7727D19A8393F83420082A84BF08226B
:1001F00083F8342094F834004E4A0023DEB286425D
:1002000002F1020212D212F8016C12F8027C46EAE4
:100210000727494E46F823700133EFE794F858302A
:10022000424A00203BB1908382F85800012302E04B
:100230000B4600E00023E26D206E101A002802DA5F
:10024000002B00F0278402F59C4220322266DFF862
:10025000FCA0DFF8FC80002939D1384E89460F46D2
:10026000DAF80030F8B29847A0F2EE2292B240F2EB
:10027000DC539A42D4F8A420314B88BFB5F81A0158
:100280001340002B03DA013B63F0030301332749DA
:1002900003EB870301EB4303A3F864003188738801
:1002A00001370B44B188082F0B44F18806F108068A
:1002B0000B441BB24FF0040193FBF1F328F8093013
:1002C00009F10209CCD10132C4F8A42009E00026CA
:1002D000F0B2DAF80030984728F816000136082EF8
:1002E000F6D1AB68580404D594F8A8300BB908F0DF
:1002F00020FE95F82B210C4B62B3033238F9120023
:10030000A0F57A70B0F57A7FA8BF4FF47A7020EA32
:10031000E0700BF059FB0B490BF05EFC0A490BF047
:10032000A7FB0BF091FD2AE0F01800200801002047
:10033000000700202A010020400100206C0100205D
:100340000300008000007A4400C07F44F8060020CB
:10035000D406002093F82C0190B1AA4AD179AA4A78
:1003600032F81100B3F8302180B2801AB3F82E3180
:10037000C0EB802090FBF3F000B280F30A0080B263
:10038000AB68A4F8BE0013F4024F42D09F4BA04FBD
:10039000B3F81CA097F8B8300FFA8AF603EB830283
:1003A000964226DDDFF8709299F801200AB3994A47
:1003B000B2F81A21A8F80020A8F80220A8F8042012
:1003C000B7F8BA20A8F8062097F8B920134403EB31
:1003D00083039E4208DD99F812B0BBF1000F03D1F0
:1003E00008F0A7FD89F800B0B4F8C0300133A4F8D4
:1003F000C03097F8B83003EB83039E4205DD864E8C
:10040000777817B908F095FD37700AF1010AA4F85A
:100410001CA00022B5F81C11B5F81E61134638F96E
:1004200002009B088842C4BF63F07F03DBB2023244
:10043000B042B8BF43F04003082AF0D194F8C2009C
:10044000724A984205D192F8C300F92804D80130C5
:1004500000E0002082F8C30084F8C230AB686D4A27
:1004600013F480436A4F0CD0B2F81A11B2F8DC20B2
:10047000B8F90630881A834208DD0A44934207DB44
:1004800004E0B8F906208A4202DB16E0002314E0FB
:100490000023C4F88033C4F88433C4F88833C4F824
:1004A000D030C4F8D430B7F846302BB1574B93F85E
:1004B000A830002B42F017800123B7F846206AB11C
:1004C00094F8A82052B9544A52783AB195F82121AB
:1004D00012B108F02EFD01E0002BFAD194F8C320F0
:1004E0004A4B142A40F0B0804B4E7178D1B1B7F826
:1004F00046202AB993F8C2305F2B01D108F019FDCC
:1005000095F82031002B00F09F80B7F84630002B83
:1005100040F09A8094F8C2307D2B40F0958008F02E
:1005200008FD91E093F8C220572A15D13B4B4FF4B8
:100530007A721A80AB68D90501D508F0E1FF384B13
:100540001B685A0702D5374A0A21118013F00803A5
:1005500026D1A4F8C43023E0A868400717D55A2A4A
:1005600015D193F8C6202AB1012283F8C61083F86A
:10057000C72015E093F8C82082F0010283F8C82054
:10058000294B0AB1022200E003221A7008E05D2A1A
:1005900001F0B2875B2A01F0B1875E2A01F0B087D3
:1005A000B7F8463033B994F8C2206F2A02D106F06A
:1005B00073F914E095F8202122B11BB994F8C230E8
:1005C0007E2BF4D094F8C230972B04D1174B4FF404
:1005D000C8721A8003E0A72B04BF0123B37394F8F9
:1005E000C230BB2B02D1BB8D023303E0B72B03D14A
:1005F000BB8D023BBB8520E0BE2B19D17B8D023326
:100600001AE000BFAC040020B40400200801002060
:10061000101D0020F018002060060020F80B0020BC
:10062000E4040020FA0B0020F91D0020041E002025
:10063000BD2B09D17B8D023B7B850120014606F055
:10064000B3FE002384F8C330A868420731D594F87C
:10065000C8209D4B8AB19D4A527872B19C4AB8F924
:100660000610B2F81C21914207DD93F8A82022B9A8
:100670003221A3F8CA1083F8C82094F8B920924B0D
:1006800062B193F8CC202AB993F8C62012B932226D
:10069000A3F8CA20012384F8CC300AE093F8C620DE
:1006A0003AB18A4A527822B983F8C620012283F8E7
:1006B000C720884E0123002136F8022F03F1FF3CAA
:1006C000A2F2155EBEF5C77F8CBF4FF0000E4FF053
:1006D000010E0EFA03FE12B24EEA010140F2135E61
:1006E0007245CCBF4FF0000E4FF0010E0EFA0CFE1B
:1006F00041EA0E0140F2A46E7245D4BF00220122ED
:1007000003F1010E02FA0EF2033311430D2B89B2ED
:10071000D2D1002307EB430EBEF846E06A4A11EA45
:100720000E0F0CBF4FF0000E4FF0010E02F1A806A5
:1007300003F806E00133152BECD192F8A930634E93
:10074000654943B9654BB2F91C2093F8B83003EB07
:1007500083039A4217DD0B689B0714D5F37833B9EE
:10076000C4F8D030C4F8D430584B0122DA700004F9
:100770000CD597F8B830B4F91C2003EB83039A42E8
:1007800004DD012301E00023F370B37494F8AA3070
:100790004D4A5BB10023F370337943B9C2F8D030CE
:1007A000C2F8D430494B01221A7100E0337194F839
:1007B000A8300BB901233370F278494B12B9434A80
:1007C000127912B110225A6101E010221A610A68EE
:1007D000510725D594F8AB103B4B99B1B07990B93E
:1007E0003A494FF0010E81F806E0D3F8DC10C3F867
:1007F000EC00C3F8D810B3F8E810C3F8F000A3F881
:10080000E01000E0B171AB689B0409D594F8AC30FE
:100810002BB1F37B23B92D4B0121D97300E0F37386
:1008200012F00A0F20D094F8AD3027494BB17379FC
:1008300043B9264B01205871B1F8C430A1F8F43007
:1008400000E0737194F8AE302BB1737A23B91F4B6B
:100850000121597200E0737294F8AF101A4B19B16C
:10086000B3F8C410A3F8F610900640F1D080F37AE4
:10087000DFF85890002B00F0C58094F8F820124B58
:10088000042A40F2BF8093F8B22012B999F81220DE
:1008900062B3F379DFF83490002B40F0B880114850
:1008A000114A4FF0010A011D89F80830137089F8C8
:1008B00007A007F02BFF022384F80831B4F81831A1
:1008C000C4F8143149E000BF080100206006002090
:1008D000F0180020DA060020E4040020101D00209B
:1008E000000C0140040200200000002089F80720CD
:1008F00093F8B320A2B3B3F9E210B7F8CC200029E3
:10090000B8BF494291422BDAB3F9E4100029B8BFCD
:100910004942914224DA99F808A0BAF1000F76D141
:10092000BA4A4FF0010B82F800A0D3F81C2103F55E
:100930008670C3F80C21D3F8202103F58871C3F821
:10094000102189F808B0029307F0E0FE029BB3F88B
:10095000182183F808B1C3F8142189F813A056E0D0
:1009600000233372A94B1978002950D101221A7043
:100970008E46A74B002203F592702EF8002003F557
:1009800095702EF8002003F597702EF8002003F5DF
:100990009A7C002041F80C008C44CCF80420CCF860
:1009A000080003F5AE7C41F80C008C44CCF8042020
:1009B000CCF808000EF1020E03F5C27C41F80C00E1
:1009C000BEF1040F8C44CCF80420CCF8080001F1EF
:1009D0001401CED1317C11B90023F37417E0C3F8B0
:1009E000AC01C3F8B001A3F8B421A3F8B621A3F871
:1009F000B8218849002353520A31535202320A2A3D
:100A0000F7D1E9E70023F371337284F8083194F8E1
:100A1000B4302BB1B37C1BB97F4B01229A7201E039
:100A20000023B3726B79082B02D00E2B40F0988410
:100A3000A96800228905784B727240F1918497F879
:100A4000B81006267143B4F91C00884240F388842C
:100A50009A720122DA70714AB2F81A118AB2A8F8B1
:100A60000020A8F80220A8F804206D4AB2F8BA20A5
:100A7000A8F80620DA7A002A40F07284644890F8D8
:100A8000F800052800F26C849A74664B323919809C
:100A900000F066BC5E4BD3F8D031042B00F26084CA
:100AA000DFE813F005008B00FB0050034204012334
:100AB000C4F8D0315C4B564E1B681F077DD5D6F865
:100AC000D431D31A002B78DB584B02F5C332A03255
:100AD0005B6806F5EC70C6F8D42198474E4B06F5D6
:100AE000EC779A7B184692B1D6F8D4210023C6F849
:100AF000E021E9180022A1F8002116464C49FA5AD3
:100B00005A5206315A520233062BF2D18673494BA0
:100B10001B78A3B1B4F8D821B5F80031D31AA4F8E2
:100B2000D831B4F8DA21B5F80231D31AA4F8DA31A1
:100B3000B4F8DC21B5F80431D31AA4F8DC31D4F8C8
:100B4000E031334A002B00F00B84D2F8D4113A483C
:100B5000CB1A834202F5F57102F5F27019D8374BC2
:100B6000DA6882F00802DA600023FA5A30F903E00A
:100B700016B2B645C4BFDFF8B8E023F80E2031F94D
:100B800003E0B645BCBF2E4E9A530233062BECD180
:100B9000E6E30023C2F8E031C75ECE5EEA183E44C9
:100BA00002273B4496FBF7F6062BA2F80061F3D12F
:100BB0000120014606F0F8FBD2E3D4F8D031144E00
:100BC0000133C4F8D031184B1B68580765D5D6F8E7
:100BD000F031D31A002B60DBD6F8F431C6F8F021DF
:100BE000184F8BB33B6998477B689847D6F8F0312C
:100BF0003A8806F5FC701344C6F8F03106F5FE712C
:100C00007B6998470023C6F8F431A9E3000000206F
:100C100008010020C202002060060020F018002019
:100C2000101D0020D4060020E40400205C050020F4
:100C3000EC020020840500207FC3C901000C0140A4
:100C4000F202002034050020BB689847FB689847F3
:100C5000C54AD6F8001292F831204B1C934208BFC7
:100C60000023D4F8F82104EB8101C1F80422D4F860
:100C7000C412C4F800320A4404EB8301D1F8040220
:100C80000123121AC4F8C422C4F8F4317A88D4F8C3
:100C9000F0311344C4F8F03162E3D4F8D031B34EEC
:100CA0000133C4F8D031B24B1B68590740F14A8276
:100CB00008F0BAF8D6F8CC7246F2A713C71B9F42C9
:100CC000B6F8CAA2B6F8C8B240F23C82DFF8C892C1
:100CD000C6F8CC02B9F80030DFF88C827BB398F804
:100CE0003100D6F8C432D6F8D0220138B3FBF0F088
:100CF000082392FBF3F1521A1044C6F8D00290FB7D
:100D0000F3F00AF061FE9B490AF066FF9A490DF084
:100D1000C3FB01464FF07E500AF0A0FD97490AF050
:100D2000A7FE0BF06BF80023C6F8D832C6F8DC3209
:100D3000B9F80030C6F8D402013BA9F8003098F8A1
:100D400031000FFA8BFB0FFA8AFAD4F8C432BBF1E8
:100D5000000FB8BFCBF1000BBAF1000FB8BFCAF15A
:100D6000000AD345A8BFDA460138B3FBF0F01FFAFA
:100D70008AFACDF814A00AF023FE7E490AF02CFF6F
:100D80007D490DF089FB01464FF07E500AF066FD6B
:100D90007A490AF06DFE0DF0B1FAD8F83460814658
:100DA000D4F8E0020AF010FE31460AF061FE8046F7
:100DB000D4F8D402C0EB09000AF006FE31468146A1
:100DC0004FF07E500AF04AFD014648460AF050FEB8
:100DD000014640460AF044FD0DF090FADDF814A0FB
:100DE00083460FFA8AF8B8F1FA0F654E03DD4FF02B
:100DF000FF33336014E030680AF0E6FD8146404678
:100E00000AF0E2FD01465F480AF028FD0146484627
:100E10000AF02EFE5B490AF0DFFE0AF0EFFF3060B9
:100E2000366806F1FF39B9F1C60F06D8C6EB0B03D9
:100E3000C4F8E432C4F8E0622FE0D4F8E432002EC3
:100E4000C3EB0B0BDFF824A1C4F8E0B225DDC6F537
:100E500096700AF0B9FD4C490AF0BEFE8046CAF809
:100E6000E80230460AF0B0FD41460AF001FE0646AF
:100E700058460AF0A9FD414683464FF07E500AF0DD
:100E8000EDFC014658460AF0F3FD014630460AF0F3
:100E9000E7FC0AF0B3FFCAF8E0023C4B1868029383
:100EA0000AF08EFD3A4906460AF0E2FD8346D4F880
:100EB000F4020AF089FD8046D4F8F8020AF084FDB5
:100EC000014640460AF088FE324A079011680AF04F
:100ED000CFFD31460AF0CCFD234A4FF07C51D2F8C9
:100EE0003CA0D4F8D882D4F8E062069004920AF0CC
:100EF000BFFD59460AF0BCFD594684464046CDF830
:100F00000CC00AF0B5FDDDF80CC0014660460AF0E1
:100F1000A7FCD4F8DC120AF0A3FC51460AF0A8FDA5
:100F2000834630460AF050FD514684464FF07E50CD
:100F3000CDF80CC00AF092FCDDF80CC0014660460A
:100F40000AF096FD014658460AF08AFC049A029B74
:100F5000B9F1C60FC4F8DC0291469A461ED8034A7E
:100F6000C2F8DC601FE000BF101D00200801002057
:100F7000E404002080E6C547B1DC423ED048874A01
:100F800034000020000061440000C842FC1D002025
:100F9000BD37863578050020FA0B00200AF02EFFB9
:100FA000B04BC3F8DC00069940460AF059FC0346F2
:100FB000D4F8FC024FF00008CAF80080C4F8EC82B4
:100FC000C4F8F082C4F8F482C4F8F882301A0293AC
:100FD0000AF0FAFCA4490AF04BFD824638460AF0B2
:100FE000EFFC014650460AF0F7FD0AF007FF40F219
:100FF000DC529E499042A8BF10468842B8BF0846BE
:101000000A21C4F8FC6208F0FFF8029BD9F83860A6
:101010008246314618460AF02BFD074650460AF034
:10102000D3FC314682464FF07E500AF017FC014651
:1010300050460AF01DFD014638460AF011FCC4F87E
:10104000D8020DF05BF90521064608F0DDF8059A97
:10105000DFF810B213B2B3F5487FC4F800036BDABF
:101060009BF804330BBBDBF8D820DBF8DC3080487E
:10107000D31AB3F5FA7FA8BF4FF4FA738342A8BF1F
:1010800018460A2108F0C0F87A4B80221B79584391
:1010900090FBF2F3B3F5967FA8BF4FF49673A2F5D9
:1010A000D6729342B8BF134601E0DBF8083399F8D3
:1010B0000A209B1B5A43202192FBF1F299F814005D
:1010C000D4F8EC1042F2040603FB00106A4BB2F5B0
:1010D000967FA8BF4FF496729842A8BF1846674BF8
:1010E0009842B8BF1846C4F8EC0090FBF6F0644E86
:1010F000B242ACBF8618861999F81E000AF064FC4B
:10110000D4F80C13074607980AF0AAFB01463846A4
:101110000AF0AEFC4FF06C510AF0AAFC0AF06EFE29
:101120006FF095039628A8BF96209842B8BF18463E
:10113000301AC4F8F00001E0CBF8F080079BC4F847
:101140000C330DE1D4F8D0310133C4F8D031AB68A1
:10115000DA0540F1E9804B4EB36863B94A4F3B78FA
:10116000013B042B00F2FC80DFE813F011001100BA
:101170001100CD00B600B06805F041FA0028EDD0AE
:10118000404B986805F036FA02F042FFF3E795F815
:101190003291B9F1000F03D0B9F1010F09D098E0F5
:1011A0007A783A4BB06803EB0213596805F01DFAE0
:1011B0008CE0B068DFF8CC8003681B699847002892
:1011C00000F087803B78304E022B2CD0032B35D09B
:1011D000012B7ED12E4BD3F80090736AC3EB090329
:1011E000632B76D9F369042B1BDCDFF8A0A0D8F8B9
:1011F00008000AEB0313596805F0F7F97378D8F87B
:1012000008800AEB03139E6816F8011B19B14046CB
:1012100005F0FAF9F8E7FB69C7F824900133FB61A0
:1012200057E0022053E07278184BD8F8080003EB1F
:101230000213596805F0D9F9032048E03369012BFE
:101240002AD0022B42D0002B43D1326A114BC6F870
:10125000109053F8321003EBC2035B687161B36105
:1012600037E000BF080100200024744924FAFFFF82
:101270000CFEFFFF101D002020031900E0FCE6FF1C
:10128000D4FEFFFF880500202007002090050108FC
:10129000EC1800207C060108F369B269934209DA70
:1012A0007269D8F80800D15C05F0AEF9F369013332
:1012B000F3610EE0326A91490132326251F8322014
:1012C0000023F36102B90223336102E0042005F038
:1012D0004DFD00237B6043E07B68052201337B608A
:1012E0007B7801200133DBB2B3FBF2F202EB820226
:1012F0009B1A7B70824B834A1B68BB60002384F877
:10130000F830D3720DE07E4B1A68BB68D21A40F6F3
:10131000C4139A4224D97C4B05201A6822F020027B
:101320001A6005F023FD1BE00023C4F8D031764B92
:101330001B68DB0614D5724B1A68744B19683C3174
:101340008A420DD31A60724F724A734B734EC3F8C0
:1013500010233B880B20336107F080FD3B887361CD
:1013600007F062FDAB89E06533B16B4AD2F8142314
:10137000821A002AC1F2D6801844C4F8140303F07C
:10138000BDFD07F051FD664BE0651A681860821AD2
:10139000A4F8182301F0D0F85B4B5F4F1A68DFF810
:1013A00084B112F0080635D0B7F8E61001F1450314
:1013B0009BB28A2B2AD8534B58799E4630B3B7F844
:1013C000F430B7F8C400C01A80B283B21FB2B3378A
:1013D000BCBF00F5B4739BB218B2B3289EF80D7071
:1013E000C4BFA3F5B4739BB295F8EC0097B140B2BB
:1013F000404243439BF809001BB243436FF01D007A
:1014000093FBF0F31944A4F8E61003E0B4F8C430F9
:10141000A4F8F430570740F191803A4B99790029AC
:1014200000F08C801F7C002F7ED19BF873009BF80E
:101430007210394B80B3B4F8E8C0B4F9E0000FFA89
:101440008CFEC0EB0E08B8F1000FB8BFC8F1000861
:1014500088450FDD8645C8BF49421FFA8CFCC8BFCE
:1014600089B201256144C3F8EC7083F81A53A4F8DB
:10147000E81063E093F81A1329B1D3F8DC1083F86D
:101480001A73C3F8D810D4F8F030B5F8D210184455
:10149000B5F8D030984229E0B4F9E0E0B4F9E8704A
:1014A000CEEB070787EAE77CACEBE77C8C450ADDEF
:1014B000022197FBF1F70121C3F8087383F80413A5
:1014C00083F81A130AE093F81A1339B1D3F8DC70D1
:1014D00083F80403C3F8D87083F81A03D4F8F01023
:1014E000B5F8D0307144B5F8D200994203DB81429F
:1014F000B4BF0B460346A4F8E8301FE07C060108A1
:10150000EC18002060060020E404002054070020AE
:10151000480700203400002008010020000C014092
:10152000F40B0020101D0020B4F8E41095F92A01F6
:10153000D4F8F03000FB0313A4F8E4309BF87630C5
:101540005BB19E4BD97809B91B7933B1B4F8E83057
:10155000B4F81C130B44A4F8E830900640F1A583BE
:10156000964BDA7905921AB91A7A002A00F0968316
:101570001B7B924F002B00F09183B4F8C480904DF8
:101580000FFA88F00AF020FA8E490AF071FA8146C3
:101590000CF0F2FE824648460CF07AFE3B7C814617
:1015A000002B40F08F809BF8C560B5F93001002E0C
:1015B00057D0B5F82C3175429FB21BB2C01A07F054
:1015C000C7FFA84203DBB042A8BF304600E0284670
:1015D000B4F82A310744B4F92E011FFA83F81BB27C
:1015E000BFB2C01AA4F82C7107F0B2FFA84203DB07
:1015F000B042B4BF054635464544ADB2A4F82A51C1
:1016000038B20AF0E1F9064628B20AF0DDF9494697
:10161000054630460AF02CFA5146074628460AF09D
:1016200027FA014638460AF019F967490AF0D4FA50
:101630000AF0E4FB5146A4F8240130460AF018FAF7
:101640004946064628460AF013FA014630460AF093
:1016500007F95D490AF0C0FA0AF0D0FBA4F82601A8
:1016600023E30AF0B1F90746B5F92E010AF0ACF907
:101670004946064638460AF0FBF951468046304650
:101680000AF0F6F9014640460AF0E8F84E490AF039
:10169000A3FA0AF0B3FB5146A5F8240138460AF034
:1016A000E7F94946074630460AF0E2F9014638466E
:1016B0000AF0D6F844490AF08FFA0AF09FFBA5F821
:1016C0002601F2E2414BD5F80421DB88B5F818E198
:1016D0000793D5F814311FFA82FCCCEB0E0EB5F847
:1016E0001EA3CCEB030CFB7C1FFA8EFE1FFA8AF9BB
:1016F0009BF81A101FFA8EF01FFA8CFC2BB107B260
:101700008F42BCBF5718C5F814710FFA89F5B5F5AB
:10171000E16F02DDAAF5616904E015F5E16F03DA16
:101720000AF561691FFA89F90A270FFA89F9244D28
:1017300099FBF7F99EB10FFA88F71FFA89F6C9EB02
:101740000709B9F1000FB8BFC9F10009B9F10A0FD3
:1017500007DDB5F82073C82F88BFB04601E01FFA37
:1017600089F8D5F82463642796FBF7F70897A5F85E
:101770002873174FCCEB0E0CD5F82C63D7F800E08C
:101780001FFA8CFCC6EB0E0EBEF1C70FA5F82AC3DC
:101790000B4EB94640F261823F68C6F82C730D4F7C
:1017A000B7F8E2E0BCF1000F16D1A6F830E35BB366
:1017B000024B4FF0000E83F813E025E06006002096
:1017C0000801002035FA8E3C00002041D40600209C
:1017D000EC180020101D0020B7F8E6A00FFA8CFCD2
:1017E0000AFB1CEAB7F8E4E0B7F8E0B0F245CDF840
:1017F00018B003DBDE46F245B8BFD646A6F830E3A4
:1018000013B1BCF1000FD3DADDF820E0C8EB0E0312
:101810001FFA83FB059B1BB3A74BDB7CA3B1B7F877
:10182000DCE0CEEB4E3CCEEB8C0E4FEA4E0EA5F834
:101830002AE3B7F8E0E0A5F830E30FFA80FEBEF146
:10184000130FD8BF4FF0000BB6F832E3BEF1310FE3
:1018500006D800B2884203DD98481144C0F814113C
:101860009549887C50B1B6F83203092806D8002083
:101870004870C87491490532C1F81421B6F8322372
:10188000092A0CD80FFA8BF009F0F4FC88A3D3E9ED
:10189000002309F055FD09F065FF1FFA80FB0FFAE0
:1018A0008BF2B332BCBF0BF5B4731FFA83FB0FFA94
:1018B0008BF2B32AC4BFABF5B4731FFA83FB0FFAE4
:1018C0008BF2002AB8BF5242AB2AD9F80000D4F8F4
:1018D0003423A8BF4FF0AF0B801A0AF071F8784993
:1018E0000AF07AF9D9F80020B4F82A93C4F834231E
:1018F00009F1030292B2062ADFF8C0A1804606D899
:10190000DAF8B00141460AF0B3F8CAF8B00109EBC1
:1019100089094FEA490A1FFA8AFA1FFA8AF9A4F8D4
:101920002A930FFA89F00AF04FF8D4F83C13059087
:101930000AF09EF841460AF09BF8D4F8B01109F07D
:101940008FFF0AF05BFA5F4AB0F5FA7FA8BF4FF449
:10195000FA709042B8BF10460AF036F80246C4F852
:10196000B001B4F8B401A4F8B491C0EB0A0080B29D
:1019700001B20029B8BF494265295349A8BF0020D8
:1019800001F10A0EB1F804C021F802CF7145F9D176
:101990000021A6F8C2010846DFF8209109F5DD7E96
:1019A00031F80EE0023170440A2980B201D080B2D1
:1019B000F2E700B204920AF007F8D9F840130AF0EF
:1019C00057F841460AF008F90AF018FA1FFA80FAA7
:1019D000D9F838130598A9F848A30AF049F80AF08D
:1019E0000DFA00B209F0F0FF049A114609F038FF31
:1019F0000AF004FA1FFA8BF3DA1C92B280B2062ABC
:101A0000059008D8D9F8AC01414602930AF030F8A5
:101A1000029BC9F8AC0103EB83035B009BB21FFA86
:101A200083F90FFA89F0029309F0CEFFD4F850132E
:101A300083460AF01DF841460AF01AF8D4F8AC11B2
:101A400009F00EFF0AF0DAF91E49B0F5FA7FA8BFD7
:101A50004FF4FA708842B8BF084609F0B5FFB4F8F1
:101A6000B611029B84465B1A9BB21AB2002AB8BF19
:101A70005242652A154AC4F8AC01A4F8B691A8BF31
:101A8000002302F10A01908822F8020F8A42FAD15B
:101A9000A6F8CC3100231846DFF8209009F5E27152
:101AA000595A023308440A2B80B211D080B2F3E7AE
:101AB0009A9999999999B93F6006002008010020E8
:101AC00000007A440CFEFFFFC0020020CA02002082
:101AD00000B20293CDF80CC009F076FFD9F8541388
:101AE00009F0C6FF41460AF077F80AF087F91FFAB5
:101AF00080F8D9F84C135846A9F85C8309F0B8FF70
:101B00000AF07CF900B209F05FFFDDF80CC0614615
:101B100009F0A6FE0AF072F9B7F9DC1082B2DDF81E
:101B200014E06FF00900029B41430FFA8EFB9BFB10
:101B3000F3FB0FFA8BFBB7F9DE008B4503FB00F3D9
:101B400003DB9B45B4BF59461946DFF83C938A44F2
:101B5000B9F9D8106FF00900484312B20A2792FB76
:101B6000F7F21FFA8AFA8242A5F826A104DB07FBE6
:101B700001F08242B8BF10461FFA88F84044A5F829
:101B80002401B9F9DA006FF0090141438A4204DB0C
:101B90000A2141438A42B8BF1146B74A8844527C61
:101BA000A5F828815AB10FFA8AF1002903DB99427E
:101BB000B8BF0B4600E00023B04AA2F82631B5F9C1
:101BC000C832B5F82621002BB8BF5B42D31AA5F85E
:101BD0002631B5F9CA0209F0F7FE4FF07C5109F041
:101BE00047FF0AF00BF9B5F83033B0F5E17FA8BF35
:101BF0004FF4E17020EAE070181AB9F8E47000B20E
:101C0000B842B9F8E03003DB9842B4BF07461F463C
:101C1000B5F82003DFF86482A0F5E173642B0ED9D8
:101C200000B2C0F5FA7009F0CFFE954909F020FF27
:101C30000AF0E4F8B8F8B8311844A8F8B801B5F9D2
:101C4000B831B3F5FA7FA8BF4FF4FA7323EAE37310
:101C5000A5F8B8313B44A5F83033874BDA780AB998
:101C60001A7922B19B7A6BB1834B9B7C53B9DDF817
:101C70001CB00023A6F830B3A6F82631A6F824310C
:101C8000A6F82831B5F83033B5F82821A5F8E830A2
:101C9000B5F8E6301344A5F8E63006E00023A4F8D2
:101CA0002431A4F82631A4F82831764B764D5B68B0
:101CB0009847764B93F80080B8F1030F14D96F4919
:101CC0006FF06303B1F9E660B1F96203002EB8BFAB
:101CD00076429B1B984204DB06F164038342A8BF53
:101CE0000346A1F862331FE0B8F1010F1CD8684F1A
:101CF0007B79013B142B00F29E82DFE813F0A900F0
:101D00009C029C026900D1009C029C02A4019C02DE
:101D10009C029C029C029C02ED009C029C029C0284
:101D20009C029C0231026902544B95F9BEB0B3F893
:101D3000E8C0B3F86093B3F85EA3B3F96233CBF1B4
:101D4000000B03FB0BFB534E0027474506F1100623
:101D5000CDD20FFA8CF0CDF80CC009F035FE56F854
:101D6000101C09F085FE03460FFA89F0029309F072
:101D70002BFE56F8081C09F07BFE029B0146184614
:101D800009F06EFD03460FFA8AF0029309F01CFE7B
:101D900056F80C1C09F06CFE029B0146184609F02F
:101DA0005FFD03465846029309F00EFE56F8041CE8
:101DB00009F05EFE029B0146184609F051FD0AF04B
:101DC0001DF8354BDDF80CC023F817000137BCE7D0
:101DD00095F89E30294A13F0020F0CBF4FF0010B0B
:101DE0004FF0FF3B042013F0010FB2F862930CBFD9
:101DF0004FF0010A4FF0FF3A07F0C0F8B4F8606303
:101E00000BFB09FB0AFB06FA95F8A6301FFA8BFBC1
:101E100013F0020F0CBF01224FF0FF321F4C584449
:101E200013F0010F1FFA8AFA82440CBF01234FF00E
:101E3000FF33052002FB09F95E43A4F808A007F070
:101E40009DF81FFA89F9B6B2484406446681F2E16A
:101E500095F8A630052013F0010F084B0CBF0124A4
:101E60004FF0FF34B3F862335C4307F087F8A4B255
:101E70000A4B20445881DEE1600600200801002062
:101E8000CDCCCC3D00000020101D0020F41C002013
:101E9000F0180020A0050020F61C00208200002081
:101EA000002007F06BF8B4F9CA2295F97E304FF0A4
:101EB00032095343C04E93FBF9F31844308001209C
:101EC00007F05CF895F98630B4F9C822534393FBC8
:101ED000F9F948447080AEE1B84BB94E5A78B64C27
:101EE00012B9B7F8D4300BE0B6F9E820B7F8D03023
:101EF000B7F8D2109A4203DB9142B4BF0B461346A7
:101F0000E381E289AF4B97F822B11A80ABF102026C
:101F1000032AAD4B38D893F823E1AC49B3F826A196
:101F200031F91E10B6F864035145B3F81A81B3F8BD
:101F3000289103DB4945A8BF494600E05146C1EB63
:101F4000080100B209B204F01FFFA6F86403C0EB59
:101F50000800504503DB4845B4BF8246CA46CAEB79
:101F6000080A1FFA8AFABBF1030F1FFA8AF2CAF1B4
:101F7000000A02D0BBF1050F02D11FFA8AF32CE050
:101F800013461FFA8AF228E0BBF1010F23D1022089
:101F900006F0F4FFB5F98830B6F866A39842B5F8B4
:101FA0008CB0B5F88A2003DB13B29842B8BF034661
:101FB000C3EB0B010FFA8AF009B204F0E5FE95F9C4
:101FC0008E30A6F866035843642390FBF3F0B7F80D
:101FD0001A311844A08000231A467848817A71B1DA
:101FE000B6F8E2100B442381B6F8E6300A44638168
:101FF000B6F8E430E280A3816F4E03240BE0B6F81C
:102000005E130B442381B6F862330A446381E28095
:10201000B6F86033EFE705EBC403B6F9069093F921
:102020007E30204609FB03F9642399FBF3F9A6F8F7
:10203000069006F0A3FF01344844072CF08006F117
:102040000206E8D1F7E05D4A5D4B517810465A4EE2
:1020500011B9B7F8D4200BE0B3F9E810B7F8D020E5
:10206000B7F8D2E0914203DB8E45B4BF72460A4610
:10207000F281F189534A95F896A01180827A1AF07C
:10208000010F0CBF01204FF0FF30A2B1B3F9E48083
:10209000D5F8D49008FB00F009F096FC494609F009
:1020A000E7FC1AF0020F8346B4F9E2A00CBF01204E
:1020B0004FF0FF3013E0B3F96083D5F8D49008FBFC
:1020C00000F009F081FC494609F0D2FC1AF0020F39
:1020D000B4F95EA383460CBF01204FF0FF30D5F862
:1020E000D0400AFB00F009F06FFC214609F0C0FC6B
:1020F0000146584609F0B4FB09F080FE95F89EB001
:10210000F0801BF0010F0CBF01204FF0FF3008FBE7
:1021100000F009F059FC494609F0AAFC1BF0020F37
:1021200081460CBF01204FF0FF300AFB00F009F0A0
:102130004BFC214609F09CFC0146484609F090FB07
:1021400009F05CFE3081032006F018FFF388184484
:10215000F080042006F012FF3389184430816AE0D1
:10216000174E95F89E20B6F8603312F0010F0CBFA1
:102170004FF001094FF0FF3909FB03F90E4C1FFA2C
:1021800089F90420A4F8089006F0F8FE95F8A62036
:10219000B6F85E3312F0010F0CBF01264FF0FF3688
:1021A0005E4348442081B6B20520668106F0E6FE13
:1021B000304460813FE000BF8200002060060020C4
:1021C00008010020F61C0020F0180020D406002092
:1021D000A14E0324B6F862B305EBC40393F87E3036
:1021E000C4F1060113F0020F0CBF01224FF0FF32C1
:1021F00002FB0BF221F00101314413F0010FB1F8A1
:102200005E130CBF4FF0010A4FF0FF3A0AFB012AA0
:10221000DFF84C921FFA8AFA29F814A0204606F03B
:10222000ADFE504429F814000134072CD4D1B6F87F
:10223000E8208A4B1A80BB68990631D5002006F049
:102240009DFE874C06462080012006F097FE824ABC
:10225000608092F8B0301BB395F8C030B2F9C8C2B4
:1022600013F0020F95F986104FF0320395F97E9026
:10227000B2F9CA2219D00CFB01F1C9F1000902FB25
:1022800009F291FBF3F16FF0310C89B292FBFCFC87
:102290008C4492FBF3F2664411442680084460802B
:1022A000704B714A03F1100411E002FB09F20CFBC0
:1022B00001F192FBF3F2164491FBF3F326801844EC
:1022C000EDE723F8021FA34202F108020CD0B3F994
:1022D0000200B2F97810B2F87A608842F1DB31B2CC
:1022E0008142A8BF0146ECE795F8C0305A0706D4F2
:1022F0005E4B5A4A93F80090118801230FE05C4B23
:102300000024DD7D043D5B4B601903EB4403C0B248
:102310001989013407F024FA042CF4D1E8E74B457D
:1023200008D232F9130009B28842A8BF014689B227
:102330000133F4E7B7F8D200B7F8D460431A1FFAB4
:1023400083FBBB680196B7F8D06003F4804403F0C8
:1023500010030B93B3B2B7F81A51464A0893464B91
:102360000A94B2F906C0019CB7F8D6200595B7F8D3
:10237000D8805D78B7F81C711FFA84FA07925C7CEC
:10238000069709954FEA490900234B453DD00AB20B
:102390008242324F02DDFA5A5A44FA520A9D2F4ABB
:1023A000B5B1059DD75EAC4507DD474503DB8742E8
:1023B000A8BF07460AE0474608E0019DAF4204DB9C
:1023C000079DAF42A8BF2F4600E0019FD75214E0FF
:1023D000FC5EB44203DB8442A8BF044600E03446FE
:1023E000D452069CA44507DA089C0B9D002D18BF0B
:1023F0005446D452012400E00024099A1AB91F4A15
:102400009F5A164A9F520233BFE7194A1A4B927DD0
:102410005C741946002A61D0194A5379013B142B88
:1024200050D8DFE803F00B4F4F37524F4F2F4F4F2D
:102430004F4F4F3F4F4F4F4F4F373F000A4B93F88F
:10244000BF301BB1064B0020598945E04878002871
:10245000F8D1014640E000BF08010020F61C002032
:102460008200002080000020101D0020F41C0020AD
:1024700088050020D406002060060020700400209B
:10248000F0180020294C0020E18807F069F90120AC
:10249000218921E0254C0020218907F061F90120E4
:1024A000618919E0214C0020E18807F059F90120E9
:1024B000218907F055F90220618907F051F90320BD
:1024C000A18909E093689B0608D5184C0020218853
:1024D00007F046F96188012007F042F90DB0BDE828
:1024E000F04F06F02FBD124B1B78002B3DF4E4AFEC
:1024F00004F0D2F9FDF7E0BF012202E0022200E081
:1025000003225FFA82F9002009F1FF33014685F8C2
:10251000003404F049FF022028214A4604F096F9CD
:10252000FEF73EB80DB0BDE8F08F00BF820000207E
:1025300060060020AFF30080634B2DE9F04FB3F944
:102540000600624B8DB0DA8C90420FDBB0F5FA6F6B
:1025500093F8254007DA811A4C43A2F5FA6294FBFE
:10256000F2F4643403E0C4F1640400E06424584AE3
:1025700093F82360B2F81A1192F9EC2093F8705096
:1025800093F87170524293F8243092B20491002172
:102590000692059607930A464B4BDDF810C031F9B9
:1025A000038040F2E636CCEB080303F2F31EB64597
:1025B00003D8002BB8BF5B4201E04FF4FA73022A44
:1025C000DFF814C12CD025B1AB42CCBFC5EB03035F
:1025D00000236426DFF804A193FBF6FE6FF0630B83
:1025E0003AF81E900BFB0E3B0EF1010E3AF91EA0BD
:1025F0000FFA89FECEEB0A0E0EFB0BFE9EFBF6FEDB
:10260000CE442CF801E0DDF814C003FB0CFE314B86
:102610009EFBF3F333449BB2634393FBF6F314E066
:1026200027B1BB42CCBFC7EB03030023DDF818E0A2
:1026300003FB0EF6ACF80460079E002BB8BF5B42AC
:102640007343244E93FBF6F36433DFF88090DFF896
:1026500090C002EB090696F801A096F80BB0767DC3
:1026600003FB0AFA03FB0BFB73434FF0640E9AFB68
:10267000FEFA02F80CA093FBFEF30CF1030A0CF136
:10268000060C02F80C30DDF810C09BFBFEFBE045A9
:1026900002F80AB0104B05DA33F801E0CEF1000E73
:1026A00023F801E00132032A01F102017FF474AF43
:1026B000074DB5F81C21904214DBB0F5FA6FA8BFA6
:1026C0004FF4FA600FE000BFD4060020101D002078
:1026D000F01800200CFEFFFFEA010020000C002093
:1026E0000E0C00201046801A4FF47A714843C2F550
:1026F000FA62B0FBF2F24FF0640CB34C92FBFCF1C7
:1027000004EB4100B0F818E06FF0630000FB012219
:1027100004EB4101B1F91A000FFA8EF1411A4A4354
:1027200092FBFCFCE644A3F806E0A84BA84F5B7ABA
:10273000002B44D0A74BB3F90000A74BB3F90030EE
:10274000C01A08F097FD9EA3D3E9002308F0F8FD16
:102750000022A24B08F01EFF09F02CF880460BF077
:1027600097FD814640460BF007FE8046B7F9020010
:1027700009F02AF98246B7F9000009F025F949461F
:10278000834609F075F941460646504609F070F94E
:102790000146304609F062F809F030FB49463880BE
:1027A000504609F065F941468146584609F060F9FE
:1027B0000146484609F054F809F020FB7880D5F826
:1027C0000880DFF848A218F0020F00F08380844BE5
:1027D00006211A88236B7C4F1A4494F83430226304
:1027E0000133DBB2B3FBF1F901FB193919F0FF0634
:1027F00084F8343004965CD17A4E7B4B7078B96B98
:1028000033F810E04FF0080B91FBFBF01FFA8EFE3F
:10281000081A7044B86390FBFBF080B203920193F6
:1028200009F0D2F8714909F023F9714909F0D4F996
:1028300081469AF80B0109F0C7F80146484609F0AD
:1028400017F909F001FB9AF80E11B887039A019B5A
:1028500079B37079396C33F8100091FBFBF380B2D7
:10286000CB1A03443B6493FBFBF39BB240F6E44179
:10287000594340F6FF70B1FBF0F1BAF808014FF48C
:102880007A73091A5943BAF8060191FBF0F14A43E9
:1028900092FBF3F37964D7E91201C01841EBE371BD
:1028A000C7E91201534A002309F0EEFA049E386585
:1028B0003E63514AA38F12889A4203D395F80D21A3
:1028C0009A4203D9002384F8543003E03E4B04229B
:1028D00083F8542049483C4B417B94F8542001B183
:1028E000012118F4007F83F8551022D0444E454B47
:1028F00096F8B8101B8801EB810618B2B04215DDBE
:10290000324E76787EB1012684F856603C4E96F8B9
:10291000B960314401EB8101884207DD2A49022078
:1029200081F8560002E0022184F856100BB984F8B1
:102930005630354E336899060CD530498B7A0BB931
:10294000CB7A23B1214BDB7A0BB9012300E00023C2
:1029500084F8573094F856101B4B022902D14C20B2
:102960004E211DE0012904D14D2153204C220B465C
:1029700007E093F85710012906D1532001464E2253
:102980004D2303F01FF94EE093F85510012903D1B0
:10299000532001460246F3E7042A03D153204D2178
:1029A0000A460AE0022A03D1532001464D2204E0E0
:1029B000012A2DD153204D214E224423E1E700BFAF
:1029C000182D4454FB210940000C00206006002013
:1029D000EA010020CC010020FE01002000806640BA
:1029E00020040020AC040020B40400203333534002
:1029F00000F07F45407E0500BC040020B0010020AF
:102A0000101D002024010020E4040020F018002004
:102A1000A44A107818B1322003F0A2F803E083F83A
:102A2000580006F0FAF9A04B1A8812B133689A07D9
:102A300002D49E4B1B882BB19D4BDA6882F00802B2
:102A4000DA600FE09B4B9A7812B1994A0821116124
:102A50005B7813B1964B08225A61974B1B780BB1E8
:102A600007F0C6F9AB681B0662D5944A944F136809
:102A7000E26D9A1A002A5BDB03F543435033FB6592
:102A800097F860309BB97A238DF824308D4B022261
:102A9000B3F900306D20C3F1B40393FBF2F38DF86A
:102AA0002530FF2109AB08F00BF8012325E0012BAD
:102AB00026D185497923B1F900208DF824300A23E5
:102AC00092FBF3F25A32B42AA8BFB42222EAE2728D
:102AD0008DF82520B1F902206D2092FBF3F35A33D3
:102AE000B42BA8BFB42323EAE3738DF82630FF216B
:102AF00009AB032207F0E4FF022387F8603017E0F8
:102B0000022B15D164238DF8243001238DF8253054
:102B1000684B6D205B78FF21002B18BF01238DF8D7
:102B20002630032209AB07F0CBFF002384F8603086
:102B3000624B1A68636ED31A002B11DB5D4B597B15
:102B400061B999705A4BD96881F00801D96002F5D2
:102B5000F4235B4A03F59073536601E001229A70F7
:102B600033685F0708D4594A1188594A9268891A0C
:102B700064225143574A116018070DD4564B1A88E6
:102B80000A23B2FBF3F291B20BB2B32B4D4BCABF87
:102B9000A2F5B47219801A800027D4F87421484B2A
:102BA0009742DFF84CA180F2438703F168014C2083
:102BB00000FB0711494A11609AF80010914619B1BB
:102BC00002F030F800F034BF93F8003113B1444AFA
:102BD000444BDA60D9F80030DFF800A1186803F040
:102BE0000EFD002800F02187DAF80030186803F0A5
:102BF00001FDDAF8003093F84920C2B9B0F12401A0
:102C00004A424A4183F84920002AE3D1294B5B78A4
:102C1000002BDFD1232802D102F004F8DAE795F87F
:102C200001348342D6D1304A304B1A60CFE7012AB3
:102C300005D14D2814BF0022022200F0F2BE022A64
:102C400005D13C2814BF0022032200F0EABE032A6B
:102C50000DD140284FF0000200F2E38683F84720B0
:102C60005A7183F848001871042200F0DABE042A71
:102C700007D11A7983F8460050401871052200F0F8
:102C8000D0BE052AA6D193F8481093F84720914268
:102C900019792FD941401971511C83F847101344F9
:102CA000987197E7F91D0020041E0020F80B002002
:102CB000000C014060060020F00B002064010020A1
:102CC000000C0020CC010020D003002020020020B6
:102CD00004020020E4010020260400203800002027
:102CE0000400FA0500ED00E0EFBEADDEF04F00207D
:102CF0000C1E0020814240F0918693F84630752BDF
:102D000000F0428400F2F280692B00F05A8300F256
:102D1000A280452B00F063861FD8422B00F01C8652
:102D20000CD8402B00F03E86412B40F06E860020F0
:102D300003F09CFC4FF0000A00F045BE432B00F06E
:102D4000DF85442B40F06186002003F08FFCD04BE0
:102D5000012283F8002100F05CBE662B00F09D820A
:102D60006DD8642B00F06A82652B40F04E860B20F4
:102D700003F07CFCC74BDFF818A3B3F9000003F0A5
:102D800078FCBAF8180100B203F073FCC24B1B6860
:102D9000C3F3C000C3F38002800040EA4200C3F3E3
:102DA00040021043C3F3401240EAC20003F0100394
:102DB000184303F05EFCB94A002092F804E0D3788F
:102DC0004FEA8E0E4EEA430E53784EEA030E937985
:102DD0004EEAC30E53794EEA431E537A4EEA831EDF
:102DE000AF4BD9794EEAC11E197A4EEA012E597AB3
:102DF0004EEA412ED1794EEA812E117A927A4EEA2C
:102E0000C12E4EEA023E5A7B9AF817114EEA423E14
:102E10009A7B4EEA823E1A7C4EEA024E1A794EEABC
:102E2000021E5A7C4EEA424E9A7C4EEA824EDA7C70
:102E30001B7D4EEAC24E4EEA035E034616E2672B46
:102E400000F06C82682B40F0E085102003F00EFC4F
:102E50004FF0000AAAE26F2B00F05E8325D86C2B9E
:102E600000F0E08219D86A2B00F0BB826B2B40F097
:102E7000CC85052003F0FAFB8A4BDFF814A2B3F9E6
:102E8000000003F0F6FBBAF9260103F0F2FB9AF812
:102E9000010100F0010000F066BC6D2B00F0D18252
:102EA0006E2B00F0078300F0B0BD722B00F0DC83C6
:102EB00011D8702B00F05083712B40F0A685DFF8FD
:102EC000D0B14FF0000A9BF81701400000F0FE005F
:102ED00003F0CCFB65E3732B00F00C84742B40F003
:102EE00094854FF0000A4FF0010B7EE3CE2B00F0EB
:102EF000AB8444D8C82B00F094802BD8782B00F0FA
:102F00001D820FD8762B00F00484772B40F07D854E
:102F1000DFF87CA14FF0000B9AF8170103F0A6FB35
:102F2000534699E3A02B00F0BB84A42B40F06D85A1
:102F3000DFF85CA14FF0000B9AF8300180000130FF
:102F4000C0B203F093FB9AF8300103F062FB5346E2
:102F500000F0B4BCCB2B61D009D8C92B75D0CA2BDB
:102F600040F05385DFF864A10AF10A0BB4E0CC2BE2
:102F700000F0D680CD2B00F03E8400F046BDD42B6F
:102F800000F0F88116D8D12B00F0F08307D8CF2BB2
:102F900000F0E980D02B00F0258400F036BDD22B64
:102FA00000F03781D32B40F0308505F0AFFF3E4B6A
:102FB0001880D3E0F02B00F0678410D8D62B00F0F7
:102FC0001B81EF2B40F0218505F0A0FFDFF800A169
:102FD000AAF82C0005F09AFFAAF82A00BEE0FA2B06
:102FE00000F03A84FE2B40F01085082003F03EFBF1
:102FF0002E4B2F4A1B684FF0000AB3FBF2F3C3EBD2
:10300000431103EB81032B490968B1FBF2F220491C
:1030100002EBC303A1F82E3100F02BBC4FF0000AE5
:103020006BE04FF0000A05F071FF234B23F80A0014
:103030000AF1020ABAF1100FF5D1002003F016FBD5
:103040001E4B01221A7000F0E4BC05F055FF134B33
:10305000DFF880A0D87205F04FFF194B187005F00B
:103060005FFFCAF8000005F05BFFCAF8040005F036
:103070004DFF144B188005F049FF134B1880044B8B
:1030800093F8012142F0020283F8012166E000BFBB
:10309000000C002020040020E40400206006002032
:1030A000B00100203A040020FC01002008000020AC
:1030B00040420F0094000020D40600206001002050
:1030C0000002002020020020280400200F1D002004
:1030D000101D00202402002005F00EFF0AF1010A55
:1030E0008AF8010005F008FF8AF80B0005F004FFDC
:1030F000DA458AF81500EFD130E0D74B93F8172165
:1031000092452BD203F581731AF803B005F0FEFE49
:10311000D24B0AF1010A03EB4B03A3F84600ECE79C
:1031200005F0EAFEDFF834A38AF81F0005F0E4FE9C
:103130008AF8200005F0E0FE8AF8230005F0DCFEA6
:103140008AF8240005F0D8FE8AF8250005F0D4FEA0
:103150008AF8210005F0D0FE8AF82200002003F052
:1031600085FA00F056BC05F0D1FE6FF4AF6283180B
:10317000DFF8F4A2C62B98BFAAF81A0105F0C6FE24
:10318000AAF8D00005F0C2FEAAF8D20005F0BEFEF3
:10319000AAF8D40005F0BAFEDFF8C0B2ABF8BA0066
:1031A00005F0AAFE8AF8320105F0A6FE8AF833017E
:1031B00005F0A2FE8AF8340105F09EFE8AF80A01A5
:1031C00005F09AFE8AF82B0105F096FE05F09EFEAA
:1031D00000EB80004000ABF8280005F08DFE8AF877
:1031E0000B0105F089FE8AF80D0105F085FE8AF8CD
:1031F0000C0105F081FEB1E74FF0000A05F086FEF4
:10320000974B23F80A000AF1020ABAF1100FF5D120
:10321000A4E7944B5B78002BA0D105F06DFE924B98
:10322000022883F800044FF0000088BF0022014606
:1032300088BF83F8002404F0B7F88FE70720DFF891
:1032400028A203F013FAE72003F0E3F99AF8050047
:1032500003F0DFF9002003F0DCF99AF82401834B36
:10326000834A00280CBF10461846CBE38B420ED28F
:10327000804A13F802C0012202FA0CFC1CEA0E0F6D
:1032800018BF9A4003F1010318BF1043EEE703F0A3
:10329000FAF9754B93F8000465E2122003F0E6F9A1
:1032A000754B1B88B3F5806F29D94FF0000A734B1B
:1032B0003AF90300082390FBF3F00AF1020A03F045
:1032C000D8F9BAF1060FF2D1DFF88CA1BAF92001D2
:1032D00003F0CFF9BAF9220103F0CBF9BAF92401CE
:1032E000DFF8C4A103F0C5F9BAF9000003F0C1F991
:1032F000BAF9020003F0BDF9BAF904004FE3DFF8B0
:1033000058A1BAF91A0103F0B4F9BAF91C0103F093
:10331000B0F9BAF91E0103F0ACF9D5E7102003F0BB
:10332000A5F94FF0000A564B13F80A000AF1010AFA
:1033300003F06FF9BAF1100FF5D16AE3382003F00A
:1033400095F9DFF818A10AF1400BBAF9780003F0FB
:1033500090F9BAF97A0003F08CF9BAF97C0003F01D
:1033600088F90AF1080A9AF8760003F052F9DA456A
:10337000EBD14EE3002003F079F9DFF8E0A00AF189
:10338000400B05F0C3FDAAF8780005F0BFFDAAF8D0
:103390007A0005F0BBFDAAF87C0005F0ADFD0AF14E
:1033A000080A8AF87600DA45EBD132E3354B13F898
:1033B0000A000AF1010A03F02CF9BAF1100FF5D155
:1033C00027E3102003F052F94FF0000A2E4B33F997
:1033D0000A000AF1020A03F04CF9BAF1100FF5D114
:1033E00017E3102003F042F91E4BDFF8C0A0D87A93
:1033F00003F00FF9254B187803F00BF9DAF8000009
:1034000003F041F9DAF8040003F03DF9204BB3F979
:10341000000003F02EF91F4BB3F9000003F029F967
:103420001D4B16E0DFF888A0062003F01FF9BAF95B
:10343000000003F01EF9BAF9020003F01AF9174B65
:1034400007E0062003F012F9154B186803F01BF98A
:10345000144BB3F90000A2E2000C0020101D002064
:103460007004002060060020F01800200C0000C04E
:10347000040000C0020D0020200000201A0D0020D2
:1034800082000020F61C0020D4060020000200204C
:10349000200200202804002026040020CC01002067
:1034A000E401002008040020E002002024020020A3
:1034B000D0030020DFF864A3072003F0D7F8BAF8A0
:1034C0003C004FF6FF7BFF28A8BFFF20C0B203F0EF
:1034D000A0F8DAF850005845A8BF584620EAE07036
:1034E00000B203F0C6F8C94BB3F9000003F0C1F80D
:1034F000C74BDAF8440093F80A310028B8BF4042BD
:103500002BB10A2358435845A8BF584602E05845F6
:10351000A8BF584600B242E2DFF8FCA2072003F041
:10352000A5F89AF81F0003F074F89AF8200003F049
:1035300070F89AF8230003F06CF89AF8240003F06E
:1035400068F89AF8250003F064F89AF8210003F06F
:1035500060F89AF8220006E11E2003F087F8DFF8F1
:10356000E0A20AF10A0B0AF1010A9AF8010003F03D
:1035700050F89AF80B0003F04CF89AF8150003F095
:1035800048F8DA45EFD144E22F2003F06FF8DFF876
:10359000B4A21AF8010F002800F03B8203F039F8BA
:1035A000F7E79BF817319A4580F03382994B1AF868
:1035B0000320994B0AF1010A03EB4203B3F94600D9
:1035C00003F057F8EDE7824408F10108934991F8B8
:1035D000170180450CDBBBF1000F00F01A825FFA87
:1035E0008AF003F043F84FF0000B4FF00008EDE7CE
:1035F00001F581718A4818F801104FF00C0E0EFB8E
:103600000101496B084604910AF0F9FB8446BBF1BD
:10361000000FD8D159466145D6DA049A505C029120
:10362000CDF80CC002F0F5FF0299DDF80CC00131B5
:10363000F1E77C4A77495244127A1BF80100904224
:1036400003D1019302F0E5FF019B0AF10C0ABAF1E4
:10365000FC0FEED10BF1010B93F81721934580F08D
:10366000D8814FF0000AE4E7DFF8A4A1162002F0A9
:10367000FDFFBAF91A0102F0FCFFBAF9D00002F01E
:10368000F8FFDFF894B1BAF9D20002F0F2FFBAF90C
:10369000D40002F0EEFFBBF9BA0002F0EAFF9AF89C
:1036A000320102F0B6FF9AF8330102F0B2FF9AF845
:1036B000340102F0AEFF9AF80A0102F0AAFF9AF86C
:1036C0002B0102F0A6FF002002F0A3FFBBF92800A7
:1036D0000A2390FBF3F002F0CCFF9AF80B0102F002
:1036E00098FF9AF80D0102F094FF9AF80C0102F08D
:1036F00090FF37E0082002F0B9FF4FF0010A5FFAAF
:103700008AF00AF1010A02F084FFBAF1090FF6D13A
:103710007FE105F0F1FB03461220019302F0A6FFC2
:10372000019B0BB9404A02E0102B05D13F4AD2F869
:1037300000B0D2F804A002E04FF0000AD3461846C9
:1037400002F067FF584602F09EFF504602F09BFFD2
:10375000374B186802F097FF002002F08AFF002024
:1037600002F087FF002002F054FF52E105F0C4FB95
:10377000834605F0D5FB039005F0D2FB019005F0E0
:10378000CFFB824605F0C2FB05F0C0FB05F0B4FBA1
:10379000039A019BBBF1000F0FD1234981E80C0074
:1037A000244B012283F807B01A73BAF1000F3FF4DB
:1037B000D5AC1F4BC3F800A0D0E4BBF1100F7FF4D1
:1037C000CDAC1A4981E80C00BAF1000F02D0184BB9
:1037D000C3F800A01548184B0222011D1A7004F00E
:1037E00095FFBBE4134B5B78002B7FF4B7AC012053
:1037F00006F0CEFEB2E40F4B5B78002B7FF4AEAC4C
:103800000E494FF4C8730B80A8E400BFC601002026
:10381000F0180020020D0020101D0020000C0020D8
:103820007C0B0108AC0B01080402002014020020EC
:10383000E00100206006002010020020041E00208D
:103840000F1D00207B0B0108864B5A78002A7FF45D
:1038500085AC01229A7381E4824B93F801A0BAF1FE
:10386000000F40F0D2805046012103F09DFD5046EC
:1038700075E47D4B33F90A000AF1020A02F0F9FE01
:10388000BAF1080FF5D1C4E0DFF8F8A1042002F086
:10389000EDFEBAF92C0002F0ECFEBAF92A007EE047
:1038A0000C2002F0E3FE714B186802F0ECFE704B46
:1038B000186802F0E8FE6F4B1868A3E093F8302117
:1038C000934580F0A680DFF8C0A11AF80B000193A1
:1038D00002F09FFE0AF1100212F80B0002F099FEAE
:1038E0000AF1200212F80B000AF1300A02F091FEF0
:1038F0001AF80B0002F08DFE0BF1010B019BDDE7C6
:10390000002002F0B3FE05F0F7FADFF86CA1002307
:10391000CAF808308AF8050005F002FBDAF808302A
:103920001843CAF8080005F0E7FA8AF8170105F00D
:10393000EDFAAAF8E60005F0E9FAAAF8E80005F0C1
:10394000E5FAAAF8EA0005F0E1FAAAF8060105F09E
:10395000DDFAAAF808015CE0DFF81CA1102002F0F3
:1039600085FE9AF8050002F054FEDAF8080002F02D
:103970008AFE9AF8170102F04CFEBAF9E60002F04E
:1039800078FEBAF9E80002F074FEBAF9EA0002F033
:1039900070FEBAF9060102F06CFEBAF9080102F0F5
:1039A00068FE36E0082002F061FE4FF0000A324B5C
:1039B000534493F80F010AF1010A02F02AFEBAF10A
:1039C000080FF4D125E005F097FA2B4B53440AF188
:1039D000010ABAF1080F83F80F01F4D119E013209E
:1039E00002F044FE4FF0000A244B13F80A000AF1DB
:1039F000010A02F00EFEBAF10B0FF5D1002002F021
:103A000042FE002002F03FFE03E00120002102F010
:103A10000FFED9F80030187902F0FBFDD9F800301C
:103A2000002283F84920FFF7D5B80137FFF7B5B872
:103A30009AF8003023B133689B0600F1AC82C1E2F2
:103A4000AA680D4B1705F6D50D4A1278002AF2D058
:103A500093F843210ABB93F84431BBB9014B5B781F
:103A600016E000BF60060020280D0020E8F7FF1FC9
:103A7000ECF7FF1FF0F7FF1FF0180020961B01085E
:103A8000F00B0020101D0020310D0020D44A137DC2
:103A9000003318BF0123002BCDD095F84231002B05
:103AA00040F08581CF4BD86802F0A9FD002840F096
:103AB0007E81CD4FD4F878113A68CC4B511A7C29CD
:103AC000B84640F27481C3F8782193F87C21074608
:103AD000013283F87C2107F12400DFF810A3C0B283
:103AE00002F034FE0AF58D7333F9170007F06CFF0E
:103AF000BF4B8346188807F067FF0146584608F019
:103B00006BF8BC4907F0B4FF08F078F9013700B250
:103B100002F048FE032FDED1302002F017FEB64B34
:103B2000B3F9000002F03EFE02F01EFE9AF87C019E
:103B300010F0030B2CD1DFF8D0A2102002F006FE0B
:103B4000DAF80030642793FBF7F000B202F02AFEA7
:103B5000212002F0FBFDDAF8003093FBF7F007FBC1
:103B6000103787EAE770A0EBE77000B202F01AFEA8
:103B7000142002F0EBFDA14BB3F9000002F012FE9D
:103B80001C2002F0E3FD584602F00CFE02F0ECFDB2
:103B900094F87C31954F580740F0E380022002F002
:103BA000D5FDB7F97E014FF00A0A90FBFAF002F05A
:103BB000F9FDAB68990760D5BB8F4FF06E0B0BFB1F
:103BC00003FB15239BFBF3FB3A2002F0BFFD1FFA1A
:103BD0008BFB6422BBFBF2F90FFA89F0039202F02F
:103BE000E1FD3B2002F0B2FD039A02FB19B080B266
:103BF0000530DFF818B290FBFAF000B202F0D2FD07
:103C00009BF80030BA8F40F6340192FBF3F24A433E
:103C10002A21B2FBF1F2B7F8801191FBF3F003FB1C
:103C200010131B019BB243EA02239BB2C2F303228F
:103C300043EA0209062002F089FD0FFA89F002F03A
:103C4000B1FDB7F880219BF80030013292B292FBAF
:103C5000F3F103FB11232820A7F8803102F076FD51
:103C6000786C90FBFAF000B202F09CFD042002F0A8
:103C70006DFDB7F9500002F095FD33689A066ED5D8
:103C8000DFF88CA15E4FDAF800303C2183EAE37C58
:103C9000ACEBE37C5B4B13209CFBF3F207FB02CC09
:103CA00001FB0CF9029199FBF3FB0193039202F0E3
:103CB0004DFD039A02EB820202EB82020BEB8200C3
:103CC00007FB0B9B00B202F06DFD4FF47A791B20CD
:103CD00002F03CFD9BFBF9F000B202F063FD2320F3
:103CE00002F034FDDAF80020002AACBF4E20532049
:103CF00002F058FDDAF80420019B82EAE27BABEB8C
:103D0000E27B9BFBF3F207FB02BB0299122001FB53
:103D10000BF1039291FBF3FB029102F017FD039A62
:103D200002EB820202EB82020BEB820000B202F095
:103D300039FD1A2002F00AFD029907FB0B1191FBD5
:103D4000F9F000B202F02EFD222002F0FFFCDAF8BA
:103D50000430002BACBF4520572002F023FD02F0B9
:103D600003FD94F87C31282B21D1204B0022D8F878
:103D7000007083F87C214FF47A73B7FBF3FA1720B5
:103D80003C2702F0E3FCBAFBF7F9B9FBF7F007FBBD
:103D90001090000200B202F005FD182002F0D6FCDF
:103DA00007FB19A000B202F0FDFC02F0DDFC95F863
:103DB0004231012B7FF43FAE0A4DE86802F01FFC50
:103DC00000283FF438AEE86802F014FC07460520EE
:103DD00005F04FF88A2F4AD08E2FEDD11AE000BFA0
:103DE000B001002088050020EC180020000C002005
:103DF0002000002000007A4408040020CC010020AC
:103E0000806967FF80969800E80300201C0000206E
:103E10002402002000212E226E4809F0CEFF7C23D0
:103E200084F8AE31E02384F8B1317D2384F8DA31AF
:103E3000A38F84F8AF71DAB21B0A84F8CD3184F80D
:103E4000C331142384F8C63184F8C7314FF4FA73B0
:103E5000A4F8C8314823A4F8D031782384F8CC21C1
:103E600084F8C22184F8D2315A482E2190E0336878
:103E70009B06A1D5584D002105F5C1702C2209F0F3
:103E80009CFF7C2384F88231A02384F885317D2334
:103E900084F8AD31514B84F883711B7884F89C31E0
:103EA0004F4BDB7A002B6ED04E494F4A0F68DFF83C
:103EB0005CC197FBF2F06623C0B285F8AB31FB0F13
:103EC0000CFB00774FF0060E0EFB07F785F88B31E1
:103ED00042F21073B7FBF3F900EB800003FB197794
:103EE00049685FFA89F900EB800009EB800080B235
:103EF00091FBF2F2D2B285F88C01000A85F88D01AF
:103F0000C80F0CFB02110EFB01F185F89001B1FB0B
:103F1000F3F003FB101302EB8202C0B202EB820249
:103F200000EB820285F893311B0A92B285F8943136
:103F30002E4B85F89121120A85F892211A88642364
:103F4000B2FBF3F303EBC3039B009BB285F889310B
:103F50001B0A85F88A31264B85F88E711B883F0A2B
:103F600085F895311B0A85F89631224B85F88F71BB
:103F70001B8885F897311B0A85F89831B5F82631EA
:103F800085F89E3102E0202385F8AB311A482C21B8
:103F900004F04AFD10E7194ED4F8DC2133689A1A70
:103FA000002A0FDB0D4A1278042A0BD90A4A03F5BE
:103FB000123303F5F873C2F8DC31114BDA6882F082
:103FC0001002DA600F4B9B680BB10F4898470DB099
:103FD000BDE8F08FAE0D0020000C00200002002094
:103FE0006006002024020020A08601002804002092
:103FF0003A04002020020020820D002064010020ED
:10400000000C0140E80400207E0D00206079FEFFD6
:104010002DE9F04F9B4B95B093F83231C4B2012B90
:1040200000F0E78002D3022B40F0D985242C964D76
:104030000CD006D80A2C00F08C800D2C00F0898062
:10404000C3E02A2C07D02C2C05D0BEE000232B7017
:104050006B70AB70CAE06A782E782A4400218A4BD4
:10406000D170EEB9DA789E74472A19D11A79502A9C
:1040700016D15A79472A07D19A79472A04D1DA7991
:10408000412A01D101229A746A797F4B522A07D1C1
:104090009A794D2A04D1DA79432A04BF02229A740C
:1040A000AB7C794F012B02D0022B33D046E0B31EFC
:1040B000072B43D8DFE803F0040810141C2442291E
:1040C00003F01CF9686139E0EA786F4B532A35D167
:1040D0005A6952425A6131E003F010F9A8612DE0AB
:1040E000EA78694B572A29D19A6952429A6125E0A8
:1040F000EA78664B302A94BF00220122DA721DE072
:10410000002003F0DBF8287718E0002003F0D6F851
:10411000E88313E0072E06D0082E0FD1012003F00C
:10412000CDF878840AE0012003F0C8F841F2184382
:1041300058434FF47A72B0FBF2F33B84013600230C
:104140002A2C514A2E706B704BD1012182F8241019
:104150004CE095F82430002B33D04B4BDB78402BD0
:1041600004D9A3F137021201D2B202E01B0103F01D
:10417000F0022B79A978402B8CBF373B303BDBB268
:104180001344DBB29942404A1AD1937C012B08D0E8
:10419000022B15D1118C3E4B528C19803D4B1A804D
:1041A0000EE03A49C97A61B13B49506908609069AB
:1041B0004860107F39490870D18B394A118000E07E
:1041C0000023002285F8242010E06B782E4A0E2B65
:1041D00003D8591C13445170DC7095F824302A4AD6
:1041E0001BB991784C40947000E0002303F0010368
:1041F0004BE1254B002193F82520082A00F2448149
:10420000DFE802F00B05141E2F506E8A9700622C17
:1042100001D1022207E083F82510B52C40F034814B
:1042200093F82520013283F825202DE1032283F81D
:10423000252083F8264083F8274083F8284023E18F
:10424000042283F8252093F8272093F8281022448D
:10425000D2B283F827200A4483F8282083F8294023
:1042600012E1052283F8252093F8272093F82810DF
:104270002244D2B283F827200A4483F828205C85A0
:1042800002E100BFF0180020E00D002060060020D1
:104290002804002026040020240200200002002020
:1042A00020020020062183F8251093F8271093F8A8
:1042B00028002144C9B283F82710014483F828104C
:1042C000598D644A01EB0424A4B2B4F5007F89BF80
:1042D00000215485518582F8251000229A85D3E06B
:1042E00093F8272093F828102244D2B283F827208D
:1042F0000A4483F828209A8DC72A03D855491144C7
:1043000081F83040013292B29A855B8D934240F041
:10431000BB8007224F4B86E7082283F8252093F8BD
:104320002730A34200F0B0804A4A002382F82530AB
:10433000ABE083F8251093F82810464AA14240F0DC
:10434000A38092F8291006293CD004D8022912D063
:10435000032924D098E012294AD0302940F09480D3
:1043600092F834103C4A102988BF1021117010783F
:104370003A4900224AE03A49506B4860906B086025
:10438000116C4FF47A7091FBF0F136480180364998
:1043900092F8F800C872012182F8F9104BE092F807
:1043A000351011F0010105D092F83420D01E4242A0
:1043B000424100E00A4683F8F820002A3BD12A490E
:1043C000CA7238E092F83B1011F0010105D092F862
:1043D0003A20D11E4A424A4100E00A4683F8F820BA
:1043E0000AB92149CA7293F85F10204A117022E07D
:1043F000516C1F480180916C42F2107091FBF0F1FA
:104400001C480180012182F8FA1014E0824201F177
:104410000C0110DA11F8045C174C155511F8035C07
:10442000164C155511F8015C154C15550D78154CA9
:1044300015550132EAE793F8F930064A23B392F8AA
:10444000FA300BB3002382F8F93082F8FA300123F6
:104450001BE000BFE00D0020300D0020100E0020FA
:10446000240200202002002060060020000200201C
:104470002804002026040020310D0020410D0020DA
:10448000510D0020610D00200023002B00F0A783B8
:10449000984B9A68DA60984A116890469960974BF1
:1044A000196841F020011960954B197801290CBF5A
:1044B000002201221A70934BDA7A002A00F08F83CF
:1044C000914A1278042A40F28A835A7812B9197CE8
:1044D00001B91A731B7B13B90AB105F011F88B4CA3
:1044E0004FF0050E94F8FB3004F1FA06013393FB0C
:1044F000FEFE0EEB8E0ECEEB030E854B84F8FBE03A
:104500001B780396049304F5807303EB8E0E00234F
:104510008049814A5D58814E9D5095FBF6F002F12D
:10452000080698517E4E5F1806FB005542F2107C3B
:1045300095FBFCFC0597039F1FFA8CFC02F1100A07
:1045400027F802CF03EB830B53F80A6003975EF85A
:104550000B704EF80B50C7EB060909EB0506052555
:1045600043F80A6096FBF5F66C4D183205FB0060C7
:10457000049E9850012E0F4606D1ACF1020CBCF5FA
:10458000797F9CBF059A10600433082BC0D15F4D22
:10459000D8F80000D5F84831C01A07F011FA61497F
:1045A00007F01AFBD8F800304FF07E51C5F84831BB
:1045B000064607F0FBFB10B94FF07E5000E0304696
:1045C00010AAC5F84C01584B009211AA019297E825
:1045D00003000CCB04F033FF109A64231198534965
:1045E00092FBF3F20A8090FBF3F3514A45481380A3
:1045F000037B80460BB90B80138095F85031434EF6
:10460000002B3AD0D6F84C114FF07E5007F0E4FA68
:10461000D6F8543181463868C01A07F0D5F94946B2
:1046200007F026FA07F0EAFBD6F858211FFA80FABD
:1046300078680FFA8AFA801A07F0C6F93D4B1968B4
:1046400007F016FA494607F013FA07F0D7FBB6F958
:104650005E3100B2C218B6F95C310221534492FBBC
:10466000F1F293FBF1F392B29BB2A6F86221A6F8A5
:104670006031A6F85E21A6F85C31012385F850313F
:104680007968386898F80830C5F85811C5F85401A9
:1046900023B91C4BDB79002B00F0A182264B009341
:1046A00004330193D4F86421D4F8683104F0C7FED0
:1046B0007B68D4F86801C01A07F086F91D4B1968A9
:1046C00007F0D6F907F09AFB3A68D4F86431C4F8D9
:1046D00078019B1A98F81020C4F874310C4B0AB179
:1046E00002221A7093F90030012B27D0022B00F020
:1046F000F58074E220070020EC180020E40400207C
:10470000010D00206006002000020020E00D0020C6
:104710001002002024020020080F0020809698003C
:10472000806967FF00007A44040200203A040020F8
:10473000260D00203C0000204C0F0020D4F87C51B6
:10474000D4F88C610395D4F89851D4F8907105F1A0
:1047500000400496069707F051FB8146284607F073
:104760004DFBD4F84C81D4F8944107904046059411
:1047700006F092FD8E4B044693F8C4000D4607F0F8
:104780001FF906F089FD88A3D3E9002306F0D8FDC0
:1047900002460B460020874906F0FCFE2B462246C7
:1047A00006F01CFC02460B462046294606F0F2FEA7
:1047B000CDE90801804E0025804C54F81570A4F115
:1047C0001403384635F803A007F0FEF8039907F004
:1047D0004FF907F013FBCAEB000080B228342853CE
:1047E00004B2204607F0F0F8049907F041F907F009
:1047F00005FB1FFA80FBE01907F0E6F8069907F0C1
:1048000037F9414607F034F9316807F029F807F025
:10481000F5FA484504DB079A9042A8BF104600E02D
:10482000484607F0D1F8306007F0E8FAB468584419
:104830001FFA80FB204606F02FFDCDE90A017068C3
:104840000AF1310A381A07F0BFF8414607F0C4F9F7
:10485000214607F003F806F01FFD02460B46DDE98E
:10486000080106F06DFD02460B46DDE90A0106F07F
:10487000B5FB06F09FFF1FFA8AFABAF1620F0146F4
:1048800030617760B0600ED9059807F0F1F807F055
:10489000B5FA4B4BB0F5FA6FA8BF4FF4FA609842E7
:1048A000B8BF184600E00020834440F6B8330FFA42
:1048B0008BFB9B45A8BF9B46424B0A229B45B8BF3A
:1048C0009B466A43404B56F8141B25F803B03F4BF8
:1048D0000235042DD15000F082816DE7344AD5F8BD
:1048E0006CA1B2F9CA909AFBF3F39945A8BF994617
:1048F000B5F8A0611FFA89F90FFA89F233B29A422A
:10490000334C0BDD3349D4F84C0107F0B1F807F014
:1049100075FA30441FFA80F9A4F8A091D5F87041D7
:10492000D5F8A4712C4EE71B384604F011FE002880
:10493000D8BF404241F293139842CCBF00200120DF
:1049400000284DD0384607F03FF8244907F090F88A
:1049500009F012FD0746504607F036F80146384682
:1049600007F086F807F04AFA80B240F6B83203B290
:104970009342A8BF1346134AA5F8A8019342ACBFBF
:10498000E318A31848F6A042934203DDA3F50C43B5
:10499000A03B04E0002BBCBF03F50C43A033336005
:1049A0001FE000BFAFF30080182D4454FB211940D5
:1049B000101D00200000F03F64020020540F002072
:1049C00030F8FFFF48F4FFFF360200208C02002081
:1049D000E00D00200000C8422C040020D30237392B
:1049E000346036680027C6F50C502830039606F070
:1049F000EBFF7F4907F03CF8044609F049FC1390AF
:104A0000204609F0B9FC7B4C7B4B25686668059510
:104A1000E568129005F10040D3F84CB1089607F014
:104A2000EDF90490284607F0E9F9A4680A90584681
:104A3000079406F031FC714B044693F8C4000D4610
:104A400006F0BEFF06F028FC67A3D3E9002306F0BA
:104A500077FC02460B460020694906F09BFD224682
:104A60002B4606F0BBFA02460B462046294606F0C6
:104A700091FDCDE90C01634E0FFA89F006F0A4FF19
:104A800012AB53F8171006F0F3FF5F4C0546E05FDA
:104A900006F09AFF0146284606F0E0FE07F0AEF960
:104AA0005A4B0FFA80F8B8F57A7FA8BF4FF47A789E
:104AB0009845B8BF98461FFA88F03C34385300B286
:104AC00006F082FF0599044606F0D2FF07F096F93A
:104AD00080B206900899204606F0CAFF594606F0B3
:104AE000C7FF316806F0BCFE07F088F9049DA842B4
:104AF00004DB0A9DA842A8BF284600E0049806F0FF
:104B000063FFB46805463060204606F0C5FBCDE97A
:104B10000E0170681436C0EB080006F055FF5946C8
:104B200007F05AF8214606F099FE06F0B5FB02465A
:104B30000B46DDE90C0106F003FC02460B46DDE9FD
:104B40000E0106F04BFA06F035FE46F8108C0146D1
:104B500046F8040C46F80C0C079806F089FF07F09D
:104B60004DF9069C0444284607F048F9204440F6D5
:104B7000B83300B29842A8BF1846254B0A22984283
:104B8000B8BF18467A43234BF852234B0237042F01
:104B9000D5507FF471AF194B93F8C6202AB1039E0C
:104BA00064211E4A96FBF1F11180B3F8C230124C19
:104BB0009A450DDDD4F8A431D4F87001C01A04F080
:104BC000C7FC42F210730028B8BF4042984206DD8D
:104BD000134B01221A70B4F8AA21104B1A8015B099
:104BE000BDE8F08FAFF30080182D4454FB2119402D
:104BF000D302373954040020E00D0020101D00209E
:104C00000000F03F8C020020400F002018FCFFFF46
:104C100048F4FFFF3602002064020020FC0100205F
:104C2000100200202DE9F047714B86B01A789946A2
:104C300042B901236F4889F8003001F03BFD6E480E
:104C400001F038FD6D4D286801F0D9FCAA46002816
:104C500000F0CB80286801F0CDFC09280146684CA3
:104C600001D03F2859D14FF00008D4F8AC61654F0E
:104C700045462EB164483968324609F0C9F810B982
:104C8000B84605B93D46614B0C379F42F1D305B399
:104C9000D5F800E0D8F800C0D4F8AC3158481EF878
:104CA00003701CF80310B94213D15A1C59B92D2BAB
:104CB00009D8C0F8AC2103442027024483F8B0711E
:104CC00082F8B01105E0234483F8B071C4F8AC2138
:104CD000E2E7D4F8AC310BB1454512D04C4801F0B5
:104CE000E9FC454509D855F80C0B01F0E3FCDAF86E
:104CF0000000092101F088FCF3E73F4801F0DAFCED
:104D00000026D4F8AC319E429CD23F4BDAF800002A
:104D1000995D01F079FC0136F3E7D4F8AC3133B991
:104D200004283BD104F5D87000F090FD5DE00C281C
:104D300001D1384881E70A2901D00D294AD13648E6
:104D400001F0B8FCD4F8AC312F4EE218002382F801
:104D5000B0310493314B03A800932A4910220C234D
:104D6000039609F0FFF8054638B1006809F047F8E6
:104D70000130AB683044984702E0294801F09AFCC2
:104D800021480021302209F018F80023C4F8AC3182
:104D900099F80030002B7FF452AF26E00C28C8D0E1
:104DA0007F2903D14EE72F2B3FF64CAFA1F1200214
:104DB000D2B25E2A3FF646AF13B920293FF442AF84
:104DC0005A1CC4F8AC2128681C4484F8B01101F0C6
:104DD0001BFC37E77F29E6D1013BC4F8AC31002248
:104DE000234483F8B0210F482AE706B0BDE8F087D6
:104DF0000C1E0020511C0108891C01088805002098
:104E0000E00D0020600D0108900F0020200E010829
:104E10008E1C0108931C0108A9230108018E0008BB
:104E20009E1C0108BF1C010873B51D4D4FF4805630
:104E300004466E61F52004F07FFC0DF107000021AF
:104E4000012205F03DFF2E619DF80730702B24D123
:104E5000144B154ABB2C1A60144A5A60144B154A5D
:104E60001A60154A5A60154ADA60154B02D90120BA
:104E7000187113E0612C01D902220BE0292C01D911
:104E8000032207E0132C01D9042203E0092C8CBF74
:104E9000052206221A71012000E0002002B070BD38
:104EA000000C0140FC0400208D8B000811980008C4
:104EB000E8040020E16C000801AD000818449231BC
:104EC0003C000020AFF3008008B5084801F0F2FB79
:104ED0000121002002F068FA054801F0EBFB0A20EE
:104EE00003F0C7FF034A044BDA6008BDC31C010886
:104EF000CD1C01080400FA0500ED00E02DE9F04F9B
:104F0000904C93B0636890489847904B8E4C1A88A9
:104F1000984604F15009002A00F09680002704F119
:104F200008053E46B8F800A0894BBAF57A7F07D14C
:104F30000A21A3F13C0001FB06010022DA510A61BB
:104F4000DA59A05F0244DA5106F03EFD2A690132C7
:104F5000012A2A6104D1002368602860AB602AE03E
:104F6000D5F800C002926146CDF80CC0019006F061
:104F700075FC029A8346104606F026FD0146584607
:104F800006F02AFEDDF80CC00146604606F068FC1B
:104F9000019B0246114668601846029206F05EFCCC
:104FA0000146584606F064FDA96806F059FC029ACD
:104FB000E8602A60A8600023BAF1010FA35329F822
:104FC000063034D12869012807DD013806F0FCFCE1
:104FD0000146E86806F000FE00E0002009F0E4FB6E
:104FE0005C4B824693F8F60090B106F0EDFC01466A
:104FF000504606F0F9FE58B14FF47A73A8F8003025
:105000000023A361E3622364E364A36463640EE0AA
:105010004F4B4FF47A72FB580A2003F5FA7393FB57
:10502000F2F329F806300F21012201F00FFC0236BD
:10503000062E07F1040705F114057FF473AFB8F8E5
:105040000030013BA8F800300023E15A39F8032072
:105050003D4E8A1AE2520233062BF6D13E4A3D4DAE
:10506000136813F0020300F08A833C4B3C4F06F1B7
:1050700056005B68984738885636002844D000238D
:105080001A46DFF8ECC0B0F5C87F04BF00214CF829
:10509000021036F903805CF80210DFF8ACE04144FE
:1050A0004CF80210002105EB0308F1520233062BE5
:1050B000DFF8A0C0A8F8FA1002F10402E1D101283B
:1050C0001FD1DEF85C304FF4C872C83393FBF2F3A3
:1050D000ACF8FA30DEF86030C83393FBF2F3ACF88A
:1050E000FC30DEF86430C83393FBF2F21D4B1B88B2
:1050F000D21A1D4BACF8FE2059859985014602F065
:1051000053F93B88013B3B80AA68124B520740F1A0
:10511000918016490A888C46322A2BD1B3F8FA10AE
:10512000A4F86810B3F8FC10B3F8FE30A4F86A10C5
:10513000A4F86C300C4B598D9B8DA4F86E10A4F81C
:10514000703019E0E8040020C00F0020F80B0020A8
:1051500004100020F0180020E4040020FC040020CB
:10516000041E002020000020101D0020D20100207D
:105170001C100020002A3ED000231F46DFF848E321
:10518000322A04BF00214EF807105EF8070036F9F6
:10519000038005EB030940444EF807004FF0000E72
:1051A00026F803E00233062BB749B848A9F8FAE01D
:1051B00007F10407E2D1012A1AD1B54B022683F880
:1051C00000E0B44B1A70B44B1E70B1F86830A0F810
:1051D000FA30B1F86A30A0F8FC30B1F86C30A0F8C1
:1051E000FE30AE4BB1F86E00B1F87010588599855D
:1051F000013AACF80020AA4A1378DBB10023616FB2
:105200001370322291FBF2F1A5F8FA10A16F91FB15
:10521000F2F1A5F8FC10E16F91FBF2F2A1490888C8
:10522000121AA5F8FE2001209C4A01465385938559
:1052300002F0BAF8B4F85620B5F8FA300027D31ABD
:10524000A4F85630B4F85820B5F8FC30BB46D31A51
:10525000A4F85830B4F85A20B5F8FE30D31AA4F8A0
:105260005A3003F0E1FDD4F880300646C31A1846E0
:10527000049306F0A5FB8C4A0690D16806F0F8FB73
:10528000864AC4F8806092F82E30079005933E4617
:105290009046A05F06F098FB079906F0E9FB059A97
:1052A0000DF1240A4AF807006AB3104606F08CFB99
:1052B00001464FF07E5006F08FFCDFF81092024658
:1052C00011464FF07E50029206F0C8FA57F80910C6
:1052D00006F0CEFBA9F12E018446885FCDF80CC004
:1052E00006F072FB029A114606F0C2FBDDF80CC014
:1052F0000146604606F0B4FA49F8070006F07EFD64
:105300006A4A905303E06A4AB15A684AB152674AFE
:105310000437B25E0236062E02FB02BBB9D1614AE7
:105320006426128806FB0BF3524393FBF2F6493EC8
:10533000604809A9B6B203F035FE3B2E6ED95E4B2C
:10534000D4F89860B3F9000006F03EFB0146304601
:105350004FF0010706F048FD00B90746574B3146AC
:10536000D4F894005F7309F095F80746C4F89C00E0
:10537000D4F89000D4F898B000F10046D4F8940026
:10538000014606F075FB59468146584606F070FB0B
:105390000146484606F064FA09F006FA014630462E
:1053A00009F078F80646C4F8A000384605F074FF06
:1053B00033A3D3E9002305F0C3FF06F0FBF908F09F
:1053C0009DFFDFF80C91A9F80000304605F064FF5E
:1053D0002BA3D3E9002305F0B3FF06F0EBF908F0A7
:1053E0008DFFA9F80200364803681B0740F1928040
:1053F00009A9344803F0D6FDB5F8F40006F0E0FA48
:105400004FF07E51824606F02BFA01464FF07E5057
:1054100006F0E2FB4FF0000B81465BE0B5F8F200CE
:1054200006F0CEFA4FF07E51074606F019FA014613
:105430004FF07E5006F0D0FB4FF000090646DFF833
:1054400074B038465BF8191006F012FB174A034691
:1054500032F90900019306F0B7FA019B014618469C
:1054600006F0FEF9314606F003FB4BF8190009F18E
:105470000209B9F1060FE2D161E700BFAFF3008086
:105480003B597E90A9E78140C00F0020F018002012
:10549000D4010020CE010020F91D0020101D0020A5
:1054A000CF01002020000020E80400201A0D002079
:1054B0001610002050100020740500206006002007
:1054C000E404002064100020341000204410002068
:1054D000D0030020BA4B504653F81B10019306F03E
:1054E000C7FAB849024631F90B00029206F06CFA8D
:1054F000029A0146104606F0B3F9494606F0B8FA9A
:10550000019B43F81B000BF1020BBBF1060FE1D12D
:1055100018463FE0DFF8B0B25146584603F042FD6E
:10552000DBF80000DBF804300146DBF808A001934B
:1055300006F09EFA019B81461946184606F098FA35
:105540000146484606F08CF951468146504606F021
:105550008FFA0146484606F083F909F025F9002143
:10556000814606F019FCA0B9DBF80000494606F0B8
:1055700033FB4946CBF80000DBF8040006F02CFBB7
:105580004946CBF80400DBF8080006F025FBCBF811
:1055900008008D4803F0BEFD8C4B8D49188006989D
:1055A00006F066FA894B06F10046814607F100478E
:1055B000B3F900000D960C9706F006FA00F10040D2
:1055C00005F06AFE7AA3D3E9002305F0B9FE06F0E0
:1055D000F1F8804E0E90B6F9000006F0F5F90F9044
:1055E000B6F9020006F0F0F91090B6F9040006F0E2
:1055F000EBF90CA911900FA803F0D4FC764B93F8AB
:105600004430012B17D1754B5B7873B9D4F8B030A7
:10561000402093FBF0F0181A06F0D6F9119906F025
:105620001FF906F0EBFBC4F8B000D4F8B03040200E
:1056300093FBF0F001E06A4B188806F0C5F90146CB
:10564000119806F00BF9674B11901968484606F05F
:1056500007F90146484606F0BFFAD4F8B46081461F
:105660003146119806F0FAF80146484606F000FA6D
:105670000146304606F0F4F85B4E8146C4F8B400AB
:105680000F98D6F800A008F039FE98F8301003F013
:10569000BBFD504430601098D6F804A008F02EFEF0
:1056A00098F8301003F0B0FD504470604846D6F8CA
:1056B00008A008F023FE98F82F1003F0A5FD4B4B2F
:1056C00004991A6850440A441A60494B494F1A68B1
:1056D000B06001321A6098F87630002B55D0D7F8B8
:1056E0009000D7F89480014606F0C2F9D7F8986088
:1056F00041460746404606F0BBF90146384606F0EB
:10570000AFF831460746304606F0B2F90146384652
:1057100006F0A6F809F048F80146304606F05CFAB3
:105720003549074606F04CFB344E10B10023338058
:105730002BE0384608F05EFE314B196806F098F908
:1057400008F0DCFDB0F5617FA8BF4FF4617005F093
:1057500091FD19A3D3E9002305F01CFF06F02AF8F8
:1057600008F00AFE1C4B074693F8760006F02CF969
:10577000394606F07DF908F0C1FD308005E0A6F855
:105780005630A6F85830A6F85A306B79012B1D4BCD
:105790003AD1B4F9B810B4F9042002EB4102032164
:1057A00092FBF1F292B29A80A4F8B8202EE000BFEA
:1057B000399D52A246DF913FA2EB0FE5DD169640E0
:1057C00064100020E002002044000020CC010020F2
:1057D000BD3786351A0D0020101D00206006002000
:1057E0002000002080050020F4030020FC1D002084
:1057F00000040020C00F00208FC2753C240400204C
:105800007C050020200D0020A2889A8022881A8022
:1058100062885A8013B0BDE8F08F0A4B30B59A68A1
:10582000B3F8DA50B3F8D44002F4804200230649BA
:10583000002A14BF2846204658520233182BF6D1AE
:1058400030BD00BFF01800207004002010B50446E1
:10585000084800F02FFF084A00231370074A13601E
:10586000074A1370FFF7D9FF2046BDE81040FFF745
:105870002BBB00BFDC1C0108900F00208C0F002008
:105880000C1E0020F0B5934C934A23689D8AADB25C
:10589000E9B211F0010F36D0198821F40061090432
:1058A000090C1980198889B241F48061198000219E
:1058B00082F8BA10894908788949B8B192F8BB00D2
:1058C00018B988480078FF2810D1012082F8BB0061
:1058D00085480078022804D1188880B240F400601E
:1058E0001880097841F00101198216E1097801F068
:1058F000FE0119827B4B1B78FF2B00F00E81FF23EA
:1059000082F8BA3009E18F0740D5BFF35F8F76493F
:105910000878C0B2012816D1704D2D789DB192F84B
:10592000BB5085B1198821F480610904090C1980E4
:10593000BFF35F8F198B198882F8BC0089B241F4DC
:10594000007119801DE0188BBFF35F8F0878022863
:105950000CD16248007848B192F8BB0030B1198888
:1059600021F480610904090C1980D0E00978032929
:1059700007D15A49097821B192F8BB10002940F0AB
:10598000C680998889B241F48061C5E04E0764D52C
:10599000012182F8BC105149097800293ED092F8C3
:1059A000BB1000293AD0504992F8BA0009784F4DFF
:1059B000022919881FD921F480610904090C198072
:1059C0001F8A2E68C1B2FFB240B23754188880B225
:1059D00040F4007018808B1C82F8BA302368286865
:1059E0001D8A013149B2EDB24554998889B241F41A
:1059F000806199802CE089B241F4007119801E8A7F
:105A00002D68C1B2F6B240B22E541B8A481C40B277
:105A1000DBB203312B5482F8BA1019E092F8BB10B4
:105A200011B93349097851B1198889B241F400712B
:105A3000198092F8BA30013382F8BA3008E0198838
:105A400089B241F480711980234B012183F8BB1086
:105A500021680B88D805FCD45FE001F0400101F01B
:105A6000FF06214809B32149B3F810C00F6892F826
:105A7000BA105FFA8CFCCDB26E1C49B2F6B207F8D0
:105A800001C082F8BA60077876B2F11C8F4205D166
:105A9000998821F480610904090C99800378B34244
:105AA0003BD1023582F8BA5037E0290635D592F855
:105AB000BA104DB26F1C1FD00E4E01313668C9B2FC
:105AC000755D82F8BA10EDB21D82007849B2884245
:105AD00023D11CE040120020C00F00203312002010
