:020000040800F2
:100000009030002061CE0008A1CE00084B2F0008E0
:10001000A5CE0008A7CE0008A9CE00080000000069
:10002000000000000000000000000000ABCE00084F
:10003000ADCE000800000000AFCE0008B9A1000856
:10004000B3CE0008B3CE0008B3CE0008B3CE00088C
:10005000B3CE0008B3CE0008B3CE000841AE00080E
:10006000B3CE0008B3CE0008B3CE0008B3CE00086C
:10007000CDA80008B3CE0008A1A80008B3CE0008A0
:10008000B3CE0008B3CE0008B3CE0008B3CE00084C
:10009000B3CE0008B3CE0008B3CE000843AE0008CC
:1000A000B3CE0008B3CE0008B3CE0008ABB600084C
:1000B000B1B60008B7B60008BDB60008B99A000886
:1000C000B9980008BD9A0008BB9A0008B3CE000892
:1000D000B3CE0008F9A800082DA9000891A90008CE
:1000E00011920008B3CE0008B3CE0008DFF80CD0A0
:1000F0000DF0B8FB00480047292C00089030002084
:1001000070B50C46911E232900D30A220025002831
:1001100004DA2D212170611C404200E0214601F0EB
:1001200023FC0570204670BD2DE9F047044600E031
:10013000641C20782028FBD00928F9D04FF07E5885
:10014000C1B247462D2902D02B2801D001E0FC4F37
:10015000641C0026DFF8EC930CE000BF0DF066F99C
:100160000546494630460DF073F829460DF018F85B
:100170000646641C207830380928EFD920782E28CC
:1001800015D14D460EE000BF0DF050F929460DF097
:1001900091F831460DF004F80646494628460DF020
:1001A00057F8054614F8010F30380928ECD92178A2
:1001B0004046652901D0452935D114F8011F4FF07B
:1001C00000082D2902D02B2902D002E04FF00108AF
:1001D000641C00256FF02F0206E000BF05EB8503CD
:1001E00002EB4303CD18641C2178A1F13003092BE5
:1001F000F4D94FF49A718D4204D90D46D2490DF0CD
:1002000027F8083D082DF9D203E049460DF020F803
:100210006D1E002DF9D1B8F1000F04D00146304613
:100220000DF048F803E0014630460DF011F839466C
:10023000BDE8F0470DF00CB8F0B587B000260D46CC
:10024000C34900960196C1A70296B0F5000F02DBE4
:100250000CF0A6FF01E00CF0F5FFBE490CF0F8FF32
:100260000DF003F9041E00DC60420A2203A9FFF727
:1002700047FF002C01DB202000E02D208DF800003E
:1002800003A80CF03EFF302401280AD003A80CF08C
:1002900038FF02280CD003A80CF033FF03280CD041
:1002A0000DE08DF801408DF802408DF8034006E026
:1002B0008DF801408DF8024001E08DF8014003A95E
:1002C00068460CF0EAFE68460CF01BFFC01EC4B284
:1002D0002246694628460CF0FEFE2E553946284631
:1002E0000CF0DBFE0DEB040128460CF0D6FE07B047
:1002F0002846F0BD70B505460C4608680CF001FFB5
:10030000024621682868BDE870400CF023BF70B534
:1003100006460CF0F6FE904D10F0FF0F10D0304660
:100320000CF031FF0446182818DA202130460CF072
:10033000DEFE0CF028FF05EB4401A1F8460070BD7D
:100340005FF0000405EB44002146B0F8462083A08E
:100350000DF032FB641C182CF4DB70BDBDE870405E
:10036000182181A00DF028BB2DE9F041002588B0AF
:1003700007462E460CF0C5FE854C10F0FF0FA84630
:1003800051D0052283A138460CF0E4FE00287DD030
:10039000042282A138460CF0DDFE002877D03846D2
:1003A0000CF0F1FE461E0C2E72DA202138460CF0BD
:1003B0009EFE070007D0781C0746FFF7B5FE04EB4A
:1003C000061101250861202138460CF090FE070037
:1003D00007D0471C3846FFF7A7FE04EB06116D1C3B
:1003E0004861202138460CF082FE070007D0471CE8
:1003F0003846FFF799FE04EB06116D1C8861202139
:1004000038460CF074FE30B1401CFFF78DFE04EB53
:1004100006116D1CC861042D77D062A001F0B7FAF7
:1004200008B0BDE8F0816EA001F0B1FA5FF0000500
:1004300004EB0517386910F0FF4F2BD0691C73A02F
:10044000761C0DF0B9FA03A93869FFF7F5FE0146ED
:1004500070A00DF0B1FA03A97869FFF7EDFE01462F
:100460006CA00DF0A9FA03A9B869FFF7E5FE0146F3
:1004700068A00DF0A1FA03A9F869FFF7DDFE0146B7
:1004800065A00DF099FA6D1C0C2D02E034E03DE002
:10049000E5E0CDDBCDF80880CDF804800025CDF86F
:1004A000008011E004EB0517009879690CF078FEE4
:1004B0000090B96901980CF073FE0190F9690298F7
:1004C0000CF06EFE6D1C0290B542EBDB54A001F007
:1004D0005EFA574E00246D4655F8240020F0004087
:1004E000B04201DD53A000E053A001F050FA641CBB
:1004F000032CF1DB44A091E70020414604EB0012FD
:10050000401C11610C28F9DB8AE7A3E02021384662
:100510000CF0EDFD002883D0401C06460CF0F1FDE8
:10052000464DC7B2002400BF55F8241031B13A46F9
:1005300030460CF00FFE10B1641CF5E780E081E05E
:10054000000080BF0000204120BCBE4C2E000000F7
:100550006F12033A00007A44E008002061757820A9
:1005600025752025750D0A00496E76616C69642039
:100570004665617475726520696E6465783A206DB0
:10058000757374206265203C2025750D0A000000FB
:100590001C04002072657365740000006C6F616458
:1005A0000000000057726F6E67206E756D62657295
:1005B000206F6620617267756D656E74732C206E96
:1005C00065656473206964782074687220726F6C4A
:1005D0006C207069746368207961770D0A000000EF
:1005E000437573746F6D206D697865723A200D0ADA
:1005F0004D6F746F720954687209526F6C6C0950B8
:1006000069746368095961770D0A00002325643A0B
:10061000090000002573090025730D0A0000000081
:1006200053616E69747920636865636B3A090000F1
:100630000AD7233C4E4709004F4B090044EA000803
:10064000F7A0EBE6204602F0C5FD55F82410FAA00D
:100650000DF0B2F9AFF2B800FFF786FEE0E60C212C
:10066000FAA00DF0A9F9DBE62DE9F04188B080464B
:1006700000240CF046FDFF4D10F0FF0F1BD00522AB
:10068000AFF2F00140460CF065FDFB4E00284BD068
:100690000422AFF2F80140460CF05CFD002855D072
:1006A0000922F6A140460CF055FD6F46002871D096
:1006B000F5A14046F5E0F5480DF07EF9F4480DF05F
:1006C0007BF90026C6EBC600441994F8D20048B363
:1006D000711CAFF2C8000DF06FF914F8D01FEDA037
:1006E000491C0DF069F96178EAA0491C0DF064F924
:1006F00094F90210E7A00DF05FF9E178E5A00DF0A4
:100700005BF994F90410E3A00DF056F994F9051083
:10071000E0A00DF051F9A179DFA00DF04DF9761CA4
:10072000102ECFDBC8A009E1D2487021D0300CF0E8
:10073000A9FC00204FEA000100EB800206EB420218
:10074000401CA2F886100828F6DB69E62021404606
:100750000CF0CDFC0028F8D0401C06460CF0D1FC73
:10076000CF4DC7B2002400BF55F8241031B13A462E
:1007700030460CF0EFFC18B1641CF5E7A8A0DDE0F2
:10078000204602F0FBFC55F82410ABA00DF014F944
:10079000D1E0FFE7202140460CF0A9FC80460CF098
:1007A000B0FC10F0FF0F4FF0010502D0B6A140469B
:1007B00039E0BC480DF000F9BBA00DF0FDF80024B5
:1007C000611CBAA00DF0F8F8641C0C2CF8DB9EA09C
:1007D0000DF0F2F80024B046611CB6A00DF0ECF864
:1007E00004EB8401002608EB410700BFB7F8860040
:1007F00005FA06F1084201D0AFA100E0A1A1AFA027
:100800000DF0DAF8761C0C2EF0DB8FA00DF0D4F88A
:10081000641C082CE0DB03E60CF0B5FC47F8240070
:1008200099A10020641C0CF073FC10B1032CF3DBC5
:1008300001E0032C01D0A3A080E00098401E07280F
:100840000AD80199012907DB0C2905DC0299491C0A
:1008500009D00299012906D0A9A00DF0ADF887A012
:10086000FFF702FFDCE500900198401E019002981E
:10087000019A401C009805FA02F500EB800006EB97
:10088000400030F8861F02D0A9430180E7E72943E2
:10089000FBE700BF0CF077FC47F824007AA10020AA
:1008A000641C0CF035FC10B1082CF3DB01E0082CC3
:1008B00001D09C4842E00098401E10283DD201998A
:1008C00000293ADD082938DC0299012935DB0C2999
:1008D00033DC039911F1640F2FDB64292DDC0499BB
:1008E00000292ADBFF2928DC0599002925DB64295A
:1008F00023DC0699002920DB64291EDCDDE90512D2
:1009000091421ADA0799002917DB032915DCC0EB9D
:10091000C00001992844491E00F8D01F0299491EC1
:100920004170039981700499C1700599017106990C
:1009300041710799817159A092E771A00DF03CF8BF
:100940006EE510B578A001F022F8012001F03BFB24
:100950007CA001F01CF80A2009F0F4FCBDE810406E
:10096000002009F037BD7CB504460D460079002112
:10097000062814D2DFE800F003060A0D111EA06855
:1009800001780CE0A06890F9001008E0A0680188E8
:1009900005E0A068B0F9001001E0A068016845A07A
:1009A0000DF00AF8002D04D0D4E9031269A00DF06F
:1009B00003F87CBDA06869460068FFF73DFC01466E
:1009C00066A00CF0F9FF002DF3D0E0680CF02EFDCE
:1009D0006946FFF731FC014661A00CF0EDFF20698C
:1009E0000CF024FD6946FFF727FC01465CA00CF0E3
:1009F000E3FF7CBD5BA000F0CABF2DE9FF470020EC
:100A0000FFF7F8FF63A00CF0D7FF24A0FFF77FFCEF
:100A1000184D2349687901EB800050F8041CD1E09F
:100A2000496E76616C6964206D69786572207479AD
:100A300070652E2E2E0D0A004C6F616465642025B2
:100A400073206D69782E2E2E0D0A00004D6F746F85
:100A500072206E756D626572206D757374206265AB
:100A6000206265747765656E203120616E64202593
:100A7000640D0A001C040020E0080020646972650F
:100A80006374696F6E0000002000000054050108C7
:100A9000F40401082564090025640D0A0000000023
:100AA00044EA0008A40401087300000009692564F1
:100AB000000000002564000072000000092573207A
:100AC0002000000057726F6E67206E756D62657250
:100AD000206F6620617267756D656E74732C206E71
:100AE0006565647320736572766F20696E707574C6
:100AF00020646972656374696F6E0D0A00000000FE
:100B00004552523A2057726F6E672072616E676568
:100B100020666F7220617267756D656E74730D0A61
:100B200000000000BC050108526573657474696EAD
:100B30006720746F2064656661756C74732E2E2E49
:100B40000D0A00005265626F6F74696E672E2E2E5B
:100B500000000000202564202564000025730000AB
:100B6000202573004166726F333220434C49207652
:100B7000657273696F6E20322E33204665622031B4
:100B8000322032303135202F2032313A30303A3372
:100B90003600000043757272656E7420436F6E6696
:100BA00069673A20436F7079206576657279746859
:100BB000696E672062656C6F7720686572652E2E9E
:100BC0002E0D0A00FBA00CF0F7FE286910F0FF4F75
:100BD00053D0DFF8ECA3002405EB0410066916F0EF
:100BE000FF4F46D0D0E90598C769611CF5A00CF00D
:100BF000E3FE564503D3AFF270100CF0DDFE6946FC
:100C00003046FFF719FB0146AFF2B0000CF0D4FEFE
:100C10005646B14503D3AFF290100CF0CDFE6946B5
:100C20004846FFF709FB0146AFF2D0000CF0C4FEC6
:100C3000B04503D3AFF2B0100CF0BEFE694640469B
:100C4000FFF7FAFA0146AFF2EC000CF0B5FEB7423E
:100C500003D3AFF2CC100CF0AFFE69463846FFF775
:100C6000EBFA0146AFF250600CF0A6FE641C0C2CAF
:100C7000B2D3611CD5A00CF09FFE95F8D200A84617
:100C8000002835D000254646C5EBC500841994F8E8
:100C9000D20048B3691CD2A00CF08EFE14F8D01F0D
:100CA000D2A0491C0CF088FE6178D0A0491C0CF041
:100CB00083FE94F90210CDA00CF07EFEE178CBA06B
:100CC0000CF07AFE94F90410C8A00CF075FE94F9AB
:100CD0000510C6A00CF070FEA179AFF244200CF014
:100CE0006BFE6D1C102DCFD3691CC1A00CF064FEEF
:100CF0000025DFF81093012605EB8501002409EBA0
:100D0000410700BFB7F8860006FA04F1084204D094
:100D1000621C691CBCA00CF04FFE641C0C2CF1D3AF
:100D20006D1C082DE8D301F07FF9BE4D0746002465
:100D300055F8241021B1BCA00CF03EFE641CF7E76E
:100D40005FF0000455F8241041B106FA04F038426F
:100D500002D0B9A00CF030FE641CF3E7BA4B0020BF
:100D60006946424615181C5C95F88251401C0828BB
:100D70004C55F7D300220A54B4A00CF01DFEB64D1A
:100D8000002400BF04EB840005EB800655F820101A
:100D9000B2A00CF011FE00213046FFF7E4FD87A061
:100DA00000F0F5FD641C8C2CECD3BDE8FF8710B57A
:100DB000ADA000F0ECFD0121002000F0F2FEADA09E
:100DC00000F0E5FD0A2009F0BDFABDE81040002062
:100DD00009F000BB10B50446AAA000F0D8FDAF484A
:100DE000AF4A002101705160117002F0F5F8204601
:100DF000BDE81040DBE72DE9F04706460CF081F92D
:100E0000054601F011F9DFF81C8207464FF0010991
:100E100055B12A46A3A130460CF09CF9C0B13078F8
:100E200000272D2823D025E0A0A000F0B0FD00244D
:100E30004D46464656F8241041B105FA04F03842B2
:100E400002D09FA00CF0B8FD641CF3E75BA01EE08D
:100E50009CA000F09CFD00244FEA080555F82410E2
:100E60000029F3D096A00CF0A7FD641CF6E701273B
:100E70006D1E761C5FF0000458F8241031B12A462C
:100E800030460CF067F930B1641CF5E793A0BDE87B
:100E9000F04700F07CBD09FA04F01FB101F0BFF883
:100EA00095A002E000F0E0FE96A000F070FD58F87A
:100EB0002410BDE8F04762A00CF07EBD10B506F02E
:100EC00064FC401C04D092A0BDE8104000F05FBD5F
:100ED00097A0F9E770B500249FA000F058FD514D90
:100EE00015F1940504EB440005EB80014A6855F8C0
:100EF00020109FA00CF060FD641C112CF2D370BD7B
:100F00003EB505460CF0FDF808281DD10024285DEB
:100F10000CF076F82855641C082CF8D300244A48B5
:100F2000295D0CF0E4F828B12819295D401C0CF06B
:100F3000DEF818B190A000F02AFD3EBD641C082C1C
:100F4000EDD3284600F06FFD93A000F020FD3E4B4E
:100F5000974A0020694615181C5C95F88251401C80
:100F600008284C55F7D300220A5435A00CF024FD74
:100F70003EBD2DE9F04180460CF0C3F8294D8C4E62
:100F80000700A5F1640514D0024646A140460CF0C6
:100F9000E1F858B15FF0000455F8241039B13A4631
:100FA00040460CF0D7F818B1641CF5E70CE11BE1E2
:100FB00020E1FFE06D697865722025730D0A00005D
:100FC00000008080636D697820256400636D697816
:100FD00020256420302030203020300D0A00000011
:100FE000736D6978202564200000000025642000CE
:100FF000736D697820256420302030203020300D3A
:101000000A000000E0080020736D697820646972AE
:10101000656374696F6E202564202564202D310D71
:101020000A000000A8EA0008666561747572652010
:101030002D25730D0A0000006665617475726520C8
:1010400025730D0A00000000F8F600086D6170209D
:1010500025730D0A0000000008EC00087365742079
:101060002573203D20000000536176696E672E2EA7
:101070002E0000000D0A5265626F6F74696E672E54
:101080002E2E00000D0A4C656176696E6720434C78
:1010900049206D6F64652E2E2E0D0A00EC03002092
:1010A000000000206C69737400000000456E6162EE
:1010B0006C65642066656174757265733A20000022
:1010C00025732000417661696C61626C65206665FC
:1010D0006174757265733A2000000000496E766194
:1010E0006C69642066656174757265206E616D65FA
:1010F0002E2E2E0D0A00000044697361626C656437
:1011000020000000456E61626C65642000000000F4
:10111000456E61626C696E67204750532070617341
:10112000737468726F7567682E2E2E0D0A000000AA
:101130004572726F723A20456E61626C6520616E15
:101140006420706C756720696E2047505320666973
:101150007273740D0A000000417661696C61626C03
:101160006520636F6D6D616E64733A0D0A00000057
:1011700025730925730D0A004D757374206265206F
:10118000616E79206F72646572206F6620414554EC
:1011900052313233340D0A0043757272656E742019
:1011A00061737369676E6D656E743A2000000000AC
:1011B0001C040020707905EB800050F8041CBDE889
:1011C000F041FBA00CF0F8BBFEA000F0E0FB002417
:1011D00055F8241029B1AFF218100CF0EDFB641C87
:1011E000F6E7AFF2282001E0AFF2CC70BDE8F041A5
:1011F00000F0CDBB601C707155F82410F6A00CF007
:10120000DBFB7079082801D00E2810D1F748322175
:10121000002280F8251080F820201E22142302715D
:1012200083732D2404768176C2714374C476BDE83D
:10123000F0812DE9F041002507462C462E460BF0A3
:1012400060FF18B1AFF2E411384610E0E8A02BE0DF
:1012500016B1012E07D103E00BF095FF054602E021
:101260000BF091FF0446AFF204210020761C0BF036
:101270004FFF0028ECD10C2D05D3BDE8F0410C2127
:10128000EAA00CF099BBF34F022E07DA37F91520CC
:101290002946BDE8F041F0A00CF08EBBA4F57A70B1
:1012A000B0F57A7F04D9F2A0BDE8F0410CF084BB20
:1012B00022462946F7A00CF07FFB27F81540B6E739
:1012C00070B505460BF01DFFF94C10F0FF0F0CD068
:1012D00028460BF058FF02280ED884F8C0040021DD
:1012E000084600F05EFCF1A0EBE794F8C014BDE8FE
:1012F0007040F0A00CF060BB70BD2DE9F047824655
:101300000BF0FFFEF14D06002AD0012E03D19AF812
:1013100000002A2824D0EEA150460BF0CAFE002877
:1013200070D0401C04460BF02EFF81462046FEF78D
:10133000FBFE80465FF0000606EB860705EB8704A0
:1013400055F827000BF0DDFE024655F827105046F1
:101350000BF000FFF8B1761C8C2EEDD3DDA04DE034
:10136000E4A000F014FB002404EB840005EB8007EC
:1013700055F82010AFF218300CF01EFB31463846FD
:10138000FFF7F1FAAFF2CC3000F001FB641C8C2CBB
:10139000EAD3BDE8F08706EB860605EB8607F8681A
:1013A0000CF044F841460CF0ADF826D838690CF042
:1013B0003DF841460CF0B0F81FD83979052907D01F
:1013C000484606290ED2DFE801F0050508080B0B98
:1013D0004046F6E7A168087004E0A168088001E0D3
:1013E000A168086055F82610C8A00CF0E5FA204660
:1013F000BDE8F0470021FFF7B6BAC7A0BDE8F04747
:1014000000F0C5BA5FF0000404EB8406514655F8BD
:1014100026000BF04EFE78B155F8261005EB860736
:10142000AFF2C4300CF0C8FA00213846FFF79BFA3F
:10143000AFF278400CF0C0FA641C8C2CE4D3A8E71F
:101440002DE9F04108F0D7FE4FF47A71B0FBF1F1CD
:10145000BB480378BB480288BBA00CF0ADFA00F093
:10146000D3FD0646C848C9490068B0FBF1F2C84937
:1014700096480968DC3850F82110C6A00CF09CFA98
:101480000024CF4F012500BF57F8241051B105FAB1
:1014900004F0304203D0AFF2D8300CF08DFA641C67
:1014A000E4B2F1E7022000F09DFDA0B1C54CC448B4
:1014B0002178203050F82110C3A00CF07DFA20785C
:1014C000022808D1C348007D08B16F2100E06E21D9
:1014D000C1A00CF071FAAFF21C5000F058FA08F0FD
:1014E0006AFB0246BD4840F2C4430188BDE8F041B2
:1014F000BBA00CF061BA2DE9FF5FDFF8189399F8F3
:10150000000040B9012189F80010C3A000F03FFAA3
:10151000CFA000F03CFADFF840B3DFF8B8A25446A1
:10152000DAF800000AF091FB00283FD020680AF0AA
:101530008FFB092807D03F2805D0D9F804104C4666
:10154000002934D0AEE100249D4F25465037DFF806
:101550007C81D9F804600BE0D9F8042022B1BE48A0
:1015600039680BF0F7FD10B904B93C463D460C371D
:101570004745F1D39CB149465F46486822682B68CD
:10158000125C1B5C9A420AD172B92E280CD220221E
:101590003A54401C0021C9F804000BF80010D9F897
:1015A00004004F4608B159E15EE159E1DAE177E123
:1015B00043757272656E74206D697865723A202584
:1015C000730D0A00417661696C61626C65206D691A
:1015D000786572733A2000004D69786572207365F2
:1015E0007420746F2025730D0A000000E0080020AD
:1015F00055736167653A0D0A6D6F746F7220696E7D
:10160000646578205B76616C75655D202D2073685C
:101610006F77205B6F72207365745D206D6F746FE0
:10162000722076616C75650D0A0000004E6F2073A4
:10163000756368206D6F746F722C207573652061FF
:10164000206E756D626572205B302C2025645D0D07
:101650000A000000640A00204D6F746F7220256438
:10166000206973207365742061742025640D0A005D
:10167000496E76616C6964206D6F746F722076615B
:101680006C75652C20313030302E2E323030300DDC
:101690000A00000053657474696E67206D6F746F83
:1016A0007220256420746F2025640D0A000000005C
:1016B0001C04002043757272656E742070726F6630
:1016C000696C653A2025640D0A00000008EC0008EA
:1016D0003D0000004552523A20556E6B6E6F776E9A
:1016E000207661726961626C65206E616D650D0ABC
:1016F0000000000043757272656E74207365747427
:10170000696E67733A200D0A00000000257320738C
:10171000657420746F2000004552523A2056616C67
:1017200075652061737369676E6D656E74206F7582
:1017300074206F662072616E67650D0A00000000FC
:1017400094010020F800002053797374656D2055D2
:101750007074696D653A202564207365636F6E64EB
:10176000732C20566F6C746167653A202564202ABB
:1017700020302E3156202825645320626174746510
:101780007279290D0A000000B403002040420F00C6
:10179000C800002048617264776172653A20257341
:1017A00020402025644D487A2C206465746563745C
:1017B00065642073656E736F72733A2000000000D9
:1017C000ECEA0008C001002041434348573A202575
:1017D00073000000140A00202E256300EC00002096
:1017E0004379636C652054696D653A2025642C202B
:1017F000493243204572726F72733A2025642C205F
:10180000636F6E6669672073697A653A2025640D97
:101810000A000000000000200D0A456E7465726920
:101820006E6720434C49204D6F64652C207479709D
:10183000652027657869742720746F207265747538
:10184000726E2C206F72202768656C70270D0A005D
:101850000D0A232000000000EC030020AC4215D04C
:1018600053A000F094F80AE03A54401C486084E623
:10187000206800F08CF8092000F095F80C34AC4298
:10188000F6D9AFF2340000F082F800265C467868A2
:101890008642BFF444AEA05D00F085F8761CF6E702
:1018A000042812D00C2816D019B10A2817D00D28F8
:1018B00015D07F283FD03029EBD22028FFF42FAE5F
:1018C0007E283FF62CAEA9B344E004B03A48BDE808
:1018D000F05FFFF77FBA39A000F059F827E0AFF6C4
:1018E000241000F054F8606800255E460BF80050A4
:1018F0003548CDE9000B0C2311223449029501A88B
:101900000BF084FB070007D038680BF0FAFB30447B
:10191000B968401C884702E02DA000F038F830215B
:1019200025480BF0AFFB6560207800281AD0AFF295
:10193000E0000AE00CE000293FF4F1AD491E002070
:10194000C9F804100BF801002AA000F020F8E6E521
:101950002028FCD00BF80100491CC9F8041000F045
:1019600022F8DCE5BDE8FF9F30B514460546A042ED
:1019700004D3B5FBF4F0FFF7F7FF0146B5FBF4F035
:1019800004FB10501CA2105C0870481C30BD70B5E0
:101990000446234D03E0641C28680AF047F92178C7
:1019A0000029F8D170BD01461D4800680AF03EB913
:1019B0000D1B5B4B00000000EC0300201B5B324A58
:1019C0001B5B313B31480000F50200083CEB00088E
:1019D0004552523A20556E6B6E6F776E20636F6D75
:1019E0006D616E642C20747279202768656C702795
:1019F000000000000820080030313233343536371B
:101A000038394142434445464748494A4B4C4D4E7C
:101A10004F505152535455565758595A00000000D0
:101A2000140A002070472DE9F04105460446FE4E99
:101A3000FE4F09E0FC480BF05AFB20B1611B801BF4
:101A4000384480F88211641C21780029F2D1BDE865
:101A5000F081F74800210278492A13D14288A2F583
:101A60008063C43B0ED10279BE2A0BD190F8C22408
:101A7000EF2A07D100F2C44210F8013B59409042CE
:101A8000FAD309B1002070470120704710B5FFF765
:101A9000E0FF10B90A2008F060FC40F2C442E449BB
:101AA000E2480BF0D6FAE14890F8C014022902D9B6
:101AB000002180F8C014C9B201EB811100EB810153
:101AC000BDE810404FF48272DA4801F5DA710BF08C
:101AD000C0BA2DE9F05FD74AD74E002092F8201007
:101AE00092F81F4040F6C41500FB00F3193B4B432E
:101AF00003F6C4134343634393FBF5F326F8103016
:101B0000401CC0B20728EFD3C84B914692F8212061
:101B100099F82240B3F84211B3F840710020DFF881
:101B20001CA34FF00A0B4FF47A7EC4F1640802EB59
:101B3000820CCD1B00EB8001C2EB41030121002B85
:101B400003DDC2F16401C9B201E000DA114603FB12
:101B500003F604FB06F601FB01F196FBF1F14144AB
:101B600001FB03F191FBFBF101EB4C0109B205FB19
:101B700001F191FBFEF139442AF8101000F1010047
:101B8000C0B20C28D6D399F8000002F0C0FABDE824
:101B9000F05F04F047BD10B5FFF778FFBDE81040D7
:101BA00097E72DE9F047A14C81464920207040F28B
:101BB000C4456580BE2000262071EF2084F8C20451
:101BC00084F8C36461B194F8C0044FF4827200EBEE
:101BD000801004EB8000974900F5DA700BF039FAB9
:101BE0009248944903E000BF10F8012B5640884208
:101BF000FAD384F8C3640BF0BBF8DFF844A28C4F2F
:101C00000326A84634200BF021F938460BF0DEF805
:101C100050460BF0DBF8002506E06159E8190BF09F
:101C2000F1F82D1D454502D20428F6D001E0042824
:101C300004D0761EE6D10BF0A1F804E00BF09EF87C
:101C4000FFF707FF10B90A2008F087FBFFF7A3FF93
:101C5000B9F1000F06D0BDE8F047012214210F2092
:101C600001F0F0BDBDE8F08770498A6802438A60E0
:101C700070476E490020886070472DE9FC5F71A1B4
:101C8000D1E90001CDE9000140F2C44167480BF001
:101C9000F9F94FF4827167480BF0F4F9634B49206E
:101CA000002518700320587102209D60FFF7DCFFAB
:101CB00083F8C0544FF41670A3F86201FA20A3F819
:101CC00064012A20A3F86001A3F86A51A3F86C51BB
:101CD000A3F86E5183F8535183F8545183F855514A
:101CE000A3F85651A3F85851A3F85A5183F85D51FF
:101CF00083F85E514FF4FA70A3F86801012683F867
:101D00005C61202083F866014FF4C870A3F8780165
:101D10006E2083F87D012B2083F87E01212083F83B
:101D20007F01232083F8800183F8815183F88A5151
:101D300083F88B5183F8AE5183F8AF5183F8B051DB
:101D400040F2DC50A3F88E0140F24C40A3F8900121
:101D500040F26C70A3F8920183F8945183F8956176
:101D600083F8966140F27E40A3F8400140F23A7059
:101D7000A3F842014FF47A70A3F8440140F27E5078
:101D8000A3F8460140F2EA50A3F8480140F2B450EB
:101D9000A3F84A013220A3F84C01C100A3F84E1168
:101DA000A3F85001052183F8761183F89E5183F83A
:101DB0009F514FF4E131C3F8A4114FF41651C3F809
:101DC000A81183F8AC5183F8AD5140F6AC5199811C
:101DD0009D7383F8975140F6FF71164CA3F89A1142
:101DE0002827257067704FF01E0984F80B90172282
:101DF0006275A77084F80C90A2755521E1702D21B1
:101E00006173E5752071A57325760B226271E57308
:101E100065764FF0140A84F806A008222274A17691
:101E20000E22E27112E00000F8F600081C04002007
:101E300000F80108E00800206C0C00207A0C00205B
:101E400000FC01081E1E64646464646484F811A0CC
:101E50005022E2765A2222724FF00A0B84F812B016
:101E60004FF0640884F81C8067727823A372217590
:101E7000A677E277412184F8201084F8235084F873
:101E8000245084F8255040F2DC51E18484F821008C
:101E900084F822506585A5852585042084F82E00C8
:101EA00084F82F7084F83070152084F83100604871
:101EB00060636048A0636048E0636048206484F821
:101EC0004460192084F845005DA0FFF7ACFD84F85C
:101ED000765084F8775084F8787084F8796084F8C4
:101EE0007C504FF44870A4F87A00C82584F8CEB02E
:101EF00084F8CF504FF49660A4F8D00040F2D93067
:101F0000A4F8D200514800216C4640F2DC534FF453
:101F10007F764FF4FA6700BF01EB810200EB4202CB
:101F200022F87E6F5780938014F801C0491C82F814
:101F300006C00829F0DB012100F8D41F444C417091
:101F40008170858080F806A080F807900172A0F863
:101F50000A804FF4967181812821C1814FF07C5114
:101F600001614161A0F81AA00F218183C18301841E
:101F700040F26C714184838440F21451C184082181
:101F800001854FF07E51C162522084F8C1040020C7
:101F90004FEA000104EB0012401C11610C28F9DB30
:101FA00000254FF4827600BF05EB851004EB80001E
:101FB0003246264900F5DA700BF04BF86D1C032D04
:101FC000F2DBBDE8FC9F10B50446FFF742FD641E3E
:101FD000204206D1FFF751FE0021BDE8104008461F
:101FE000DFE510BD1B490968014201D0012070479F
:101FF0000020704717490A6802430A607047154974
:102000000A6882430A6070471248006870471049A6
:102010008968014201D001207047002070470C49B7
:102020008A6882438A607047094880687047000068
:102030009A99193FF6287C3F3D0A773F0000A0405F
:10204000414554523132333400000000E008002092
:102050001C0400200800002070B5F84D95F84500DC
:1020600040350BF0ECF9F6490BF0F2F80CF046F8BD
:10207000F44E044630880BF0E2F921460BF0E8F804
:102080000CF0FAF8F04C608030880BF0D8F901467B
:10209000EE480BF00FF9EE490BF00CF9E066688F93
:1020A0000BF0CDF90146EB480BF004F9EA490BF0CF
:1020B000CFF82067E94928680BF0CAF801464FF0CD
:1020C0007C500BF0F7F860670820FFF78BFF0028C3
:1020D00003D0BDE8704003F0FFB870BD002801DDFB
:1020E000024600E042428A4201DA0020704700289E
:1020F00002DDA0EB01007047FDDA084470472DE9CE
:10210000F04F91B0D0E90045814686680F460868D7
:102110000BF0F4FF049038680CF0BAFB0590786877
:102120000BF0ECFF834678680CF0B2FB8046B86891
:102130000BF0E4FF8246B8680CF0AAFB0746504655
:1021400004990BF085F80990384604990BF080F853
:102150000890514605980BF07BF807903946059892
:102160000BF076F80690594650460BF071F8109037
:102170008BF0004039460BF06BF807464146079854
:102180000BF066F808990BF00BF80390414606989F
:102190000BF05EF809990BF058F8824605985946FD
:1021A00080F000400BF054F80590414609980BF080
:1021B0004FF806990BF049F80290414608980BF049
:1021C00047F807990AF0ECFF0690584604990BF07F
:1021D0003FF88346304602990BF03AF800902846C3
:1021E00003990BF035F80190204610990BF030F868
:1021F00001990AF0D5FF00990AF0D2FFC9F8000052
:10220000304606990BF024F80090514628460BF012
:102210001FF88246394620460BF01AF851460AF05C
:10222000BFFF00990AF0BCFFC9F8040059463046C8
:102230000BF00EF80646284605990BF009F80546FE
:10224000414620460BF004F829460AF0A9FF314622
:102250000AF0A6FFC9F8080011B0BDE8F08F2DE91B
:10226000F04387B080460BF0EAF87D490AF0F0FFB2
:10227000054675489830016881F000410391406837
:1022800080F0004004907748B0F900000BF0CEF8E1
:1022900075490AF0DDFF6C4C05908A34B4F90000F2
:1022A0000BF0C4F80090B4F902000BF0BFF80190F5
:1022B000B4F904000BF0BAF8029003A96846FFF7DE
:1022C0001EFF5E4E8A3C96F84400012804D05D480B
:1022D00000880BF0B4F817E0644840780028E06B01
:1022E0000CD1C11700EB9161A0EBA1100BF09EF88F
:1022F00002990AF055FF0BF0B8F8E063C11700EB44
:10230000916080110BF092F802990AF09EFF029002
:10231000216C89460AF096FF07462946606F0AF04D
:102320003FFF014628460AF0C5FF39460AF090FFF4
:1023300049460AF035FF206400980BF09DFF96F89F
:1023400030102F36FFF7CAFE494D2968084428602F
:1023500001980BF091FF7178FFF7C0FE696808449F
:102360006860206C0BF088FF3178FFF7B7FEA96832
:102370000844A860A16801EB0800A060E068401C68
:10238000E06007B0BDE8F0832DE9F05F2E4D044614
:10239000983528680BF0B2FE834628680CF078FA6E
:1023A000824668680BF0AAFE814668680CF070FAF5
:1023B0000546D4F80880294640460AF049FF5946A8
:1023C0000AF046FF67680646514638460AF040FF65
:1023D00029460AF03DFF0546494620680AF038FFC5
:1023E00029460AF0DDFE31460AF0DAFE044651467F
:1023F00040460AF02DFF0546594638460AF028FFA8
:1024000029460AF01FFF21460BF04AFD19490AF040
:102410001FFF12490AF04EFF0B49496B0AF0C0FE3C
:1024200015490AF047FF0BF027FF00B2002802DA37
:1024300000F5B47000B2BDE8F09F0000E008002095
:1024400035FA8E3CC80100200C0000200AE81C412F
:1024500000401C46000061444C3D0F44DB0F4940E6
:10246000BD378635F801002035FA8EBC340C0020CB
:10247000FC0900200000E144000020412DE9F0416A
:10248000044680680D4601460AF0E2FE0746606891
:1024900001460AF0DDFE0646206801460AF0D8FE35
:1024A00031460AF07DFE39460AF07AFE0CF0B4FAA5
:1024B000064610F0FF4F0ED0314620680AF0FAFEB3
:1024C0002860314660680AF0F5FE68603146A06811
:1024D0000AF0F0FEA860BDE8F0812DE9F04F87B06A
:1024E000002607F06EFEDFF808B405465C46DBF810
:1024F0004400281A03900AF0A2FFFE49C9680AF0B6
:10250000A7FE0590DFF8F0A3656400249AF82E700A
:102510000BF18A054FF07E58F5487E3030F91400F3
:102520000AF084FF05990AF093FE4DF8240027B3C2
:1025300038460AF084FF014640460AF0BBFE814659
:102540000490EB48843030F914000AF06FFF4946DC
:102550000AF07EFE8146414604980AF076FEE7497D
:1025600051F824100AF074FE49460AF019FEE349B6
:1025700041F824000AF079FF03E0DD48843030F8A8
:10258000140025F8140035F91400641C00FB0066E3
:10259000032CC1DB64204643D94869460088404388
:1025A00096FBF0F4D5481830FFF7A9FDD34EA0B242
:1025B000183649383C2826D2D2480024A946B0F81B
:1025C00062010AF03CFF4546414604900AF0E8FDEE
:1025D000014628460AF06EFE4FEA000539F914005C
:1025E0000AF024FF074656F8241004980AF030FE3B
:1025F00039460AF0D5FD29460AF02AFE46F824009D
:10260000641C032CEADB5D46BBF902000AF00EFFF6
:102610003446B1680AF076FF01D2012000E00020C4
:10262000B949A1464873D4E901010BF039FCB04E19
:1026300098363060A06801460AF00AFE07466068D6
:1026400001460AF005FE39460AF0AAFD0CF0E4F94D
:102650000146206880F000400BF022FCAB4F706018
:10266000394630680AF0F4FD0BF006FEA6F160046E
:102670003946208070680AF0EBFD0BF0FDFD6080AC
:102680000820FFF7AFFCDFF888B2002869465CD06D
:102690009A480C38FFF733FD9A48984F0024464675
:1026A0000C3FB0F864010AF0CAFE314604900AF00B
:1026B00077FD014630460AF0FDFD06468C48903015
:1026C00030F914000AF0B2FE804657F8241004983E
:1026D0000AF0BEFD41460AF063FD31460AF0B8FD3E
:1026E00047F82400641C032CE8DB8448B0F10C009C
:1026F000FFF74AFEABF800000398FFF7B0FD9AF829
:102700007C00564600284AD0D9F808004C460146BD
:102710000AF09EFD8046606801460AF099FD074672
:10272000206801460AF094FD39460AF039FD414619
:102730000AF036FD0CF070F90146A0680AF0BAFD07
:10274000744988420DDC002028E06948A030FFF77A
:10275000D6FC6749A0310846FFF790FE6448A030D8
:10276000C6E70BF00FFB296F0AF072FD0BF084FD3A
:102770004FF46171884200DD08460AF057FE664951
:102780000AF098FD0CF084F8044696F87C000AF0F4
:1027900056FE21460AF05CFD0BF06EFDA88007B0E6
:1027A0005BE510B502F08FFD0220FFF71BFC20B1A6
:1027B00002F0B7FCFFF791FE05E04D49002084319F
:1027C0000880488088804F48494942797E31881F77
:1027D000012A06D08A8882800A880280498841803E
:1027E00010BD434BB1F90420B3F9064002EB44029B
:1027F000032492FBF4F28280DA80EDE73F49002067
:102800000C310860486088603949C860886070474A
:102810002DE9FE4F07F0D5FC024635483830B0F9B7
:102820000010002901DD0B4600E04B42B0F9020028
:10283000002801DD044600E04442A34205DD0029F2
:1028400001DD084604E0484202E0002800DC404286
:10285000274C05B246F2A811A06CA2EB00098945ED
:1028600002D20020BDE8FE8F2C4EA264DFF8B0A09B
:102870003088DFF8B0B0204F4FF07E5840B3206E64
:102880002269C11700EB5171A0EBE10097F83110FC
:10289000491EB2FBF1F10844C117206600EB5170EC
:1028A000C0100AF0C3FD51460AF004FD59460BF072
:1028B000FDFC41460AF0C9FC1B490AF0C9FC0AF0BC
:1028C000D4FDE0650020206560653088401E3080C2
:1028D000094F216997F83100401EB1FBF0F00AF072
:1028E000AEFD51460AF0E6FC59460BF0DFFC1DE058
:1028F0000C000020740E0020E0080020F0090020E9
:10290000C80100201C040020340C00204C3D0F4462
:10291000F80100208FC2753CEFB6B044F6010020EC
:1029200080E6C547B1DC423ED048874A4FF07E582A
:1029300041460AF08AFCAD490AF08AFC0BF09CFC87
:10294000E16D7F6B461A394640460AF07BFC8046B3
:1029500030460AF06BFD41460AF07AFC0646606993
:102960000AF064FD39460AF073FC31460AF018FC9F
:102970000BF082FC06464FF0FF3B6061FA2D01DD53
:10298000584613E028460AF051FDDFF864824146BC
:102990000AF05BFC0746206A0AF048FD39460AF057
:1029A00057FC41460AF086FC0AF05FFDA0F10108E1
:1029B00007462062B8F1C70F03D2F01B6761E061E0
:1029C00026E0E069361A6661002F21DDC7F59670B2
:1029D0000AF02CFD87490AF06DFC8246A061514641
:1029E0004FF07E500AF02EFC009030460AF01EFD9B
:1029F00000990AF02DFC064638460AF017FD5146AC
:102A00000AF026FC31460AF0CBFB0AF02EFD60618D
:102A1000A0680AF014FD074677490AF019FC06463B
:102A2000E0680AF003FD8246744880680AF0FEFC04
:102A300051460AF03FFC8246E16E0AF009FC394635
:102A40000AF006FC0090206D314601900AF000FC6F
:102A50000746594600980AF06BFC31460AF0F8FB2D
:102A600039460AF09DFB616D0AF09AFB8346644883
:102A7000C76B4FF07E5039460AF0E4FB06466069AA
:102A800002900AF0D3FC31460AF0E2FB06463946D2
:102A900058460AF0DDFB31460AF082FB6065B8F16A
:102AA000C70F01D2029801E00AF0DFFC6066DDE9A1
:102AB00000100AF075FB2065FFF7A0FE48460AF0FB
:102AC000BEFC07466669A06D301A0AF0AFFC4D499E
:102AD0000AF0BEFB39460AF0EDFB0AF0C6FC40F2F4
:102AE000DC525142A66505F0BDF80A21FFF7F6FA5F
:102AF000434E81464FF07E50D6F8388041460AF06A
:102B0000A1FB074648460AF091FC39460AF0A0FBB3
:102B100007464146206D0AF09BFB39460AF040FB10
:102B200020650BF0A9FB07460521FFF7D7FA2063C4
:102B3000B5F5487F57DA20784FF49678C8F1000948
:102B4000C8B3A06A4246C51BB07A6843C11700EB00
:102B5000D1604011494605F085F86062307DE16A38
:102B6000294A00FB05105142E06205F07BF842F271
:102B70000401E06290FBF1F0616A08446062504633
:102B8000E16C0AF00DFB0546B07F0AF058FC2946BF
:102B90000AF05EFB6FF008010AF0CAFB0AF065FC60
:102BA0009622514205F05EF8616A081AC4F84CA0FA
:102BB0006062012056E6FFE7D4E91910401A4FF48D
:102BC000FA72514205F04EF80A21FFF787FA0146E2
:102BD000307942464843C11700EB5160C011494665
:102BE00005F040F8AEE70020E0E70000D048874A53
:102BF000000061440000C842BD378635FC09002052
:102C0000E0080020002474492003190070B5D24D5B
:102C10000446286809F022F80028FAD0E1B22868B2
:102C200009F004F8204670BD88B0FEF7FBFE0020D6
:102C3000FFF7C9F9FEF72AFFC84CA07B00B10120BD
:102C400009F0A3F9C648C749C74D00680126884264
:102C500001D12E6004E0C549884201D102202860DC
:102C600007F0E1FA0820FFF7D2F930B194F88A01B1
:102C700008B1012801D104F0C2FE642007F062FB14
:102C8000FEF727FF08F0D9FB022802D128680228A6
:102C90001ED02868032802D0012006F083FD94F896
:102CA0008101002528B1012815D0092813D0052855
:102CB00011D08DF8185084F8815100BF94F8980114
:102CC00098B101280AD0092808D0052806D00CE0C0
:102CD00003202860E3E78DF81800EFE794F88111EE
:102CE000884202D08DF8190003E08DF8195084F85D
:102CF000985106A806F032F90220FFF788F908B1CA
:102D000002F0E6F804F0B6FF0E20FFF773F901F0C9
:102D10007BFF10B9032007F020FB95494FF0100A04
:102D2000C1F800A0A1F104084FF00809C8F800900C
:102D30000027A8F1040B00BFDBF8001081F01001A0
:102D4000CBF80010DBF8001081F00801CBF8001080
:102D5000192007F0F7FA012007F050FA192007F0C0
:102D6000F1FA002007F04AFA7F1CFFB20A2FE3D3E2
:102D70004F46C8F80090C8F800A0FFF76DF900F0C2
:102D800042F9D4F8A40102F050FC60790E280BD06F
:102D9000082809D0182807D08DF806504FF4807005
:102DA000FFF735F938B902E08DF80660F6E708203C
:102DB000FFF72DF900B101208DF802004020FFF748
:102DC00026F98DF803000120FFF721F98DF80100A5
:102DD0000820FFF71CF9DFF8808180F001008DF8F2
:102DE0000000DFF8909198F816008DF8040099F82B
:102DF000D6004FF47A7AC0F380008DF80500B4F85D
:102E00004E01ADF80A00B4F85001ADF80C0094F88A
:102E100052018DF80700ADF80EA04FF48040FFF787
:102E2000F6F818B1B4F84A01ADF80E00BDF80A0082
:102E3000B0F5FA7F01D9ADF80E50B4F88E01ADF8B7
:102E40001000B9F8D200ADF8120094F88101012801
:102E500026D0092827D08DF80850684607F09EF83C
:102E60009DF8140088F81700434B002040F2DE5212
:102E700023F81020401CC0B21228F9D3404A3F4822
:102E8000106088F815700820FFF7C1F810B394F8A7
:102E90008A0106281ED2DFE800F00A0A0E12161A6E
:102EA0008DF80860D9E707208DF80800D5E7344889
:102EB00004F07DFD0EE0324805F04FF80AE030489E
:102EC00005F002F906E02E4805F005FD02E02C4869
:102ED00005F0DEFF94F89F0103F007FC0120FFF7E7
:102EE00096F830B14FF48060FFF791F808B102F026
:102EF00080FA4020FFF78BF848B194F8AC11D4F871
:102F0000A80108F0B1FD94F8AD0108F0C0FD4FF440
:102F10000060FFF77CF808B105F06AFB07F051F993
:102F2000184908606079052803D117494FF4C87023
:102F300008801649C820A1F800A015490880154846
:102F400080F80D6001F0EBF8FCE70448B0F94401AB
:102F500000F0EDF9FEE70000140A00201C04002038
:102F6000B803002000127A00C8000020001BB70040
:102F7000140C0140E0080020480C0020B13C00087F
:102F80001801002014010020C4010020C601002007
:102F9000F6010020340C0020014600EB8102FE48BF
:102FA00000EB4200B0F98200122804DA082902DAA4
:102FB000FA4931F910007047F74A00EB800002EB44
:102FC00040000122B0F886008A40104202D04FF043
:102FD000FF307047012070472DE9F041F04DF14E70
:102FE00000244FF480473846FFF711F810B1B5F8C8
:102FF0004A0101E0B5F8440126F81400641C0C2CC9
:10300000F1DBBDE8F0812DE9F05FE54CE64D60793C
:1030100005EBC000407808B1012100E00021DFF895
:103020008CB320208BF81610FEF7F1FF10B10120B1
:103030008BF81600A1466179DFF868A3DC4C0AF131
:10304000180A172908D015F8312005EBC1002270A5
:10305000436833B3002022E00020D0464FEA090243
:1030600002EB00131D6915F0FF4F1AD0143308EB63
:10307000001693E8881020C6401C86E88810237844
:103080005B1C23700C28EBDB0BE000BF03EB00168E
:103090000AEB001596E8C01185E8C011401C90426B
:1030A000F4DBDFF800839BF8160008F1D808C0B104
:1030B000BD48C83010F8312000EBC1006270416893
:1030C00079B1002045460AE0C0EBC003CE182B447E
:1030D00037681F60B7889F80B6799E71401C904208
:1030E000F2DB4FF48040FEF792FFD8B12778012F32
:1030F00018D9002614E000BF0AEB06154FF0FF3B7D
:103100005946A8680AF014F9A860594668680AF098
:103110000FF968605946E8680AF00AF9761CE86019
:10312000BE42E9DB99F80500A24A4946082808D0C2
:103130000E2806D0182804D000201074BDE8F05FD7
:103140004AE7012313741828F8D100204FEA080336
:10315000C0EBC0056A1892F8D260002EEED01D4474
:1031600052F8D06F2E609688AE809279AA716278FC
:10317000401C521C62701028EADBDFE770B50022A9
:103180008749144610F10100C2EBC2030B44521CE4
:1031900083F8D64083F8D24083F8D14083F8D040FA
:1031A000102AF1DB804B0022C83303EBC00413F874
:1031B00030000CE0C2EBC2036568521C1D440B4496
:1031C0002E6843F8D06FAE889E80AD799D71904295
:1031D000F0DC70BDF0B50021714A0B4610F1010022
:1031E00002EB0114491C23610C29F9DB6E4B03EB44
:1031F000C0014C68002C0FD0002113F8300009E00A
:1032000004EB011302EB011593E8C8101035491CBB
:1032100085E8C8108842F3DCF0BD644810B5807DB5
:10322000002872D0624C5E48A41C4079E188228953
:103230000E2836D008DC012817D0042826D005280F
:103240000DD0082806D127E014281FD0152828D033
:10325000182834D02020FEF7DAFE002855D0218827
:10326000002006F035FF61880EE051494A48891C6C
:1032700090F8D500498908B1002042E04D484078D7
:103280000028F9D10021F7E701203AE0114600209B
:1032900006F01EFF6189F7E7002006F019FF21897B
:1032A000F2E7002006F014FF2189012006F010FF4C
:1032B0006189022006F00CFFA189032021E0002093
:1032C00006F006FF2189012006F002FF6189022035
:1032D00006F0FEFEA189032006F0FAFE0120FEF7AB
:1032E00096FE002811D02188042006F0F1FE6188A6
:1032F000052006F0EDFEA188062006F0E9FEE18932
:103300000720BDE8104006F0E3BE10BD70B5254EA5
:103310000024183E264D06E036F81410204606F02C
:10332000D0FE641CE4B228788442F5D370BD204AF4
:103330001C4B00211278183B04E000BF23F8110059
:10334000491CC9B29142F9D3E0E72DE9F04F194881
:1033500089B0807A08B1184800E018480188ADF8B3
:1033600000104188ADF802108088ADF804000D48C7
:103370000A4918380088ADF8060009480A89B0F8EB
:103380008E01821AADF808204A89821AADF80A2007
:103390008A89821A14E00000E0080020480C00200E
:1033A0001C040020640A0020D4FB0008140A00203A
:1033B000CC000020340C0020800100206801002097
:1033C000ADF80C20CA89821AADF80E200A88821A3C
:1033D000ADF810204A88821AADF812208A88821A25
:1033E000ADF81420C988401AADF816000023FD4D31
:1033F0001846FFF7D1FD25F813005B1CDBB2082B44
:10340000F6D3DFF8E0930024DFF8DCA34FF0640B81
:10341000A9F1020960E000BFF448C4EBC4010E1832
:10342000B27912B1F24BD25C7AB310F80180F14854
:1034300008EB880100EB410096F90420B0F88010F9
:10344000B0F87E007778081A80B2424392FBFBF214
:10345000A2EB500212B2079296F90520424392FB6A
:10346000FBF1A1EB500000B20690F07840B13AF9C0
:1034700014103DF91730994208DA08441A460AE058
:103480003DF817102AF8141009E020E007DDA1EB41
:1034900000000A46194604F0E5FB2AF814003946F4
:1034A0004046FFF789FD07463AF9141096F90200E5
:1034B000414391FBFBF0DDE9062104F0D3FB01461B
:1034C00035F9180007FB010025F8180002E000217B
:1034D0002AF81410641CE4B299F8010084429BD3CA
:1034E000C44900204FEA0B0200EB800301EB4303C9
:1034F00035F9104093F98430634393FBF2F325F8D8
:103500001030401CC0B20828EED309B0BDE8F08FDF
:103510002DE9F84FB34CDFF8E092A41E2078032881
:1035200015D9B9F904004142002801DD024600E046
:103530000A4602F1640200DC0846B04D6FF06301F8
:10354000A1EB0001B5F9040004F08CFBA880A548AC
:10355000A54C801EDFF89C8207782034012F3AD9D1
:10356000002536E0DFF894A298F9D400BAF90410E7
:103570004042484309F05AFF9B49503101EB051680
:10358000F16809F065FE8346BAF9000009F04EFFC4
:10359000716809F05DFE0090BAF9020009F046FF7B
:1035A000B16809F055FE8246B9F9060009F03EFF00
:1035B000316809F04DFE514609F0F2FD009909F01D
:1035C000EFFD594609F0ECFD09F04FFF24F8150016
:1035D0006D1CBD42C6D38A4F8A4D387C50B1787875
:1035E000D0B1B5F84221B5F84011B9F9060004F0A0
:1035F00039FB2080AA466879DFF80C923226794D93
:103600000E2812D00BDC01280FD004280DD005287D
:103610000ED0082825D108E0B5F84401E9E71428C0
:1036200003D0152801D018281BD1FFF78EFE18E013
:103630004346B9F9020013F9841F414391FBF6FC9C
:103640000020FFF7A9FC6044288093F90A00B9F92B
:103650000010484390FBF6F30120FFF79DFC18444F
:1036600068802020FEF7D3FCF0B30020FFF794FC25
:1036700028800120FFF790FC5D4968801439097AA1
:1036800091B398F8D620920798F984201AD552421F
:10369000B9F902C098F98E10B9F9003002FB0CF2AA
:1036A000594392FBF6FC91FBF6F392FBF6F291FB89
:1036B000F6F1ACEB0303B5F800C01144ACEB030327
:1036C0002B8010E0B9F902C002FB0CF292FBF6F27B
:1036D000B5F800C062442A8098F98E10B9F900202C
:1036E000514391FBF6F100E001E0084468800026B8
:1036F00006EB860108EB4100B0F98020B0F97E109E
:1037000035F9160004F0AEFA25F81600761C082EDE
:10371000EED398F8D600DFF8F49040070ED53C4879
:103720000025C846C67D361F08EB45000189A8194B
:10373000C0B206F0CDFC6D1C042DF5D3294B012041
:103740009B1EB4F900601A7806E000BF34F910102F
:10375000B14200DD0E46401C9042F7D3002598464A
:1037600067E000BFBAF84201B04205DA34F815103C
:10377000301A081A24F815004FF48040FEF747FC71
:10378000A0B1B9F90610BAF88E215046914204DD75
:10379000B0F84221BAF8481103E0B0F84621BAF86F
:1037A000441134F9150004F05DFA35E0BAF842210D
:1037B000BAF8401134F9150004F054FA24F8150051
:1037C000B9F90610BAF8900181422ADA1020FEF702
:1037D0001EFC30B1BAF8440124F8150001207874B9
:1037E0001CE017E0CE0000202C0A00203C0B00203B
:1037F000A60C0020E00800208001002068010020C5
:10380000340C00201C04002044000020480C002040
:10381000140A0020BAF8400124F81500787810B195
:1038200006E00020DBE7064830F8150024F8150014
:103830006D1C98F80000854294D3BDE8F88F000015
:10384000640A00202DE9F047174689460646002500
:10385000DFF820841AE0002411E000BFD8F800103F
:1038600081F00801C8F80010012006F0C7FC4846A6
:1038700006F068FD002006F0C1FC641CE4B2B4420E
:10388000ECD33C2006F05EFD6D1CEDB2BD42E2D3F0
:10389000BDE8F0872DE9F84FF74AF84CB2F9063049
:1038A000E08C834201DA642510E0F449B3F5FA6F45
:1038B00091F8251008DA1D1A4D43C0F5FA6095FB02
:1038C000F0F0C0F1640501E0C1F16405DFF8B0E398
:1038D000A14694F876B094F877A0BEF88E41002106
:1038E000E54840F2E63C30F91160301B00F2F31776
:1038F000674503D8002803DCA01B01E04FF4FA70F1
:10390000022933D0BBF1000F05D0834502DAA0EBCA
:103910000B0000E00020642290FBF2F2D64F6FF023
:103920001808243707EB420C37F91270BCF902C0B3
:1039300002FB08F2ACEB070C00EB82020CFB02FC72
:1039400064229CFBF2F23A44CE4F27F8112099F8FA
:10395000232042434FF4FA7092FBF0F0C0F1640070
:1039600080B26843642290FBF2F01CE0BAF1000FD1
:1039700005D0824502DAA0EB0A0000E000209EF9A3
:103980005C21DFF800C352424243ACF8042099F8AE
:103990002420002800DC404242434FF4FA7092FB9E
:1039A000F0F0C0F1640009EB0107642297F801C050
:1039B000DFF8D0820CFB00FC9CFBF2FCA8F17C0839
:1039C00008F801C097F80BC008F103080CFB00FCD5
:1039D0009CFBF2FC08F801C07F7D474397FBF2F0A7
:1039E00008F10302A642505405DAA64830F8112027
:1039F000524220F81120491C0329FFF671AFF1460D
:103A00007446BEF8901118464FF4FA6204F02AF991
:103A1000B4F890114FF47A72401A5043C1F5FA612C
:103A2000B0FBF1F2642192FBF1F0934B6FF01805BB
:103A3000323303EB400433F91030B4F902406843E9
:103A4000E41A02EB8000444394FBF1F08D4D8A4E62
:103A50001844143EE880707AA5F1A004E0B38A48C7
:103A6000B4F91610B0F90000401A09F0DFFC8749DC
:103A700009F0EEFB864909F01DFC07460AF03EFB03
:103A8000009038460AF004FF8346B5F9000009F0BB
:103A9000CDFC8246594609F0DBFB0746B5F902002A
:103AA00009F0C4FC8046009909F0D2FB394609F0C0
:103AB00077FB09F0DAFC07464046594609F0C8FB97
:103AC00080465046009909F0C3FB414609F0BAFB15
:103AD00009F0CBFC28806F800220FEF798FA0027BF
:103AE000E8B3A189206D084420656079401CC0B20C
:103AF0000621B0FBF1F2607101FB120080BBA06CEB
:103B0000C11700EB5171A0EBE100A064002005F0AB
:103B1000ABFAA16C0844C117A06400EB5170C0F36C
:103B2000CF0001F0AAF9208399F88101C0B1E06CBF
:103B3000C11700EB5171A0EBE100E064022005F039
:103B400093FAE16C0844C117E06400EB5170C0F3D4
:103B5000CF0001F0AAF9E066216D484301E01FE0C3
:103B600012E04FF47A7190FBF1F0464AC117203A07
:103B7000D2E90635C0186941C2E90601454A002369
:103B800009F008FA27652067208B618C884201D8EC
:103B9000012003E0218C884202D8022003F096FF26
:103BA00004F01FF83C48334D008818B10220FEF79E
:103BB00019FA10B93948008820B1286880F0080047
:103BC00028600CE0B178082011B12A49091D08606D
:103BD000717811B127490831086004F0EEFC8020AB
:103BE000FEF715FA48B1616D206B411A05D44CF20D
:103BF00050310844606506F0E5FE616C206B411AA7
:103C000003D4717B39B10120B07002F063FC244809
:103C1000007848B10FE0B770296881F00801296089
:103C2000204908446064F0E74FF40060FEF7EFF9C4
:103C300008B104F0FAFC2020FEF7D4F968B1A16DB8
:103C4000206B411A09D4A17A052906D316490844E4
:103C5000A065286880F01000286014488168002959
:103C600005D001B00748BDE8F04F86380847BDE8E9
:103C7000F88F00000C0C0140480C0020E0080020E8
:103C80001C04002080010020F8010020DB0F4940C7
:103C900000003443407E0500C4010020C60100201E
:103CA0000000002020A10700F0490200740E00204F
:103CB000FE49084490F8820106F014BA2DE9F04755
:103CC0000820FEF7A4F9FA4EFA4D4FF0000440B177
:103CD000B16BE0B2884725F81400641C082CF7DBB0
:103CE000D6E5F44F40F2DD584FF00009903FB16B3C
:103CF000E0B28847A0F2EE21414502D3EB48B0F88C
:103D00008E01F16D07EBC402CB1701EB937323F027
:103D10000303C91A22F8110025F814905FF000007F
:103D200035F8143032F81010401C194425F81410DE
:103D30000428F5DB35F91400C11700EB91708010F1
:103D400025F81400641C082CD1DBF06D401CF065D4
:103D50009EE570B5D848D74C143C01886078D1B93D
:103D6000A178C1B100281ED101206070D348D04D88
:103D70000088E8824FF48070FEF749F930B1E07AAC
:103D800020B1A87A052801D3072000E00620BDE86D
:103D9000704003F09BBE002805D1BDE870400122B1
:103DA000FF2102204EE570BD2DE9FC5F0020834617
:103DB000054607460190BE48A030B0F902104B42BC
:103DC000002901DD0C4600E01C468246B0F90000E7
:103DD0004242002801DD064600E01646B44205DDF9
:103DE000002901DD084604E0184602E0002800DC56
:103DF0001046DFF8CC9200240090AE4E143EF078CE
:103E000008B93079F0B3022C40DAA9487C3030F997
:103E100014103AF9140001EB4000A449B1F86821EC
:103E2000514203F01FFFA749DFF89CB231F914108B
:103E3000411A0BEB4400B0F92A0001EB00089BF893
:103E40000810642001FB08F191FBF0F09BF81C10B6
:103E500001EB8102494201EB810103F003FF019074
:103E6000934842F21072903050F8241001EB080091
:103E7000514203F0F7FE8E49903141F824009BF83F
:103E8000121000E008E048434FEA203BF07818B1F8
:103E9000307908B9022C4FD13AF91450854F05EB0F
:103EA0008500010188489C3F00EB04084FF47A52DA
:103EB00098F8010091FBF0F039F91410401A57F806
:103EC00024100844514203F0CDFE47F8240039F98C
:103ED000140000F52070B0F5A06F06D8022C07D1B1
:103EE000BAF904006430C82802D9002047F8240039
:103EF00057F824007D2190FBF1F198F80B00414325
:103F000030798F11B0B1022C14DA0098009BC0F503
:103F1000FA71019801FB00F2009801FB0BF105FB1F
:103F200000204FF4FA7207FB031190FBF2F091FBB3
:103F3000F2F608E0F07820B1022C02DA5E46019831
:103F400001E028463E465A4A39F9141024325023DB
:103F5000125DDFF860814A4392FBF3F2544B821A00
:103F60008233A8F1500833F9140023F81410081A0A
:103F700008F10C0158F8243051F824C041F82430DD
:103F80009C44844448F8240049482A30005D00FBE2
:103F90000CF0C11700EBD1609119A1EB60104449FE
:103FA000883121F81400641C032CFFF626AFBDE80D
:103FB000FC9F2DE9F05FDFF8F8B03E4E00240BF1D6
:103FC000A00BDFF804A19C3EDFF8E49001E0022C96
:103FD0006BD037483BF914107C304FF4FA7230F94B
:103FE00014000844514203F03DFE3649554631F96C
:103FF0001410401A0AEB4401B1F92A10084409F0E0
:1040000015FA324909F056F909F02FFA294A143AFB
:10401000D178E9B3297A41430911AA4628480AEB25
:10402000040730F91400FA7A0D1A787856F824103B
:1040300068434FEAE018B9F80C006843C01200FB6F
:1040400002104FF4001246F82400514203F00AFE19
:1040500046F8240043131748203850F8241040F83D
:104060002450B9F80C00691A02094FF6FF70B0FB32
:10407000F2F048430F498011383901F10C0251F830
:10408000245052F824C042F82450AC44844400E048
:104090002EE041F82400787D08EB030100FB0CF0D2
:1040A00001EB20200249883112E019E01C040020B5
:1040B000E0000020480C0020C6010020F80100208C
:1040C0008400002044000020E0080020000020417F
:1040D00021F81400641C032CFFF679AFBDE8F09FB3
:1040E0009AF82400BBF904101B304843411195E7AE
:1040F00095F823103BF914301B31594312790911FB
:10410000002A8AD0AA7C424301EB222185E7F949A3
:10411000012801D0F84800E0F848C86370472DE94D
:10412000F84F4FF00008C146C34645460820FDF74A
:104130006EFFDFF8CCA3B8B19AF88A01062813D233
:10414000DFE800F0030306090C0F03F055FC0AE05A
:1041500003F030FF07E003F0C7FF04E004F0B0FB1A
:1041600001E004F0A5FE0546E248E64C4FF00107E9
:10417000016B006E4FF00006081A01D5002D7CD0AF
:10418000DC4D44F6206211442966FFF797FD4FF499
:104190008040FDF73CFF28B1DA485E30007808B96E
:1041A00000F006FD00F034FED24988834FF4007021
:1041B000FDF72DFF20B94FF40040FDF728FFE8B3CD
:1041C000D148CC4D90F8CE0000EB8001B5F90E003F
:1041D00081422ADA607840B3CA490020BAF98E21B8
:1041E00011F1140121F81020401C0328FADBC64805
:1041F000B0F8D000C880032003F068FCC24890F8F3
:10420000CE1090F8CF00084400EB8001B5F90E0005
:10421000814207DAA07C28B900F0CAFC267004208D
:1042200003F054FC298A491C2982B74890F8CE0033
:1042300000EB8001B5F90E00814200E00BE007DAE7
:10424000607828B900F0B4FC2670042003F03EFC2E
:10425000E989491CE981BAF89051BAF892310020F5
:10426000A8494FEA9808143131F91020AA4201DD1B
:1042700048F080089A4203DA00E0D1E248F04008B2
:10428000401C0428ECDB9B4DE879804505D1A879DA
:10429000FA2803D2401CA87100E0AE7185F80780AF
:1042A0004FF480484046FDF7B2FE68B1954ABAF82F
:1042B0008E111432BAF84C01B2F906200B1A93424F
:1042C00002DA084490420BDC4046FDF7A0FEF0B94C
:1042D0008C481430B0F90610BAF89001814216DA11
:1042E00088484FF0010B8838066046608660814838
:1042F0009030066046608448B0F84600C8B18148F6
:104300005E30007858B1207898B1FFF722FD7E48E2
:10431000B0F8460068B17B485E30007848B96078F4
:1043200038B19AF8950110B9BBF1000F01D000F037
:104330003FFCA879142818D16078B8B1DFF8C8819B
:10434000B8F8460020B9E8795F2801D100F030FCC8
:104350009AF89401002808D0B8F84600002804D143
:10436000E8797D2801D100F023FC8CE0E87957281A
:1043700007D00420FDF74BFE58B3E8795A2819D02E
:1043800027E062494FF47A7008804FF48070FDF79F
:104390003EFE08B102F009FD0420FDF723FE10B136
:1043A0005B490A2008800820FDF71CFE88B959489F
:1043B00006800EE0A87810B1AE70EF7023E0687848
:1043C00090F00100687001D00A2000E00B2003F09B
:1043D0007DFBE8795D2804D05B2804D05E2804D0FA
:1043E00011E0012002E0022000E003208046401E90
:1043F0008AF8C00400210846FDF7D3FB4246282175
:104400000220FFF71FFADFF80081B8F8460010B964
:10441000E9796F290CD09AF8941119B110B9E8799B
:104420007E2805D0E879972805D0A72808D008E08D
:10443000FFF78FFC05E038494FF4C870088000E0B2
:10444000A773E879BB2806D0B72808D0BE280CD0BF
:10445000BD280ED017E0B8F82C10891C02E0B8F87F
:104460002C10891EA8F82C1008E0B8F82A10891C16
:1044700002E0B8F82A10891EA8F82A10012108467F
:10448000FDF78FFBAE710420FDF7C1FD18B369780D
:10449000322079B1617869B11A491431B1F9062035
:1044A000BAF890118A4205DD16495E31097809B9DA
:1044B00068826E7013495E31497C31B12979AA78DE
:1044C000114300D168822F7105E0A87818B1607897
:1044D00008B9AE70EF70DFF82CE000200EF1140E7A
:1044E0000EEB4001B1F9082040F214518A4215DA6E
:1044F000012314E0E0000020A93D0008B33F0008BC
:104500001C040020340C0020E0080020C60100201C
:10451000F6010020F8010020C4010020002300EB78
:1045200040018B40A2F2155CBCF5C77F02D84FF06A
:10453000010C01E04FF0000C01F101080CFA08FC3D
:1045400043EA0C0340F2A46C624501DD012200E065
:104550000022891C8A40134343EA0903401C1FFAC6
:1045600083F90428BCDBFF49DFF8FC83002000BF8F
:1045700008EB4002B2F8462012EA090200D00122FC
:104580000A54401C1828F3DB4878894638B998F853
:10459000CE00B5F90E1000EB800088421CDA022034
:1045A000FDF720FDC0B1E07818B9F048066046601C
:1045B000E7704FF40040FDF72AFD78B198F8CE007F
:1045C000B5F90E1000EB8000884207DA2020FDF7D5
:1045D00009FD18B1A77401E0E670A67499F80210FD
:1045E00039B1E670217929B9E0490E604E60277132
:1045F00000E0267199F8000000B92770E1781020DA
:1046000009B9217909B1DA4901E0D949091F0860DE
:104610000420FDF7E7FC00B399F8030078B1A07916
:1046200070B9D448A7710168D3480160CF481030F1
:10463000C088A882D1480660D148066000E0A67113
:104640004FF40050FDF7E3FC38B199F8040018B1BD
:10465000E07B10B9E77300E0E6730220FDF7C2FCCF
:1046600018B90820FDF7BEFCC8B199F805104846F6
:1046700039B1617931B9C34967710A88C2490A8081
:1046800000E06671817919B1617A11B9677200E051
:10469000667299F8070010B1BA480088E8822020B5
:1046A000FDF7A0FCF0B3E07AE8B3A87A052850D370
:1046B00099F80A1009B9A17C89B1E079A0BBA94990
:1046C000E77126721E312E72081F03F08FF8022048
:1046D0002870A448E98B26308160E77435E0E671E4
:1046E00099F80B0050B3A14A1032B2F9000000282B
:1046F00000DC4042B8F8E21088421FDAB2F902004A
:10470000002800DC4042884218DA207A60B9974AD3
:104710009448277218322E72263011680160516851
:10472000416002E018E014E00FE0011D03F05EF8C4
:104730008C482F702630E98B816005E02672287A3C
:1047400018B92F7202F0F0FFE6740C2003F0BEF9E6
:1047500002E0E67126722E7099F80C0008B1A07C78
:1047600048B1A6729AF80500082806D00E2804D091
:10477000182802D02AE0A772F4E766724FF400709E
:10478000FDF745FC10B398F8CE00B5F90E1000EB1C
:104790004000B1EB400F19DDA672E77071490020AF
:1047A000BAF98E21B1F14A0121F81020401C0328EA
:1047B000FADBB8F8D000C880E07A38B9A87A0528C2
:1047C00004D8A674BAF88E01323808801020FDF79C
:1047D0001EFC20B3607810B3207C00BB286CBBF1BA
:1047E000000F1AD068B105F006FD296C884204D983
:1047F0009AF8760108B100F0DBF9092003F066F9B8
:104800004AE005F0F8FC9AF8761101EB4102C2EBA0
:10481000C11100EBC1002864EFE700B12E643BE05A
:10482000524D903DA86E052836D2DFE800F0030B0C
:10483000151F2A000820AF66FDF7D4FB10B100F069
:104840005EFD48BBA86E401CA8660420FDF7CAFBAD
:1048500010B100F088FCF8B9A86E401CA8660420CE
:10486000FDF7C0FB10B1FDF7D3FFA8B9A86E401C3F
:10487000A8664FF48070FDF7CAFB10B102F0B6FED7
:104880000AE01020AE66FDF7ADFB08B100F0BCFDFC
:104890004FF40050FDF7BBFB05F093FC334D903D0A
:1048A0002863BAF80C2012B16B6EC31A6ED4104490
:1048B000D0466866FDF775FF05F083FC2863A98E76
:1048C000411AA9816863FEF7E5FF0820FDF78AFB1E
:1048D00048B326491031B1F9042002F145008A2875
:1048E00022D8607900B32748038827480088181A1F
:1048F00000B210F1B40F02DC00F5B47000B2B428BD
:1049000002DBA0F5B47000B298F95C315B4243431E
:1049100018B2637B3BB1144B5B7A43431E2093FB7D
:10492000F0F0101A888003E01648018816480180CC
:104930000420FDF757FB70B1A07960B1207C30B343
:104940000A480F49103098F99631B0F902200968E9
:1049500001FB03214180DFF8109099F87C00B0B38F
:10496000E07815E0920C0020E008002070010020A3
:10497000140C01407000002074000020380000205A
:1049800030000020F8010020FA0100200EE101E0D3
:10499000D8BB4DE08F49DFF84092B5F9143091F85B
:1049A0007900B9F90620E8B1A2EB030CBCF1000FC5
:1049B00001DCA3EB020C91F87800844508DD8749FF
:1049C0009A420E606F7200DD4042104407E037E00B
:1049D000687A18B382480168824801601DE0A9F82E
:1049E0000600B8E7D01A002801DD024600E09A1A56
:1049F00091F878C07C49624508DD7C4A00EBD070B4
:104A0000401010600F706F7208E013E0687A28B1F0
:104A100073480268734802600E706E727448B8F88A
:104A20004221B8F840110068184403F01BF9D6E79A
:104A3000207928B168486F4AC18812881144C18022
:104A40002020FDF7CFFA10B3634FE079243F08B977
:104A5000207AE0B3207BD0B3674EB6F9000008F0AF
:104A6000E5FCDFF89881414608F0F2FB09F010FF01
:104A70000090B6F9000008F0D9FC414608F0E8FBC8
:104A800009F03CFB8046207C10B103F046FF83E038
:104A9000514C99F8DB00DFF868A14E462C3CE8B396
:104AA000A146B4F90200241DB4F90210401A01F025
:104AB0002AFF16F8DB2F514203F0D4F8618808442E
:104AC0006080B9F90000B4F90010401A00E060E01D
:104AD00001F019FF3278514203F0C4F821880844EC
:104AE00000B2208008F0A2FC8346009908F0B0FBD9
:104AF0000646B4F9020008F099FC8146414608F0E8
:104B0000A7FB314608F09EFB5646514608F0D2FB03
:104B100008F0ABFC38805846414600E00BE008F056
:104B200097FB04464846009908F092FB214608F09E
:104B300037FB314627E0B4F9000008F077FC8346E4
:104B4000009908F085FB0646B4F9020008F06EFCF7
:104B50008146414608F07CFB314608F073FB544621
:104B6000514608F0A7FB08F080FC388058464146C3
:104B700008F06EFB06464846009908F069FB31468E
:104B800008F00EFB214608F095FB08F06EFC7880DB
:104B900002E03E807E80BE80E86B8047FEF7B8FC76
:104BA000FEF73BFBBDE8F84FFEF7B0BBBDE8F88F62
:104BB000144810B5417800290AD00024447005201B
:104BC00002F084FF0448A038016C002900D004647E
:104BD00010BD0000E0080020800100203800002007
:104BE00070000020740000200C0000203400002021
:104BF0003000002010000020F801002035FA8E3C23
:104C000000002041340C00202DE9F84FFE4CFF4BF2
:104C1000FF4900263746B4F860219B46A1F11000F9
:104C200005F0CAFF08B101271AE0FA480068032816
:104C300009D1F749B4F86021A1F1100007F0A1F8FB
:104C400008B101260CE0B4F86011F14806F0B2F9A1
:104C500030B9B4F86011EE4805F073F800287CD044
:104C6000ED4D4FF0020A4FF001094FF0000800BF70
:104C700094F85D0107284BD2DFE800F008081A37E6
:104C8000422904000220FDF7BAF941E08DF80080C6
:104C90004FF44870DE49ADF802001039684604F060
:104CA0008CFA08B185F8009094F85D0101282FD0A6
:104CB0006FB1D749B4F860215B46A1F1100005F04F
:104CC0007BFF85F800A094F85D0102282DD066B125
:104CD000CF49B4F86021A1F1100007F052F8052087
:104CE000287094F85D0105281FD0C948103806F0D7
:104CF0005DF828B10320287094F85D01032814D0D2
:104D0000C348103806F071FF10B1042028700CE081
:104D1000287850B994F85D01401E052802D284F825
:104D20005D81A5E70220FDF76AF9B948203004F05B
:104D3000E9FA38B9B648203006F03FFA10B9042035
:104D4000FDF75DF90220FDF74DF928B1B04994F85F
:104D5000540110390968884700E057E0AC4994F8DD
:104D60005301096888474E464FEA080794F85E01E8
:104D700048B1012807D002280FD0032815D10820F8
:104D8000FDF73DF911E0A248103004F0E2FC20B13B
:104D90006E7094F85E01012814D09D48103007F021
:104DA0008CF810B185F801A00CE0687850B994F83F
:104DB0005E01401E022802D284F85E71D6E7082008
:104DC000FDF71DF995486421B0F9280090FBF1F238
:104DD00016B290FBF1F201FB12040820FDF702F974
:104DE0008F4D88B1204608F021FB8E4908F030FA3B
:104DF0000446304608F01AFB214608F0D1F98A49EA
:104E000008F026FA286000E02F600120BDE8F88F46
:104E100010B57D4C002094F89711B1B183484FF440
:104E20007A7200EB41000021B0F90600A0F57A701B
:104E300002F018FF08F0FAFA7D4908F03BFA7D49C4
:104E400008F006FA08F02AFB15E094F898110029FA
:104E500012D0032004F008F9B4F89C1140F2FF329C
:104E6000401AB4F89A11C0EB802090FBF1F000B228
:104E7000002102F0F7FE80B210BD70B50546624811
:104E800090F87D0108F0DBFA0446284608F0D7FACE
:104E9000694908F0DDF9694908F00CFA214608F083
:104EA000D7F908F0FBFA80B270BD40F6E441484300
:104EB00040F6FF71B0FBF1F05349B1F87A21B1F837
:104EC0007811801A4FF47A72504390FBF1F07047DA
:104ED00070B500252C46002004F0C6F805440A20D1
:104EE00005F030FA641C202CF5D3C5F34F10FFF702
:104EF000C4FF454A012192F87E3100BF03FB01F453
:104F0000844202D8491C0829F8D34D484D4B017002
:104F100092F880014843188092F87F0148434A493B
:104F2000088070BD2DE9F05FDFF8EC90474E3B4FF5
:104F3000B9F80420344C0025CAB3454900204FF489
:104F4000C878424501D141F8205051F8203036F957
:104F500010C0634441F8203026F8105004EB4003A1
:104F6000401CA3F86A510328EBDB012A1AD1086818
:104F7000C83090FBF8F0A4F86A014868C83090FB8C
:104F8000F8F0A4F86C018868C83090FBF8F1B9F823
:104F90000800081AA4F86E017D850121BD85084628
:104FA000FCF7FFFDB9F80410491EA9F8041004200D
:104FB000FDF72DF800287DD0DFF89880DFF858B095
:104FC000DFF88CA0B8F800200BF1240B0AF10C0AD2
:104FD000322A05D0BAB100205146322A3CD03DE0F9
:104FE000B4F86A11ABF80010B4F86C11ABF8021009
:104FF0000948B4F86E11ABF804100A30798D0180BD
:10500000B98D4180E7E75BE01C040020280A0020FE
:10501000740E0020C8000020C0010020E00800201D
:10502000400000208988883C00002041480C002076
:1050300000007A4400C07F443333534000F07F4582
:1050400094010020000100200201002090000020B7
:10505000440D0020F200002041F8205051F820308B
:1050600036F910C0634441F8203026F8105004EBA4
:105070004003401CA3F86A510328AEDB012A18D173
:10508000F748F8490570012008700A2002F01EFD5B
:10509000BBF80010A4F86A11BBF80210A4F86C1158
:1050A000BBF80400A4F86E01EF48018879854088B8
:1050B000B88500E024E0B8F80010491EA8F80010F8
:1050C000EA480178E1B10570DAF80020322192FB5C
:1050D000F1F2A4F86A21DAF8042092FBF1F2A4F8C4
:1050E0006C21DAF8080090FBF1F1B9F80800081A11
:1050F000A4F86E017D850121BD850846FCF751FDB0
:105100003088B4F86A11401A30807088B4F86C1195
:10511000401A7080B088B4F86E11401AB080BDE8B3
:10512000F09FD34810B54168D2488847BDE8104089
:10513000F8E630B5CC4CD04A0A3C206992F83120D0
:105140000146401C824200D10020CC4A1368CC4A60
:1051500042F82130CB4952F820200D682B449A1A8E
:105160000A60206130BD70B5BF4CC7480A3C00687A
:105170006169411A01D5002070BD6061BC4DA06914
:10518000303578B128698047686880472888616928
:10519000084460616A69BD49B84890470020A06131
:1051A000022070BDA8688047E8688047FFF7C1FF0C
:1051B0000120A0616888616908446061012070BDB8
:1051C0002DE9F05FA84D0A3DE88800286DD0DFF892
:1051D000A0820024A8F13C08A3464FF47A79A8F1F4
:1051E0000C06E888484507D104EB840208EB8201ED
:1051F00046F824B0C1F810B0A54F56F8241037F97E
:105200001400014446F8241008F010F9014604EB9C
:10521000840208EB8200824600F0F9F827F814B007
:105220009C4F27F814B0E888012838D1DAF810002C
:10523000012808DD401E08F0F9F80146DAF80C00F4
:1052400008F038F800E0002009F0E6FB82469248BA
:1052500090F86601B0B108F0F2F8514608F052F942
:1052600010D28349A5F806903C39C8F810B0C1F8AF
:1052700024B0C1F838B0C6F808B0C6F804B0C6F813
:1052800000B00CE056F82400012200F5FA7090FB03
:10529000F9F027F814000F210A20FEF7D3FA641C56
:1052A000032C9EDBE888401EE8807949794A00207B
:1052B00031F8103032F810401B1B21F81030401C20
:1052C0000328F5DB2BE76A4810B5103041687048B9
:1052D0008847BDE8104073E710B57048102404609B
:1052E00063496D482031096890F8550188476B483B
:1052F000001F04605C4901200A39887010BD2DE947
:10530000F041594C60480A3C0068E169411A02D5F5
:105310000020BDE8F08162490844E0615448203033
:10532000416860488847DFF880C14F4B00269CF8F1
:105330000E005C49584A20339D1D90B1E0692062FF
:105340005FF0000002EB4007A7F8706131F81070C1
:1053500023F8107025F81070401C0328F2D38CF845
:105360000E60A07870B10888B2F87071C01B088018
:105370004888B2F87271C01B48808888B2F874718E
:10538000C01B8880206A90B3E769381A474FB8423B
:1053900018D242480838026882F0080202600020F1
:1053A00031F9102033F91040A24201DA23F810201D
:1053B00035F91040A24201DD25F81020401C0328D9
:1053C000EED314E00020266233F9101035F91040B6
:1053D000214401EBD17102EB40044910401CA4F8B8
:1053E00070110328F0D301210846FCF7DAFB0120F5
:1053F0008FE710B5012005F025FD1020FCF7FAFD20
:105400002B490020086010BD294805F06EBD2DE92C
:10541000F041044600690E46401C2061012849D035
:1054200008F004F8256880462946304607F00AFF50
:105430000746414607F03EFF294607F0B1FE054604
:1054400060602946304607F0FDFE0146384607F009
:10545000FFFEA16807F0A4FEE0602560A06058E7A9
:10546000E4000020E2000020CA010020E300002048
:10547000640E002090000020E0080020B80000200A
:105480005C0D00201C00002010010020BC0000204A
:105490008A000020C00000201C040020140C0140E1
:1054A000A08601009C000020340C002080C3C901AC
:1054B0002C000020666000202660A06029E7000024
:1054C00070B5FB4D044621466868006806F0AEFBE7
:1054D000686801796140017170BD10B50446C0B2C1
:1054E000FFF7EEFFC4F30720FFF7EAFFC4F307401E
:1054F000FFF7E6FF200EBDE81040E1E710B50446D7
:10550000C0B2FFF7DDFFC4F30720BDE81040D7E7C6
:10551000E74841688B1D4879421C4A71C05C70475E
:1055200010B5FFF7F5FF0446FFF7F2FF04EB00208C
:1055300080B210BD10B5FFF7F3FF0446FFF7F0FF90
:1055400004EB004010BD70B504460D462420FFF763
:10555000B7FF4D20FFF7B4FF0CB1212000E03E2043
:10556000FFF7AEFFD24C0020616808712846FFF7B4
:10557000A7FF606890F84600BDE87040A0E70146CC
:105580000020E0E701460120DDE7C94840680079D6
:1055900096E770B504460D460846FFF7F0FF03E0B6
:1055A00014F8010BFFF78CFF6D1EEDB2F8D270BD41
:1055B00010B5044603E000BFFFF782FF641C2078AB
:1055C0000028F9D110BD2DE9F05FDFF8E8B2DFF86F
:1055D000E09201274FF0000A002518E0B648405D30
:1055E00000EB40010BEB8108D8F8040007F089FDBF
:1055F00006460FB1B24409E0002405E0D8F80400E3
:10560000005DFFF75DFF641CB442F7DB6D1C99F889
:1056100000008542E2DB002F05D00AF0FF00FFF713
:10562000AEFF0027D8E7BDE8F09F2DE9F047A04E78
:1056300000248146024603232146A048B46004F0BA
:10564000DBFF9F4DDFF870829F4F08F1180828603C
:10565000C8F80000B068401CB0609A480068032891
:105660000EDB97F88C0158B903234A46002197486E
:1056700004F0C2FF6860C8F84C00B068401CB0601D
:10568000FF2218218C4807F0F6FC8B4D02202C706D
:105690000124FCF7A7FC20B1012068700220A8704B
:1056A00003240420FCF79EFC50B1032028554FF43E
:1056B0000050641CFCF7ABFC10B104202855641C9E
:1056C0000220FCF78FFC18B90820FCF78BFC40B1D6
:1056D00005202855641C06202855641C07202855E1
:1056E000641C2020FCF793FC10B108202855641C92
:1056F0004FF48070FCF78BFC28B10A202855641CFD
:105700000B202855641C7879082803D00E2801D076
:10571000182802D10C202855641C0D20285504207F
:10572000641CFCF774FC10B111202855641C132074
:10573000285597F8B001641C00B10120FCF767FC04
:1057400010B114202855641C7879182808D1152028
:105750002855641C16202855641C17202855641CE5
:105760003470BDE8F0870146594A30B500EB81003E
:1057700002EB4000564B544A90F8840033F8A44F93
:1057800055795A899B8A082D35D00CDC012D2AD0F9
:10579000042D1ED104291DD005291AD199074FD5F2
:1057A00040F001004CE0142D37D0152D11D1032904
:1057B0003ED004290ED0052940D0062909D14449FC
:1057C000B1F8C210CA0701D040F001004907002912
:1057D00006DB30BD910701D540F001005107F6E727
:1057E00040F0020030BD0529FCD159071DE000BF83
:1057F00040F0010030BD032909D00429FAD19107F6
:1058000001D540F00100D1070029E9D130BDA10741
:1058100001D540F00100E107F6E7042904D005298D
:10582000F4D1D907E4D130BD91070029E0DB30BDC8
:10583000A10701D540F001006107C8E7D907AFD142
:105840005907C4E710B59042029C10D11942204B71
:1058500002EB820203EB42024FF0010032F8861F96
:1058600000FA04F001D0014300E08143118010BD33
:105870002DE9F84F4FF00009CA460FF2580B0C4CB7
:105880000127134E6068DFF858800F4D90F84610DE
:1058900020467629007875D03FDC6A2973D031DC48
:1058A000642971D026DCA1F1400106296DD219E0EE
:1058B000FC01002008FE0008AC0E0020003801406A
:1058C000140A0020C80000201C04002000480040EA
:1058D000E008002046656220313220323031350048
:1058E000340C0020DFE811F0C305D005A2057D05CA
:1058F000DD05E50565390529D8D2DFE801F0FAF9BB
:10590000F8F7F6006B390B29D0D2DFE801F0FDFC87
:10591000FBFAF9F8F7F6F5F4F300F84ACE295278D5
:105920007CD017DCC82936D00CDCA02977D004DC69
:10593000772975D0782928D104E2A42971D0A62925
:10594000F9D1FDE3C9390529B0D2DFE801F03B58B0
:105950006B7CF3004FF000094FF0020AD42971D09C
:1059600008DCA1F1CF010529A0D2DFE801F086E72C
:10597000E6E8F400F0297DD008DCD6297BD0EF29B9
:10598000D9D118E0F6E3C5E2E9E0F4E3FA2973D0EF
:10599000FE29D0D1F0E3DA4D002400BFFFF7C0FDAF
:1059A00025F81400641C082CF8D30020FFF7E7FD4D
:1059B00002F082FF33E2FFF7B3FDB085FFF7B0FDE1
:1059C0007085FDE3FFF7A4FD88F80B00FFF7A0FD4D
:1059D000CC490870FFF7AEFDCB4C2060FFF7AAFD65
:1059E0006060FFF79DFDC9490880FFF799FDC84930
:1059F0000880C848017841F002010170E0E300240A
:105A0000FFF786FD35196870FFF782FDE872FFF732
:105A10007FFD641C68750A2CF2D3D1E3F7E3F7E34A
:105A20003DE3F6E30025BC4F08E000BFFFF778FD3B
:105A3000795D6D1C06EB4101A1F846002078854296
:105A4000F4D3BDE39BE1FFF763FD06F81F0FFFF7FB
:105A50005FFD7070FFF75CFD3071FFF759FD7071ED
:105A6000FFF756FDB071FFF753FDB070FFF750FD23
:105A7000F070F6E3F0E352E0E9E3FFF751FDA0F246
:105A80007951C72901D2A5F88E01FFF749FDA5F884
:105A9000400105F5BC75FFF743FD25F8360CFFF70F
:105AA0003FFD25F8340CFFF73BFDA6F8D000FFF7CB
:105AB0002FFD85F82600FFF72BFD85F82700FFF75F
:105AC00027FD85F82800FFF723FD2871FFF720FD4B
:105AD000E877FFF71DFDFFF723FD00EB8000400096
