:020000040800F2
:100000000050002075F2000821F3000831C10008FB
:1000100021F3000821F3000821F30008000000008C
:1000200000000000000000000000000021F30008B4
:1000300021F300080000000021F300080DC10008B2
:1000400021F3000821F3000821F3000821F3000840
:1000500021F3000821F3000821F30008B1C20008D1
:1000600021F3000821F3000821F3000821F3000820
:10007000A1C0000821F30008D1C0000821F3000846
:1000800021F3000821F3000821F3000821F3000800
:1000900021F3000821F3000821F30008ADC2000895
:1000A00021F3000821F3000821F300089FC2000893
:1000B00095C2000889C200087DC200082DC1000851
:1000C00025C1000829C1000821C1000821F300084A
:1000D00021F300085DC00008E9BF0008B1BF0008B7
:1000E000B5C2000821F3000821F300080000000059
:1000F0000000000000000000000000000000000000
:0C01000000000000000000005FF808F1A3
:100110002DE9F04FB74C97B0A368B74D13F0080125
:1001200000F0E88094F88A21052A00F2E580DFE8F3
:1001300002F0030305527A852B78DEE06878AE4A38
:10014000002800F0D98000209F05507003D5137E51
:100150001E0700F1D180E8780023AA7800F0070696
:10016000AB83A64B42EA06221A602A7902F03F06C8
:10017000760146EAD00058606879800040EA921023
:10018000AA7902F0010640EA86209860E87900F03A
:100190000F06F60146EA5202DA602A7A02F07F067A
:1001A000360146EA10101861687A400040EAD2121F
:1001B000A87A00F0030642EA46225A61EA7A02F07F
:1001C0001F06B60146EA90009861287BC00040EA0D
:1001D0005212DA6130E0AA7F874B002A00F08C804F
:1001E00093F82000002201289A7740F085809A83B6
:1001F00093F83420082A84BF082283F8342095F825
:1002000034007F4A0023DEB2864202F1020213D29A
:1002100012F8016C12F8027C46EA0727794E46F87C
:1002200023700133EFE795F85830734A0020002B14
:1002300063D0908382F8580001235EE095F859302E
:10024000002B59D06C4B002283F859204FF6FF70D9
:10025000694B03F15A06965D0132801B1E2A80B25B
:10026000F6D193F8796093F8782002EB062292B2E7
:10027000904241D193F85D0093F85C2002EB00229C
:10028000DA6793F85F0093F85E2002EB0022C3F870
:10029000802093F8610093F8602002EB0022C3F8FD
:1002A000842093F8630093F8622002EB0022C3F8E5
:1002B000882093F8650093F8642002EB0022C3F8CD
:1002C0008C2093F8670093F8662002EB0022C3F8B5
:1002D000902093F8690093F8682002EB0022C3F89D
:1002E000942093F86B0093F86A2002EB0022C3F885
:1002F0009820A1E70B4600E000234348D5F89C6016
:1003000002688346961B002E02DA002B00F0BE84A2
:1003100002F59C422032C5F89C20DFF800A1DFF8EE
:100320000091002939D1394E88460F46DAF800305D
:10033000F8B29847A0F2EE2292B240F2DC539A4211
:10034000D5F8E020324B88BFB4F88E011340002B63
:1003500003DA013B63F003030133274903EB87030F
:1003600001EB4303A3F8A0003188738801370B44E5
:10037000B188082F0B44F18806F108060B441BB224
:100380004FF0040193FBF1F329F8083008F102085B
:10039000CCD10132C5F8E02009E00026F0B2DAF84D
:1003A0000030984729F816000136082EF6D1A368C8
:1003B000580404D595F8E4300BB90BF0CFFE94F84F
:1003C00097210C4B72B3033239F91200A0F57A7001
:1003D000B0F57A7FA8BF4FF47A7020EAE0700CF095
:1003E00077FC0C490CF07CFD0B490CF0C5FC0CF0C3
:1003F000AFFE2CE0E81B00200001002000090020D7
:100400002201002038010020D0210020A00100207E
:100410000300008000007A4400C07F44F8080020F8
:10042000D408002093F8980190B1B84AD179B84A1D
:1004300032F81100B3F89C2180B2801AB3F89A31D7
:10044000C0EB802090FBF3F000B280F30A0080B292
:10045000A368B04A13F4024FA5F8FC006AD0AE4E70
:10046000B2F91C0096F8CE3003EB8301884241DDDF
:10047000AA4991F801E00F46BEF1000F3AD0A84911
:10048000B1F88E11A9F80010A9F80210A9F804100B
:10049000B6F8D010A9F80610A24991F800E08846F5
:1004A000BEF1030F08D9A049C2F80011032188F852
:1004B00000100021A2F8041196F8CF20134403EB9A
:1004C0008303984211DDBF7C7FB90BF047FE934B4D
:1004D0001F7098F80030042B07D9944B0422C5F8FC
:1004E0000031904BA5F804711A70B5F8063101334C
:1004F000A5F8063196F8CE30B5F91C2003EB83033E
:100500009A42844F13DDDFF8148298F8016076B9BF
:100510000BF024FE834B88F800601A78042A06D971
:10052000824AA7F80461C7F8002104221A70AB8B35
:100530000133AB830022B4F89011B4F892611346F2
:1005400039F902009B088842C4BF63F07F03DBB225
:100550000232B042B8BF43F04003082AF0D195F808
:1005600008016C4A984205D192F80901F92804D88B
:10057000013000E0002082F8090185F80831A36805
:10058000674A13F4804A644FB9F906300AD0B2F8CA
:100590008E11B2F84C21881A834206DD0A44934238
:1005A00006DB02E08B4203DB21E04FF0000A1EE095
:1005B0000023C5F80435C5F80835C5F80C35C5F86D
:1005C0001431C5F818310023C5F81035C5F81435B5
:1005D000C5F81835C5F81C35B7F846302BB14D4B6A
:1005E00093F8E430002B41F048874FF0010AB7F848
:1005F000463073B195F8E4305BB9484B5B7843B152
:1006000094F8953113B10BF0A9FD02E0BAF1000F97
:10061000F9D195F809213F4B142A40F0C6803F4E8E
:100620007178D1B1B7F846202AB993F808315F2B19
:1006300001D10BF093FD94F89431002B00F0B580BC
:10064000B7F84630002B40F0B08095F808317D2B8C
:1006500040F0AB800BF082FDA7E093F80821572A09
:1006600015D1334B4FF47A721A80A368D90501D59E
:1006700002F01EFE2F4B1B685A0702D52E4A0A2194
:10068000118013F0080337D1A5F80A3134E0A068CF
:10069000400728D55A2A26D193F80C0128B1012207
:1006A00083F80C1183F80D2126E093F80E111D4AF2
:1006B00081F0010183F80E1151B111780A291BD97B
:1006C0001E49A3F80401C3F800110A21117013E0B8
:1006D00010780B2810D91A48A3F80411C3F80001A8
:1006E0000B20107008E05D2A01F0D0865B2A01F033
:1006F000CF865E2A01F0CE86B7F8463013BB95F858
:1007000008216F2A1ED107F07FFC30E03806002058
:100710004006002000010020C820002061080020C1
:10072000E81B002000000020681801087B18010861
:10073000F80D002070060020FA0D00207E18010838
:100740008318010894F8942122B11BB995F8083157
:100750007E2BD8D095F80831972B04D1984B4FF4C5
:10076000C8721A8003E0A72B04BF0123B37395F866
:100770000831BB2B02D1BB8D023303E0B72B03D171
:10078000BB8D023BBB8509E0BE2B02D17B8D0233C2
:1007900003E0BD2B09D17B8D023B7B850120014607
:1007A00006F04AFE002385F80931A068420731D5DA
:1007B00095F80E21834B8AB1834A527872B1834AED
:1007C000B9F90610B2F89021914207DD93F8E420C0
:1007D00022B93221A3F8101183F80E2195F8F520E3
:1007E000784B62B193F812212AB993F80C2112B90F
:1007F0003222A3F81021012385F812310AE093F880
:100800000C213AB1704A527822B983F80C210122A6
:1008100083F80D216E4E0123002136F8022F03F1DB
:10082000FF3CA2F2155EBEF5C77F8CBF4FF0000EF5
:100830004FF0010E0EFA03FE12B24EEA010140F231
:10084000135E7245CCBF4FF0000E4FF0010E0EFA52
:100850000CFE41EA0E0140F2A46E7245D4BF0022A4
:10086000012203F1010E02FA0EF2033311430D2BA4
:1008700089B2D2D1002307EB430EBEF846E0514ABD
:1008800011EA0E0F0CBF4FF0000E4FF0010E02F1F7
:10089000E40603F806E00133182BECD192F8E530BA
:1008A000494E4C4943B94C4BB2F91C2093F8CE3019
:1008B00003EB83039A421BDD0A68930718D5F3788C
:1008C00043B9C5F81431C5F818313F4B4FF0010E4C
:1008D00083F803E003040ED597F8CE30B5F91C0079
:1008E00003EB8303984206DD900604D5012301E063
:1008F0000023F370B37495F8E630324A5BB10023FD
:10090000F370337943B9C2F81431C2F818312E4B61
:1009100001221A7100E0337195F8E4300BB901231C
:100920003370F2782D4B12B9274A127912B1102286
:100930005A6101E010221A6109684A0725D595F825
:10094000E720204B9AB1B07990B91F4A4FF0010EC1
:1009500082F806E0D3F82021C3F83001C3F81C2147
:10096000B3F82C21C3F83401A3F8242100E0B271BC
:10097000A3689B0409D595F8E8302BB1F37B23B924
:10098000114B0122DA7300E0F37311F00A0F30D03B
:1009900095F8E9300B4A4BB1737943B90A4B012002
:1009A0005871B2F80A31A2F8383100E0737195F845
:1009B000EA30ABB1737AA3B9034B01225A7210E04B
:1009C000DC2100200001002061080020E81B00203D
:1009D000DA08002070060020C8200020000C01402A
:1009E000737295F8EB20B04B1AB1B3F80A21A3F853
:1009F0003A2111F0200FDFF8B08200F0CC80F27ABB
:100A0000AA4B002A00F0C28095F83C21042A40F24B
:100A1000BD8098F8EE20A6490AB99A7CB2B1F07967
:100A2000A24B002840F09F8048701872A148012214
:100A3000011DDA710292019308F090FA022185F803
:100A40004C11B5F85C11C5F8581136E0DA7198F818
:100A5000EF20002A35D0B8F92601B7F8E2200028A7
:100A6000B8BF404290422CDAB8F928010028B8BF3C
:100A70004042904225DA1A7A002A74D14A70D8F896
:100A800060114FF0010CC8F85011D8F8641108F546
:100A9000A870C8F8541108F5AA7183F808C0CDF8F9
:100AA0000CC00292019308F059FADDF80CC0B8F8B6
:100AB0005C1188F84CC1C8F85811029A019BDA748D
:100AC00051E049780023337200294CD1784B012240
:100AD0005A708E46744B002203F5B4702EF8002035
:100AE00003F5B7702EF8002003F5B9702EF800203A
:100AF00003F5BC7C002041F80C008C44CCF80420A9
:100B0000CCF8080003F5D07C41F80C008C44CCF8FC
:100B10000420CCF808000EF1020E03F5E47C41F845
:100B20000C00BEF1040F8C44CCF80420CCF8080073
:100B300001F11401CED1317C11B90023F37412E01C
:100B4000C3F8F001C3F8F401A3F8F821A3F8FA21DF
:100B5000A3F8FC215849002353520C31535202325E
:100B60000A2AF7D1E9E752490B780C2B13D995F8EB
:100B700016224D4B7AB95148A3F80421C3F800015D
:100B80000C200870012183F8161204E00023F37191
:100B9000337285F84C3195F8F0302BB1B37C1BB92A
:100BA000424B01229A7201E00023B372637903F091
:100BB000EF02082A01D00E2B2AD1A268002190054D
:100BC0003A4B717224D597F8CE2006277A43B5F9AF
:100BD0001C0090421CDD0122DA70394A9972B2F889
:100BE0008E118AB2A9F80020A9F80220A9F80420E1
:100BF000344AB2F8D020A9F80620DA7A42B92A4855
:100C000090F83C01052803D89A742F4B323919808B
:100C1000A2682B4BD20640F168817278002A00F05E
:100C20006481224A127C002A40F05F81BAF1000FF1
:100C300023D02649D8F8182209684AB993F87631A2
:100C40004FF47A7202FB0312174BC3F8182206E026
:100C50008A4204D293F876310BB10BF07FFA144B31
:100C60001A78092A40F24181194AC8F8002109225C
:100C70001A700023A8F8043137E1D8F81832002B95
:100C800000F03381084BC3F818A22EE1064BD3F8CD
:100C90001C32042B00F22981DFE813F01C00A200B3
:100CA000F40000010B0100BF0001002061080020DA
:100CB0000000002040020020FE0200208A180108E7
:100CC000E81B0020C8200020D4080020E41B0020DE
:100CD0007B1801080123C5F81C32B14BB14E1B68CB
:100CE0001B077DD5D6F82032D31A002B78DBAE4B0C
:100CF00002F5C332A0325B6806F50970C6F82022FF
:100D00009847AA4B06F509779A7B184692B1D6F810
:100D100020220023C6F82C22E1180022A1F870211D
:100D20001646A349FA5A5A5206315A520233062B32
:100D3000F2D186739F4B1B78A3B1B5F82422B4F887
:100D40007031D31AA5F82432B5F82622B4F87231DE
:100D5000D31AA5F82632B5F82822B4F87431D31A7C
:100D6000A5F82832D5F82C328E4A002B00F0BD8031
:100D7000D2F820129048CB1A834202F2362102F5B3
:100D80000C7019D88D4BDA6882F00802DA60002303
:100D9000FA5A30F903E016B2B645C4BFDFF810E2E4
:100DA00023F80E2031F903E0B645BCBF844E9A53B8
:100DB0000233062BECD198E00023C2F82C32C75E38
:100DC000CE5EE2183E4402273B4496FBF7F6062B24
:100DD000A2F87061F3D10120014606F02DFB84E0FA
:100DE000D5F81C326F4E0133C5F81C326C4B1B68B2
:100DF0005F0747D5D6F83C32D31A002B42DBD6F832
:100E00004032C6F83C226F4F9BB13B6998477B68E4
:100E10009847D6F83C323A8806F511701344C6F864
:100E20003C3206F512717B6998470023C6F84032C0
:100E30005BE0BB689847FB689847634AD6F84C125A
:100E400092F831204B1C934208BF0023D5F844226E
:100E500005EB8101C1F85022D5F81013C5F84C32CA
:100E60000A4405EB8301D1F850020123121AC5F898
:100E70001023C5F840327A88D5F83C321344C5F8BF
:100E80003C3232E0D5F81C320133C5F81C32444BF9
:100E90001B68580702D508F065FB30BBD5F81C323B
:100EA0000133C5F81C32A368D90502D503F0FCFA5A
:100EB0001BE00023C5F81C32394B1B68DA0614D539
:100EC000424B1A68424B19683C318A420DD31A6072
:100ED000404F414A334B394EC3F814233B880B2013
:100EE000336101F01BFE3B88736101F0FDFDA389B6
:100EF000CBF800002BB1D5F81823821A002AC1F2D2
:100F0000DB821844C5F8180309F0FCF901F0ECFD88
:100F1000324BCBF800001A681860314B821AB3F9D3
:100F20000610294B92B20492A5F81C23DA8C914248
:100F30000FDBB1F5FA6F93F8257007DA881A47438B
:100F4000A2F5FA6297FBF2F7643703E0C7F1640792
:100F500000E06427B4F88E2193F82350059294F9A9
:100F60005C2193F87660524292B293F877E093F85E
:100F70002430079200220893069513461848DDF89E
:100F8000149032F900B040F2E634C9EB0B0000F2E5
:100F9000F315A54226D80028B8BF404224E000BF80
:100FA0007006002000010020E806002061080020F3
:100FB00030030020100700207FC3C901000C01404E
:100FC00036030020C0060020C8200020E41B0020BB
:100FD000E40D0020D80D002038000020F40D002082
:100FE000D40800204FF4FA70022B30D026B1B04262
:100FF000CCBFC6EB000000206424DFF810A390FBF8
:10100000F4F80AEB48056FF0630C0CFB080CB5F81C
:101010001E530AEB4808B8F920930FFA85F8C8EB7D
:10102000090808FB0CF8DDF818C098FBF4F800FB81
:101030000CF0A8440AF5937522F80580B24D90FB98
:10104000F5F52544ADB27D4395FBF4F518E0BEF10E
:10105000000F04D07045CCBFCEEB00000020079DF0
:10106000DDF8209000FB05F40028B8BF4042A74DF2
:1010700000FB09F0A5F82A41A34C90FBF4F5643578
:10108000DFF8BC82A24803EB080494F8019094F8BE
:101090000BA005FB09F905FB0AFA647D4FF0640C0F
:1010A00099FBFCF965439AFBFCFA03F8009000F108
:1010B000030903F809A0DDF814A000F1060995FB67
:1010C000FCF5D34503F809504446A0F54B7904DA02
:1010D00009F59370155A6D4215520133032B02F135
:1010E00002027FF44BAF8B4AB2F89031994205DB94
:1010F000B1F5FA6FA8BF4FF4FA6100E01946C91ABA
:101100004FF47A725143C3F5FA63B1FBF3F36426EB
:1011100093FBF6F209EB4201B1F836036FF063017D
:1011200001FB023309EB4202B2F9381302B28A1A08
:10113000534393FBF6F6784B30445B7A734DA9F832
:101140002C01002B44D0B5F93A31B5F90A01C01A87
:101150000BF014FA6AA3D3E900230BF075FA00220E
:101160006E4B0BF09BFB0BF0A9FC06460EF074FADD
:10117000074630460EF0E4FA0646B5F928010BF0B2
:10118000A7FD8046B5F926010BF0A2FD394682463F
:101190000BF0F2FD3146834640460BF0EDFD014673
:1011A00058460BF0DFFC0BF0ADFF3946A5F82601E1
:1011B00040460BF0E1FD3146074650460BF0DCFDA2
:1011C000014638460BF0D0FC0BF09CFFA5F8280137
:1011D000504ED6F8088018F0020F00F0C280D9F8FF
:1011E0005033DDF810B006229B4499F85433474D34
:1011F0000133DBB2B3FBF2FA02FB1A3A1AF0FF0733
:10120000C9F850B389F85433049766D1444A454B22
:101210005078D5F8581333F810E0082791FBF7F011
:101220001FFA8EFE081A7044C5F8580390FBF7F0B9
:1012300080B2029201930BF04BFD3B490BF09CFDF9
:101240003A490BF04DFE824696F87D010BF040FDC9
:10125000014650460BF090FD0BF07AFF96F8811195
:10126000A5F85C03029A019B002936D05279D5F883
:10127000601333F8122091FBF7F392B2CB1A1344A8
:10128000C5F8603393FBF7F39BB240F6E441594352
:1012900040F6FF72B1FBF2F1B6F87A21B6F8783178
:1012A000891A4FF47A72514391FBF3F10BFB01FB66
:1012B0002B469BFBF2F2C5F86413F3E9DA018018C0
:1012C00041EBE271C3E90001194A00230BF060FF12
:1012D000049EC5F87003C5F85063164AB9F85C134C
:1012E00012880A4B8A42144A2CD31178012938D922
:1012F0001249C3F8001101212FE000BFAFF30080B5
:10130000182D4454FB2109400CFEFFFF0001002072
:101310002C040020E81B00206108002000806640AB
:1013200038060020400600203333534000F07F454C
:10133000407E05004A0600200000002099180108A0
:10134000C8200020AF48008888420AD311780229BB
:1013500007D9AD49C3F80011022111700022A3F88A
:10136000042199F8F130A94D8BB32B78082B2ED995
:1013700018F4807F23D0A64BDB7A03B3A54B93F8F8
:101380003C0104281BD90023A34905225A540F26E7
:10139000CA185670122B03F10206F2B204D0B0EB59
:1013A000520F3346F0D800E014224A44642382F8F6
:1013B0007533FF2382F87633C9F8001102E0974BAA
:1013C000C9F8003108232B700023A9F804312B78C9
:1013D0000D2B1FD0D9F800218E4BDAB193F88A0378
:1013E0008F4980B90868D3F88C13814212D8012044
:1013F00083F88A03B3F80431D35C0BB101F06DFBC1
:1014000008F036FB06E00868D3F88C13814201D857
:101410000020EDE7834B1B881BB1834B1B689B07A8
:1014200002D4824B1B882BB1814BDA6882F0080210
:10143000DA600FE0764B9A7812B17D4A082111618B
:101440005B7813B17A4B08225A617A4B1B780BB147
:1014500007F0A0F8784EDFF8F481B36813F0800F3E
:1014600062D0D8F80030D9F890236A4F9A1A002A2F
:101470005ADB03F543435033C7F8903397F894335E
:1014800093B97A238DF84030B7F90A310222C3F1BB
:10149000B40393FBF2F38DF841306D2010ABFF21C4
:1014A0000AF070FB012324E0012B25D17923B7F941
:1014B00096238DF840300A2392FBF3F25A32B42A75
:1014C000A8BFB42222EAE2728DF84120B7F998232E
:1014D0006D2092FBF3F35A33B42BA8BFB42323EA55
:1014E000E3738DF84230FF2110AB03220AF04AFB70
:1014F000022387F8943317E0022B15D164238DF86B
:10150000403001238DF84130414B6D205B78FF2145
:10151000002B18BF01238DF84230032210AB0AF0D4
:1015200031FB002389F89433D8F80020D9F89C3394
:10153000D31A002B0FDB364B597B71B999703C4B9A
:10154000D96881F00801D96002F5F423314A03F526
:101550009073C2F89C3300270DE001229A70FAE7DD
:1015600093F838341BBB6B68DFF8A080186801F073
:10157000D5F910BB0137D9F83C24264B9742DFF848
:10158000D08080F2A08003F568724C2101FB072215
:101590006A6098F80020002AE2D007F041F892E053
:1015A00096F8C1348342DED1244A254B1A600AF0F2
:1015B000FBFD244A244BDA60D5E7D8F804301868DC
:1015C00001F0A7F9D8F8043093F8492092B9B0F1A6
:1015D000240EDEF1000252EB0E0283F84920002AAD
:1015E000C1D10B4B5B78002BBDD12328D8D107F09C
:1015F00017F8B8E7012A2DD14D2814BF0022022286
:101600005EE000BF480600209C1801080000002092
:101610006108002000010020740400209F180108C8
:10162000E41B0020DC21002070060020F80D0020C3
:10163000000C0140F00D0020E81B0020EFBEADDEE5
:10164000F04F00200400FA0500ED00E0D02100205A
:10165000D4210020022A04D13C2814BF00220322F6
:101660002EE0032A0BD140284FF0000228D883F83F
:1016700047205A7183F848001871042220E0042A98
:1016800006D11A7983F8460050401871052217E0F8
:10169000052A7FF468AF93F8481093F847209142E9
:1016A000197907D941401971511C83F84710134427
:1016B000987158E7814201D101F08EFF6B680022DA
:1016C00083F849204FE798F800303BB1B84B1A68CF
:1016D0001E4612F0200F40F085819AE1B268B54BAA
:1016E0001105F3D5B44A1278002AEFD093F8AF2150
:1016F00062B993F8B03113B9B04B5B7801E099F857
:10170000F830003318BF0123002BDFD096F8AE313C
:10171000002B72D1AA4BD86801F000F900286CD1D7
:10172000A84BD9F840141A68A74B511A7C2964D9E0
:10173000C3F8402493F844248046013283F84424BB
:1017400008F12400A04FC0B201F090F907F246431F
:1017500033F918000BF0BCFA9C4B824618880BF04A
:10176000B7FA014650460BF0BBFB99490BF004FB5E
:101770000BF0C8FC08F1010800B201F0A3F9B8F1C0
:10178000030FDDD1302001F071F9B7F94C0401F0FD
:1017900099F901F079F997F8440410F0030A2AD175
:1017A000102001F063F9D7F850344FF0640893FB30
:1017B000F8F000B201F086F9212001F057F9D7F8CE
:1017C000503493FBF8F008FB103888EAE870A0EB7F
:1017D000E87000B201F076F9142001F047F9B7F98A
:1017E0000A0101F06FF91C2001F040F9504601F0A8
:1017F00069F901F049F905F06DFB96F8AE31012B5E
:101800007FF464AF6E4EF06801F088F800283FF472
:101810005DAFF06801F07DF80746052001F089F919
:101820008A2F2FD08E2FEDD100212E2269480DF066
:10183000A8FC7C2389F88634E02389F889347D2349
:1018400089F8B234B9F85C3389F88774DAB21B0AC4
:1018500089F8A53489F89B34142389F89E3489F8D3
:101860009F344FF4FA73A9F8A0344823A9F8A83498
:10187000782389F8A42489F89A2489F8AA34554849
:101880002E2191E04A4B1B689A06BBD54E4E002193
:1018900006F254402C220DF074FC7C2389F8543459
:1018A000A02389F857347D2389F87F3499F83C3197
:1018B00089F8557489F86E34404BDB7A002B6ED072
:1018C000D6F86071444ADFF8188197FBF2F066237E
:1018D000C0B286F87D34FB0F08FB00774FF0060E90
:1018E0000EFB07F786F85D3442F21073B7FBF3F195
:1018F00000EB800003FB117700EB8000C9B201EB25
:101900008000D6F8641180B291FBF2F2D2B286F870
:101910005E04000A86F85F04C80F08FB02110EFB84
:1019200001F186F8620402EB8202B1FBF3F003FBE3
:10193000101302EB8202C0B200EB820292B286F870
:101940006324120A86F8642486F86534B6F8802485
:101950001B0A86F866346423B2FBF3F303EBC3037C
:101960009B009BB286F85B341B0A86F85C34B6F8A1
:10197000823486F8607486F867341B0A86F8683407
:10198000B6F85C313F0A86F869341B0A86F86A3477
:10199000B6F8843486F8617486F8703402E0202347
:1019A00086F87D340D482C2107F07CFC2AE700BF27
:1019B00070060020E81B0020F00D002061080020C8
:1019C00014070020E41B0020000100202400002058
:1019D00000007A4486050020A086010054050020FE
:1019E0006079FEFF8D4BD9F8B4141B688C4A591AE4
:1019F00000290EDB92F83C1104290AD903F51233B1
:101A000003F5F873C2F8B434864BDA6882F010023A
:101A1000DA60854B9B680BB18448984731680B07A7
:101A200035D5B9F82A217E4E02F145039BB28A2BA7
:101A300029D87F4B58791F4628B3B6F83831B6F805
:101A40000A01C01A80B283B21EB2B336BCBF00F521
:101A5000B4739BB218B2B3287E7B7648C4BFA3F59B
:101A6000B4739BB290F85C018EB140B240424343E4
:101A7000607A1BB243436FF01D0093FBF0F31A44EE
:101A8000A9F82A2103E0B9F80A31A9F838314F073B
:101A90007BD5674B9A79002A77D01E7C002E69D1BE
:101AA00094F8790094F878205D4B88B3B9F82CE16C
:101AB000B9F924010FFA8EF7C0EB0708B8F1000F4F
:101AC000B8BFC8F1000890450FDD8742C8BF524239
:101AD0001FFA8EFEC8BF92B2C3F83061724401266D
:101AE00083F8BA64A9F82C214FE093F8BA242AB1FC
:101AF000D3F8202183F8BA64C3F81C21D9F8343113
:101B00004C4A1844B2F84031B2F84221984229E0D8
:101B1000B9F92471B9F92C61F61B86EAE67EAEEBC1
:101B2000E67E96450ADD022296FBF2F60122C3F814
:101B3000BC6483F8C02483F8BA240AE093F8BA247A
:101B40003AB1D3F8206183F8C004C3F81C6183F86C
:101B5000BA043848D9F83421B0F840313A44B0F8E2
:101B600042019A4203DB8242B4BF13460346A9F8FE
:101B70002C310AE02F4BB9F8282193F99601D9F8B6
:101B8000343100FB0323A9F8283194F87C305BB191
:101B9000274BDA780AB91B7933B1B9F82C31B9F887
:101BA000C2241344A9F82C318E0640F1D480204B76
:101BB000DA791AB91A7A002A00F0C6801B7B002B4A
:101BC00000F0C280B9F90A010BF082F81A490BF053
:101BD000D3F807460DF0B4FD804638460DF03CFDC5
:101BE000134B0F4E1B7C0746002B40F0AA8094F845
:101BF000DBA0B6F97401BAF1000F6FD0B6F87031FE
:101C0000CAF100061FFA83FB1BB2C01A01F078FB71
:101C1000B04213DB5045A8BF504610E0D021002051
:101C200000010020000C014074060020B8050020CF
:101C300061080020E81B002035FA8E3C3046B9F8D8
:101C40006E218344B9F9720193B212B21FFA8BFB71
:101C5000801AA9F870B1019301F052FBB042019BC8
:101C600003DB5045B4BF064656461E449F48B6B2F5
:101C7000A0F86E610FFA8BF00BF02AF8824630B2B2
:101C80000BF026F83946064650460BF075F84146EB
:101C9000834630460BF070F8014658460AF062FF62
:101CA00093490BF01DF90BF02DFA9049A1F868014A
:101CB000414650460BF060F83946804630460BF0FE
:101CC0005BF8014640460AF04FFF89490BF008F9DE
:101CD0000BF018FA854AA2F86A013CE00AF0F8FF16
:101CE0008346B6F972010AF0F3FF39468246584638
:101CF0000BF042F841460346504601930BF03CF886
:101D0000019B014618460AF02DFF79490BF0E8F8CF
:101D10000BF0F8F94146A6F8680158460BF02CF88C
:101D20003946804650460BF027F8014640460AF0F7
:101D30001BFF6F490BF0D4F80BF0E4F9A6F86A0129
:101D400009E003F091FB06E00023A9F86831A9F847
:101D50006A31A9F86C31AB689847664B93F800B0CC
:101D6000BBF1030F13D9B9F92A11B9F9C824002915
:101D7000B8BF49426FF063035B1A9A4204DB01F17A
:101D800064039342A8BF1346A9F8C83408E0BBF126
:101D9000010F05D85849594B0A7C002A4FD161E000
:101DA00094F9D4A0B9F9C824CAF1000A02FB0AFACE
:101DB000B9F82C31B9F8C674B9F8C484504D00266E
:101DC0005E4505F11005E5D218B201930AF080FFD7
:101DD00055F8101C0AF0D0FF024638B202920AF001
:101DE00077FF55F8081C0AF0C7FF029A0146104613
:101DF0000AF0BAFE02460FFA88F002920AF068FF73
:101E000055F80C1C0AF0B8FF029A014610460AF079
:101E1000ABFE0246504602920AF05AFF55F8041CE7
:101E20000AF0AAFF029A014610460AF09DFE0BF046
:101E300069F9344A019B22F816000136C0E74A7856
:101E4000304812B9B3F844210BE0B9F92C51B3F87A
:101E50004021B3F84261954203DBAE42B4BF324643
:101E60002A4602805A79013AD2B2172A00F23C81FE
:101E7000012303FA02F2244B134053BBD00640F176
:101E8000338194F98430B9F99803204958433223B7
:101E900090FBF3F0B4F8823080B21AB2112ADCBFA2
:101EA0001B4B33F8123003440B80B9F9960394F9B5
:101EB0008E305843322390FBF3F0B4F88C3080B26C
:101EC0001AB2112ADCBF124B33F8123003444B8094
:101ED0000AE18B7AF3B1B9F82631ADF84030B9F8A0
:101EE0002831ADF84230B9F82A311DE00001002058
:101EF00000002041AC20002061080020E81B0020E9
:101F000030070020AE2000208920980080000020AB
:101F1000D4080020B9F8C434ADF84030B9F8C6345C
:101F2000ADF84230B9F8C834ADF84430B54B1B8831
:101F3000ADF84630B44BB3F88E21B44B1989511A21
:101F4000ADF848105989511AADF84A109989511ABB
:101F5000ADF84C10D989511AADF84E101988511AA4
:101F6000ADF850105988511AADF852109988511A8D
:101F7000ADF85410D988521AADF85620002202EB61
:101F800082012144B1F8821008B21128D8BF33F879
:101F900010109F4811520232102AF0D19D4B00219F
:101FA0001B785B0005930B46DDF814B05B4500F031
:101FB0008A80994D4A19907920B1484490F8F800E8
:101FC00000287BD0685C0A2505FB0045B5F88070C9
:101FD0007835ED8892F904B07F1BBFB207FB0BFB8D
:101FE00064259BFBF5FB92F801A055794FEA570C4D
:101FF00092F80380CCEB0B0B04951FFA8BFB874DFB
:102000004FEA4A0E16AEB8F1000F03D1764436F807
:10201000186C0CE0B6443EF918ECEE5E764508DA32
:10202000B044B04503DBC645B4BF76464646EE52E3
:102030000AE009DDC8EB0608F04503DBB045B4BF94
:10204000C646B64625F803E0DFF8D8E14FF00A08A7
:1020500008FB00EEBEF886E0DFF8C0814EFA0AFA0F
:1020600033F9088092F902201AF0010F02FB08F2FE
:102070004FF06408664D92FBF8F20FFA8BFB0CBF31
:102080004FF0010E4FF0FF3E5A4535F810601FFA31
:102090008EFE0EDBDDF810A04FFA8AFB07FB0BFB70
:1020A0009BFBF8FBCCEB0B0B0FFA8BFB9345A8BF0C
:1020B00093460BFB0E6B25F810B001E0574A98527F
:1020C0000233073170E7564A00235649B2F902003D
:1020D000194491F984100A334143642091FBF0F1D3
:1020E000502B22F8021FF0D1474CA36813F0200FA9
:1020F0004C4B3ED0B3F88220B3F88C5011B211296A
:10210000D8BF424A4248D8BF32F8112029B211291B
:10211000D8BF3E4D0280D8BF35F81150DFF810818E
:10212000458099F8EC003A492E4610B393F8D60052
:1021300093F98E5010F0020FB8F996734FF03200F9
:1021400093F984E0B8F998C318D07D43CEF1000E1E
:102150000CFB0EFC95FBF0F56FF03107ADB29CFB6C
:10216000F7F72F449CFBF0FC3A4465440A802E4468
:102170004E802B4A2B4902F1100610E00CFB0EFE9C
:102180007D439EFBF0FE724495FBF0F00A8006440E
:10219000EEE722F8020FB24201F10A010CD0B2F9C7
:1021A0000250B1F97E00B1F880708542F1DB38B29F
:1021B000A842A8BF2846ECE793F8D630590705D4C3
:1021C0001049194B08881B7801220FE0174B002596
:1021D0001E7E043E0D4BA81903EB4503C0B21989BE
:1021E000013501F09FF9042DF4D1E9E79A4221D29B
:1021F00031F9125000B28542A8BF284680B20132A0
:10220000F4E700BFAE200020E81B0020D408002027
:1022100080000020F0070020F1070020CA05002000
:102220007E000020C8200020AC20002014070020E1
:1022300000010020B4F84251B4F844C12A1A92B205
:102240000692A268B4F88E6102F4804102F0100296
:102250000D910E929A491FFA8CF2B4F84871B4F8B5
:1022600046B1B4F8408194F805900B92B4F89041CF
:10227000944AB1F9061009945478049192490C9447
:10228000924CB1F9B0A0B1F9B2E01FFA88F15B004D
:1022900007960A91567C61890F930597CDF800A0A7
:1022A000CDF820B000230F9FBB4271D002B2AA42EA
:1022B000DFF81CA205DD3AF80320069F3A442AF80D
:1022C00003200D9F824A002F39D0DDF810A0DDF8E1
:1022D0001CB0DA4532F903A018DD059FBA4503DBCF
:1022E000AA45A8BFAA4601E0DDF814A0B9F1010F84
:1022F00022F803A042D1DDF800A009B2514503DB6A
:102300007145A8BF714618E0009916E0E24505DB6B
:10231000DDF820B0DA45A8BFDA4600E0E246B9F1C0
:10232000010F22F803A029D109B2714504DB009AFC
:102330009142A8BF114600E0714689B21EE03AF909
:1023400003B0C34503DBAB45A8BFAB4600E0C346C3
:1023500022F803B0049FDDF824B002EB030A5F45C6
:102360000BDA0E9A1AB90A9FAAF8007006E0DDF897
:102370002CB00126AAF800B000E000260C9A2AB979
:10238000544A33F802A0524A23F802A002338AE7E3
:10239000514A4E4D4B4B6981917D5E741A4600291E
:1023A00068D04E4E7379013B172B58D8DFE803F005
:1023B0000C5757185A57571E57575757572557579F
:1023C00057575718255757343F4B93F8D53013B10B
:1023D000002069894CE050780028F9D1014647E097
:1023E0000020298901F09EF80120F2E70020E98809
:1023F00001F098F8012029893AE00020E98801F0ED
:1024000091F80120298901F08DF80220698901F0F5
:1024100089F80320A9892BE00020E18801F082F8E7
:102420000120218901F07EF80220618901F07AF80B
:102430000320A18901F076F8B368244DDA0719D595
:102440000420298801F06EF80520698801F06AF8F7
:102450000620A98801F066F80720E98908E0B3683A
:102460009B0607D50020298801F05CF869880120C7
:1024700001F058F800F022FC1EE0124B1B78002BF4
:102480003EF4B3A805F0C0FDFEF7AFB8012202E0AC
:10249000022200E003225FFA82F8002008F1FF33F5
:1024A000014684F8C03404F0C7FF022028214246C8
:1024B00000F06CFBFEF720B917B0BDE8F08F00BF4D
:1024C000D408002061080020C820002080000020DF
:1024D000AE200020EA05002014070020E81B0020A1
:1024E000016B0346C26810B5406941B1196C541ABA
:1024F000005D013918BF0A46C0B21A6410BD196ADE
:10250000405C0131B1FBF2F402FB1412C0B21A625A
:1025100010BD436B13B190F844007047826A436A60
:10252000D31A584258417047036B13B15A68036C71
:1025300001E0026AC369D01A18BF012070477047D2
:10254000034B4FF4805208B11A6170475A617047CB
:1025500000080140034B4FF4805208B15A617047A4
:102560001A61704700080140014B33F810007047B2
:10257000D4080020034B184490F88221024B33F812
:1025800012007047E81B0020D419002003799B0734
:102590000AD5436A8269D154426A03690132B2FBA7
:1025A000F3F103FB112343627047037913F0010336
:1025B0000BD0026AC3699A4205D09CBFC06812184A
:1025C000D31AD8B270470020704718467047037975
:1025D00010B513F0010304460ED0FFF7E6FF60B11B
:1025E000E3696269D05CE268C0B2013A934234BFE9
:1025F00001330023E36110BD184610BD426A806AB2
:10260000131A584258417047017170470A4B10B570
:1026100053F8200000244268138823F001031B04B0
:102620001B0C138083681C800368198013889BB27D
:1026300043F00103138010BD7C080020024B53F8C7
:1026400020301B68198070477C080020074BA1F5DB
:102650007A7153F820304FF47A701A689B894B4393
:1026600093FBF0F39BB21380704700BF7C080020FF
:10267000034B4FF480521A8008B1024B1870704718
:102680002400002058000020064B1A78064B12B197
:102690004FF4FF6201E04FF480521A8008B1034BFF
:1026A00018707047B811002024000020430000205B
:1026B0002DE9F04F504A514E17687389844630898E
:1026C000A7EB032785B0039187FB0001B288CB11EC
:1026D0001404C209F08842EA416287FB000114EB4E
:1026E000020872884FF000054FEAC2344FEA102208
:1026F000B08945EB030942EA01620B1287FB000136
:1027000014EB020A4FEAD05242EA41224FF0000590
:1027100045EB030B12F5FA604FEAE15343F1000178
:10272000CDE90001B0F5FA6F71F1000147DAA2FBC3
:10273000024502FB03F1052605EB4105A4FB06015A
:1027400006FB05114D104FEA3004B8EB040869EBA5
:10275000050984082A4844EA81748D104FF0FF313E
:10276000BAEB040A6BEB050BDDE9004584428D41B1
:1027700025DA40F6AC5012184FF0000143EB01038C
:1027800002FB03F1A2FB02236FF0060003EB4103FF
:10279000544200FB0344A2FB000118EB0008214453
:1027A0004FF00B0449EB0109A2FB040104FB0311E8
:1027B00049104FEA3000BAEB000A6BEB010B114BEA
:1027C0001A68A2FB0A0102FB0B11420D42EAC12268
:1027D0004B15B2EB080263EB0903D00B40EA434010
:1027E000BCF1000F01D0CCF80000039808B10099AB
:1027F000016005B0BDE8F08FBC110020D8060020B4
:1028000024FAFFFFC0110020324B2DE9F0411C8853
:10281000314B0A265A89B3F91250A41A1A89ED02CB
:102820005443B3F91420E413224495FBF2F22244FA
:10283000DA615643A2F57A6202FB02F4B3F904802E
:10284000B3F902C0B3F90E7002FB0CFC02FB08F2F4
:10285000B3F90C802413674304FB08F4241404EB3D
:1028600062320232DC88921002F50042B3F9205045
:102870006243B3F900304FEAEC2404EBE72404EBA5
:102880008304AC40154B02341B68D20BA3EBA404A9
:102890004CF250332B41634355BF5B00B3FBF2F363
:1028A000B3FBF2F35B001A12524340F6DE3462438C
:1028B0000B4C08365C43241404EB224202F6CF6230
:1028C000361103EB221300B1036001B10E60BDE8C5
:1028D000F08100BFCC1100209C060020C811002010
:1028E00043E3FFFF38B50C68054620460CF06BFC4F
:1028F000214602462868BDE838400CF06DBC08B59A
:1029000003685B69984708BD08B50368DB689847AA
:1029100008BD08B503689B68984708BD08B50368FB
:102920005B68984708BD08B503681B68984708BDF1
:1029300038B5064D04462B6821461868FFF7F3FFAB
:102940002B681A7954401C7138BD00BF0400002068
:1029500038B5044624200D46FFF7EAFF4D20FFF767
:10296000E7FF002C084C0CBF3E202120FFF7E0FFC2
:102970002368002228461A71FFF7DAFF236893F8CC
:102980004600BDE83840D3E704000020014600209F
:10299000DEE710B50446C0B2FFF7CAFFC4F3072054
:1029A000BDE81040C4E710B50446C0B2FFF7C0FF51
:1029B000C4F30720FFF7BCFFC4F30740FFF7B8FFDD
:1029C000200EBDE81040B3E7014B1868ABE700BF2D
:1029D0001407002010B5441E14F8011F21B1034B49
:1029E0001868FFF7A0FFF7E710BD00BF140700202D
:1029F000F8B5184B1B78042B28D1174B08221A6105
:102A000010221A61154CA068FFF788FF58B1124DCB
:102A100008266E61A0682768FFF77BFF01463846ED
:102A2000FFF781FF2E6120680C4EFFF777FF00282B
:102A3000E8D0094C102565613068B768FFF769FF79
:102A400001463846FFF76FFF2561DBE70448BDE824
:102A5000F840BFE720090020000C014014070020C7
:102A6000CF3101080048B5E7F531010838B5054C0C
:102A700005465E21E068FFF756FFE0682946BDE89D
:102A8000384050E714070020014B5E21D8684AE720
:102A90001407002010B50A4C5E280146E06805D1F5
:102AA0005D21FFF740FFE0683E2105E05D2903D18D
:102AB000FFF739FFE0683D21BDE8104033E700BF74
:102AC0001407002010B50446C0B2FFF7E3FFC4F3BB
:102AD0000720BDE81040FFF7DDBF08B5014B1B68BC
:102AE000984708BDE021002010B5094A094913683C
:102AF0008C6812689342F8D1074A106811684FF445
:102B00007A725043001BB0FBF1F002FB030010BDD2
:102B1000E41B002010E000E02006002038B5044649
:102B2000FFF7E2FF0546FFF7DFFF401BA042FAD3A5
:102B300038BD10B504462CB14FF47A70FFF7EEFFA4
:102B4000013CF8E710BD40F2DB14604308B50E4BC2
:102B500010221A6108225A61841E0B4B2046DA6843
:102B600082F01002DA60DA6882F00802DA60FFF7B9
:102B7000E0FF0120FFF7B1FF1920FFF7DAFF002087
:102B8000FFF7ABFFE9E700BF000C01402DE9F04182
:102B900006460F4690460025EBB2434518D2002466
:102BA000E3B2B3420FD20B4B0120DA68013482F05A
:102BB0000802DA60FFF791FF3846FFF7BAFF0020FE
:102BC000FFF78BFFECE73C20FFF7B3FF0135E3E7AE
:102BD000BDE8F081000C01402DE9F0410F88002391
:102BE00047FA03F2D2072BD58A7803F0070512F0D3
:102BF000100F18BF91F803C002F00F0618BF46EA85
:102C00000C06AD004FF00F0C0CFA05FC06FA05F5AA
:102C1000DC0850F82480282A28EA0C0C45EA0C0528
:102C200040F8245005D101229A40C46824EA0202E7
:102C300005E0482A04D101229A40C4682243C260B8
:102C40000133102BCCD1BDE8F081044B1B685A79BD
:102C5000511C597113449879704700BF040000203B
:102C600010B5FFF7F2FF0446FFF7EFFF04EB00207B
:102C700080B210BD10B5FFF7F3FF0446FFF7F0FF79
:102C800004EB004010BD10B590429DF8084011D1F2
:102C90001942094B4FF00A0202FB00304FF00103CA
:102CA00003FA04F4B0F8863014BF1C4323EA04048A
:102CB000A0F8864010BD00BFC820002010B5002439
:102CC000084BE0B21B7883420BD9074B33F8101046
:102CD000064B1B78834202D9054B1B689847013489
:102CE000EEE710BDAC200020AE20002078080020C8
:102CF000D00800202DE9F04F0C68836889B0D0F827
:102D000000A0D0F804800646204603938B460CF0C2
:102D1000A3FC074620460CF013FDDBF80440814677
:102D200020460CF099FC054620460CF009FDDBF826
:102D300008200446104601920CF08EFC019A83464E
:102D400010460CF0FDFC3946029058460AF014F883
:102D50003946049002980AF00FF859460590484603
:102D60000AF00AF80299069048460AF005F8294642
:102D7000079058460AF000F80146504609F0FCFF5B
:102D800021468346069809F0F7FF0146059809F0A9
:102D9000EBFE0146404609F0EFFF0146584609F0B8
:102DA000E3FE21468346049809F0E6FF01460798B2
:102DB00009F0D8FE0146039809F0DEFF01465846A7
:102DC00009F0D2FE3060029905F1004009F0D4FF0D
:102DD0000146504609F0D0FF21468346079809F086
:102DE000CBFF0146049809F0BDFE0146404609F0BC
:102DF000C3FF0146584609F0B7FE214683460598B1
:102E000009F0BAFF0146069809F0AEFE01460398A4
:102E100009F0B2FF0146584609F0A6FE214670604F
:102E2000504609F0A9FF2946044609F1004009F07F
:102E3000A3FF0146404609F09FFF0146204609F0E6
:102E400093FE39460446284609F096FF014603984A
:102E500009F092FF0146204609F086FEB06009B0F5
:102E6000BDE8F08F2DE9F84F374E044637683846F5
:102E70000CF0F2FB054638460CF062FC76688046A2
:102E800030460CF0E9FB834630460CF059FCD4F890
:102E9000049006462946484609F06EFFA768824618
:102EA0004146384609F068FF0146504609F05AFE8F
:102EB00021688246584609F05FFF4146044648466D
:102EC00009F05AFF314609F057FF0146204609F044
:102ED0004BFE31460446384609F04EFF294609F0BC
:102EE0004BFF0146204609F03FFE014650460CF0DC
:102EF000B5FC164909F040FF09F052FB10A3D3E9D5
:102F0000002309F0CBFC124B044618680D4609F06B
:102F100047FB02460B462046294609F0E3F900220A
:102F20000C4B09F0BBFC09F0C9FD0CF0CBFB83B2E4
:102F30001A0444BF00F5B4739BB218B2BDE8F88F11
:102F4000182D4454FB210940801A00200000E14460
:102F5000FC0600200000244080EAE073A3EBE0734D
:102F60008B4206DB002801DD401A704702D008447E
:102F700070470020704770B50546441E14F8011FC5
:102F800061B1074E30460CF011F90028F6D0861BCF
:102F90000448631B304480F88231EFE770BD00BF06
:102FA000303A0108E81B0020024B9A6810439860F1
:102FB000704700BFE81B00200F4B1A78492A17D131
:102FC000598840F2C442914212D11A79BE2A0FD1D7
:102FD00093F8C2240020EF2A0CD113F8012B5040A3
:102FE000064A9342F9D1D0F1010038BF0020704762
:102FF00000207047704700BF00F80108C4FC0108BA
:1030000008B5FFF7D9FF10B90A20FFF79CFD0D4B5B
:103010000D49184640F2C4420CF0AAF890F8C024BA
:10302000022A84BF002280F8C02490F8C0144FF414
:10303000827202FB0101054801F5DA710CF098F883
:1030400008BD00BFE81B002000F80108C8200020D0
:103050002DE9F04102780346202A00F10100F9D061
:10306000092AF7D02D2A02D10346414D04E02B2A2C
:1030700008BF03464FF07E551E460024334616F81F
:10308000012BA2F13007F9B209290DD839492046A0
:1030900009F072FE0446384609F01AFE0146204641
:1030A00009F062FD0446E9E72E2A17D1314F334675
:1030B00016F8010B3038C2B2092A0FD809F008FE01
:1030C000394609F00DFF0146204609F04DFD29491A
:1030D0000446384609F050FE0746E8E71A7802F041
:1030E000DF02452A38D15A782D2A02D1023301262F
:1030F00004E02B2A14BF013302330026013B0027D2
:1031000013F8012F303AD1B2092903D80A2101FB63
:103110000727F5E7B7F59A7F28BF4FF49A77B846A7
:103120004FF07E51B8F1070F07D90846124909F050
:1031300023FEA8F108080146F4E707F0070737B1B6
:1031400008460C4909F018FE013F0146F7E72EB189
:10315000204609F0C5FE04E04FF07E51204609F0FC
:103160000BFE0146284609F007FEBDE8F08100BFCE
:10317000000080BF0000204120BCBE4C70B5064658
:10318000B6FBF2F40846154614B12046FFF7F6FFE9
:1031900005FB1464024B1B5D00F8013B70BD00BFD2
:1031A0002332010890F83B3210B57BB990F83A32DF
:1031B00090F83922934209D201219940B0F8404257
:1031C00001332143A0F84012DBB2F3E710BD90F8C1
:1031D00042321BB1D1F1010138BF0021D0F83431A6
:1031E0005A689B6809B11361704753617047F8B51D
:1031F000101A0C461F4609F06BFD0546381B09F0F6
:1032000067FD184B079E196809F0B6FD294604466C
:10321000284609F0B1FD21460746204609F0ACFDDD
:103220000146384609F0A0FC0CF0A2FC0E4909F05A
:10323000A3FD09F067FF069B2146186005F10040D9
:103240000CF00CFB094909F097FD094909F08CFCC9
:1032500009F058FF0028BCBF00F50C40A0303060DA
:10326000F8BD00BF3C0000202C7D8E3FA00CB34574
:1032700000A00C4610B509F02BFD0021044609F012
:1032800037FF08B1204601E004F10040054909F08C
:1032900027FE054909F070FD0CF0DEF9034B1860BC
:1032A00010BD00BF8096184B35FA8E3C3C000020C4
:1032B00038B50C4DEB7AA3B10B4B1B78042B10D90E
:1032C0000A4B0B4C18685B6820606360FFF7D2FF05
:1032D000084B1A88084B1A80084B1B88A3600123EF
:1032E0002B7338BD610800203C02002060020020E2
:1032F000400200200A0200207C1100205C02002015
:1033000044F25063984203DDA0F50C40A0387047AA
:10331000034B9842BCBF00F50C40A030704700BF83
:10332000B0B9FFFF70B52D4C2D4D607909F0CCFC84
:103330002C4909F0D5FD2860E07B09F0C5FC29493E
:1033400009F0CEFD284E6860EE60A07909F0BCFC63
:10335000264909F0C5FD264D2860207C09F0B4FC03
:10336000204909F0BDFD6860A07E09F0ADFC21494F
:1033700009F0B6FDEE60A860E07909F0A5FC1B49F4
:1033800009F0AEFD1C4D2860607C09F09DFC1549DC
:1033900009F0A6FD6860E07E09F096FC154909F089
:1033A0009FFD164BA8601B7CEE60ABB1207909F045
:1033B0008BFC0E4909F094FD114D2860A07B09F0AB
:1033C00083FC084909F08CFD6860207E09F07CFCD4
:1033D000084909F085FDA86070BD00BFC820002025
:1033E000381100200000C8420000FA4400002041CB
:1033F0004811002000007A446C1100206108002070
:10340000901100202DE9F047334A002392F8205014
:10341000D47F03FB03F01938684300F6C410584307
:10342000604340F6C41190FBF1F02C4921F81300E1
:103430000133072BEDD192F8213092F82260284A0F
:10344000C3F1640CB2F84051B2F8429103EB830728
:1034500058425FFA8CFC7F00C6F16408C5EB09098D
:1034600080B2002284B221B2002904DC002C14BFF7
:103470001C46012400E0644601FB01FA64430AFB98
:1034800006FA9AFBF4F444444C434FF00A0A94FBC6
:10349000FAF43C4424B204FB09F44FF47A7194FB2F
:1034A000F1F410492C44545202325044182A80B28C
:1034B000D8D1094B1A780C4B022A06D0032A06D021
:1034C000012A14BF094A0A4A02E00A4A00E00A4AED
:1034D000BDE8F0471A6025E7C82000201E04002040
:1034E000E81B00203604002008000020019300089B
:1034F0008DAF0008E9AC000815B10008084B9A89A7
:1035000098811A89D007FCD5054B9889C0B2044B25
:103510001A899107FBD51A891206FCD4704700BF9F
:1035200000380040044B1B78834204D9034B53F806
:1035300020301B6819807047AC080020B0080020BC
:1035400003280E4B09D80E4A12888A4205D201225E
:1035500002FA00F01A78104318701B780F2B0BD169
:10356000064B00221A70074B198808B2142802DD96
:103570001439198070471A80704700BFFC0D002075
:10358000260000201C010020104B10B55A885980DD
:10359000891A9A8089B240F68C2291421C4602D93F
:1035A00000229A7110BDA1F2EF2292B240F2DA53DA
:1035B0009A4207D8A079072804D8054B23F81010A1
:1035C000FFF7BEFFA3790133A37110BDFC0D0020EE
:1035D000D4190020AFF300802DE9F347B84D2B68D4
:1035E00093F84630752B00F0DF8400F2EF80692BF2
:1035F00000F0388400F2A280452B00F02F871CD801
:10360000422B00F0EE860BD8402B00F00D87412BAB
:1036100040F036870020FFF7B9F9002400F012BF10
:10362000432B00F0B886442B40F02A870020FFF798
:10363000ADF90122A34B00F00FBF662B00F05C82B6
:1036400071D8642B00F03382652B40F019870B2072
:10365000FFF79CF99C4BB3F90000FFF79AF99B4BDD
:10366000588800B2FFF795F9994B1B68C3F3C00067
:10367000C3F38002800040EA4200C3F340021043DB
:10368000C3F3401240EAC20003F010031843FFF7EF
:1036900080F9904A00201479D378A40044EA4304C6
:1036A00053781C43937944EAC304537944EA43149E
:1036B000537A44EA8314884BD97944EAC114197ABD
:1036C00044EA0124597A44EA4124D17944EA812424
:1036D000117A927A44EAC12444EA02345A7B44EAD9
:1036E00042349A7B44EA82341A7C44EA02441A79CE
:1036F00044EA02145A7C44EA42449A7C44EA8244F2
:10370000DA7C44EAC2441A7D44EA02545A7D44EA0F
:1037100042549A7DDB7D44EA825444EAC3546F4BA1
:1037200019780346D3E1672B00F02082682B40F024
:10373000A7861020FFF72AF900248BE36F2B00F0F7
:10374000028424D86C2B00F0B98318D86A2B00F0BF
:1037500095836B2B40F094860520FFF717F9604B9B
:10376000B3F90000FFF715F95E4BB3F90000FFF75E
:1037700010F9564B187800F0010000F009BD6D2BD0
:1037800000F0AA836E2B00F0B28300F079BE722B9A
:1037900000F088840FD8702B00F0F383712B40F079
:1037A0006F864E4E00243078400000F0FE00FFF798
:1037B000EDF800F02DBC732B00F0BA84742B40F0B0
:1037C0005F864FF00008012400F03FBCCD2B00F0D5
:1037D000208500F29380A62B00F0BA8525D8782B9F
:1037E00000F0D1810DD8762B00F0AD84772B40F01E
:1037F00047863A4C00262078FFF7C8F8274600F0A5
:103800004BBCA02B00F03F85A42B40F039862F4EF7
:103810000024307D374680000130C0B2FFF7B6F893
:10382000307DFFF785F800F03CBDCA2B00F0FD802D
:1038300022D8C82B00F0E280C92B40F02186FFF788
:1038400004FA244B284CD872FFF7FFF9274B187065
:10385000FFF710FA2060FFF70DFA6060FFF700FA3B
:10386000234B1880FFF7FCF9224B1880174B1A786E
:1038700042F002021A70E7E0CB2B00F0BD80CC2BA7
:1038800040F0FE85FFF7E1F91B4CE077FFF7DDF92B
:1038900084F82000FFF7D9F984F82300FFF7D5F961
:1038A00084F82400FFF7D1F984F82500FFF7CDF95B
:1038B00084F82100FFF7C9F984F82200C4E000BFB2
:1038C00004000020380500201C040020040E002005
:1038D0007006002061080020E40100200417002089
:1038E0008205002084050020600200203C020020A8
:1038F0005C02002080050020C8200020D32B00F0AF
:10390000D18058D8D02B00F07B844DD8CE2B00F03E
:103910008A84CF2B40F0B485FFF7A2F96FF4AF6132
:103920004318C64CC62B98BFA4F88E01FFF798F930
:10393000A4F84001FFF794F9A4F84201FFF790F9C9
:10394000A4F84401FFF78CF9BD4EA6F8D000FFF7AC
:103950007CF984F89E01FFF778F984F89F01FFF75E
:1039600074F984F8A001FFF770F984F87C01FFF77F
:103970006CF984F89701FFF768F9FFF771F900EB2C
:10398000800040003085FFF760F984F87D01FFF783
:103990005CF984F87F01FFF758F984F87E01FFF79E
:1039A00054F984F880014FE0D12B00F0F483D22B3E
:1039B00066D000F065BDEF2B2FD008D8D42B00F0D7
:1039C0007681D62B08BF002452D000F059BDFA2BC7
:1039D00000F03184FE2B00F03984F02B40F050854C
:1039E000974C0420FEF7D2FFB4F92C00FEF7D1FF6C
:1039F000B4F92A0000F015BD00242AE00024FFF7E6
:103A00002FF9904B18530234102CF8D10020FEF7F8
:103A1000BDFF01228C4B00F01FBDFFF721F9884C40
:103A2000A085FFF71DF960850EE0884C04F10A06B9
:103A3000FFF70BF901346070FFF707F9E072FFF749
:103A400004F9B4426075F3D10020FEF79FFF00F047
:103A50001BBD7F4B1B789C42F6D27E4BE65CFFF78A
:103A6000FFF8774B013403EB4606A6F84600F0E773
:103A7000FFF7F6F8784B18530234102CF8D1E3E72F
:103A8000764B5C78002CDFD1FFF7DFF86B4B022818
:103A900098BF83F8C0044FF0000088BF83F8C0448B
:103AA0000146CFE3FFF7DCF86D4B1880CCE7072029
:103AB000FEF76CFFE720FEF73BFF604B5879FEF7FF
:103AC00037FF0120FEF734FF664800F0D6BC8B427A
:103AD0000CD2604A9E5C012202FA06F6264218BF0A
:103AE0009A4003F1010318BF1043F0E7FEF75BFFB4
:103AF000524B93F8C0044BE31220FEF747FF5A4B9A
:103B00005A4C1B88B3F5806F23D90026A05F082389
:103B100090FBF3F00236FEF73CFF062EF6D1544C34
:103B2000B4F90400FEF735FFB4F90600FEF731FFE3
:103B3000B4F908004F4CFEF72CFFB4F90000FEF773
:103B400028FFB4F90200FEF724FFB4F9040000F0E6
:103B500068BCB4F90000FEF71CFFB4F90200FEF7E0
:103B600018FFB4F90400FEF714FFD8E71020FEF7A1
:103B70000DFF0024404B185D0134FEF7D9FE102CD8
:103B8000F8D100F081BC3820FEF700FF2C4C002655
:103B9000B4F97E00FEF7FDFEB4F98000FEF7F9FEF1
:103BA000B4F98200FEF7F5FE244B94F884005B79AB
:103BB000082B18D004D8012B0DD0042B05D06DE0B4
:103BC000142B1ED0152B2ED068E0F3B2042B2FD06F
:103BD000052B2DD062E0F3B2052B5FD1B4F886300F
:103BE00013F0040F1BE0F3B2032B01D0042B55D1CB
:103BF000B4F886309A0748BF40F0010013F0010F77
:103C000049E0F3B2042B04D1B4F8863013F0020F6C
:103C100005E0052B42D1B4F8863013F0010F3DD0FA
:103C200040F001003AE0F3B2032B01D0042B25D180
:103C3000B4F8863013F0020F28E000BFE81B002024
:103C4000C8200020D408002058010020C7200020F0
:103C500004170020EC160020EA050020610800206F
:103C6000380200200C0000C024000020460500207F
:103C7000040E00202403002080000020052B01D02A
:103C8000062B0BD1B4F8863013F0010F18BF40F0AB
:103C9000010013F0040F18BF40F002000136FEF7D8
:103CA00047FE082E04F10A047FF472AFECE3002013
:103CB000FEF76CFEDFF84C930026FEF7D1FFA9F863
:103CC0007E00FEF7CDFFA9F88000FEF7C9FFA9F836
:103CD0008200FEF7BAFF20F0030389F88430B84B66
:103CE00004465F79082F78D029D8012F71D0042F8E
:103CF00040F0A9804FF0010A5FFA86F85346CDF8EC
:103D000000A0404621463A46FEF7BDFF5346CDF897
:103D100000A040464FF0020A21460522FEF7B3FFFD
:103D2000404621463A465346CDF800A0FEF7ABFF89
:103D3000CDF800A0404621460522534681E0142FCD
:103D40006FD0152F7FD1F7B24FF001084346CDF861
:103D50000080384621460322FEF795FF4FF0000A07
:103D60004346CDF80080384621460422FEF78BFFFB
:103D70004346384621460522CDF800A0FEF783FFD2
:103D8000434638464FF0020821460622CDF800A0EF
:103D9000FEF779FF3846214603224346CDF80080DE
:103DA000FEF771FF3846214604224346CDF80080D5
:103DB000FEF769FF3846214605224346CDF80080CC
:103DC000FEF761FFCDF800803846214606224346C3
:103DD00037E002230093F0B230E04FF00108F7B271
:103DE0004346CDF80080384621460322FEF74BFFBC
:103DF0004346CDF800803846214604224FF00008A3
:103E0000FEF741FF3846214603220223CDF8008009
:103E1000FEF739FFCDF80080384621460422022300
:103E20000FE05FFA86F8012740463B46009721469F
:103E30000422FEF728FF0023009340462146052276
:103E40003B46FEF720FF0136082E09F10A097FF4F0
:103E500034AF19E35B4B185D0134FEF769FD102C9C
:103E6000F8D111E31020FEF791FD0024564B185FA6
:103E70000234FEF78EFD102CF8D105E31020FEF77A
:103E800085FD524B524CD87AFEF752FD514B1878B3
:103E9000FEF74EFD2068FEF786FD6068FEF783FDA5
:103EA0004D4BB3F90000FEF774FD4C4BB3F9000025
:103EB000FEF76FFD4A4BB3F90A00B2E2494C062007
:103EC000FEF764FDB4F90000FEF763FDB4F90200EB
:103ED000FEF75FFD444B07E00620FEF757FD434B1E
:103EE0001868FEF760FD424BB3F9000099E2072025
:103EF000FEF74CFD3F4B4FF6FF741888FF28A8BF14
:103F0000FF20C0B2FEF714FD3B4B1868A042A8BFCB
:103F1000204620EAE07000B2FEF73BFD374BB3F9D4
:103F20000000FEF736FD264B93F87C21344B1868D1
:103F30000028B8BF40420AB10A235843A042A8BF94
:103F4000204600B26DE22F4C0720FEF71FFDE07FF8
:103F5000FEF7EEFC94F82000FEF7EAFC94F823004C
:103F6000FEF7E6FC94F82400FEF7E2FC94F8250046
:103F7000FEF7DEFC94F82100FEF7DAFC94F822004C
:103F800006E11E20FEF702FD1F4C04F10A06013473
:103F90006078FEF7CDFCE07AFEF7CAFC607DFEF7A4
:103FA000C7FCB442F3D16FE22F20FEF7EFFC174CB1
:103FB00014F8010F002800F06782FEF7B9FCF7E75C
:103FC000E81B0020AE200020D4080020610800205B
:103FD000600200203C0200205C02002080050020DE
:103FE000040E0020960400200A0200202002002077
:103FF0004C0500205C04002070040020FC0100201F
:1040000064040020C8200020C7200020532101089C
:1040100033789C4280F03882B64BE25CB64B013478
:1040200003EB4203B3F94600FEF7B3FCF0E780442C
:104030000136B24B1B789E4209DB002C00F0248233
:104040005FFA88F0FEF7A2FC00240026F1E7A94BF6
:10405000AB4AF35C0C2101FB0323D3F834904846B0
:104060000BF0B1F88246002CE1D127465745DFDA44
:1040700019F80700FEF75CFC0137F7E7A14B9D4AF2
:1040800023441B7AB05C984201D1FEF751FC0C34FA
:10409000B4F5907FF2D101363B789E4280F0F481F6
:1040A0000024EBE7984C1620FEF770FCB4F98E0163
:1040B000FEF76FFCB4F94001FEF76BFC8E4EB4F9CD
:1040C0004201FEF766FCB4F94401FEF762FCB6F962
:1040D000D000FEF75EFC94F89E01FEF729FC94F8F0
:1040E0009F01FEF725FC94F8A001FEF721FC94F84F
:1040F0007C01FEF71DFC94F89701FEF719FC0020E7
:10410000FEF716FCB6F928000A2390FBF3F0FEF741
:1041100040FC94F87D01FEF70BFC94F87F01FEF75C
:1041200007FC94F87E01FEF703FC94F880012FE071
:104130000820FEF72BFC0124E0B20134FEF7F8FB67
:10414000092CF9D1A0E1FEF780FD07461220FEF709
:104150001DFC0FB96D4B02E0102F03D16C4B1E6894
:104160005C6801E0002426463846FEF7E1FB304655
:10417000FEF719FC2046FEF716FC664B1868FEF7A2
:1041800012FC0020FEF705FC0020FEF702FC0020D8
:10419000FEF7CEFB78E1FEF758FD8046FEF76AFD9C
:1041A0000746FEF767FD0646FEF764FD0446FEF788
:1041B00057FDFEF755FDFEF748FDB8F1000F0DD194
:1041C000524B00225E601F60534BDA7101221A735A
:1041D000002C3FF439AC4F4B1C6035E4B8F1100FA4
:1041E0007FF432AC4A4B1F605E600CB1494B1C60DF
:1041F00047484A4B0222011D1A7004F0AFFE23E427
:10420000454B5B78002B7FF41FAC012003F0B2F923
:104210001AE4414B5B78002B7FF416AC404B4FF413
:10422000C8721A8010E43C4B5A78002A7FF40CAC18
:1042300001229A7308E4384B5B78002B40F0208110
:104240000020012103F0F8F8FFF7FEBB0820FEF77D
:104250009DFB344B344A1B680024B3FBF2F3C3EBE1
:10426000431103EB810331490968B1FBF2F2304994
:1042700002EBC3034B822F4B185F0234FEF789FB1E
:10428000082CF8D100E10C20FEF780FB2A4B1868BF
:10429000FEF789FB294B1868FEF785FB284B186849
:1042A000EBE03B7D9C4213D2264E305DFEF740FB97
:1042B00006F12003185DFEF73BFB06F14003185D95
:1042C0006036FEF735FB305DFEF732FB0134E8E780
:1042D0000D4B93F89E31012B40F0D68000241A4BF1
:1042E00098681A4B195D0134FEF71DFB082CF6D1B6
:1042F000CAE000BFEC160020C820002004170020F0
:104300005421010884210108E81B002040020020FC
:10431000500200201C020020610800204C020020F6
:10432000DC2100200C00002040420F009000002003
:10433000040E0020100E0020E8F7FF1FECF7FF1F0F
:10434000F0F7FF1F190E002014070020B02201080B
:104350001020FEF71BFB504B504C1E6816F0200639
:104360000CD0D4F89830D4F89C00C01AFEF71BFB90
:10437000D4F8A400D4F8A030C01A03E03046FEF709
:1043800012FB3046FEF70FFBD4F8A800FEF70BFB3C
:10439000D4F8AC0071E00020FEF7F8FAFEF755FC07
:1043A0003F4C0023A3606071FEF764FCFEF7FCFD48
:1043B000FEF74BFC84F88A01FEF752FCA4F8560184
:1043C000FEF74EFCA4F85801FEF74AFCA4F85A0187
:1043D000FEF746FCA4F87801FEF742FCA4F87A0147
:1043E00052E02F4C1020FEF7D1FA6079FEF7A0FAC8
:1043F000A068FEF7D8FA94F88A01FEF799FAB4F9A2
:104400005601FEF7C6FAB4F95801FEF7C2FAB4F93C
:104410005A01FEF7BEFAB4F97801FEF7BAFAB4F918
:104420007A01FEF7B6FA2FE00820FEF7AFFA002473
:104430001B4B234493F882010134FEF779FA082CD0
:10444000F6D121E0FEF701FC154B23440134082C82
:1044500083F88201F6D117E01A7015E01320FEF7F9
:1044600095FA00240F4B185D0134FEF761FA0B2C0E
:10447000F8D10020FEF797FA0020FEF794FA03E047
:1044800001200021FEF764FA2B68187902B0BDE81C
:10449000F047FEF74DBA00BF70060020040E002062
:1044A000E81B0020483201082DE9F04F954B95B0EC
:1044B0009B68CBB9944D2B78013B042B00F25987B4
:1044C000DFE813F06A066A066A0647072A07A0684B
:1044D000FEF71FFA8D4B054693F89E31012B00F035
:1044E0002D8108D3022B06D0864CA068FEF716FA61
:1044F0000028ECD1DEE7242D854C0CD006D80A2DFF
:1045000000F08C800D2D00F08980E6E02A2D07D088
:104510002C2D05D0E1E0002323706370A370EDE043
:104520006278267822440021794BD170EEB9DA788E
:104530009E74472A19D11A79502A16D15A79472AD6
:1045400007D19A79472A04D1DA79412A01D1012287
:104550009A7462796E4B522A07D19A794D2A04D106
:10456000DA79432A04BF02229A74A37C684F012B94
:1045700002D0022B33D046E0B31E072B43D8DFE82E
:1045800003F0040810141C24422905F029FD606181
:1045900039E0E2785E4B532A35D15A6952425A616A
:1045A00031E005F01DFDA0612DE0E278584B572A5F
:1045B00029D19A6952429A6125E0E278554B302A16
:1045C00094BF00220122DA721DE0002005F0E8FC11
:1045D000207718E0002005F0E3FCE08313E0072ECD
:1045E00006D0082E0FD1012005F0DAFC78840AE00D
:1045F000012005F0D5FC41F2184358434FF47A727C
:10460000B0FBF2F33B84013600232A2D404A26708A
:1046100063706ED1012182F824106FE094F8243089
:10462000002B55D03A4BDB78402B04D9A3F137024D
:104630001201D2B202E01B0103F0F0022379A1784B
:10464000402B8CBF373B303BDBB21344DBB299428B
:104650002F4A3DD1937C012B02D0022B1FD037E093
:104660002C49C87A08B9012333E02B485569056005
:1046700095694560157F2948D28B057028480280CE
:10468000284800684507EED4097C0029EBD026496C
:104690008968521A64214A4324490A6019E0244B6C
:1046A000118C508C19801F4B224E1B68308013F0E8
:1046B00008070DD164290BD90A256843FEF720FEAF
:1046C00090FBF5F080B21C4BB0FBF5F530801D80FF
:1046D0000023002284F8242010E063780C4A0E2B7B
:1046E00003D8591C13445170DD7094F82430084AE3
:1046F0001BB991784D40957000E0002303F0010351
:1047000099E100BF1407002020090020E81B0020C9
:10471000B40E002061080020600200203C0200204E
:104720005C020020700600204002002020020020D1
:10473000800500200E0E00200A020020A74C002257
:1047400094F82530082B00F27581DFE803F00B05A3
:10475000141C2D3D5B7A8700622801D1022307E0FB
:1047600084F82520B52D40F0658194F8253001337B
:1047700084F825305EE1032384F8253084F8260090
:1047800084F8270056E1042384F8253094F8263075
:1047900094F827200344DBB284F82630134484F8CD
:1047A000273084F8280045E1052384F8253094F863
:1047B000263094F827200344DBB284F826301344D3
:1047C00084F82730608535E1062284F8252094F8A6
:1047D000262094F827100244D2B284F826200A44F6
:1047E00084F82720628D7D4B02EB0025ADB2B5F534
:1047F000E87F89BF00225D855A8583F82520002344
:10480000A38518E194F8263094F827200344DBB2FE
:1048100084F82630134484F82730A38DB3F5E87F5D
:1048200003D26E4A1A4482F830000133628D9BB283
:104830009A42A38540F0FE80684B072283F825202A
:10484000F8E0082384F8253094F82630834200F0FD
:10485000F180624A002382F82530ECE084F82520BC
:1048600094F827205D4B824240F0E48093F82820A2
:10487000062A51D004D8022A12D0032A39D0D9E00E
:10488000122A5FD0302A40F0D58093F83420544B60
:10489000202A88BF20221A701978524A002373E018
:1048A000514A596B51485160996B11601A6C4FF421
:1048B0007A7192FBF1F24E490A80596C0160996C51
:1048C0004C48016093F800024B49C872012083F8FC
:1048D00001024A4B1B68580709D40B7C3BB1484B7B
:1048E00092B29B68D21A64235A43464B1A60464BD5
:1048F00060E093F8352012F0010205D093F83430CF
:10490000D91E4B424B4100E0134684F80032002B85
:1049100055D1394AD37252E093F83B2012F001028C
:1049200005D093F83A30DA1E5342534100E0134663
:1049300084F800320BB9304AD37294F85F20334BBD
:104940001A703CE0B3F84420314942F210700A80FA
:10495000996C304E91FBF0F0012183F80212274B45
:1049600030801B681B072AD4642A28D90A2580B204
:104970006843FEF7C5FC90FBF5F080B2264BB0FB18
:10498000F5F530801D801AE08B4202F10C0210DA3E
:1049900012F8045C21481D5412F8035C20481D5491
:1049A00012F8015C1F481D5415781F481D5401332F
:1049B000EAE71E4B5A681A601D4A12685A6094F85A
:1049C0000122064BB2B393F802229AB3002283F875
:1049D000012283F8022201232DE000BFB40E002043
:1049E000180E0020E40E002060020020AC0E002013
:1049F0005C020020B00E002061080020700600203C
:104A000040020020200200209C0E00203C020020DA
:104A1000800500200E0E00200A020020190E002042
:104A2000390E0020590E0020790E0020A40E00201F
:104A3000E41B00200023002B3FF456AD994B9A4D08
:104A40009A68DA602A689A60984B1A6842F02002E5
:104A50001A60974B1A78012A0CBF002201221A70A3
:104A6000944BDA7A002A3FF43FAD934A1278042A35
:104A70007FF63AAD5A7812B9197C01B91A731B7BCB
:104A800013B90AB1FEF714FC8C4C4FF0050C94F8E6
:104A9000033204F20227013393FBFCFC0CEB8C0C79
:104AA000CCEB030C864B84F803C21B78039704936A
:104AB00004F5027303EB8C0C00238249DFF8289283
:104AC0005E58814A96FBF9F70697581805900698A4
:104AD00002F10807D8517D4F42F2107807FB0067BA
:104AE0009E5097FBF8F8039E1FFA88F802F1100A0F
:104AF00026F8028F03EB830B53F80A0003965CF849
:104B00000B604CF80B70C6EB000E0EEB0706069F11
:104B10004FF0050E43F80A6096FBFEF609FB0760AE
:104B200018329850049A0F46012A06D1A8F10208BB
:104B3000B8F5797F9CBF059E30600433082BBCD14B
:104B40005E4E2868D6F85032C01A08F0BDF86049A9
:104B500008F0C6F92B684FF07E51C6F850328046F7
:104B600008F0A8FA10B94FF07E5000E0404610AAB5
:104B7000C6F85402574B009211AA019297E803001D
:104B80000CCBFEF734FB109A6423534992FBF3F2EB
:104B900011980A80DFF81C81504A90FBF3F31380D0
:104BA00098F80C300BB90B80138096F85832434DAF
:104BB000002B3AD0D5F854124FF07E5008F090F9FF
:104BC000D5F85C3281463868C01A08F081F8494649
:104BD00008F0D2F808F096FAD5F860221FFA80FAA9
:104BE00078680FFA8AFA801A08F072F83C4B196854
:104BF00008F0C2F8494608F0BFF808F083FAB5F9A2
:104C0000663200B2C218B5F964320221534492FBF5
:104C1000F1F293FBF1F392B29BB2A5F86A22A5F8E8
:104C20006832A5F86622A5F86432012386F8583266
:104C30007968386898F80830C6F86012C6F85C02DF
:104C400023B91C4BDB79002B3FF44EAC254B009372
:104C500004330193D4F86C22D4F87032FEF7C7FA0B
:104C60007B68D4F87002C01A08F032F81C4B19683F
:104C700008F082F808F046FA3A68D4F86C32C4F8C2
:104C800080029B1A98F81020C4F87C320C4B0AB1B1
:104C900002221A7093F90030012B27D0022B00F06A
:104CA000F68021E420090020E41B0020700600208B
:104CB000040E0020610800203C020020B40E0020F9
:104CC0004C02002060020020E4100020806967FF91
:104CD00000007A4440020020820500208405002064
:104CE0003C0000202811002080969800D4F884729F
:104CF000D4F8A052D4F894620397D4F8987205F1CE
:104D000000400496069708F0FDF98146284608F011
:104D1000F9F9D4F85482D4F89C420790404605949F
:104D200007F03EFC8E4B044693F8DA000D4607F080
:104D3000CBFF07F035FC88A3D3E9002307F084FC00
:104D400002460B460020874907F0A8FD2B46224665
:104D500007F0C8FA02460B462046294607F09EFD9A
:104D6000CDE90801804E0025804C54F81570A4F15F
:104D70001403384635F803A007F0AAFF039907F09B
:104D8000FBFF08F0BFF9CAEB000080B228342853BB
:104D900004B2204607F09CFF049907F0EDFF08F0ED
:104DA000B1F91FFA80FBE01907F092FF069907F0AE
:104DB000E3FF414607F0E0FF316807F0D5FE08F059
:104DC000A1F9484504DB07998842A8BF084600E0DE
:104DD000484607F07DFF306008F094F9B468584405
:104DE0001FFA80FB204607F0DBFBCDE90A01706863
:104DF0000AF1310A381A07F06BFF414608F070F8E3
:104E0000214607F0AFFE07F0CBFB02460B46DDE97B
:104E1000080107F019FC02460B46DDE90A0107F01C
:104E200061FA07F04BFE1FFA8AFABAF1620F0146E7
:104E300030617760B0600ED9059807F09DFF08F0EB
:104E400061F94B4BB0F5FA6FA8BF4FF4FA60984286
:104E5000B8BF184600E00020834440F6B8330FFA8C
:104E60008BFB9B45A8BF9B46424B0A229B45B8BF84
:104E70009B466A43404B56F8141B25F803B03F4B42
:104E80000235042DD1507FF46FAFFFF72DBB344AAC
:104E9000D6F874A2B2F9E0909AFBF3F39945A8BF53
:104EA0009946B6F8A8521FFA89F90FFA89F22BB27F
:104EB0009A42334C0BDD3349D4F8540207F05CFFBF
:104EC00008F020F928441FFA80F9A4F8A892D6F82F
:104ED0007842D6F8AC52651B2846FEF711FA002836
:104EE000D8BF404241F293139842CCBF002001202A
:104EF00000284BD0284607F0EBFE234907F03CFF83
:104F00000AF01EFC0546504607F0E2FE0146284620
:104F100007F032FF08F0F6F880B240F6B83203B27C
:104F20009342A8BF1346134AA6F8B0029342ACBFFF
:104F3000E318A31848F6A042934203DDA3F50C43FF
:104F4000A03B04E0002BBCBF03F50C43A033C6F824
:104F5000B4321DE0AFF30080182D4454FB211940FA
:104F6000C82000200000F03FA002002030110020E7
:104F700030F8FFFF48F4FFFF72020020C802002053
:104F8000B40E00200000C842D3023739C6F8B4423C
:104F9000D6F8B472C7F50C502830039707F098FE86
:104FA000AF4907F0E9FE04460AF056FB139020468D
:104FB0000AF0C6FBD6F8B872D6F8C4420597D6F800
:104FC000BC72129004F10040089708F09BF804901E
:104FD000204608F097F8D6F854B2D6F8C0620A9086
:104FE0005846079607F0DCFA9E4B044693F8DA0021
:104FF0000D4607F069FE07F0D3FA97A3D3E9002323
:1050000007F022FB02460B460020974907F046FCBA
:1050100022462B4607F066F902460B4620462946F3
:1050200007F03CFCCDE90C01904E00270FFA89F007
:1050300007F04EFE12AB53F8171007F09DFE8C4C94
:105040000546E05F07F044FE0146284607F08AFD6A
:1050500008F058F8874B0FFA80F8B8F57A7FA8BFA8
:105060004FF47A789845B8BF98461FFA88F03C34D8
:10507000385300B207F02CFE0599044607F07CFE79
:1050800008F040F880B206900899204607F074FEB8
:10509000594607F071FE316807F066FD08F032F8F6
:1050A0000499884204DB0A9A9042A8BF104600E0A7
:1050B000049807F00DFEB46805463060204607F0FE
:1050C0006FFACDE90E0170681436C0EB080007F0E6
:1050D000FFFD594607F004FF214607F043FD07F0A6
:1050E0005FFA02460B46DDE90C0107F0ADFA024615
:1050F0000B46DDE90E0107F0F5F807F0DFFC46F896
:10510000108C014646F8040C46F80C0C079807F082
:1051100033FE07F0F7FF069C0444284607F0F2FF31
:10512000204440F6B83300B29842A8BF1846524B0C
:105130000A229842B8BF18467A43504BF852504B57
:105140000237042FD5507FF471AF464B93F8DC2023
:105150002AB1039E64214B4A96FBF1F11180B3F80A
:10516000D830494C9A450EDDD4F8AC32D4F87802E8
:10517000C01AFEF7C5F842F210730028B8BF4042CB
:1051800098427FF7B1A9414B01221A70B4F8C822A6
:105190003C4B1A80FFF7A8B9DFF8048198F89E719C
:1051A00017B1012F0AD0B4E06A78394B03EB021330
:1051B000384A59689068FDF7A7FBA7E0354EB068FC
:1051C000B14603681B699847002800F0A2802B783D
:1051D000314C022B66D0032B6ED0012B40F099800E
:1051E0002E4B1E68636AF31A632B40F29280E369C8
:1051F000042B2EDCD8F80820254C02F04802482A5F
:105200000ED0EB69D9F8080004EB03135968FDF7D9
:105210007BFB6B78D9F8087004EB0314A4680CE0EE
:1052200098F88C21002AECD104EB03135B68B3F5EA
:10523000164FE6D90223EB61E3E714F8011B19B11D
:105240003846FDF770FBF8E7EB696E620133EB61FE
:105250005FE002205BE000BF182D4454FB211940A1
:10526000D3023739C82000200000F03FC8020020D8
:105270001C11002018FCFFFF48F4FFFF7202002001
:10528000A002002038020020B40E00204C020020B2
:10529000701A01081407002020090020E41B0020D8
:1052A000E81B00206278344BB06803EB02135968A6
:1052B000FDF72AFB03202AE02369012B0DD0022BE6
:1052C00024D033BB226A2D4B276153F8321003EBF5
:1052D000C2035B686161A3611BE0E369A269934259
:1052E00008DA6269B068D15CFDF71DFBE369013340
:1052F000E3610EE0226A21490132226251F8322034
:105300000023E36102B90223236102E0042004F0D8
:10531000DDFB00236B602CE06A68194B01326A6088
:10532000184A92F8A1214AB15A7805210132D2B225
:10533000B2FBF1F101EB8101521A5A70124B134A80
:105340001B680120AB6000231370114A2B61D372DC
:105350000DE00D4B1A68AB68D21A40F6C4139A429E
:1053600007D90C4B05201A6822F020021A6004F0BD
:10537000ADFB15B0BDE8F08F701A0108901B010855
:1053800020090020E81B0020E41B00203C02002034
:10539000610800207006002010B504466420FDF767
:1053A000C8FB68202321F02206F044FC10B903203A
:1053B000FDF7C9FB0520FDF7BCFB064B68201A78FA
:1053C000202142F00F0206F035FC0CB1024B1C709C
:1053D00010BD00BF84060020400000201F4B37B5E1
:1053E0001B680446012B0EDD4FF40053ADF804306A
:1053F00002238DF80730042319480DEB03018DF8C3
:105400000630FDF7E9FB6B218022682006F012FCD4
:105410006420FDF78EFB19210022682006F00AFCAB
:10542000104D6B210322682006F004FC3721022274
:10543000682006F0FFFB1A216A78682006F0FAFB64
:105440001B211822682006F0F5FB68201C21102281
:1054500006F0F0FB04B1AC7003B030BDD8210020E1
:1054600000100140400000202DE9F04F9E4B87B016
:1054700018889E4B9E4DDB8895F81A8005939D4BAE
:105480009F689D4B1FFA87F91E889C4BC9EB060647
:105490009A68B6B2C9EB0209994A1FFA86FBD27C18
:1054A0001FFA89F99A463AB10FFA8BF34345BCBF0C
:1054B00007EB0803CAF808300A2400B260430292DE
:1054C000FDF71EFF8F4B90FBF4F01B6800B213F04A
:1054D000080F029A11D08C4B90FBF4F41B88A1B2F8
:1054E00018B2041B002CB8BF64420A2C08DD8748A0
:1054F0000088C82888BF0B4602E090FBF4F39BB2FB
:105500008349844C0868642190FBF1F1C9EB0600E3
:10551000DFF81C920091D9F800602180616880B2A8
:10552000711AC7296080764E40F25582D9F8001072
:105530006160B5F8F81020B92181BAB10022F27487
:1055400014E0B5F8FCE000B20EFB101EB5F8FA103E
:10555000B5F8F6C08E45CDF810C003DB61468E4528
:10556000B8BF714621810AB10028E7DA0098C31A52
:1055700098B2F379F3B1624BDB7C7BB1B5F8F230D2
:10558000C3EB4332C3EB82035B006380B5F8F630B4
:1055900023810FFA8BF3132BD8BF00205E4B1B889F
:1055A000312B07D80FFA8BFBC345C4BF07EB0803A9
:1055B000CAF80830B17C524A574B41B119880929C1
:1055C00005D8002105375170D174CAF808701B88BE
:1055D000092B0AD800B206F0D1FF41A3D3E900237A
:1055E00007F032F807F042FA80B24FF0640800B2D8
:1055F00008FB00F0FDF784FE90FBF8F01FFA80F83E
:105600000FFA88F3002BB8BF5B42AB2BD9F8000030
:10561000E368A8BF4FF0AF08C01A07F055FB3F4939
:1056200007F05EFCD9F80030B4F802A0E3600AF19C
:1056300003039BB2062B0746DFF8F89006D8D9F88B
:105640000000394607F098FBC9F800000AEB8A0A07
:105650004FEA4A0292B293B2638018B20292019367
:1056600007F036FB6169824607F086FB394607F092
:1056700083FBD9F8001007F077FA07F043FD2849BB
:10568000B0F5FA7FA8BF4FF4FA708842B8BF084659
:1056900007F01EFB2349029A8346C9F800000888D8
:1056A000019B121A92B20B8013B2002BB8BF5B425F
:1056B000652B1D4BA8BF002203F10A01988823F82F
:1056C000020F8B42FAD1194900230A811846CA5A9F
:1056D000023310440A2B80B22ED080B2F7E700BF0D
:1056E0009A9999999999B93F0E0E0020D4080020F3
:1056F000C8200020400200205C0200205002002050
:1057000061080020700600200A02002080050020A9
:1057100068110020801100208205002000007A44DA
:105720000CFEFFFFF8020020FC020020FE02002019
:10573000E41B0020F402002000B207F0C9FAA169BE
:1057400007F01AFB394607F0CBFB07F0DBFC1FFA2A
:1057500080F921695046A4F8209007F00DFB07F06E
:10576000D1FC00B207F0B4FA594607F0FDF907F092
:10577000C9FC1FFA88FA0AF103039BB280B2062B18
:105780000490DFF8B88206D8D8F80000394607F050
:10579000F3FAC8F800000AEB8A0A4FEA4A0C1FFA2B
:1057A0008CFC1FFA8CF210B20292CDF80CC007F0FC
:1057B0008FFA974B82465968019307F0DDFA394614
:1057C00007F0DAFAD8F8001007F0CEF907F09AFCE3
:1057D0009049B0F5FA7FA8BF4FF4FA708842B8BF7D
:1057E000084607F075FA8C49C8F80000DDF80CC0CF
:1057F00083460888029AC0EB0C0C1FFA8CFC019BB4
:105800000A800FFA8CF2002AB8BF52429846834BA6
:10581000652AA8BF4FF0000C03F10A02998823F80B
:10582000021F9342FAD17E4A0023A2F808C018460C
:10583000D15A023308440A2B80B201D080B2F7E774
:1058400000B2019307F044FAD8F8081007F094FA70
:10585000394607F045FB07F055FC82B26284D8F860
:1058600000105046029207F087FA07F04BFC00B296
:1058700007F02EFA594607F077F907F043FC81B29A
:10588000B5F9F200DDF810C06FF00907019B47433E
:105890000FFA8CFE9EFBF3FE0FFA8EFEB5F9F400B4
:1058A000BE4503FB00F3029A03DB9E45B4BF774677
:1058B0001F46B5F9EE006FF0090E0EFB00FE09B2AF
:1058C0004FF00A0CB94491FBFCF1564F1FFA89F9CD
:1058D0007145A7F8029004DB0CFB00FE7145B8BFD0
:1058E0008E4692B29644A7F800E0B5F9F0E06FF06A
:1058F000090000FB0EF0814205DB0A2000FB0EF0E0
:105900008142B8BF08460244BA80727C52B10FFA95
:1059100089F9B9F1000F03DB9945B8BF4B4600E0A8
:1059200000237B80F37CDFF81881B3B9B7F902005C
:1059300007F0CEF98146B8F900000028D8BF4042F0
:1059400007F0C6F9D5F8001107F016FA01464846E7
:1059500007F008F907F0D6FB7880B8F9020007F0E5
:10596000B7F94FF07C5107F007FA07F0CBFB23891A
:10597000B0F5E17FA8BF4FF4E17020EAE070181A9B
:10598000B5F8FA7000B2B842B5F8F63003DB9842C9
:10599000B4BF07461F46244B244D1888A0F5E17379
:1059A000642B0CD900B2C0F5FA7007F091F92049C8
:1059B00007F0E2F907F0A6FB2B8818442880B5F918
:1059C0000030B3F5FA7FA8BF4FF4FA7323EAE3730C
:1059D0002B803B442381F278124B12B9154A12797D
:1059E00022B1B27A52B1134A927C3AB9DDF814C0AE
:1059F0000022A4F808C05A801A809A800E4A218991
:105A0000D180998893880B44938007B0BDE8F08FCC
:105A10006C1100200CFEFFFFFA020020080300209A
:105A20000A0300206802002080050020FC020020FC
:105A3000CDCCCC3D6108002026020020F0020020E1
:105A400096040020094B30B59A68B3F84A51B3F870
:105A5000444102F4804200230549002A14BF28462D
:105A6000204658520233182BF6D130BDE81B0020D7
:105A7000EA05002010B54000204CC0B284F8240094
:105A800084F825100120002184F8261084F82700CE
:105A900084F8302084F83100606BA362E36284F8FC
:105AA000321050B383889B0515D40388D9050DD4D3
:105AB00047F230530288920502D5013BFAD113E038
:105AC00093B103889BB243F48073038083889BB2B5
:105AD00043F44073838047F2305394F8312012B17D
