:020000040800F2
:10000000882D0020BDC30008FDC30008672A000832
:1000100001C4000803C4000805C400080000000073
:1000200000000000000000000000000007C40008FD
:1000300009C40008000000000BC400086197000814
:100040000FC400080FC400080FC400080FC4000844
:100050000FC400080FC400080FC40008A1A30008C3
:100060000FC400080FC400080FC400080FC4000824
:10007000299E00080FC40008FD9D00080FC4000859
:100080000FC400080FC400080FC400080FC4000804
:100090000FC400080FC400080FC40008A3A3000881
:1000A0000FC400080FC400080FC4000817AC0008F4
:1000B0001DAC000823AC000829AC000857900008CC
:1000C000558E00085B900008599000080FC4000886
:1000D0000FC40008559E0008899E0008EF9E000886
:1000E000AD8700080FC400080FC40008DFF80CD06B
:1000F0000CF040FF0048004759270008882D0020D9
:1001000070B51546B0FBF5F40646A84203D3204669
:10011000FFF7F6FF014605FB1460FDA2105C0870B6
:10012000481C70BD70B50C46911E232900D30A22CD
:100130000025002804DA2D212170611C404200E0D6
:100140002146FFF7DDFF0570204670BD2DE9F04721
:10015000044600E0641C20782028FBD00928F9D050
:100160004FF07E58C1B247462D2902D02B2801D02E
:1001700001E0F14F641C0026DFF8C0930CE000BFE3
:100180000CF004FC0546494630460CF00BFB2946B2
:100190000CF0B0FA0646641C207830380928EFD9F4
:1001A00020782E2815D14D460EE000BF0CF0EEFB56
:1001B00029460CF02DFB31460CF09CFA06464946C8
:1001C00028460CF0EFFA054614F8010F30380928DC
:1001D000ECD921784046652901D0452935D114F85C
:1001E000011F4FF000082D2902D02B2902D002E078
:1001F0004FF00108641C00256FF02F0206E000BFDD
:1002000005EB850302EB4303CD18641C2178A1F1B3
:100210003003092BF4D94FF49A718D4204D90D465D
:10022000C7490CF0BFFA083D082DF9D203E0494652
:100230000CF0B8FA6D1E002DF9D1B8F1000F04D002
:10024000014630460CF0E4FA03E0014630460CF07B
:10025000A9FA3946BDE8F0470CF0A4BAF0B587B06A
:1002600000260D46B84900960196B6A70296B0F54D
:10027000000F02DB0CF03EFA01E00CF08DFAB349FE
:100280000CF090FA0CF0A1FB041E00DC60420A2284
:1002900003A9FFF747FF002C01DB202000E02D2001
:1002A0008DF8000003A80CF0D6F9302401280AD0FC
:1002B00003A80CF0D0F902280CD003A80CF0CBF95D
:1002C00003280CD00DE08DF801408DF802408DF828
:1002D000034006E08DF801408DF8024001E08DF802
:1002E000014003A968460CF082F968460CF0B3F9A6
:1002F000C01EC4B22246694628460CF096F92E5517
:10030000394628460CF073F90DEB040128460CF031
:100310006EF907B02846F0BD70B505460C46086872
:100320000CF099F9024621682868BDE870400CF08D
:10033000BBB970B506460CF08EF9854D10F0FF0F75
:1003400010D030460CF0C9F90446152818DA2021DF
:1003500030460CF076F90CF0C0F905EB4401A1F839
:10036000460070BD5FF0000405EB44002146B0F884
:10037000462078A00CF0BCFE641C152CF4DB70BD8C
:10038000BDE87040152176A00CF0B2BE2DE9F04119
:10039000002588B007462E460CF05DF97A4C10F027
:1003A000FF0FA84651D0052278A138460CF07CF901
:1003B00000287DD0042277A138460CF075F900287A
:1003C00077D038460CF089F9461E0C2E72DA2021BF
:1003D00038460CF036F9070007D0781C0746FFF7BF
:1003E000B5FE04EB061101250861202138460CF00A
:1003F00028F9070007D0471C3846FFF7A7FE04EB93
:1004000006116D1C4861202138460CF01AF90700CE
:1004100007D0471C3846FFF799FE04EB06116D1C08
:100420008861202138460CF00CF930B1401CFFF7F0
:100430008DFE04EB06116D1CC861042D66D057A01B
:1004400001F04AF808B0BDE8F08163A001F044F87B
:100450005FF0000504EB0517386910F0FF4F2BD053
:10046000761C691C67A00CF043FE03A93869FFF7EE
:10047000F5FE014665A00CF03BFE03A97869FFF785
:10048000EDFE014661A00CF033FE03A9B869FFF749
:10049000E5FE01465DA00CF02BFE03A9F869FFF70D
:1004A000DDFE01465AA00CF023FE6D1C0C2D02E06F
:1004B000C8E0D0E0F5E0CDDBCDF80880CDF80480D1
:1004C0000025CDF8008011E004EB0517009879694C
:1004D0000CF010F90090B96901980CF00BF901903B
:1004E000F96902980CF006F96D1C0290B542EBDB3D
:1004F00049A000F0F1FF4C4E00246D4655F8240051
:1005000020F00040B04202DD48A092E0C4E08FE05D
:100510003031323334353637383941424344454639
:100520004748494A4B4C4D4E4F50515253545556E3
:100530005758595A00000000000080BF00002041B9
:1005400020BCBE4C2E0000006F12033A00007A441B
:100550001C0800206175782025752025750D0A007E
:10056000496E76616C6964204665617475726520B8
:10057000696E6465783A206D757374206265203CFD
:100580002025750D0A0000000404002072657365C3
:10059000740000006C6F61640000000057726F6EA1
:1005A00067206E756D626572206F66206172677577
:1005B0006D656E74732C206E656564732069647854
:1005C0002074687220726F6C6C207069746368208C
:1005D0007961770D0A000000437573746F6D206DAB
:1005E000697865723A200D0A4D6F746F720954680C
:1005F0007209526F6C6C09506974636809596177AC
:100600000D0A00002325643A090000002573090043
:1006100025730D0A0000000053616E697479206330
:100620006865636B3A0900000AD7233C4E4709000E
:10063000F7A000F051FF641C032CFFF65FAFAFF290
:100640004000FDE60020414604EB0012401C116111
:100650000C28F9DBF6E6202138460BF0F2FF0028E3
:10066000F8D0401C06460BF0F6FFEA4DC7B2002456
:1006700055F8241031B13A4630460CF015F818B14F
:10068000641CF5E7E4A0DBE6204602F0BFFA55F86B
:100690002410E7A00CF02CFDAFF26810FFF776FEF7
:1006A000D0E60C21E7A00CF023FDCBE610B5EFA0BF
:1006B00000F012FF012001F020FAF3A000F00CFF7F
:1006C0000A2009F013F9BDE81040002009F03BB9F9
:1006D0007CB504460D4600790021062814D2DFE8D7
:1006E00000F003060A0D111EA06801780CE0A06856
:1006F00090F9001008E0A068018805E0A068B0F952
:10070000001001E0A0680168E3A00CF0F1FC002DEE
:1007100004D0D4E90312E1A00CF0EAFC7CBDA0688F
:1007200069460068FFF79AFD0146DEA00CF0E0FC88
:10073000002DF3D0E0680CF029F96946FFF78EFD33
:100740000146D9A00CF0D4FC20690CF01FF96946D1
:10075000FFF784FD0146D4A00CF0CAFC7CBDD3A0F9
:1007600000F0BABE2DE9FF470020FFF7F8FFDBA03D
:100770000CF0BEFCC7A0FFF7DCFDE44DA54968798D
:1007800001EB800050F8041CE1A00CF0B1FC2869DA
:1007900010F0FF4F4CD0DFF884A3002405EB0410C9
:1007A000066916F0FF4F3FD0D0E90598C769611C74
:1007B000DBA00CF09DFC564502D3DBA00CF098FCAE
:1007C00069463046FFF74AFD0146B6A00CF090FCA2
:1007D0005646B14502D3D4A00CF08AFC694648467F
:1007E000FFF73CFD0146AFA00CF082FCB04502D300
:1007F000CDA00CF07DFC69464046FFF72FFD014679
:10080000A8A00CF075FCB74202D3C7A00CF070FC96
:1008100069463846FFF722FD0146AFF20C200CF086
:1008200067FC641C0C2CB9D3611CC0A00CF060FCEC
:1008300001F094F9774E00240746603656F82410EC
:1008400021B1BFA00CF054FC641CF7E700244FF06A
:10085000010800BF56F8241041B108FA04F03842EC
:1008600002D0BBA00CF044FC641CF3E7BC4A00209F
:1008700069462C18135C94F80F41401C08280B554E
:10088000F7D300220A54B7A00CF032FCB84D002474
:1008900004EB840005EB800655F82010B5A00CF0A1
:1008A00027FC00213046FFF713FF65A000F014FE7F
:1008B000641C8E2CECD3BDE8FF8710B5B0A000F00F
:1008C0000BFE0121002000F022FFB0A000F004FE8A
:1008D0000A2009F00BF8BDE81040002009F033B8F9
:1008E00010B50446ADA000F0F7FDB248B24A0021B1
:1008F00001705160117002F0F7F82046BDE8104019
:10090000DBE72DE9F04706460BF0A5FE054601F0B2
:1009100025F9DFF8008107464FF0010908F160086A
:1009200055B12A46A5A130460BF0BEFEC0B13078C5
:1009300000272D2823D025E0A2A000F0CDFD002423
:100940004D46464656F8241041B105FA04F03842A7
:1009500002D0A1A00CF0CCFB641CF3E738A01EE091
:100960009EA000F0B9FD00244FEA080555F82410B8
:100970000029F3D098A00CF0BBFB641CF6E701271C
:10098000761C6D1E5FF0000458F8241031B12A4621
:1009900030460BF089FE30B1641CF5E795A0BDE848
:1009A000F04700F099BD09FA04F01FB101F0D1F849
:1009B00097A002E000F011FF98A000F08DFD58F81C
:1009C0002410BDE8F04764A00CF092BB10B506F00F
:1009D00000FA401C04D094A0BDE8104000F07CBD9B
:1009E00099A0F9E770B50024A1A000F075FD604D55
:1009F000B5F1C00504EB440005EB80014A6855F8E9
:100A00002010A1A00CF074FB641C102CF2D370BD5C
:100A10004F4B090080E10008496E76616C696420E3
:100A20006D6978657220747970652E2E2E0D0A001E
:100A30004C6F61646564202573206D69782E2E2EBD
:100A40000D0A00004D6F746F72206E756D626572D5
:100A5000206D757374206265206265747765656EBC
:100A6000203120616E642025640D0A005265736593
:100A70007474696E6720746F2064656661756C7448
:100A8000732E2E2E0D0A00005265626F6F74696E10
:100A9000672E2E2E00000000256400002025642013
:100AA0002564000025730000202573004166726FE5
:100AB000333220434C492076657273696F6E203261
:100AC0002E33204E6F762031382032303134202FB3
:100AD0002030353A32353A353200000043757272B3
:100AE000656E7420436F6E6669673A20436F707954
:100AF0002065766572797468696E672062656C6FCF
:100B00007720686572652E2E2E0D0A0004040020E1
:100B10006D697865722025730D0A000000008080E1
:100B2000636D69782025640020000000636D69789A
:100B300020256420302030203020300D0A000000B5
:100B400066656174757265202D25730D0A000000BD
:100B5000666561747572652025730D0A00000000DA
:100B60004CEE00086D61702025730D0A0000000036
:100B700034E30008736574202573203D20000000D5
:100B8000536176696E672E2E2E0000000D0A5265A5
:100B9000626F6F74696E672E2E2E00000D0A4C6511
:100BA0006176696E6720434C49206D6F64652E2E17
:100BB0002E0D0A00D4030020000000206C6973741D
:100BC00000000000456E61626C65642066656174BA
:100BD000757265733A2000002573200041766169C3
:100BE0006C61626C652066656174757265733A202C
:100BF00000000000496E76616C696420666561746E
:100C0000757265206E616D652E2E2E0D0A00000036
:100C100044697361626C656420000000456E616226
:100C20006C65642000000000456E61626C696E674F
:100C30002047505320706173737468726F756768D2
:100C40002E2E2E0D0A0000004572726F723A20455A
:100C50006E61626C6520616E6420706C75672069DE
:100C60006E204750532066697273740D0A000000AD
:100C7000417661696C61626C6520636F6D6D616E58
:100C800064733A0D0A00000025730925730D0A00EC
:100C90003EB505460BF0DFFC08281DD10024285D79
:100CA0000BF058FC2855641C082CF8D30024FA4893
:100CB000295D0BF0C6FC28B12819295D401C0BF0FA
:100CC000C0FC18B1F5A000F007FC3EBD641C082C68
:100CD000EDD3284600F05BFCF8A000F0FDFBEE4BE6
:100CE000FC4A0020694615181C5C95F80F51401C01
:100CF00008284C55F7D300220A54AFF2A4100CF088
:100D0000F7F93EBD2DE9F04180460BF0A4FCF24D11
:100D1000F04E070012D00246AFF2601140460BF0D1
:100D2000C3FCA8B15FF0000455F8241001B33A46A3
:100D300040460BF0B9FC08B3641CF5E7707905EB8D
:100D4000800050F8041CBDE8F041E4A00CF0D0B9DC
:100D5000E7A000F0C1FB002455F8241029B1AFF240
:100D600088100CF0C5F9641CF6E7AFF22C3001E0F6
:100D7000AFF25C30BDE8F04100F0AEBB601C7071BA
:100D800055F82410DFA00CF0B3F97079082801D0D1
:100D90000E2810D1E0483221002280F8251080F87A
:100DA00020201E221423027183732D240476817661
:100DB000C2714374C476BDE8F0812DE9F04100258D
:100DC00007462C462E460BF046FC18B1AFF2A82180
:100DD000384610E0D1A02BE016B1012E07D103E078
:100DE0000BF07BFC054602E00BF077FC0446761C1A
:100DF000AFF2CC2100200BF035FC0028ECD10C2DFB
:100E000005D3BDE8F0410C21D3A00CF071B9DC4F43
:100E1000022E07DA37F915202946BDE8F041D9A09E
:100E20000CF066B9A4F57A70B0F57A7F04D9DBA02E
:100E3000BDE8F0410CF05CB922462946E0A00CF078
:100E400057F927F81540B6E710B504460BF003FC38
:100E500010F0FF0F0DD020460BF03FFC022810D8F9
:100E60009C4981F814040021084600F050FC98A029
:100E7000EBE7984890F81414BDE81040D7A00CF0A8
:100E800037B910BD2DE9F04782460BF0E4FBD94D90
:100E9000060029D0012E03D19AF800002A2823D079
:100EA000D5A150460BF0AFFB00286FD0401C044684
:100EB0000BF013FC81462046FFF748F980460026D8
:100EC00006EB860705EB870455F827000BF0C3FBFC
:100ED000024655F8271050460BF0E6FBF8B1761C99
:100EE0008E2EEDD3C5A04DE0CCA000F0F5FA002485
:100EF00004EB840005EB800755F82010AFF2883032
:100F00000CF0F6F831463846FFF7E2FBAFF2D0407E
:100F100000F0E2FA641C8E2CEAD3BDE8F08706EB01
:100F2000860605EB8607F8680BF030FD41460BF0AE
:100F300099FD26D838690BF029FD41460BF09CFD40
:100F40001FD83979052907D0484606290ED2DFE88F
:100F500001F0050508080B0B4046F6E7A16808708C
:100F600004E0A168088001E0A168086055F8261037
:100F7000B0A00CF0BDF82046BDE8F0470021FFF717
:100F8000A7BBAFA0BDE8F04700F0A6BA5FF0000431
:100F900004EB8406514655F826000BF034FB78B17B
:100FA00055F8261005EB8607AFF234400CF0A0F898
:100FB00000213846FFF78CFBAFF27C500CF098F81C
:100FC000641C8E2CE4D3A8E72DE9F04108F0E7FB80
:100FD0004FF47A71B0FBF1F1A3480378A34802887B
:100FE000A3A00CF085F800F0A9FD0646B048B14971
:100FF0000068B0FBF1F2B0497E480968D03850F87B
:101000002110AEA00CF074F8334F00240125A43752
:1010100057F8241051B105FA04F0304203D0AFF272
:1010200048400CF065F8641CE4B2F1E7022000F0DF
:1010300073FDA0B1AC4C28482178C43050F8211081
:10104000AAA00CF055F82078022808D1AA48007D03
:1010500008B16F2100E06E21A8A00CF049F8AFF2B2
:10106000206000F039FA08F078F80246A4484FF4FE
:1010700083630188BDE8F041A2A00CF039B82DE9E6
:10108000FF5FDFF8B49299F8000018B9012189F8E0
:10109000001053E157E100004CEE00084D757374E9
:1010A00020626520616E79206F72646572206F66C0
:1010B0002041455452313233340D0A004375727267
:1010C000656E742061737369676E6D656E743A2026
:1010D000000000000404002080E1000843757272E3
:1010E000656E74206D697865723A2025730D0A006B
:1010F000417661696C61626C65206D6978657273B7
:101100003A2000004D697865722073657420746F11
:101110002025730D0A0000001C080020557361672C
:10112000653A0D0A6D6F746F7220696E6465782080
:101130005B76616C75655D202D2073686F77205B31
:101140006F72207365745D206D6F746F72207661AD
:101150006C75650D0A0000004E6F20737563682082
:101160006D6F746F722C207573652061206E756DC4
:10117000626572205B302C2025645D0D0A00000042
:101180006C0900204D6F746F7220256420697320F4
:101190007365742061742025640D0A00496E7661C0
:1011A0006C6964206D6F746F722076616C75652C4C
:1011B00020313030302E2E323030300D0A00000019
:1011C00053657474696E67206D6F746F7220256447
:1011D00020746F2025640D0A0000000043757272B0
:1011E000656E742070726F66696C653A2025640DB7
:1011F0000A00000034E300083D0000004552523A66
:1012000020556E6B6E6F776E207661726961626CCD
:1012100065206E616D650D0A0000000043757272F5
:10122000656E742073657474696E67733A200D0A75
:101230000000000025732073657420746F20000087
:101240004552523A2056616C756520617373696727
:101250006E6D656E74206F7574206F662072616E9E
:1012600067650D0A000000009C01002002010020BB
:1012700053797374656D20557074696D653A2025D6
:1012800064207365636F6E64732C20566F6C746199
:1012900067653A202564202A20302E3156202825E3
:1012A00064532062617474657279290D0A0000002C
:1012B0009C03002040420F00C80000204861726477
:1012C000776172653A20257320402025644D487A65
:1012D0002C2064657465637465642073656E736F38
:1012E00072733A2000000000B001002041434348DF
:1012F000573A2025730000003C0900202E2563008A
:10130000F60000204379636C652054696D653A20CE
:1013100025642C20493243204572726F72733A2043
:1013200025642C20636F6E6669672073697A653A5D
:101330002025640D0A0000000000002070A000F0CD
:10134000CBF800F0D5F8DFF8F0B1DFF8F0A15446A3
:10135000DAF8000009F023FF00286ED0206809F0B9
:1013600021FF092807D03F2805D0D9F804104C46A2
:1013700000294FD050E0724F0024254607F1C008E5
:10138000D9F804600CE000BFD9F8042022B16A4803
:1013900039680BF089F910B904B93C463D460C3761
:1013A0004745F1D39CB149465F46486822682B689F
:1013B000125C1B5C9A420AD19AB92E2811D22022C3
:1013C0003A54401C0021C9F804000BF80010D9F869
:1013D00004004F4608B1AC4213D05AA000F07CF88C
:1013E0000AE03A54401C4860DFE7206800F074F8D7
:1013F000092000F07FF80C34AC42F6D900F078F800
:1014000000265C4678688642A1D2A05D00F072F8A2
:10141000761CF7E7042811D00C2815D019B10A283A
:1014200016D00D2814D07F283ED030298FD2202806
:101430008DD37E288BD8B1B344E04BE004B03E4856
:10144000BDE8F05FFFF74CBA40A000F045F827E098
:10145000AFF6142000F040F8606800255E460BF8F7
:1014600000503D48CDE9000B0C2310223449029571
:1014700001A80BF075F8070007D038680BF0EBF8FF
:101480003044B968401C884702E034A000F024F8DA
:10149000302129480BF0A0F865602078002819D089
:1014A00000F026F853E70BE00029FBD0491E00208E
:1014B000C9F804100BF8010031A000F00DF846E760
:1014C0002028EFD00BF80100491CC9F8041000F0E7
:1014D00011F83CE7BDE8FF9F70B50446174D03E0E7
:1014E000641C286809F04CFE21780029F8D170BDF1
:1014F00024A0F1E701461148006809F041BE000050
:101500000D0A456E746572696E6720434C49204D23
:101510006F64652C2074797065202765786974275D
:1015200020746F2072657475726E2C206F72202784
:1015300068656C70270D0A00D40300203C09002068
:1015400074E200080D1B5B4B000000001B5B324A7D
:101550001B5B313B31480000190300084552523AE9
:1015600020556E6B6E6F776E20636F6D6D616E646C
:101570002C20747279202768656C702700000000A9
:10158000082008000D0A23200000000070472DE904
:10159000F04105460446FE4EFE4F09E0FC480BF0C4
:1015A00050F820B1611B801B384480F80F11641C77
:1015B00021780029F2D1BDE8F081F74800210278B6
:1015C000472A13D14288B2F5836F0FD10279BE2A20
:1015D0000CD1F24A1278EF2A08D100F5836200BFDD
:1015E00010F8013B59409042FAD309B100207047EE
:1015F0000120704710B5FFF7E0FF10B90A2008F08E
:1016000080F94FF48362E449E2480AF0CCFFE148F4
:1016100090F81404022803D9DE49002081F814044C
:10162000DC48DC49F02290F81404BDE81040C0EB1F
:10163000001001EB001101F5A271D9480AF0B3BF07
:101640002DE9F05FD64AD74E002092F82010D47FC3
:1016500040F6C41500FB00F3193B4B4303F6C413DB
:101660004343634393FBF5F326F81030401CC0B2AC
:101670000728EFD3C74B9146D03392F8212099F831
:10168000224059881F880020DFF81CA34FF00A0B66
:101690004FF47A7EC4F1640802EB820CB1EB0705CB
:1016A00000EB8001C2EB41030121002B03DDC2F1FD
:1016B0006401C9B201E000DA114603FB03F604FB42
:1016C00006F601FB01F196FBF1F1414401FB03F148
:1016D00091FBFBF101EB4C0109B205FB01F191FB20
:1016E000FEF139442AF8101000F10100C0B20C28B4
:1016F000D6D399F8000002F0B2FABDE8F05F04F02A
:101700006BBB10B5FFF776FFBDE8104098E72DE9F9
:10171000F047A04C8146472020704FF483656580D8
:10172000BE20002620712246EF2082F8160482F89F
:10173000176461B11046F02290F814049849C0EB88
:10174000001004EB001000F5A2700AF02CFF914885
:10175000934902E010F8012B56408842FAD38D4895
:1017600080F817640AF0B2FDDFF830A28A4F032632
:10177000AAF1160AA84634200AF016FE38460AF0E6
:10178000D3FD50460AF0D0FD002506E06159E81966
:101790000AF0E6FD2D1D454502D20428F6D001E0F1
:1017A000042804D0761EE6D10AF096FD04E00AF083
:1017B00093FDFFF702FF10B90A2008F0A2F8FFF727
:1017C000A0FFB9F1000F06D0BDE8F04701221421B7
:1017D0000F2001F0EFBDBDE8F0876E498A68024333
:1017E0008A6070476B490020886070472DE9FC5F74
:1017F0006EA1D1E90001CDE900014FF48361654894
:101800000AF0EAFEF02166480AF0E6FE614B472046
:10181000002518700320587102209D60FFF7DDFF3E
:101820005C48012680F814544FF41670A3F8F200B7
:10183000FA20A3F8F400D0332A2018845D859D8512
:10184000DD85DD741D755D75DD821D835D835D77CE
:101850009D774FF4FA7018851E77202083F82600B4
:101860004FF4C870D8866E2083F83B002B2083F895
:101870003C00212083F83D0083F83E5083F8475018
:1018800083F86E5083F86F5083F8705040F2DC504C
:10189000A3F84A0040F24C40A3F84C0040F26C70B0
:1018A000A3F84E0083F8505083F851604FF47A70DB
:1018B000A3F856004000A3F8580083F8536040F2A4
:1018C0007E40188040F23A7058804FF47A709880C9
:1018D00040F27E50D88040F2EA50188140F2B45075
:1018E000588132209881C100D981188283F86050D4
:1018F00083F861504FF4E13159664FF416519966FF
:1019000083F86C5083F86D5040F6AC5123F8C41C3A
:1019100003F8C25C03F85A5F40F6FF715980204C0F
:1019200028274FF01E092570677084F80B90172246
:101930006275A77084F80C90A2755521E1702D2175
:101940006173E5752071A57325760B226271E573CD
:1019500065764FF0140A84F806A008222274A17656
:101960000E22E27184F811A05022E2765A222272ED
:101970004FF00A0B84F812B04FF0640884F81C8012
:1019800067727823A3722175A677E277412111E06F
:101990004CEE00080404002000F8010816FC0108C1
:1019A0001C080020040B0020120B00201E1E646483
:1019B0006464646484F8201084F8235084F824500C
:1019C00084F8255040F2DC51E18484F8210084F849
:1019D00022506585A5852585042084F82E0084F88D
:1019E0002F7084F83070152084F831005D486063F2
:1019F0005D48A0635D48E0635D48206484F844600E
:101A0000192084F845005BA0FFF7C1FD84F87050F1
:101A100084F8715084F8727084F8736084F876509A
:101A20004FF44870A4F8740004F8B8BFC825657076
:101A30004FF49660608040F2D930A0805048002179
:101A40006C4640F2DC534FF4FA664FF47F7700BFE8
:101A500000EBC10222F8787F5680938014F801C011
:101A6000491C82F806C00829F2DBC030012100F8C9
:101A7000021C00F8011C0170458080F804A080F869
:101A800005908171A0F808804FF49671418128215A
:101A900081814FF07C5101614161A0F81AA00F21B2
:101AA0008183C183018440F26C714184838440F25C
:101AB0001451C184082101854FF07E51C162314922
:101AC0005220304D81F815040020014605EB00122C
:101AD000401C11610C28F9DB5FF00004C4EB04101A
:101AE00005EB001000F5A270F02225490AF05BFD1D
:101AF000641C032CF2DBBDE8FC9F10B50446FFF725
:101B00005CFD641E204206D1FFF770FE0021BDE897
:101B100010400846FBE510BD1B490968014201D091
:101B2000012070470020704717490A6802430A6085
:101B3000704715490A6882430A6070471248006876
:101B4000704710498968014201D001207047002088
:101B500070470C498A6882438A60704709488068E8
:101B6000704700009A99193FF6287C3F3D0A773F5D
:101B70000000A0404145545231323334000000008F
:101B80001C080020040400200800002070B5F74D58
:101B900068790AF004FFF6490AF004FE0BF02EFE05
:101BA000F44E044630880AF0FAFE21460AF0FAFDA7
:101BB0000BF0E4FEF04C608030880AF0F0FE014645
:101BC000EE480AF025FEEE490AF022FEE066A88EF5
:101BD0000AF0E5FE0146EB480AF01AFEEA490AF06F
:101BE000E1FD2067E94928680AF0DCFD01464FF075
:101BF0007C500AF00DFE60670820FFF78DFF00287B
:101C000003D0BDE8704003F0ABB870BD002801DD23
:101C1000024600E042428A4201DA00207047002872
:101C200002DDA0EB01007047FDDA084470472DE9A2
:101C3000F04F91B0D0E90045814686680F460868AC
:101C40000BF0DCFD049038680CF0BEF90590786864
:101C50000BF0D4FD834678680CF0B6F98046B8687E
:101C60000BF0CCFD8246B8680CF0AEF90746504642
:101C700004990AF097FD0990384604990AF092FDFC
:101C80000890514605980AF08DFD07903946059851
:101C90000AF088FD0690594650460AF083FD1090E0
:101CA0008BF0004039460AF07DFD07464146079813
:101CB0000AF078FD08990AF01DFD03904146069848
:101CC0000AF070FD09990AF06AFD824605985946A6
:101CD00080F000400AF066FD0590414609980AF040
:101CE00061FD06990AF05BFD0290414608980AF0F2
:101CF00059FD07990AF0FEFC0690584604990AF02F
:101D000051FD8346304602990AF04CFD009028466A
:101D100003990AF047FD0190204610990AF042FD10
:101D200001990AF0E7FC00990AF0E4FCC9F8000008
:101D3000304606990AF036FD0090514628460AF0D2
:101D400031FD8246394620460AF02CFD51460AF004
:101D5000D1FC00990AF0CEFCC9F80400594630467F
:101D60000AF020FD0646284605990AF01BFD0546A7
:101D7000414620460AF016FD29460AF0BBFC3146D2
:101D80000AF0B8FCC9F8080011B0BDE8F08F2DE9E1
:101D9000F04387B080460AF002FE7D490AF002FD5A
:101DA000054675489830016881F00041039140680C
:101DB00080F0004004907748B0F900000AF0E6FD9A
:101DC00075490AF0EFFC6C4C05908A34B4F90000B8
:101DD0000AF0DCFD0090B4F902000AF0D7FD019092
:101DE000B4F904000AF0D2FD029003A96846FFF797
:101DF0001EFF5E4E8A3C403E96F84400012804D007
:101E00005C4800880AF0CBFD17E064484078002861
:101E1000E06B0CD1C11700EB9161A0EBA1100AF0AF
:101E2000B5FD02990AF066FC0AF0CFFDE063C11728
:101E300000EB916080110AF0A9FD02990AF0AFFC55
:101E40000290216C89460AF0A7FC07462946606F7C
:101E50000AF050FC014628460AF0DAFC39460AF03E
:101E6000A1FC49460AF046FC206400980BF086FD70
:101E70002F367178FFF7CAFE494D2968084428605B
:101E800001980BF07BFD7178FFF7C0FE696808448C
:101E90006860206C0BF072FD3178FFF7B7FEA9681F
:101EA0000844A860A16801EB0800A060E068401C3D
:101EB000E06007B0BDE8F0832DE9F05F2E4D0446E9
:101EC000983528680BF09AFC834628680CF07CF85B
:101ED000824668680BF092FC814668680CF074F8E2
:101EE0000546D4F80880294640460AF05BFC59466E
:101EF0000AF058FC67680646514638460AF052FC1C
:101F000029460AF04FFC0546494620680AF04AFC7B
:101F100029460AF0EFFB31460AF0ECFB0446514635
:101F200040460AF03FFC0546594638460AF03AFC5E
:101F300029460AF031FC21460BF036FB19490AF01C
:101F400031FC12490AF064FC0B49496B0AF0D2FBE0
:101F500015490AF05DFC0BF011FD00B2002802DA11
:101F600000F5B47000B2BDE8F09F00005C080020EE
:101F700035FA8E3CB80100200C0000200AE81C4114
:101F800000401C46000061444C3D0F44DB0F4940BB
:101F9000BD378635E801002035FA8EBCCC0A00201A
:101FA000240900200000E144000020412DE9F04117
:101FB000044680680D4601460AF0F4FB0746606857
:101FC00001460AF0EFFB0646206801460AF0EAFBEC
:101FD00031460AF08FFB39460AF08CFB0CF0BAF858
:101FE000064610F0FF4F0ED0314620680AF010FC74
:101FF0002860314660680AF00BFC68603146A068D2
:102000000AF006FCA860BDE8F0812DE9F04F87B02A
:10201000002607F0AAFBDFF808B405465C46DBF8AB
:102020004400281A03900AF0BAFCFE49C9680AF075
:10203000B9FB0590DFF8F0A3656400249AF82E70D0
:102040000BF18A054FF07E58F5487E3030F91400C8
:102050000AF09CFC05990AF0A5FB4DF8240027B373
:1020600038460AF09CFC014640460AF0D1FB814606
:102070000490EB48843030F914000AF087FC49469C
:102080000AF090FB8146414604980AF088FBE74934
:1020900051F824100AF086FB49460AF02BFBE3496D
:1020A00041F824000AF091FC03E0DD48843030F868
:1020B000140025F8140035F91400641C00FB0066B8
:1020C000032CC1DB64204643D9486946008840435D
:1020D00096FBF0F4D5481830FFF7A9FDD34EA0B217
:1020E000493818363C2826D2D2480024A946B0F8F0
:1020F000F2000AF054FC4546414604900AF0FAFA10
:10210000014628460AF084FB4FEA000539F914001D
:102110000AF03CFC074656F8241004980AF042FBEB
:1021200039460AF0E7FA29460AF03CFB46F8240053
:10213000641C032CEADB5D46BBF902000AF026FCB6
:102140003446B1680AF08EFC01D2012000E0002084
:10215000B949A1464873D4E901010BF025FAB04E04
:1021600098363060A06801460AF01CFB074660689C
:1021700001460AF017FB39460AF0BCFA0BF0EAFFF9
:102180000146206880F000400BF00EFAAB4F706003
:10219000394630680AF006FB0BF0F0FBA6F160044C
:1021A0003946208070680AF0FDFA0BF0E7FB60808A
:1021B0000820FFF7B1FCDFF888B2002869465CD040
:1021C0009A480C38FFF733FD9A48984F002446464A
:1021D0000C3FB0F8F4000AF0E2FB314604900AF03C
:1021E00089FA014630460AF013FB06468C489030C7
:1021F00030F914000AF0CAFB804657F824100498FE
:102200000AF0D0FA41460AF075FA31460AF0CAFAE5
:1022100047F82400641C032CE8DB8448B0F10C0070
:10222000FFF74AFEABF800000398FFF7B0FD9AF8FD
:102230007600564600284AD0D9F808004C46014698
:102240000AF0B0FA8046606801460AF0ABFA074629
:10225000206801460AF0A6FA39460AF04BFA4146D0
:102260000AF048FA0BF076FF0146A0680AF0D0FAAF
:10227000744988420DDC002028E06948A030FFF74F
:10228000D6FC6749A0310846FFF790FE6448A030AD
:10229000C6E70BF0F9F8296F0AF084FA0BF06EFB31
:1022A0004FF46171884200DD08460AF06FFB664911
:1022B0000AF0AEFA0BF088FE044696F876000AF0B3
:1022C0006EFB21460AF06EFA0BF058FBA88007B0AF
:1022D0005BE510B502F03BFD0220FFF71DFC20B1CD
:1022E00002F066FCFFF791FE05E04D4900208431C5
:1022F0000880488088804F48494942797E31881F4C
:10230000012A06D08A8882800A8802804988418012
:1023100010BD434BB1F90420B3F9064002EB44026F
:10232000032492FBF4F28280DA80EDE73F4900203B
:102330000C310860486088603949C860886070471F
:102340002DE9FE4F07F011FA024635483830B0F952
:102350000010002901DD0B4600E04B42B0F90200FD
:10236000002801DD044600E04442A34205DD0029C7
:1023700001DD084604E0484202E0002800DC40425B
:10238000274C05B246F2A811A06CA2EB00098945C2
:1023900002D20020BDE8FE8F2C4EA264DFF8B0A070
:1023A0003088DFF8B0B0204F4FF07E5840B3206E39
:1023B0002269C11700EB5171A0EBE10097F83110D1
:1023C000491EB2FBF1F10844C117206600EB5170C1
:1023D000C0100AF0DBFA51460AF01AFA59460BF01F
:1023E000E5FA41460AF0DBF91B490AF0DBF90AF08D
:1023F000ECFAE0650020206560653088401E308082
:10240000094F216997F83100401EB1FBF0F00AF046
:10241000C6FA51460AF0FCF959460BF0C7FA1DE01E
:102420000C000020C80C00201C0800201809002007
:10243000B801002004040020CC0A00204C3D0F44C9
:10244000E80100208FC2753CEFB6B044E6010020E1
:1024500080E6C547B1DC423ED048874A4FF07E58FF
:1024600041460AF09CF9AD490AF09CF90BF086FA56
:10247000E16D7F6B461A394640460AF08DF9804679
:1024800030460AF083FA41460AF08CF90646606944
:102490000AF07CFA39460AF085F931460AF02AF941
:1024A0000BF06CFA06464FF0FF3B6061FA2D01DD40
:1024B000584613E028460AF069FADFF8648241467C
:1024C0000AF06DF90746206A0AF060FA39460AF008
:1024D00069F941460AF09CF90AF077FAA0F101087F
:1024E00007462062B8F1C70F03D2F01B6761E061B5
:1024F00026E0E069361A6661002F21DDC7F5967087
:102500000AF044FA87490AF083F98246A0615146ED
:102510004FF07E500AF040F9009030460AF036FA4B
:1025200000990AF03FF9064638460AF02FFA51465C
:102530000AF038F931460AF0DDF80AF046FA60612F
:10254000A0680AF02CFA074677490AF02BF90646EC
:10255000E0680AF01BFA8246744880680AF016FAAE
:1025600051460AF055F98246E16E0AF01BF93946E8
:102570000AF018F90090206D314601900AF012F926
:102580000746594600980AF083F931460AF00AF9DD
:1025900039460AF0AFF8616D0AF0ACF8834664483A
:1025A000C76B4FF07E5039460AF0F6F80646606970
:1025B00002900AF0EBF931460AF0F4F80646394683
:1025C00058460AF0EFF831460AF094F86065B8F121
:1025D000C70F01D2029801E00AF0F7F96066DDE961
:1025E00000100AF087F82065FFF7A0FE48460AF0C1
:1025F000D6F907466669A06D301A0AF0C7F94D4949
:102600000AF0D0F839460AF003F90AF0DEF940F290
:10261000DC525142A66504F089FE0A21FFF7F6FA62
:10262000434E81464FF07E50D6F8388041460AF03E
:10263000B3F8074648460AF0A9F939460AF0B2F855
:1026400007464146206D0AF0ADF839460AF052F8C7
:1026500020650BF093F907460521FFF7D7FA2063B1
:10266000B5F5487F57DA20784FF49678C8F100091D
:10267000C8B3A06A4246C51BB07A6843C11700EBD5
:10268000D1604011494604F051FE6062307DE16A3C
:10269000294A00FB05105142E06204F047FE42F275
:1026A0000401E06290FBF1F0616A08446062504608
:1026B000E16C0AF01FF80546B07F0AF070F9294670
:1026C0000AF070F86FF008010AF0E2F80AF07DF9FC
:1026D0009622514204F02AFE616A081AC4F84CA0FE
:1026E0006062012056E6FFE7D4E91910401A4FF462
:1026F000FA72514204F01AFE0A21FFF787FA0146E6
:10270000307942464843C11700EB5160C011494639
:1027100004F00CFEAEE70020E0E70000D048874A56
:10272000000061440000C842BD37863524090020FE
:102730001C080020002474492003190070B5CD4DF9
:102740000446286808F034FD0028FAD0E1B2286871
:1027500008F016FD204670BD88B0FEF717FF002078
:10276000FFF7CBF9FEF746FFC34CA07B00B1012079
:1027700008F0B5FEC148C249C24D00680126884232
:1027800001D12E6004E0C049884201D102202860B6
:1027900007F01DF80820FFF7D4F930B194F81701BD
:1027A00008B1012801D104F066FC642007F09EF80E
:1027B000FEF746FF08F0F7F8022802D12868022841
:1027C0001AD02868032802D0012006F0B9FA94F83C
:1027D0000E01002518B1012811D009280FD08DF85D
:1027E000185084F80E5100BF94F82B0188B10128CD
:1027F00008D0092806D00CE003202860E7E78DF810
:102800001800F1E794F80E11884202D08DF81900F3
:1028100003E08DF8195084F82B5106A805F06AFEE4
:102820000220FFF78EF908B102F0AAF804F086FD45
:102830000E20FFF779F901F041FF10B9032007F0EE
:1028400060F892494FF0100AC1F800A0A1F1040805
:102850004FF00809C8F800900027A8F1040B00BF4A
:10286000DBF8001081F01001CBF80010DBF800104D
:1028700081F00801CBF80010192007F037F801208B
:1028800006F090FF192007F031F8002006F08AFFCB
:102890007F1CFFB20A2FE3D34F46C8F80090C8F858
:1028A00000A0FFF773F900F036F9D4F8340102F014
:1028B00002FC60790E2809D0082807D08DF8065050
:1028C0004FF48070FFF73DF938B902E08DF80660EB
:1028D000F6E70820FFF735F900B101208DF8020076
:1028E0004020FFF72EF98DF803000120FFF729F9AA
:1028F0008DF801000820FFF724F9DFF8788180F0D7
:1029000001008DF80000DFF8889198F816008DF826
:10291000040099F8C0004FF47A7AC0F380008DF873
:10292000050034F8DE0FADF80A006088ADF80C0041
:1029300020798DF80700DE3CADF80EA04FF4804002
:10294000FFF7FFF818B1B4F8DA00ADF80E00BDF8E3
:102950000A00B0F5FA7F01D9ADF80E50B4F81A01AB
:10296000ADF81000B9F8BC00ADF8120094F80E01F3
:10297000012827D0092828D08DF80850684606F08D
:10298000DFFD9DF8140088F81700424B002040F24C
:10299000DE5200BF23F81020401CC0B21228F9D329
:1029A0003E4A3D48106088F815700820FFF7C9F8C6
:1029B000F8B194F8170105281FD2DFE800F00A0AE1
:1029C0000E1216008DF80860D8E707208DF8080071
:1029D000D4E7324804F027FB0FE0304804F021FE32
:1029E0000BE02E4804F0D6FE07E02C4805F0CFFAA5
:1029F00003E094F8310103F052FA0120FFF7A1F847
:102A000030B14FF48060FFF79CF808B102F034FA5F
:102A10004020FFF796F848B194F83C11D4F83801FB
:102A200008F0D8FA94F83D0108F0E7FA4FF4006096
:102A3000FFF787F808B105F03BF906F096FE184954
:102A400008606079052803D116494FF4C8700880E2
:102A50001549C820A1F800A01449088014484673FD
:102A600001F005F9FCE70448B0F9D40000F059F989
:102A7000FEE700003C09002004040020A003002021
:102A800000127A00C8000020001BB700140C01409F
:102A90001C080020E00A00202D380008200100203A
:102AA0001C010020B4010020B6010020E601002036
:102AB000CC0A00200146FE4800EBC100B0F97C00C2
:102AC000122804DA082902DAFA4931F910007047AD
:102AD000F74A02EBC00090F97E00084202D04FF0A6
:102AE000FF307047012070472DE9F041F24DF34E61
:102AF00000244FF480473846FFF723F810B1B5F8AB
:102B0000DA0001E0B5F8D40026F81400641C0C2C9F
:102B1000F1DBBDE8F0812DE9F047E74CE84E607944
:102B200006EBC000407800B10120E64DA8752020DA
:102B3000FFF707F84FF0010A08B185F816A0607991
:102B4000DFF87893E04D09F11809172808D016F836
:102B5000301006EBC0002970426842B3002024E028
:102B60000020CC4604EB00110A6912F0FF4F1ED082
:102B7000D1E905670CEB0013C969401CC3E9027178
:102B8000C3E900262978491C29700C28EADB0EE0ED
:102B900002EB001609EB0013D6E9007CD6E90286A9
:102BA000C3E90286C3E9007C401C8842F0DB4FF495
:102BB0008040FEF7C6FFD8B12F78012F18D9002624
:102BC00014E000BF09EB06154FF0FF384146A86836
:102BD00009F05EFEA8604146686809F059FE686029
:102BE0004146E86809F054FE761CE860BE42E9DB25
:102BF0006179B648082906D00E2904D00021017455
:102C0000BDE8F04770E780F810A0F9E7F0B5401C88
:102C10000021A94A0B4600BF02EB0114491C2361A5
:102C20000C29F9DBA64B03EBC0014C68002C11D03A
:102C3000002113F830000BE004EB011302EB011547
:102C400093E8C010DB68491CC5E906C3C5E9046701
:102C50008842F1DCF0BD9B4810B5807D00284DD046
:102C6000994C9548A41D4279E0882189082A27D0EB
:102C700006DC012A15D0042A29D0052A06D10AE04B
:102C80000E2A29D0142A22D0152A25D02020FEF77A
:102C900058FF002832D02188002006F0EDFC618822
:102CA00013E089498248891D90F8BF00498908B11D
:102CB00000201FE0854840780028F9D10021F7E77F
:102CC0000146002006F0D8FC2189012012E00020F6
:102CD00006F0D2FC6189F8E70146002006F0CCFC42
:102CE0002189012006F0C8FC6189022006F0C4FC9D
:102CF000A1890320BDE8104006F0BEBC10BD70B530
:102D00006E4E0024183E704D07E000BF36F81410D8
:102D1000204606F0AAFC641CE4B228788442F5D36D
:102D200070BD694A654B00211278183B04E000BF72
:102D300023F81100491CC9B29142F9D3DFE72DE90C
:102D4000F05F6248604C00264078DFF884A15A4D5D
:102D5000A41D70B3B5F8D220B5F8D010BAF90600AA
:102D600004F0E4FA5549E0811839A846088095F83E
:102D70002401554DDFF83891E0B34E4B99F9D970E5
:102D800003EB4000B8F82821B8F8261130F9020CFE
:102D900004F0CCFAB8F81A11081A01B298F8220116
:102DA00058B1B5F902308B4209DA0A46184419467F
:102DB00009E0FFE7B5F8D400D4E7698006E005DD57
:102DC000A3EB00001A4604F0B1FA6880B5F90200DE
:102DD000414260F30F0609B261F31F46012F01D093
:102DE000032F02D1404260F30F06022F02DB48425C
:102DF00060F31F4698F825014FF0640B60B3022082
:102E0000FFF758FE4F46B9F98A20B9F9881004F047
:102E10008DFAB8F81A11081A01B298F8220138B1DF
:102E2000B5F904308B4205DA0A461844194605E024
:102E3000A98006E005DDA3EB00001A4604F076FA4F
:102E4000A88097F98E00B5F90410484390FBFBF079
:102E5000B8F81A110844A0801C48807A48B1BAF822
:102E60000010E1802181BAF804106181BAF80200F3
:102E700006E018480188E1802181818861814088CD
:102E8000A08103224B465D4603EBC20034F91210C9
:102E900090F97E00484390FBF5F024F812001046AC
:102EA000FFF708FE34F81210084424F8120013E06B
:102EB0001C080020E00A0020040400206C09002007
:102EC00028F300083C090020CC000020CC0A002098
:102ED000880100206C010020521C072AD4DBE08806
:102EE0003044E080208900EB26402081BDE8F09F3F
:102EF0002DE9FC5FFE4CDFF8FC93FF4F20780328A0
:102F000014D9B9F904004142002801DD024600E06D
:102F10000A4602F1640200DC08466FF06301A1EB8F
:102F20000001B7F9040004F001FAB880F048DFF8B6
:102F3000CC83F34D0078012839D90024824634E04F
:102F400098F9BE00B7F904104042484309F01EFD4D
:102F5000EB49303101EB0416F16809F023FC83469C
:102F6000B7F9000009F012FD716809F01BFC01902F
:102F7000B7F9020009F00AFDB16809F013FC0090EE
:102F8000B9F9060009F002FD316809F00BFC00995F
:102F900009F0B0FB019909F0ADFB594609F0AAFB15
:102FA00009F013FD25F81400641C5445C8D3DFF85C
:102FB00054A3CF4CDFF850B39AF80500A41D08289D
:102FC00069D006DC012838D0042809D0052841D171
:102FD00041E00E285CD014287BD01528F7D1DCE026
:102FE0000420FFF767FD034602210420FFF770FD70
:102FF000B7F9041000FB01F601210420FFF768FD7A
:10300000B7F9021000FB0160184420810520FFF78A
:1030100051FD064602210520FFF75AFDB7F90410BD
:1030200000FB01F301210520FFF752FD0146B7F92E
:10303000020001FB003030440BE00520FFF73AFDB1
:10304000034601210520FFF743FDB7F9041000FBFB
:1030500001306081C5E098F97E00BBF9021032268C
:10306000484390FBF6F708F17E025B460020FFF72D
:1030700021FD3844208092F90800B3F9001048433C
:1030800090FBF6F20120FFF715FD10446080A8E0E8
:10309000FFF755FEA5E098F8D800464618B9B9F8EC
:1030A0000600288068802888E0816888A081974889
:1030B000417819B9BAF8D410E181A181807A4FF032
:1030C000020100284FF0030004D0FFF701FD4F4636
:1030D00002E049E0FFF7FCFCB7F90010484309F0B3
:1030E00055FC56F8D01F09F05DFB814601210320F5
:1030F000FFF7EEFCB7F90210484309F047FC71688E
:1031000009F050FB494609F0F5FA09F05EFCE08051
:1031100002210420FFF7DCFCB7F90010484309F056
:1031200035FC316809F03EFB814601210420FFF7A0
:10313000CFFCB7F90210484309F028FC716809F088
:1031400031FB494609F0D6FA09F03FFC2081032003
:10315000FFF7B0FCE1880844E0800420FFF7AAFCF8
:103160002189084420813CE0042301211846FFF70F
:10317000AFFCC3F1050137F81110484324F81300E0
:103180001846FFF797FC014634F81300084424F86A
:1031900013005B1C062BE8D323E00323022118460F
:1031A000FFF796FCB7F9041000FB01F60121184661
:1031B000FFF78EFCC3F1060121F00101795E01FBEE
:1031C000006024F813001846FFF774FC34F813105D
:1031D000084424F813005B1C072BDFD3B9F8060062
:1031E00028802020FEF7ADFCC8B30020FFF762FC6A
:1031F00020800120FFF75EFC45496080097A71B3A9
:1032000098F8C0204146920715D591F97E20BBF968
:10321000023056425E43322398F98610BBF90020F3
:1032200096FBF3F6514391FBF3F1721A2388314474
:103230009A1A228011E091F97E60BBF9023027884A
:103240005E43322396FBF3F63E44268098F98610BF
:10325000BBF90020514391FBF3F108446080002644
:103260004FEA080707EBC6007830B0F90220B0F942
:10327000001034F9160004F059F824F81600761CF2
:10328000082EEFD397F8C000DFF8888040070FD5ED
:1032900021484FEA0807C67D361F002407EB44008B
:1032A0000189A019C0B206F0E7F9641C042CF5D31B
:1032B0000F4FB5F9006001203A7805E035F910109C
:1032C000B14200DD0E46401C9042F7D3002467E077
:1032D000BAF8D200B04205DA35F81410301A081ADC
:1032E00025F814004FF48040FEF72BFC58B315E08E
:1032F000CC000020880100206C0100201C08002068
:10330000540900200404002044000020CC0A0020BE
:103310002A0B0020E00A00203C090020B8F9061022
:10332000BAF81A215046914204DDB0F8D220BAF81A
:10333000D81003E0B0F8D620BAF8D41035F914004C
:1033400003F0F4FF1EE0D146BAF8D220BAF8D0104C
:1033500035F9140003F0EAFF25F81400B8F9061057
:10336000B9F81C01814213DA1020FEF7EAFB38B1EC
:10337000B9F8D40025F8140001210C48417403E089
:10338000B9F8D00025F814000848407810B106E0DC
:103390000021F2E7064830F8140025F81400641CF8
:1033A0003878844294D3BDE8FC9F0000CC0A00200A
:1033B0006C0900202DE9F04717468946064600258E
:1033C000DFF828841AE0002411E000BFD8F80010CC
:1033D00081F00801C8F80010012006F0E3F9484622
:1033E00006F084FA002006F0DDF9641CE4B2B44271
:1033F000ECD33C2006F07AFA6D1CEDB2BD42E2D36C
:10340000BDE8F0872DE9F84FF94BFA4CB3F9060007
:10341000E18C884201DA642510E0F64AB0F5FA6FD3
:1034200092F8252008DA451A5543C1F5FA6195FB53
:10343000F1F1C1F1640501E0C2F16405DFF8B8E320
:10344000A14694F870B094F871A0BEF81A41002219
:10345000E74940F2E63C31F91260311B01F2F31703
:10346000674503D8002903DCA11B01E04FF4FA7182
:10347000022A33D0BBF1000F05D08B4502DAA1EB55
:103480000B0100E00021642391FBF3F3D84F6FF0B0
:103490001808243707EB430C37F91370BCF902C046
:1034A00003FB08F3ACEB070C01EB83030CFB03FC01
:1034B00064239CFBF3F31F44D04B23F8127099F85C
:1034C00023304B434FF4FA7193FBF1F1C1F16401E6
:1034D00089B26943642391FBF3F11CE0BAF1000F58
:1034E00005D08A4502DAA1EB0A0100E000219EF92D
:1034F000EC30DFF808C35B424B43ACF8043099F87A
:103500002430002900DC49424B434FF4FA7193FB0D
:10351000F1F1C1F1640109EB0207642397F801C0DE
:10352000DFF8D8820CFB01FC9CFBF3FCA8F17C08C3
:1035300008F802C097F80BC008F103080CFB01FC67
:103540009CFBF3FC08F802C07F7D4F4397FBF3F12F
:1035500008F10303A642995405DAA84931F812305C
:103560005B4221F81230521C032AFFF671AF7646F7
:10357000BEF81C114FF4FA6203F0D8FEB6F81C1125
:103580004FF47A72401A5043C1F5FA61B0FBF1F280
:10359000642192FBF1F0964B6FF01805323303EB88
:1035A000400433F910306843B4F9024002EB800064
:1035B000E41A444394FBF1F0DFF840828C4D184448
:1035C000143DA8F80600687AA8F1A004E8B38C4876
:1035D000B4F91810B0F90000401A09F0D7F9894978
:1035E00009F0E0F8884909F013F907460AF006F9EE
:1035F000009038460AF0E8FC83464746B8F90000D8
:1036000009F0C4F98246594609F0CCF88046B7F96A
:10361000020009F0BBF98146009909F0C3F8414660
:1036200009F068F809F0D1F980464846594609F092
:10363000B9F881465046009909F0B4F8494609F0B6
:10364000ABF809F0C2F9388000E001E0A7F8028089
:103650000220FEF776FA0027E8B3E189E06C08441F
:10366000E064E079401CC0B20621B0FBF1F2E071E9
:1036700001FB120080BB606CC11700EB5171A0EB25
:10368000E1006064002004F0BDFF616C0844C117D4
:10369000606400EB5170C0F3CF0001F046F9608325
:1036A00096F80E01C0B1A06CC11700EB5171A0EBF0
:1036B000E100A064022004F0A5FFA16C0844C1173A
:1036C000A06400EB5170C0F3CF0001F046F9A06692
:1036D000E16C484301E021E014E04FF47A7190FB83
:1036E000F1F0DFF818C1C117ACF1200CDCE90623BA
:1036F00080185941CCE90601444A002308F0F8FE3D
:10370000E764E066608B618C884203D896F80D11FF
:10371000814201D9A77101E00420A071A07903F0D2
:103720006CFD3B48314E008818B10220FEF7F4F9D9
:1037300010B93848008820B1306880F00800306047
:103740000CE0A978082011B12849091D08606978A2
:1037500011B126490831086004F08FFA8020FEF785
:10376000F0F948B1216D206B411A05D44CF250316B
:103770000844206506F0D4FB216C206B411A03D469
:10378000697B39B10120A87002F090FA22480078D4
:1037900048B10FE0AF70316881F0080131601F4916
:1037A00008442064F0E74FF40060FEF7CAF908B15E
:1037B00004F09BFA2020FEF7AFF968B1616D206B31
:1037C000411A09D4217B052906D3154908446065AF
:1037D000306880F01000306012488168002923D0E2
:1037E00001B00648BDE8F04F843808470C0C014092
:1037F000E00A00201C0800200404002088010020AA
:10380000E8010020DB0F494000003443407E050002
:10381000B4010020B60100200000002020A1070014
:10382000F0490200C80C0020BDE8F88FF7490844B1
:1038300090F80F0105F02ABF2DE9F0470820FEF7A8
:1038400080F9F34EF34D4FF0000440B1B16BE0B29C
:10385000884725F81400641C082CF7DBD0E5ED4FF1
:1038600040F2DD584FF00009903FB16BE0B288475D
:10387000A0F2EE21414502D3E448B0F81A01B16D3F
:1038800007EBC402CB1701EB937323F00303C91AB0
:1038900022F8110025F814905FF0000035F814307C
:1038A00032F81010401C194425F814100428F5DBD8
:1038B00035F91400C11700EB9170801025F8140041
:1038C000641C082CD1DBB06D401CB06598E5D24873
:1038D0000288D0481438417852B9827842B1002920
:1038E00005D101214170CD48C9490088088370473E
:1038F0000029FCD10122FF2102205BE52DE9FC5FBC
:1039000000208346054607460190C148A030B0F923
:1039100002104B42002901DD0C4600E01C468246A5
:10392000B0F900004242002801DD064600E01646DC
:10393000B44205DD002901DD084604E0184602E036
:10394000002800DC1046DFF8D89200240090B14E29
:10395000143EF07808B93079F0B3022C40DAAC4864
:10396000783030F914103AF9140001EB4000A749FF
:10397000B1F8F820514203F0D9FCAA49DFF8A8B207
:1039800031F91410411A0BEB4400B0F92A0001EB95
:1039900000089BF80810642001FB08F191FBF0F08F
:1039A0009BF81C1001EB8102494201EB810103F0FD
:1039B000BDFC0190964842F210728C3050F82410F1
:1039C00001EB0800514203F0B1FC91498C3141F800
:1039D00024009BF8121000E008E048434FEA203B27
:1039E000F07818B1307908B9022C4FD13AF9145057
:1039F000884F05EB850001018B489C3F00EB0408D4
:103A00004FF47A5298F8010091FBF0F039F9141054
:103A1000401A57F824100844514203F087FC47F835
:103A2000240039F9140000F52070B0F5A06F06D815
:103A3000022C07D1BAF904006430C82802D900204A
:103A400047F8240057F824007D2190FBF1F198F805
:103A50000B00414330798F11B0B1022C14DA009879
:103A6000009BC0F5FA71019801FB00F2009801FB80
:103A70000BF105FB00204FF4FA7207FB031190FBDA
:103A8000F2F091FBF2F608E0F07820B1022C02DAB5
:103A90005E46019801E028463E465D4A39F9141019
:103AA00024325023125DDFF86C814A4392FBF3F21B
:103AB000574B821A7E33A8F1500833F9140023F8CB
:103AC0001410081A08F10C0158F8243051F824C0D9
:103AD00041F824309C44844448F824004C482A305F
:103AE000005D00FB0CF0C11700EBD1609119A1EB58
:103AF00060104749843121F81400641C032CFFF640
:103B000026AFBDE8FC9F2DE9F05FDFF804B1414E20
:103B100000240BF1A00BDFF810A19C3EDFF8F09021
:103B200001E0022C71D03A483BF9141078304FF480
:103B3000FA7230F914000844514203F0F7FB394996
:103B4000554631F91410401A0AEB4401B1F92A1014
:103B5000084408F01BFF354908F05AFE08F035FF0D
:103B60002C4A143AD178E9B3297A41430911AA467B
:103B70002B480AEB040730F91400FA7A0D1A78780A
:103B800056F8241068434FEAE018B9F80E0068436D
:103B9000C01200FB02104FF4001246F824005142FC
:103BA00003F0C4FB46F8240043131A48203850F8A9
:103BB000241040F82450B9F80E00691A02094FF693
:103BC000FF70B0FBF2F0484312498011383901F11F
:103BD0000C0251F8245052F824C042F82450AC444E
:103BE000844400E02CE041F82400787D08EB0301D8
:103BF00000FB0CF001EB20200549843121F8140072
:103C0000641C032C8DDBBDE8F09F11E00404002050
:103C1000E8000020E00A0020B6010020E8010020B2
:103C200084000020440000201C08002000002041E7
:103C30009AF82400BBF904101B304843411197E760
:103C400095F823103BF914301B31594312790911AF
:103C5000002A8CD0AA7C424301EB222187E7FD4950
:103C6000012801D0FC4800E0FC48C86370472DE9FA
:103C7000FC5F0026B146019608200096FDF761FF23
:103C8000DFF8DCB3A0B19BF81701052810D2DFE8FC
:103C900000F0030306090C0003F0EAF907E003F063
:103CA000EDFC04E003F086FD01E004F065F900900E
:103CB000DFF8A083EB4FDFF8B0A3D8F83010D8F8C6
:103CC0005C004FF00105081A4FF0000402D500987F
:103CD00000287BD044F620621144C8F85C10FFF73E
:103CE000ABFD4FF48040FDF72CFF28B1DD485E307E
:103CF000007808B900F0C5FC00F0E2FDA8F81E004D
:103D00004FF40070FDF71DFF20B94FF40040FDF7A0
:103D100018FFD0B39AF8B820B8F910C002EB8201AE
:103D2000614520DA7878F0B1CE490020BBF91A312C
:103D300011F1140121F81030401C0328FADBBAF805
:103D4000BA30CB809AF8B900104400EB800060458F
:103D500004DAB87C10B900F094FC3C70B8F812108A
:103D6000491CA8F812109AF8B80000EB8001B8F9C5
:103D70001000814204DA787810B900F082FC3C70BF
:103D8000B8F81010491CA8F81010BBF81CC1BBF8FB
:103D90001E210020B349B608143131F910306345B3
:103DA00001DD46F08006934201DA46F04006401CF1
:103DB0000428EFDB98F80900864208D198F808003B
:103DC000FA2806D2401C88F8080002E0ACE288F825
:103DD000084088F809604FF480463046FDF7B1FE90
:103DE00068B1A048BBF81A111430BBF8DC20B0F958
:103DF00006008B1A834202DA114481420BDC304602
:103E0000FDF79FFEE8B997481430B0F90610BBF8EB
:103E10001C01814215DA0120019092488838046023
:103E2000446084608B488C3004604460BAF846007B
:103E3000B8B18C485E30007850B1387888B1FFF75F
:103E400046FDBAF8460060B186485E30007840B959
:103E5000787830B19BF8210108B9019808B100F0D9
:103E600010FC98F80800142818D17878B8B1BAF87E
:103E7000460028B998F809005F2801D100F001FC3C
:103E80009BF82001002809D0BAF84600002805D187
:103E900098F809007D2801D100F0F3FB98E098F82C
:103EA0000900572808D00420FDF74BFEE0B198F830
:103EB00009005A2821D017E06C494FF47A70088025
:103EC0004FF48070FDF73DFE08B102F0EDFA0420DA
:103ED000FDF722FE10B166490A2008800820FDF790
:103EE0001BFE08B96348048098F809005D2819D0C2
:103EF0005B2819D05E2819D027E098F8030020B17C
:103F000088F8034088F804501FE098F8020090F009
:103F1000010088F8020001D0022000E0032088F8A8
:103F2000000012E0012002E0022000E003204C49E2
:103F30000646401E81F8140400210846FDF7E7FB01
:103F4000324628210220FFF735FABAF8460018B9A0
:103F500098F809106F290ED09BF8201121B118B9DB
:103F600098F809007E2806D098F80900972805D00F
:103F7000A72808D008E0FFF7AAFC05E03E484FF468
:103F8000C871018000E0BD7398F80900BB2806D015
:103F9000B72808D0BE280CD0BD280ED018E0BAF83B
:103FA0002C10891C02E0BAF82C10891EAAF82C10DB
:103FB00008E0BAF82A10891C02E0BAF82A10891E13
:103FC000AAF82A1001210846FDF7A1FB88F808404D
:103FD0000420FDF7B6FD18B398F80210322089B11D
:103FE000797879B11F491431B1F90620BBF81C1159
:103FF0008A4207DD1B495E31097819B9A8F8140017
:1040000088F8024017495E31497C51B198F8051093
:1040100098F80320114301D1A8F8140088F805503E
:1040200008E098F8030028B1787818B988F80340B8
:1040300088F80450DFF82CE000200EF1140E00BFC9
:104040000EEB4001B1F9082040F214518A4215DA12
:10405000012314E0E8000020FD380008073B0008B9
:1040600004040020CC0A00201C080020B601002017
:10407000E6010020E8010020B4010020002300EB4D
:1040800040018B40A2F21556B6F5C77F01D8012634
:1040900000E0002601F1010C06FA0CF6334340F271
:1040A000A466B24201DD012200E00022891C8A40A0
:1040B000134343EA0903401C1FFA83F90428BFDBBA
:1040C000FA4900200AEB4002B2F8462012EA09023F
:1040D00000D001220A54401C1528F3DB48780E4614
:1040E00038B99AF8B800B8F9101000EB800088428F
:1040F0001CDA0220FDF710FDC0B1F87818B9EC48C1
:1041000004604460FD704FF40040FDF71AFD78B183
:104110009AF8B800B8F9101000EB8000884207DA6E
:104120002020FDF7F9FC18B1BD7401E0FC70BC74EF
:10413000B17839B1FC70397929B9DD490C604C602E
:104140003D7100E03C71307800B93D70F978102085
:1041500009B9397909B1D74901E0D649091F086081
:104160000420FDF7D9FCF8B1F07880B1B87978B9BE
:10417000D148BD710168D1480160CD481430C08874
:10418000A8F81600CE480460CE48046000E0BC7178
:104190004FF40050FDF7D5FC30B1307918B1F87B01
:1041A00010B9FD7300E0FC730220FDF7B5FC18B9EF
:1041B0000820FDF7B1FCC0B17179304639B1797989
:1041C00031B9C1497D710A88C0490A8000E07C711B
:1041D000817919B1797A11B97D7200E07C72F07938
:1041E00018B1B9480088A8F818002020FDF794FC01
:1041F00000B3F87AE8B398F80C00052856D3DFF836
:10420000AC92B17A09F1220909B9B97C99B1F8796E
:1042100080B9A649FD713C721A3188F80A40081F1E
:1042200002F008FE022088F80100B8F82010C9F852
:104230000810FD743EE0FC71F07A68B39C4A1432B9
:10424000B2F90000002800DC4042BAF8CC108842E5
:1042500022DAB2F90200002800DC404288421BDA70
:10426000387A10BB924A3D721C3288F80A401168B5
:1042700000E01BE0C9F8001051688C48C9F8041030
:1042800009F10401223002F0D5FD88F80150B8F898
:104290002010C9F8081007E03C7298F80A0020B90D
:1042A00088F80A5002F063FDFC7403E0FC713C7274
:1042B00088F80140307B08B1B87C40B1BC729BF8F3
:1042C00005005E46082804D00E2802D068E0BD72C2
:1042D000F5E77C724FF40070FDF733FC18B39AF8E1
:1042E000B800B8F9101000EB4000B1EB400F57DDFB
:1042F000BC72FD706D490020B6F91A31B1F14A0166
:1043000021F81030401C0328FADBBAF8BA00C88044
:10431000F87A40B998F80C00052841D8BC74B6F872
:104320001A01323808803BE0D8F864004646052878
:1043300036D2DFE800F0030B151F2A00082075664F
:10434000FDF7EAFB10B100F01DFD48BB706E401C8C
:1043500070660420FDF7E0FB10B100F04AFCF8B9EC
:10436000706E401C70660420FDF7D6FB10B1FDF79F
:10437000E7FFA8B9706E401C70664FF48070FDF7BF
:10438000E0FB10B102F09DFC0AE010207466FDF71E
:10439000C3FB08B100F07BFD4FF40050FDF7D1FBEB
:1043A00005F0E3F9C8F83000BBF80C20464612B11E
:1043B000336EC31A78D41044D8463066FDF789FFAF
:1043C00005F0D3F93063B18E411AF1817063FFF7C4
:1043D00019F80820FDF7A0FB48B335491431B1F9AD
:1043E000042002F145008A2822D8787900B33648A3
:1043F000038836480088181A00B210F1B40F02DCA6
:1044000000F5B47000B2B42802DBA0F5B47000B2BD
:1044100098F9EC305B42434318B27B7B3BB19AF88E
:10442000093043431E2093FBF0F0101A888003E00C
:1044300025480188254801800420FDF76DFB70B1F7
:10444000B87960B1387C88B119481E49143098F9A0
:104450002331B0F90220096801FB032141809AF859
:104460007600D14608B3F87890BB62E0DFF8409060
:104470009AF8730009F11409B6F91630B9F9062053
:1044800038B3A2EB030CBCF1000F01DCA3EB020C70
:104490009AF8720084451DDD09499A420C60F57254
:1044A00000DD404210441CE0E9E04AE02A0B002015
:1044B00074010020140C01407000002074000020E2
:1044C0003800002030000020E8010020EA01002030
:1044D00031E009E0F07A10B36D4801686D48016081
:1044E0001CE0A9F80600BAE7D01A002801DD024650
:1044F00000E09A1A9AF872C06749624507DD674A78
:1045000000EBD070401010600D70F57207E0F07A8B
:1045100028B15F4802685F4802600C70F47260481E
:10452000B8F8D220B8F8D0100068184402F0FEFEA7
:10453000D7E7387928B15B485B4AC18812881144B3
:10454000C1802020FDF7E8FA10B3564DF879283DD8
:1045500008B9387AF0B3387BE0B3544CB4F90000B2
:1045600008F014FADFF84881414608F01BF909F019
:104570002BFD0090B4F9000008F008FA414608F05D
:1045800011F909F03BF98046387C10B103F021FDA8
:104590006BE0444F99F8C500DFF818A1303F90B3A5
:1045A0003C1DB7F90200B4F90210401A01F022FDD7
:1045B00099F8C520514202F0B9FE61880844608034
:1045C000B7F90000B4F90010401A01F013FD99F892
:1045D000C52000E046E0514202F0A8FE21880844D0
:1045E00000B2208008F0D2F98346009908F0DAF88A
:1045F0000746B4F9020008F0C9F98146414608F0BF
:10460000D1F8394612E0FFE7B7F9000008F0BEF92B
:104610008346009908F0C6F80446B7F9020008F08E
:10462000B5F98146414608F0BDF8214608F0B4F8D6
:104630005746514608F0ECF808F0C7F9288058466C
:10464000414608F0AFF804464846009908F0AAF839
:10465000214608F04FF8394608F0DAF808F0B5F9C5
:10466000688002E02C806C80AC80F06B8047FEF7A5
:104670003FFCFEF7F0FABDE8FC5FFEF740BBBDE88B
:10468000FC9F0D484178002901D0002141707047FE
:1046900070000020740000200C0000203400002076
:1046A000300000208801002010000020E8010020D8
:1046B00035FA8E3C00002041CC0A00202DE9F84F4D
:1046C000F94CFA4BFA4900263746B4F8F0209B46DD
:1046D000A1F1100005F01EFD08B101271AE0F54810
:1046E0000068032809D1F249B4F8F020A1F11000C4
:1046F00006F0F1FD08B101260CE0B4F8F010EC482A
:1047000005F00AFF30B9B4F8F010E94804F0EBFD09
:1047100000287CD0E84D4FF0020A4FF001094FF01D
:10472000000800BF94F8ED0007284BD2DFE800F046
:1047300008081A37422904000220FDF7FAF941E07F
:104740008DF800804FF44870D949ADF80200103957
:10475000684604F000F808B185F8009094F8ED0080
:1047600001282FD06FB1D249B4F8F0205B46A1F1F7
:10477000100005F0CFFC85F800A094F8ED000228A9
:104780002DD066B1CA49B4F8F020A1F1100006F0AE
:10479000A2FD0520287094F8ED0005281FD0C4481C
:1047A000103805F0B1FD28B10320287094F8ED0011
:1047B000032814D0BE48103806F0C1FC10B1042004
:1047C00028700CE0287850B994F8ED00401E0528B8
:1047D00002D284F8ED80A5E70220FDF7AAF9B448DB
:1047E000203004F05DF838B9B148203005F097FF6B
:1047F00010B90420FDF79DF90220FDF78DF928B1CD
:10480000AB4994F8E40010390968884700E055E0A6
:10481000A74994F8E300096888474E464FEA08071D
:1048200094F8EE0048B1012807D002280FD00328E1
:1048300015D10820FDF77DF911E09D48103004F0F6
:1048400056FA20B16E7094F8EE00012814D0984802
:10485000103006F0DCFD10B185F801A00CE068789E
:1048600050B994F8EE00401E022802D284F8EE708F
:10487000D6E70820FDF75DF990486422B0F92810CA
:1048800091FBF2F002FB101406B20820FDF744F988
:104890008B4D88B1204608F079F88A4907F082FFED
:1048A0000446304608F072F8214607F023FF864997
:1048B00007F078FF286000E02F600120BDE8F88F46
:1048C00010B5794C002094F82A11B1B17F484FF40B
:1048D0007A7200EB41000021B0F90600A0F57A7071
:1048E00002F024FD08F052F8794907F091FF794968
:1048F00007F058FF08F082F815E094F82B11002912
:1049000012D0032003F07EFEB4F82E1140F2FF32E5
:10491000401AB4F82C11C0EB802090FBF1F000B2EB
:10492000002102F003FD80B210BD70B505465E485F
:1049300090F80B0108F033F80446284608F02FF8E9
:10494000654907F02FFF654907F062FF214607F030
:1049500029FF08F053F880B270BD40F6E4414843A7
:1049600040F6FF71B0FBF1F04F49B1F80821B1F802
:104970000611801A4FF47A72504390FBF1F07047A1
:1049800070B500252C46002003F03CFE05440A20AB
:1049900004F0ACFF641C202CF5D3C5F34F10FFF7D7
:1049A000C4FF414A012192F80C3100BF03FB01F41E
:1049B000844202D8491C0829F8D34948017092F86A
:1049C0000D0148434749088070BD2DE9F05FDFF8CD
:1049D000E890454E394FB9F80420334C0025C2B356
:1049E000424900204FF4C878424501D141F8205097
:1049F00051F8203036F910C0634441F8203026F8D1
:104A0000105004EB4003401CA3F8FA500328EBDBE2
:104A1000012A19D10868C83090FBF8F024F8FA0F81
:104A20004868C83090FBF8F060808868C83090FB18
:104A3000F8F1B9F80800081AA0807D850121FA3C38
:104A4000BD850846FCF763FEB9F80410491EA9F8B5
:104A500004100420FDF775F800287DD0244BDFF802
:104A6000588022491A8808F124080C31A8F11A0A42
:104A7000322A05D0F2B300209B46322A3BD03CE0DC
:104A800034F8FA0FA8F800006088A8F80200A0889F
:104A9000A8F80400B7F82AC0AAF800C0B7F82CC0DC
:104AA000FA3CAAF802C0E6E70404002050090020FE
:104AB000C80C0020C8000020B00100201C08002005
:104AC000400000208988883C00002041E00A002046
:104AD00000007A4400C07F443333534000F07F45E8
:104AE0009C0100200A01002090000020980B00206B
:104AF000FC0000202FE041F8205051F8203036F91A
:104B000010C0634441F8203026F8105004EB4003F5
:104B1000401CA3F8FA500328AFDB012A18D1F4484F
:104B2000F44B057001201870F34B02201870B8F890
:104B3000000024F8FA0FB8F802006080B8F804000A
:104B4000A080BAF800307B85BAF80200FA3CB8853C
:104B5000521EABF8002000E01BE0E8480278C2B12A
:104B600005700A68322092FBF0F224F8FA2F4A68A6
:104B700092FBF0F26280896891FBF0F1B9F80800CD
:104B8000081AA0807D850121FA3CBD850846FCF706
:104B9000BEFD308834F8FA1F401A30807088618872
:104BA000401A7080B088A188401AB080BDE8F09F9C
:104BB000D34810B54168D3488847BDE8104004E7A2
:104BC00030B5D14CD14A206992F831200146401CC1
:104BD000824200D10020CE4A1368CE4A42F82130EA
:104BE000CD4952F820200D682B449A1A0A602061A2
:104BF00030BD70B5C948C44C00686169411A01D51F
:104C0000002070BD6061BE4DA069303578B1286963
:104C100080476868804728886169084460616A69DC
:104C2000BF49BB4890470020A061022070BDA86822
:104C30008047E8688047FFF7C3FF0120A0616888CC
:104C4000616908446061012070BD2DE9F05FAE4DDF
:104C5000E88800286DD0DFF8A8820024A8F13C087D
:104C6000A3464FF47A79A8F10C06E888484507D1A5
:104C700004EB840208EB820146F824B0C1F810B0BE
:104C8000A84F56F8241037F91400014446F82410B0
:104C900007F07CFE014604EB840208EB82008246AA
:104CA00000F0F8F827F814B09F4F27F814B0E88800
:104CB000012838D1DAF81000012808DD401E07F07D
:104CC00065FE0146DAF80C0007F0A2FD00E00020C6
:104CD00009F040FA8246954890F8F600B0B107F026
:104CE0005EFE514607F0BEFE10D28549A5F806903B
:104CF0003C39C8F810B0C1F824B0C1F838B0C6F8D3
:104D000008B0C6F804B0C6F800B00CE056F82400AD
:104D1000012200F5FA7090FBF9F027F814000F213A
:104D20000A20FEF747FB641C032C9EDBE888401E2C
:104D3000E8807C497C4A002031F8103032F810407D
:104D40001B1B21F81030401C0328F5DB2EE76C48B4
:104D500010B51030416873488847BDE8104074E7CB
:104D600010B5734810240460654970482031096803
:104D700090F8E50088476E48001F046062490120F2
:104D8000887010BD2DE9F04164485F4C0068E1690E
:104D9000411A02D50020BDE8F08166490844E0616F
:104DA00057482030416864488847DFF890C1564B27
:104DB00000269CF80E0060495C4A2A339D1D90B184
:104DC000E06920625FF0000002EB4007A7F8006195
:104DD00031F8107023F8107025F81070401C03286B
:104DE000F2D38CF80E60A07870B10888B2F8007128
:104DF000C01B08804888B2F80271C01B48808888B0
:104E0000B2F80471C01B8880206A98B3E769381A29
:104E10004B4FB84218D246480838026882F0080260
:104E20000260002031F9102033F91040A24201DA6B
:104E300023F8102035F91040A24201DD25F810209A
:104E4000401C0328EED315E00020266233F9101031
:104E500035F91040214402EB400401EBD17141F3DC
:104E60004F01401CA4F800110328EFD3012108468C
:104E7000FCF74DFC01208EE710B5012005F092FAF9
:104E80001020FCF751FE2F490020086010BD2D486E
:104E900005F0DCBA2DE9F041044600690E46401CDD
:104EA000206101281FD007F071FD25688046294642
:104EB000304607F071FC0746414607F0A9FC294639
:104EC00007F018FC054660602946304607F064FC90
:104ED0000146384607F066FCA16807F00BFC256028
:104EE000E060A06057E7666000202660F9E70000F8
:104EF000ED000020EB000020E8000020EC00002086
:104F0000B80C002090000020B00100201C080020F8
:104F1000B8000020B00B00201C0000201801002069
:104F2000BC0000208A000020C000002004040020F3
:104F3000140C0140A08601009C000020CC0A002037
:104F400080C3C9012C00002070B5FA4D04462146EB
:104F50006868006806F014F96868017961400171B9
:104F600070BD10B50446C0B2FFF7EEFFC4F30720D2
:104F7000FFF7EAFFC4F30740FFF7E6FF200EBDE8A6
:104F80001040E1E710B50446C0B2FFF7DDFFC4F3FF
:104F90000720BDE81040D7E7E64841688B1D4879F7
:104FA000421C4A71C05C704710B5FFF7F5FF04461C
:104FB000FFF7F2FF04EB002080B210BD10B5FFF741
:104FC000F3FF0446FFF7F0FF04EB004010BD70B59F
:104FD00004460D462420FFF7B7FF4D20FFF7B4FF2E
:104FE0000CB1212000E03E20FFF7AEFFD14C0020A5
:104FF000616808712846FFF7A7FF606890F84600CF
:10500000BDE87040A0E701460020E0E7014601202E
:10501000DDE7C8484068007996E770B504460D465C
:105020000846FFF7F0FF03E014F8010BFFF78CFFD1
:105030002800A5F10105EDB2F6D170BD10B504460A
:1050400003E000BFFFF780FF641C20780028F9D13F
:1050500010BD2DE9F05FDFF8E0B2DFF8D89201274C
:105060004FF0000A002518E0B448405D00EB400115
:105070000BEB8108D8F8040007F0EDFA06460FB1F3
:10508000B24409E0002405E0D8F80400005DFFF711
:105090005BFF641CB442F7DB6D1C99F8000085428D
:1050A000E2DB002F05D00AF0FF00FFF7ACFF00277E
:1050B000D8E7BDE8F09F2DE9F0479E4E00248146D9
:1050C0000246032321469E48B46004F043FD9D4DF3
:1050D000DFF868829D4F08F118082860C8F80000C2
:1050E000B068401CB0609848006803280EDB97F851
:1050F000190158B903234A460021954804F02AFDB6
:105100006860C8F84C00B068401CB060FF221521F0
:105110008A4807F05AFA894D02202C700124FCF7C6
:10512000FBFC20B1012068700220A8700324042039
:10513000FCF7F2FC50B103202855641C4FF40050DA
:10514000FCF7FFFC10B104202855641C0220FCF77A
:10515000E3FC18B90820FCF7DFFC40B10520285516
:10516000641C06202855641C07202855641C202038
:10517000FCF7E7FC10B108202855641C4FF4807040
:10518000FCF7DFFC28B10A202855641C0B202855A9
:10519000641C7879082801D00E2802D10C202855EB
:1051A000641C0D202855641C0420FCF7CAFC10B1B7
:1051B00011202855641C1320285597F84001641CC1
:1051C00000B10120FCF7BDFC10B114202855641C6F
:1051D0003470BDE8F0872DE9F05F4FF00009CA4652
:1051E0000FF2701B534E01275D4C7068DFF874811D
:1051F000564D90F8461030467529007874D023DC5F
:10520000692972D015DC452970D00ADCA1F1400172
:1052100005296CD2DFE811F016052305C804A604A1
:10522000310564390529F4D2DFE801F0F9F8F7F621
:10523000F5006A390B29ECD2DFE801F0FCFBFAF942
:10524000F8F7F6F5F4F3F200464ADFF81CB1CE2980
:1052500052786AD017DCC82930D00CDC782965D0A8
:1052600004DC762963D0772941D143E3A0295FD0BC
:10527000A429F9D1FBE3C9390529CAD2DFE801F035
:10528000388594A4FD00D42953D00ADCA1F1CF01C4
:105290004FF000090529BCD2DFE801F0ADF3F2F1CF
:1052A000F000F0296ED004DCD6296CD0EF29DBD1D8
:1052B00013E0FA2968D0FE29D6D1F6E300242B4D5D
:1052C000FFF772FE25F81400641C082CF8D30020A8
:1052D000FFF799FE02F04CFE03E2FFF765FEA085A2
:1052E000FFF762FE6085DBE3E7E2FBE1FAE3CFE391
:1052F000FFF752FE88F80B00FFF74EFE1C490870BE
:10530000FFF75CFE1B4C2060FFF758FE6060FFF764
:105310004BFE19490880FFF747FE184908801848D6
:10532000017841F002010170BAE3ACE3A3E148E384
:10533000E3E3BAE1EC010020E8F30008000D0020EF
:10534000003801403C090020C8000020040400206F
:10535000004800404E6F7620313820323031340022
:105360001C080020CC0A002074000020E00A002065
:10537000F40000209001002008010020AA01002074
:1053800098010020AFE38DE081E30025FFF704FEE4
:1053900066197070FFF700FEF072FFF7FDFD6D1CDF
:1053A00070750A2DF2D37BE30025FB4F08E000BFA8
:1053B000FFF7FAFD795D6D1C04EB4101A1F8460091
:1053C00030788542F4D36BE3FFF7E6FD04F81F0F56
:1053D000FFF7E2FD6070FFF7DFFD2071FFF7DCFDF6
:1053E0006071FFF7D9FDA071FFF7D6FDA070FFF740
:1053F000D3FDE07054E3FFF7D7FDA0F27951C72940
:1054000001D2A5F81A01FFF7CFFDEE3525F81E0CE5
:10541000FFF7CAFD0FE060E12AE1F6E073E05CE02F
:1054200065E2C2E281E24FE235E21CE2E8E1A8E196
:1054300096E183E164E125F81C0CFFF7B5FD25F842
:105440001A0CFFF7B1FDA4F8BA00FFF7A5FD85F827
:105450004200FFF7A1FD85F84300FFF79DFD85F8A9
:105460004400FFF799FD2877FFF796FD85F83C008B
:10547000FFF792FDFFF798FD04E0FEE229E01BE054
:10548000C3E2F5E200EB800040002085FFF784FDD9
:105490006877FFF781FDE877FFF77EFDA877FFF7D4
:1054A0007BFDFDE20024BD4DFFF77EFD25F81400D5
:1054B000641C082CF8D3F3E2002A84D1FFF76CFDBA
:1054C000B749022881F8140401D981F81494002105
:1054D000E3E2FFF769FDB349D3E20720FFF793FD4D
:1054E000E720FFF731FD6879FFF72EFD0020FFF779
:1054F0002BFD95F8250100B10820AB4950EA0100C9
:10550000FFF72FFDBDE30B20FFF77DFDA7480088C7
:1055100000B2FFF737FD03F020FE00B2FFF732FDC7
:105520000220FCF7F9FA04460420FCF7F5FA44EAF5
:1055300040040820FCF7F0FA44EA80042020FCF73D
:10554000EBFA44EAC0041020FCF7E6FA44EA001043
:10555000FFF718FD98F8031098F80430490041EA65
:10556000830198F80630424641EAC30198F80530B5
:10557000002041EA431198F80930874D41EA83132E
:105580008B49CC7943EAC4130C7A43EA04234C7A5E
:1055900043EA4423D47943EA8423147A43EAC423B4
:1055A000947A43EA04334C7B43EA44338C7B43EAEA
:1055B00084330C7C43EA04430C7943EA04134C7CA7
:1055C00043EA44438C7C43EA8443CC7C097D43EA30
:1055D000C44343EA015398F8011034780B43002187
:1055E00008E06E5C07FA06F21A4202D007FA01F2EE
:1055F0001043491CA142F4D3FFF7B3FC684890F86C
:10560000140400BFFFF7A0FC3BE31220FFF7FBFCF4
:105610006848694D4FF000040088B0F5806F0BD9E1
:1056200035F91400C11700EB5170C010FFF7AAFC48
:10563000641C032CF4D306E035F91400FFF7A2FC38
:10564000641C032CF8D35D4D002400BF35F9140011
:10565000FFF798FC641C032CF8D3594D002400BFBD
:1056600035F91400FFF78EFC641C032CF8D308E313
:105670001021544833E03820FFF7C5FC5FF00005E7
:1056800004EBC50636F9780FFFF77CFCB6F902008B
:10569000FFF778FCB6F90400FFF774FCB079FFF768
:1056A00053FC6D1C082DEBD3EBE20020FFF7ABFCA5
:1056B0005FF00005FFF778FC04EBC50626F8780FCD
:1056C000FFF772FC7080FFF76FFCB080FFF764FC9F
:1056D0006D1CB071082DEDD3D3E210213A48FFF7CD
:1056E0009CFCCEE21020FFF78EFC384D002400BF5A
:1056F00035F91400FFF746FC641C082CF8D3C0E20F
:105700001020FFF780FC98F80B00FFF71DFC3048D5
:105710000078FFF719FC2F4C2068FFF722FC606827
:10572000FFF71FFC2C48008800B2FFF72BFC2B482A
:10573000008800B2FFF726FC29482AE00520FFF781
:1057400062FC2848008800B2FFF71CFC2648B0F92C
:105750000000FFF717FC2548007800F0010051E732
:105760000620FFF750FC224D002400BF35F914003D
:10577000FFF708FC641C022CF8D31E48B0F90000A7
:105780006EE00620FFF73FFC1B480068FFF7E9FBCF
:105790001A48008863E00000000D00206C0900201A
:1057A00004040020EA010020040000C0F6000020EC
:1057B0002A0B0020B8010020960000208400002061
:1057C0009C000020D200002054090020E00A0020A4
:1057D000F40000209001002008010020AA01002010
:1057E0009A010020A6010020A801002098010020B5
:1057F00044000020E8010020700000203C00002050
:105800000720FFF700FCFA48FF220021008801F082
:105810008DFDC0B2FFF798FBF6484FF6FF742246A5
:105820000021006801F082FD00B2FFF7ABFBF248F7
:10583000008800B2FFF7A6FBF04895F80A1100684F
:1058400031B1002800DC404200EB8000400002E063
:10585000002800DC40422246002101F067FD00B232
:10586000FFF790FB0DE20720FFF7CDFB14F81F0FA9
:10587000FFF76AFB6078FFF767FB2079FFF764FBAF
:105880006079FFF761FBA079FFF75EFBA078FFF777
:105890005BFBE078B6E61E20FFF7B5FB0025661936
:1058A0007078FFF751FBF07AFFF74EFB707DFFF742
:1058B0004BFB6D1C0A2DF2D3E3E12F20FFF7A3FB76
:1058C000CF48FFF7BBFBDCE14006000EFFF79BFB78
:1058D0000025CC4F07E0785D04EB4000B0F94600AE
:1058E000FFF750FB6D1C30788542F4D3C9E1FFF718
:1058F000B0FBC6E1FFF787FB0024C34DC14FB046A4
:105900000EE0002606EB460005EB8000395D007ACC
:10591000884201D1FFF718FB761C152EF2D3641CC8
:1059200098F800008442ECD3ABE11620FFF76BFB44
:10593000EE35B5F92C00FFF725FB35F91E0CFFF706
:1059400021FB35F91C0CFFF71DFB35F91A0CFFF78D
:1059500019FBB4F9BA00FFF715FB95F84200FFF701
:10596000F3FA95F84300FFF7EFFA95F84400FFF7D4
:10597000EBFA287FFFF7E8FA95F83C00FFF7E4FA26
:105980000020FFF7E1FAB4F928000A2190FBF1F0BA
:1059900000B2FFF7F7FA687FFFF7D6FAE87FFFF764
:1059A000D3FAA87FFFF7D0FA2DE00820FFF72BFBF2
:1059B0000024601CC0B2FFF7C7FA641C082CF8D39F
:1059C0005FE1FFF7E9FA04461220FFF71CFB14B170
:1059D000102C02D004E08D4800E08D48D0E9009AF8
:1059E0002046FFF7B1FA4846FFF7BBFA5046FFF7EB
:1059F000B8FADBF80000FFF7B4FA0020FFF7C2FAAC
:105A00000020FFF7BFFA0020FCE5FFF7C5FA844647
:105A1000FFF7D4FA0546FFF7D1FA0646FFF7CEFAAC
:105A20000446FFF7C1FAFFF7BFFAFFF7B5FABCF17A
:105A3000000F03D0BCF1100F0BD031E07348C0E968
:105A4000005688F8079088F80C70FCB1CBF800403D
:105A500026E06F49C1E900560CB1CBF800406D4A11
:105A60000220091D10706A4801F0E4F918E054E0C2
:105A700062B90120FCF741F812E03AB966494FF4E7
:105A8000C87008800CE00AB988F80E7008E01AB1F6
:105A90000020FFF7BBFAF4E001210020FBF737FEFE
:105AA0000020FFF7B0FAECE0FFE70820FFF7ABFAC1
:105AB0005A485C4A5C4D016859481268B1FBF0F1E4
:105AC000B2FBF0F000EB4002C2EBC01001EBC000F3
:105AD000E880002435F91400FFF754FA641C042C04
