:020000040800F2
:100000000050002015F10008C1F1000849C10008A6
:10001000C1F10008C1F10008C1F1000800000000B2
:10002000000000000000000000000000C1F1000816
:10003000C1F1000800000000C1F1000825C100085E
:10004000C1F10008C1F10008C1F10008C1F10008C8
:10005000C1F10008C1F10008C1F10008A9C1000800
:10006000C1F10008C1F10008C1F10008C1F10008A8
:10007000B9C00008C1F10008E9C00008C1F10008DA
:10008000C1F10008C1F10008C1F10008C1F1000888
:10009000C1F10008C1F10008C1F10008A5C10008C4
:1000A000C1F10008C1F10008C1F1000897C10008C2
:1000B0008DC1000881C1000875C1000845C1000854
:1000C0003DC1000841C1000839C10008C1F1000864
:1000D000C1F1000875C0000801C00008C9BF0008D0
:1000E000ADC10008C1F10008C1F100080000000026
:1000F0000000000000000000000000000000000000
:0C01000000000000000000005FF808F1A3
:100110002DE9F04FB74C93B0A368B74D13F0080129
:1001200000F0E88094F88A21052A00F2E580DFE8F3
:1001300002F0030305527A852B78DEE06878AE4A38
:10014000002800F0D98000209F05507003D5137E51
:100150001E0700F1D180E8780023AA7800F0070696
:10016000AB83A64B42EA06221A602A7902F03F06C8
:10017000760146EAD00058606879800040EA921023
:10018000AA7902F0010640EA86209860E87900F03A
:100190000F06F60146EA5202DA602A7A02F07F067A
:1001A000360146EA10101861687A400040EAD2121F
:1001B000A87A00F0030642EA46225A61EA7A02F07F
:1001C0001F06B60146EA90009861287BC00040EA0D
:1001D0005212DA6130E0AA7F874B002A00F08C804F
:1001E00093F82000002201289A7740F085809A83B6
:1001F00093F83420082A84BF082283F8342095F825
:1002000034007F4A0023DEB2864202F1020213D29A
:1002100012F8016C12F8027C46EA0727794E46F87C
:1002200023700133EFE795F85830734A0020002B14
:1002300063D0908382F8580001235EE095F859302E
:10024000002B59D06C4B002283F859204FF6FF70D9
:10025000694B03F15A06965D0132801B1E2A80B25B
:10026000F6D193F8796093F8782002EB062292B2E7
:10027000904241D193F85D0093F85C2002EB00229C
:10028000DA6793F85F0093F85E2002EB0022C3F870
:10029000802093F8610093F8602002EB0022C3F8FD
:1002A000842093F8630093F8622002EB0022C3F8E5
:1002B000882093F8650093F8642002EB0022C3F8CD
:1002C0008C2093F8670093F8662002EB0022C3F8B5
:1002D000902093F8690093F8682002EB0022C3F89D
:1002E000942093F86B0093F86A2002EB0022C3F885
:1002F0009820A1E70B4600E000234348D5F89C6016
:1003000002688346961B002E02DA002B00F0BE84A2
:1003100002F59C422032C5F89C20DFF800A1DFF8EE
:100320000091002939D1394E88460F46DAF800305D
:10033000F8B29847A0F2EE2292B240F2DC539A4211
:10034000D5F8E020324B88BFB4F88E011340002B63
:1003500003DA013B63F003030133274903EB87030F
:1003600001EB4303A3F8A0003188738801370B44E5
:10037000B188082F0B44F18806F108060B441BB224
:100380004FF0040193FBF1F329F8083008F102085B
:10039000CCD10132C5F8E02009E00026F0B2DAF84D
:1003A0000030984729F816000136082EF6D1A368C8
:1003B000580404D595F8E4300BB90BF0B9FD94F866
:1003C00097210C4B72B3033239F91200A0F57A7001
:1003D000B0F57A7FA8BF4FF47A7020EAE0700CF095
:1003E000F3FB0C490CF0F8FC0B490CF041FC0CF051
:1003F0002BFE2CE0801B0020080100203808002084
:100400002A0100204001002068210020A8010020CE
:100410000300008000007A4400C07F4430080020C0
:100420000C08002093F8980190B1B84AD179B84AE5
:1004300032F81100B3F89C2180B2801AB3F89A31D7
:10044000C0EB802090FBF3F000B280F30A0080B292
:10045000A368B04A13F4024FA5F8FC006AD0AE4E70
:10046000B2F91C0096F8CE3003EB8301884241DDDF
:10047000AA4991F801E00F46BEF1000F3AD0A84911
:10048000B1F88E11A9F80010A9F80210A9F804100B
:10049000B6F8D010A9F80610A24991F800E08846F5
:1004A000BEF1030F08D9A049C2F80011032188F852
:1004B00000100021A2F8041196F8CF20134403EB9A
:1004C0008303984211DDBF7C7FB90BF031FD934B64
:1004D0001F7098F80030042B07D9944B0422C5F8FC
:1004E0000031904BA5F804711A70B5F8063101334C
:1004F000A5F8063196F8CE30B5F91C2003EB83033E
:100500009A42844F13DDDFF8148298F8016076B9BF
:100510000BF00EFD834B88F800601A78042A06D988
:10052000824AA7F80461C7F8002104221A70AB8B35
:100530000133AB830022B4F89011B4F892611346F2
:1005400039F902009B088842C4BF63F07F03DBB225
:100550000232B042B8BF43F04003082AF0D195F808
:1005600008016C4A984205D192F80901F92804D88B
:10057000013000E0002082F8090185F80831A36805
:10058000674A13F4804A644FB9F906300AD0B2F8CA
:100590008E11B2F84C21881A834206DD0A44934238
:1005A00006DB02E08B4203DB21E04FF0000A1EE095
:1005B0000023C5F83034C5F83434C5F83834C5F8EC
:1005C0001431C5F818310023C5F83C34C5F840345F
:1005D000C5F84434C5F84834B7F846302BB14D4B14
:1005E00093F8E430002B41F0E4874FF0010AB7F8AC
:1005F000463073B195F8E4305BB9484B5B7843B152
:1006000094F8953113B10BF093FC02E0BAF1000FAE
:10061000F9D195F809213F4B142A40F0C6803F4E8E
:100620007178D1B1B7F846202AB993F808315F2B19
:1006300001D10BF07DFC94F89431002B00F0B580D3
:10064000B7F84630002B40F0B08095F808317D2B8C
:1006500040F0AB800BF06CFCA7E093F80821572A20
:1006600015D1334B4FF47A721A80A368D90501D59E
:1006700007F0B2FB2F4B1B685A0702D52E4A0A21FE
:10068000118013F0080337D1A5F80A3134E0A068CF
:10069000400728D55A2A26D193F80C0128B1012207
:1006A00083F80C1183F80D2126E093F80E111D4AF2
:1006B00081F0010183F80E1151B111780A291BD97B
:1006C0001E49A3F80401C3F800110A21117013E0B8
:1006D00010780B2810D91A48A3F80411C3F80001A8
:1006E0000B20107008E05D2A01F06C875B2A01F096
:1006F0006B875E2A01F06A87B7F8463013BB95F81E
:1007000008216F2A1ED10BF0B9FB30E070050020E4
:1007100078050020080100206020002099070020B3
:10072000801B002000000020081701081B1701088B
:10073000300D0020A8050020320D00201E170108F2
:100740002317010894F8942122B11BB995F80831B8
:100750007E2BD8D095F80831972B04D1984B4FF4C5
:10076000C8721A8003E0A72B04BF0123B37395F866
:100770000831BB2B02D1BB8D023303E0B72B03D171
:10078000BB8D023BBB8509E0BE2B02D17B8D0233C2
:1007900003E0BD2B09D17B8D023B7B850120014607
:1007A00008F0C0FA002385F80931A068420731D566
:1007B00095F80E21834B8AB1834A527872B1834AED
:1007C000B9F90610B2F89021914207DD93F8E420C0
:1007D00022B93221A3F8101183F80E2195F8F520E3
:1007E000784B62B193F812212AB993F80C2112B90F
:1007F0003222A3F81021012385F812310AE093F880
:100800000C213AB1704A527822B983F80C210122A6
:1008100083F80D216E4E0123002136F8022F03F1DB
:10082000FF3CA2F2155EBEF5C77F8CBF4FF0000EF5
:100830004FF0010E0EFA03FE12B24EEA010140F231
:10084000135E7245CCBF4FF0000E4FF0010E0EFA52
:100850000CFE41EA0E0140F2A46E7245D4BF0022A4
:10086000012203F1010E02FA0EF2033311430D2BA4
:1008700089B2D2D1002307EB430EBEF846E0514ABD
:1008800011EA0E0F0CBF4FF0000E4FF0010E02F1F7
:10089000E40603F806E00133182BECD192F8E530BA
:1008A000494E4C4943B94C4BB2F91C2093F8CE3019
:1008B00003EB83039A421BDD0A68930718D5F3788C
:1008C00043B9C5F81431C5F818313F4B4FF0010E4C
:1008D00083F803E000040ED597F8CE30B5F91C007C
:1008E00003EB8303984206DD920604D5012301E061
:1008F0000023F370B37495F8E630324A5BB10023FD
:10090000F370337943B9C2F81431C2F818312E4B61
:1009100001221A7100E0337195F8E4300BB901231C
:100920003370F2782D4B12B9274A127912B1102286
:100930005A6101E010221A6109684B0725D595F824
:10094000E720204B9AB1B07990B91F4A4FF0010EC1
:1009500082F806E0D3F82021C3F83001C3F81C2147
:10096000B3F82C21C3F83401A3F8242100E0B271BC
:10097000A368980409D595F8E8302BB1F37B23B927
:10098000114B0122DA7300E0F37311F00A0F30D03B
:1009900095F8E9300B4A4BB1737943B90A4B012002
:1009A0005871B2F80A31A2F8383100E0737195F845
:1009B000EA30ABB1737AA3B9034B01225A7210E04B
:1009C000742100200801002099070020801B0020CE
:1009D00012080020A805002060200020000C014023
:1009E000737295F8EB20AF4B1AB1B3F80A21A3F854
:1009F0003A2111F0200FDFF8AC8200F0CC80F27ABF
:100A0000A94B002A00F0C28095F83C21042A40F24C
:100A1000BD8098F8EE20A5490AB99A7CB2B1F07968
:100A2000A14B002840F09F8048701872A048012216
:100A3000011DDA710292039304F004FD022185F88E
:100A40004C11B5F85C11C5F8581136E0DA7198F818
:100A5000EF20002A35D0B8F92601B7F8E2200028A7
:100A6000B8BF404290422CDAB8F928010028B8BF3C
:100A70004042904225DA1A7A002A74D14A70D8F896
:100A800060114FF0010CC8F85011D8F8641108F546
:100A9000A870C8F8541108F5AA7183F808C0CDF8F9
:100AA00010C00292039304F0CDFCDDF810C0B8F83A
:100AB0005C1188F84CC1C8F85811029A039BDA748B
:100AC00051E049780023337200294CD1774B012241
:100AD0005A708E46734B002203F5B4702EF8002036
:100AE00003F5B7702EF8002003F5B9702EF800203A
:100AF00003F5BC7C002041F80C008C44CCF80420A9
:100B0000CCF8080003F5D07C41F80C008C44CCF8FC
:100B10000420CCF808000EF1020E03F5E47C41F845
:100B20000C00BEF1040F8C44CCF80420CCF8080073
:100B300001F11401CED1317C11B90023F37412E01C
:100B4000C3F8F001C3F8F401A3F8F821A3F8FA21DF
:100B5000A3F8FC215749002353520C31535202325F
:100B60000A2AF7D1E9E751490B780C2B13D995F8EC
:100B700016224C4B7AB95048A3F80421C3F800015F
:100B80000C200870012183F8161204E00023F37191
:100B9000337285F84C3195F8F0302BB1B37C1BB92A
:100BA000414B01229A7201E00023B372637903F092
:100BB000EF02082A01D00E2B2AD1A268002192054B
:100BC000394B717224D597F8CE2006277A43B5F9B0
:100BD0001C0090421CDD0122DA70384A9972B2F88A
:100BE0008E118AB2A9F80020A9F80220A9F80420E1
:100BF000334AB2F8D020A9F80620DA7A42B9294857
:100C000090F83C01052803D89A742E4B323919808C
:100C1000A2682A4BD00640F120817278002A00F0A9
:100C20001C81214A127C002A40F01781BAF1000F82
:100C300023D02549D8F8182209684AB993F87631A3
:100C40004FF47A7202FB0312164BC3F8182206E027
:100C50008A4204D293F876310BB10BF069F9134B49
:100C60001A78092A40F2F980184AC8F800210922A6
:100C70001A700023A8F80431EFE0D8F81832002BDE
:100C800000F0EB80074BC3F818A2E6E0054BD3F861
:100C90001C32042B00F2E180DFE803F01A9FACB8AD
:100CA000C30000BF080100209907002000000020B9
:100CB00048020020060300202A170108801B00209C
:100CC000602000200C0800207C1B00201B1701085E
:100CD0000123C5F81C32A84BA84E1B6819077CD508
:100CE000D6F82032D31A002B77DBA54B02F5C3329E
:100CF000A0325B6806F50970C6F820229847A14B20
:100D000006F509779A7B184692B1D6F8202200237F
:100D1000C6F82C22E1180022A1F8702116469A4943
:100D2000FA5A5A5206315A520233062BF2D18673BE
:100D3000964B1B78A3B1B5F82422B4F87031D31ABE
:100D4000A5F82432B5F82622B4F87231D31AA5F8E2
:100D50002632B5F82822B4F87431D31AA5F828320F
:100D6000D5F82C32854A002B77D0D2F8201288484B
:100D7000CB1A834202F2362102F50C7019D8854B4A
:100D8000DA6882F00802DA600023FA5A30F903E0E8
:100D900016B2B645C4BFDFF8F0E123F80E2031F9F2
:100DA00003E0B645BCBF7C4E9A530233062BECD110
:100DB00053E00023C2F82C32C75ECE5EE2183E44F8
:100DC00002273B4496FBF7F6062BA2F87061F3D19D
:100DD0000120014607F0A6FF3FE0D5F81C320133A1
:100DE000C5F81C32644B1B685A0703D506F0D6FCC5
:100DF000002832D1D5F81C320133C5F81C325E4BC5
:100E00001B685B0702D50AF0D5FA30BBD5F81C3257
:100E10000133C5F81C32A368DF0502D502F068FB78
:100E20001BE00023C5F81C32534B1B68DE0614D5AB
:100E30005A4B1A685A4B19683C318A420DD31A60D2
:100E4000584F594A4D4B534EC3F83C223B880B2018
:100E5000336106F01DFC3B88736106F0FFFBA3893C
:100E6000CBF800002BB1D5F84022821A002AC1F23B
:100E7000BF831844C5F8400208F072FB06F0EEFB91
:100E80004A4BCBF800001A681860494B821AB3F934
:100E90000610484B92B20592A5F84422DA8C914292
:100EA0000FDBB1F5FA6F93F8257007DA881A47431C
:100EB000A2F5FA6297FBF2F7643703E0C7F1640723
:100EC00000E06427B4F88E2193F82350069294F939
:100ED0005C2193F87660524292B293F877E093F8EF
:100EE0002430089200220993079513463048DDF814
:100EF000189032F900B040F2E634C9EB0B0000F272
:100F0000F315A54203D80028B8BF404201E04FF4D2
:100F1000FA70022B52D026B1B042CCBFC6EB000013
:100F200000206424DFF854A090FBF4F80AEB480595
:100F30006FF0630C0CFB080CB5F846520AEB48083E
:100F4000B8F948920FFA85F8C8EB090808FB0CF8C5
:100F5000DDF81CC098FBF4F800FB0CF0A8440AF57F
:100F6000937522F80580144D90FBF5F52544ADB23C
:100F70007D4395FBF4F53AE0A80500200801002028
:100F80002006002099070020380300204806002092
:100F90007FC3C901000C01403E0300207C1B0020E0
:100FA0001C0D0020100D0020380000202C0D00200A
:100FB0000C080020602000200CFEFFFFBEF1000F97
:100FC00004D07045CCBFCEEB00000020089DDDF8BA
:100FD000249000FB05F40028B8BF4042C44D00FB3C
:100FE00009F0A5F82A41C34C90FBF4F56435DFF80D
:100FF0004483C14803EB080494F8019094F80BA0D3
:1010000005FB09F905FB0AFA647D4FF0640C99FBB6
:10101000FCF965439AFBFCFA03F8009000F1030920
:1010200003F809A0DDF818A000F1060995FBFCF50E
:10103000D34503F80950A0F51574C14604DA04F548
:101040009370155A6D4215520133032B02F10202BF
:101050007FF44CAFA94AB2F89031994205DBB1F563
:10106000FA6FA8BF4FF4FA6100E01946C91A4FF4AD
:101070007A725143C3F5FA63B1FBF3F3642693FB31
:10108000F6F204EB4201B1F85E026FF0630101FB7E
:10109000023304EB4202B2F9601202B28A1A5343DD
:1010A00093FBF6F6964B30445B7A914DA4F82C01F5
:1010B000002B44D0B5F93A31B5F90A01C01A0BF04A
:1010C000D9F989A3D3E900230BF03AFA00228D4B1A
:1010D0000BF060FB0BF06EFC06460EF00DFA0746B7
:1010E00030460EF07DFA0646B5F928010BF06CFD8E
:1010F0008046B5F926010BF067FD394682460BF0B4
:10110000B7FD3146834640460BF0B2FD01465846D6
:101110000BF0A4FC0BF072FF3946A5F826014046FF
:101120000BF0A6FD3146074650460BF0A1FD0146E7
:1011300038460BF095FC0BF061FFA5F828016F4EC7
:10114000D6F8088018F0020F00F09D80D4F87832AD
:10115000DDF814B006229B4494F87C32644D0133D0
:10116000DBB2B3FBF2FA02FB1A3A1AF0FF07C4F83B
:1011700078B284F87C32059766D1634A634B507825
:10118000D5F8801233F810E0082791FBF7F01FFA2A
:101190008EFE081A7044C5F8800290FBF7F080B20A
:1011A000029203930BF010FD59490BF061FD594970
:1011B0000BF012FE824696F87D010BF005FD01460C
:1011C00050460BF055FD0BF03FFF96F88111A5F846
:1011D0008402029A039B002936D05279D5F88812EE
:1011E00033F8122091FBF7F392B2CB1A1344C5F8EF
:1011F000883293FBF7F39BB240F6E441594340F643
:10120000FF72B1FBF2F1B6F87A21B6F87831891A9B
:101210004FF47A72514391FBF3F10BFB01FB2B4628
:101220009BFBF2F2C5F88C12F3E9A401801841EBA4
:10123000E271C3E90001384A00230BF025FF059E47
:10124000C5F89802C5F87862344AB4F88412128856
:10125000274B8A42324A07D31178012913D93149E1
:10126000C3F8001101210AE02F48008888420AD300
:101270001178022907D92D49C3F8001102211170F4
:101280000022A3F8042194F8F130254D002B5BD007
:101290002B78082B58D918F4807F4DD0184BDB7A67
:1012A000002B49D0124B93F83C01042844D9002369
:1012B0001F4905225A540F26CA185670122B03F1E3
:1012C0000206F2B204D0B0EB520F3346F0D800E081
:1012D00014222244642382F89D32FF2382F89E3236
:1012E000C4F800112BE000BF182D4454FB21094025
:1012F000080100200CFEFFFF5C030020801B002083
:1013000099070020008066407005002078050020C5
:101310003333534000F07F45407E050082050020B6
:101320000000002039170108800500203C17010843
:10133000A403002060200020AB4BC4F80031082338
:101340002B700023A4F804312B780D2B1FD0D4F878
:101350000021A64BDAB193F8B202A54980B908681A
:10136000D3F8B412814212D8012083F8B202B3F844
:101370000431D35C0BB106F06AF907F0C3F906E05B
:101380000868D3F8B412814201D80020EDE7994BE8
:101390001B881BB1984B1B68980702D4974B1B887E
:1013A0002BB1974BDA6882F00802DA600FE0954BB8
:1013B0009A7812B1924A082111615B7813B1904B6F
:1013C00008225A61904B1B780BB108F01DFE8F4F1D
:1013D000DFF84C82BB6813F0800F62D0D8F8003081
:1013E000D4F8B822814E9A1A002A5ADB03F54343F7
:1013F0005033C6F8B83296F8BC3293B97A238DF8D8
:101400003030B6F90A310222C3F1B40393FBF2F390
:101410008DF831306D200CABFF2103F0DFF8012394
:1014200024E0012B25D17923B6F9BE228DF8303086
:101430000A2392FBF3F25A32B42AA8BFB42222EA5A
:10144000E2728DF83120B6F9C0226D2092FBF3F3E1
:101450005A33B42BA8BFB42323EAE3738DF8323098
:10146000FF210CAB032203F0B9F8022386F8BC324B
:1014700017E0022B15D164238DF8303001238DF84D
:101480003130604B6D205B78FF21002B18BF0123AA
:101490008DF8323003220CAB03F0A0F8002384F85F
:1014A000BC32D8F80020D4F8C432D31A002B0FDB9A
:1014B000544B597B71B99970514BD96881F008012F
:1014C000D96002F5F423494A03F59073C2F8C43297
:1014D00000260DE001229A70FAE793F860331BBBF7
:1014E0006B68DFF84081186809F099F910BB013684
:1014F000D4F864233D4B9642DFF82C8180F296802D
:1015000003F532724C2101FB06226A6098F8002034
:10151000002AE2D00AF096FB88E097F8C1348342B3
:10152000DED13B4A3B4B1A600AF03EFB3A4A3B4B4A
:10153000DA60D5E7D8F80430186809F06BF9D8F804
:10154000043093F8492082B9B0F124014A424A415B
:1015500083F84920002AC3D12A4B5B78002BBFD1E6
:101560002328DAD10AF06EFBBAE7012A04D14D280C
:1015700014BF0022022234E0022A04D13C2814BF06
:10158000002203222DE0032A0BD140284FF0000255
:1015900027D883F847205A7183F84800187104222D
:1015A0001FE0042A06D11A7983F8460050401871CA
:1015B000052216E0052A93D193F8481093F84720A6
:1015C0009142197907D941401971511C83F847108C
:1015D0001344987184E7814201D101F021F86B68CE
:1015E000002283F849207BE73F170108080100200B
:1015F0007C1B002074210020A8050020300D002055
:10160000000C014099070020280D0020801B0020BD
:10161000EFBEADDEF04F00200400FA0500ED00E063
:1016200068210020000000206C21002098F8003084
:101630003BB10C4B1A681E4612F0200F40F094820A
:10164000A9E2BA68084B1205F3D5084A1278002AB5
:10165000EFD093F8AF21A2B993F8B03153B9044B4E
:101660005B7809E0A8050020801B0020280D0020E1
:101670009907002094F8F830003318BF0123002B9D
:10168000D7D097F8AE31002B40F07E81D94BD86887
:1016900009F0C5F8002840F07781D74ED4F86813D8
:1016A0003268D64B511A7C2940F26E81C3F8682308
:1016B00093F86C238046013283F86C2308F12400F0
:1016C000CE4EC0B209F052F906F26E3333F918006B
:1016D0000BF07AFACA4B824618880BF075FA01466D
:1016E00050460BF079FBC7490BF0C2FA0BF086FCB1
:1016F00008F1010800B209F065F9B8F1030FDDD176
:10170000302009F033F9B6F9740309F05BF909F0F8
:101710003BF996F86C0310F0030A2AD1102009F067
:1017200025F9D6F878334FF0640893FBF8F000B24F
:1017300009F048F9212009F019F9D6F8783393FB1C
:10174000F8F008FB103888EAE870A0EBE87000B207
:1017500009F038F9142009F009F9B6F90A0109F07D
:1017600031F91C2009F002F9504609F02BF909F073
:101770000BF994F86C33A14E5B0740F0DF80022038
:1017800009F0F4F8B6F97C034FF00A0890FBF8F082
:1017900009F018F9BB68980763D5B6F884324FF0A2
:1017A0006E0A0AFB03FA15239AFBF3FA3A2009F0B2
:1017B000DDF81FFA8AFA6422BAFBF2FB0FFA8BF00B
:1017C000029209F0FFF83B2009F0D0F8029A02FBE0
:1017D0001BA080B20530DFF83CA290FBF8F000B20D
:1017E00009F0F0F89AF80030B6F8842240F6340197
:1017F00092FBF3F24A432A21B2FBF1F2B6F87E13D0
:1018000091FBF3F003FB10131B019BB243EA02238D
:101810009BB2C2F3032243EA020B062009F0A6F8AA
:101820000FFA8BF009F0CEF8B6F87E239AF8003064
:10183000013292B292FBF3F103FB11232820A6F8A8
:101840007E3309F093F8D6F88C0290FBF8F000B2E2
:1018500009F0B8F8042009F089F8B6F9980209F0FF
:10186000B1F8694B1B68990666D5D4F86011DFF8AA
:10187000A8A1664E0029B8BF494291FBFAF306FBC6
:1018800003113C2202FB01FB13200292039309F097
:101890006DF8039B9BFBFAF803EB830303EB8303D5
:1018A00008EB830006FB08B800B209F08BF84FF490
:1018B0007A7B1B2009F05AF898FBFBF000B209F084
:1018C00081F8232009F052F8D4F860110029ACBF48
:1018D0004E20532009F076F8D4F86411029A0029BA
:1018E000B8BF494291FBFAF806FB08114A4308EBDE
:1018F000880892FBFAFA122008EB8808029209F095
:1019000035F80AEB880000B209F05CF81A2009F0FB
:101910002DF8029A06FB0A2A9AFBFBF000B209F0A6
:1019200051F8222009F022F8D4F86431002BACBF22
:101930004520572009F046F809F026F894F86C3352
:10194000282B21D12C482D4B0022066883F86C23CC
:101950004FF47A73B6FBF3F817203C2609F006F82B
:10196000B8FBF6FABAFBF6F006FB10A0000200B2D4
:1019700009F028F8182008F0F9FF06FB1A8000B2D9
:1019800009F020F809F000F897F8AE31012B7FF448
:1019900050AE184EF06808F042FF00283FF449AE00
:1019A000F06808F037FF0746052005F07CFE8A2F17
:1019B00045D08E2FEDD100212E2215480DF031FBA0
:1019C0007C2384F8B233E02384F8B5337D2384F894
:1019D000DE33B4F8843284F8B373DAB21B0A84F8C5
:1019E000D13384F8C733142384F8CA3384F8CB3353
:1019F00014E000BF4C0600207C1B002008010020E2
:101A00002400002000007A44A8050020806967FFB8
:101A1000BA04002020000020809698004FF4FA734A
:101A2000A4F8CC334823A4F8D433782384F8D02303
:101A300084F8C62384F8D633B1482E2191E0B14B07
:101A40001B689A06A5D5B04E002106F560702C22C1
:101A50000DF0E7FA7C2384F88033A02384F88333E5
:101A60007D2384F8AB3394F83C3184F8817384F897
:101A70009A33A64BDB7A002B6ED0D6F86071A44A5D
:101A8000DFF8A88297FBF2F06623C0B286F8A9338C
:101A9000FB0F08FB00774FF0060E0EFB07F786F8EA
:101AA000893342F21073B7FBF3F100EB800003FBC4
:101AB000117700EB8000C9B201EB8000D6F8641109
:101AC00080B291FBF2F2D2B286F88A03000A86F85D
:101AD0008B03C80F08FB02110EFB01F186F88E0381
:101AE00002EB8202B1FBF3F003FB101302EB820264
:101AF000C0B200EB820292B286F88F23120A86F8F7
:101B0000902386F89133B6F8AC231B0A86F89233FB
:101B10006423B2FBF3F303EBC3039B009BB286F891
:101B200087331B0A86F88833B6F8AE3386F88C7391
:101B300086F893331B0A86F89433B6F85C313F0A73
:101B400086F895331B0A86F89633B6F8B03386F8D4
:101B50008D7386F89C3302E0202386F8A9336D4804
:101B60002C2103F0FDFD14E76B4BD4F8E0131B6848
:101B7000654A591A00290EDB92F83C1104290AD94A
:101B800003F5123303F5F873C2F8E033634BDA68F8
:101B900082F01002DA60624B9B680BB16148984793
:101BA00031680B0736D5B4F82A21574E02F14503A8
:101BB0009BB28A2B2AD8554B58791F4630B3B6F8BA
:101BC0003831B6F80A01C01A80B283B21EB2B336F9
:101BD000BCBF00F5B4739BB218B2B3287E7B5248E9
:101BE000C4BFA3F5B4739BB290F85C0196B140B248
:101BF0004042434399F809001BB243436FF01D0074
:101C000093FBF0F31A44A4F82A2103E0B4F80A3154
:101C1000A4F838314F0740F196803C4B9A79002A5E
:101C200000F091801E7C002E40F0828099F87900AF
:101C300099F87820344B88B3B4F82CE1B4F9240136
:101C40000FFA8EF7C0EB0708B8F1000FB8BFC8F164
:101C5000000890450FDD8742C8BF52421FFA8EFE32
:101C6000C8BF92B2C3F830617244012683F8E463BE
:101C7000A4F82C2167E093F8E4232AB1D3F82021BB
:101C800083F8E463C3F81C21D4F83431264A18449D
:101C9000B2F84031B2F84221984229E0B4F92471F7
:101CA000B4F92C61F61B86EAE67EAEEBE67E96453D
:101CB0000ADD022296FBF2F60122C3F8E86383F8FC
:101CC000EC2383F8E4230AE093F8E4233AB1D3F851
:101CD000206183F8EC03C3F81C6183F8E403124825
:101CE000D4F83421B0F840313A44B0F842019A4275
:101CF00003DB8242B4BF13460346A4F82C3122E032
:101D0000BA040020A805002008010020990700203F
:101D1000A08601008804002068210020000C0140FA
:101D2000AC05002084040020801B00206079FEFFA9
:101D3000AD4BB4F8282193F99601D4F8343100FB67
:101D40000323A4F8283199F87C305BB1A74BDA78EB
:101D50000AB91B7933B1B4F82C31B4F8EE2313442B
:101D6000A4F82C318E0640F1C480A04BDA791AB960
:101D70001A7A002A00F0B6801B7B002B00F0B2809C
:101D8000B4F90A010AF020FF99490AF071FF0746E9
:101D90000DF026FC804638460DF0AEFB934B954E79
:101DA0001B7C0746002B40F09A8099F8DBA0B6F91F
:101DB0007401BAF1000F5FD0B6F87031CAF10006B5
:101DC0001FFA83FB1BB2C01A06F02EF8B04203DBE9
:101DD0005045A8BF504600E03046B4F86E21834419
:101DE000B4F9720193B212B21FFA8BFB801AA4F8F5
:101DF00070B1039306F018F8B042039B03DB504523
:101E0000B4BF064656461E447A49B6B2A1F86E6182
:101E10000FFA8BF00AF0D8FE824630B20AF0D4FEF8
:101E20003946064650460AF023FF4146834630466F
:101E30000AF01EFF014658460AF010FE6E490AF0ED
:101E4000CBFF0BF0DBF86B4A4146A2F86801504625
:101E50000AF00EFF3946804630460AF009FF014677
:101E600040460AF0FDFD64490AF0B6FF0BF0C6F8E3
:101E7000604BA3F86A013CE00AF0A6FE8346B6F97F
:101E800072010AF0A1FE3946824658460AF0F0FE79
:101E900041460346504603930AF0EAFE039B01467F
:101EA00018460AF0DBFD54490AF096FF0BF0A6F83D
:101EB0004146A6F8680158460AF0DAFE39468046DF
:101EC00050460AF0D5FE014640460AF0C9FD4A498F
:101ED0000AF082FF0BF092F8A6F86A0109E002F01E
:101EE000A7FC06E00023A4F86831A4F86A31A4F83E
:101EF0006C31AB689847414B93F800B0BBF1030FCE
:101F000013D9B4F92A11B4F9F4230029B8BF49420E
:101F10006FF063035B1A9A4204DB01F1640393429E
:101F2000A8BF1346A4F8F43308E0BBF1010F05D8AD
:101F30002E492D4B0A7C002A4FD172E099F9D4A08A
:101F4000B4F9F423CAF1000A02FB0AFAB4F82C31FE
:101F5000B4F8F273B4F8F083294D00265E4505F11C
:101F60001005E5D218B203930AF02EFE55F8101CA6
:101F70000AF07EFE024638B202920AF025FE55F8BB
:101F8000081C0AF075FE029A014610460AF068FD28
:101F900002460FFA88F002920AF016FE55F80C1C61
:101FA0000AF066FE029A014610460AF059FD024602
:101FB000504602920AF008FE55F8041C0AF058FE3A
:101FC000029A014610460AF04BFD0BF017F80D4A35
:101FD000039B22F816000136C0E74A7809489AB9EF
:101FE000B3F844211CE000BF801B002099070020AB
:101FF00035FA8E3C080100200000204144200020DA
:102000006806002046200020B4F92C51B3F8402186
:10201000B3F84261954203DBAE42B4BF32462A4672
:1020200002805A79013AD2B2172A00F2288101239C
:1020300003FA02F2BC4B134053BBD00640F11F81A0
:1020400099F98430B4F9C002B8495843322390FB5F
:10205000F3F0B9F8823080B21AB2112ADCBFB44B67
:1020600033F8123003440B80B4F9BE0299F98E3074
:102070005843322390FBF3F0B9F88C3080B21AB297
:10208000112ADCBFAA4B33F8123003444B80F6E030
:102090008B7A53B1B4F82631ADF83030B4F828312A
:1020A000ADF83230B4F82A3109E0B4F8F033ADF8C5
:1020B0003030B4F8F233ADF83230B4F8F433ADF870
:1020C00034309C4B9C4D1B88B5F88E21ADF83630D2
:1020D000974B1989511AADF838105989511AADF832
:1020E0003A109989511AADF83C10D989511AADF8B6
:1020F0003E101988511AADF840105988511AADF8A0
:1021000042109988511AADF84410D988521AADF886
:102110004620002202EB82014944B1F8821008B245
:102120001128D8BF33F81010804811520232102AFB
:10213000F0D1824B00211B785B0006930B46DDF843
:1021400018C0634500F08A807D4D4A19907920B10E
:10215000204490F8F80000287BD0685C0A2505FB35
:102160000095B5F880707835ED8892F904B07F1B42
:10217000BFB207FB0BFB64259BFBF5FB567992F87E
:1021800001A04FEA570C92F80380CCEB0B0B05969D
:102190001FFA8BFB6B4D4FEA4A0E12AEB8F1000FDF
:1021A00003D1764436F8186C0CE0B6443EF918ECCE
:1021B000EE5E764508DAB044B04503DBC645B4BFF1
:1021C00076464646EE520AE009DDC8EB0608F045C1
:1021D00003DBB045B4BFC646B64625F803E0DFF8DA
:1021E0006CE14FF00A0808FB00EEBEF886E0DFF86D
:1021F00054814EFA0AFA33F9088092F902201AF053
:10220000010F02FB08F24FF06408484D92FBF8F210
:102210000FFA8BFB0CBF4FF0010E4FF0FF3E5A45FB
:1022200035F810601FFA8EFE0EDBDDF814A04FFAB1
:102230008AFB07FB0BFB9BFBF8FBCCEB0B0B0FFAB2
:102240008BFB9345A8BF93460BFB0E6B25F810B094
:1022500001E03C4A98520233073170E73A4A0023C2
:102260003A49B2F90200194491F984100A33414302
:10227000642091FBF0F1502B22F8021FF0D12E4B7D
:102280009A68324B12F0200F3ED0B3F88220B3F898
:102290008C5011B21129D8BF254A2448D8BF32F832
:1022A000112029B21129D8BF214D0280D8BF35F89D
:1022B0001150DFF89C80458094F8EC001B492E46B5
:1022C00010B393F8D60093F98E5010F0020FB8F9BE
:1022D000BE724FF0320093F984E0B8F9C0C218D052
:1022E0007D43CEF1000E0CFB0EFC95FBF0F56FF07C
:1022F0003107ADB29CFBF7F72F449CFBF0FC3A444E
:1023000065440A802E444E800F4A104902F110069F
:1023100026E00CFB0EFE7D439EFBF0FE724495FB17
:10232000F0F00A800644EEE789209800840000203F
:102330000C08002046200020801B002028070020D9
:1023400029070020FE0400208200002060200020D9
:102350000801002022F8020FB24201F10A010CD05C
:10236000B2F90250B1F97E00B1F880708542F1DB1C
:1023700038B2A842A8BF2846ECE793F8D6305907F0
:1023800006D49D4B9D4A93F80090118801230FE0DD
:102390009B4B00251E7E043E9A4BA81903EB450378
:1023A000C0B21989013505F051FE042DF4D1E8E7DA
:1023B0004B4508D232F9130009B28842A8BF014642
:1023C00089B20133F4E7904A8F4DB2F84201B5F873
:1023D0008EB1431A1FFA83FA9368B5F848E18A4E22
:1023E000B5F8445103F4804403F01003B6F8466195
:1023F000854F844A0B93ABB20893844BB2F9062005
:102400000596B7F840610A94B7F890C15C780192DC
:10241000B2B20994CDF818C05C7C07924FEA490922
:1024200000234B454CD00AB28242DFF8D0C104DD14
:102430003CF8032052442CF803200A9F6F4AC7B18E
:10244000DDF804C0DC4532F903C007DDF44503DBE9
:102450008445A8BF844609E0F44607E0AC4504DBA8
:10246000059FBC45A8BFBC4600E0AC4622F803C0AF
:102470001CE03CF90380B04503DB8045A8BF8046E3
:1024800000E0B04602EB030C22F80380069F019A9D
:10249000BA420ADA0B9A1AB9079FACF8007005E045
:1024A000089A0124ACF8002000E00024099F2FB90D
:1024B000574A33F802C0514A23F802C00233B0E74A
:1024C0004F4A524B917D5C741A4600296ED04E4D96
:1024D0006B79013B172B5DD8DFE803F00C5C5C19CE
:1024E0005F5C5C215C5C5C5C5C295C5C5C5C5C19DA
:1024F000295C5C39474B93F8D5301BB1464B002023
:10250000598951E050780028F8D101464CE0424CFE
:102510000020218905F09AFD0120618944E03E4CAC
:102520000020E18805F092FD012021893CE03A4C31
:102530000020E18805F08AFD0120218905F086FD53
:102540000220618905F082FD0320A1892CE0324C34
:102550000020E18805F07AFD0120218905F076FD53
:102560000220618905F072FD0320A18905F06EFD4E
:10257000AB68DA071AD50420218805F067FD05202D
:10258000618805F063FD0620A18805F05FFD072046
:10259000E18909E0AB689B0608D51F4C0020218823
:1025A00005F054FD6188012005F050FD05F040F96B
:1025B0001EE0164B1B78002B3EF417A809F05EFCBA
:1025C000FEF713B8012202E0022200E003225FFAC4
:1025D00082F8002008F1FF33014684F8C03406F089
:1025E000A1FB02202821424608F042FAFEF784B8F7
:1025F00013B0BDE8F08F00BF44200020462000202B
:102600004C0600200C080020801B002099070020A9
:102610001E0500206020002084000020AFF3008011
:102620002DE9F347B84D2B6893F84630752B00F031
:10263000DF8400F2EF80692B00F0388400F2A28082
:10264000452B00F02F871CD8422B00F0EE860BD8CC
:10265000402B00F00D87412B40F03687002008F01A
:1026600015F9002400F012BF432B00F0B886442B6C
:1026700040F02A87002008F009F90122A34B00F05E
:102680000FBF662B00F05C8271D8642B00F03382A0
:10269000652B40F019870B2008F0F8F89C4BB3F934
:1026A000000008F0F6F89B4B588800B208F0F1F8EB
:1026B000994B1B68C3F3C000C3F38002800040EA5B
:1026C0004200C3F340021043C3F3401240EAC20089
:1026D00003F01003184308F0DCF8904A0020147946
:1026E000D378A40044EA430453781C43937944EA22
:1026F000C304537944EA4314537A44EA8314884B5D
:10270000D97944EAC114197A44EA0124597A44EA8D
:102710004124D17944EA8124117A927A44EAC1248D
:1027200044EA02345A7B44EA42349A7B44EA8234D3
:102730001A7C44EA02441A7944EA02145A7C44EAB4
:1027400042449A7C44EA8244DA7C44EAC2441A7DD8
:1027500044EA02545A7D44EA42549A7DDB7D44EABD
:10276000825444EAC3546F4B19780346D3E1672B74
:1027700000F02082682B40F0A786102008F086F831
:1027800000248BE36F2B00F0028424D86C2B00F024
:10279000B98318D86A2B00F095836B2B40F0948690
:1027A000052008F073F8604BB3F9000008F071F8E9
:1027B0005E4BB3F9000008F06CF8564B187800F047
:1027C000010000F009BD6D2B00F0AA836E2B00F014
:1027D000B28300F079BE722B00F088840FD8702B82
:1027E00000F0F383712B40F06F864E4E002430785A
:1027F000400000F0FE0008F049F800F02DBC732BFB
:1028000000F0BA84742B40F05F864FF0000801247A
:1028100000F03FBCCD2B00F0208500F29380A62B6A
:1028200000F0BA8525D8782B00F0D1810DD8762B11
:1028300000F0AD84772B40F047863A4C0026207894
:1028400008F024F8274600F04BBCA02B00F03F8591
:10285000A42B40F039862F4E0024B07B37468000F1
:102860000130C0B208F012F8B07B07F0E2FF00F0D0
:102870003CBDCA2B00F0FD8022D8C82B00F0E280BE
:10288000C92B40F0218604F051FF244B284CD8720C
:1028900004F04CFF274B187004F05CFF206004F03C
:1028A00059FF606004F04CFF234B188004F048FF90
:1028B000224B1880174B1A7842F002021A70E7E098
:1028C000CB2B00F0BD80CC2B40F0FE8504F02EFF1A
:1028D0001B4CE07704F02AFF84F8200004F026FF68
:1028E00084F8230004F022FF84F8240004F01EFF83
:1028F00084F8250004F01AFF84F8210004F016FF84
:1029000084F82200C4E000BF040000206804002016
:102910004C030020340D0020A8050020990700205A
:10292000EC010020D4140020B6040020B8040020DC
:10293000680200204402002064020020B404002049
:1029400060200020D32B00F0D18058D8D02B00F08D
:102950007B844DD8CE2B00F08A84CF2B40F0B485F9
:1029600004F0EEFE6FF4AF614318C64CC62B98BF5F
:10297000A4F88E0104F0E4FEA4F8400104F0E0FEA7
:10298000A4F8420104F0DCFEA4F8440104F0D8FEEF
:10299000BD4EA6F8D00004F0C9FE84F89E0104F0F4
:1029A000C5FE84F89F0104F0C1FE84F8A00104F084
:1029B000BDFE84F87C0104F0B9FE84F8970104F0B0
:1029C000B5FE04F0BDFE00EB80004000308504F051
:1029D000ADFE84F87D0104F0A9FE84F87F0104F0C7
:1029E000A5FE84F87E0104F0A1FE84F880014FE08A
:1029F000D12B00F0F483D22B66D000F065BDEF2B15
:102A00002FD008D8D42B00F07681D62B08BF002415
:102A100052D000F059BDFA2B00F03184FE2B00F0AB
:102A20003984F02B40F05085974C042007F02EFF9E
:102A3000B4F92C0007F02DFFB4F92A0000F015BD01
:102A400000242AE0002404F07BFE904B185302344B
:102A5000102CF8D1002007F019FF01228C4B00F058
:102A60001FBD04F06DFE884CA08504F069FE6085F2
:102A70000EE0884C04F10A0604F058FE0134607040
:102A800004F054FEE07204F051FEB4426075F3D1DC
:102A9000002007F0FBFE00F01BBD7F4B1B789C4223
:102AA000F6D27E4BE65C04F04BFE774B013403EB31
:102AB0004606A6F84600F0E704F042FE784B1853AD
:102AC0000234102CF8D1E3E7764B5C78002CDFD190
:102AD00004F02CFE6B4B022898BF83F8C0044FF023
:102AE000000088BF83F8C0440146CFE304F028FE0D
:102AF0006D4B1880CCE7072007F0C8FEE72007F0F1
:102B000098FE604B587907F094FE012007F091FE83
:102B1000664800F0D6BC8B420CD2604A9E5C012213
:102B200002FA06F6264218BF9A4003F1010318BFC5
:102B30001043F0E707F0B7FE524B93F8C0044BE3A5
:102B4000122007F0A3FE5A4B5A4C1B88B3F5806F36
:102B500023D90026A05F082390FBF3F0023607F08C
:102B600098FE062EF6D1544CB4F9000007F091FE01
:102B7000B4F9020007F08DFEB4F904004F4C07F0E1
:102B800088FEB4F9000007F084FEB4F9020007F0F3
:102B900080FEB4F9040000F068BCB4F9000007F04E
:102BA00078FEB4F9020007F074FEB4F9040007F0EF
:102BB00070FED8E7102007F069FE0024404B185D36
:102BC000013407F036FE102CF8D100F081BC38201B
:102BD00007F05CFE2C4C0026B4F97E0007F059FE8D
:102BE000B4F9800007F055FEB4F9820007F051FEF9
:102BF000244B94F884005B79082B18D004D8012B5F
:102C00000DD0042B05D06DE0142B1ED0152B2ED02B
:102C100068E0F3B2042B2FD0052B2DD062E0F3B285
:102C2000052B5FD1B4F8863013F0040F1BE0F3B22C
:102C3000032B01D0042B55D1B4F886309A0748BF36
:102C400040F0010013F0010F49E0F3B2042B04D16E
:102C5000B4F8863013F0020F05E0052B42D1B4F82A
:102C6000863013F0010F3DD040F001003AE0F3B29E
:102C7000032B01D0042B25D1B4F8863013F0020FBA
:102C800028E000BF801B0020602000200C080020EE
:102C9000600100205F200020D4140020BC1400201C
:102CA0001E05002099070020400200200C0000C0F3
:102CB0002400002076040020B61400202C030020FD
:102CC00084000020052B01D0062B0BD1B4F88630F0
:102CD00013F0010F18BF40F0010013F0040F18BFEC
:102CE00040F00200013607F0A4FD082E04F10A04AA
:102CF0007FF472AFECE3002007F0C8FDDFF84C93DF
:102D0000002604F01DFDA9F87E0004F019FDA9F8C5
:102D1000800004F015FDA9F8820004F007FD20F002
:102D2000030389F88430B84B04465F79082F78D0C4
:102D300029D8012F71D0042F40F0A9804FF0010A4B
:102D40005FFA86F85346CDF800A0404621463A4641
:102D500004F009FD5346CDF800A040464FF0020AAA
:102D60002146052204F0FFFC404621463A465346E0
:102D7000CDF800A004F0F7FCCDF800A040462146B5
:102D80000522534681E0142F6FD0152F7FD1F7B263
:102D90004FF001084346CDF8008038462146032213
:102DA00004F0E1FC4FF0000A4346CDF800803846BD
:102DB0002146042204F0D7FC43463846214605222A
:102DC000CDF800A004F0CFFC434638464FF002088F
:102DD00021460622CDF800A004F0C5FC3846214665
:102DE00003224346CDF8008004F0BDFC384621465E
:102DF00004224346CDF8008004F0B5FC3846214655
:102E000005224346CDF8008004F0ADFCCDF80080EB
:102E1000384621460622434637E002230093F0B2AB
:102E200030E04FF00108F7B24346CDF80080384655
:102E30002146032204F097FC4346CDF80080384633
:102E4000214604224FF0000804F08DFC384621464C
:102E500003220223CDF8008004F085FCCDF8008029
:102E600038462146042202230FE05FFA86F8012744
:102E700040463B4600972146042204F074FC0023A0
:102E800000934046214605223B4604F06CFC013687
:102E9000082E09F10A097FF434AF19E35B4B185D82
:102EA000013407F0C6FC102CF8D111E3102007F014
:102EB000EDFC0024564B185F023407F0EAFC102C9E
:102EC000F8D105E3102007F0E1FC524B524CD87AC0
:102ED00007F0AFFC514B187807F0ABFC206807F007
:102EE000E2FC606807F0DFFC4D4BB3F9000007F02F
:102EF000D0FC4C4BB3F9000007F0CBFC4A4BB3F9C4
:102F00000400B2E2494C062007F0C0FCB4F900000E
:102F100007F0BFFCB4F9020007F0BBFC444B07E02C
:102F2000062007F0B3FC434B186807F0BCFC424B8B
:102F3000B3F9000099E2072007F0A8FC3F4B4FF6D9
:102F4000FF741888FF28A8BFFF20C0B207F071FCEB
:102F50003B4B1868A042A8BF204620EAE07000B2B0
:102F600007F097FC374BB3F9000007F092FC264BB3
:102F700093F87C21344B18680028B8BF40420AB14E
:102F80000A235843A042A8BF204600B26DE22F4C4E
:102F9000072007F07BFCE07F07F04BFC94F8200053
:102FA00007F047FC94F8230007F043FC94F8240052
:102FB00007F03FFC94F8250007F03BFC94F8210053
:102FC00007F037FC94F8220006E11E2007F05EFCB3
:102FD0001F4C04F10A060134607807F02AFCE07AFD
:102FE00007F027FC607D07F024FCB442F3D16FE2C8
:102FF0002F2007F04BFC174C14F8010F002800F0AD
:10300000678207F016FCF7E7801B002046200020AF
:103010000C080020990700206802002044020020CC
:1030200064020020B4040020340D0020C6030020F8
:1030300012020020280200207C0400208C030020C3
:10304000A003002004020020940300206020002040
:103050005F200020F31F010833789C4280F0388203
:10306000B64BE25CB64B013403EB4203B3F94600C6
:1030700007F00FFCF0E780440136B24B1B789E420C
:1030800009DB002C00F024825FFA88F007F0FEFBD9
:1030900000240026F1E7A94BAB4AF35C0C2101FBAD
:1030A0000323D3F8349048460BF0DDFF8246002C12
:1030B000E1D127465745DFDA19F8070007F0B9FBD9
:1030C0000137F7E7A14B9D4A23441B7AB05C984235
:1030D00001D107F0AEFB0C34B4F5907FF2D101368C
:1030E0003B789E4280F0F4810024EBE7984C162058
:1030F00007F0CCFBB4F98E0107F0CBFBB4F940012B
:1031000007F0C7FB8E4EB4F9420107F0C2FBB4F9D9
:10311000440107F0BEFBB6F9D00007F0BAFB94F803
:103120009E0107F086FB94F89F0107F082FB94F85C
:10313000A00107F07EFB94F87C0107F07AFB94F87D
:10314000970107F076FB002007F073FBB6F9280023
:103150000A2390FBF3F007F09CFB94F87D0107F045
:1031600068FB94F87F0107F064FB94F87E0107F098
:1031700060FB94F880012FE0082007F087FB012412
:10318000E0B2013407F055FB092CF9D1A0E104F0BD
:10319000CDFA0746122007F079FB0FB96D4B02E01C
:1031A000102F03D16C4B1E685C6801E0002426469A
:1031B000384607F03EFB304607F075FB204607F027
:1031C00072FB664B186807F06EFB002007F061FB8E
:1031D000002007F05EFB002007F02BFB78E104F0F5
:1031E000A5FA804604F0B6FA074604F0B3FA06469C
:1031F00004F0B0FA044604F0A3FA04F0A1FA04F0D3
:1032000095FAB8F1000F0DD1524B00225E601F609D
:10321000534BDA7101221A73002C3FF439AC4F4B37
:103220001C6035E4B8F1100F7FF432AC4A4B1F60DC
:103230005E600CB1494B1C6047484A4B0222011D9D
:103240001A7002F0FFF823E4454B5B78002B7FF403
:103250001FAC012005F004FE1AE4414B5B78002B03
:103260007FF416AC404B4FF4C8721A8010E43C4B0C
:103270005A78002A7FF40CAC01229A7308E4384B88
:103280005B78002B40F020810020012105F04AFDF1
:10329000FFF7FEBB082007F0F9FA344B344A1B68ED
:1032A0000024B3FBF2F3C3EB431103EB8103314979
:1032B0000968B1FBF2F2304902EBC3038B812F4B5B
:1032C000185F023407F0E5FA082CF8D100E10C2071
:1032D00007F0DCFA2A4B186807F0E5FA294B186862
:1032E00007F0E1FA284B1868EBE0BB7B9C4213D255
:1032F000264E305D07F09DFA06F12003185D07F0B9
:1033000098FA06F14003185D603607F092FA305DD6
:1033100007F08FFA0134E8E70D4B93F89E31012B4B
:1033200040F0D68000241A4B98681A4B195D01347E
:1033300007F07AFA082CF6D1CAE000BFBC140020CE
:1033400060200020D4140020F41F0108242001086C
:10335000801B002048020020580200202402002088
:103360009907002054020020742100200C00002046
:1033700040420F0094000020340D00203A0D002040
:10338000E8F7FF1FECF7FF1FF0F7FF1F430D0020CA
:103390004C06002050210108102007F077FA504B0E
:1033A000504C1E6816F020060CD0D4F89030D4F89B
:1033B0009400C01A07F077FAD4F89C00D4F898303B
:1033C000C01A03E0304607F06EFA304607F06BFA99
:1033D000D4F8A00007F067FAD4F8A40071E0002048
:1033E00007F054FA04F0A2F93F4C0023A360607187
:1033F00004F0B0F904F094FB04F098F984F88A0121
:1034000004F09EF9A4F8560104F09AF9A4F85801C2
:1034100004F096F9A4F85A0104F092F9A4F878019E
:1034200004F08EF9A4F87A0152E02F4C102007F036
:103430002DFA607907F0FDF9A06807F034FA94F8E6
:103440008A0107F0F6F9B4F9560107F022FAB4F947
:10345000580107F01EFAB4F95A0107F01AFAB4F944
:10346000780107F016FAB4F97A0107F012FA2FE0A2
:10347000082007F00BFA00241B4B234493F8820129
:10348000013407F0D6F9082CF6D121E004F04EF90A
:10349000154B23440134082C83F88201F6D117E040
:1034A0001A7015E0132007F0F1F900240F4B185D96
:1034B000013407F0BEF90B2CF8D1002007F0F3F926
:1034C000002007F0F0F903E00120002107F0C0F927
:1034D0002B68187902B0BDE8F04707F0AAB900BF21
:1034E000A8050020340D0020801B00206730010853
:1034F0002DE9F04F954B95B09B68CBB9944D2B7847
:10350000013B042B00F25987DFE813F06A066A06D4
:103510006A0647072A07A06807F07CF98D4B054625
:1035200093F89E31012B00F02D8108D3022B06D099
:10353000864CA06807F073F90028ECD1DEE7242D53
:10354000854C0CD006D80A2D00F08C800D2D00F093
:103550008980E6E02A2D07D02C2D05D0E1E000235C
:1035600023706370A370EDE0627826782244002116
:10357000794BD170EEB9DA789E74472A19D11A794D
:10358000502A16D15A79472A07D19A79472A04D165
:10359000DA79412A01D101229A7462796E4B522A5A
:1035A00007D19A794D2A04D1DA79432A04BF02223D
:1035B0009A74A37C684F012B02D0022B33D046E0D3
:1035C000B31E072B43D8DFE803F0040810141C24B3
:1035D000422905F051FB606139E0E2785E4B532AE5
:1035E00035D15A6952425A6131E005F045FBA0617C
:1035F0002DE0E278584B572A29D19A6952429A61B4
:1036000025E0E278554B302A94BF00220122DA727D
:103610001DE0002005F010FB207718E0002005F0E9
:103620000BFBE08313E0072E06D0082E0FD10120FC
:1036300005F002FB78840AE0012005F0FDFA41F272
:10364000184358434FF47A72B0FBF2F33B840136CF
:1036500000232A2D404A267063706ED1012182F822
:1036600024106FE094F82430002B55D03A4BDB78CF
:10367000402B04D9A3F137021201D2B202E01B01A0
:1036800003F0F0022379A178402B8CBF373B303B0D
:10369000DBB21344DBB299422F4A3DD1937C012B1C
:1036A00002D0022B1FD037E02C49C87A08B9012379
:1036B00033E02B485569056095694560157F2948B9
:1036C000D28B057028480280284800684507EED450
:1036D000097C0029EBD026498968521A64214A43A3
:1036E00024490A6019E0244B118C508C19801F4B1F
:1036F000224E1B68308013F008070DD164290BD9C6
:103700000A25684304F090FB90FBF5F080B21C4B57
:10371000B0FBF5F530801D800023002284F82420C2
:1037200010E063780C4A0E2B03D8591C13445170D7
:10373000DD7094F82430084A1BB991784D4095709B
:1037400000E0002303F0010399E100BF4C060020D4
:1037500058080020801B0020DC0D00209907002065
:10376000680200204402002064020020A805002016
:103770004802002028020020B4040020380D002058
:1037800012020020A74C002294F82530082B00F2EA
:103790007581DFE803F00B05141C2D3D5B7A870073
:1037A000622801D1022307E084F82520B52D40F0DE
:1037B000658194F82530013384F825305EE10323D8
:1037C00084F8253084F8260084F8270056E1042385
:1037D00084F8253094F8263094F827200344DBB28F
:1037E00084F82630134484F8273084F8280045E113
:1037F000052384F8253094F8263094F827200344D4
:10380000DBB284F82630134484F82730608535E134
:10381000062284F8252094F8262094F827100244E4
:10382000D2B284F826200A4484F82720628D7D4B8A
:1038300002EB0025ADB2B5F5E87F89BF00225D85BA
:103840005A8583F825200023A38518E194F82630B3
:1038500094F827200344DBB284F82630134484F81C
:103860002730A38DB3F5E87F03D26E4A1A4482F85D
:1038700030000133628D9BB29A42A38540F0FE80F6
:10388000684B072283F82520F8E0082384F82530C8
:1038900094F82630834200F0F180624A002382F8D7
:1038A0002530ECE084F8252094F827205D4B8242F7
:1038B00040F0E48093F82820062A51D004D8022A48
:1038C00012D0032A39D0D9E0122A5FD0302A40F032
:1038D000D58093F83420544B202A88BF20221A70B8
:1038E0001978524A002373E0514A596B514851608C
:1038F000996B11601A6C4FF47A7192FBF1F24E4998
:103900000A80596C0160996C4C48016093F8000280
:103910004B49C872012083F801024A4B1B685807C3
:1039200009D40B7C3BB1484B92B29B68D21A6423FA
:103930005A43464B1A60464B60E093F8352012F02C
:10394000010205D093F83430D91E4B424B4100E0C0
:10395000134684F80032002B55D1394AD37252E015
:1039600093F83B2012F0010205D093F83A30DA1EAA
:103970005342534100E0134684F800320BB9304AF9
:10398000D37294F85F20334B1A703CE0B3F84420B4
:10399000314942F210700A80996C304E91FBF0F080
:1039A000012183F80212274B30801B681B072AD4A1
:1039B000642A28D90A2580B2684304F035FA90FBBE
:1039C000F5F080B2264BB0FBF5F530801D801AE093
:1039D0008B4202F10C0210DA12F8045C21481D54EB
:1039E00012F8035C20481D5412F8015C1F481D5456
:1039F00015781F481D540133EAE71E4B5A681A60B8
:103A00001D4A12685A6094F80122064BB2B393F82B
:103A100002229AB3002283F8012283F802220123B2
:103A20002DE000BFDC0D0020420D00200C0E002018
:103A300068020020D40D002064020020D80D002070
:103A400099070020A8050020480200202802002035
:103A5000C40D002044020020B4040020380D0020D2
:103A600012020020430D0020630D0020830D002072
:103A7000A30D0020CC0D00207C1B00200023002B78
:103A80003FF456AD994B9A4D9A68DA602A689A606D
:103A9000984B1A6842F020021A60974B1A78012A54
:103AA0000CBF002201221A70944BDA7A002A3FF4EC
:103AB0003FAD934A1278042A7FF63AAD5A7812B98C
:103AC000197C01B91A731B7B13B90AB104F084F98C
:103AD0008C4C4FF0050C94F8033204F202270133AA
:103AE00093FBFCFC0CEB8C0CCCEB030C864B84F8AE
:103AF00003C21B780397049304F5027303EB8C0C49
:103B000000238249DFF828925E58814A96FBF9F734
:103B1000069758180590069802F10807D8517D4F6E
:103B200042F2107807FB00679E5097FBF8F8039E5F
:103B30001FFA88F802F1100A26F8028F03EB830BB4
:103B400053F80A0003965CF80B604CF80B70C6EB58
:103B5000000E0EEB0706069F4FF0050E43F80A60B5
:103B600096FBFEF609FB076018329850049A0F4640
:103B7000012A06D1A8F10208B8F5797F9CBF059EFD
:103B800030600433082BBCD15E4E2868D6F8503222
:103B9000C01A09F015F8604909F01EF92B684FF0BA
:103BA0007E51C6F85032804609F000FA10B94FF045
:103BB0007E5000E0404610AAC6F85402574B0092CF
:103BC00011AA019297E803000CCB04F0A4F8109A14
:103BD0006423534992FBF3F211980A80DFF81C81A9
:103BE000504A90FBF3F3138098F80C300BB90B801C
:103BF000138096F85832434D002B3AD0D5F8541222
:103C00004FF07E5009F0E8F8D5F85C32814638680C
:103C1000C01A08F0D9FF494609F02AF809F0EEF970
:103C2000D5F860221FFA80FA78680FFA8AFA801AAB
:103C300008F0CAFF3C4B196809F01AF8494609F028
:103C400017F809F0DBF9B5F9663200B2C218B5F918
:103C500064320221534492FBF1F293FBF1F392B2EE
:103C60009BB2A5F86A22A5F86832A5F86622A5F8E5
:103C70006432012386F858327968386898F8083039
:103C8000C6F86012C6F85C0223B91C4BDB79002B26
:103C90003FF44EAC254B009304330193D4F86C22CF
:103CA000D4F8703204F037F87B68D4F87002C01A88
:103CB00008F08AFF1C4B196808F0DAFF09F09EF93A
:103CC0003A68D4F86C32C4F880029B1A98F8102035
:103CD000C4F87C320C4B0AB102221A7093F90030FE
:103CE000012B27D0022B00F0F68021E45808002099
:103CF0007C1B0020A8050020340D0020990700201F
:103D000044020020DC0D0020540200206802002044
:103D10000C100020806967FF00007A4448020020F0
:103D2000B6040020B80400203C0000205010002001
:103D300080969800D4F88472D4F8A052D4F8946293
:103D40000397D4F8987205F100400496069709F09D
:103D500055F98146284609F051F9D4F85482D4F82F
:103D60009C4207904046059408F096FB8E4B044613
:103D700093F8DA000D4608F023FF08F08DFB88A3C6
:103D8000D3E9002308F0DCFB02460B4600208749FC
:103D900008F000FD2B46224608F020FA02460B46AA
:103DA0002046294608F0F6FCCDE90801804E0025A2
:103DB000804C54F81570A4F11403384635F803A06C
:103DC00008F002FF039908F053FF09F017F9CAEB56
:103DD000000080B22834285304B2204608F0F4FED4
:103DE000049908F045FF09F009F91FFA80FBE01972
:103DF00008F0EAFE069908F03BFF414608F038FF5C
:103E0000316808F02DFE09F0F9F8484504DB079900
:103E10008842A8BF084600E0484608F0D5FE30605A
:103E200009F0ECF8B46858441FFA80FB204608F00B
:103E300033FBCDE90A0170680AF1310A381A08F03B
:103E4000C3FE414608F0C8FF214608F007FE08F00F
:103E500023FB02460B46DDE9080108F071FB024630
:103E60000B46DDE90A0108F0B9F908F0A3FD1FFAD5
:103E70008AFABAF1620F014630617760B0600ED9FC
:103E8000059808F0F5FE09F0B9F84B4BB0F5FA6F5C
:103E9000A8BF4FF4FA609842B8BF184600E000206F
:103EA000834440F6B8330FFA8BFB9B45A8BF9B4673
:103EB000424B0A229B45B8BF9B466A43404B56F88B
:103EC000141B25F803B03F4B0235042DD1507FF46D
:103ED0006FAFFFF72DBB344AD6F874A2B2F9E09069
:103EE0009AFBF3F39945A8BF9946B6F8A8521FFA72
:103EF00089F90FFA89F22BB29A42334C0BDD334920
:103F0000D4F8540208F0B4FE09F078F828441FFAF7
:103F100080F9A4F8A892D6F87842D6F8AC52651B7E
:103F2000284603F081FF0028D8BF404241F2931396
:103F30009842CCBF0020012000284BD0284608F032
:103F400043FE234908F094FE0BF04AFB0546504619
:103F500008F03AFE0146284608F08AFE09F04EF8BD
:103F600080B240F6B83203B29342A8BF1346134A58
:103F7000A6F8B0029342ACBFE318A31848F6A042DB
:103F8000934203DDA3F50C43A03B04E0002BBCBF30
:103F900003F50C43A033C6F8B4321DE0AFF3008044
:103FA000182D4454FB211940602000200000F03FF0
:103FB000A80200205810002030F8FFFF48F4FFFF4F
:103FC0007A020020D0020020DC0D00200000C84250
:103FD000D3023739C6F8B442D6F8B472C7F50C50DC
:103FE0002830039708F0F0FDAF4908F041FE044681
:103FF0000BF082FA139020460BF0F2FAD6F8B87262
:10400000D6F8C4420597D6F8BC72129004F100406D
:10401000089708F0F3FF0490204608F0EFFFD6F869
:1040200054B2D6F8C0620A905846079608F034FA9F
:104030009E4B044693F8DA000D4608F0C1FD08F0E7
:104040002BFA97A3D3E9002308F07AFA02460B462D
:104050000020974908F09EFB22462B4608F0BEF848
:1040600002460B462046294608F094FBCDE90C0198
:10407000904E00270FFA89F008F0A6FD12AB53F816
:10408000171008F0F5FD8C4C0546E05F08F09CFD2C
:104090000146284608F0E2FC08F0B0FF874B0FFA13
:1040A00080F8B8F57A7FA8BF4FF47A789845B8BF02
:1040B00098461FFA88F03C34385300B208F084FD6B
:1040C0000599044608F0D4FD08F098FF80B20690E8
:1040D0000899204608F0CCFD594608F0C9FD316822
:1040E00008F0BEFC08F08AFF0499884204DB0A9AB3
:1040F0009042A8BF104600E0049808F065FDB4683F
:1041000005463060204608F0C7F9CDE90E01706819
:104110001436C0EB080008F057FD594608F05CFE65
:10412000214608F09BFC08F0B7F902460B46DDE992
:104130000C0108F005FA02460B46DDE90E0108F015
:104140004DF808F037FC46F8108C014646F8040C90
:1041500046F80C0C079808F08BFD08F04FFF069C02
:104160000444284608F04AFF204440F6B83300B221
:104170009842A8BF1846524B0A229842B8BF184628
:104180007A43504BF852504B0237042FD5507FF4EE
:1041900071AF464B93F8DC202AB1039E64214B4A51
:1041A00096FBF1F11180B3F8D830494C9A450EDDF9
:1041B000D4F8AC32D4F87802C01A03F035FE42F2DB
:1041C00010730028B8BF404298427FF7B1A9414B15
:1041D00001221A70B4F8C8223C4B1A80FFF7A8B924
:1041E000DFF8048198F89E7117B1012F0AD0B4E06E
:1041F0006A78394B03EB0213384A5968906806F025
:1042000004FBA7E0354EB068B14603681B699847C8
:10421000002800F0A2802B78314C022B66D0032BB3
:104220006ED0012B40F099802E4B1E68636AF31A02
:10423000632B40F29280E369042B2EDCD8F808202F
:10424000254C02F04802482A0ED0EB69D9F8080044
:1042500004EB0313596806F0D8FA6B78D9F80870A4
:1042600004EB0314A4680CE098F88C21002AECD12C
:1042700004EB03135B68B3F5164FE6D90223EB6139
:10428000E3E714F8011B19B1384606F0CDFAF8E758
:10429000EB696E620133EB615FE002205BE000BF1F
:1042A000182D4454FB211940D302373960200020D7
:1042B0000000F03FD00200204410002018FCFFFF57
:1042C00048F4FFFF7A020020A802002040020020EC
:1042D000DC0D002054020020101901084C060020BB
:1042E000580800207C1B0020801B00206278344B83
:1042F000B06803EB0213596806F087FA03202AE03E
:104300002369012B0DD0022B24D033BB226A2D4B05
:10431000276153F8321003EBC2035B686161A3614C
:104320001BE0E369A269934208DA6269B068D15C74
:1043300006F07AFAE3690133E3610EE0226A21496B
:104340000132226251F832200023E36102B90223D4
:10435000236102E0042004F003FA00236B602CE0E8
:104360006A68194B01326A60184A92F8A1214AB171
:104370005A7805210132D2B2B2FBF1F101EB810191
:10438000521A5A70124B134A1B680120AB6000236B
:104390001370114A2B61D3720DE00D4B1A68AB6894
:1043A000D21A40F6C4139A4207D90C4B05201A685A
:1043B00022F020021A6004F0D3F915B0BDE8F08FA6
:1043C00010190108301A010858080020801B00202D
:1043D0007C1B00204402002099070020A805002033
:1043E0002DE9F04F1421012834BF0746012701FBB6
:1043F00007F06A4ADFF8C0B113181058684ECBF8BE
:1044000000006848F469077018691D89B3F80A90BC
:1044100020435C6889B049EA0508F0610223C4F8CA
:10442000108020468DF80E1003A9ADF80C808DF891
:104430000F30019203F041F94FF0080AA3681D42C2
:1044400003D10A2003F024F9F8E70A20656103F09C
:104450001FF925610A2003F01BF9BAF1010AEDD119
:104460000A20C4F8149003F013F90A20656103F0E0
:104470000FF90A20256103F00BF90223C4F810900C
:1044800020468DF80F3003A91C238DF80E30ADF8AF
:104490000C8003F012F9DBF80030434A9342336991
:1044A00005D143F4001333614FF4001004E043F4EA
:1044B000800333614FF4800005F047F8DBF80040DB
:1044C00003A8A38823F440731B041B0CA380238838
:1044D0009BB243F001032380A58804F073FF25F00D
:1044E0003F050599314A2D04B1FBF2F22D0C15431D
:1044F000ADB2A5802388012523F001031B041B0C0A
:1045000023802B4B03A8B1FBF3F34FF496714A437E
:104510009BB24FF47A71002B92FBF1F208BF01239A
:10452000013243F4004392B22284A38323881B4ABE
:104530009BB243F001032380238823F4816323F09B
:1045400002031B041B0C23804FF48043238114239C
:1045500003FB07277B7B00248DF80C308DF80D4082
:104560008DF80E408DF80F5006F014F83B7B9DF847
:104570000F208DF80C308DF80D401AB103A806F00D
:1045800009F807E0590903F01F039D40094A20314B
:1045900042F8215009B0BDE8F08F00BF5821010852
:1045A00000100240A81000200054004040420F00BC
:1045B000804F120000E100E0C011002008B5054B5B
:1045C0001A88013292B21A80034B1878FFF708FF5D
:1045D000002008BD360D0020A810002010B54000B6
:1045E000204CC0B220702048204C0170204901208E
:1045F0000870002121701F4C23601F4C23601F4B4B
:104600001A701F4B1F4A107019701F49086819460D
:1046100030B383889C0515D40388DB050DD447F29D
:1046200030530488A40502D5013BFAD112E08BB1C6
:1046300003889BB243F48073038083889BB243F466
:104640004073838047F23053107810B1013BFBD1A7
:1046500000E013B9BDE81040B0E7087880F0010031
:1046600010BD00BFB0110020B1110020B311002017
:10467000B2110020B8110020B4110020BC1100209C
:10468000BE110020BD110020C011002007B502ABF3
:1046900003F8012D0122FFF7A1FF03B05DF804FB31
:1046A000244A13B513681446998A89B20191019975
:1046B00011F4706F02D0204A01211170019A12F496
:1046C000E06F2AD01A8B9A8822F480621204120CAE
:1046D0009A80019A910520D41A8892051DD41A88CF
:1046E000D0050FD51A88D105FCD41A8892B242F4AD
:1046F00000721A801A889205FCD4104B1878FFF7C4
:104700006FFE0AE01A8892B242F400721A809A8808
:1047100022F440721204120C9A802268938A23F4C5
:1047200070631B041B0C9382054B00221A7002B0AD
:1047300010BD00BFC0110020BE110020A810002035
:10474000BD110020094B30B59A68B3F84A51B3F84F
:10475000444102F4804200230549002A14BF284640
:10476000204658520233182BF6D130BD801B002052
:104770001E05002030B50E4B9B8912F1FF3214D379
:1047800011B10C78013100E0FF24094B1D89AD0700
:10479000FBD59C811C89E407FCD5054B9B899BB20A
:1047A0000028EAD003700130E7E7012030BD00BFE8
:1047B000003800407FB51C4C4FF4805506466561BB
:1047C000C32003F02FFC684600210622FFF7D2FF2A
:1047D00025619DF801309DF800209DF8021043EA04
:1047E000022212B2042392FBF3F2ADF808209DF8E6
:1047F000032002A842EA012212B292FBF3F29DF8D2
:104800000410ADF80A209DF8052042EA012212B2F8
:1048100092FBF3F3ADF80C30044B31461A7805F0F7
:10482000DFFE04B070BD00BF000C0140400000205E
:104830002DE9F04F9E4B87B018889E4B9E4DDB882C
:1048400095F81A8005939D4B9F689D4B1FFA87F939
:104850001E889C4BC9EB06069A68B6B2C9EB0209E2
:10486000994A1FFA86FBD27C1FFA89F99A463AB117
:104870000FFA8BF34345BCBF07EB0803CAF80830B7
:104880000A2400B26043029203F0CEFA8F4B90FBF1
:10489000F4F01B6800B213F0080F029A11D08C4B91
:1048A00090FBF4F41B88A1B218B2041B002CB8BF13
:1048B00064420A2C08DD87480088C82888BF0B4658
:1048C00002E090FBF4F39BB28349844C08686421B6
:1048D00090FBF1F1C9EB0600DFF81C920091D9F8CA
:1048E00000606180A16880B2711AC729A080764EED
:1048F00040F25582D9F80010A160B5F8F81020B93F
:10490000A181BAB10022F27414E0B5F8FCE000B263
:104910000EFB101EB5F8FA10B5F8F6C08E45CDF8AE
:1049200010C003DB61468E45B8BF7146A1810AB154
:104930000028E7DA0098C31A98B2F379F3B1624B12
:10494000DB7C7BB1B5F8F230C3EB4332C3EB8203BF
:104950005B00A380B5F8F630A3810FFA8BF3132B1D
:10496000D8BF00205E4B1B88312B07D80FFA8BFB7A
:10497000C345C4BF07EB0803CAF80830B17C524AEC
:10498000574B41B11988092905D8002105375170C5
:10499000D174CAF808701B88092B0AD800B207F036
:1049A00069FD41A3D3E9002307F0CAFD07F0DAFF50
:1049B00080B24FF0640800B208FB00F003F034FA54
:1049C00090FBF8F01FFA80F80FFA88F3002BB8BFBD
:1049D0005B42AB2BD9F800002369A8BF4FF0AF08AA
:1049E000C01A08F0EDF83F4908F0F6F9D9F80030A0
:1049F000B4F804A023610AF103039BB2062B074617
:104A0000DFF8F89006D8D9F80000394608F030F9F8
:104A1000C9F800000AEB8A0A4FEA4A0292B293B23E
:104A2000A38018B20292019308F0CEF8A1698246E1
:104A300008F01EF9394608F01BF9D9F8001008F003
:104A40000FF808F0DBFA2849B0F5FA7FA8BF4FF459
:104A5000FA708842B8BF084608F0B6F82349029AAF
:104A60008346C9F800000888019B121A92B20B8095
:104A700013B2002BB8BF5B42652B1D4BA8BF0022B1
:104A800003F10A01988823F8020F8B42FAD11949E1
:104A900000230A811846CA5A023310440A2B80B2F6
:104AA0002ED080B2F7E700BF9A9999999999B93FAA
:104AB000380D00200C080020602000204802002053
:104AC000640200205802002099070020A805002059
:104AD00012020020B404002090100020A810002032
:104AE000B604002000007A440CFEFFFF0003002003
:104AF00004030020060300207C1B0020FC02002091
:104B000000B208F061F8E16908F0B2F8394608F03F
:104B100063F908F073FA1FFA80F961695046A4F846
:104B2000249008F0A5F808F069FA00B208F04CF8F3
:104B3000594607F095FF08F061FA1FFA88FA0AF162
:104B400003039BB280B2062B0490DFF8B88206D82C
:104B5000D8F80000394608F08BF8C8F800000AEBD6
:104B60008A0A4FEA4A0C1FFA8CFC1FFA8CF210B228
:104B70000292CDF80CC008F027F8974B824659688E
:104B8000019308F075F8394608F072F8D8F800106B
:104B900007F066FF08F032FA9049B0F5FA7FA8BF37
:104BA0004FF4FA708842B8BF084608F00DF88C49F7
:104BB000C8F80000DDF80CC083460888029AC0EBF4
:104BC0000C0C1FFA8CFC019B0A800FFA8CF2002A55
:104BD000B8BF52429846834B652AA8BF4FF0000CDD
:104BE00003F10A02998823F8021F9342FAD17E4A00
:104BF0000023A2F808C01846D15A023308440A2BF1
:104C000080B201D080B2F7E700B2019307F0DCFF79
:104C1000D8F8081008F02CF8394608F0DDF808F04C
:104C2000EDF982B2E284D8F800105046029208F002
:104C30001FF808F0E3F900B207F0C6FF594607F085
:104C40000FFF08F0DBF981B2B5F9F200DDF810C012
:104C50006FF00907019B47430FFA8CFE9EFBF3FEA2
:104C60000FFA8EFEB5F9F400BE4503FB00F3029A7D
:104C700003DB9E45B4BF77461F46B5F9EE006FF0E3
:104C8000090E0EFB00FE09B24FF00A0CB94491FB6D
:104C9000FCF1564F1FFA89F97145A7F8029004DB21
:104CA0000CFB00FE7145B8BF8E4692B29644A7F841
:104CB00000E0B5F9F0E06FF0090000FB0EF0814272
:104CC00005DB0A2000FB0EF08142B8BF0846024413
:104CD000BA80727C52B10FFA89F9B9F1000F03DB87
:104CE0009945B8BF4B4600E000237B80F37CDFF89A
:104CF0001881B3B9B7F9020007F066FF8146B8F929
:104D000000000028D8BF404207F05EFFD5F8001130
:104D100007F0AEFF0146484607F0A0FE08F06EF926
:104D20007880B8F9020007F04FFF4FF07C5107F090
:104D30009FFF08F063F9A389B0F5E17FA8BF4FF4A6
:104D4000E17020EAE070181AB5F8FA7000B2B842C3
:104D5000B5F8F63003DB9842B4BF07461F46244B34
:104D6000244D1888A0F5E173642B0CD900B2C0F56E
:104D7000FA7007F029FF204907F07AFF08F03EF9A2
:104D80002B8818442880B5F90030B3F5FA7FA8BF06
:104D90004FF4FA7323EAE3732B803B44A381F27848
:104DA000124B12B9154A127922B1B27A52B1134A92
:104DB000927C3AB9DDF814C00022A4F80CC05A80E5
:104DC0001A809A800E4AA189D180998893880B44D1
:104DD000938007B0BDE8F08F941000200CFEFFFF19
:104DE00002030020100300201203002070020020A4
:104DF000B404002004030020CDCCCC3D9907002052
:104E00002E020020F8020020C603002013B504463D
:104E1000006803F051FD236801A81A8892B242F09D
:104E200001021A80637B8DF8043001238DF8053070
:104E30008DF806308DF8073005F0ACFB02B010BDE0
:104E40002DE9F743DFF85880050105EB0804A36856
:104E5000124EADF804302E44282307468946B2711D
:104E600060688DF8063001A902238DF8073002F042
:104E700024FC55F80800217B002203F071FD204638
:104E80004FF6FF710122FFF7C1FF204639464A461F
:104E900003F08DFC304603B0BDE8F083D010002055
:104EA0008C2E0108AFF300802C4B10B54FF4127418
:104EB00004FB00342379DB074ED594F838321BB35A
:104EC000236B1868828DC2F34E02828494F83C22D0
:104ED00022B1B4F844220132A4F8442294F84222C8
:104EE000197B002A14BF0222002200F079FE012360
:104EF00084F83B32002384F8393284F83A3284F85B
:104F00003832A4F8403210BD94F83B322046012BD1
:104F100004BF94F8393284F83A3202F0D7FE94F89C
:104F20003B12236B94F8422249B9012184F83B12C9
:104F3000002A1868197B14BF0222002208E0002111
:104F400084F83B128A421868197B0CBF02220022A7
:104F5000BDE8104000F044BE10BD00BF8008002036
:104F60000FB42DE9F04F684A89B012AB1668674A52
:104F700053F8045B176804939B462978002900F0D6
:104F8000B780252902D001353046AFE06C78302C4F
:104F900003D002354FF0000903E0AC784FF001096F
:104FA0000335A4F13003092B4FF0000819D8A4F100
:104FB0003003DAB2092A05D80A2202FB083815F8AC
:104FC000014BF4E7A4F16103052B02D8A4F15703C8
:104FD00005E0A4F14103052B03D8A4F137030A2B04
:104FE000EADD6C2C03BF2C78012201350022632CF2
:104FF00066D006D8252C77D0582C3FD0002C77D0FF
:10500000BBE7732C63D002D8642C11D0B5E7752CA4
:1050100002D0782C32D0B0E70BF1040A05ACDBF8F3
:1050200000000A2112B10022234613E0234620E0AB
:105030000BF1040A05ACDBF8000072B1002806DAB7
:105040002D238DF8143040420DF1150300E0234666
:105050000A21002205F0ACFB0DE0002806DA2D2322
:105060008DF8143040420DF1150300E023460A216B
:10507000002205F075FBD34600941AE00BF10403FF
:1050800003930DF1140ADBF80000102132B1583CF3
:1050900062426241534605F08BFB06E0B4F15803CF
:1050A0005A425A41534605F05BFBDDF80CB0CDF88F
:1050B00000A03046394642464B4605F02DFB5CE7E2
:1050C00030469BF800100BF10404B8470AE0DBF807
:1050D0000030304600933946424600230BF1040469
:1050E00005F01AFBA34648E730462146B84744E797
:1050F000074B186803681B6998470028F8D009B067
:10510000BDE8F04F04B07047600500205C0500204A
:105110004C06002037B5037904460D46052B34D8DC
:10512000DFE803F003060A0D1114836819782DE0F7
:10513000836893F9001029E08368198826E0836862
:10514000B3F9001022E0836819681FE0836869469C
:10515000186804F0A7F801461248FFF701FFF5B1FF
:10516000E06807F031FD694604F09CF801460E48FE
:10517000FFF7F6FE206907F027FD694604F092F874
:1051800001460948FFF7ECFE09E000210748FFF758
:10519000E7FE25B10648E1682269FFF7E1FE03B0AA
:1051A00030BD00BFB5320108B43201083E310108FC
:1051B0003A3101082DE9F04389B0044609F053FF64
:1051C000C6B2002E6CD18B4805F084FB8A4C206956
:1051D000002107F0E1FE40BB013688483146FFF769
:1051E000BFFE206904A904F05DF801468448FFF77A
:1051F000B7FE606904A904F055F801468048FFF73E
:10520000AFFEA06904A904F04DF801467C48FFF701
:10521000A7FEE06904A904F045F801467948FFF7C4
:105220009FFE0C2E04F11004D1D10025764C2F46A0
:105230002B464FF00008B04504F1100415DA18466B
:1052400054F8101C07F00CFC54F80C1C814628463E
:1052500007F006FC54F8081C0546384607F000FC29
:1052600008F101084B460746E5E7684801930295B7
:10527000039705F02FFB002401ABE058644920F0B0
:10528000004007F0B1FE634B634A0434002814BFAA
:105290001046184605F01EFB0C2CEDD15F4891E03E
:1052A00020465F49052209F0E7FE38B9524B00223B
:1052B00003441030C0281A61F8D197E020465949BC
:1052C000042209F0D9FE06462046002E40D12021B6
:1052D00009F0BCFE002800F08980451C284609F032
:1052E000C2FE34468046504B53F824600EB94F48F6
:1052F00068E0284631465FFA88F209F0BDFE671C77
:1053000020BB3D4B0021C2181030C02811619C46C3
:10531000F7D1474B002403EBC702D2F804E09846CC
:10532000BEF1000F04D143483146FFF719FE55E0A6
:1053300018F837309C42F6DA23010CEB03051035E0
:1053400073440FCB013485E80F00F1E73C46CAE710
:1053500009F038FF461E0B2E074643DC204620216D
:1053600009F074FE054640B1451C284602F004FCD5
:10537000214B3F01D851012400E00446284620215A
:1053800009F064FE054640B1451C284602F0F4FBD6
:10539000194B013403EB061358612846202109F00C
:1053A00055FE054640B1451C284602F0E5FB124B70
:1053B000013403EB061398612846202109F046FECC
:1053C00018B91D4805F086FA10E0013002F0D4FB50
:1053D000094B032C03EB0616F061F2D11748FFF7D7
:1053E000E9FE03E016480C21FFF7BAFD09B0BDE85D
:1053F000F08300BF49310108801B0020743101088F
:105400007A3101083E320108941B00207E310108E8
:105410000AD7233C45310108413101087E37010894
:105420008D31010893310108E82101089831010804
:1054300070170108B0310108C3310108863A01082C
:10544000FD310108F7B50368174C184D23600B6850
:10545000174E6360006802F0A1FC95E80300154B4D
:105460000196009394E80C0002F055FC3668124B4C
:1054700060681E606B68114FC01A07F0A5FB104BE7
:10548000196807F0F5FB07F0B9FD22682B68786012
:10549000D31A3B600B4B1E600B4BB3F8DE200B4B5B
:1054A0001A8003B0F0BD00BF481000206802002041
:1054B00054100020501000209010002058100020A0
:1054C0003C00002088100020602000208410002074
:1054D0002DE9F04F9F4F05017C598E4685B007EBB3
:1054E000050B11462046904672469A4603F0E4F9B1
:1054F000DBF808200BF10803ADF80C2018228DF81A
:105500000E2003A90222DBF804008DF80F2001937E
:1055100002F0D3F8019B904E1A7906EB0509394643
:105520000C2A00F2ED80DFE812F00D00EB00EB003A
:10553000EB004E00EB00EB00EB008400EB00EB0017
:10554000EB00B900238CDFF814C223F001031B0425
:105550001B0C2384278CA088238B644523F07303C2
:105560004FEA03434FEA1343BFB280B243F07003E4
:1055700014D00CF5006C644510D00CF5406C6445FB
:105580000CD00CF5806C644508D00CF5806C64453B
:1055900004D027F0020747F0030707E027F00E07C3
:1055A00020F4407047F0030740F48070A08023830C
:1055B000A4F834A02784238B23F008031B041B0CBE
:1055C00043F0080333E0238CDFF890C123F010038D
:1055D0001B041B0C2384278CA088238B644523F495
:1055E000E6434FEA03434FEA1343BFB280B243F4AA
:1055F000E04308D00CF5006C644504D027F0200788
:1056000047F0300707E027F0E00720F4406047F05C
:10561000300740F48060A0802383A4F838A027845A
:10562000238B23F400631B041B0C43F400632383CC
:1056300066E0238CDFF824C123F480731B041B0C69
:105640002384278CA088A38B644523F073034FEA3F
:1056500003434FEA1343BFB280B243F0700308D054
:105660000CF5006C644504D027F4007747F44077CC
:1056700007E027F4606720F4405047F4407740F497
:105680008050A080A383A4F83CA02784A38B23F0A0
:1056900008031B041B0C43F0080330E0278C2F4841
:1056A00027F480573F043F0C2784278CA388B4F845
:1056B0001CC027F400572CF4E64C4FEA0C4C3F0476
:1056C0004FEA1C4C3F0C84429BB24CF4E04C47F434
:1056D000405703D000F50060844203D123F4804397
:1056E00043F48043A380A4F81CC0A4F840A02784FE
:1056F000A38B23F400631B041B0C43F40063A383FC
:1057000029448B7B43B1B4F844306FEA43436FEADA
:1057100053439BB2A4F8443023889BB243F0010367
:1057200023800C2A10D8DFE802F0070F0F0F090FB3
:105730000F0F0B0F0F0F0D00343404E0383402E06C
:105740003C3400E0403474514846A9F8048005B068
:10575000BDE8F08F8C2E0108D0100020002C0140F5
:105760002DE9F041144C07460E46E068022105F091
:1057700047F800231D4603F10108721EDBB2934275
:105780000BDAF95CE0680D4405F04EF84FF47A70DE
:1057900001F07EFFADB24346EDE7E9B2E06805F007
:1057A00043F84FF47A7001F073FFE0680121BDE81F
:1057B000F04105F025B800BF4C0600202DE9F74365
:1057C0001F46394B044603600323037191464FF48F
:1057D000807300F13402C36042610125002023611F
:1057E000D4F8343184F8385284F83C0284F8390211
:1057F00084F842722062E061A0626062A4F8440210
:10580000A4F8460258689B6804F59C72A2614FF0A8
:105810000208ADF804300E46102301A98DF80630B9
:105820008DF8078001F049FF236B01A958689B6838
:105830008DF80780ADF8043048238DF8063001F06C
:105840003CFF2946204602F056FA322001F02BFF99
:10585000164BD4F834811B681D46B5FBF9F1B1F540
:10586000803F03D3012DF8D96D08F6E7104A404672
:10587000B3FBF2F289B2D2B2FFF7C8FA4046314622
:105880000C4A02F094FF246B002F0CBF022200226E
:105890002068217B00F0A4F920463146064A02F038
:1058A00086FF03B0BDE8F08380210108940000204A
:1058B00040420F00075C0008A94E000810B5B1F582
:1058C000164F34BF0C464FF416448460084A09480A
:1058D00000210263103290F84232C0F8342122468F
:1058E000FFF76CFF044B01221C601A7110BD00BF52
:1058F000CC2E010880080020200D0020426A10B53F
:105900008469A154416A02690131B1FBF2F402FBDE
:1059100014124262426B32B11368DB0708D4BDE84F
:10592000104002F02BBF836CDA6842F08002DA602C
:1059300010BD10B50446642001F0B5FE6820232197
:10594000F022FEF7A3FE10B9032005F046F805206B
:1059500001F0A9FE054B68201A78202142F00F02C1
:10596000FEF794FE0CB1024B1C7010BDBC0500206C
:105970004400002010B50446192001F094FE682070
:1059800015210022FEF782FE10B9032005F025F84C
:105990000D4B16211A78682042F01802FEF776FEA9
:1059A000172100226820FEF771FE3D2101226820A8
:1059B000FEF76CFE68203E210122FEF767FE0CB167
:1059C000024B5C7010BD00BF22000020440000208C
:1059D000772048210122FEF759BE77205821012265
:1059E000FEF754BE064B002193F82020054B920190
:1059F000343219707720F42102F0FC02FEF746BE23
:105A0000D405002064210020034B00221A70772067
:105A1000F4212E22FEF73ABE6421002010B50F219A
:105A2000082204461820FEF731FE0E22182010210D
:105A3000FEF72CFE034B4FF480521A800CB1024B40
:105A40009C7010BD240000204400002008B1034BCE
:105A5000D8700C200A210122FEF718BE4400002055
:105A6000154B10B51B7804462D21532008227BB11D
:105A7000FEF70CFE31210A225320FEF707FE2C21EF
:105A80000C225320FEF702FE53203821902209E019
:105A9000FEF7FCFD31210A225320FEF7F7FD5320CB
:105AA0002C210A22FEF7F2FD044B40F209121A8063
:105AB0000CB1034B1C7110BDBD050020240000205B
:105AC000440000201F4B37B51B680446012B0EDD38
:105AD0004FF40053ADF8043002238DF8073004234F
