:020000040800F2
:10000000A0310020F5D3000835D4000837310008AE
:1000100039D400083BD400083DD40008000000009B
:100020000000000000000000000000003FD40008B5
:1000300041D400080000000043D4000839A400089F
:1000400047D4000847D4000847D4000847D4000824
:1000500047D4000847D4000847D40008C1B00008BE
:1000600047D4000847D4000847D4000847D4000804
:100070004DAB000847D4000821AB000847D4000866
:1000800047D4000847D4000847D4000847D40008E4
:1000900047D4000847D4000847D40008C3B000087C
:1000A00047D4000847D4000847D400082BB90008FB
:1000B00031B9000837B900083DB900089D9C000817
:1000C0009D9A0008A19C00089F9C000847D4000846
:1000D00047D4000879AB0008ADAB000811AC0008AC
:1000E000F593000847D4000847D40008DFF80CD087
:1000F0000DF074FD00480047FD2D0008A0310020E0
:1001000070B50C46911E232900D30A220025002831
:1001100004DA2D212170611C404200E0214601F0EB
:100120007DFC0570204670BD2DE9F047044600E0D7
:10013000641C20782028FBD00928F9D04FF07E5885
:10014000C1B247462D2902D02B2801D001E0FC4F37
:10015000641C0026DFF8EC930CE000BF0DF0BEFB42
:100160000546494630460DF03DFB29460DF0E2FAC2
:100170000646641C207830380928EFD920782E28CC
:1001800015D14D460EE000BF0DF0A8FB29460DF03D
:100190005BFB31460DF0CEFA0646494628460DF087
:1001A00021FB054614F8010F30380928ECD92178D5
:1001B0004046652901D0452935D114F8011F4FF07B
:1001C00000082D2902D02B2902D002E04FF00108AF
:1001D000641C00256FF02F0206E000BF05EB8503CD
:1001E00002EB4303CD18641C2178A1F13003092BE5
:1001F000F4D94FF49A718D4204D90D46D2490DF0CD
:10020000F1FA083D082DF9D203E049460DF0EAFA6B
:100210006D1E002DF9D1B8F1000F04D00146304613
:100220000DF012FB03E0014630460DF0DBFA3946D3
:10023000BDE8F0470DF0D6BAF0B587B000260D4600
:10024000C34900960196C1A70296B0F5000F02DBE4
:100250000DF070FA01E00DF0BFFABE490DF0C2FAE0
:100260000DF04AFB041E00DC60420A2203A9FFF7DE
:1002700047FF002C01DB202000E02D208DF800003E
:1002800003A80DF008FA302401280AD003A80DF0C5
:1002900002FA02280CD003A80DF0FDF903280CD0B7
:1002A0000DE08DF801408DF802408DF8034006E026
:1002B0008DF801408DF8024001E08DF8014003A95E
:1002C00068460DF0B4F968460DF0E5F9C01EC4B2F9
:1002D0002246694628460DF0C8F92E55394628466B
:1002E0000DF0A5F90DEB040128460DF0A0F9284604
:1002F00007B0F0BD70B505460C4608680DF0CBF9A7
:10030000024621682868BDE870400DF0EDB970B56F
:1003100006460DF0C0F9904D10F0FF0F10D030469A
:100320000DF0FBF90446182818DA202130460DF0AC
:10033000A8F90DF0F2F905EB4401A1F84A0070BDEF
:100340005FF0000405EB44002146B0F84A2083A08A
:100350000DF0FEFC641C182CF4DB70BDBDE8704091
:10036000182181A00DF0F4BC2DE9F041002588B0E2
:1003700007462E460DF08FF9854C10F0FF0FA8466A
:1003800051D0052283A138460DF0AEF900287DD06A
:10039000042282A138460DF0A7F9002877D038460C
:1003A0000DF0BBF9461E0C2E72DA202138460DF0F6
:1003B00068F9070007D0781C0746FFF7B5FE04EB85
:1003C000061101250861202138460DF05AF9070071
:1003D00007D0471C3846FFF7A7FE04EB06116D1C3B
:1003E0004861202138460DF04CF9070007D0471C22
:1003F0003846FFF799FE04EB06116D1C8861202139
:1004000038460DF03EF930B1401CFFF78DFE04EB8D
:1004100006116D1CC861042D77D062A001F011FB9C
:1004200008B0BDE8F0816EA001F00BFB5FF00005A5
:1004300004EB0517386910F0FF4F2BD0691C73A02F
:10044000761C0DF085FC03A93869FFF7F5FE01461F
:1004500070A00DF07DFC03A97869FFF7EDFE014661
:100460006CA00DF075FC03A9B869FFF7E5FE014625
:1004700068A00DF06DFC03A9F869FFF7DDFE0146E9
:1004800065A00DF065FC6D1C0C2D02E034E03DE034
:10049000E5E0CDDBCDF80880CDF804800025CDF86F
:1004A000008011E004EB0517009879690DF042F91E
:1004B0000090B96901980DF03DF90190F969029831
:1004C0000DF038F96D1C0290B542EBDB54A001F041
:1004D000B8FA574E00246D4655F8240020F000402D
:1004E000B04201DD53A000E053A001F0AAFA641C61
:1004F000032CF1DB44A091E70020414604EB0012FD
:10050000401C11610C28F9DB8AE7A3E02021384662
:100510000DF0B7F8002883D0401C06460DF0BBF85C
:10052000464DC7B2002400BF55F8241031B13A46F9
:1005300030460DF0D9F810B1641CF5E780E081E099
:10054000000080BF0000204120BCBE4C2E000000F7
:100550006F12033A00007A44E408002061757820A5
:1005600025752025750D0A00496E76616C69642039
:100570004665617475726520696E6465783A206DB0
:10058000757374206265203C2025750D0A000000FB
:100590002C04002072657365740000006C6F616448
:1005A0000000000057726F6E67206E756D62657295
:1005B000206F6620617267756D656E74732C206E96
:1005C00065656473206964782074687220726F6C4A
:1005D0006C207069746368207961770D0A000000EF
:1005E000437573746F6D206D697865723A200D0ADA
:1005F0004D6F746F720954687209526F6C6C0950B8
:1006000069746368095961770D0A00002325643A0B
:10061000090000002573090025730D0A0000000081
:1006200053616E69747920636865636B3A090000F1
:100630000AD7233C4E4709004F4B0900DCED000868
:10064000F3A0EBE6204602F0C7FE55F82410F6A012
:100650000DF07EFBAFF2B800FFF786FEE0E60C215E
:10066000F6A00DF075FBDBE6F0B5FEA187B00646FF
:10067000D1E90001CDE9050130460DF00CF8FB4D44
:1006800010F0FF0F0ED00522AFF2F80130460DF04A
:100690002BF8002832D00024F5A130460DF002F8E6
:1006A0006E464AE0F3A00DF053FB0024611CAFF24C
:1006B000A4000DF04DFB04EB840005EB4006F8A010
:1006C00036F9821F0DF044FBB6F90410F4A00DF0CA
:1006D0003FFBB6F90210F2A00DF03AFB96F90610B6
:1006E000EFA00DF035FBD4A00DF032FB641C082CFC
:1006F000DCDBD1A00DF02CFBEAA025E0002005AA50
:100700004FF47F734FF4FA6440F2DC5600EB800143
:1007100005EB410121F8823F4C808E80175C401C24
:100720008F710828F2DBE3E50CF0F7FF46F82400B0
:10073000CFA10020641C0CF0B5FF10B1052CF3DB39
:1007400001E0052C03D0DE480DF002FBD0E5009956
:10075000491E072931D801984FF4617290422CDB71
:10076000034640F63400834227DC039B934224DB9C
:10077000834222DC029B93421FDB1A4683421CDC2D
:10078000049810F1640F18DB642816DC0198984275
:1007900013DC1046039A90420FDC0091DDE9000162
:1007A00000EB800005EB400020F8821F0399418098
:1007B000029981800499817102E0C2480DF0C8FA63
:1007C000B6A0FFF751FF93E52DE9F04188B08046D0
:1007D00000240CF060FFBC4D10F0FF0F1BD0052271
:1007E000AFF2502140460CF07FFFA04E00284BD0C6
:1007F0000422AFF2582140460CF076FF002855D075
:100800000922B2A140460CF06FFF6F46002871D05C
:1008100097A14046F5E0B0480DF09AFAAF480DF0C8
:1008200097FA0026C6EBC600441994F8D20048B3E4
:10083000711CAFF228200DF08BFA14F8D01F98A08D
:10084000491C0DF085FA617895A0491C0DF080FADD
:1008500094F9021092A00DF07BFAE17890A00DF0CF
:1008600077FA94F904108EA00DF072FA94F905103D
:100870008BA00DF06DFAA17999A00DF069FA761CA4
:10088000102ECFDB6CA0BAE18F487021D0300CF075
:10089000C3FE00204FEA000100EB800206EB42029B
:1008A000401CA2F88A100828F6DBB9E52021404652
:1008B0000CF0E7FE0028F8D0401C06460CF0EBFEDA
:1008C000894DC7B2002400BF55F8241031B13A4613
:1008D00030460CF009FF18B1641CF5E74CA08EE11E
:1008E000204602F04DFD55F824104FA00DF030FACF
:1008F00080E1FFE7202140460CF0C3FE80460CF06B
:10090000CAFE10F0FF0F4FF0010502D058A140467B
:1009100039E076480DF01CFA75A00DF019FA0024A4
:10092000611C74A00DF014FA641C0C2CF8DB42A0BE
:100930000DF00EFA0024B046611C70A00DF008FA0C
:1009400004EB8401002608EB410700BFB7F88A00DA
:1009500005FA06F1084201D069A100E05DA169A095
:100960000DF0F6F9761C0C2EF0DB33A00DF0F0F94B
:10097000641C082CE0DB53E50CF0CFFE47F82400A4
:100980003BA10020641C0CF08DFE10B1032CF3DBA6
:1009900001E0032C01D05DA031E10098401E072842
:1009A0000AD80199012907DB0C2905DC0299491CA9
:1009B00009D00299012906D063A00DF0C9F943A01E
:1009C000FFF702FF2CE500900198401E019002986D
:1009D000019A401C009805FA02F500EB800006EB36
:1009E000400030F88A1F02D0A9430180E7E729437D
:1009F000FBE700BF0CF091FE47F824001CA100208B
:100A0000641C0CF04FFE10B1082CF3DBB0E0ADE03D
:100A1000496E76616C6964206D69786572207479BD
:100A200070652E2E2E0D0A004C6F616465642025C2
:100A300073206D69782E2E2E0D0A00004D6F746F95
:100A400072206E756D626572206D757374206265BB
:100A5000206265747765656E203120616E642025A3
:100A6000640D0A001E1E646464646464E40800206B
:100A700020000000736572766F20736572766F5F79
:100A80006E756D626572096D696E096D6964646C7D
:100A900065096D617809726174650D0A00000000D6
:100AA00025640900526573657420736572766F73EF
:100AB0003A20736572766F2072657365740D0A0053
:100AC000F4080108780801082C04002064697265A4
:100AD0006374696F6E000000A009010840090108F5
:100AE00025640D0A00000000DCED0008280801085C
:100AF00073000000096925640000000025640000FF
:100B000072000000092573202000000057726F6EEC
:100B100067206E756D626572206F66206172677501
:100B20006D656E74732C206E6565647320736572D9
:100B3000766F20696E70757420646972656374697C
:100B40006F6E0D0A000000004552523A2057726F36
:100B50006E672072616E676520666F7220617267D2
:100B6000756D656E74730D0A00000000082C01D0CD
:100B7000FD4844E00098401E10283ED2019900290B
:100B80003BDD082939DC0299012936DB0C2934DCEC
:100B9000039911F1640F30DB64292EDC04990029DC
:100BA0002BDBFF2929DC0599002926DB642924DCBD
:100BB0000699002921DB64291FDCDDE90512914239
:100BC0001BDA0799002918DB032916DCC0EBC000EB
:100BD00001992844491E00F8D01F0299491E41700E
:100BE000039981700499C170059901710699417149
:100BF00007998171AFF25C10E2E6AFF2B4000DF03C
:100C0000A7F80DE410B5D9A000F01BFF012001F0FA
:100C1000C4FADDA000F015FF0A2009F0D3FCBDE8FE
:100C20001040002009F016BD7CB504460D46007941
:100C30000021062814D2DFE800F003060A0D111F78
:100C4000A06801780CE0A06890F9001008E0A068A6
:100C5000018805E0A068B0F9001001E0A068016813
:100C6000AFF268100DF074F8002D04D0D4E903122F
:100C7000C9A00DF06DF87CBDA06869460068FFF75B
:100C8000DBFA0146C6A00DF063F8002DF3D0E06852
:100C90000CF024FE6946FFF7CFFA0146C1A00DF023
:100CA00057F820690CF01AFE6946FFF7C5FA0146AD
:100CB000BCA00DF04DF87CBDBBA000F0C2BE2DE97C
:100CC000F04786B00020FFF7F7FFC3A00DF040F813
:100CD000B0A0FFF71CFBCC4DCC49687901EB80003C
:100CE00050F8041CCAA00DF033F8286910F0FF4F2B
:100CF00050D0DFF828A3002405EB0410066916F095
:100D0000FF4F43D0D0E90589C769611CC4A00DF02D
:100D10001FF8564503D3AFF2A8200DF019F802A929
:100D20003046FFF789FA01469DA00DF011F85646AE
:100D3000B04503D3AFF2C8200DF00AF802A940462F
:100D4000FFF77AFA014696A00DF002F8B14503D3F9
:100D5000AFF2E4200CF0FCFF02A94846FFF76CFA62
:100D600001468FA00CF0F4FFB74203D3AFF200307E
:100D70000CF0EEFF02A93846FFF75EFA0146AFF22B
:100D800068700CF0E5FF641C0C2CB5D3611CA6A0A8
:100D90000CF0DEFF95F8D200A946002836D00025D9
:100DA0004FEA0906C5EBC500841994F8D20048B390
:100DB000691CA2A00CF0CCFF14F8D01FA2A0491C03
:100DC0000CF0C6FF6178A0A0491C0CF0C1FF94F99B
:100DD00002109DA00CF0BCFFE1789BA00CF0B8FFC6
:100DE00094F9041098A00CF0B3FF94F9051096A0A4
:100DF0000CF0AEFFA179AFF218300CF0A9FF6D1C1A
:100E0000102DCFD3691C91A00CF0A2FF0026DFF8B3
:100E10005082012506EB8601002408EB410700BF44
:100E2000B7F88A0005FA04F1084204D0621C711C6C
:100E30008CA00CF08DFF641C0C2CF1D3761C082EBA
:100E4000E8D300244FEA080604EB840006EB4000D8
:100E500090F98820B0F98410CDE90012B0F98630FD
:100E6000B0F98220611C86A00CF072FF641C082C73
:100E7000EAD301F0C3F9654E0024074616F1640673
:100E800056F8241021B184A00CF062FF641CF7E72F
:100E90005FF0000456F8241041B105FA04F038421E
:100EA00002D081A00CF054FF641CF3E7824B0020B9
:100EB00002AA49460D181C5C95F88251401C08286E
:100EC0005455F7D30021115411467CA00CF040FF7B
:100ED0007D4D002404EB840005EB800655F82010BE
:100EE0007AA00CF035FF00213046FFF79DFE25A0CB
:100EF00000F0A7FD641C8A2CECD306B0BDE8F08797
:100F000010B575A000F09DFD0121002000F03DFF0F
:100F100074A000F096FD0A2009F054FBBDE81040D3
:100F2000002009F097BB10B5044672A000F089FDBF
:100F30007648774A002101705160117002F065F91E
:100F40002046BDE81040DBE72DE9F04706460CF0EF
:100F5000A2FB054601F052F9DFF8B08007464FF0DA
:100F6000010908F16408D5E0080A010852657365B3
:100F70007474696E6720746F2064656661756C7443
:100F8000732E2E2E0D0A00005265626F6F74696E0B
:100F9000672E2E2E0000000020256420256400000E
:100FA00025730000202573004166726F33322043A1
:100FB0004C492076657273696F6E20322E33204A59
:100FC000756C2031312032303135202F2031343AC8
:100FD00030343A303100000043757272656E74200F
:100FE000436F6E6669673A20436F70792065766556
:100FF00072797468696E672062656C6F77206865C6
:1010000072652E2E2E0D0A002C040020DCED000847
:101010006D697865722025730D0A000000008080DC
:10102000636D697820256400636D697820256420EC
:10103000302030203020300D0A000000736D6978B8
:10104000202564200000000025642000736D69786D
:1010500020256420302030203020300D0A00000090
:10106000E4080020736D69782064697265637469AF
:101070006F6E202564202564202D310D0A000000AC
:10108000736572766F2025642025642025642025F1
:10109000642025640D0A0000666561747572652020
:1010A0002D25730D0A000000666561747572652058
:1010B00025730D0A000000007CFA00086D617020A5
:1010C00025730D0A00000000B4EF0008736574205A
:1010D0002573203D20000000536176696E672E2E37
:1010E0002E0000000D0A5265626F6F74696E672EE4
:1010F0002E2E00000D0A4C656176696E6720434C08
:1011000049206D6F64652E2E2E0D0A00FC03002011
:101110000000002055B12A46F5A130460CF0E4FA53
:10112000C8B1307800272D2823D025E0F2A000F0A8
:1011300088FC00244D46464656F8241041B105FA75
:1011400004F0384202D0F1A00CF002FE641CF3E778
:10115000AFF2D0101DE0EEA000F073FC0024454675
:1011600055F824100029F3D0E8A00CF0F1FD641C20
:10117000F6E701276D1E761C5FF0000458F8241076
:1011800031B12A4630460CF0AFFA30B1641CF5E7B5
:10119000E5A0BDE8F04700F054BC09FA04F01FB127
:1011A00001F027F8E7A002E000F050FEE8A000F010
:1011B00048FC58F82410AFF20810BDE8F0470CF0D6
:1011C000C7BD10B506F0D7FB401C04D0E3A0BDE8B6
:1011D000104000F036BCE9A0F9E770B50024F1A09A
:1011E00000F02FFCF54D00BF04EB440005EB80013F
:1011F0004A6855F82010F2A00CF0AAFD641C122CCD
:10120000F2D370BD3EB505460CF045FA08281DD155
:101210000024285D0CF0BEF92855641C082CF8D376
:101220000024E948295D0CF02CFA28B12819295D21
:10123000401C0CF026FA18B1E4A000F002FC3EBD00
:10124000641C082CEDD3284600F0E3FCE7A000F076
:10125000F8FBDD4BEB4A0020694615181C5C95F83D
:101260008251401C08284C55F7D300220A54AFF293
:10127000C0100CF06DFD3EBD2DE9F04180460CF034
:101280000AFAE14DDF4E070010D0024698A1404611
:101290000CF02AFAA0B1002455F82410F9B13A460E
:1012A00040460CF021FA00B3641CF5E7707905EBB9
:1012B000800050F8041CBDE8F041D4A00CF048BDFB
:1012C000D7A000F0BEFB002455F8241021B18FA058
:1012D0000CF03EFD641CF7E7AFF2583001E0AFF6CA
:1012E000D000BDE8F04100F0ACBB601C707155F857
:1012F0002410D0A00CF02CFD7079082801D00E2805
:1013000010D1D1483221002280F8261080F8202008
:101310001E221423027183732D2404768176C271F8
:101320004374C476BDE8F0812DE9F04100250746FD
:101330002C462E460CF0AFF910B184A138460FE0D0
:10134000C2A02AE016B1012E07D103E00CF0E5F9A6
:10135000054602E00CF0E1F904467CA10020761C71
:101360000CF0A0F90028EDD10C2D05D3BDE8F0411B
:101370000C21C5A00CF0ECBCCD4F022E07DA37F9DA
:1013800015202946BDE8F041CAA00CF0E1BCA4F547
:101390007A70B0F57A7F04D9CCA0BDE8F0410CF0AA
:1013A000D7BC22462946D2A00CF0D2FC27F8154023
:1013B000B8E770B505460CF06EF9924C10F0FF0FCF
:1013C0000CD028460CF0A9F902280ED884F8B404F1
:1013D0000021084600F0D9FC46A0EBE794F8B414CD
:1013E000BDE87040C9A00CF0B3BC70BD2DE9F0475A
:1013F00082460CF050F9714D060005F1D80529D050
:10140000012E03D19AF800002A2823D0C5A1504606
:101410000CF019F900286AD0401C04460CF07DF944
:1014200081462046FEF780FE8046002606EB8607B2
:1014300005EB870455F827000CF02DF9024655F806
:10144000271050460CF050F9F0B1761C8A2EEDD3DF
:10145000B5A08CE1BCA000F0F4FA002404EB8400F9
:1014600005EB800755F82010AFF29C300CF070FCB3
:1014700031463846FFF7D8FBAFF2F84000F0E1FA0A
:10148000641C8A2CEAD339E506EB860605EB860751
:10149000F8680CF023FA41460CF05CFA26D838695B
:1014A0000CF01CFA41460CF05FFA1FD83979052977
:1014B00007D0484606290ED2DFE801F005050808E6
:1014C0000B0B4046F6E7A168087004E0A1680880AD
:1014D00001E0A168086055F82610A1A00CF038FCC6
:1014E0002046BDE8F0470021FFF79EBB3EE142E108
:1014F0006C69737400000000456E61626C65642065
:1015000066656174757265733A200000257320006A
:10151000417661696C61626C6520666561747572A3
:1015200065733A2000000000496E76616C696420A2
:1015300066656174757265206E616D652E2E2E0D67
:101540000A00000044697361626C65642000000059
:10155000456E61626C65642000000000456E61624A
:101560006C696E67204750532070617373746872A2
:101570006F7567682E2E2E0D0A0000004572726F7F
:10158000723A20456E61626C6520616E6420706CF9
:10159000756720696E204750532066697273740D19
:1015A0000A000000417661696C61626C6520636FBE
:1015B0006D6D616E64733A0D0A000000DCEE000888
:1015C00025730925730D0A007CFA00084D757374A4
:1015D00020626520616E79206F72646572206F668B
:1015E0002041455452313233340D0A004375727232
:1015F000656E742061737369676E6D656E743A20F1
:10160000000000002C040020DCED0008437572721D
:10161000656E74206D697865723A2025730D0A0035
:10162000417661696C61626C65206D697865727381
:101630003A2000004D697865722073657420746FDC
:101640002025730D0A000000E4080020557361672F
:10165000653A0D0A6D6F746F7220696E646578204B
:101660005B76616C75655D202D2073686F77205BFC
:101670006F72207365745D206D6F746F7220766178
:101680006C75650D0A0000004E6F2073756368204D
:101690006D6F746F722C207573652061206E756D8F
:1016A000626572205B302C2025645D0D0A0000000D
:1016B000640A00204D6F746F7220256420697320C6
:1016C0007365742061742025640D0A00496E76618B
:1016D0006C6964206D6F746F722076616C75652C17
:1016E00020313030302E2E323030300D0A000000E4
:1016F00053657474696E67206D6F746F7220256412
:1017000020746F2025640D0A00000000437572727A
:10171000656E742070726F66696C653A2025640D81
:101720000A0000003D0000004552523A20556E6B01
:101730006E6F776E207661726961626C65206E6192
:101740006D650D0A0000000043757272656E7420AD
:1017500073657474696E67733A200D0A00000000A7
:1017600025732073657420746F200000BDA0BDE850
:10177000F04700F066B9002404EB8406514655F8A2
:1017800026000BF060FF78B155F8261005EB8607B0
:10179000AFF2C4600CF0DCFA00213846FFF744FADF
:1017A000AFF620000CF0D4FA641C8A2CE4D36AE66D
:1017B0002DE9F04108F05FFE4FF47A71B0FBF1F1D2
:1017C000B2480378B2480288B2A00CF0C1FA00F027
:1017D00005FD0646BF48C0490068B0FBF1F2C049AC
:1017E000BE48096850F82110BEA00CF0B1FABB4FFA
:1017F00000240125B7F1400757F8241051B105FA2C
:1018000004F0304203D0AFF2FC200CF0A1FA641CCB
:10181000E4B2F1E7022000F0CFFCA0B1BC4CAF482D
:101820002178203850F82110BAA00CF091FA2078D5
:10183000022808D1BA48007D08B16F2100E06E216E
:10184000B8A00CF085FAAFF6C40000F0FAF808F082
:10185000A4FA0246B4484FF497630188BDE8F0410A
:10186000B2A00CF075BA2DE9FF5FDFF8F49299F899
:10187000000040B9012189F80010BAA000F0E1F899
:10188000C6A000F0DEF8DFF81CB3DFF894A25446DF
:10189000DAF800000AF019FB00286FD020680AF07F
:1018A00017FB092807D03F2805D0D9F804104C466B
:1018B000002950D051E00024884F2546103707F109
:1018C000D808D9F804600BE0D9F8042022B1B54853
:1018D00039680BF009FF10B904B93C463D460C3796
:1018E0004745F1D39CB149465F46486822682B685A
:1018F000125C1B5C9A420AD19AB92E2811D220227E
:101900003A54401C0021C9F804000BF80010D9F823
:1019100004004F4608B1AC4214D0A3A000F091F8E7
:101920000AE03A54401C4860DFE7206800F089F87C
:10193000092000F092F80C34AC42F6D997A000F0E0
:1019400080F800265C4678688642A0D2A05D00F050
:1019500084F8761CF7E7042811D00C2815D019B1AB
:101960000A2816D00D2814D07F283ED030298ED2D8
:1019700020288CD37E288AD8B1B345E04CE004B04F
:101980008848BDE8F05FFFF7CEBA89A000F059F8AB
:1019900028E0AFF6102000F054F8606800254F49A9
:1019A0000BF800508548CDE9000B5E460C2312224F
:1019B0001031029501A80BF0F3FD070007D038683D
:1019C0000BF069FE3044B968401C884702E07CA0F7
:1019D00000F037F8302173480BF01EFE6560207868
:1019E000002819D06DA00AE00CE000293FF44FAFA9
:1019F000491E0020C9F804100BF8010079A000F07E
:101A000020F844E72028FCD00BF80100491CC9F855
:101A1000041000F022F83AE7BDE8FF9F30B5144605
:101A20000546A04204D3B5FBF4F0FFF7F7FF0146EB
:101A3000B5FBF4F004FB10506BA2105C0870481C5E
:101A400030BD70B50446364D03E0641C28680AF0CA
:101A50002DFA21780029F8D170BD01463048006880
:101A60000AF024BA4552523A2056616C75652061DD
:101A7000737369676E6D656E74206F7574206F6621
:101A80002072616E67650D0A00000000940100205D
:101A9000F800002053797374656D20557074696D7A
:101AA000653A202564207365636F6E64732C20563D
:101AB0006F6C746167653A202564202A20302E31CE
:101AC0005620282564532062617474657279290D4B
:101AD0000A000000C403002040420F00CCEE0008C2
:101AE000C800002048617264776172653A202573EE
:101AF00020402025644D487A2C2064657465637409
:101B000065642073656E736F72733A200000000085
:101B1000C001002041434348573A2025730000008C
:101B2000140A00202E256300EC0000204379636C2A
:101B3000652054696D653A2025642C204932432084
:101B40004572726F72733A2025642C20636F6E6643
:101B500069672073697A653A2025640D0A000000E0
:101B6000000000200D0A456E746572696E6720439F
:101B70004C49204D6F64652C207479706520276571
:101B80007869742720746F2072657475726E2C20CA
:101B90006F72202768656C70270D0A000D0A2320DC
:101BA00000000000FC0300200D1B5B4B0000000048
:101BB0001B5B324A1B5B313B31480000F5020008D9
:101BC0004552523A20556E6B6E6F776E20636F6D83
:101BD0006D616E642C20747279202768656C7027A3
:101BE0000000000008200800303132333435363729
:101BF00038394142434445464748494A4B4C4D4E8B
:101C00004F505152535455565758595A00000000DE
:101C100070472DE9F04105460446FE4EFE4F09E0AF
:101C2000FC480BF02EFD20B1611B801B384480F86E
:101C30008211641C21780029F2D1BDE8F081F748B7
:101C4000002102784B2A13D14288B2F5976F0FD149
:101C50000279BE2A0CD190F8B624EF2A08D100F5FB
:101C6000976200BF10F8013B59409042FAD309B186
:101C7000002070470120704710B5FFF7E0FF10B952
:101C80000A2008F0AAFC4FF49762E449E2480BF0FE
:101C9000AAFCE14890F8B414022902D9002180F886
:101CA000B414C9B200EB0121BDE810404FF48072BA
:101CB000DB4801F5DA710BF096BC2DE9F05FD84AEC
:101CC000D84E002092F8201092F81F4040F6C4151C
:101CD00000FB00F3193B4B4303F6C4134343634338
:101CE00093FBF5F326F81030401CC0B20728EFD361
:101CF000C94B914692F8212099F82240B3F842113D
:101D0000B3F840710020DFF820A34FF00A0B4FF426
:101D10007A7EC4F1640802EB820CCD1B00EB8001DB
:101D2000C2EB41030121002B03DDC2F16401C9B202
:101D300001E000DA114603FB03F604FB06F601FBA3
:101D400001F196FBF1F1414401FB03F191FBFBF141
:101D500001EB4C0109B205FB01F191FBFEF13944A5
:101D60002AF8101000F10100C0B20C28D6D399F85F
:101D7000000002F0F5FABDE8F05F04F049BD10B5CF
:101D8000FFF77AFFBDE8104097E72DE9F047A24C36
:101D900081464B2020704FF497656580BE20002659
:101DA0002071EF2084F8B60484F8B76451B194F838
:101DB000B4044FF4807204EB0020994900F5DA7006
:101DC0000BF011FC9448964903E000BF10F8012B7A
:101DD00056408842FAD384F8B7640BF093FADFF8E0
:101DE0004CA28E4F0326A84634200BF0F9FA384651
:101DF0000BF0B6FA50460BF0B3FA002506E0615935
:101E0000E8190BF0C9FA2D1D454502D20428F6D079
:101E100001E0042804D0761EE6D10BF079FA04E044
:101E20000BF076FAFFF70BFF10B90A2008F0D5FB8C
:101E3000FFF7A5FFB9F1000F06D0BDE8F04701227A
:101E400014210F2001F028BEBDE8F08772498A688E
:101E500002438A60704770490020886070472DE90E
:101E6000FC5F73A1D1E90001CDE900014FF4976156
:101E700069480BF0D1FB4FF4807169480BF0CCFB43
:101E8000654B4B20002518700320587102209D607F
:101E9000FFF7DCFF83F8B4544FF41670A3F8620127
:101EA000FA20A3F864012A20A3F86001A3F86A517C
:101EB000A3F86C51A3F86E5183F8535183F8545131
:101EC00083F85551A3F85651A3F85851A3F85A5125
:101ED00083F85D5183F85E514FF4FA70A3F86801FE
:101EE000012683F85C61202083F866014FF4C870F6
:101EF000A3F878016E2083F87D012B2083F87E0102
:101F0000212083F87F01232083F8800183F8815109
:101F100083F88A5183F88B5183F8AE5183F8AF511F
:101F200083F8B05140F2DC50A3F88E0140F24C40EF
:101F3000A3F8900140F26C70A3F8920183F89451D9
:101F400083F8956183F8966140F27E40A3F84001E2
:101F500040F23A70A3F842014FF47A70A3F84401BA
:101F600040F27E50A3F8460140F2EA50A3F848013F
:101F700040F2B450A3F84A013220A3F84C01C1004A
:101F8000A3F84E11A3F85001052183F8761183F8C8
:101F90009E5183F89F514FF4E131C3F8A4114FF4DF
:101FA0001651C3F8A81183F8AC5183F8AD5140F62F
:101FB000AC5199819D7383F8975140F6FF71184C8D
:101FC000A3F89A112827257067704FF01E0884F82F
:101FD0000B8017226275A77084F80C80A2755521BA
:101FE000E1702D216173E5752071A57325760B22B3
:101FF0006271E57365764FF0140984F80690082243
:102000002274A1760E22E27184F811905022E276B9
:102010005A2211E07CFA00082C04002000F8010884
:10202000E40800206C0C00207A0C002000FC010861
:102030001E1E64646464646422724FF00A0A84F8A9
:1020400012A04FF0640B84F81CB067727823A3725F
:102050002175A677E277412184F8201084F8255075
:1020600084F8265040F2DC51218584F8210084F860
:102070002250A585E58584F830506585042084F8D4
:10208000310084F8327084F83370152084F83400FD
:102090005C48A0635C48E0635C4820645C48606422
:1020A00084F84860192084F849005AA0FFF7B1FD70
:1020B00084F87A5084F87B5084F87C7084F87D60D2
:1020C00084F880504FF44870A4F87E00C82584F846
:1020D000D2A084F8D3504FF49660A4F8D40040F214
:1020E000D930A4F8D6004E4800216C4640F2DC53AB
:1020F0004FF47F764FF4FA6701EB810200EB420266
:1021000022F8826F5780938014F801C0491C82F82E
:1021100006C00829F0DB012100F8D81F417081704A
:10212000858080F8069080F807800172A0F80AB0D8
:102130004FF4967181812821C181A0F810900F2160
:1021400041828182C18240F26C710183438340F2FB
:10215000145181830821C1834FF07E51314D0162BA
:10216000522085F8B50400204FEA000105EB00126B
:10217000401C11610C28F9DB00244FF4807600BF6D
:1021800005EB04203246264900F5DA700BF02BFAF5
:10219000641C032CF4DBBDE8FC9F10B50446FFF77C
:1021A0004EFD641E204206D1FFF759FE0021BDE816
:1021B00010400846E9E510BD1B490968014201D0FD
:1021C000012070470020704717490A6802430A60DF
:1021D000704715490A6882430A60704712480068D0
:1021E000704710498968014201D0012070470020E2
:1021F00070470C498A6882438A6070470948806842
:10220000704700009A99193FF6287C3F3D0A773FB6
:102210000000A040414554523132333400000000E8
:10222000E40800202C0400200800002070B5F84DC0
:1022300095F8490044350BF05AFBF6490BF0D2FAF9
:102240000CF028F9F44E044630880BF050FB214680
:102250000BF0C8FA0CF0DCF9F04C608030880BF021
:1022600046FB0146EE480BF0EFFAEE490BF0ECFAB4
:10227000E066688F0BF03BFB0146EB480BF0E4FA9D
:10228000EA490BF0AFFA2067E94928680BF0AAFA8F
:1022900001464FF07C500BF0D7FA60670820FFF73B
:1022A0008BFF002803D0BDE8704003F043B970BD38
:1022B000002801DD024600E042428A4201DA0020A5
:1022C0007047002802DDA0EB01007047FDDA0844EA
:1022D00070472DE9F04F91B0D0E9004581468668FE
:1022E0000F4608680CF0D6F8049038680CF09CFC97
:1022F000059078680CF0CEF8834678680CF094FC72
:102300008046B8680CF0C6F88246B8680CF08CFCC1
:102310000746504604990BF065FA0990384604992F
:102320000BF060FA0890514605980BF05BFA0790A5
:10233000394605980BF056FA0690594650460BF070
:1023400051FA10908BF0004039460BF04BFA0746DB
:10235000414607980BF046FA08990BF0EBF9039009
:10236000414606980BF03EFA09990BF038FA82467E
:102370000598594680F000400BF034FA059041462C
:1023800009980BF02FFA06990BF029FA02904146B2
:1023900008980BF027FA07990BF0CCF906905846ED
:1023A00004990BF01FFA8346304602990BF01AFA93
:1023B0000090284603990BF015FA019020461099D9
:1023C0000BF010FA01990BF0B5F900990BF0B2F986
:1023D000C9F80000304606990BF004FA0090514607
:1023E00028460BF0FFF98246394620460BF0FAF9F1
:1023F00051460BF09FF900990BF09CF9C9F80400C5
:10240000594630460BF0EEF90646284605990BF082
:10241000E9F90546414620460BF0E4F929460BF060
:1024200089F931460BF086F9C9F8080011B0BDE80A
:10243000F08F2DE9F04387B080460BF058FA7D49C4
:102440000BF0D0F9054675489830016881F00041DD
:102450000391406880F0004004907748B0F9000094
:102460000BF03CFA75490BF0BDF96C4C05908A34C1
:10247000B4F900000BF032FA0090B4F902000BF04E
:102480002DFA0190B4F904000BF028FA029003A988
:102490006846FFF71EFF5E4E8A3C96F8480001280A
:1024A00004D05D4800880BF022FA17E064484078B9
:1024B0000028E06B0CD1C11700EB9161A0EBA110DB
:1024C0000BF00CFA02990BF035F90BF015FAE063FA
:1024D000C11700EB916080110BF000FA02990BF02C
:1024E0007EF90290216C89460BF076F90746294661
:1024F000606F0BF01FF9014628460BF0A5F939462D
:102500000BF070F949460BF015F9206400980CF0B7
:102510007FF896F833103236FFF7CAFE494D296826
:102520000844286001980CF073F87178FFF7C0FE3A
:10253000696808446860206C0CF06AF83178FFF72D
:10254000B7FEA9680844A860A16801EB0800A06074
:10255000E068401CE06007B0BDE8F0832DE9F05F63
:102560002E4D0446983528680BF094FF8346286862
:102570000CF05AFB824668680BF08CFF8146686855
:102580000CF052FB0546D4F80880294640460BF073
:1025900029F959460BF026F9676806465146384630
:1025A0000BF020F929460BF01DF905464946206835
:1025B0000BF018F929460BF0BDF831460BF0BAF8CC
:1025C0000446514640460BF00DF90546594638463B
:1025D0000BF008F929460BF0FFF821460BF02CFE12
:1025E00019490BF0FFF812490BF02EF90B49496B12
:1025F0000BF0A0F815490BF027F90CF009F800B220
:10260000002802DA00F5B47000B2BDE8F09F0000C7
:10261000E408002035FA8E3CC80100200C000020A0
:102620000AE81C4100401C46000061444C3D0F4438
:10263000DB0F4940BD378635F801002035FA8EBCE6
:10264000340C0020FC0900200000E144000020417F
:102650002DE9F041044680680D4601460BF0C2F8B2
:102660000746606801460BF0BDF806462068014643
:102670000BF0B8F831460BF05DF839460BF05AF81C
:102680000CF096FB064610F0FF4F0ED03146206846
:102690000BF0DAF82860314660680BF0D5F8686016
:1026A0003146A0680BF0D0F8A860BDE8F0812DE9B4
:1026B000F04F87B0002607F0C4FEDFF808B40546E7
:1026C0005C46DBF84400281A03900BF010F9FE4931
:1026D000C9680BF087F80590DFF8F0A36564002463
:1026E0009AF831700BF18A054FF07E58F5487E302C
:1026F00030F914000BF0F2F805990BF073F84DF86F
:10270000240027B338460BF0F2F8014640460BF0A0
:102710009BF881460490EB48843030F914000BF0AC
:10272000DDF849460BF05EF88146414604980BF00F
:1027300056F8E74951F824100BF054F849460AF0CE
:10274000F9FFE34941F824000BF0D6F803E0DD4837
:10275000843030F8140025F8140035F91400641C96
:1027600000FB0066032CC1DB64204643D948694660
:102770000088404396FBF0F4D5481830FFF7A9FDD8
:10278000D34EA0B2183649383C2826D2D24800246D
:10279000A946B0F862010BF0AAF8454641460490FC
:1027A0000AF0C8FF014628460BF04EF84FEA000534
:1027B00039F914000BF092F8074656F824100498E3
:1027C0000BF010F839460AF0B5FF29460BF00AF86D
:1027D00046F82400641C032CEADB5D46BBF90200CA
:1027E0000BF07CF83446B1680BF0B4F801D201204C
:1027F00000E00020B949A1464873D4E901010BF07B
:102800001BFDB04E98363060A06801460AF0EAFF22
:102810000746606801460AF0E5FF39460AF08AFF7C
:102820000CF0C6FA0146206880F000400BF004FD71
:10283000AB4F7060394630680AF0D4FF0BF0E8FE09
:10284000A6F160043946208070680AF0CBFF0BF0D7
:10285000DFFE60800820FFF7AFFCDFF888B20028B9
:1028600069465CD09A480C38FFF733FD9A48984F78
:10287000002446460C3FB0F864010BF038F83146AE
:1028800004900AF057FF014630460AF0DDFF064685
:102890008C48903030F914000BF020F8804657F83F
:1028A000241004980AF09EFF41460AF043FF314687
:1028B0000AF098FF47F82400641C032CE8DB8448E6
:1028C000B0F10C00FFF74AFEABF800000398FFF7E9
:1028D000B0FD9AF88000564600284AD0D9F8080082
:1028E0004C4601460AF07EFF8046606801460AF0C9
:1028F00079FF0746206801460AF074FF39460AF05E
:1029000019FF41460AF016FF0CF052FA0146A06882
:102910000AF09AFF744988420DDC002028E06948DB
:10292000A030FFF7D6FC6749A0310846FFF790FEBC
:102930006448A030C6E70BF0F1FB296F0AF052FFA4
:102940000BF066FE4FF46171884200DD08460AF024
:10295000C5FF66490AF078FF0CF066F9044696F860
:1029600080000AF0C4FF21460AF03CFF0BF050FE45
:10297000A88007B05BE510B502F0D3FD0220FFF799
:102980001BFC20B102F0FAFCFFF791FE05E04D4977
:10299000002084310880488088804F484949427926
:1029A0007E31881F012A06D08A8882800A880280A8
:1029B0004988418010BD434BB1F90420B3F906406A
:1029C00002EB4402032492FBF4F28280DA80EDE70A
:1029D0003F4900200C310860486088603949C86070
:1029E000886070472DE9FE4F07F02BFD0246354801
:1029F0003830B0F90010002901DD0B4600E04B42F1
:102A0000B0F90200002801DD044600E04442A34280
:102A100005DD002901DD084604E0484202E0002807
:102A200000DC4042274C05B246F2A811A06CA2EB94
:102A30000009894502D20020BDE8FE8F2C4EA26419
:102A4000DFF8B0A03088DFF8B0B0204F4FF07E58EC
:102A500040B3206E2269C11700EB5171A0EBE10079
:102A600097F83410491EB2FBF1F10844C1172066F3
:102A700000EB5170C0100AF031FF51460AF0E4FE3D
:102A800059460BF0DFFD41460AF0A9FE1B490AF04A
:102A9000A9FE0AF031FFE0650020206560653088FE
:102AA000401E3080094F216997F83400401EB1FB69
:102AB000F0F00AF01CFF51460AF0C6FE59460BF032
:102AC000C1FD1DE00C000020740E0020E408002071
:102AD000F0090020C80100202C040020340C002044
:102AE0004C3D0F44F80100208FC2753CEFB6B04456
:102AF000F601002080E6C547B1DC423ED048874A57
:102B00004FF07E5841460AF06AFEAD490AF06AFE6F
:102B10000BF07EFDE16DBF6B461A394640460AF068
:102B20005BFE804630460AF0D9FE41460AF05AFE66
:102B3000064660690AF0D2FE39460AF053FE314675
:102B40000AF0F8FD0BF064FD06464FF0FF3B6061B4
:102B5000FA2D01DD584613E028460AF0BFFEDFF8E3
:102B6000648241460AF03BFE0746206A0AF0B6FE40
:102B700039460AF037FE41460AF066FE0AF0BCFE0E
:102B8000A0F1010807462062B8F1C70F03D2F01B7D
:102B90006761E06126E0E069361A6661002F21DD99
:102BA000C7F596700AF09AFE87490AF04DFE8246F4
:102BB000A06151464FF07E500AF00EFE0090304664
:102BC0000AF08CFE00990AF00DFE064638460AF01F
:102BD00085FE51460AF006FE31460AF0ABFD0AF0CA
:102BE0008BFE6061A0680AF082FE074677490AF012
:102BF000F9FD0646E0680AF071FE82467448806876
:102C00000AF06CFE51460AF01FFE8246E16E0AF0A1
:102C1000E9FD39460AF0E6FD0090206D314601904D
:102C20000AF0E0FD0746594600980AF04BFE31468F
:102C30000AF0D8FD39460AF07DFD616D0AF07AFD93
:102C400083466448076C4FF07E5039460AF0C4FD55
:102C50000646606902900AF041FE31460AF0C2FD64
:102C60000646394658460AF0BDFD31460AF062FD77
:102C70006065B8F1C70F01D2029801E00AF03CFE8E
:102C80006066DDE900100AF055FD2065FFF7A0FE43
:102C900048460AF02CFE07466669A06D301A0AF015
:102CA0001DFE4D490AF09EFD39460AF0CDFD0AF0A1
:102CB00023FE40F2DC525142A66505F0C9F80A2114
:102CC000FFF7F6FA434E81464FF07E50D6F83C802F
:102CD00041460AF081FD074648460AF0FFFD3946A5
:102CE0000AF080FD07464146206D0AF07BFD39461B
:102CF0000AF020FD20650BF08BFC07460521FFF74D
:102D0000D7FA2063B5F5487F57DA20784FF49678E4
:102D1000C8F10009C8B3A06A4246C51BB07A68432F
:102D2000C11700EBD1604011494605F091F860628F
:102D3000307DE16A294A00FB05105142E06205F04E
:102D400087F842F20401E06290FBF1F0616A084406
:102D500060625046E16C0AF0EDFC0546B07F0AF077
:102D6000C6FD29460AF03EFD6FF008010AF0AAFDF3
:102D70000AF0C2FD9622514205F06AF8616A081A0B
:102D8000C4F84CA06062012056E6FFE7D4E91910B0
:102D9000401A4FF4FA72514205F05AF80A21FFF72F
:102DA00087FA0146307942464843C11700EB51602B
:102DB000C011494605F04CF8AEE70020E0E70000FE
:102DC000D048874A000061440000C842BD378635BC
:102DD000FC090020E40800200024744920031900A5
:102DE00070B5D84D0446286809F078F80028FAD064
:102DF000E1B2286809F05AF8204670BD88B0FEF7A5
:102E000007FF0020FFF7C9F9FEF736FFCE4CA07B85
:102E100000B1012009F083FBCC48CD49CD4D0068BD
:102E20000126884201D12E6004E0CB49884201D1BD
:102E30000220286007F037FB0820FFF7D2F930B1F5
:102E400094F88A0108B1012801D104F0CEFE642073
:102E500007F0B8FBFEF731FF08F02FFC022802D183
:102E6000286802281ED02868032802D0012006F016
:102E70008BFD94F88101002528B1012815D009287F
:102E800013D0052811D08DF8185084F8815100BF57
:102E900094F8980198B101280AD0092808D005288B
:102EA00006D00CE003202860E3E78DF81800EFE778
:102EB00094F88111884202D08DF8190003E08DF852
:102EC000195084F8985106A806F03AF90220FFF745
:102ED00088F908B102F028F904F0C2FF0E20FFF7CC
:102EE00073F901F0B9FF10B9032007F076FB9B4995
:102EF0004FF0100AC1F800A0A1F104084FF0080932
:102F0000C8F800900027A8F1040B00BFDBF8001000
:102F100081F01001CBF80010DBF8001081F00801FF
:102F2000CBF80010192007F04DFB012007F0A6FA9E
:102F3000192007F047FB002007F0A0FA7F1CFFB222
:102F40000A2FE3D34F46C8F80090C8F800A0FFF757
:102F50006DF900F072F9D4F8A40102F094FC6079E4
:102F60000E280BD0082809D0182807D08DF8065055
:102F70004FF48070FFF735F938B902E08DF806603C
:102F8000F6E70820FFF72DF900B101208DF80200C7
:102F90004020FFF726F98DF803000120FFF721F903
:102FA0008DF801000820FFF71CF9DFF8988180F008
:102FB00001008DF80000DFF8A89198F816008DF850
:102FC000040099F8DA004FF47A7AC0F380008DF8A3
:102FD0000500B4F84E01ADF80A00B4F85001ADF8A0
:102FE0000C0094F852018DF80700ADF80EA04FF4D4
:102FF0008040FFF7F6F818B1B4F84A01ADF80E00BA
:10300000BDF80A00B0F5FA7F01D9ADF80E504FF4C3
:103010008030FFF7E6F88DF814004FF40030FFF72A
:10302000E0F88DF81500B4F88E01ADF81000B9F88D
:10303000D600ADF8120094F88101012826D00928A5
:1030400027D08DF80850684607F0BEF89DF81600A6
:1030500088F81700434B002040F2DE5223F810207E
:10306000401CC0B21228F9D340483F4A026088F899
:1030700015700820FFF7B5F810B394F88A010628F8
:103080001ED2DFE800F00A0A0E12161A8DF8086048
:10309000D9E707208DF80800D5E7344804F07DFD16
:1030A0000EE0324805F04FF80AE0304805F002F92A
:1030B00006E02E4805F005FD02E02C4805F0DAFF99
:1030C00094F89F0103F007FC0120FFF78AF830B164
:1030D0004FF48060FFF785F808B102F0B8FA40209D
:1030E000FFF77FF848B194F8AC11D4F8A80108F0C4
:1030F000FBFD94F8AD0108F00AFE4FF40060FFF705
:1031000070F808B105F06AFB07F09BF918490860F0
:103110006079052803D117494FF4C8700880164913
:10312000C820A1F800A015490880154880F80D6056
:1031300001F01EF9FCE70448B0F9440100F0F9F988
:10314000FEE70000140A00202C040020C803002021
:1031500000127A00C8000020001BB700140C0140C8
:10316000E4080020480C0020013F0008180100205E
:1031700014010020C4010020C6010020F601002037
:10318000340C0020014600EB8102FE4800EB4200B7
:10319000B0F98600122804DA082902DAFA4931F96E
:1031A00010007047F74A00EB800002EB400001225C
:1031B000B0F88A008A40104202D04FF0FF307047CA
:1031C0000120704770B5F14C002070216070F0480C
:1031D0000AF022FAEE4DEF49002000BFC0EBC00319
:1031E0005A1892F8D260002E0ED02B4452F8D06FAD
:1031F0001E6096889E8092799A716278401C521C5B
:10320000C0B262701028E9D370BD2DE9F041E04EE4
:103210000024E04D4FF48047D83E3846FEF7E1FFEA
:1032200010B1B5F84A0101E0B5F8440126F81400E0
:10323000641C0C2CF1DBBDE8F0812DE9F05FD54D6D
:10324000D54E687906EBC000407808B1012100E056
:103250000021DFF848A320208AF81610FEF7C1FFEE
:1032600010B101208AF816006979DFF82493C74C61
:10327000A9F1C00917290AD016F8312006EBC100C0
:10328000227040685FEA000B25D0002021E000207A
:103290004FEA090805EB0012136913F0FF4F1AD02B
:1032A000143208EB001692E8841008C6401C86E829
:1032B00084102278521C22700C28EBDB0BE000BF3C
:1032C0000BEB001609EB001396E8C01183E8C01160
:1032D000401C9042F4DB9AF81600E0B1AE48C830CA
:1032E00010F8312000EBC1006270416899B10020F4
:1032F000A74E0EE0C0EBC003CF183344D7F800C090
:10330000C3F800C0B7F804C0A3F804C0BF799F7128
:10331000401C9042EEDB4FF48040FEF762FFD8B1D4
:103320002778012F18D9002614E000BF09EB0614F6
:103330004FF0FF384146A0680AF0C4FAA060414649
:1033400060680AF0BFFA60604146E0680AF0BAFAC5
:10335000761CE060BE42E9DB68799149082808D014
:103360000E2806D0182804D000200874BDE8F05FAD
:103370004BE701220A741828F8D1FFF723FFF5E77D
:1033800070B500228349144610F10100C2EBC2035C
:103390000B44521C83F8D64083F8D24083F8D140C6
:1033A00083F8D040102AF1DB7B4B0022C83303EBBB
:1033B000C00413F830000CE0C2EBC2036568521C75
:1033C0001D440B442E6843F8D06FAE889E80AD79C3
:1033D0009D719042F0DC70BDF0B500216D4A0B4646
:1033E00010F1010002EB0114491C23610C29F9DBE7
:1033F000694B03EBC0014C68002C0FD0002113F87F
:10340000300009E004EB011302EB011593E8C8104A
:103410001035491C85E8C8108842F3DCF0BD5F48D0
:1034200010B5807D002872D0584C5A48A41C4079B1
:10343000E18822890E2836D008DC012817D004281C
:1034400026D005280DD0082806D127E014281FD043
:10345000152828D0182834D02020FEF7C2FE0028D6
:1034600055D02188002006F069FF61880EE04749A9
:103470004448891C90F8D900498908B1002042E0ED
:10348000474840780028F9D10021F7E701203AE0C9
:103490001146002006F052FF6189F7E7002006F090
:1034A0004DFF2189F2E7002006F048FF2189012025
:1034B00006F044FF6189022006F040FFA189032045
:1034C00021E0002006F03AFF2189012006F036FFB6
:1034D0006189022006F032FFA189032006F02EFF49
:1034E0000120FEF77EFE002811D02188042006F07E
:1034F00025FF6188052006F021FFA188062006F03F
:103500001DFFE1890720BDE8104006F017BF10BD80
:1035100070B51F4E0024F03E1C4D06E036F8141026
:10352000204606F004FF641CE4B228788442F5D3F8
:1035300070BD164A164B00211278F03B04E000BF24
:1035400023F81100491CC9B29142F9D3E0E72DE9F3
:10355000F04F134889B0807A08B1124800E0124851
:103560000188ADF800104188ADF802108088ADF8F0
:10357000040007480449F0380088ADF806000A89BD
:10358000044813E0E4080020480C0020CC00002090
:103590003C0B00202C04002058FF0008140A0020D7
:1035A000340C00208001002068010020B0F88E015A
:1035B000121AADF808204A89121AADF80A208A8931
:1035C000121AADF80C20CA89121AADF80E200A881A
:1035D000121AADF810204A88121AADF812208A8803
:1035E000121AADF81420C988081AADF81600002088
:1035F0000146FE4D894625F81010401CC0B208282F
:10360000F8D3DFF8E8A30024DFF8E4B3AAF1020A54
:1036100060E000BFF748C4EBC4010E18B27912B1E4
:10362000F54BD25C82B310F80180F44808EB8801B6
:1036300000EB410096F90420B0F88410B0F8820045
:103640007778081A80B24243642192FBF1F2A2EB30
:10365000500212B2079296F90520424392FBF1F113
:10366000A1EB500000B20690F07840B13BF9141085
:103670003DF91730994208DA08441A460AE03DF845
:1036800017102BF8141009E020E007DDA1EB000073
:103690000A46194604F0DCFB2BF814003946404674
:1036A000FFF780FD07463BF9141096F902004143ED
:1036B000642091FBF0F0DDE9062104F0C9FB35F947
:1036C000181007FB001025F8180001E02BF81490E3
:1036D000641CE4B29AF8010084429BD30023C74CD7
:1036E0005FF0640603EB830004EB400035F9131030
:1036F00090F98800484390FBF6F025F8130018462F
:10370000FFF740FD35F81310084425F813005B1C43
:10371000DBB2082BE6D309B0BDE8F08F2DE9F84FF6
:10372000B24CDFF8DCA2A41E2078032815D9BAF920
:1037300004004142002801DD024600E00A4602F191
:10374000640200DC0846AF4D6FF06301A1EB00019D
:10375000B5F9040004F07CFBA880A448A44D801EA9
:10376000DFF8988207782035012F3AD9002436E017
:10377000DFF8909298F9D800B9F904104042484314
:103780000AF0ACF89A49503101EB0416F1680AF0DE
:1037900029F80090B9F900000AF0A0F871680AF061
:1037A00021F88346B9F902000AF098F8B1680AF0E6
:1037B00019F88146BAF906000AF090F831680AF063
:1037C00011F8494609F0B6FF594609F0B3FF0099D0
:1037D00009F0B0FF0AF090F825F81400641CBC4210
:1037E000C6D3DFF82492894C99F8100058B199F8A3
:1037F0000100C8B1B4F84221B4F84011BAF906008A
:1038000004F026FB2880A2466079814F3226774C4F
:103810000E2812D00BDC01280FD004280DD005286B
:103820000ED0082825D108E0B4F84401EAE71428AE
:1038300003D0152801D018281BD1FFF788FE18E007
:1038400098F98800B7F90210C446484390FBF6F394
:103850000020FFF797FC184420809CF99200B7F9EC
:103860000010484390FBF6F30120FFF78BFC18444F
:1038700060802020FEF7B5FCC8B30020FFF782FC73
:1038800020800120FFF77EFC5B4960801439097AB3
:1038900069B398F8DA20920798F9882016D5B7F915
:1038A000023098F99210B7F9007052425A437943A6
:1038B00092FBF6F391FBF6F792FBF6F291FBF6F131
:1038C000DB1B27881144FB1A23800EE0B7F9023076
:1038D0005A4392FBF6F223881A44228098F99210F8
:1038E000B7F90020514391FBF6F1084460800026AF
:1038F0004FEA080706EB860007EB4000B0F984208A
:10390000B0F9821034F9160004F0A2FA24F8160077
:10391000761C082EEED33948DFF8F8B090F8DA00BC
:1039200040070FD53C480026D846C77DB7F10407AD
:1039300008EB46000189F019C0B206F0FFFC761CC6
:10394000042EF5D329490120891EB5F900600B78B2
:1039500006E000BF35F91020B24200DD1646401CDB
:103960009842F7D3002788468DE000BFBAF842019D
:10397000B04208DA99F8101029B935F81710301A42
:10398000081A25F817004FF48040FEF72AFC58B3B8
:10399000BBF90610BAF88E21914213DDBAF8422124
:1039A000BAF8481135F9170004F052FA25F8170053
:1039B0009AF8050001285AD11048B0F9B620B0F99C
:1039C000B4102DE0BAF84621BAF8441135F91700C1
:1039D00004F03EFA25F817009AF80500012846D1B0
:1039E000064830F9B42F19E020E00000CE00002096
:1039F0002C0A00203C0B0020A60C0020E40800202C
:103A00008001002068010020340C00202C040020DC
:103A100044000020480C0020140A0020B0F90210D5
:103A2000B4F90A0004F014FA608120E0BAF84221E7
:103A3000BAF8401135F9170004F00AFA25F8170012
:103A4000BBF90610BAF89001814214DA1020FEF793
:103A5000C8FB40B1BAF8440125F817005FF0010136
:103A600089F8111003E0BAF8400125F8170099F819
:103A7000010010B106E00021F2E7064830F8170017
:103A800025F817007F1C98F800008742FFF46EAFFE
:103A9000BDE8F88F640A00202DE9F04717468946F3
:103AA00006460025DFF81C841AE0002411E000BF60
:103AB000D8F8001081F00801C8F80010012006F0C5
:103AC000DDFC484606F07EFD002006F0D7FC641CB5
:103AD000E4B2B442ECD33C2006F074FD6D1CEDB2B0
:103AE000BD42E2D3BDE8F0872DE9F84FF64AF74C26
:103AF000B2F90630218D8B4201DA64250DE0F348DE
:103B0000B3F5FA6F90F8260005DA5D1A4543C1F562
:103B1000FA6095FBF0F0C0F16405DFF8B4E3A1466C
:103B200094F87AB094F87BA0BEF88E410021E64864
:103B300040F2E63C30F91160301B00F2F3176745A4
:103B400003D8002803DCA01B01E04FF4FA7002291F
:103B500035D0BBF1000F05D0834502DAA0EB0B0096
:103B600000E00020642290FBF2F2D74F6FF01808BB
:103B7000243707EB420C37F91270BCF902C002FB84
:103B800008F2ACEB070C00EB82020CFB02FC642297
:103B90009CFBF2F23A44CF4F27F8112009EB0102C7
:103BA00092F8232042434FF4FA7092FBF0F0C0F1F8
:103BB000640080B26843642290FBF2F01CE0BAF12A
:103BC000000F05D0824502DAA0EB0A0000E00020D9
:103BD0009EF95C21DFF8FCC252424243ACF804205B
:103BE00099F82520002800DC404242434FF4FA7047
:103BF00092FBF0F0C0F1640009EB0107642297F832
:103C000001C0DFF8D0820CFB00FC9CFBF2FCA8F1A9
:103C10007C0808F801C097F80BC008F103080CFBFA
:103C200000FC9CFBF2FC08F801C07F7D474397FB3A
:103C3000F2F008F10302A642505405DAA54830F824
:103C40001120524220F81120491C0329FFF66FAFC2
:103C5000F1467446BEF8901118464FF4FA6204F02B
:103C6000F7F8B4F890114FF47A72401A5043C1F546
:103C7000FA61B0FBF1F1642291FBF2F0924B6FF02C
:103C80001805323303EB400433F910306843B4F9BC
:103C9000024001EB8000E41A444394FBF2F08D4EA5
:103CA000894D1844143DF080687AA6F1A004E0B371
:103CB0008948B4F91610B0F90000401A09F00EFE58
:103CC000864909F08FFD864909F0BEFD07460AF0D6
:103CD000E1FB009038460AF0A7FF8346B6F90000E2
:103CE00009F0FCFD8246594609F07CFD0746B6F90D
:103CF000020009F0F3FD8046009909F073FD394692
:103D000009F018FD09F0F8FD07464046594609F04C
:103D100069FD80465046009909F064FD414609F06E
:103D20005BFD09F0E9FD308077800220FEF759FA4B
:103D30000026E8B3A189206D084420656079401C05
:103D4000C0B20621B0FBF1F2607101FB120080BB32
:103D5000A06CC11700EB5171A0EBE100A064002042
:103D600005F074FAA16C0844C117A06400EB51700F
:103D7000C0F3CF0001F0ADF9208399F88101C0B103
:103D8000E06CC11700EB5171A0EBE100E064022090
:103D900005F05CFAE16C0844C117E06400EB517077
:103DA000C0F3CF0001F0ADF9E066216D484301E0BA
:103DB0001FE012E04FF47A7190FBF1F0454AC11711
:103DC000203AD2E90637C0187941C2E90601454ACE
:103DD000002309F0A9FB26652067208B618C8842AF
:103DE00001D8012003E0218C884202D8022003F090
:103DF00063FF03F0ECFF3C48324F008818B102200B
:103E0000FEF7DAF910B93948008820B1386880F037
:103E1000080038600CE0A978082011B12949091D73
:103E20000860697811B127490831086004F0BBFCCB
:103E30008020FEF7D6F948B1616D206B411A05D498
:103E40004CF250310844606506F0FCFE616C206B5A
:103E5000411A03D4697B39B10120A87002F030FC0B
:103E60002348007848B10FE0AE70396881F008014E
:103E70003960204908446064F0E74FF40060FEF7C1
:103E8000B0F908B104F0C7FC2020FEF795F968B13D
:103E9000A16D206B411A09D4A17A052906D31649D0
:103EA0000844A065386880F01000386013488168C5
:103EB000002905D001B00748BDE8F04F8638084713
:103EC000BDE8F88F0C0C0140480C0020E4080020ED
:103ED0002C04002080010020F8010020DB0F494065
:103EE00000003443407E0500C4010020C6010020CC
:103EF0000000002020A10700F0490200740E0020FD
:103F0000FE49084490F8820106F023BA2DE9F047F3
:103F10000820FEF766F9FA4EFA4D4FF0000440B162
:103F2000B16BE0B2884725F81400641C082CF7DB5D
:103F3000D8E5F44F40F2DD584FF00009903FB16BE7
:103F4000E0B28847A0F2EE21414502D3EB48B0F839
:103F50008E01F16D07EBC402CB1701EB937323F0D5
:103F60000303C91A22F8110025F814905FF000002D
:103F700035F8143032F81010401C194425F814108C
:103F80000428F5DB35F91400C11700EB917080109F
:103F900025F81400641C082CD1DBF06D401CF06582
:103FA000A0E570B5D848D74C143C01886078D1B9E9
:103FB000A178C1B100281ED101206070D348D04D36
:103FC0000088E8824FF48070FEF70BF930B1E07A98
:103FD00020B1A87A052801D3072000E00620BDE81B
:103FE000704003F069BE002805D1BDE87040012291
:103FF000FF21022050E570BD2DE9FC5F00208346C3
:10400000054607460190BE48A030B0F902104B4269
:10401000002901DD0C4600E01C468246B0F9000094
:104020004242002801DD064600E01646B44205DDA6
:10403000002901DD084604E0184602E0002800DC03
:104040001046DFF8CC9200240090AE4E143EF0787B
:1040500008B93079F0B3022C40DAA9487C3030F945
:1040600014103AF9140001EB4000A449B1F868219A
:10407000514203F0EDFEA749DFF89CB231F914106C
:10408000411A0BEB4400B0F92C0001EB00089BF83F
:104090000810642001FB08F191FBF0F09BF81C1064
:1040A00001EB8102494201EB810103F0D1FE019055
:1040B000934842F21072903050F8241001EB08003F
:1040C000514203F0C5FE8E49903141F824009BF81F
:1040D000121000E008E048434FEA203BF07818B1A6
:1040E000307908B9022C4FD13AF91450854F05EBBD
:1040F0008500010188489C3F00EB04084FF47A5288
:1041000098F8010091FBF0F039F91410401A57F8B3
:1041100024100844514203F09BFE47F8240039F96B
:10412000140000F52070B0F5A06F06D8022C07D15E
:10413000BAF904006430C82802D9002047F82400E6
:1041400057F824007D2190FBF1F198F80B004143D2
:1041500030798F11B0B1022C14DA0098009BC0F5B1
:10416000FA71019801FB00F2009801FB0BF105FBCD
:1041700000204FF4FA7207FB031190FBF2F091FB61
:10418000F2F608E0F07820B1022C02DA5E460198DF
:1041900001E028463E465A4A39F914102432502389
:1041A000125DDFF860814A4392FBF3F2544B821AAE
:1041B0008233A8F1500833F9140023F81410081AB8
:1041C00008F10C0158F8243051F824C041F824308B
:1041D0009C44844448F8240049482A30005D00FB90
:1041E0000CF0C11700EBD1609119A1EB60104449AC
:1041F000883121F81400641C032CFFF626AFBDE8BB
:10420000FC9F2DE9F05FDFF8F8B03E4E00240BF183
:10421000A00BDFF804A19C3EDFF8E49001E0022C43
:104220006BD037483BF914107C304FF4FA7230F9F8
:1042300014000844514203F00BFE3649554631F94B
:104240001410401A0AEB4401B1F92C10084409F08B
:1042500045FB324909F0F8FA09F04EFB294A143AB5
:10426000D178E9B3297A41430911AA4628480AEBD3
:10427000040730F91400FA7A0D1A787856F82410E9
:1042800068434FEAE018B9F80C006843C01200FB1D
:1042900002104FF4001246F82400514203F0D8FDFA
:1042A00046F8240043131748203850F8241040F8EB
:1042B0002450B9F80C00691A02094FF6FF70B0FBE0
:1042C000F2F048430F498011383901F10C0251F8DE
:1042D000245052F824C042F82450AC44844400E0F6
:1042E0002EE041F82400787D00FB0CF0011208EB71
:1042F000030008440249883112E019E02C04002030
:10430000E0000020480C0020C6010020F801002039
:104310008400002044000020E40800200000204128
:1043200021F81400641C032CFFF679AFBDE8F09F60
:104330009AF82500BBF904101B304843411195E75A
:1043400029193BF9143091F8231012791B31594384
:104350000911002A89D0AA7C424301EB222184E77B
:10436000F849012801D0F84800E0F848C8637047D0
:104370002DE9F84F4FF00008C146C34645460820D6
:10438000FDF72FFFDFF8C8A3B8B19AF88A01062815
:1043900013D2DFE800F0030306090C0F03F022FC40
:1043A0000AE003F0FDFE07E003F094FF04E004F0F0
:1043B0007DFB01E004F06EFE0546E248E54C4FF05F
:1043C0000107016B006E4FF00006081A01D5002DA1
:1043D0007ED0DC4D44F6206211442966FFF796FD3D
:1043E0004FF48040FDF7FDFE28B1DA485E300078DA
:1043F00008B900F005FD00F037FED24988834FF47C
:104400000070FDF7EEFE20B94FF40040FDF7E9FE25
:10441000F0B3D148CB4D90F8D20000EB8001B5F954
:104420000E00814229DA607838B3CA490020BAF90F
:104430008E21143121F81020401C0328FADBC648D5
:10444000B0F8D400C880032003F036FCC24890F8CE
:10445000D21090F8D300084400EB8001B5F90E00AB
:10446000814207DAA07C28B900F0CAFC267004203B
:1044700003F022FC298A491C2982B74890F8D2000F
:1044800000EB8001B5F90E00814209DA607800E0A6
:1044900009E028B900F0B4FC2670042003F00CFCFD
:1044A000E989491CE981BAF89051BAF892310020A3
:1044B000A8494FEA9808143131F91020AA4201DDC9
:1044C00048F080089A4201DA48F04008401C00E0B9
:1044D000CEE20428ECDB9B4DE879804505D1A87934
:1044E000FA2803D2401CA87100E0AE7185F807805D
:1044F0004FF480484046FDF774FE68B1954ABAF81B
:104500008E111432BAF84C01B2F906200B1A9342FC
:1045100002DA084490420BDC4046FDF762FEF0B937
:104520008C481430B0F90610BAF89001814216DABE
:1045300088484FF0010B88380660466086608148E5
:104540009030066046608448B0F84A00C8B181489F
:104550005E30007858B1207898B1FFF722FD7E4890
:10456000B0F84A0068B17B485E30007848B960789E
:1045700038B19AF8950110B9BBF1000F01D000F0E5
:104580003FFCA879142818D16078B8B1DFF8C88149
:10459000B8F84A0020B9E8795F2801D100F030FC72
:1045A0009AF89401002808D0B8F84A00002804D1ED
:1045B000E8797D2801D100F023FC8CE0E8795728C8
:1045C00007D00420FDF70DFE58B3E8795A2819D01A
:1045D00027E062494FF47A7008804FF48070FDF74D
:1045E00000FE08B102F0D7FC0420FDF7E5FD10B194
:1045F0005B490A2008800820FDF7DEFD88B959488C
:1046000006800EE0A87810B1AE70EF7023E06878F5
:1046100090F00100687001D00A2000E00B2003F048
:104620004BFBE8795D2804D05B2804D05E2804D0D9
:1046300011E0012002E0022000E003208046401E3D
:104640008AF8B40400210846FDF79FFB4246282162
:104650000220FFF721FADFF80081B8F84A0010B90C
:10466000E9796F290CD09AF8941119B110B9E87949
:104670007E2805D0E879972805D0A72808D008E03B
:10468000FFF78FFC05E038494FF4C870088000E060
:10469000A773E879BB2806D0B72808D0BE280CD06D
:1046A000BD280ED017E0B8F82E10891C02E0B8F82B
:1046B0002E10891EA8F82E1008E0B8F82C10891CBE
:1046C00002E0B8F82C10891EA8F82C100121084629
:1046D000FDF75BFBAE710420FDF783FD18B369782D
:1046E000322079B1617869B11A491431B1F90620E3
:1046F000BAF890118A4205DD16495E31097809B988
:1047000068826E7013495E31497C31B12979AA788B
:10471000114300D168822F7105E0A87818B1607844
:1047200008B9AE70EF70DFF82CE000200EF1140E27
:104730000EEB4001B1F9082040F214518A4215DA1B
:10474000012314E0E0000020F93F000803420008C4
:104750002C040020340C0020E4080020C6010020B6
:10476000F6010020F8010020C4010020002300EB26
:1047700040018B40A2F2155CBCF5C77F02D84FF018
:10478000010C01E04FF0000C01F101080CFA08FCEB
:1047900043EA0C0340F2A46C624501DD012200E013
:1047A0000022891C8A40134343EA0903401C1FFA74
:1047B00083F90428BCDBFF49DFF8FC83002000BF3D
:1047C00008EB4002B2F84A2012EA090200D00122A6
:1047D0000A54401C1828F3DB4878894638B998F801
:1047E000D200B5F90E1000EB800088421CDA0220DE
:1047F000FDF7E2FCC0B1E07818B9F0480660466009
:10480000E7704FF40040FDF7ECFC78B198F8D20067
:10481000B5F90E1000EB8000884207DA2020FDF782
:10482000CBFC18B1A77401E0E670A67499F80210E9
:1048300039B1E670217929B9E0490E604E602771DF
:1048400000E0267199F8000000B92770E178102087
:1048500009B9217909B1DA4901E0D949091F08608C
:104860000420FDF7A9FC00B399F8030078B1A07902
:1048700070B9D448A7710168D3480160CF4810309F
:10488000C088A882D1480660D148066000E0A671C1
:104890004FF40050FDF7A5FC38B199F8040018B1A9
:1048A000E07B10B9E77300E0E6730220FDF784FCBB
:1048B00018B90820FDF780FCC8B199F805104846E2
:1048C00039B1617931B9C34967710A88C2490A802F
:1048D00000E06671817919B1617A11B9677200E0FF
:1048E000667299F8070010B1BA480088E882202063
:1048F000FDF762FCF0B3E07AE8B3A87A052850D35C
:1049000099F80A1009B9A17C89B1E079A0BBA9493D
:10491000E77126721E312E72081F03F05DF8022027
:104920002870A448E98B26308160E77435E0E67191
:1049300099F80B0050B3A14A1032B2F900000028D8
:1049400000DC4042B8F8E61088421FDAB2F90200F3
:10495000002800DC4042884218DA207A60B9974A81
:104960009448277218322E722630116801605168FF
:10497000416002E018E014E00FE0011D03F02CF8A4
:104980008C482F702630E98B816005E02672287AEA
:1049900018B92F7202F0BEFFE6740C2003F08CF9F8
:1049A00002E0E67126722E7099F80C0008B1A07C26
:1049B00048B1A6729AF80500082806D00E2804D03F
:1049C000182802D02AE0A772F4E766724FF400704C
:1049D000FDF707FC10B398F8D200B5F90E1000EB04
:1049E0004000B1EB400F19DDA672E770714900205D
:1049F000BAF98E21B1F14A0121F81020401C032898
:104A0000FADBB8F8D400C880E07A38B9A87A05286B
:104A100004D8A674BAF88E01323808801020FDF749
:104A2000E0FB20B3607810B3207C00BB286CBBF1A6
:104A3000000F1AD068B105F01EFD296C884204D918
:104A40009AF8760108B100F0DBF9092003F034F997
:104A50004AE005F010FD9AF8761101EB4102C2EB35
:104A6000C11100EBC1002864EFE700B12E643BE008
:104A7000524D903DA86E052836D2DFE800F0030BBA
:104A8000151F2A000820AF66FDF796FB10B100F055
:104A900064FD48BBA86E401CA8660420FDF78CFB93
:104AA00010B100F08DFCF8B9A86E401CA866042077
:104AB000FDF782FB10B1FDF795FFA8B9A86E401C69
:104AC000A8664FF48070FDF78CFB10B102F084FEF5
:104AD0000AE01020AE66FDF76FFB08B100F0C2FDE2
:104AE0004FF40050FDF77DFB05F0ABFC334D903DDE
:104AF0002863BAF80C2012B16B6EC31A6ED410443E
:104B0000D0466866FDF737FF05F09BFC2863A98E49
:104B1000411AA9816863FEF7E7FF0820FDF74CFB07
:104B200048B326491031B1F9042002F145008A2822
:104B300022D8607900B32748038827480088181ACC
:104B400000B210F1B40F02DC00F5B47000B2B4286A
:104B500002DBA0F5B47000B298F95C315B424343CC
:104B600018B2637B3BB1144B5B7A43431E2093FB2B
:104B7000F0F0101A888003E016480188164801807A
:104B80000420FDF719FB70B1A07960B1207C30B32F
:104B90000A480F49103098F99631B0F90220096897
:104BA00001FB03214180DFF8109099F88000B0B339
:104BB000E07815E0920C0020E4080020700100204D
:104BC000140C014070000020740000203800002008
:104BD00030000020F8010020FA0100200EE101E081
:104BE000D8BB4DE08F49DFF84092B5F9143091F809
:104BF0007D00B9F90620E8B1A2EB030CBCF1000F6F
:104C000001DCA3EB020C91F87C00844508DD8749A8
:104C10009A420E606F7200DD4042104407E037E0B8
:104C2000687A18B382480168824801601DE0A9F8DB
:104C30000600B8E7D01A002801DD024600E09A1A03
:104C400091F87CC07C49624508DD7C4A00EBD0705D
:104C5000401010600F706F7208E013E0687A28B19E
:104C600073480268734802600E706E727448B8F838
:104C70004221B8F840110068184403F0E9F8D6E77B
:104C8000207928B168486F4AC18812881144C180D0
:104C90002020FDF791FA10B3634FE079243F08B963
:104CA000207AE0B3207BD0B3674EB6F9000008F05D
:104CB00015FEDFF89881414608F094FD09F0B4FF35
:104CC0000090B6F9000008F009FE414608F08AFDA0
:104CD00009F0E0FB8046207C10B103F014FF83E074
:104CE000514C99F8DF00DFF868A14E462C3CE8B340
:104CF000A146B4F90200241DB4F90210401A01F0D3
:104D0000F8FE16F8DF2F514203F0A2F8618808443C
:104D10006080B9F90000B4F90010401A00E060E0CA
:104D200001F0E7FE3278514203F092F821880844FE
:104D300000B2208008F0D2FD8346009908F052FDB1
:104D40000646B4F9020008F0C9FD8146414608F064
:104D500049FD314608F040FD5646514608F074FDC5
:104D600008F0CAFD38805846414600E00BE008F0E4
:104D700039FD04464846009908F034FD214608F004
:104D8000D9FC314627E0B4F9000008F0A7FD8346BE
:104D9000009908F027FD0646B4F9020008F09EFDD0
:104DA0008146414608F01EFD314608F015FD544687
:104DB000514608F049FD08F09FFD388058464146AD
:104DC00008F010FD06464846009908F00BFD3146F4
:104DD00008F0B0FC214608F037FD08F08DFD788022
:104DE00002E03E807E80BE80E86B8047FEF796FC46
:104DF000FEF715FBBDE8F84FFEF78ABBBDE8F88F5C
:104E0000144810B5417800290AD0002444700520C8
:104E100002F052FF0448A038016C002900D004645D
:104E200010BD0000E40800208001002038000020B0
:104E300070000020740000200C00002034000020CE
:104E40003000002010000020F801002035FA8E3CD0
:104E500000002041340C00202DE9F84FFF4C0026C3
:104E60003746B4F86021FE4BFE499B46A1F1100085
:104E700005F0E2FF08B101271AE0FB4800680328AB
:104E800009D1F849B4F86021A1F1100007F0B9F890
:104E900008B101260CE0B4F86011F24806F0CAF936
:104EA00030B9B4F86011EF4805F03DF800287DD026
:104EB000EE4D4FF0020A4FF001094FF0000800BF1D
:104EC00094F85D0107284BD2DFE800F008081A3794
:104ED000422904000220FDF77CF941E08DF80080B2
:104EE0004FF44870DF49ADF802001039684604F00D
:104EF00056FA08B185F8009094F85D0101282FD08A
:104F00006FB1D849B4F860215B46A1F1100005F0FB
:104F100093FF85F800A094F85D0102282DD066B1BA
:104F2000D049B4F86021A1F1100007F06AF805201B
:104F3000287094F85D0105281FD0CA48103806F083
:104F400075F828B10320287094F85D01032814D067
:104F5000C448103806F089FF10B1042028700CE016
:104F6000287850B994F85D01401E052802D284F8D3
:104F70005D81A5E70220FDF72CF9BA48203007F043
:104F80003CFA60B9B748203004F0AEFA38B9B548F9
:104F9000203006F052FA10B90420FDF71AF9022069
:104FA000FDF70AF938B194F8540100E05AE0AD4930
:104FB000103909688847AB4994F853010968884754
:104FC0004E46474694F85E0148B1012807D00228B2
:104FD0000FD0032815D10820FDF7FBF811E0A148F8
:104FE000103004F0A8FC20B16E7094F85E01012826
:104FF00014D09C48103007F0A0F810B185F801A03B
:105000000CE0687850B994F85E01401E022802D284
:1050100084F85E71D6E70820FDF7DBF89448642138
:10502000B0F92A0090FBF1F216B290FBF1F201FB0D
:1050300012040820FDF7C0F88E4D88B1204608F014
:105040004DFC8D4908F0CEFB0446304608F046FC86
:10505000214608F06FFB894908F0C4FB286000E096
:105060002F600120BDE8F88F10B57C4C002094F82B
:105070009711B1B182484FF47A7200EB41000021E0
:10508000B0F90600A0F57A7002F0E2FE08F026FC06
:105090007C4908F0D9FB7C4908F0A4FB08F045FCEA
:1050A00015E094F89811002912D0032004F0CEF8EE
:1050B000B4F89C1140F2FF32401AB4F89A11C0EBD8
:1050C000802090FBF1F000B2002102F0C1FE80B21E
:1050D00010BD70B50546614890F87D0108F007FCE9
:1050E0000446284608F003FC684908F07BFB684941
:1050F00008F0AAFB214608F075FB08F016FC80B208
:1051000070BD40F6E441484340F6FF71B0FBF1F05A
:105110005249B1F87A21B1F87811801A4FF47A72B5
:10512000504390FBF1F0704770B500252C460020ED
:1051300004F08CF805440A2005F044FA641C202C85
:10514000F5D3C5F34F10FFF7C4FF444A012192F88D
:105150007E3100BF03FB01F4844202D8491C0829B8
:10516000F8D34C484C4B017092F8800148431880AA
:1051700092F87F0148434949088070BD2DE9F05FEE
:10518000DFF8E890464E3A4FB9F80420334C00253A
:10519000CAB3444900204FF4C878424501D141F8D0
:1051A000205051F8203036F910C0634441F82030C7
:1051B00026F8105004EB4003401CA3F86A51032862
:1051C000EBDB012A1AD10868C83090FBF8F0A4F88C
:1051D0006A014868C83090FBF8F0A4F86C01886850
:1051E000C83090FBF8F1B9F80800081AA4F86E016D
:1051F000BD850121FD850846FCF7C7FDB9F80410FF
:10520000491EA9F804100420FCF7EBFF00287DD00C
:10521000DFF89480DFF854B0DFF888A0B8F80020F9
:105220000BF1240B0AF10C0A322A05D0F2B300204C
:105230005146322A3DD03EE0B4F86A11ABF8001076
:10524000B4F86C11ABF802100848B4F86E11ABF862
:1052500004100A30B98D0180F98D28E02C0400205B
:10526000280A0020740E0020C8000020C001002081
:10527000E4080020400000208988883C000020418C
:10528000480C002000007A4400C07F443333534070
:1052900000F07F4594010020000100200201002061
:1052A00090000020440D0020F200002035E04180F5
:1052B000BDE741F8205051F8203036F910C0634462
:1052C00041F8203026F8105004EB4003401CA3F8AE
:1052D0006A510328ADDB012A1AD1F848F849057054
:1052E000012008700A2002F0E7FCBBF80010A4F8C7
:1052F0006A11BBF80210A4F86C11BBF80400A4F802
:105300006E01F0480188B985408800E025E0F88505
:10531000B8F80010491EA8F80010EB480178E1B178
:105320000570DAF80020322192FBF1F2A4F86A212C
:10533000DAF8042092FBF1F2A4F86C21DAF8080004
:1053400090FBF1F1B9F80800081AA4F86E01BD85C8
:105350000121FD850846FCF718FD3088B4F86A1174
:10536000401A30807088B4F86C11401A7080B08890
:10537000B4F86E11401AB080BDE8F09FD34810B564
:105380004168D3488847BDE81040F7E630B5CD4CBA
:10539000D04A0A3C206992F834200146401C8242DF
:1053A00000D10020CC4A1368CC4A42F82130CC49C5
:1053B00052F820200D682B449A1A0A60206130BDF3
:1053C00070B5C04CC7480A3C00686169411A01D5F4
:1053D000002070BD6061BD4DA069303578B128698D
:1053E00080476868804728886169084460616A6905
:1053F000BD49B94890470020A061022070BDA8684F
:105400008047E8688047FFF7C1FF0120A0616888F6
:10541000616908446061012070BD2DE9F05FA94D0C
:105420000A3DE88800286DD0DFF8A0820024A8F1AA
:105430003C08A3464FF47A79A8F10C06E888484561
:1054400007D104EB840208EB820146F824B0C1F8CE
:1054500010B0A64F56F8241037F91400014446F84E
:10546000241008F03BFA014604EB840208EB8200AA
:10547000824600F0FAF827F814B09D4F27F814B0D0
:10548000E888012838D1DAF81000012808DD401E2C
:1054900008F024FA0146DAF80C0008F0D5F900E02B
:1054A000002009F085FC8246924890F86601B0B170
:1054B00008F01DFA514608F04DFA10D28349A5F8BC
:1054C00006903C39C8F810B0C1F824B0C1F838B023
:1054D000C6F808B0C6F804B0C6F800B00CE056F83C
:1054E0002400012200F5FA7090FBF9F027F814006F
:1054F0000F210A20FEF7D0FA641C032C9EDBE888FB
:10550000401EE88079497A4A002000BF31F8103007
:1055100032F810401B1B21F81030401C0328F5DB2B
:105520002AE76A4810B51030416870488847BDE8DE
:10553000104072E710B570481024046063496D484C
:105540002031096890F8550188476B48001F0460B6
:105550005C4901200A39887010BD2DE9F041594C91
:1055600060480A3C0068E169411A02D50020BDE8A4
:10557000F08162490844E061544820304168604845
:105580008847DFF880C14F4B00269CF80E005C492D
:10559000584A20339D1D90B1E06920625FF0000001
:1055A00002EB4007A7F8706131F8107023F8107013
:1055B00025F81070401C0328F2D38CF80E60A078F8
:1055C00070B10888B2F87071C01B08804888B2F8C2
:1055D0007271C01B48808888B2F87471C01B8880C3
:1055E000206A90B3E769381A474FB84218D2424848
:1055F0000838026882F008020260002031F91020A9
:1056000033F91040A24201DA23F8102035F9104096
:10561000A24201DD25F81020401C0328EED314E03F
:105620000020266233F9101035F91040214401EBB7
:10563000D17102EB40044910401CA4F870110328FA
:10564000F0D301210846FCF7A0FB01208FE710B53D
:10565000012005F037FD1020FCF7B6FD2B49002096
:10566000086010BD294805F080BD2DE9F0410446D1
:1056700000690E46401C2061012849D008F02EF92F
:10568000256880462946304608F0A6F80746414678
:1056900008F0DAF8294608F04DF80546606029461A
:1056A000304608F099F80146384608F09BF8A168A2
:1056B00008F040F8E0602560A06058E7E4000020B2
:1056C000E2000020CA010020E3000020640E002058
:1056D00090000020E4080020B80000205C0D0020AD
:1056E0001C00002010010020BC0000208A000020C7
:1056F000C00000202C040020140C0140A0860100F2
:105700009C000020340C002080C3C9012C00002024
:10571000666000202660A06029E7000070B5FF4D9C
:10572000044621466868006806F0C0FB6868017995
:105730006140017170BD10B50446C0B2FFF7EEFFC5
:10574000C4F30720FFF7EAFFC4F30740FFF7E6FFC3
:10575000200EBDE81040E1E710B50446C0B2FFF7E7
:10576000DDFFC4F30720BDE81040D7E7EB484168F0
:105770008B1D4879421C4A71C05C704710B5FFF719
:10578000F5FF0446FFF7F2FF04EB002080B210BDE6
:1057900010B5FFF7F3FF0446FFF7F0FF04EB0040FE
:1057A00010BD70B504460D462420FFF7B7FF4D200D
:1057B000FFF7B4FF0CB1212000E03E20FFF7AEFF61
:1057C000D64C0020616808712846FFF7A7FF606883
:1057D00090F88600BDE87040A0E701460020E0E7B1
:1057E00001460120DDE7CD484068007996E770B5B5
:1057F00004460D460846FFF7F0FF03E014F8010BDE
:10580000FFF78CFF6D1EEDB2F8D270BD10B50446E7
:1058100003E000BFFFF782FF641C20780028F9D165
:1058200010BD2DE9F05FDFF8F8B2DFF8F092012744
:105830004FF0000A002518E0BA48405D00EB400137
:105840000BEB8108D8F8040007F025FF06460FB1DE
:10585000B24409E0002405E0D8F80400005DFFF739
:105860005DFF641CB442F7DB6D1C99F800008542B3
:10587000E2DB002F05D00AF0FF00FFF7AEFF0027A4
:10588000D8E7BDE8F09F2DE9F047A44E00248146FB
:10589000024603232146A448B46004F0EDFFA34D63
:1058A000DFF88082A34F08F118082860C8F80000CC
:1058B000B068401CB0609E48006803280EDB97F873
:1058C0008C0158B903234A4600219B4804F0D4FFB9
:1058D0006860C8F88C00B068401CB060FF221821D6
:1058E000904807F092FE8F4D02202C700124FCF7A7
:1058F00063FC20B1012068700220A87003240420FA
:10590000FCF75AFC50B1032028554FF40050641C9A
:10591000FCF767FC10B104202855641C0220FCF73A
:105920004BFC18B90820FCF747FC40B1052028556E
:10593000641C06202855641C07202855641C202060
:10594000FCF74FFC10B108202855641C4FF4807000
:10595000FCF747FC28B10A202855641C0B20285569
:10596000641C7879082803D00E2801D0182802D1A9
:105970000C202855641C0D2028550420641CFCF7BD
:1059800030FC10B111202855641C1320285597F8BD
:10599000B001641C00B10120FCF723FC10B11420FD
:1059A0002855641C7879182808D115202855641CBE
:1059B00016202855641C17202855641C3470BDE837
:1059C000F0872DE9F05F4FF00009CA460FF26C1B1B
:1059D000524C01275C4D6068DFF87081554E90F89D
:1059E0008610782971D026DC6B296FD016DC6429EB
:1059F0006DD00BDCA1F14001062969D2DFE811F07E
:105A00002D063A06F205B40547064F066539062904
:105A1000F3D2DFE801F0FBFAF9F8F7F63F486C390A
:105A20000C290078E9D2DFE801F0FDFCFBFAF9F877
:105A3000F7F6F5F4F3F24548D029407868D019DC40
:105A4000CA2966D00EDCA62964D006DC7B2962D088
:105A5000A02961D0A4293BD1FDE3C82926D0C929BA
:105A6000F9D13DE0CB390529C7D2DFE801F093A396
:105A7000FEFDB900EF292CD00BDCA1F1D1014FF0D4
:105A800000090829B9D2DFE801F0F6F5F4F323F2B2
:105A900023F1F22941D004DCF02979D0F129DAD1BF
:105AA00022E2FA2975D0FE29D5D1FCE30024284D45
:105AB000FFF764FE25F81400641C082CF8D30020BE
:105AC000FFF78BFE02F0EEFF0DE2D0E104E3FFE012
:105AD000EAE3FFF753FEE885FFF750FEA885FDE3F4
