:020000040800F2
:100000000050002015D50008C1D500088DA60008B5
:10001000C1D50008C1D50008C1D500080000000006
:10002000000000000000000000000000C1D5000832
:10003000C1D5000800000000C1D5000869A600086D
:10004000C1D50008C1D50008C1D50008C1D5000838
:10005000C1D50008C1D50008C1D50008E9A600082F
:10006000C1D50008C1D50008C1D50008C1D5000818
:10007000F9A50008C1D5000831A60008C1D50008BF
:10008000C1D50008C1D50008C1D50008C1D50008F8
:10009000C1D50008C1D50008C1D50008E5A60008F3
:1000A000C1D50008C1D50008C1D50008D9A60008EF
:1000B000D1A60008C5A60008B9A6000889A60008B0
:1000C00081A6000885A600087DA60008C1D5000805
:1000D000C1D50008BDA5000851A50008C1D500087C
:1000E000EDA60008C1D50008C1D500080000000039
:1000F0000000000000000000000000000000000000
:0C01000000000000000000005FF808F1A3
:100110002DE9F04F854D95B0AB68854C13F0080183
:1001200000F0868095F81721042A00F28380DFE82A
:1001300002F003030550750023787CE060787C4A68
:10014000002877D000209E05507002D5137E180736
:1001500070D4E0780023A27800F00706A383754BE3
:1001600042EA06221A60227902F03F06760146EA48
:10017000D00058606079800040EA9210A27902F0C5
:10018000010640EA86209860E07900F00F06F6014B
:1001900046EA5202DA60227A02F07F06360146EA27
:1001A00010101861607A400040EAD212A07A00F084
:1001B000030642EA46225A61E27A02F01F06B601BD
:1001C00046EA90009861207BC00040EA5212DA6152
:1001D0002CE0A27F564B6AB393F82000002201283E
:1001E0009A7727D19A8393F83420082A84BF08226B
:1001F00083F8342094F834004F4A0023DEB286425C
:1002000002F1020212D212F8016C12F8027C46EAE4
:1002100007274A4E46F823700133EFE794F8583029
:10022000434A00203BB1908382F85800012302E04A
:100230000B4600E00023E26D206E101A002802DA5F
:10024000002B00F09B8302F59C4220322266DFF8EF
:1002500004A13B4E00293CD13A4F89468846DAF842
:1002600000305FFA88F09847A0F2EE2292B240F296
:10027000DC539A42D4F8A420334B88BFB5F81A0156
:100280001340002B03DA013B63F0030301332849D9
:1002900003EB880301EB4303A3F8640039887B88F0
:1002A00008F101080B44B988B8F1080F0B44F9882C
:1002B00007F108070B441BB24FF0040193FBF1F365
:1002C00026F8093009F10209C9D10132C4F8A42085
:1002D00009E00027F8B2DAF80030984726F817004E
:1002E0000137082FF6D1AB68590404D594F8A8302B
:1002F0000BB907F0BCFF95F82A210C4B62B303320F
:1003000036F91200A0F57A70B0F57A7FA8BF4FF4E5
:100310007A7020EAE0700AF0CFFE0C490AF0D4FFB0
:100320000B490AF01DFF0BF007F92AE0881800209E
:1003300008010020440700202A010020400100207D
:10034000180700206C0100200300008000007A44A0
:1003500000C07F443C07002093F82B0190B1A84ACD
:10036000D179A84A32F81100B3F82E2180B2801A50
:10037000B3F82C31C0EB802090FBF3F000B280F397
:100380000A0080B2AB68A4F8BE009A053FD59E4B28
:100390009E4AB3F81C9092F8B8300FFA89F703EB35
:1003A00083018F4290461EDDDFF868A29AF8012093
:1003B000CAB1974AB2F81A2132807280B280B8F876
:1003C000BA20F28098F8B920134403EB83039F42CC
:1003D00004DD07F04CFF00238AF80030B4F8C03089
:1003E0000133A4F8C03098F8B83003EB83039F4280
:1003F00009DD884F97F80180B8F1000F03D107F0AD
:1004000036FF87F8008009F10109A4F81C9000224A
:10041000B5F81C11B5F81E711346B05E9B088842F2
:10042000C4BF63F07F03DBB20232B842B8BF43F00F
:100430004003082AF1D194F8C200734A984205D1CA
:1004400092F8C300F92804D8013000E0002082F8B7
:10045000C30084F8C230AB686D4A13F480436B4F1D
:100460000CD0B2F81A11B2F8DC20B6F90630881AAE
:10047000834208DD0A44934207DB04E0B6F9062014
:100480008A4202DB16E0002314E00023C4F8D433D0
:10049000C4F8D833C4F8DC33C4F8D030C4F8D4304E
:1004A000B7F846302BB1584B93F8A830002B42F0E8
:1004B00048810123B7F846206AB194F8A82052B9C0
:1004C000544A52783AB195F8212112B107F0CFFE83
:1004D00001E0002BFAD194F8C3204B4B142A40F0D2
:1004E000B1804C4A50789046D0B1B7F846202AB92E
:1004F00093F8C2305F2B01D107F0B9FE95F8203197
:10050000002B00F09F80B7F84630002B40F09A8017
:1005100094F8C2307D2B40F0958007F0A8FE91E062
:1005200093F8C220572A15D13B4B4FF47A721A80A8
:10053000AB68DB0501D508F0A7F9384B1B685807F5
:1005400002D5374A0A21118013F0080326D1A4F8F6
:10055000C43023E0A968490717D55A2A15D193F862
:10056000C6202AB1012283F8C60083F8C72015E00F
:1005700093F8C82082F0010283F8C820294B0AB101
:10058000022200E003221A7008E05D2A02F0E280F5
:100590005B2A02F0E1805E2A02F0E080B7F8463084
:1005A00033B994F8C2206F2A02D107F0EBFD15E0B1
:1005B00095F8202122B11BB994F8C2307E2BF4D0DB
:1005C00094F8C230972B04D1174B4FF4C8721A809D
:1005D00004E0A72B04BF012388F80E3094F8C23042
:1005E000BB2B02D1BB8D023303E0B72B03D1BB8DF4
:1005F000023BBB851FE0BE2B18D17B8D023319E077
:10060000F4040020FC04002008010020801C0020CD
:1006100088180020A80600203C0C00202C05002093
:100620003E0C00205D1D0020681D0020BD2B09D15F
:100630007B8D023B7B850120014606F0C3FE002333
:1006400084F8C330D5F808E01EF0040F31D094F8D8
:10065000C820A14B8AB1A14A527872B1A04AB6F91A
:100660000610B2F81C21914207DD93F8A82022B9A8
:100670003221A3F8CA1083F8C82094F8B920964B09
:1006800062B193F8CC202AB993F8C62012B932226D
:10069000A3F8CA20012384F8CC300AE093F8C620DE
:1006A0003AB18E4A527822B983F8C620012283F8E3
:1006B000C7208C480123002130F8022F03F1FF3CB2
:1006C000A2F21556B6F5C77F8CBF002601269E40C4
:1006D00012B2314340F21356B242CCBF002601267B
:1006E00006FA0CF6314340F2A466B242D4BF0022AF
:1006F00001225E1CB240033311430D2B89B2DBD1C2
:10070000002307EB4306B6F84660734A31420CBF3C
:100710000026012602F1A8001E540133152BF0D14A
:1007200092F8A9306D4E704943B9704BB2F91C2054
:1007300093F8B83003EB83039A420CDD0B689A07F9
:1007400009D5F3784BB9C4F8D030C4F8D430634B32
:100750000122DA7001E00023F37094F8AA305E4AB7
:100760005BB10023F370337943B9C2F8D030C2F8DB
:10077000D4305A4B01221A7100E0337194F8A8303A
:100780000BB901233370F278594B12B9534A1279DD
:1007900012B110225A6101E010221A610A6853074F
:1007A00025D594F8AB104C4B99B1B17991B94B4820
:1007B0004FF0010C80F806C0D3F8DC00C3F8EC1051
:1007C000C3F8D800B3F8E800C3F8F010A3F8E000CD
:1007D00000E0B1711EF4005F09D094F8AC302BB189
:1007E000F37B23B93D4B0121D97300E0F37312F081
:1007F0000A0F20D094F8AD3037494BB1737943B923
:10080000364B01205871B1F8C430A1F8F43000E043
:10081000737194F8AE302BB1737A23B92F4B012149
:10082000597200E0737294F8AF102B4B19B1B3F802
:10083000C410A3F8F610900640F19180F27A274B8D
:10084000002A00F0878094F8F820DFF88C80042AD2
:1008500040F2808098F8B2208AB1DA79002A7ED1FD
:100860000121D9711A72234B08F1FC0008F580713F
:100870001A7008F0FFFB022388F804316FE0DA7188
:1008800098F8B320002A37D0B8F9E210B7F8CC2096
:100890000029B8BF494291422EDAB8F9E410002984
:1008A000B8BF4942914227DA1A7A002A57D1012764
:1008B0001F72104B08F584701A70D8F8103108F5C3
:1008C0008671C8F80831D8F81431C8F80C3108F02E
:1008D000D1FB88F8047142E008010020A80600203E
:1008E000881800201E0700202C050020801C0020F6
:1008F000000C014000000020934A0023337213785B
:100900006BBB012111701A46904F0020391D5052C7
:1009100007F1080107F10C0E5052002143F80E10A8
:100920009E44D053CEF80400CEF80810023207F1EE
:10093000340E5C3743F80E10D9519E441F44042AEC
:10094000CEF80400CEF808107860B96003F1140303
:10095000DAD104E00023F371337284F8043194F89F
:10096000B43003B10123B3726B79082B02D00E2B84
:1009700040F066840023737200F062BC744BD3F8BD
:100980009C31042B00F25C84DFE813F005008B003F
:10099000F8004C033E040123C4F89C316D4B6C4EAF
:1009A0001B6819077DD5D6F8A031D31A002B78DB48
:1009B000694B02F5C332A0325B6806F5D270C6F807
:1009C000A0219847654B06F5D2779A7B184692B1DD
:1009D000D6F8A0210023C6F8AC21E9180022A1F81E
:1009E000002116465E49FA5A5A5206315A520233CB
:1009F000062BF2D186735B4B1B78A3B1B4F8A4210C
:100A0000B5F80031D31AA4F8A431B4F8A621B5F88A
:100A10000231D31AA4F8A631B4F8A821B5F80431EC
:100A2000D31AA4F8A831D4F8AC31494A002B00F00D
:100A30000784D2F8A0114C48CB1A834202F5DB712F
:100A400002F5D87019D8494BDA6882F00802DA60EA
:100A50000023FA5A30F903E016B2B645C4BFDFF8F6
:100A600000E123F80E2031F903E0B645BCBF404E4B
:100A70009A530233062BECD1E2E30023C2F8AC31E7
:100A8000C75ECE5EEA183E4402273B4496FBF7F66B
:100A9000062BA2F80061F3D10120014606F092FC7A
:100AA000CEE3D4F89C312A4E0133C4F89C31294B53
:100AB0001B685B0762D5D6F8BC31D31A002B5DDB0F
:100AC000D6F8C031C6F8BC212A4F9BB13B69984784
:100AD0007B689847D6F8BC313A8806F5E270134433
:100AE000C6F8BC3106F5E4717B6998470023C6F867
:100AF000C031A5E3BB689847FB6898471E4AD6F803
:100B0000CC1192F831204B1C934208BF0023D4F83B
:100B1000C42104EB8101C1F8D021D4F89012C4F8AB
:100B2000CC310A4404EB8301D1F8D0010123121A1D
:100B3000C4F89022C4F8C0317A88D4F8BC31134488
:100B4000C4F8BC317CE300BF00000020200200207C
:100B5000080100202C050020A4050020A806002084
:100B6000B8020020CC0500207FC3C901000C014061
:100B7000BE0200207C050020801C0020D4F89C319F
:100B8000B14E0133C4F89C31B04B1B685F0740F194
:100B9000498207F07FFAD6F8987246F2A713C71B6E
:100BA0009F42B6F896A2B6F894B240F23B82DFF8C4
:100BB000C892C6F89802B9F80030DFF8B8827BB363
:100BC00098F83100D6F89032D6F89C220138B3FB61
:100BD000F0F0082392FBF3F1521A1044C6F89C027D
:100BE00090FBF3F00AF068FA99490AF06DFB994915
:100BF0000CF086FF01464FF07E500AF0A7F99649A7
:100C00000AF0AEFA0AF072FC0023C6F8A432C6F865
:100C1000A832B9F80030C6F8A002013BA9F80030AC
:100C200098F831000FFA8BFB0FFA8AFAD4F8903259
:100C3000BBF1000FB8BFCBF1000BBAF1000FB8BF8A
:100C4000CAF1000AD345A8BFDA460138B3FBF0F079
:100C50001FFA8AFACDF818A00AF02AFA7C490AF09D
:100C600033FB7C490CF04CFF01464FF07E500AF0FC
:100C70006DF979490AF074FA0CF074FED8F8346012
:100C80008146D4F8AC020AF017FA31460AF068FA45
:100C90008046D4F8A002C0EB09000AF00DFA3146F4
:100CA00081464FF07E500AF051F9014648460AF05D
:100CB00057FA014640460AF04BF90CF053FEDDF8B6
:100CC00018A083460FFA8AF8B8F1FA0F634E03DDD5
:100CD0004FF0FF33336014E030680AF0EDF98146DD
:100CE00040460AF0E9F901465D480AF02FF901464D
:100CF00048460AF035FA5A490AF0E6FA0AF0F6FBD5
:100D00003060366806F1FF39B9F1C60F06D8C6EB78
:100D10000B03C4F8B032C4F8AC622FE0D4F8B032A0
:100D2000002EC3EB0B0BDFF820A1C4F8ACB225DD1D
:100D3000C6F596700AF0C0F94A490AF0C5FA80462D
:100D4000CAF8B40230460AF0B7F941460AF008FA88
:100D5000064658460AF0B0F9414683464FF07E50A9
:100D60000AF0F4F8014658460AF0FAF9014630460E
:100D70000AF0EEF80AF0BAFBCAF8AC023A4B18686F
:100D800002930AF095F9394906460AF0E9F98346D3
:100D9000D4F8C0020AF090F98046D4F8C4020AF0F0
:100DA0008BF9014640460AF08FFA314A05901168E6
:100DB0000AF0D6F931460AF0D3F92E4A4FF07C51A9
:100DC000D2F83CA0D4F8A482D4F8AC620790039285
:100DD0000AF0C6F959460AF0C3F959468446404616
:100DE000CDF810C00AF0BCF9DDF810C0014660462D
:100DF0000AF0AEF8D4F8A8120AF0AAF851460AF0A0
:100E0000AFF9834630460AF057F9514684464FF011
:100E10007E50CDF810C00AF099F8DDF810C00146F8
:100E200060460AF09DF9014658460AF091F8039A87
:100E3000029BB9F1C60FC4F8A80291469A461DD884
:100E4000014AC2F8DC601EE0080100202C050020E9
:100E500080E6C547B1DC423ED048874A40000020CA
:100E6000000061440000C842601D0020BD37863587
:100E7000C0050020801C00203E0C00200AF036FB3C
:100E8000B04BC3F8DC00079940460AF061F803460E
:100E9000D4F8C8024FF00008CAF80080C4F8B8823D
:100EA000C4F8BC82C4F8C082C4F8C482301A029369
:100EB0000AF002F9A4490AF053F9824638460AF0CA
:100EC000F7F8014650460AF0FFF90AF00FFB40F22E
:100ED000DC529E499042A8BF10468842B8BF0846DF
:100EE0000A21C4F8C86207F02FFB029BD9F83860CA
:100EF0008246314618460AF033F9074650460AF052
:100F0000DBF8314682464FF07E500AF01FF801466A
:100F100050460AF025F9014638460AF019F8C4F897
:100F2000A4020CF01FFD0521064607F00DFB069FED
:100F3000DFF810B23BB2B3F5487FC4F8CC026BDAED
:100F40009BF8D0320BBBDBF8D820DBF8DC308048D4
:100F5000D31AB3F5FA7FA8BF4FF4FA738342A8BF40
:100F600018460A2107F0F0FA7A4B80221B79584381
:100F700090FBF2F3B3F5967FA8BF4FF49673A2F5FA
:100F8000D6729342B8BF134601E0DBF8D43299F829
:100F90000A209B1B5A43202192FBF1F299F814007E
:100FA000D4F8EC1042F2040603FB00106A4BB2F5D1
:100FB000967FA8BF4FF496729842A8BF1846674B19
:100FC0009842B8BF1846C4F8EC0090FBF6F0644EA7
:100FD000B242ACBF8618861999F81E000AF06CF868
:100FE000D4F8D8120746059809F0B2FF01463846F2
:100FF0000AF0B6F84FF06C510AF0B2F80AF076FA3F
:101000006FF095039628A8BF96209842B8BF18465F
:10101000301AC4F8F00001E0CBF8F080059AC4F86B
:10102000D8220DE1D4F89C310133C4F89C31AB686F
:10103000DE0540F1E9804B4EB36863B94A4F3B7817
:10104000013B042B00F2FC80DFE813F011001100DB
:101050001100CD00B600B06806F06BFD0028EDD0A1
:10106000404B986806F060FD03F0C6F8F3E795F88A
:101070003091B9F1000F03D0B9F1010F09D098E018
:101080007A783A4BB06803EB0213596806F047FDD3
:101090008CE0B068DFF8CC8003681B6998470028B3
:1010A00000F087803B78304E022B2CD0032B35D0BC
:1010B000012B7ED12E4BD3F80090736AC3EB09034A
:1010C000632B76D9F369042B1BDCDFF8A0A0D8F8DA
:1010D00008000AEB0313596806F021FD7378D8F86D
:1010E00008800AEB03139E6816F8011B19B14046ED
:1010F00006F0ABFFF8E7FB69C7F824900133FB610A
:1011000057E0022053E07278184BD8F8080003EB40
:101110000213596806F003FD032048E03369012BF0
:101120002AD0022B42D0002B43D1326A114BC6F891
:10113000109053F8321003EBC2035B687161B36126
:1011400037E000BF080100200024744924FAFFFFA3
:101150000CFEFFFF801C002020031900E0FCE6FFCE
:10116000D4FEFFFFD005002064070020F0FB00083C
:1011700084180020DCFC0008F369B269934209DAA4
:101180007269D8F80800D15C06F05FFFF36901339B
:10119000F3610EE0326A7B490132326251F832204B
:1011A0000023F36102B90223336102E0042004F05A
:1011B000E9F900237B6043E07B68052201337B6013
:1011C0007B7801200133DBB2B3FBF2F202EB820247
:1011D0009B1A7B706C4B6D4A1B68BB60002384F8C4
:1011E000F830D3720DE0684B1A68BB68D21A40F62B
:1011F000C4139A4224D9664B05201A6822F02002B3
:101200001A6004F0BFF91BE00023C4F89C31604B66
:101210001B68D80614D55C4B1A685E4B19683C31C4
:101220008A420DD31A605C4F5C4A5D4B5D4EC3F839
:10123000DC223B880B20336106F046FF3B8873615C
:1012400006F028FFAB89E06533B1554AD2F8E022B9
:10125000821A002AC1F29482534E1844C4F8E00264
:10126000736852489847524B1A889946002A00F0F2
:10127000C0804E494FF0000801F108064746B9F812
:1012800000B04C4BBBF57A7F08D1A3F13C010A209A
:1012900000FB0711002243F808200A61434AD05F8F
:1012A00053F80820024443F8082009F005FF336989
:1012B0000133012B336104D1002370603060B360CF
:1012C0002AE0D6F800C002936146CDF810C0039022
:1012D00009F03CFE029B8246184609F0EDFE0146ED
:1012E000504609F0F1FFDDF810C00146604609F0F4
:1012F0002FFE039A0346194670601046029309F0C8
:1013000025FE0146504609F02BFFB16809F020FE8A
:10131000029BF0603360B0602448002300F1500A63
:10132000BBF1010FC35327F80A3055D130690128AA
:1013300007DD013809F0C0FE0146F06809F0C4FF7E
:1013400000E000200CF064FD834695F8F60098B3A9
:1013500009F0B2FE014658460AF0BEF860B34FF4F9
:101360007A73A9F800300023C4F8FC32C4F81033B3
:10137000C4F82433C4F83033C4F82C33C4F8283309
:101380002AE000BFDCFC000884180020A80600202A
:101390002C050020980700208C070020400000202A
:1013A00008010020000C014030050020EC03002063
:1013B0003C0C002030040020B54B4FF47A7258F8F2
:1013C00003300A2003F5FA7393FBF2F32AF807308F
:1013D0000F21012206F0B0FE0237062F08F10408A3
:1013E00006F114067FF44BAFB9F80030013BA9F8C1
:1013F00000300023A74E06F5397706F54D72F95AED
:101400009A5A8A1AFA520233062BF3D1A24B1B685E
:1014100013F0020300F09883A04BA14F06F23A307C
:101420005B689847388806F23A36002844D0002393
:101430001A46DFF888C2B0F5C87F04BF00214CF817
:10144000021036F903805CF80210DFF848E24144EC
:101450004CF80210002105EB0308F1520233062B71
:10146000DFF848C2A8F8FA1002F10402E1D101281D
:101470001FD1DEF840334FF4C872C83393FBF2F348
:10148000ACF8FA30DEF84433C83393FBF2F3ACF82F
:10149000FC30DEF84833C83393FBF2F2814B1B88F3
:1014A000D21A814BACF8FE2059859985014605F08A
:1014B00089FF3B88013B3B80AB687C4A59077CD560
:1014C000B4F8CA10734B322913D1B2F8FA00A3F85A
:1014D0004C03B2F8FC00B2F8FE20A3F84E03A3F8C8
:1014E0005023714A508D928DA3F85203A3F85423D0
:1014F00001E000293DD000221746DFF8C4E132297F
:1015000004BF00234EF807305EF8070036F902C02A
:1015100005EB020860444EF807004FF0000E26F875
:1015200002E00232062A5B4B6048A8F8FAE007F1B5
:101530000407E2D1012919D15D4A02261670B3F8D9
:101540004C2383F8CCE0A0F8FA20B3F84E2383F8BC
:10155000C610A0F8FC20B3F85023A0F8FE20524A91
:10156000B3F85203B3F85433508593850139A4F886
:10157000CA1094F8C720474BFAB1D3F85803322168
:10158000002290FBF1F083F8C720A5F8FA00D3F809
:101590005C03D3F8603390FBF1F093FBF1F1414B26
:1015A000A5F8FC001B880120C91A3F4BA5F8FE10C6
:1015B00001465A859A8505F005FFB4F83A23B5F837
:1015C000FA30D31AA4F83A33B4F83C23B5F8FC3017
:1015D000D31AA4F83C33B4F83E23B5F8FE30D31A3E
:1015E000A4F83E3306F056FDD4F864330646C31A19
:1015F0001846069309F05CFD2E4A0790D16809F061
:10160000AFFD294BC4F8646393F82E7008900597DA
:1016100000273E46BB46984627490DF12C0A885FB5
:1016200009F04AFD089909F09BFD059A4AF8070060
:10163000002A49D0104609F03FFD01464FF07E5088
:1016400009F042FEDFF87C90034619464FF07E50C9
:10165000029309F07BFC57F8091009F081FDA9F10C
:101660002E010246885F039209F026FD029B19466F
:1016700009F076FD039A0146104609F069FC49F825
:10168000070009F033FF09F10C0929F8060020E0F2
:1016900030040020080100202C0500204405002013
:1016A000681D00202C000020801C002088180020CD
:1016B0005D1D002030050020EC03002048040020C0
:1016C0006004002070040020BF4BA3F13A02B25A1C
:1016D000F252BD4B0437F25E0236062E02FB02BB0D
:1016E000994699D1642303FB0BFBB84B09F1080021
:1016F0001B880BA95B439BFBF3FBABF1490B1FFA68
:101700008BFB06F0EDFDBBF13B0F6BD9B04BD4F872
:101710008463B3F9000009F0CFFC014630464FF076
:10172000010709F0D9FE00B90746AA4B3146D4F8A3
:1017300080035F730CF0E2F90746C4F88803D4F81D
:101740007C03D4F884B300F10046D4F8800301464A
:1017500009F006FD59468146584609F001FD01464B
:10176000484609F0F5FB0CF053FB014630460CF0FF
:10177000C5F90646C4F88C03384609F02DF98EA346
:10178000D3E9002309F07CF909F08CFB0CF0EAF8AE
:10179000A4F89402304609F01FF987A3D3E9002387
:1017A00009F06EF909F07EFB0CF0DCF88A4BA4F826
:1017B00096021B681B076ED50BA9884806F090FDA2
:1017C000B5F8F40009F074FC4FF07E51834609F03F
:1017D000BFFB01464FF07E5009F076FD4FF0000A46
:1017E00005902EE0B5F8F20009F062FC4FF07E5152
:1017F000074609F0ADFB01464FF07E5009F064FD4D
:101800004FF0000B0646764B384653F81B100293F8
:1018100009F0A6FC024639F90B00039209F04CFCD2
:10182000039A0146104609F093FB314609F098FCF3
:10183000029B43F81B000BF1020BBBF1060FE2D138
:1018400064E7DFF8AC91584609F5647252F81A1053
:10185000039209F085FC09F5D271844631F90A003A
:10186000CDF810C009F028FCDDF810C00146604634
:1018700009F06EFB059909F073FC039A42F81A000F
:101880000AF1020ABAF1060FDBD1104606F0E0FDBC
:10189000A9F8C40044E0DFF85CB151460BF1040044
:1018A00006F01EFDDBF80400DBF808300146DBF82B
:1018B0000CA0029309F054FC029B8146194618467D
:1018C00009F04EFC0146484609F042FB514681466C
:1018D000504609F045FC0146484609F039FB0CF03A
:1018E00097FA0021814609F0CFFDA0B9DBF804008A
:1018F000494609F0E9FC4946CBF80400DBF808004A
:1019000009F0E2FC4946CBF80800DBF80C0009F0CE
:10191000DBFCCBF80C00334806F09AFDA4F8C400B9
:101920003149079809F01CFC06F10046814607F191
:101930000047B4F9C4000F960E9709F0BDFB00F103
:10194000004009F049F81EA3D3E9002309F098F8F4
:1019500009F0A8FA1090B4F9740309F0ADFB1190E6
:10196000B4F9760309F0A8FB1290B4F9780309F0F2
:10197000A3FB0EA9139011A806F0B2FC1B4B1C4E42
:1019800093F84430012B37D1124B5B7873B9D6F8FA
:101990009C33402093FBF0F0181A09F08DFB13994B
:1019A00009F0D6FA09F0A2FDC6F89C03D4F89C33DE
:1019B000402093FBF0F021E03B597E90A9E7814065
:1019C000399D52A246DF913F7C0400202C0000206C
:1019D000BC050020A80600202C050020980400204B
:1019E0008404002004000020BD378635801C0020C0
:1019F0000801002000000020B94B188809F05CFBAA
:101A00000146139809F0A2FAB64B1390196848469C
:101A100009F09EFA0146484609F056FCD4F8A07336
:101A200081463946139809F091FA0146484609F073
:101A300097FB0146384609F08BFA0746C4F8A00325
:101A40001198D4F8B8920BF08DFF98F8301006F08A
:101A50007BFD4844C4F8B8021298D4F8BC920BF04D
:101A600081FF98F8301006F06FFD4844C4F8BC02BE
:101A70003846D4F8C0920BF075FF98F82F1006F096
:101A800063FD994B069F1A6848443A441A60D4F89B
:101A9000C432964E0133C4F8C43298F87630C4F894
:101AA000C002002B56D0D6F87C03D6F880930146AE
:101AB00009F056FB49468046484609F051FB01466D
:101AC000404609F045FAD6F88473804639463846D0
:101AD00009F046FB0146404609F03AFA0CF098F945
:101AE0000146384609F0F0FB8149074609F0E0FC61
:101AF00018B10023A6F8A4332CE038460BF0AEFF53
:101B00007C4B196809F02CFB0BF02CFFB0F5617FC2
:101B1000A8BF4FF4617008F04DFF6FA3D3E9002315
:101B200009F0D8F809F0BEF90BF05AFF724B0746DE
:101B300093F8760009F0C0FA394609F011FB0BF072
:101B400011FFA6F8A40305E0A6F83A33A6F83C3343
:101B5000A6F83E336B79012B0ED1B4F9A623B4F964
:101B6000E83203EB4203032293FBF2F39BB2A4F8A7
:101B7000AC33A4F8A63303E0B4F8E832A4F8AC33ED
:101B8000B4F8E432594FA4F8A833B4F8E6325A4E08
:101B9000A4F8AA3306F07EFA584BE0651A6818607C
:101BA000821AA4F8AE2300F0F3FD554B196811F02A
:101BB000080F34D0B7F8E62002F145039BB28A2B18
:101BC00029D8504B58799E4628B3B7F8F430B7F867
:101BD000C400C01A80B283B21FB2B337BCBF00F5D5
:101BE000B4739BB218B2B3289EF80D70C4BFA3F5AE
:101BF000B4739BB295F8EC008FB140B240424343BE
:101C0000707A1BB243436FF01D0093FBF0F31A444C
:101C1000A4F8E62003E0B4F8C430A4F8F4304F0789
:101C200040F19780374B9A79002A00F092801F7C10
:101C3000002F40F0848096F8730096F872202B4BAA
:101C400080B3B4F8E8C0B4F9E0000FFA8CFEC0EB42
:101C50000E08B8F1000FB8BFC8F1000890450FDDBD
:101C60008645C8BF52421FFA8CFCC8BF92B2C3F867
:101C7000EC706244012783F8B073A4F8E82068E0B0
:101C800093F8B0232AB1D3F8DC2083F8B073C3F8FB
:101C9000D820D4F8F030B5F8D2201844B5F8D030B8
:101CA000984244E0B4F9E070B4F9E8E0C7EB0E0EF6
:101CB0008EEAEE7CACEBEE7C944525DD02229EFBA9
:101CC000F2F2C3F8D422012283F8D02283F8B023A1
:101CD00025E000BFAFF30080A2EB0FE5DD169640D4
:101CE0002C000020C8050020601D002008010020F5
:101CF0008FC2753CC4050020801C0020380C0020D9
:101D00002C050020A806002093F8B0233AB1D3F8A0
:101D1000DC2083F8D002C3F8D82083F8B003D4F8CD
:101D2000F020B5F8D0303A44B5F8D2009A4203DB3F
:101D30008242B4BF13460346A4F8E83009E0B4F881
:101D4000E42095F92301D4F8F03000FB0323A4F834
:101D5000E43096F876305BB1A94BDA780AB91B7992
:101D600033B1B4F8E830B4F8A4231344A4F8E8304D
:101D7000880640F1B180A24BDA791AB91A7A002AA2
:101D800000F0AA801B7B002B00F0A680B4F9C400F1
:101D900009F092F99B4909F0E3F980460BF020FE27
:101DA000814640460BF0A8FD96F8C5A08046964FA8
:101DB000B4F92201BAF1000F5CD0B7F81E31CAF1B4
:101DC00000071FFA83FB1BB2C01A06F081FDB84260
:101DD00003DB5045A8BF504600E03846B4F81C313C
:101DE0008344B4F920019AB21BB21FFA8BFBC01ACC
:101DF000A4F81EB1039206F06BFDB842039A03DB10
:101E00005045B4BF074657461744BFB2A4F81C71EB
:101E10000FFA8BF009F050F9824638B209F04CF90C
:101E200041460746504609F09BF9494683463846E5
:101E300009F096F90146584609F088F8734909F007
:101E400043FA09F053FB4946A4F81801504609F03B
:101E500087F941468146384609F082F901464846ED
:101E600009F076F8694909F02FFA09F03FFBA4F868
:101E70001A0131E009F020F98346B7F9200109F091
:101E80001BF941468246584609F06AF9494603461D
:101E90005046029309F064F9029B0146184609F086
:101EA00055F85A4909F010FA09F020FB4946A7F8FD
:101EB0001801584609F054F941468146504609F048
:101EC0004FF90146484609F043F8504909F0FCF93A
:101ED00009F00CFBA7F81A014D4B1B6998474D4BB5
:101EE0001A78032A13D9B4F9E600B4F9B613002816
:101EF000B8BF40426FF063031B1A994204DB00F144
:101F000064038B42A8BF0B46A4F8B6331DE0012A38
:101F10001BD86B79013B142B00F2C782DFE813F06A
:101F2000C200C502C5028000D500C502C502CE01AF
:101F3000C502C502C502C502C502F100C502C5023F
:101F4000C502C502C5026502930296F9BEB0B4F996
:101F5000B613CBF1000B01FB0BFBB4F8E830B4F87F
:101F6000B493B4F8B2A32C4F4FF00008904507F19A
:101F70001007CED218B20392029309F09DF857F8D9
:101F8000101C09F0EDF884460FFA89F0CDF810C066
:101F900009F092F857F8081C09F0E2F8DDF810C0D3
:101FA0000146604608F0D4FF84460FFA8AF0CDF867
:101FB00010C009F081F857F80C1C09F0D1F8DDF8D1
:101FC00010C00146604608F0C3FF84465846CDF86D
:101FD00010C009F071F857F8041C09F0C1F8DDF8D9
:101FE00010C00146604608F0B3FF09F07FFA0B49C4
:101FF000029B21F81800039A08F10108B6E700BF18
:10200000A806002035FA8E3C08010020000020417F
:1020100000000020641C0020E8050020661C002051
:1020200096F89E30042013F0020F0CBF4FF0010B06
:102030004FF0FF3B13F0010F0CBF4FF0010A4FF0C0
:10204000FF3A06F039F9B4F8B693B4F8B4830BFB51
:1020500009FB0AFB08FA96F8A6301FFA8BFB13F06F
:10206000020F0CBF01224FF0FF32B04F584413F063
:10207000010F1FFA8AFA82440CBF01234FF0FF338D
:10208000052002FB09F903FB08F8A7F808A006F0F1
:1020900013F91FFA89F91FFA88F848448044A7F811
:1020A0000A8002E296F8A630052013F0010FB4F87A
:1020B000B6330CBF01274FF0FF375F4306F0FCF843
:1020C000BFB29A4B38445881EFE1002006F0F4F893
:1020D000B4F9962296F97E304FF032085343934F6D
:1020E00093FBF8F318443880012006F0E5F896F9E0
:1020F0008630B4F99422534393FBF8F84044788037
:10210000D3E18B4B894F5A789A4612B9B5F8D4303F
:102110000BE0B4F9E820B5F8D030B5F8D2109A4207
:1021200003DB9142B4BF0B461346FB81FA89814B16
:1021300081491A8095F82431002B42D003F1FF38F1
:102140007E4B96F8D80033F91820B1F82631B1F853
:1021500028119A4203DB8A42B4BF13460B46B5F8F6
:102160001A2195F82211D21A92B2B1B1B4F9B8334A
:1021700012B2934209DA1944994203DB8A42B4BF8E
:1021800013460B46A4F8B83309E008DD591A91420A
:1021900003DB9942B4BF0A461A46A4F8B823B4F840
:1021A000B89343B2C9F10008012B1FFA88F809D08F
:1021B000032B02D0012B06DDC8464B46C14698468C
:1021C00001E09846C14695F82531002B36D0022013
:1021D00006F072F8B6F98820B6F88A30904203DB30
:1021E0001AB29042B8BF0246B5F81A0195F822110A
:1021F000821A92B2B1B1B4F9BA3312B2934209DA87
:102200001944994203DB8A42B4BF13460B46A4F833
:10221000BA3309E008DD591A914203DB9942B4BF91
:102220000A461A46A4F8BA23B4F9BA2396F98E30AE
:102230005343642293FBF2F31844B8809AF80A30AF
:1022400073B1B4F8E230FB803B81B4F8E6307B81B7
:10225000B4F8E430BB81DFF8D4B04FF0030A09E0F2
:10226000B4F8B233FB803B81B4F8B6337B81B4F869
:10227000B433EFE706EBCA03BBF9062093F97E30CF
:1022800050465343642293FBF2F3ABF806300293BB
:1022900006F012F8029B0AF1010A1844BAF1070F7E
:1022A000ABF806000BF1020BE4D1FB8899443B89A3
:1022B000A7F806909844A7F80880F6E01C4B1B4F3F
:1022C0005A78194612B9B5F8D4300BE0B4F9E820C1
:1022D000B5F8D030B5F8D2009A4203DB9042B4BFD3
:1022E00003461346FB81FA89124B96F896801A80B2
:1022F0008B7A18F0010F0CBF01204FF0FF30FBB1BB
:10230000B4F9E430D6F8D4905843029308F0D4FEE0
:10231000494608F025FF18F0020F8346B4F9E2A001
:102320000CBF01204FF0FF301EE000BF86000020F0
:10233000A8060020661C002088180020180700202E
:10234000B4F9B433D6F8D4905843029308F0B4FEED
:10235000494608F005FF18F0020FB4F9B2A383460E
:102360000CBF01204FF0FF30D6F8D0800AFB00F000
:1023700008F0A2FE414608F0F3FE0146584608F078
:10238000E7FD09F0B3F896F89EB0029B1BF0010F31
:10239000F8800CBF01204FF0FF30584308F08CFE4E
:1023A000494608F0DDFE1BF0020F81460CBF0120FC
:1023B0004FF0FF300AFB00F008F07EFE414608F0C7
:1023C000CFFE0146484608F0C3FD09F08FF838817A
:1023D000032005F071FFFB881844F880042005F005
:1023E0006BFF3B89184438815FE096F89E20B4F873
:1023F000B43312F0010F0CBF4FF001084FF0FF385B
:1024000008FB03F8A94F1FFA88F80420A7F80880F2
:1024100005F052FF96F8A620B4F8B23312F0010F7F
:1024200040440CBF4FF001084FF0FF3808FB03F8A1
:1024300038811FFA88F80520A7F80A8005F03CFFCC
:102440004044788131E0B4F8B6A3032706EBC70314
:1024500093F87E30C7F1060113F0020F0CBF012282
:102460004FF0FF3202FB0AF221F00101214413F088
:10247000010FB1F8B2130CBF4FF001094FF0FF3953
:1024800009FB0129DFF824821FFA89F928F817903F
:10249000384605F011FF484428F817000137072F88
:1024A000D4D1B4F8E820824B1A80AB68990631D5B4
:1024B000002005F001FF7D4F80463880012005F0A7
:1024C000FBFE94F8B0307880DFF808E213B396F89A
:1024D000C030BEF9941213F0020F96F986204FF027
:1024E000320396F97E40BEF996E218D04A43644220
:1024F0000EFB04FE92FBF3F26FF0310192B29EFBF1
:10250000F1F111449EFBF3FE88447244A7F8008069
:1025100010447880674B684A03F1100411E00EFB09
:1025200004F44A4394FBF3F4A04492FBF3F3A7F8BA
:1025300000801844EDE723F8021FA34202F10802CD
:102540000CD0B3F90200B2F97810B2F87A70884270
:10255000F1DB39B28142A8BF0146ECE796F8C03002
:102560005A0706D4554B524A93F800C011880123EC
:102570000FE0534B0024DE7D043E524BA01903EBC9
:102580004403C0B21989013406F08CFA042CF4D14A
:10259000E8E7634508D232F9130009B28842A8BFC0
:1025A000014689B20133F4E7B5F8D200B5F8D0603E
:1025B000431A1FFA83F9AB68B5F8D44003F480429C
:1025C0000992404A03F0100B3F4BB2F90620B5F8D0
:1025D000D6705B78B5F81AA1B5F8D8E0B5F81C51FB
:1025E0000192B2B208930697059507921FFA84F8F4
:1025F0004FEA4C0C0023634539D00AB282422C4D7D
:1026000002DDEA5A4A44EA52099F294AA7B1019DCC
:102610005545D55E07DD754503DB8542A8BF0546F8
:102620001CE075461AE0A54204DB069FBD42A8BF28
:102630003D4613E0254611E0ED5EB54203DB8542E1
:10264000A8BF054600E03546D552059F019DBD4215
:1026500005DA079DBBF1000F18BF4546D552089A11
:102660001AB91A4A9D5A124A9D520233C3E7144BB3
:102670009B7D002B62D0164A5379013B142B51D815
:10268000DFE803F00B50503853505030505050504A
:1026900050405050505050384000074B93F8BF30D6
:1026A000D3B1024B0020598946E000BF86000020CC
:1026B000661C002084000020801C0020641C002078
:1026C000D005002018070020A8060020C404002020
:1026D00088180020080100202B4B58780028E0D1F2
:1026E000014629E0294C0020E18806F0DBF90120B1
:1026F000218921E0254C0020218906F0D3F9012011
:10270000618919E0214C0020E18806F0CBF9012015
:10271000218906F0C7F90220618906F0C3F9032078
:10272000A18909E093689B0608D5184C00202188F0
:1027300006F0B8F96188012006F0B4F905F0A0FDB3
:102740001EE0114B1B78002B3DF4B3AE05F01AFDD3
:10275000FDF7AFBE012202E0022200E003225FFA91
:1027600082F9002009F1FF33014685F8D83304F0DF
:1027700029FE022028214A4605F0DEFCFDF70EBFA7
:1027800015B0BDE8F08F00BFA8060020860000202D
:10279000634B2DE9F04FB3F90600624B8DB0DA8C34
:1027A00090420FDBB0F5FA6F93F8254007DA811AF3
:1027B0004C43A2F5FA6294FBF2F4643403E0C4F1F2
:1027C000640400E06424584A93F82360B2F81A11B4
:1027D00092F9EC2093F8705093F87170524293F88C
:1027E000243092B2049100210692059607930A467E
:1027F0004B4BDDF810C031F9038040F2E636CCEBEC
:10280000080303F2F31EB64503D8002BB8BF5B42A2
:1028100001E04FF4FA73022ADFF814C12CD025B17D
:10282000AB42CCBFC5EB030300236426DFF804A151
:1028300093FBF6FE6FF0630B3AF81E900BFB0E3B1A
:102840000EF1010E3AF91EA00FFA89FECEEB0A0E28
:102850000EFB0BFE9EFBF6FECE442CF801E0DDF8ED
:1028600014C003FB0CFE314B9EFBF3F333449BB2CD
:10287000634393FBF6F314E027B1BB42CCBFC7EB35
:1028800003030023DDF818E003FB0EF6ACF8046048
:10289000079E002BB8BF5B427343244E93FBF6F3B5
:1028A0006433DFF88090DFF890C002EB090696F8F9
:1028B00001A096F80BB0767D03FB0AFA03FB0BFB35
:1028C00073434FF0640E9AFBFEFA02F80CA093FBE0
:1028D000FEF30CF1030A0CF1060C02F80C30DDF8E3
:1028E00010C09BFBFEFBE04502F80AB0104B05DA76
:1028F00033F801E0CEF1000E23F801E00132032AA3
:1029000001F102017FF474AF074DB5F81C2190422C
:1029100014DBB0F5FA6FA8BF4FF4FA600FE000BF08
:1029200018070020801C0020881800200CFEFFFFE4
:10293000EA010020400C00204E0C00201046801AB6
:102940004FF47A714843C2F5FA62B0FBF2F24FF0ED
:10295000640CB34C92FBFCF104EB4100B0F818E0BE
:102960006FF0630000FB012204EB4101B1F91A0092
:102970000FFA8EF1411A4A4392FBFCFCE644A3F89D
:1029800006E0A84BA84F5B7A002B44D0A74BB3F9C5
:102990000000A74BB3F90030C01A08F00BF89EA353
:1029A000D3E9002308F06CF80022A24B08F092F95A
:1029B00008F078FA80460AF09FFF814640460BF007
:1029C0000FF88046B7F9020008F076FB8246B7F9A7
:1029D000000008F071FB4946834608F0C1FB414600
:1029E0000646504608F0BCFB0146304608F0AEFAF9
:1029F00008F07CFD49463880504608F0B1FB41465E
:102A00008146584608F0ACFB0146484608F0A0FA5B
:102A100008F06CFD7880D5F80880DFF848A218F03F
:102A2000020F00F08380844B06211A88236B7C4FB1
:102A30001A4494F8343022630133DBB2B3FBF1F96A
:102A400001FB193919F0FF0684F8343004965CD183
:102A50007A4E7B4B7078B96B33F810E04FF0080B6F
:102A600091FBFBF01FFA8EFE081A7044B86390FBCE
:102A7000FBF080B20392019308F01EFB714908F04D
:102A80006FFB714908F020FC81469AF80B0108F0B1
:102A900013FB0146484608F063FB08F04DFD9AF829
:102AA0000E11B887039A019B79B37079396C33F8AA
:102AB000100091FBFBF380B2CB1A03443B6493FB01
:102AC000FBF39BB240F6E441594340F6FF70B1FB83
:102AD000F0F1BAF808014FF47A73091A5943BAF8B9
:102AE000060191FBF0F14A4392FBF3F37964D7E9D5
:102AF0001201C01841EBE371C7E91201534A0023E8
:102B000008F03AFD049E38653E63514AA38F12884F
:102B10009A4203D395F80D219A4203D9002384F8F1
:102B2000543003E03E4B042283F8542049483C4B88
:102B3000417B94F8542001B1012118F4007F83F8FF
:102B4000551022D0444E454B96F8B8101B8801EB27
:102B5000810618B2B04215DD324E76787EB101267C
:102B600084F856603C4E96F8B960314401EB81011F
:102B7000884207DD2A49022081F8560002E002213E
:102B800084F856100BB984F85630354E33689B06DE
:102B90000CD530498B7A0BB9CB7A23B1214BDB7A38
:102BA0000BB9012300E0002384F8573094F8561045
:102BB0001B4B022902D14C204E211DE0012904D1DA
:102BC0004D2153204C220B4607E093F85710012962
:102BD00006D1532001464E224D2302F07DFC4EE0EB
:102BE00093F85510012903D1532001460246F3E71B
:102BF000042A03D153204D210A460AE0022A03D1B8
:102C0000532001464D2204E0012A2DD153204D21AD
:102C10004E224423E1E700BF182D4454FB21094014
:102C2000400C0020A8060020EA010020CC01002072
:102C3000FE01002000806640B6040020F40400205D
:102C4000FC0400203333534000F07F45407E0500F4
:102C500004050020B0010020801C00202401002079
:102C60002C05002088180020B04A107818B13220B6
:102C700002F004FC03E083F8580005F003FAAC4BC3
:102C80001A8812B133689F0702D4AA4B1B882BB154
:102C9000A94BDA6882F00802DA600FE0A74B9A7855
:102CA00012B1A54A082111615B7813B1A24B082229
:102CB0005A61A34B1B780BB106F0F4FEAB68180603
:102CC00062D5A04AA04F1368E26D9A1A002A5BDB16
:102CD00003F543435033FB6597F860309BB97A2383
:102CE0008DF82430994B0222B3F900306D20C3F1E6
:102CF000B40393FBF2F38DF82530FF2109AB03F009
:102D000047F9012325E0012B26D191497923B1F917
:102D100000208DF824300A2392FBF3F25A32B42AB1
:102D2000A8BFB42222EAE2728DF82520B1F9022070
:102D30006D2092FBF3F35A33B42BA8BFB42323EADC
:102D4000E3738DF82630FF2109AB032203F020F94D
:102D5000022387F8603017E0022B15D164238DF829
:102D6000243001238DF82530744B6D205B78FF21D2
:102D7000002B18BF01238DF82630032209AB03F086
:102D800007F9002384F860306E4B1A68636ED31A1B
:102D9000002B11DB694B597B61B99970664BD9687F
:102DA00081F00801D96002F5F423674A03F59073B6
:102DB000536601E001229A700027D4F87021624B1B
:102DC0009742DFF8A4A180F2398703F168014C2013
:102DD00000FB07115F4A11609AF80010914619B183
:102DE00002F004F800F02ABF93F8003113B15A4AF8
:102DF0005A4BDA60D9F80030DFF858A1186804F0AF
:102E000098FE002800F01787DAF80030186804F000
:102E10008BFEDAF8003093F84920C2B9B0F12401F2
:102E20004A424A4183F84920002AE3D1434B5B7868
:102E3000002BDFD1232802D101F0D8FFDAE795F883
:102E4000D9338342D6D1464A464B1A60CFE7012A8E
:102E500005D14D2814BF0022022200F0E8BE022A4C
:102E600005D13C2814BF0022032200F0E0BE032A53
:102E70000DD140284FF0000200F2D98683F8472098
:102E80005A7183F848001871042200F0D0BE042A59
:102E900007D11A7983F8460050401871052200F0D6
:102EA000C6BE052AA6D193F8481093F84720914250
:102EB000197907D941401971511C83F847101344FF
:102EC000987197E7814240F0AF8693F84630752BB2
:102ED00000F02C8400F21181692B00F0718300F264
:102EE000C280452B00F0818640D8422B00F03A8604
:102EF0000CD8402B00F05C86412B40F08C860020E3
:102F000004F04AFE4FF0000A00F063BE432B00F0CD
:102F1000FD85442B40F07F86002004F03DFE0A4BE7
:102F2000012283F8002100F07ABE00BF5D1D002061
:102F3000681D00203C0C0020000C0140A806002069
:102F4000340C002064010020400C0020CC01002043
:102F50009C030020440000200400FA0500ED00E07E
:102F6000EFBEADDEF04F0020701D0020662B00F09C
:102F700094826CD8642B00F06182652B40F04B8604
:102F80000B2004F009FED84BDFF878A3B3F900005A
:102F900004F005FEBAF81E0100B204F000FE33682A
:102FA000C3F3C000C3F38002800040EA4200C3F3D1
:102FB00040021043C3F3401240EAC20003F0100382
:102FC000184304F0ECFDC94A002092F804E0D378DD
:102FD0004FEA8E0E4EEA430E53784EEA030E937973
:102FE0004EEAC30E53794EEA431E537A4EEA831ECD
:102FF000BF4BD9794EEAC11E197A4EEA012E597A91
:103000004EEA412ED1794EEA812E117A927A4EEA19
:10301000C12E4EEA023E5A7B9AF81C114EEA423EFD
:103020009A7B4EEA823E1A7C4EEA024E1A794EEAAA
:10303000021E5A7C4EEA424E9A7C4EEA824EDA7C5E
:103040001B7D4EEAC24E4EEA035E03460EE2672B3C
:1030500000F06382682B40F0DE85102004F09CFDB8
:103060004FF0000AA1E26F2B00F0288324D86C2BCC
:1030700000F0D88218D86A2B00F0B2826B2B40F097
:10308000CA85DFF880A2052004F086FDBAF9220186
:1030900004F085FDBAF9240104F081FD9AF80601D7
:1030A00000F0010000F062BC6D2B00F0CA826E2BB4
:1030B00000F0D28200F0AFBD722B00F0D88311D89F
:1030C000702B00F01B83712B40F0A585DFF834B224
:1030D0004FF0000A9BF81C01400000F0FE0004F0D5
:1030E0005BFD61E3732B00F00884742B40F0938543
:1030F0004FF0000A4FF0010B7AE3CE2B00F08884EA
:1031000044D8C82B00F094802BD8782B00F015827F
:103110000FD8762B00F00084772B40F07C85DFF809
:10312000E4A14FF0000B9AF81C0104F035FD534662
:1031300095E3A02B00F09884A42B40F06C85DFF879
:10314000C4A14FF0000B9AF82E0180000130C0B2EC
:1031500004F022FD9AF82E0104F0F0FC534600F032
:1031600091BCCB2B61D009D8C92B75D0CA2B40F0AC
:103170005285DFF8A4A10AF10A0B90E0CC2B00F0F5
:10318000CF80CD2B00F03A8400F045BDD42B00F069
:10319000F08116D8D12B00F0EC8307D8CF2B00F0AC
:1031A000E280D02B00F0218400F035BDD22B00F05E
:1031B0003081D32B40F02F8505F046F84D4B188019
:1031C000CCE0F02B00F0448410D8D62B00F0148112
:1031D000EF2B40F0208505F037F8DFF838A1AAF88A
:1031E0002C0005F031F8AAF82A00B7E0FA2B00F01D
:1031F0001784FE2B40F00F85082004F0CDFC3E4BD9
:103200003E4A1B684FF0000AB3FBF2F3C3EB4311D5
:1032100003EB81033A490968B1FBF2F2394902EB49
:10322000C303A1F82C3100F008BC4FF0000A47E0BE
:103230004FF0000A05F008F8334B23F80A000AF1B2
:10324000020ABAF1100FF5D1002004F0A5FC2F4BB3
:1032500001221A7000F0E3BC04F0EBFF234BDFF80F
:10326000BCA0D87204F0E5FF294B187004F0F6FFFB
:10327000CAF8000004F0F2FFCAF8040004F0E4FF0A
:10328000DFF880A0AAF8020104F0DEFF9AF8063108
:10329000AAF8040143F002038AF806315EE004F064
:1032A000C8FF0AF1010A8AF8010004F0C2FF8AF897
:1032B0000B0004F0BEFFDA458AF81500EFD14DE0AF
:1032C000104B93F81C21924548D203F207131AF8C9
:1032D00003B004F0B9FF0F4B0AF1010A03EB4B03F3
:1032E000A3F84600ECE700BFB6040020A8060020C3
:1032F000B0010020FC0100201400002040420F001B
:1033000098000020400C00201807002060010020D9
:1033100000020020801C00207F1C002018020020DA
:1033200004F087FFDFF85CA48AF81F0004F081FF37
:103330008AF8200004F07DFF8AF8230004F079FF6A
:103340008AF8240004F075FF8AF8250004F071FF64
:103350008AF8210004F06DFF8AF82200002004F0B2
:103360001BFC00F05CBC04F06FFF6FF4AF628318CD
:10337000DFF8DCA3C62B98BFAAF81A0104F064FF9B
:10338000AAF8D00004F060FFAAF8D20004F05CFFB5
:10339000AAF8D40004F058FFDFF8E8B3ABF8BA009D
:1033A00004F047FF8AF8300104F043FF8AF8310146
:1033B00004F03FFF8AF8320104F03BFF8AF80A016B
:1033C00004F037FF8AF82A0104F033FF04F03CFFD1
:1033D00000EB80004000ABF8280004F02AFF8AF8D8
:1033E0000B0104F026FF8AF80D0104F022FF8AF891
:1033F0000C0104F01EFFB1E74FF0000A04F024FFB7
:10340000D14B23F80A000AF1020ABAF1100FF5D1E4
:10341000A4E7CE4B5B78002BA0D104F00AFFCC4B85
:10342000022883F8D8034FF0000088BF002201462D
:1034300088BF83F8D82303F0C5FF8FE70720DFF8A4
:1034400010A304F0A9FBE72004F078FB9AF805002C
:1034500004F074FB002004F071FB9AF82201BD4BCC
:10346000BD4A00280CBF10461846D1E38B420ED24D
:10347000BA4A13F802C0012202FA0CFC1CEA0E0F31
:1034800018BF9A4003F1010318BF1043EEE704F0A0
:1034900090FBAF4B93F8D80368E2122004F07CFB5A
:1034A000AF4BDFF8E4A21B88B3F5806F28D94FF04B
:1034B000000B3AF90B00082390FBF3F00BF1020B21
:1034C00004F06DFBBBF1060FF3D1DFF8C0A2BAF92F
:1034D000000004F064FBBAF9020004F060FBBAF9E2
:1034E0000400DFF8ACA204F05AFBBAF9000004F0C3
:1034F00056FBBAF9020004F052FBBAF9040054E397
:10350000BAF9000004F04BFBBAF9020004F047FBE3
:10351000BAF9040004F043FBD7E7102004F03CFBA9
:103520004FF0000A8F4B13F80A000AF1010A04F069
:1035300005FBBAF1100FF5D171E3382004F02CFB34
:10354000DFF840A20AF1400BBAF9780004F027FB3B
:10355000BAF97A0004F023FBBAF97C0004F01FFBEF
:103560000AF1080A9AF8760004F0E8FADA45EBD195
:1035700055E3002004F010FBDFF808A20AF1400B2D
:1035800004F062FEAAF8780004F05EFEAAF87A0061
:1035900004F05AFEAAF87C0004F04BFE0AF1080A77
:1035A0008AF87600DA45EBD139E36F4B13F80A005D
:1035B0000AF1010A04F0C2FABAF1100FF5D12EE3B4
:1035C000102004F0E9FA4FF0000A684B33F90A00C2
:1035D0000AF1020A04F0E3FABAF1100FF5D11EE382
:1035E000102004F0D9FA594BDFF8A8A1D87A04F0DA
:1035F000A5FA5F4B187804F0A1FADAF8000004F09D
:10360000D8FADAF80400DFF890A104F0D2FABAF997
:10361000020104F0C4FABAF9040104F0C0FABAF9DC
:103620002001C2E2DFF874A1062004F0B5FABAF96D
:10363000000004F0B4FABAF9020004F0B0FA4D4BFD
:1036400007E0062004F0A8FA4B4B186804F0B1FA22
:103650004A4BB3F90000A8E2DFF83CA1072004F0D0
:103660009BFABAF83C004FF6FF7BFF28A8BFFF206B
:10367000C0B204F063FADAF850005845A8BF5846C3
:1036800020EAE07000B204F08AFA3D4BB3F9000082
:1036900004F085FA2E4BDAF8440093F80A3100283A
:1036A000B8BF40422BB10A2358435845A8BF5846DB
:1036B00002E05845A8BF584600B276E2DFF8C4A041
:1036C000072004F069FA9AF81F0004F037FA9AF814
:1036D000200004F033FA9AF8230004F02FFA9AF845
:1036E000240004F02BFA9AF8250004F027FA9AF83F
:1036F000210004F023FA9AF8220037E11E2004F09A
:103700004BFADFF89CA00AF10A0B0AF1010A9AF8B9
:10371000010004F013FA9AF80B0004F00FFA9AF87B
:10372000150004F00BFADA45EFD178E22F2004F00F
:1037300033FADFF870A01AF8010F002800F06F824A
:1037400004F0FCF9F7E700BFC4040020A80600203D
:10375000881800200C0000C0040000C0470D0020A5
:103760002C00002086000020661C00201807002086
:1037700000020020CC010020E4010020D40300203E
:10378000C6010020801C00207C040020B004002022
:10379000AC02002018020020400C00209C030020F6
:1037A0007F1C00209B0101089BF81C319A4580F08A
:1037B0003682C54B1AF80320C44B0AF1010A03EB09
:1037C0004203B3F9460004F0EAF9EDE7824408F158
:1037D0000108BF4991F81C0180450CDBBBF1000FCB
:1037E00000F01D825FFA8AF004F0D6F94FF0000B6A
:1037F0004FF00008EDE701F20711B64818F8011084
:103800004FF00C0E0EFB0101496B0846049109F0C4
:103810002AFE8446BBF1000FD8D159466145D6DA5D
:10382000049A505C0291CDF80CC004F087F902991B
:10383000DDF80CC00131F1E7A74AA3495244127ADE
:103840001BF80100904203D1019304F077F9019B2A
:103850000AF10C0ABAF1FC0FEED10BF1010B93F84F
:103860001C21934580F0DB814FF0000AE4E7DFF88C
:1038700094A2162004F090F9BAF91A0104F08FF915
:10388000BAF9D00004F08BF9DFF840B2BAF9D200EF
:1038900004F085F9BAF9D40004F081F9BBF9BA0053
:1038A00004F07DF99AF8300104F048F99AF83101F2
:1038B00004F044F99AF8320104F040F99AF80A0148
:1038C00004F03CF99AF82A0104F038F9002004F0D9
:1038D00035F9BBF928000A2390FBF3F004F05FF9F7
:1038E0009AF80B0104F02AF99AF80D0104F026F970
:1038F0009AF80C0104F022F937E0082004F04CF9A2
:103900004FF0010A5FFA8AF00AF1010A04F016F991
:10391000BAF1090FF6D182E104F08BFC03461220C4
:10392000019304F039F9019B0BB96C4A02E0102BAA
:1039300005D16B4AD2F800B0D2F804A002E04FF0F3
:10394000000AD346184604F0F9F8584604F031F955
:10395000504604F02EF9634B186804F02AF9002051
:1039600004F01DF9002004F01AF9002004F0E6F834
:1039700055E104F05EFC834604F070FC039004F013
:103980006DFC019004F06AFC824604F05DFC04F0DA
:103990005BFC04F04EFC039A019BBBF1000F0FD1BE
:1039A0004E4981E80C00504B012283F807B01A738E
:1039B000BAF1000F3FF4D2AC4A4BC3F800A0CDE4FB
:1039C000BBF1100F7FF4CAAC454981E80C00BAF195
:1039D000000F02D0434BC3F800A04148434B0222E2
:1039E000011D1A7005F046FBB8E43F4B5B78002BD5
:1039F0007FF4B4AC012006F00BFCAFE43A4B5B78EB
:103A0000002B7FF4ABAC3A494FF4C8730B80A5E4AC
:103A1000354B5A78002A7FF4A1AC01229A739DE4B9
:103A2000314B93F801A0BAF1000F40F0F4805046FA
:103A3000012103F0C7FC504691E42E4B33F90A00F4
:103A40000AF1020A04F0ABF8BAF1080FF5D1E6E08A
:103A5000DFF878A0042004F09FF8BAF92C0004F0F5
:103A60009EF8BAF92A00A0E00C2004F095F8224B49
:103A7000186804F09EF8214B186804F09AF8204B5F
:103A80001868C5E093F82E21934580F0C880DFF8D0
:103A900078A01AF80B00019304F050F80AF1100214
:103AA00012F80B0004F04AF80AF1200212F80B0099
:103AB0000AF1300A04F042F81AF80B0004F03EF85C
:103AC0000BF1010B019BDDE7470D0020801C00205E
:103AD000400C00209C010108CC01010804020020D8
:103AE00010020020E0010020A80600200C020020A7
:103AF000681D0020660D0020E8F7FF1FECF7FF1F90
:103B0000F0F7FF1F881800206F0D0020002004F040
:103B100043F804F08EFBDFF858A10023CAF8083000
:103B20008AF8050004F09AFBDAF808301843CAF85E
:103B3000080004F07EFB8AF8170104F085FBAAF860
:103B4000E60004F081FBAAF8E80004F07DFBAAF887
:103B5000EA0004F079FBAAF8060104F075FBAAF864
:103B600008015CE0DFF808A1102004F015F89AF8CD
:103B7000050003F0E3FFDAF8080004F01AF89AF8F9
:103B8000170103F0DBFFBAF9E60004F008F8BAF910
:103B9000E80004F004F8BAF9EA0004F000F8BAF911
:103BA000060103F0FCFFBAF9080103F0F8FF36E064
:103BB000082003F0F1FF4FF0000A2D4B534493F817
:103BC0000F010AF1010A03F0B9FFBAF1080FF4D1AD
:103BD00025E004F02EFB264B53440AF1010ABAF10A
:103BE000080F83F80F01F4D119E0132003F0D4FF7C
:103BF0004FF0000A1F4B13F80A000AF1010A03F004
:103C00009DFFBAF10B0FF5D1002003F0D2FF002089
:103C100003F0CFFF03E00120002103F09FFFD9F85C
:103C20000030187903F08AFFD9F80030002283F8B9
:103C30004920FFF7DFB80137FFF7BFB89AF8003027
:103C400023B133689B0600F19E82B3E2AA68084B59
:103C50001705F6D5084A1278002AF2D093F83F21CA
:103C6000AAB993F840315BB9044B5B780AE000BF16
:103C700088180020EE100108340C0020A80600204F
:103C8000D24A137D003318BF0123002BD9D095F8F9
:103C90003E31002B40F08281CD4BD86803F049FFC4
:103CA000002840F07B81CB4FD4F874113A68CA4B9E
:103CB000511A7C29B84640F27181C3F8742193F8F7
:103CC00078210746013283F8782107F12400C0B239
:103CD00003F0CCFFC14B33F9170007F0EDF9C04BEF
:103CE0008246188807F0E8F90146504607F0ECFADA
:103CF000BC4907F035FA07F0F9FB013700B203F0D1
:103D0000CDFF032FE1D1302003F0B0FFB64BB3F964
:103D1000000003F0C3FF03F0B9FF94F8780110F03E
:103D2000030B2CD1DFF8D0A2102003F09FFFDAF8AC
:103D30000030642793FBF7F000B203F0AFFF2120BF
:103D400003F094FFDAF8003093FBF7F007FB10372D
:103D500087EAE770A0EBE77000B203F09FFF142042
:103D600003F084FFA14BB3F9000003F097FF1C2080
:103D700003F07CFF584603F091FF03F087FF94F8AF
:103D80007831954F580740F0E380022003F06EFF32
:103D9000B7F97A014FF00A0A90FBFAF003F07EFFC0
:103DA000AB68990760D5BB8F4FF06E0B0BFB03FB25
:103DB00015239BFBF3FB3A2003F058FF1FFA8BFB04
:103DC0006422BBFBF2F90FFA89F0039203F066FF5D
:103DD0003B2003F04BFF039A02FB19B080B2053081
:103DE000DFF818B290FBFAF000B203F057FF9BF82F
:103DF0000030BA8F40F6340192FBF3F24A432A2195
:103E0000B2FBF1F2B7F87C1191FBF3F003FB101356
:103E10001B019BB243EA02239BB2C2F3032243EA93
:103E20000209062003F022FF0FFA89F003F036FFA3
:103E3000B7F87C219BF80030013292B292FBF3F18B
:103E400003FB11232820A7F87C3103F00FFF786CC7
:103E500090FBFAF000B203F021FF042003F006FF0C
:103E6000B7F9500003F01AFF33689A066ED5DFF8F1
:103E700090A15F4FDAF800303C2183EAE37CACEBA1
:103E8000E37C5C4B13209CFBF3F207FB02CC01FBB1
:103E90000CF9029199FBF3FB0193039203F0E6FE08
:103EA000039A02EB820202EB82020BEB820007FB19
:103EB0000B9B00B203F0F2FE4FF47A791B2003F063
:103EC000D5FE9BFBF9F000B203F0E8FE232003F0DF
:103ED000CDFEDAF80020002AACBF4E20532003F0BC
:103EE000DDFEDAF80420019B82EAE27BABEBE27BA9
:103EF0009BFBF3F207FB02BB0299122001FB0BF1C3
:103F0000039291FBF3FB029103F0B0FE039A02EBE4
:103F1000820202EB82020BEB820000B203F0BEFED3
:103F20001A2003F0A3FE029907FB0B1191FBF9F095
:103F300000B203F0B3FE222003F098FEDAF804305A
:103F4000002BACBF4520572003F0A8FE03F09EFED7
:103F500094F87831282B21D11F4B0022D8F800701B
:103F600083F878214FF47A73B7FBF3FA17203C27D4
:103F700003F07CFEBAFBF7F9B9FBF7F007FB1090F2
:103F8000000200B203F08AFE182003F06FFE07FB68
:103F900019A000B203F082FE03F078FE95F83E31DE
:103FA000012B7FF44EAE0A4DE86803F0C2FD0028F5
:103FB0003FF447AEE86803F0B7FD0746052004F07C
:103FC0008EF88A2F4BD08E2FEDD11BE0B001002050
:103FD000D005002084180020400C00207C04002024
:103FE0002C00002000007A44D4030020CC010020E3
:103FF000806967FF80969800B403002028000020A5
:104000001802002000212E226E4809F00AFA7C23B3
:1040100084F8AA31E02384F8AD317D2384F8D631C9
:10402000A38F84F8AB71DAB21B0A84F8C93184F823
:10403000BF31142384F8C23184F8C3314FF4FA73CA
:10404000A4F8C4314823A4F8CC31782384F8C821DB
:1040500084F8BE2184F8CE315A482E2190E033688E
:104060009B06A0D5584D002105F5BF702C2209F004
:10407000D8F97C2384F87E31A02384F881317D2314
:1040800084F8A931514B84F87F711B7884F89831FA
:104090004F4BDB7A002B6ED04E494F4A0F68DFF84A
:1040A00050C197FBF2F06623C0B285F8A731FB0F31
:1040B0000CFB00774FF0060E0EFB07F785F88731F3
:1040C00042F21073B7FBF3F900EB800003FB1977A2
:1040D00049685FFA89F900EB800009EB800080B243
:1040E00091FBF2F2D2B285F88801000A85F88901C5
:1040F000C80F0CFB02110EFB01F185F88C0102EBDD
:104100008202B1FBF3F003FB101302EB8202C0B298
:1041100000EB820292B285F88D21120A85F88E2179
:1041200085F88F31B5F804211B0A85F89031642396
:10413000B2FBF3F303EBC3039B009BB285F885311D
:104140001B0A85F88631B5F8223185F88A7185F821
:1041500091311B0A85F89231B5F802313F0A85F892
:1041600093311B0A85F89431B5F8243185F88B71A9
:1041700085F89A3102E0202385F8A73117482C21D1
:1041800005F006F90FE7164ED4F8D82133689A1ACD
:10419000002A0FDB0D4A1278042A0BD90A4A03F5CC
:1041A000123303F5F873C2F8D8310E4BDA6882F097
:1041B0001002DA600C4B9B680BB10C4898470DB0AD
:1041C000BDE8F08FEA0D0020400C00200002002026
:1041D000A806002018020020A0860100BE0D0020C5
:1041E00064010020000C014030050020BA0D0020C1
:1041F0006079FEFFAFF300802DE9F04F9B4B95B047
:1042000093F83031C4B2012B00F0E78002D3022BC7
:1042100040F0C885242C964D0CD006D80A2C00F00E
:104220008C800D2C00F08980C3E02A2C07D02C2C28
:1042300005D0BEE000232B706B70AB70CAE06A78CB
:104240002E782A4400218A4BD170EEB9DA789E7418
:10425000472A19D11A79502A16D15A79472A07D1F3
:104260009A79472A04D1DA79412A01D101229A7434
:104270006A797F4B522A07D19A794D2A04D1DA798B
:10428000432A04BF02229A74AB7C794F012B02D0DF
:10429000022B33D046E0B31E072B43D8DFE803F0F0
:1042A000040810141C24422901F0AEFC686139E0B6
:1042B000EA786F4B532A35D15A6952425A6131E03C
:1042C00001F0A2FCA8612DE0EA78694B572A29D1B8
:1042D0009A6952429A6125E0EA78664B302A94BF87
:1042E00000220122DA721DE0002001F06DFC287727
:1042F00018E0002001F068FCE88313E0072E06D0E8
:10430000082E0FD1012001F05FFC78840AE0012023
:1043100001F05AFC41F2184358434FF47A72B0FB53
:10432000F2F33B84013600232A2C514A2E706B7025
:104330004BD1012182F824104CE095F82430002B59
:1043400033D04B4BDB78402B04D9A3F13702120159
:10435000D2B202E01B0103F0F0022B79A978402BC6
:104360008CBF373B303BDBB21344DBB29942404A4F
:104370001AD1937C012B08D0022B15D1118C3E4B06
:10438000528C19803D4B1A800EE03A49C97A61B1CE
:104390003B495069086090694860107F394908704E
:1043A000D18B394A118000E00023002285F82420B7
:1043B00010E06B782E4A0E2B03D8591C1344517011
:1043C000DC7095F824302A4A1BB991784C409470DF
:1043D00000E0002303F001032FE1254B002193F8B7
:1043E0002520082A00F22881DFE802F00B05141EC0
:1043F0002F506E8A9700622C01D1022207E083F8C9
:104400002510B52C40F0188193F82520013283F84F
:10441000252011E1032283F8252083F8264083F824
:10442000274083F8284007E1042283F8252093F8E9
:10443000272093F828102244D2B283F827200A4478
:1044400083F8282083F82940F6E0052283F8252008
:1044500093F8272093F828102244D2B283F827201B
:104460000A4483F828205C85E6E000BF8818002015
:10447000200E0020A8060020440D0020600D002022
:104480001802002000020020420D0020062183F8BF
:10449000251093F8271093F828002144C9B283F817
:1044A0002710014483F82810598DB04A01EB0424E9
:1044B000A4B2B4F5007F89BF00215485518582F8EC
:1044C000251000229A85B7E093F8272093F828104A
:1044D0002244D2B283F827200A4483F828209A8DF8
:1044E000C72A03D8A149114481F83040013292B261
:1044F0009A855B8D934240F09F8007229B4B86E715
:10450000082283F8252093F82730A34200F09480F6
:10451000964A002382F825308FE083F8251093F81F
:104520002810924AA14240F0878092F8291006296B
:104530003BD004D8022911D0032923D07CE01229D2
:1045400049D0302978D192F83410894A102988BF8F
:10455000102111701078874900224AE08649506B7B
:104560004860906B0860116C4FF47A7091FBF0F129
:1045700082480180824992F8F800C872012182F8CD
:10458000F9104BE092F8351011F0010105D092F8C6
:104590003420D01E4242424100E00A4683F8F8200F
:1045A000002A3BD17649CA7238E092F83B1011F0EC
:1045B000010105D092F83A20D11E4A424A4100E05A
:1045C0000A4683F8F8200AB96D49CA7293F85F1059
:1045D0006C4A117022E0516C6B480180916C42F280
:1045E000107091FBF0F169480180012182F8FA1006
:1045F00014E0824201F10C0110DA11F8045C644C01
:10460000155511F8035C634C155511F8015C624CAB
:1046100015550D78614C15550132EAE793F8F930DC
:10462000524A4BB192F8FA3033B1002382F8F93094
:1046300082F8FA30012300E00023002B00F0B2835F
:10464000574B9A68DA60574A116890469960564B02
:10465000196841F020011960544B197801290CBFE9
:10466000002201221A70464BDA7A002A00F09A835F
:10467000444A1278042A40F295835A7802B91A7390
:104680001B7B13B90AB104F0FFF8384C4FF0050E4C
:1046900094F8FB3004F1FA06013393FBFEFE0EEBB7
:1046A0008E0ECEEB030E424B84F8FBE01B78039694
:1046B000049304F5807303EB8E0E00232E493D4ACC
:1046C0005D583D4E9D5095FBF6F002F1080698515D
:1046D0003A4E5F1806FB005542F2107C95FBFCFC3D
:1046E0000597039F1FFA8CFC02F1100A27F802CFEE
:1046F00003EB830B53F80A6003975EF80B704EF8D8
:104700000B50C7EB060909EB0506052543F80A60BF
:1047100096FBF5F6284D183205FB0060049E985074
:10472000012E0F4606D1ACF1020CBCF5797F9CBF7F
:10473000059A10600433082BC0D10C4DD8F8000046
:10474000D5F84831C01A06F0B3FC1D4906F0BCFD8F
:10475000D8F800304FF07E51C5F84831064606F0D3
:104760009DFE78BB4FF07E502DE000BF200E002054
:104770006E0D0020500E002018020020420D002077
:10478000A806002000020020440D0020600D00203B
:104790006F0D00207F0D00208F0D00209F0D002049
:1047A00064070020841800202C050020460D0020FE
:1047B0000C020020480F002080969800806967FF57
:1047C00000007A44304610AAC5F84C01B44B009260
:1047D00011AA019297E803000CCB03F0F4FF109AA2
:1047E00064231198AF4992FBF3F20A8090FBF3F334
:1047F000AD4AAE481380037B81460BB90B80138012
:1048000095F85031AA4E002B3AD0D6F84C114FF003
:104810007E5006F059FDD6F8543180463868C01AEB
:1048200006F04AFC414606F09BFC06F05FFED6F817
:1048300058211FFA80FA78680FFA8AFA801A06F06F
:104840003BFC9C4B196806F08BFC414606F088FC4B
:1048500006F04CFEB6F95E3100B2C218B6F95C3112
:104860000221534492FBF1F293FBF1F392B29BB21B
:10487000A6F86221A6F86031A6F85E21A6F85C31A0
:10488000012385F850317968386899F80830C5F8FF
:104890005811C5F8540123B9844BDB79002B00F083
:1048A0008182834E06F5B673009306F5B8730193C3
:1048B000D4F86421D4F8683103F085FF7B68D4F81C
:1048C0006801C01A06F0F8FB7A4B196806F048FC3C
:1048D00006F00CFED4F864313A68C4F878019B1AEB
:1048E000C4F87431744B93F90030012B03D0022BC0
:1048F00000F0F48056E2D6F87C51D6F89841039542
:10490000D6F88C71D6F8905104F1004006950497C2
:1049100006F0ECFD8146204606F0E8FDD6F84C8115
:10492000D6F8946107904046059606F055F8634B1B
:10493000044693F8C4000D4606F0BAFB06F04CF8A6
:1049400055A3D3E9002306F09BF802460B4600204E
:104950005B4906F0BFF92B46224605F0DFFE024612
:104960000B462046294606F0B5F9CDE90801554E1B
:104970000025554C54F81570A4F11403384635F849
:1049800003A006F099FB039906F0EAFB06F0AEFDE2
:10499000CAEB000080B22834285304B2204606F047
:1049A0008BFB049906F0DCFB06F0A0FD1FFA80FBF0
:1049B000E01906F081FB069906F0D2FB414606F0AD
:1049C000CFFB316806F0C4FA06F090FD484504DBE1
:1049D000079A9042A8BF104600E0484606F06CFBDC
:1049E000306006F083FDB46858441FFA80FB20460F
:1049F00005F0F2FFCDE90A0170680AF1310A381AB0
:104A000006F05AFB414606F05FFC214606F09EFA8E
:104A100005F0E2FF02460B46DDE9080106F030F83A
:104A200002460B46DDE90A0105F078FE06F03AFA87
:104A30001FFA8AFABAF1620F014630617760B060FE
:104A40000ED9059806F08CFB06F050FD1F4BB0F513
:104A5000FA6FA8BF4FF4FA609842B8BF184600E05A
:104A60000020834440F6B8330FFA8BFB9B45A8BF68
:104A70009B46174B0A229B45B8BF9B466A43154B82
:104A800056F8141B25F803B0134B0235042DD150F2
:104A900000F088816DE700BF182D4454FB211940B8
:104AA00004020020620D0020640D0020A8060020F2
:104AB000200E0020480000200C020020801C002056
:104AC0000000F03F54020020940F002030F8FFFF58
:104AD00048F4FFFF280200207C020020B64AD6F8E6
:104AE0006CA1B2F9CA909AFBF3F39945A8BF994615
:104AF000B6F8A0411FFA89F90FFA89F223B29A4257
:104B00000BDDAE49D6F84C0106F02AFB06F0EEFCB0
:104B100020441FFA80F9A6F8A091D5F87041D5F885
:104B2000A461A61B304603F0D3FE0028D8BF404244
:104B300041F293139842CCBF0020012078B3304655
:104B400006F0BAFA9E4906F00BFB08F049FF06464C
:104B5000504606F0B1FA0146304606F001FB06F079
:104B6000C5FC80B240F6B83203B29342A8BF1346E8
:104B7000944AA5F8A8019342ACBFE318A31848F6DD
:104B8000A042934203DDA3F50C43A03B04E0002BBD
:104B9000BCBF03F50C43A033C5F8AC3101E0C5F848
:104BA000AC41D5F8AC61C6F50C502830039606F040
:104BB00083FA834906F0D4FA044608F09DFE139068
:104BC000204608F00DFFD5F8BC41D5F8B071D5F8F6
:104BD000B461129004F100400597089606F086FC37
:104BE0000490204606F082FCD5F84CB1D5F8B851B7
:104BF0000A905846079505F0EFFE6F4B044693F870
:104C0000C4000D4606F054FA05F0E6FE68A3D3E9A9
:104C1000002305F035FF02460B4600206A4906F0E6
:104C200059F822462B4605F079FD02460B462046F0
:104C3000294606F04FF8CDE90C01644E00270FFA23
:104C400089F006F039FA12AB53F8171006F088FA1B
:104C50005F4C0546E05F06F02FFA0146284606F055
:104C600075F906F043FC5B4B0FFA80F8B8F57A7FD4
:104C7000A8BF4FF47A789845B8BF98461FFA88F0D5
:104C80003C34385300B206F017FA0599044606F092
:104C900067FA06F02BFC80B206900899204606F0D1
:104CA0005FFA594606F05CFA316806F051F906F0F1
:104CB0001DFC049DA84204DB0A9DA842A8BF28460B
:104CC00000E0049806F0F8F9B46805463060204624
:104CD00005F082FECDE90E0170681436C0EB0800C5
:104CE00006F0EAF9594606F0EFFA214606F02EF9E9
:104CF00005F072FE02460B46DDE90C0105F0C0FE30
:104D000002460B46DDE90E0105F008FD06F0CAF883
:104D100046F8108C014646F8040C46F80C0C07982F
:104D200006F01EFA06F0E2FB069C0444284606F054
:104D3000DDFB204440F6B83300B29842A8BF1846C5
:104D4000204B0A229842B8BF18467A43224BF852A9
:104D5000224B0237042FD5507FF471AF164B93F8D6
:104D6000C6202AB1039E64211D4A96FBF1F11180F1
:104D7000B3F8C2301B4C9A450DDDD4F8A431D4F8F9
:104D80007001C01A03F0A4FD42F210730028B8BFEE
:104D90004042984206DD144B01221A70B4F8C0213B
:104DA0000F4B1A8015B0BDE8F08F00BFAFF3008045
:104DB000182D4454FB211940801C00200000C842DB
:104DC000D302373948F4FFFF0000F03F7C02002097
:104DD000800F002018FCFFFF280200205402002052
:104DE000FC010020200E00200C0200202DE9F047DD
:104DF000714B86B01A78994642B901236F4889F8F9
:104E0000003002F0E7FE6E4802F0E4FE6D4D2868C7
:104E100002F08FFEAA46002800F0CB80286802F03E
:104E200083FE09280146684C01D03F2859D14FF034
:104E30000008D4F8C461654F45462EB1644839680E
:104E4000324608F019FB10B9B84605B93D46614B2A
:104E50000C379F42F1D305B3D5F800E0D8F800C075
:104E6000D4F8C43158481EF803701CF80310B94236
:104E700013D15A1C59B92D2B09D8C0F8C4210344A9
:104E80002027024483F8C87182F8C81105E0234442
:104E900083F8C871C4F8C421E2E7D4F8C4310BB177
:104EA000454512D04C4802F095FE454509D855F8C5
:104EB0000C0B02F08FFEDAF80000092103F0C5F8B0
:104EC000F3E73F4802F086FE0026D4F8C4319E4244
:104ED0009CD23F4BDAF80000995D03F0B6F801363A
:104EE000F3E7D4F8C43133B904283BD104F5E470B6
:104EF00001F0A0FC5DE00C2801D1384881E70A29C7
:104F000001D00D294AD1364802F064FED4F8C431EC
:104F10002F4EE218002382F8C8310493314B03A8C6
:104F200000932A4910220C23039608F04FFB0546F4
:104F300038B1006808F097FA0130AB683044984700
:104F400002E0294802F046FE21480021302208F004
:104F500068FA0023C4F8C43199F80030002B7FF4BC
:104F600052AF26E00C28C8D07F2903D14EE72F2B63
:104F70003FF64CAFA1F12002D2B25E2A3FF646AF17
:104F800013B920293FF442AF5A1CC4F8C421286841
:104F90001C4484F8C81103F058F837E77F29E6D19C
:104FA000013BC4F8C4310022234483F8C8210F48D0
:104FB0002AE706B0BDE8F087701D0020A91101089E
:104FC000E1110108D0050020200E002098030108FF
:104FD000E80F002058040108E6110108EB11010850
:104FE000F418010831800008F611010817120108B1
:104FF00073B51D4D4FF4805604466E61F52003F0E5
:105000003DFD0DF107000021012201F08FF82E6116
:105010009DF80730702B24D1144B154ABB2C1A6015
:10502000144A5A60144B154A1A60154A5A60154AB8
:10503000DA60154B02D90120187113E0612C01D9F7
:1050400002220BE0292C01D9032207E0132C01D9FD
:10505000042203E0092C8CBF052206221A710120CC
:1050600000E0002002B070BD000C014044050020AB
:10507000BD7D0008F994000830050020D55C0008CB
:105080006D6100081844923148000020AFF30080A1
:10509000894B2DE9F04FB3F90220B3F90030002A13
:1050A000B8BF5242002BB8BF5B429A42B8BF1A4603
:1050B000824B8BB0D8781B7902920193804B6FF0B2
:1050C0000401B3F8F83003905A4204937D4B0592E3
:1050D0001A7F1C7A51439B7C02EB820209930023C6
:1050E0000691089207941A461F461D461946039ECC
:1050F00016B9019800283FD0022937D06E48059C88
:10510000175E7148105E00EB4707A74204DB049E60
:10511000B742A8BF374600E0059F6C48DDF81C90F9
:10512000105EDDF818C03F1A66481044B0F92A40F6
:105130006420274409FB07F595FBF0F5654504DB82
:1051400008988542A8BF054600E0069D604C1859A6
:10515000384442F21077B842A8BF38465D4FB84293
:10516000B8BF38461851099C60430713039E1EB10F
:10517000019808B902295DD1524C4F4801EB040C4B
:10518000554C105E32F90480544C88EAE879A9EB5A
:10519000E879B9F5207F9CF801A053F804B01FDC32
:1051A000022916D04FF0500909FB00F999FBFAFAD1
:1051B000C8EB0A0AD344DFF83091BBF57A5FA8BF89
:1051C0004FF47A5BCB45ACBF44F803B044F803908E
:1051D0000AE080EAE079A9EBE079B9F1640FE1DD5A
:1051E0004FF0000844F803803C4C019E53F80480C3
:1051F0007D2498FBF4F49CF80B8008FB04F4A411C4
:10520000A6B1022918D0DDF808904FF4FA7C09FB0A
:1052100000F009FB04F4C9F5FA7808FB050008FB67
:10522000074490FBFCF094FBFCF405E0039E1EB1E8
:10523000022901D03C462846DFF89CC0DFF8AC804C
:1052400032F80CC011F808A00FFA8CF90AFB09FA21
:105250006FF04F089AFBF8FADFF89480824432F935
:10526000080022F808C008F1080C08F11408C0EB87
:10527000090053F808B053F80C9043F80C00CB44E5
:105280008344174843F80890085C013100FB0BFB8E
:1052900020209BFBF0FBCBEB040B124CDA440329E0
:1052A00022F804A003F1040302F102027FF41FAF0D
:1052B0000BB0BDE8F08F00BFEA010020A806002077
:1052C00088180020801C0020200200209C03002061
:1052D000D8010020F0D8FFFFB0040020DC0400203B
:1052E000540C0020BA04002080C1FFFF4E0C0020A7
:1052F000181000202DE9F04F534B544993F8242007
:10530000B1F904101B324A4389B052110292504A3B
:1053100093F82310D778127993F8088005929A7C35
:105320004C4B06921B884FF6FF7201931B09002419
:105330001B31B2FBF3F203970491079225462646F0
:10534000022E32D0414B444A35F90390434B444935
:10535000EB5EAA5E4B44B3F5FA7FA8BF4FF4FA7335
:105360008B42ACBFC2EB0303C2EB0103364A2A44B3
:10537000B2F92A00184405F09FFE3A4905F0A4FF4F
:1053800006F0B4F8039B5BB9049F059A09FB07F983
:105390004FEA29195AB1069B584309EB202906E028
:1053A00008FB00F04FEA201901E0DDF808902E4BD1
:1053B000019FE85E2449C0EB090007FB00F3DFF81A
:1053C000B8C0314454F80C2091F80BA0DB120AFB52
:1053D0000323264AB3F5001FA8BF4FF400139342DE
:1053E000B8BF1346224A44F80C30A75891F80190F0
:1053F000C7EB000C079FA05007FB0CFC09FB00F952
:1054000002F10C00183254F800A054F802B04FEA30
:10541000AC1C44F802A0D3444A7DE34402FB0BF2E7
:10542000121202EBE9121349013602EB6333032E29
:1054300044F800C06B5204F1040405F102057FF446
:105440007FAF09B0BDE8F08F801C0020EA0100208A
:10545000A8060020B60400209C03002020020020A3
:105460000CFEFFFF00002041B00400200000E0FF20
:1054700038100020BA040020DC04002038B5124B9C
:10548000124D1A78124C296852B9626C323291422C
:1054900019D30120187002F0F5FD2B68636438BD44
:1054A000626C024491420ED30020187002F0EAFDB3
:1054B0002B686364074B1A780AB1013A1A7001230A
:1054C00084F8483038BD38BD980C0020841800207E
:1054D000181000205D1D002037B5254D8DF80730D0
:1054E00095F849308DF8062002AA8DF804008DF851
:1054F00005101A4412F8042C443AD2B20A2A2FD8C2
:105500001C49022B31F8124003D814B12046FFF792
:10551000B5FF95F84930164A022B0AD9164B19687F
:10552000536C091B8B4204D2002382F84930134A82
:10553000137095F84830012B00D0B4B995F8493074
:10554000022B03D80A4A013382F849300C4B002061
:1055500085F84800187003B0BDE8304002F092BDF5
:10556000022B4FF03204D1D9D3E703B030BD00BFD6
:1055700018100020D4020108841800205D1D0020AE
:10558000980C00200449054B096800221870DA6164
:1055900059621A62704700BF841800206407002017
:1055A000104B114A9B68128810B51A420F4C03D059
:1055B00002F070FDE06410E002F06CFDE36C9842D4
:1055C0000BD9C01A3B220A4BB0FBF2F0B0F5967F24
:1055D0001B68C8BF4FF0FF301860064B1A68064BB7
:1055E0005A6110BD000C01408E07002018100020E9
:1055F000E40300209007002000040140826A8169D2
:10560000436B1144D960416A914203D98A1A5A60A6
:10561000816204E001698A1A5A60002282620022D3
:1056200080F844201A6842F001021A607047F0B511
:105630000468057B00231E4FDEB257F82670013345
:10564000A742F8D1B300DBB200241A4FE6B2BF5D27
:105650000134AF42F9D13344DBB20F2B05D8164CDD
:1056600004EB03139A601D711973027B03680C2A03
:105670001CD8DFE802F0071B1B1B0C1B1B1B111B9C
:105680001B1B16009A8992B242F002020DE09A8921
:1056900092B242F0040208E09A8992B242F0080203
:1056A00003E09A8992B242F010029A81F0BD00BFE5
:1056B0002C0301083C030108FC100020134B026876
:1056C00010B51C68D1430C401C605C6821405960D7
:1056D00019680A431A6002689C68D1430C409C60B8
:1056E000DC682140D9604179102906D199681143BD
:1056F0009960D9680A43DA6010BD01F1804303F56F
:10570000823319680A431A6010BD00BF00040140CB
:10571000254B10B55343254A254C12680139B2FB7D
:10572000F3F20388013AA04289B292B29BB212D03E
:1057300004F50064A0420ED0B0F1804F0BD0A4F568
:105740009834A04207D004F58064A04203D004F549
:105750008064A04202D123F070039BB2154CA0429A
:1057600006D004F58064A0421CBF23F440739BB2B2
:1057700003800F4B8185984202850FD003F50063AB
:1057800098420BD003F54063984207D003F580633D
:10579000984203D003F58063984201D10023038629
:1057A0000123838210BD00BF40420F0098000020FB
:1057B000002C0140001000400A88F0B54B88CD88CD
:1057C000002A38D1028C834C22F001021204120C00
:1057D0000284028B018C22F0F3021204120CA0420C
:1057E00089B242F0010243F0010315D004F50064D0
:1057F000A04211D0B0F1804F0ED0A4F59834A04251
:105800000AD004F58064A04206D004F58064A0426A
:1058100018BF21F00A0101D121F002010B430283DC
:105820000384038B23F00C031B041B0C0383038BE7
:105830009BB21D4346E0042A8F880E8944D1048C14
:10584000644A24F010042404240C0484018B048C86
:1058500021F440710905090D41EA063189B241EA96
:1058600007279042A4B2BFB212D002F50062904264
:105870000ED0B0F1804F0BD0A2F59832904207D0F5
:1058800002F58062904203D002F58062904207D117
:1058900024F0200444EA03139BB243F0100304E015
:1058A00024F0A00443F01003234307830384038BF5
:1058B00023F440631B041B0C0383038B9BB243EA5A
:1058C0000525ADB20583F0BD082A018C3ED121F437
:1058D00080710904090C0184828B048C92B222F03D
:1058E000F30242EA06163B4AB6B29042A4B246EA36
:1058F000070712D002F5006290420ED0B0F1804F3F
:105900000BD0A2F59832904207D002F58062904207
:1059100003D002F58062904207D124F4007444EA77
:1059200003239BB243F4807304E024F4206443F423
:105930008073234387830384838B23F00C031B042E
:105940001B0C8383838B9BB21D4341E021F4805168
:105950000904090C0184828B1E4922F4407212054D
:10596000120D048C42EA072242EA06328842A4B2AF
:1059700092B212D001F5006188420ED0B0F1804F92
:105980000BD0A1F59831884207D001F5806188429B
:1059900003D001F58061884207D124F4005141EA27
:1059A000033189B241F4805105E047F6FF512140AF
:1059B00043F48053194382830184838B23F440632F
:1059C0001B041B0C8383838B9BB243EA0525ADB27A
:1059D0008583F0BD002C01401FB50123ADF80830D0
:1059E000ADF80410002301A9ADF80A30ADF80C3071
:1059F000ADF80620FFF7E0FE05B05DF804FB2B4B89
:105A000010B54FF4127404FB00342379DB074BD537
:105A100094F838320BB3236B00221868828494F810
:105A20003C2222B1B4F844220132A4F8442294F872
:105A30004222197B002A14BF02220022FFF7CCFF6A
:105A4000012384F83B32002384F8393284F83A3257
:105A500084F83832A4F8403210BD94F83B32204626
:105A6000012B04BF94F8393284F83A3202F086FEF2
:105A700094F83B12236B94F8422249B9012184F82F
:105A80003B12002A1868197B14BF0222002208E08A
:105A9000002184F83B128A421868197B0CBF02224D
:105AA0000022BDE8104097E710BD00BF9C07002012
:105AB000444B10B54FF4127404FB003494F83C22AC
:105AC000C2B9A36A616A994229D0591CA069A1622E
:105AD000C05C2369C0B299424FEA400343F40073AB
