:020000040800F2
:10000000005000203D2F0008ED2F0008D1690008A6
:10001000ED2F0008ED2F0008ED2F00080000000074
:10002000000000000000000000000000ED2F0008AC
:10003000ED2F000800000000ED2F000869B0000857
:10004000ED2F0008ED2F0008ED2F0008ED2F000820
:10005000ED2F0008ED2F0008ED2F0008691C0008A7
:10006000ED2F0008ED2F0008ED2F0008ED2F000800
:10007000ED2F0008ED2F000855BB0008ED2F0008FC
:10008000ED2F0008ED2F0008ED2F0008ED2F0008E0
:10009000ED2F0008ED2F0008ED2F00086D1C000863
:1000A000ED2F0008ED2F0008ED2F0008112F00089C
:1000B0001D2F0008252F0008312F0008DDAC000897
:1000C000B1AE0008E1AC0008B5AE0008ED2F0008A5
:1000D000ED2F000889BB0008C5BB0008ED2F000804
:1000E0002D170008ED2F0008ED2F0008000000007C
:1000F0000000000000000000000000000000000000
:0C01000000000000000000005FF808F1A3
:1001100010B5054C237833B9044B13B10448AFF341
:1001200000800123237010BDB405002000000000F2
:10013000D430010808B5064B1BB106480649AFF399
:1001400000800648036813B1054B03B1984708BD0A
:1001500000000000D4300108B8050020B4050020DC
:100160000000000081F0004102E000BF83F0004386
:1001700030B54FEA41044FEA430594EA050F08BF42
:1001800090EA020F1FBF54EA000C55EA020C7FEA06
:10019000645C7FEA655C00F0E2804FEA5454D4EB83
:1001A0005555B8BF6D420CDD2C4480EA020281EA4D
:1001B000030382EA000083EA010180EA020281EA85
:1001C0000303362D88BF30BD11F0004F4FEA0131D7
:1001D0004FF4801C4CEA113102D0404261EB4101E6
:1001E00013F0004F4FEA03334CEA133302D052426C
:1001F00063EB430394EA050F00F0A780A4F1010428
:10020000D5F1200E0DDB02FA0EFC22FA05F2801861
:1002100041F1000103FA0EF2801843FA05F3594147
:100220000EE0A5F120050EF1200E012A03FA0EFCC6
:1002300028BF4CF0020C43FA05F3C01851EBE371F0
:1002400001F0004507D54FF0000EDCF1000C7EEB0D
:1002500000006EEB0101B1F5801F1BD3B1F5001F4B
:100260000CD349085FEA30004FEA3C0C04F101046A
:100270004FEA445212F5800F80F09A80BCF1004F93
:1002800008BF5FEA500C50F1000041EB045141EA15
:10029000050130BD5FEA4C0C404141EB010111F416
:1002A000801FA4F10104E9D191F0000F04BF0146C1
:1002B0000020B1FA81F308BF2033A3F10B03B3F19F
:1002C00020020CDA0C3208DD02F1140CC2F10C022F
:1002D00001FA0CF021FA02F10CE002F11402D8BF8D
:1002E000C2F1200C01FA02F120FA0CFCDCBF41EA59
:1002F0000C019040E41AA2BF01EB0451294330BD28
:100300006FEA04041F3C1CDA0C340EDC04F1140404
:10031000C4F1200220FA04F001FA02F340EA0300DB
:1003200021FA04F345EA030130BDC4F10C04C4F121
:10033000200220FA02F001FA04F340EA0300294601
:1003400030BD21FA04F0294630BD94F0000F83F44B
:10035000801306BF81F480110134013D4EE77FEA2E
:10036000645C18BF7FEA655C29D094EA050F08BF7A
:1003700090EA020F05D054EA000C04BF194610465B
:1003800030BD91EA030F1EBF0021002030BD5FEA9F
:10039000545C05D14000494128BF41F0004130BDC7
:1003A00014F580043CBF01F5801130BD01F000451B
:1003B00045F0FE4141F470014FF0000030BD7FEA8E
:1003C000645C1ABF194610467FEA655C1CBF0B4689
:1003D000024650EA013406BF52EA033591EA030FA0
:1003E00041F4002130BD00BF90F0000F04BF002198
:1003F000704730B54FF4806404F132044FF00005CB
:100400004FF0000150E700BF90F0000F04BF002143
:10041000704730B54FF4806404F1320410F00045A9
:1004200048BF40424FF000013EE700BF42004FEAA4
:10043000E2014FEA31014FEA02701FBF12F07F4321
:1004400093F07F4F81F06051704792F0000F14BF1E
:1004500093F07F4F704730B54FF4607401F0004562
:1004600021F0004120E700BF50EA010208BF7047B9
:1004700030B54FF000050AE050EA010208BF7047AE
:1004800030B511F0004502D5404261EB41014FF417
:10049000806404F132045FEA915C3FF4DCAE4FF01B
:1004A00003025FEADC0C18BF03325FEADC0C18BF02
:1004B000033202EBDC02C2F1200300FA03FC20FA53
:1004C00002F001FA03FE40EA0E0021FA02F11444A0
:1004D000C1E600BF70B54FF0FF0C4CF4E06C1CEAB5
:1004E00011541DBF1CEA135594EA0C0F95EA0C0F2A
:1004F00000F0DEF82C4481EA030621EA4C5123EA9D
:100500004C5350EA013518BF52EA033541F48011CB
:1005100043F4801338D0A0FB02CE4FF00005E1FB7E
:1005200002E506F00042E0FB03E54FF00006E1FBC8
:1005300003569CF0000F18BF4EF0010EA4F1FF040B
:10054000B6F5007F64F5407404D25FEA4E0E6D414B
:1005500046EB060642EAC62141EA55514FEAC5205C
:1005600040EA5E504FEACE2EB4F1FD0C88BFBCF5D8
:10057000E06F1ED8BEF1004F08BF5FEA500E50F189
:10058000000041EB045170BD06F0004646EA01014F
:1005900040EA020081EA0301B4EB5C04C2BFD4EB81
:1005A0000C0541EA045170BD41F480114FF0000E7A
:1005B000013C00F3AB8014F1360FDEBF002001F0E8
:1005C000004170BDC4F10004203C35DA0C341BDC62
:1005D00004F11404C4F1200500FA05F320FA04F034
:1005E00001FA05F240EA020001F0004221F0004168
:1005F00010EBD37021FA04F642EB06015EEA430EDB
:1006000008BF20EAD37070BDC4F10C04C4F120050A
:1006100000FA04F320FA05F001FA04F240EA0200BD
:1006200001F0004110EBD37041F100015EEA430E8E
:1006300008BF20EAD37070BDC4F1200500FA05F2AE
:100640004EEA020E20FA04F301FA05F243EA02032D
:1006500021FA04F001F0004121FA04F220EA02003C
:1006600000EBD3705EEA430E08BF20EAD37070BD82
:1006700094F0000F0FD101F00046400041EB010162
:1006800011F4801F08BF013CF7D041EA060195F044
:10069000000F18BF704703F00046520043EB0303FE
:1006A00013F4801F08BF013DF7D043EA06037047EB
:1006B00094EA0C0F0CEA135518BF95EA0C0F0CD0F6
:1006C00050EA410618BF52EA4306D1D181EA03013C
:1006D00001F000414FF0000070BD50EA410606BF36
:1006E0001046194652EA430619D094EA0C0F02D17B
:1006F00050EA013613D195EA0C0F05D152EA0336C0
:100700001CBF104619460AD181EA030101F00041DD
:1007100041F0FE4141F470014FF0000070BD41F026
:10072000FE4141F4780170BD70B54FF0FF0C4CF400
:10073000E06C1CEA11541DBF1CEA135594EA0C0F1F
:1007400095EA0C0F00F0A7F8A4EB050481EA030E6C
:1007500052EA03354FEA013100F088804FEA033353
:100760004FF0805545EA131343EA12634FEA022221
:1007700045EA111545EA10654FEA00260EF00041E2
:100780009D4208BF964244F1FD0404F5407402D234
:100790005B084FEA3202B61A65EB03055B084FEAC5
:1007A00032024FF480104FF4002CB6EB020E75EBC2
:1007B000030E22BFB61A754640EA0C005B084FEAEA
:1007C0003202B6EB020E75EB030E22BFB61A754667
:1007D00040EA5C005B084FEA3202B6EB020E75EBB2
:1007E000030E22BFB61A754640EA9C005B084FEA2A
:1007F0003202B6EB020E75EB030E22BFB61A754637
:1008000040EADC0055EA060E18D04FEA051545EA25
:1008100016754FEA06164FEAC30343EA52734FEACE
:10082000C2025FEA1C1CC0D111F4801F0BD141EA47
:1008300000014FF000004FF0004CB6E711F4801FAC
:1008400004BF01430020B4F1FD0C88BFBCF5E06F8C
:100850003FF6AFAEB5EB030C04BFB6EB020C5FEA9C
:10086000500C50F1000041EB045170BD0EF0004EF1
:100870004EEA113114EB5C04C2BFD4EB0C0541EA23
:10088000045170BD41F480114FF0000E013C90E620
:1008900045EA060E8DE60CEA135594EA0C0F08BFE4
:1008A00095EA0C0F3FF43BAF94EA0C0F0AD150EAE3
:1008B00001347FF434AF95EA0C0F7FF425AF104676
:1008C00019462CE795EA0C0F06D152EA03353FF49E
:1008D000FDAE1046194622E750EA410618BF52EA1B
:1008E00043067FF4C5AE50EA41047FF40DAF52EAEF
:1008F00043057FF4EBAE12E74FF0FF3C06E000BF8C
:100900004FF0010C02E000BF4FF0010C4DF804CD98
:100910004FEA410C7FEA6C5C4FEA430C18BF7FEA58
:100920006C5C1BD001B050EA410C0CBF52EA430C86
:1009300091EA030F02BF90EA020F0020704710F106
:10094000000F91EA030F58BF994208BF90422CBF95
:10095000D8176FEAE37040F0010070474FEA410C8E
:100960007FEA6C5C02D150EA013C07D14FEA430CAC
:100970007FEA6C5CD6D152EA033CD3D05DF8040B1D
:10098000704700BF8446104662468C46194663464F
:1009900000E000BF01B5FFF7B7FF002848BF10F126
:1009A000000F01BD4DF808EDFFF7F4FF0CBF01206B
:1009B00000205DF808FB00BF4DF808EDFFF7EAFFE7
:1009C00034BF012000205DF808FB00BF4DF808EDA2
:1009D000FFF7E0FF94BF012000205DF808FB00BF97
:1009E0004DF808EDFFF7CEFF94BF012000205DF821
:1009F00008FB00BF4DF808EDFFF7C4FF34BF01202E
:100A000000205DF808FB00BF4FEA410212F500121A
:100A100015D211D56FF47873B3EB625212D94FEA45
:100A2000C12343F0004343EA505311F0004F23FA2F
:100A300002F018BF404270474FF00000704750EA84
:100A4000013005D111F0004008BF6FF00040704741
:100A50004FF00000704700BF4FEA4102B2F1E0439F
:100A600024BFB3F5001CDCF1FE5C0DD901F0004C95
:100A70004FEAC0024CEA5070B2F1004F40EB8300E5
:100A800008BF20F00100704711F0804F21D113F111
:100A90003872BCBF01F00040704741F480114FEA4A
:100AA0005252C2F11802C2F1200C10FA0CF320FAD3
:100AB00002F018BF40F001004FEAC1234FEAD323F0
:100AC00003FA0CFC40EA0C0023FA02F34FEA43035A
:100AD000CCE77FEA625307D150EA01331EBF4FF0E3
:100AE000FE4040F44000704701F0004040F0FE40FE
:100AF00040F40000704700BF80F0004002E000BFFB
:100B000081F0004142001FBF5FEA410392EA030FF8
:100B10007FEA226C7FEA236C6AD04FEA1262D2EB42
:100B20001363C1BFD218414048404140B8BF5B4247
:100B3000192B88BF704710F0004F40F4000020F0E0
:100B40007F4018BF404211F0004F41F4000121F0F6
:100B50007F4118BF494292EA030F3FD0A2F1010240
:100B600041FA03FC10EB0C00C3F1200301FA03F17E
:100B700000F0004302D5494260EB4000B0F5000FA1
:100B800013D3B0F1807F06D340084FEA310102F160
:100B90000102FE2A51D2B1F1004F40EBC25008BF12
:100BA00020F0010040EA03007047490040EB0000DC
:100BB00010F4000FA2F10102EDD1B0FA80FCACF10B
:100BC000080CB2EB0C0200FA0CF0AABF00EBC2500A
:100BD00052421843BCBFD0401843704792F0000FF8
:100BE00081F4000106BF80F400000132013BB5E74B
:100BF0004FEA41037FEA226C18BF7FEA236C21D0C1
:100C000092EA030F04D092F0000F08BF0846704725
:100C100090EA010F1CBF0020704712F07F4F04D1F3
:100C2000400028BF40F00040704712F100723CBF06
:100C300000F50000704700F0004343F0FE4040F430
:100C4000000070477FEA226216BF08467FEA2363EE
:100C50000146420206BF5FEA412390EA010F40F4D9
:100C6000800070474FF0000304E000BF10F0004325
:100C700048BF40425FEA000C08BF704743F096430C
:100C800001464FF000001CE050EA010208BF704727
:100C90004FF000030AE000BF50EA010208BF7047AE
:100CA00011F0004302D5404261EB41015FEA010CC3
:100CB00002BF84460146002043F0B64308BFA3F1BB
:100CC0008053A3F50003BCFA8CF2083AA3EBC2539D
:100CD00010DB01FA02FC634400FA02FCC2F12002BC
:100CE000BCF1004F20FA02F243EB020008BF20F0F3
:100CF0000100704702F1200201FA02FCC2F1200259
:100D000050EA4C0021FA02F243EB020008BF20EA4D
:100D1000DC7070474FF0FF0C1CEAD0521EBF1CEA7B
:100D2000D15392EA0C0F93EA0C0F6FD01A4480EA69
:100D3000010C400218BF5FEA41211ED04FF0006352
:100D400043EA501043EA5111A0FB01310CF000407E
:100D5000B1F5000F3EBF490041EAD3715B0040EAA4
:100D6000010062F17F02FD2A1DD8B3F1004F40EB74
:100D7000C25008BF20F00100704790F0000F0CF047
:100D8000004C08BF49024CEA502040EA51207F3A0B
:100D9000C2BFD2F1FF0340EAC250704740F40000E6
:100DA0004FF00003013A5DDC12F1190FDCBF00F0D7
:100DB00000407047C2F10002410021FA02F1C2F185
:100DC000200200FA02FC5FEA310040F1000053EA21
:100DD0004C0308BF20EADC70704792F0000F00F06F
:100DE000004C02BF400010F4000F013AF9D040EA75
:100DF0000C0093F0000F01F0004C02BF490011F409
:100E0000000F013BF9D041EA0C018FE70CEAD15306
:100E100092EA0C0F18BF93EA0C0F0AD030F0004C86
:100E200018BF31F0004CD8D180EA010000F000403A
:100E3000704790F0000F17BF90F0004F084691F0F8
:100E4000000F91F0004F14D092EA0C0F01D1420232
:100E50000FD193EA0C0F03D14B0218BF084608D1FB
:100E600080EA010000F0004040F0FE4040F4000045
:100E7000704740F0FE4040F4400070474FF0FF0CD8
:100E80001CEAD0521EBF1CEAD15392EA0C0F93EA1F
:100E90000C0F69D0A2EB030280EA010C49024FEA71
:100EA000402037D04FF0805343EA111143EA10132A
:100EB0000CF000408B4238BF5B0042F17D024FF4E2
:100EC000000C8B4224BF5B1A40EA0C00B3EB510FBD
:100ED00024BFA3EB510340EA5C00B3EB910F24BFA6
:100EE000A3EB910340EA9C00B3EBD10F24BFA3EB2B
:100EF000D10340EADC001B0118BF5FEA1C1CE0D1F3
:100F0000FD2A3FF650AF8B4240EBC25008BF20F0A5
:100F1000010070470CF0004C4CEA50207F32C2BFF9
:100F2000D2F1FF0340EAC250704740F400004FF096
:100F30000003013A37E792F0000F00F0004C02BFC7
:100F4000400010F4000F013AF9D040EA0C0093F091
:100F5000000F01F0004C02BF490011F4000F013BEB
:100F6000F9D041EA0C0195E70CEAD15392EA0C0F53
:100F700008D142027FF47DAF93EA0C0F7FF470AF8B
:100F8000084676E793EA0C0F04D14B023FF44CAFCE
:100F900008466EE730F0004C18BF31F0004CCAD163
:100FA00030F000427FF45CAF31F000437FF43CAF9F
:100FB0005FE700BF4FF0FF3C06E000BF4FF0010CC1
:100FC00002E000BF4FF0010C4DF804CD4FEA4002A3
:100FD0004FEA41037FEA226C18BF7FEA236C11D0ED
:100FE00001B052EA530C18BF90EA010F58BFB2EBA0
:100FF000030088BFC81738BF6FEAE17018BF40F020
:10100000010070477FEA226C02D15FEA402C05D1D3
:101010007FEA236CE4D15FEA412CE1D05DF8040B58
:10102000704700BF844608466146FFE70FB5FFF7EB
:10103000C9FF002848BF10F1000F0FBD4DF808EDA3
:10104000FFF7F4FF0CBF012000205DF808FB00BF94
:101050004DF808EDFFF7EAFF34BF012000205DF8EE
:1010600008FB00BF4DF808EDFFF7E0FF94BF01203B
:1010700000205DF808FB00BF4DF808EDFFF7D2FF38
:1010800094BF012000205DF808FB00BF4DF808ED7B
:10109000FFF7C8FF34BF012000205DF808FB00BF48
:1010A0004FEA4002B2F1FE4F0FD34FF09E03B3EB75
:1010B00012620DD94FEA002343F0004310F0004FB5
:1010C00023FA02F018BF404270474FF0000070470B
:1010D00012F1610F01D1420205D110F0004008BFAA
:1010E0006FF0004070474FF00000704742000ED292
:1010F000B2F1FE4F0BD34FF09E03B3EB126209D453
:101100004FEA002343F0004323FA02F070474FF008
:101110000000704712F1610F01D1420202D14FF07D
:10112000FF3070474FF00000704700BF844641EA2F
:10113000000313F0030349D1403A23D30B68036043
:101140004B6843608B688360CB68C3600B69036145
:101150004B6943618B698361CB69C3610B6A03622D
:101160004B6A43628B6A8362CB6AC3620B6B036315
:101170004B6B43638B6B8363CB6BC36340304031FA
:10118000403ADBD230320BD30B6803604B684360CC
:101190008B688360CB68C36010301031103AF3D293
:1011A0000C3205D351F8043B40F8043B043AF9D221
:1011B000043208D0D2071CBF11F8013B00F8013BF4
:1011C00001D30B8803806046704700BF082A13D301
:1011D0008B07B1D010F00303AED0C3F10403D21AD1
:1011E000DB071CBF11F8013B00F8013BA4D331F829
:1011F000023B20F8023B9FE7043AD9D3013A11F8A9
:10120000013B00F8013BF9D20B7803704B78437037
:101210008B788370604670472DE9F041057890B077
:1012200000350646344818BF01250BF0C3FC334B8C
:1012300000240593324BA54206930CBF234680231E
:101240000A934FF480730B934FF480630C934FF029
:1012500020030CBF4FF001084FF002080D93264801
:101260004FF4005305A90E930794CDF820800994FC
:101270000F940BF017FD204801210BF03EFD0127D4
:101280004FF460231F486946029300948DF8045080
:101290008DF8057003948DF810800BF0F1FB194860
:1012A00004213A4603230BF03CFC2DB1154831785C
:1012B000022203230BF035FC124801210BF00DFC38
:1012C000104801210BF000FC0E480BF00FFC0D48FC
:1012D0000BF011FC0028FAD10A480BF010FC094869
:1012E0000BF012FC0028FAD1064801210BF010FC8B
:1012F00010B0BDE8F08100BF080002404C2401405E
:10130000D005002000240140024B33F8100080B2C9
:10131000704700BFD00500202DE9FF41334B8046C8
:101320001B78002B3BD00024254626462746082262
:101330000DEB02035320322109F022FE9DF8092013
:101340009DF80830013403EB02231BB29DF80B20FB
:101350001F449DF80A30E4B203EB02231BB21E4483
:101360009DF80D209DF80C30202C03EB02231BB2BE
:101370001D449DF80F3003F07F0301D0002BD6D120
:101380001B4B97FBF4F796FBF4F695FBF4F5ADF8E1
:101390000070ADF80260ADF804501C701DE006222C
:1013A00002AB5320322109F0EBFD9DF809209DF896
:1013B000083003EB0223ADF800309DF80B209DF8B8
:1013C0000A3003EB0223ADF802309DF80D209DF8A2
:1013D0000C3003EB0223ADF80430064B684641465F
:1013E0001A780AF0AFFE04B0BDE8F081D405002001
:1013F000D505002000000020154B10B51B780446D1
:101400002D21532008227BB109F0B0FD31210A22A1
:10141000532009F0ABFD2C210C22532009F0A6FD2E
:1014200053203821902209E009F0A0FD31210A2241
:10143000532009F09BFD53202C210A2209F096FD30
:10144000044B40F209121A800CB1034B1C7010BD02
:10145000D4050020420000200000002037B5114BC9
:101460000C461A68104B00219A4205468DF8071069
:1014700001D1002013E0532001220DF1070309F0F0
:101480007FFD0028F5D09DF80730E52BF1D12A78B3
:10149000064B01201A70064B2360064B636003B0B5
:1014A00030BD00BF60010020001BB700D405002044
:1014B000F9130008191300081FB504466B460221F2
:1014C0000622182009F05CFD9DF800309DF80120EF
:1014D0009B0803EB0223ADF808309DF802309DF81D
:1014E00003209B0803EB0223ADF80A309DF804307B
:1014F0009DF805209B0803EB0223ADF80C30044B4C
:1015000002A821461A780AF01DFE04B010BD00BFE3
:101510000100002010B50F2108220446182009F010
:1015200025FD0E221820102109F020FD034B4FF459
:1015300080521A800CB1024B1C7010BD420000207A
:101540000100002037B5002402AB054603F8014D29
:1015500018202146012209F013FD50B19DF80730F3
:10156000FB2B05D1044B01202B60044B6B6000E08A
:10157000204603B030BD00BF15150008B91400089F
:10158000324B2DE9F0411C88314B0A265A89B3F9B8
:101590001250A41A1A89ED025443B3F91420E4132B
:1015A000224495FBF2F22244DA615643A2F57A62B4
:1015B00002FB02F4B3F90480B3F902C0B3F90E7070
:1015C00002FB0CFC02FB08F2B3F90C802413674306
:1015D00004FB08F4241404EB62320232DC8892101B
:1015E00002F50042B3F920506243B3F900304FEAEC
:1015F000EC2404EBE72404EB8304AC40154B0234E9
:101600001B68D20BA3EBA4044CF250332B41634371
:1016100055BF5B00B3FBF2F3B3FBF2F35B001A12AE
:10162000524340F6DE3462430B4C08365C432414CC
:1016300004EB224202F6CF62361103EB221300B113
:10164000036001B10E60BDE8F08100BF0606002016
:10165000DC0500200006002043E3FFFF114B07B527
:101660001B781BB9104B1A8801321A8001ABF62186
:101670000322772009F084FC9DF805209DF80430B2
:10168000120242EA03429DF806301A43074BB3F9AF
:101690002030C3F10803DA40054B1A6003B05DF84F
:1016A00004FB00BFD6050020D8050020DC05002083
:1016B000000600200C4B07B51B781BB90B4B1A8892
:1016C00001321A8001ABF6210222772009F058FC82
:1016D0009DF805309DF8042043EA0222044B1A804D
:1016E00003B05DF804FB00BFD6050020D80500203C
:1016F00006060020064B002193F82020054B92019E
:10170000343219707720F42102F0FC0209F02EBC6B
:10171000DC050020D6050020034B00221A7077203C
:10172000F4212E2209F022BCD605002010B54FF47A
:1017300080400BF03FFB0128044605D14FF4804068
:101740000BF046FB014B1C7010BD00BFD6050020FE
:101750002DE9F0476B4B8CB01A686B4B05469A42EB
:1017600000F0CA80DFF8C0A19AF80080B8F1000F3D
:1017700040F0C480654F4FF40059022610233846CC
:1017800002A94FF480448DF80B608DF80A30ADF853
:10179000089009F0D7F80423384602A98DF80A30DA
:1017A000ADF8084009F0CEF80E213046C7F8109089
:1017B00009F001F90126082304A804948DF81530D6
:1017C0008DF814808DF816600BF0BAFA28238DF886
:1017D0000C3003A80F238DF80D308DF80E308DF8E6
:1017E0000F600BF019F9142009F071FC32460DF16D
:1017F00007037720D02109F0C3FB9DF80730444C44
:101800000322552BE375228418BFC7F8149073D1B7
:10181000D12132460DF10703772009F0B1FB9DF885
:101820000730772003F00F021B0922766376162219
:1018300006ABAA2109F0A4FB9DF818209DF81930E9
:1018400043EA022323809DF81A209DF81B3043EAC7
:10185000022363809DF81C209DF81D3043EA02237B
:10186000A3809DF81E209DF81F3043EA0223E380E9
:101870009DF820209DF8213043EA022323819DF822
:1018800022209DF8233043EA022363819DF824201F
:101890009DF8253043EA0223A3819DF826209DF878
:1018A000273043EA0223E3819DF828209DF8293060
:1018B00043EA022323829DF82A209DF82B3043EA35
:1018C000022363829DF82C209DF82D3043EA0223E9
:1018D000A38241F270738AF800602B8046F6781379
:1018E0006B800C4B6B600C4BAB600C4BEB600C4B90
:1018F0002B610C4B6B6101E0002000E001200CB07B
:10190000BDE8F08760010020001BB7000010014017
:10191000DC05002019170008B5160008F5160008A8
:101920005D16000881150008040600202DE9F04F1F
:10193000504A514E1768738984463089A7EB0327B4
:1019400085B0039187FB0001B288CB111404C20952
:10195000F08842EA416287FB000114EB02087288BA
:101960004FF000054FEAC2344FEA1022B08945EB30
:10197000030942EA01620B1287FB000114EB020A21
:101980004FEAD05242EA41224FF0000545EB030BEB
:1019900012F5FA604FEAE15343F10001CDE900018D
:1019A000B0F5FA6F71F1000147DAA2FB024502FBC4
:1019B00003F1052605EB4105A4FB060106FB051115
:1019C0004D104FEA3004B8EB040869EB05098408B0
:1019D0002A4844EA81748D104FF0FF31BAEB040AB3
:1019E0006BEB050BDDE9004584428D4125DA40F6BD
:1019F000AC5012184FF0000143EB010302FB03F15E
:101A0000A2FB02236FF0060003EB4103544200FBEC
:101A10000344A2FB000118EB000821444FF00B0423
:101A200049EB0109A2FB040104FB031149104FEA31
:101A30003000BAEB000A6BEB010B114B1A68A2FBEA
:101A40000A0102FB0B11420D42EAC1224B15B2EB17
:101A5000080263EB0903D00B40EA4340BCF1000FDE
:101A600001D0CCF80000039808B10099016005B0DE
:101A7000BDE8F08F0C0600201006002024FAFFFFBE
:101A80000806002007B5002101AB0322772009F0EA
:101A900077FA9DF805009DF80430000240EA034003
:101AA0009DF80630184303B05DF804FB08B5FFF756
:101AB000E9FF014B186008BD0806002008B5FFF7D4
:101AC000E1FF014B186008BD0C060020772048217B
:101AD000012209F04BBA77205821012209F046BAB9
:101AE000444BF7B51A68444B04469A420FD0434D15
:101AF00002234FF400568DF807302846102301A921
:101B0000ADF804608DF8063008F01CFF6E610A2005
:101B100009F0DDFA7720A02101220DF1030309F07D
:101B20002FFA002863D01E210122772009F01EFA27
:101B30004FF42F6009F0C0FA0025A5F160010026DE
:101B4000022201AB7720C9B28DF804608DF80560E0
:101B500009F016FA9DF804209DF8053043EA0223A7
:101B6000274AAB520235102DE7D1D789314607F00D
:101B70000F0507F47F47D7810123505A023100280F
:101B800018BF00231029F8D103BB194611F0010F2B
:101B90004FEA610004D012F810004340082004E02E
:101BA00032F8100083EA1023F8E71E0448BF83F4DC
:101BB000C05301384FEA4303F7D101311029E5D171
:101BC000C3F303332F439D42D78101D000200EE0A1
:101BD00042F21073238063800A4B012063600A4B3A
:101BE000A3600A4BE3600A4B23610A4B636103B0B5
:101BF000F0BD00BF60010020001BB70000100140D5
:101C000010060020D71A0008BD1A0008CD1A0008D7
:101C1000AD1A00082D1900080E4B0F4A9B68128858
:101C200010B51A420D4C03D009F026FA20600BE0E3
:101C300009F022FA2368984206D9094AC31A1268A1
:101C40003B2193FBF1F31360064BBDE8104018688D
:101C50000BF0BEB8000C014024060020280600202E
:101C6000300600202C060020FFF7D6BFFFF7D4BFB8
:101C70002DE9FF412B4B2C4F2C4C2D4E2D4D40B1BF
:101C8000012811D102223A80226018803070072288
:101C900009E04FF480721A804FF400723A8022609B
:101CA0000922327017222A701B884FF01008ADF8F5
:101CB000043001A9022320488DF807308DF80680F2
:101CC00008F040FE3B881C48ADF8043004230DEBBF
:101CD00003018DF8063008F035FE3178012008F058
:101CE0006AFE20680BF074F8236802A802930124AE
:101CF00000238DF80C308DF80E408DF80D800BF020
:101D00001FF82B780D4A59B203F01F039C40490974
:101D100042F8214009F0CAF9094B3C38186004B078
:101D2000BDE8F08134060020240600202C060020A7
:101D30003606002026060020000C014000E100E0ED
:101D40002006002038B5044609F0B0F9084B1968A0
:101D50003C3188420BD31860064D074B0B201C60AA
:101D60002B88064C236109F0A7F92B88636138BDE5
:101D7000200600203406002030060020000C014020
:101D800037B5002402AB054603F8014D1E200A2199
:101D9000012209F0F5F850B19DF80730482B03D126
:101DA00025B1044B1D7001E0204600E0012003B086
:101DB00030BD00BF1000002030B585B006220546BA
:101DC00003216B461E2009F0DBF89DF801309DF8D9
:101DD00000001A4C43EA002000B2FEF747FF2168DA
:101DE000FEF798FFFFF75CF99DF80330ADF80800A7
:101DF0009DF8020043EA002000B2FEF737FFA16819
:101E0000FEF788FFFFF74CF99DF80530ADF80C00A0
:101E10009DF8040043EA002000B2FEF727FF616846
:101E2000FEF778FFFFF73CF9054BADF80A002946AD
:101E300002A81A780AF086F905B030BD0400002027
:101E4000100000202DE9FF41634B644A1B68934258
:101E50000DD14FF48053ADF8043002238DF80730D4
:101E600004238DF806305E480DEB030108E05D4A5F
:101E7000934207D104A94FF480435B4821F80C3DFD
:101E800008F060FD322009F022F9002111221E2005
:101E900009F06CF8012160221E2009F067F8642027
:101EA00009F015F902A8FFF787FF00240A25274645
:101EB0002646022101221E2009F058F8322009F09E
:101EC00006F902A8FFF778FFBDF90820BDF90A104E
:101ED000BDF90C3014449142B8BF0A461E449A42E0
:101EE000B8BF134613F5805F0F4409DD3C4B013D3D
:101EF000DA6882F01002DA60DBD14FF0010801E00D
:101F00004FF000081E200021122209F02FF80A25A8
:101F1000022101221E2009F029F8322009F0D7F809
:101F200002A8FFF749FFBDF90820BDF90A10BDF965
:101F30000C30A41A9142B8BF0A46F61A9A42B8BFAA
:101F4000134613F5805FC1EB070707DD244B013D06
:101F5000DA6882F01002DA60DAD101E04FF00008AE
:101F60002046FEF783FE01462048FEF787FF204DFE
:101F700020F0004028603846FEF778FE01461B48F6
:101F8000FEF77CFF20F0004068603046FEF76EFEF2
:101F900001461848FEF772FF20F00040A8600021BB
:101FA00070221E2008F0E2FF012120221E2008F0EE
:101FB000DDFF1E200221002208F0D8FF642009F076
:101FC00086F8B8F1000F04D14FF07E532B606B60A0
:101FD000AB6004B0BDE8F0816001002000127A001F
:101FE000000C0140001BB7000010014000406F468C
:101FF0000400002001C05E467FB52A4C23789BB9BF
:102000007A238DF80430284B0222B3F900306D207A
:10201000C3F1B40393FBF2F38DF80530FF2101AB5C
:1020200008F04AFF01233AE0012B22D11F4E0A2576
:10203000B6F90000792390FBF5F00021B4225A3064
:102040008DF8043009F05AFFB6F902308DF805001A
:1020500093FBF5F00021B4225A3009F04FFF01AB99
:102060008DF80600FF216D20032208F025FF0223D2
:1020700015E0022B14D164238DF8043001238DF870
:1020800005300B4B6D205B78FF21002B18BF01231F
:102090008DF80630032201AB08F00EFF00232370F9
:1020A00004B070BD37060020F81A0020120A002084
:1020B000BA1900201FB504466B46012106221C20D8
:1020C00008F05EFF9DF801309DF800209DF8021099
:1020D00043EA022242F38D02042392FBF3F2ADF8AD
:1020E00008209DF8032002A842EA012242F38D0253
:1020F00092FBF3F29DF80410ADF80A209DF805203C
:1021000042EA012242F38D0292FBF3F3ADF80C3068
:10211000034B21461A780AF015F804B010BD00BF31
:102120001100002037B52023ADF8043004230DEB57
:102130000301022405461C488DF806308DF807403F
:1021400008F000FC2A2100221C2008F00FFF0E21BD
:1021500022461C2008F00AFF0F2103221C2008F051
:1021600005FF2B2112221C2008F000FF2C21224603
:102170001C2008F0FBFE2D2101221C2008F0F6FE99
:102180002E2100221C2008F0F1FE05221C202A210D
:1021900008F0ECFE054B4FF480721A800DB1044B31
:1021A0001D7003B030BD00BF000801404200002098
:1021B0001100002013B500238DF807300F4B0446A3
:1021C0001A680F4B9A4201D1002015E01C200D2106
:1021D00001220DF1070308F0D3FE0028F4D09DF88A
:1021E00007302A2B01D01A2BEED1064A012022609B
:1021F000054A6260054A137002B010BD60010020FC
:10220000001BB70025210008B52000083806002073
:1022100013B50222044601AB1B21682008F0B0FE72
:102220009DF804209DF8053043EA022303F54E5340
:102230004FF48C72103393FBF2F32333238002B0FC
:1022400010BD00001FB504466B461D210622682004
:1022500008F096FE9DF801309DF800209DF80210D0
:1022600043EA022212B2042392FBF3F2ADF80820F3
:102270009DF8032002A842EA012212B292FBF3F277
:102280009DF80410ADF80A209DF8052042EA0122CD
:1022900012B292FBF3F3ADF80C30034B21461A78DF
:1022A00009F050FF04B010BD1300002010B5044623
:1022B000192008F00CFF68201521002208F056FEB6
:1022C00010B9032008F0C6FF0D4B16211A786820BC
:1022D00042F0180208F04AFE17210022682008F098
:1022E00045FE3D210122682008F040FE68203E2185
:1022F000012208F03BFE0CB1024B1C7010BD00BF68
:10230000120000201300002038B5054619200C46A5
:1023100008F0DDFE68201521002208F027FE18B322
:10232000124B622C2B60124B6B60124BAB60124B4A
:10233000EB60124B0FD004D80A2C12D0142C0ED004
:102340000BE0BC2C04D0B4F5807F06D1002209E05C
:102350000120187038BD022204E0032202E00422AA
:1023600000E005221A70012038BD00BFAD22000830
:102370004522000811220008184492311200002062
:10238000064B1A78064B12B14FF4FF6201E04FF48E
:1023900080521A8008B1034B18707047390600202C
:1023A00042000020140000201FB504466B46432164
:1023B0000622682008F0E4FD9DF801309DF8002019
:1023C0009DF8021043EA022212B2042392FBF3F2B8
:1023D000ADF808209DF8032002A842EA012212B2BB
:1023E00092FBF3F29DF80410ADF80A209DF8052049
:1023F00042EA012212B292FBF3F3ADF80C30034B28
:1024000021461A7809F09EFE04B010BD1600002087
:102410001FB504466B463B210622682008F0B0FD3C
:102420009DF800209DF8013002A843EA0223ADF890
:1024300008309DF802209DF80330214643EA02232C
:10244000ADF80A309DF804209DF8053043EA0223D8
:10245000ADF80C30024B1A7809F074FE04B010BDD0
:102460001400002013B54FF40053ADF804300223DC
:102470008DF8073004238DF806301D4B1D4A1B686C
:102480000446934201D11C4803E01C4A934203D105
:102490001B4801A908F056FA6B218022682008F039
:1024A00065FD052008F013FE19210022682008F0C0
:1024B0005DFD6B210322682008F058FD37210222C0
:1024C000682008F053FD0F4B1A211A78682008F095
:1024D0004DFD1B211822682008F048FD68201C21B2
:1024E000102208F043FD0CB1074B1C7002B010BD68
:1024F0006001002000127A00000C0140001BB700B0
:102500000010014015000020160000202DE9F043C6
:10251000814685B023200E461446984608F0D7FD24
:102520006820752101220DF1070308F029FD00281C
:102530006FD09DF80770682F6AD1062102AB38462C
:102540000A4608F01DFD9DF80B309DF80D5003F074
:1025500001035B0005F0010543EA85059DF809309C
:1025600003F001031D4308D0012D01D12A4B1AE0CD
:10257000022D0ED10022284B13E00DF1070338463F
:102580000C21012208F0FCFC9DF8073013F00F032A
:1025900003D1052008F05EFE06E0042B1E4B02D19D
:1025A00001221A7000E01D701C4BC9F800301C4B52
:1025B000C9F804301B4B33601B4B73601B4BF3603B
:1025C000B8F1000F03D0144B1B7888F80030142C9E
:1025D000174B15D004D8052C16D00A2C12D00DE0BC
:1025E000BC2C08D0B4F5807F03D0622C06D1022227
:1025F0000BE0002209E0012018700AE0032204E049
:10260000042202E0052200E006221A70012000E008
:10261000002005B0BDE8F0833906002081230008C2
:102620001124000865240008A923000818449231E9
:10263000150000201FB504466B46A821062268201D
:1026400008F09EFC9DF801309DF800209DF80210D6
:1026500043EA022212B2042392FBF3F2ADF80820FF
:102660009DF8032002A842EA012212B292FBF3F283
:102670009DF80410ADF80A209DF8052042EA0122D9
:1026800012B292FBF3F3ADF80C30034B21461A78EB
:1026900009F058FD04B010BD1700002010B5044625
:1026A000642008F014FD68202321F02208F05EFC6D
:1026B00010B9032008F0CEFD052008F008FD064BF8
:1026C00068201A78202142F00F0208F04FFC0CB16C
:1026D000024B1C7010BD00BF3A06002017000020FE
:1026E00037B5054619200C4608F0F1FC0DF107033B
:1026F00068200F21012208F043FC9DF80730D32BFE
:1027000015D10C4B4E2C2B600B4B6B600B4BEB60C5
:102710000B4B06D05D2C08D0362C14BF0022402273
:1027200000E080221A70012002E0C022FAE70020B7
:1027300003B030BD9D26000835260008DDE9A7312D
:102740003A060020074BA1F57A7153F820304FF478
:102750007A701A689B884B4393FBF0F39BB213800B
:10276000704700BF38070020024B53F820301B6829
:1027700019807047380700202DE9F04FDFF81C81E1
:10278000050158F805408E4687B008EB050711464D
:10279000204692467246009300F00AFBB96807F1A2
:1027A0000802ADF80810182178688DF80A104FF06B
:1027B000020B02A901928DF80BB008F0C3F8019A40
:1027C00002A817790AF027FF7022009B324EADF85D
:1027D00008200122ADF80A20ADF80E3000224FF497
:1027E000807306EB0509ADF80C20ADF810B0ADF81C
:1027F00014300C2F2BD8DFE807F0072A2A2A102ADA
:102800002A2A192A2A2A2200204602A90AF0FCFDB7
:10281000204608210AF034FF19E0204602A90AF0F8
:1028200037FE204608210AF033FF10E0204602A9B7
:102830000AF072FE204608210AF034FF07E0204625
:1028400002A90AF0ABFE204608210AF033FF08EB8C
:1028500005039B7B1BB1204601210AF0FAFE2046AE
:1028600001210AF0EAFE0C2F10D8DFE807F0070F6D
:102870000F0F090F0F0F0B0F0F0F0D00343404E073
:10288000383402E03C3400E0403474514846A9F842
:1028900004A007B0BDE8F08F4C0600208C080108AA
:1028A0001B4A1C48138810B51180C91A038089B2CD
:1028B00040F68C239942184B02D900221A7010BDA1
:1028C000A1F2EF2080B240F2DA52904218D81A7882
:1028D000072A15D81148032A20F81210104809D8E1
:1028E000104C24888C4205D2012101FA02F20178B1
:1028F0000A43027002780F2A02D1094A002111709E
:102900001A7801321A70084B00221A8010BD00BFDD
:1029100030070020880700203B0600203C060020EE
:102920002D07002018000020580B00207FB504461A
:1029300001A80D4616460AF078FE0123ADF80830CE
:102940002046002301A9ADF80450ADF80660ADF8AB
:102950000A30ADF80C300AF0E9FE04B070BD00009A
:1029600038B5124B00010344DA79114C52B90122F7
:10297000DA7119812318197B20580222BDE83840EA
:10298000FFF7D4BF1D8959810A4A491B9D7989B235
:1029900022F8151000259981DD712318197B205824
:1029A0002A46FFF7C3FF044B1D8038BD4C060020AC
:1029B0008C0801083C060020580B00202DE9F74345
:1029C000DFF85880050105EB0804A368124EADF846
:1029D00004302E44282307468946B27160688DF87A
:1029E000063001A902238DF8073007F0ABFF55F838
:1029F0000800217B0022FFF799FF20464FF6FF7168
:102A0000012200F0F7F9204639464A4600F0B0F9B5
:102A1000304603B0BDE8F0834C0600208C08010866
:102A2000F8B5028A454B04461A8083794278002B18
:102A300014BF0223002302B10133414A002552F89A
:102A400023707A5DFF2A02F00F0002F0F00309D133
:102A50003C4A3D4B1A602289B2F5FA7F6BD93B4A5A
:102A60001A6068E0A17811B1811E01295FD9E1786F
:102A700011B1011F03295AD9E17909B1814256D018
:102A800012F0300F03D02278002A08BF00232279E9
:102A900032B1A27922B9A0F10802012A98BF80239D
:102AA00062792AB1A2791AB9021F032A98BF80233A
:102AB000DE0607D500222649FFF780FF254B0822B6
:102AC0001A7034E0990608D5224E23493278FFF770
:102AD00075FF33780133337029E05A0615D51F4A44
:102AE00023891678B3F5FA7F06F1010E82F800E02B
:102AF0001B4A94BF012108214A43B2FBF3F292B270
:102B0000A389FFF739FE174B0FE01B060FD5164BB5
:102B100001211E78721C1A706389114A92FBF3F22C
:102B200092B2E389FFF728FE104B43F826000135E7
:102B30000E2D86D18CE70020F8BD00BF18000020C4
:102B40005C080108692700083407002045270008B1
:102B5000A12800088A070020612900082E0700200C
:102B600040420F00380700202C0700206807002093
:102B700008B5044B1B78834202D9034B1B68984766
:102B800008BD00BF2E07002034070020044B1B782F
:102B9000834204D9034B53F820301B6819807047D7
:102BA0002C07002068070020014B33F81000704705
:102BB0003C060020F8B5134B04469B890D4616468B
:102BC000EEB115B12F78013500E0FF270D48022145
:102BD0000AF05AFB0028F9D00A4839460AF04FFBA0
:102BE000084801210AF050FB0028F9D005480AF0F6
:102BF00048FBC0B20CB120700134013EE0E7012077
:102C0000F8BD00BF003800402DE9F0474FF4804088
:102C100088B001210AF0AAFA4FF4804001210AF09D
:102C2000BDFA344D18238DF802304FF42043ADF82F
:102C300000302846032369464FF004082E4F8DF8D4
:102C4000033007F07FFE4FF4804328466946ADF815
:102C500000304FF480564FF0100A8DF8028007F0D4
:102C600071FE69462846ADF800608DF802A007F0B5
:102C700069FE38460AF0A6FA4FF48273ADF80E30BA
:102C80004FF40073ADF8163007230024ADF81C3064
:102C90004FF001090223384603A9ADF81230ADF810
:102CA0000C40ADF81040ADF81A40ADF81490ADF8F6
:102CB00018A00AF0B9FA384649460AF0D4FA9F2318
:102CC0008DF804308DF805408DF806408DF80740EA
:102CD00002A86E610DEB08014246FFF76BFF2E6103
:102CE0009DF80900B0F1EF035842584108B0BDE823
:102CF000F08700BF000C01400038004070B5002490
:102D00000D4EE5B256F8256001348642F8D1A80090
:102D1000C0B20024094EE5B2765D01348E42F9D18D
:102D20002844C0B20F2805D8054C04EB001083607E
:102D30000171027370BD00BF6C0901087C090108B4
:102D4000041300200C2912D8DFE801F0071111113B
:102D5000091111110B1111110D00022104E00421C0
:102D600002E0082100E0102101220AF080BC704737
:102D700038B504460D461346217B00682A46FFF706
:102D8000BDFF2068217BBDE83840FFF7DBBF07B5FA
:102D900000238DF804008DF8053001A801238DF87B
:102DA00006308DF8073009F037FE03B05DF804FBFC
:102DB0007FB5044601A816460D460AF023FC0B4BCE
:102DC000013D5E430A4B20461B6801A9B3FBF6F6A2
:102DD000013E0023ADF80850ADF80460ADF80A30AC
:102DE000ADF806300AF0C6FA04B070BD40420F00DC
:102DF0006401002010B504460068FFF7D9FF206881
:102E000001210AF01AFC607BBDE81040FFF7BFBF4C
:102E100010B500230A4CDAB254F822400133844240
:102E2000F8D19200D0B20023064CDAB2A45C013390
:102E30008C42F9D10244044BD0B203EB001010BD18
:102E40006C0901087C0901080413002070B50446D0
:102E500000262E4BF55C95B9204602210AF00BFDA9
:102E600001284FD1204602210AF010FD29462046B4
:102E7000FFF7CEFF054620460AF0F0FC3DE0042DAA
:102E800012D1204629460AF0F6FC01283AD1204604
:102E900029460AF0FBFC29462046FFF7B9FF054604
:102EA00020460AF0DEFC28E0082D12D120462946F3
:102EB0000AF0E1FC012825D1204629460AF0E6FC6B
:102EC00029462046FFF7A4FF054620460AF0CCFC21
:102ED00013E00C2D16D1204610210AF0CCFC01285D
:102EE00010D1204610210AF0D1FC29462046FFF7D8
:102EF0008FFF054620460AF0BAFCAB6801460BB1CD
:102F0000287B98470136042EA3D170BD7C090108A7
:102F10000148FFF79BBF00BF002C01404FF08040ED
:102F2000FFF794BF0148FFF791BF00BF00040040C6
:102F30000148FFF78BBF00BF000800401D481E4935
:102F4000026800608A4200F01F80002100F004B88F
:102F50001A4B5B584350043119481A4B42189A4295
:102F6000FFF4F6AF184A00F003B8002342F8043B20
:102F7000164B9A42FFF4F9AF09F032FC0CF03AFE1E
:102F800003F0E4FBFFF7FEBF114E12483060124819
:102F9000016821F070610160410201600F4C18204E
:102FA00020600F490F4808600F48D0F800D04068F3
:102FB00000470000F04F0020EFBEADDEF830010802
:102FC00000000020B4050020B4050020A41F00204C
:102FD000181002400900000004000140140C0140D8
:102FE000000C01404434434400F0FF1FFFF7FEBFD4
:102FF000F8B5174C06462378274673B908F056F8FB
:10300000144D2A683232904207D30120207008F014
:1030100079F808F04BF82860F8BD3B78B3B108F0B8
:1030200045F80C4C2368334498420FD3084B0020DA
:10303000187008F067F808F039F8074B20601A7824
:103040000AB1013A1A70054B01221A70F8BD00BF8F
:103050008D07002094070020000C00208E07002020
:1030600073B5234D8DF807302B788DF8062002AA12
:103070008DF804008DF805101A4412F8042C443A17
:10308000D2B20A2A2CD81B49022B31F8124003D89D
:1030900014B12046FFF7ACFF2B78022B0BD9164B4F
:1030A0001E6808F003F8001B864204D2104A002371
:1030B0001370124A1370124B1A78012A1A4600D064
:1030C0009CB92B78022B02D8094901330B700D4BA8
:1030D00000201070187002B0BDE8704008F012B8FF
:1030E000022B4FF03204D4D9D6E702B070BD00BF36
:1030F0008B0700208009010894070020000C0020A5
:103100008E0700208D0700202DE9F0413F4F064635
:103110007B7B3F4D03B101234FF400702B7001F016
:10312000CFF93C4CF8B13C4B3C481B8890F8B4209C
:1031300019B202EB820E714513DDDFF8E8E09EF86C
:1031400001E0BEF1000F0AD090F8B5004FF0010E7B
:10315000024402EB8202914284F800E001DD022287
:10316000227003B92370202001F08AF960B1BA7A85
:103170002B4B12B9254AD27A22B12A4AD27A0AB9FD
:10318000012200E000221A702378022B02D14C2089
:103190004E211DE0012B07D14D2153204C220B461F
:1031A000BDE8F041FFF75CBF1D4B1B78012B03D13D
:1031B000532001464E2205E02B78012B04D15320E9
:1031C000014602464D23EBE7042E03D153204D2147
:1031D0000A460AE0022E03D1532001464D2204E0A4
:1031E000012E04D153204D214E224423D8E70E4B0B
:1031F000187820B13220BDE8F041FFF7F9BE0B4B43
:103200001870BDE8F04107F07DBF00BF2A1A00200A
:103210008F0700208C070020580B0020041400208A
:1032200090070020BA190020000C00208D07002014
:1032300070B50646B6FBF2F40846154614B12046B2
:10324000FFF7F6FF05FB1464024B1B5D00F8013B22
:1032500070BD00BF140B01082DE9F0410278034650
:10326000202A00F10100F9D0092AF7D02D2A02D135
:103270000346414D04E02B2A08BF03464FF07E551C
:103280001E460024334616F8012BA2F13007F9B28E
:1032900009290DD839492046FDF73CFD044638463A
:1032A000FDF7E4FC01462046FDF72CFC0446E9E767
:1032B0002E2A17D1314F334616F8010B3038C2B2DF
:1032C000092A0FD8FDF7D2FC3946FDF7D7FD014694
:1032D0002046FDF717FC294904463846FDF71AFD3C
:1032E0000746E8E71A7802F0DF02452A38D15A7813
:1032F0002D2A02D10233012604E02B2A14BF013308
:1033000002330026013B002713F8012F303AD1B2D7
:10331000092903D80A2101FB0727F5E7B7F59A7FAA
:1033200028BF4FF49A77B8464FF07E51B8F1070F97
:1033300007D908461249FDF7EDFCA8F10808014637
:10334000F4E707F0070737B108460C49FDF7E2FC40
:10335000013F0146F7E72EB12046FDF78FFD04E05F
:103360004FF07E512046FDF7D5FC01462846FDF77B
:10337000D1FCBDE8F08100BF000080BF000020410B
:1033800020BCBE4C10B5441E14F8011F21B1034BE4
:10339000186807F081FFF7E710BD00BF641900202F
:1033A0000148FFF7EFBF00BF390B010810B5074810
:1033B000FFF7E8FF0024064B06481A19E158526847
:1033C0000C3408F07DFDC02CF5D110BD670B010851
:1033D000380A01087D0B010870B507F067FE274B1E
:1033E0004FF47A711A78264BB0FBF1F11B7825481F
:1033F00008F066FD01F05EF8234B05461968234B83
:103400002348B1FBF3F108F05BFD0024214AE3B24D
:1034100052F8231049B1012202FA03F32B4202D0E1
:103420001D4808F04DFD0134F0E7022001F028F8B6
:1034300098B11A4C1A4B22781A4853F8221008F007
:103440003FFD2378022B08D1174B18481B7C002B1B
:103450000CBF6E216F2108F033FD1548FFF792FF76
:10346000144B1C8807F0E6FD214602464FF47873A2
:103470001148BDE8704008F023BD00BF101A0020BD
:1034800041000020850B01086401002040420F002C
:10349000C30B0108FC190108E10B01084C0D0020C9
:1034A000F80A0108E50B010864190020EF0B010878
:1034B000A40E0108260C0020F30B0108F8B50746FE
:1034C0000CF008FD044650B9264B27485A79274B83
:1034D000013A53F82210BDE8F84008F0F1BC384634
:1034E000234922460CF026FD60B92248FFF74AFF27
:1034F000214C54F8041F19B1204808F0E1FCF8E70A
:103500001F4805E00025194B53F8256026B91D48D2
:10351000BDE8F840FFF736BF3846314622460CF08A
:1035200009FD01350028EED10E4C17483146657172
:1035300008F0C6FC6379082B01D00E2B10D1134B79
:10354000002232241E20142183F820202D2283F80B
:103550002540187199731A769C76D8715974DA7669
:10356000F8BD00BFE8140020250C0108DC090108A3
:10357000FA170108390C0108D8090108E10B010804
:10358000A40E01084C0C0108640C0108041400206E
:1035900038B50C68054620460CF09CFC21460246D6
:1035A0002868BDE838400CF0C5BC000008B50948E3
:1035B000FFF7E8FE0121002000F0FCFE0648FFF7BF
:1035C000E1FE0A2007F083FDBDE80840002007F077
:1035D00089BD00BF760C0108800C01087FB5044648
:1035E0000CF078FC082824D100231F49E25C09680C
:1035F0001144497801F00301022908BF203AE2543E
:103600000133082BF1D10025665D184831460CF0D6
:1036100089FB28B10135601931460CF083FB18B1E4
:103620001348FFF7AFFE1CE0082DEDD1204600F057
:1036300013FE1048FFF7A6FE00230F4A04A91A4400
:1036400092F808210A440949595C0133082B02F811
:103650000C1CF2D10023094801A98DF80C3008F0A8
:103660002FFC04B070BD00BF800100209023010832
:103670008F0C0108AF0C0108E8140020800B010832
:1036800008B501F0F9FABDE8084001300CBF024866
:103690000248FFF777BE00BFC40C0108EA0C01081E
:1036A0002DE9F04105460CF015FC044601F0C0F888
:1036B00006468CB92948FFF765FE294B53F82410BC
:1036C00041B10123A340334202D0264808F0F8FB61
:1036D0000134F2E7244821E02846244922460CF030
:1036E00029FC58B92248FFF74DFE224C54F8041F1C
:1036F0000029EFD01B4808F0E3FBF7E72B78002602
:103700002D2B03BF013504F1FF344FF001084FF0BA
:103710000008134B53F8267027B91748BDE8F0414D
:10372000FFF730BE2846394622460CF003FC98B914
:103730000120B040B8F1000F03D001F071F80F483C
:1037400002E000F0C7FE0E48FFF71CFE39460D48A8
:10375000BDE8F04108F0B4BB0136DAE7080D010816
:1037600098090108E10B0108A40E0108FA170108E5
:103770001B0D010894090108300D01084A0D0108CC
:10378000540D0108800B010810B504460848FFF7E6
:10379000F9FD084A00231370074A1360074A1370A3
:1037A00003F034F92046BDE81040FFF7FFBE00BF2C
:1037B0005D0D010899070020CC0700209807002024
:1037C00008B50848FFF7DEFD012000F08BFE064833
:1037D000FFF7D8FD0A2007F07AFCBDE8084000207A
:1037E00007F080BC750D0108820C010810B5044675
:1037F00020460CF06FFB10F0FF0F07D10B4B0C486D
:1038000093F8DC13BDE8104008F05ABB20460CF0DA
:10381000C5F9022808D8054B064C83F8DC030020C4
:10382000014600F0C7FDE3E710BD00BFE81400202B
:10383000900D0108B410010870B504460CF04AFB65
:1038400008B9204830E020461F490CF021FE002432
:103850002646254678B12CB1012C06D10CF09EF9F4
:10386000064602E00CF09AF905461749002001349B
:103870000CF00EFEEEE70B2D05D9BDE870401348A5
:103880000C2108F01DBB012C08DC114B294633F933
:1038900015201048BDE8704008F012BBA6F57A73F9
:1038A000B3F57A7F04D90C48BDE8704008F008BB36
:1038B0000A482946324608F003FB054B23F81560F9
:1038C00070BD00BFA60D01087E100108E00D0108C3
:1038D00090190020060E01081E0E0108400E010876
:1038E00038B505460CF0F6FAC0B268B90446124B7A
:1038F000214603EB44031148B3F84220013408F099
:10390000DFFA152CF3D138BD28460CF047F91428FE
:1039100004460BDC202128460CF004FA0CF03EF99A
:10392000054B03EB4404A4F8420038BD04481521BC
:10393000BDE8384008F0C4BA04140020590E01084C
:10394000650E0108931E232B28BF0A22031E10B503
:103950000C4603DA2D2001F8010B5842FFF768FCF2
:1039600000230370204610BD30B587B005460C46D5
:1039700003A800210C220CF065F928460021FDF770
:1039800085FB20B128462949FDF7BCF803E028460D
:103990002649FDF7B5F82649FDF7BCF9FDF780FB90
:1039A000054685EAE570A0EBE57069460A22FFF757
:1039B000C9FF002DACBF20232D2368468DF80C30A5
:1039C0000CF088FA012807D130238DF80D308DF8DE
:1039D0000E308DF80F300CE0022805D130238DF821
:1039E0000D308DF80E3004E0032804BF30238DF82D
:1039F0000D30694603A80CF06FF903A80CF06AFAC1
:103A00000338C5B22A4603A920460CF0BBFA0023AE
:103A10006355204607490CF05FF903A92046294465
:103A20000CF05AF9204607B030BD00BF6F12033AC0
:103A300000007A448D0C010837B5037904460D4621
:103A4000052B34D8DFE803F003060A0D1114836850
:103A500019782DE0836893F9001029E083681988AC
:103A600026E08368B3F9001022E0836819681FE03C
:103A7000836869461868FFF777FF0146124808F027
:103A80001FFAF5B1E068FDF7F1F86946FFF76CFF42
:103A900001460E4808F014FA2069FDF7E7F8694678
:103AA000FFF762FF0146094808F00AFA09E0002121
:103AB000074808F005FA25B10648E168226908F0D0
:103AC000FFF903B030BD00BFEC0B0108EB0B0108A0
:103AD0008F0E01088B0E01082DE9F04707460CF008
:103AE000F9F94D4D064620B1012818D13B782A2B13
:103AF00015D14A48FFF746FC00242959484808F0E8
:103B0000DFF928193146FFF797FF4648FFF73AFCDF
:103B1000143440F674139C42EFD1BDE8F087384668
:103B20003D210CF0FFF800285BD0441C20460CF02F
:103B300035F882462046FFF78FFB002406464FF0FB
:103B4000140909FB04F955F8098040460CF0C2F944
:103B50004146024638460CF0EDF9002839D12E4F87
:103B60004F44F868FDF782F801463046FDF784FAC5
:103B700000282CD03869FDF779F801463046FDF76A
:103B800071FA20B33B79052B4FF0140303FB045467
:103B9000227918BF5646052A0FD8DFE802F0030342
:103BA0000606090CA268167007E0A268168004E0F9
:103BB000A268166001E0A3681E6041461A4808F03A
:103BC0007FF920460021BDE8F047FFF735BF1748D1
:103BD00003E00134792CB2D11548BDE8F047FFF776
:103BE000D1BB04462E59394630460CF051FB58B132
:103BF0000B48314608F064F9074800212044FFF7DC
:103C00001BFF084808F05CF9143440F674139C421A
:103C1000E8D1BDE8F08700BF1C1A0108920E010828
:103C2000710F0108A40E0108A70E0108B20E0108C9
:103C3000D70E01082DE9FF47584C594808F040F9C4
:103C40005848FFF74DFE6279574B013A53F822105E
:103C5000564808F035F920690021FDF7EFF92746AD
:103C600000285AD10546266900213046FDF7E6F9BD
:103C700000284ED101354E482946D4F814A0D4F876
:103C80001890D4F81C8008F01BF930460021FDF78D
:103C9000DFF910B1474808F013F969463046FFF7DD
:103CA00063FE0146444808F00BF950460021FDF739
:103CB000CFF910B13F4808F003F969465046FFF7C5
:103CC00053FE01463C4808F0FBF848460021FDF74A
:103CD000BFF910B1374808F0F3F869464846FFF7D6
:103CE00043FE0146344808F0EBF840460021FDF75A
:103CF000AFF910B12F4808F0E3F869464046FFF7E6
:103D000033FE01462D4808F0DBF80C2D04F11004B9
:103D1000A9D12B48691C08F0D3F800F089FD294C83
:103D2000054654F8041F19B1274808F0C9F8F8E708
:103D30000C46264B53F8241041B10123A3402B42DB
:103D400002D0234808F0BCF80134F2E7CB1993F80D
:103D5000083104AA13441F4A8A5C0131082903F878
:103D6000102CF3D100241C4869468DF8084008F057
:103D7000A7F81A4D1A48615908F0A2F8281900212D
:103D8000FFF75AFE1748FFF7FDFA143440F6741394
:103D90009C42EED104B0BDE8F08700BFE8140020DB
:103DA000F40E0108B4100108DC090108240F010811
:103DB0002F0F01087E100108EC0B0108800B010891
:103DC000370F010894090108490F010898090108F3
:103DD000570F010890230108640F01081C1A0108FD
:103DE0006D0F0108A40E01082DE9F04389B00446C7
:103DF0000CF070F8C6B2002E6CD17A48FFF7C2FA08
:103E0000794C20690021FDF719F940BB013677484C
:103E1000314608F055F8206904A9FFF7A5FD0146D1
:103E2000734808F04DF8606904A9FFF79DFD01464D
:103E30006F4808F045F8A06904A9FFF795FD014611
:103E40006B4808F03DF8E06904A9FFF78DFD0146D5
:103E5000684808F035F80C2E04F11004D1D1002583
:103E6000654C2F462B464FF00008B04504F1100476
:103E700015DA184654F8101CFCF744FE54F80C1CD4
:103E800081462846FCF73EFE54F8081C0546384695
:103E9000FCF738FE08F101084B460746E5E75748AE
:103EA000019302950397FFF76DFA002401ABE058E8
:103EB000534920F00040FDF7E9F8524B524A0434D0
:103EC000002814BF10461846FFF75CFA0C2CEDD101
:103ED0004E4870E020464E4905220CF02BF838B9C8
:103EE000414B002203441030C0281A61F8D176E01B
:103EF0002046484904220CF01DF80546204605BB23
:103F000020210BF00FFF002869D0461C30460BF033
:103F1000E1FF2C460746404B53F824500DB93F486B
:103F200049E030462946FAB20CF004F838B9204688
:103F300002F00EFE3A48294607F0C2FF47E001347E
:103F4000E9E70BF02BFE461E0B2E074643DC20460E
:103F500020210BF0E7FE054640B1451C2846FFF73F
:103F60007BF9214B3F01D851012400E0044628464B
:103F700020210BF0D7FE054640B1451C2846FFF72F
:103F80006BF9194B013403EB0613586128462021C5
:103F90000BF0C8FE054640B1451C2846FFF75CF90A
:103FA000114B013403EB06139861284620210BF0D6
:103FB000B9FE18B91B48FFF7E5F910E00130FFF72B
:103FC0004BF9094B032C03EB0616F061F2D11648AE
:103FD000FFF70AFF03E015480C2107F071FF09B055
:103FE000BDE8F0837F0F0108E8140020AA0F010844
:103FF000B00F0108800B0108FC140020B40F010869
:104000000AD7233C7B0F0108770F0108A40E010893
:10401000C30F0108C90F0108DC0901084C0C010895
:10402000CE0F0108E10F0108B41001081B100108B0
:104030002DE9F047694B86B01A78984642B90123BA
:10404000674888F80030FFF79DF96648FFF79AF94E
:10405000654D286807F030F9A946002800F0BB80BC
:10406000286807F02EF909280146604C01D03F2846
:1040700053D10027D4F800A05D4E3D46BAF1000FA1
:1040800005D05C48316852460BF054FF10B93746F2
:1040900005B93546584B0C369E42EFD3CDB1D5F815
:1040A00000E0D7F800C053461EF803601CF8030078
:1040B000B04201D023600CE05A1C4E4930B92D2B80
:1040C00004D82026CE542260885402E0CE541346F1
:1040D000EAE723681BB1BD4201D1554612E04748CB
:1040E000FFF750F9BD4209D855F80C0BFFF74AF914
:1040F000D9F80000092107F0CFF8F3E73948FFF7B6
:1041000041F9002523689D42A2D23A4BD9F800001C
:10411000595D07F0C1F80135F4E723682BB904288D
:1041200036D13448FFF730FB55E00C2801D1344834
:1041300089E70A2901D00D2944D13248FFF722F935
:104140002C4D22680023AB5404932F4B03A80093FB
:10415000274910220C2303950BF024FD064638B1A5
:1041600000680BF0B7FE0130B3682844984702E0BE
:104170002648FFF707F91F48002130220BF062FDA7
:104180000023236098F80030002B7FF45EAF22E01C
:104190000C28CCD07F2903D15AE72F2B3FF658AFFC
:1041A000A1F12002D2B25E2A3FF652AF13B9202904
:1041B0003FF44EAF5A1C22600E4A2868D15407F0D3
:1041C0006BF845E77F29E8D10A4A013B00212360CB
:1041D000D1540F483AE706B0BDE8F08798070020B1
:1041E000431001087B10010864190020CC0700204F
:1041F000380A010899070020F80A01088010010810
:1042000085100108A40E01089135000890100108DE
:10421000B11001080E4B1A783F2A16D15A88B2F510
:10422000787F12D11A79BE2A0FD193F8DE230020AD
:10423000EF2A0CD113F8012B5040064A9342F9D1D2
:10424000D0F1010038BF0020704700207047704750
:1042500000F80108E0FB010870B50546441E14F89B
:10426000011F61B1064E30460BF05CFD0028F6D010
:10427000861B0448631B304480F80831EFE770BDAB
:1042800090230108E814002008B5FFF7C3FF10B918
:104290000A2006F0DFFF0C4B0C4918464FF47872E9
:1042A000FCF744FF90F8DC23022A84BF002280F848
:1042B000DC2390F8DC13E42202FB0101044801F541
:1042C0009871FCF733FF08BDE814002000F80108DE
:1042D000041400202DE9F0472E48002390F82050C8
:1042E000C47F03FB03F11939694301F6C411594333
:1042F000614340F6C41291FBF2F1274A22F81310F1
:104300000133072BEDD1254A90F82130B2F8D06067
:10431000B2F8D29090F82270C3F1640803EB830ED8
:104320005C425FFA88F84FEA4E0EC7F1640CC6EBA8
:104330000909A4B20022A5B229B2002904DC002D8B
:1043400014BF1D46012500E0454601FB01FA6D43FF
:104350000AFB07FA9AFBF5F565444D434FF00A0A4C
:1043600095FBFAF575442DB205FB09F54FF47A710A
:1043700095FBF1F50A493544555202325444182A46
:10438000A4B2D8D1007803F0BFFCBDE8F04700F03C
:10439000CDBB00BF04140020AC1A0020E81400209C
:1043A000D419002008B5FFF76FFFBDE80840FFF7FC
:1043B00091BF0000F8B52E4B3F221A704FF478726F
:1043C0005A80BE221A71EF2283F8DE2300220746AC
:1043D00083F8DF231E4649B193F8DC03E42202FB95
:1043E0000030244900F59870FCF7A0FE0022134627
:1043F000B15C0132B2F5787F83EA0103F8D11C4A3F
:10440000002582F8DF3308F0E9FC342008F0FAFCDC
:10441000194808F023FD042815D1174C331903F16E
:104420007843A3F5FC332046196808F035FD0428CD
:1044300005D0013508F0DEFC032DE4D103E00F4B7D
:1044400004349C42EAD108F0D5FC032D02D0FFF7DA
:10445000E1FE10B90A2006F0FDFEFFF7A3FF37B119
:104460000F2014210122BDE8F84003F051B9F8BD36
:10447000E81400200414002000F80108E0FB010803
:10448000034B1B6818420CBF00200120704700BF7F
:10449000D0070020024B1A6810431860704700BF15
:1044A000D0070020024B1A6822EA0000186070470B
:1044B000D0070020014B1868704700BFD0070020CC
:1044C000034B9B6818420CBF00200120704700BFBF
:1044D000E8140020024B9A6810439860704700BFB0
:1044E000E81400202DE9F7430446FFF793FE10B1CE
:1044F000002C00F08381C34AC34D10685168C34C3F
:104500006B4603C34FF47872002128460BF09AFBE8
:104510000021E42220460BF095FB3F232B70022064
:1045200003236B71FFF7D6FF4FF41673A5F8F03035
:10453000FA23A5F8F2302A23A5F8EE304FF4FA73E7
:10454000A5F8F630202385F8F4306E2385F8043181
:104550002B2385F80531212385F8063140F24C43A1
:10456000A5F8143140F26C73A5F8163140F27E4381
:10457000A5F8D03040F23A7300264FF0010840F21F
:10458000DC51A5F8D2304FF4C8724FF47A73A5F815
:10459000121185F8DC63A5F8F860A5F8FA60A5F8B3
:1045A000FC6085F8E26085F8E36085F8E460A5F8D2
:1045B000E660A5F8E860A5F8EA6085F8ED6085F8A2
:1045C000EC8085F8076185F8106185F82A6185F827
:1045D0002B6185F82C6185F8186185F8196185F8DB
:1045E0001A81A5F8D430A5F8DE204FF4E132C5F8E1
:1045F00020214FF4165240F27E53C5F8242140F694
:10460000AC521E20A5F8D630AA8140F2EA531722F8
:10461000A5F8D830E07240F2B45362752073A275E9
:104620000B2055222827A5F8DA30E27032232D22FC
:1046300060714FF0080E1420A5F8DC30A5F8E030CA
:1046400062732371A07184F810E085F81C6185F80D
:104650001D6185F8286185F82961AE7385F81B61B5
:1046600026706770A770E675A6732676E673667681
:10467000A27684F82130042384F82E30152384F8A0
:104680003130634B4FF00E0E6363624B6074502009
:1046900084F807E0E0764FF0640E5A20A3635E4B87
:1046A00020724FF00A0984F81CE022754FF0780E52
:1046B000E07741225948E36384F81290677284F8E6
:1046C0000AE084F81E8084F8202084F8236084F8AF
:1046D000246084F82560E18484F822606685A685DC
:1046E000268584F82F7084F8307084F84080FFF7B6
:1046F000B3FD4FF44873A4F87030C82384F8B53084
:104700004FF49663A4F8B63040F2D933A4F8B83029
:1047100084F86C6084F86D6084F86E7084F86F8043
:1047200084F8726084F8B49023464FF47F72A4F842
:1047300074204FF4FA62A4F876201DF806200136A2
:1047400040F2DC51082EA4F8781084F87A2004F1A5
:104750000804EAD1012283F8BA2083F8BB2083F849
:10476000BC2083F8C2206422A3F8C4204FF49672C0
:10477000A3F8C6202822A3F8C8204FF07C52C3F823
:10478000CC20C3F8D0200F22C820A3F8D620A3F84D
:10479000D820A3F8DA2040F26C72A3F8BE00A3F888
:1047A000DC2014201E2440F2145283F8C00083F849
:1047B000C140A3F8D400A3F8DE10A3F8E020A3F8CA
:1047C000E260522385F8DD330023EA18103300211C
:1047D000C02B1161F9D10024281900F598700B49FC
:1047E000E422E434FCF7A2FCB4F52B7FF4D10020E2
:1047F000014603B0BDE8F043FFF7DCBD03B0BDE800
:10480000F08300BF24080108E814002004140020ED
:104810009A99193FF6287C3F3D0A773F9923010872
:10482000024B9A6822EA000098607047E814002062
:10483000014B9868704700BFE814002010B5044C85
:1048400000232070236106F031FC606110BD00BFC1
:10485000FC18002010B5FCF709FA00210446FCF70B
:1048600015FC08B1204601E004F100400549FCF7C1
:1048700005FB0549FCF74EFA09F08EF8034B18606A
:1048800010BD00BF8096184B35FA8E3C1C000020EE
:10489000F8B5101A0C461F46FCF7E8F90546381B18
:1048A000FCF7E4F9174B079E1968FCF733FA294621
:1048B00004462846FCF72EFA214607462046FCF718
:1048C00029FA01463846FCF71DF909F0F1FA0E49BC
:1048D000FCF720FAFCF70AFC069B2146186005F15C
:1048E000004009F05BF90949FCF714FA0849FCF7A4
:1048F00009F9FCF7D5FB0028BCBF00F50C40A0303F
:104900003060F8BD1C0000202C7D8E3FA00CB3450C
:1049100000A00C46F8B51D4614460E46FCF7A6F955
:104920006968FCF7F7F93146FCF7F4F92168FCF700
:10493000E9F82060FCF7B4FBED68074605F100409C
:10494000FCF7AEFB06462846FCF7AAFB31460246BA
:10495000384607F0D3FAFCF789F92060FCF7A0FB92
:10496000F8BD000030B5002213460E49CC5C0D4660
:104970009CB12E2C04D1013378B11D4400242C5459
:104980000A246243C95CA1F13004092C9CBF303A6F
:1049900052180E2B03D80133E7E7104630BD002034
:1049A00030BD00BF09090020F8B52C4B2C4C93F802
:1049B0001C3113B1012B0AD04CE06278294B03EB78
:1049C0000213294A5968506806F080FC3FE0264DE2
:1049D000686806F080FC2E4600283BD02378012B27
:1049E0001ED106F063FB63690646C31A632B33D9F5
:1049F0002369042B12D81B4F686807EB031359680F
:104A000006F064FC6378686807EB0317B96806F082
:104A100048FC23696661013323611BE0022017E033
:104A200023693BB962780F4B686803EB021359683E
:104A300006F04CFC23690A4D8B2B08D80B4A706892
:104A4000D15C06F029FC2B6901332B6102E00320C5
:104A5000FFF7F4FE00236360F8BD00BFE8140020F8
:104A6000FC1800200825010864190020A223010871
:104A700038B50C4DEB7AA3B10B4B1B78042B10D936
:104A80000A4B0B4C18685B6820606360FFF7E2FE1E
:104A9000084B1A88084B1A80084B1B88A360012317
:104AA0002B7338BDBA1900206E1A0020501A00204E
:104AB0001C1A0020F81A00207E080020CE190020C1
:104AC00010B500231A461249002050521149124CC9
:104AD000505212495052002119511C446060A1608B
:104AE0000F4C023219511C446060A1600D4C042A25
:104AF00019511C446060A16003F11403E3D10A4B17
:104B00001B7C1BB1BDE8104007F05ABB10BD00BFB5
:104B1000200C0020D01900203C080020EC190020B7
:104B200000080020BC080020BA19002070B52D4CE8
:104B30002D4D6079FCF796F82C49FCF79FF9286019
:104B4000E07BFCF78FF82949FCF798F9284E68605C
:104B5000EE60A079FCF786F82649FCF78FF9264D20
:104B60002860207CFCF77EF82049FCF787F9686014
:104B7000A07EFCF777F82149FCF780F9EE60A86089
:104B8000E079FCF76FF81B49FCF778F91C4D2860B9
:104B9000607CFCF767F81549FCF770F96860E07E07
:104BA000FCF760F81549FCF769F9164BA8601B7C07
:104BB000EE60ABB12079FCF755F80E49FCF75EF9D1
:104BC000114D2860A07BFCF74DF80849FCF756F919
:104BD0006860207EFCF746F80849FCF74FF9A860AA
:104BE00070BD00BF04140020680800200000C84207
:104BF0000000FA44000020419808002000007A4498
:104C0000D4180020BA190020E418002070B5054619
:104C10000020FFF713FE4FF48070FFF751FCF8B14E
:104C2000104C0026657006F041FA0F4BA06093F817
:104C30001C316660B3420CBF01240324FFF776FFEA
:104C40000A4B314603EB05156A682346084806F00F
:104C5000C9FEBDE87040074B58600120FFF7EEBD6C
:104C600070BD00BFFC180020E814002008250108D2
:104C70000044004064190020F8B5184B1B78032B42
:104C800028D1174B08221A6110221A61154C60684E
:104C900006F012FB58B1124D08266E616068276855
:104CA00006F00FFB0146384606F0F6FA2E61206842
:104CB0000C4E06F001FB0028E8D0094C102596E8C0
:104CC0008100656106F0FDFA0146384606F0E4FA17
:104CD0002561DBE74FF0FF30F8BD00BFFC18002076
:104CE000000C014064190020F7B50368174C184DFB
:104CF00023600B68174E63600068FFF7ABFD95E813
:104D00000300154B0196009394E80C00FFF7C0FDDB
:104D10003668124B60681E606B68114FC01AFBF753
:104D2000A5FF104B1968FBF7F5FFFCF7B9F92268EE
:104D30002B687860D31A3B600B4B1E600B4BB3F8AB
:104D4000C4200B4B1A8003B0F0BD00BF80080020C8
:104D5000501A0020E4080020F8180020CC18002089
:104D60001C0900201C000020F4080020041400206E
:104D70001809002044F25063984203DDA0F50C406E
:104D8000A0387047034B9842BCBF00F50C40A030E0
:104D9000704700BFB0B9FFFF264BF0B51D68024653
:104DA00000F11007147811462B195E78013206F0D5
:104DB000040606F0FF036EB1BA42F3D10020F0BD45
:104DC0001BB103EB83035B00DBB210F8012B303A1D
:104DD0001344DBB20A1A022AF2DC002281420AD909
:104DE0001AB102EB82025200D2B210F8016B303ECF
:104DF0003244D2B2F2E72E2C0FD14C1C04200021F9
:104E00000A2671432678AF197F787F0702D530399B
:104E1000013431440138F3D100E000210648062472
:104E20004243642000FB01210448B1FBF4F100FB84
:104E30000310F0BD8001002040420F0080969800D2
:104E40002DE9F04F974B8FB05B68C3B9964C237830
:104E5000013B032B00F2FA85DFE813F0BE05BE0527
:104E6000D805C105606806F02CFA904B044693F80B
:104E70001C31012B00F0D98008D3022B06D0894CBD
:104E8000606806F019FA0028ECD1DFE7242C07D17E
:104E9000874A00231370874A1370874A1370C0E053
:104EA0002C2C01D02A2C7FD1824E814F3278834B1B
:104EB0003D7800209854824AB5B919781570472971
:104EC00068D15978502965D19978472940F0AD8546
:104ED000D978472940F0A9851979412940F0A5855D
:104EE0000121117000F0A1BD1278012A3AD1022DE2
:104EF00005D11846FFF750FF724B18604AE0032DAA
:104F000007D11B78532B45D16E4B1A6852421A6059
:104F100040E0042D05D11846FFF73EFF694B58606D
:104F200038E0052D07D11B78572B33D1654B5A68D4
:104F300052425A602EE0062D07D11A78624B302A71
:104F400094BF00220122DA7224E0072D04D1FFF77A
:104F500009FD5E4B18701DE0092D1BD1FFF702FD06
:104F60005B4B16E0022A15D1072D0CD10120FFF76B
:104F7000F9FC41F2184358434FF47A72B0FBF2F354
:104F8000544A138006E0082D04D10120FFF7EAFC03
:104F9000514B1880013500232A2C3D70337037D1D6
:104FA0004E4B01221A703CE00D2C4C4B01D00A2CC8
:104FB00024D11A78F2B1414908784978A0F1300239
:104FC000D2B2092A84BFA0F13702D2B202F00F0296
:104FD0001001A1F13002D2B2092A84BFA1F1370237
:104FE000D2B2354902F00F0202440978D2B28C1ACB
:104FF00062426241002119707AB912E02D490A78A3
:105000000E2A03D8501C08702C498C541B7843B9C5
:10501000294B1A7854401C7003E0294B1B78012B54
:1050200000D0002303F0010357E12D4B0022197833
:10503000082900F25181DFE801F00A051119275F04
:105040007C95A000622801D1022205E01A70B52CDF
:1050500040F042811A7801321A703DE103221A7041
:10506000204B1870204B1870204B0BE01E49042277
:105070001A701E4B0A7818782244D2B20A70024481
:105080001A701B4B1C7027E1174905221A70174B29
:105090000A7818782244D2B20A7002441A70154B6A
:1050A0001C8019E164190020FC180020E81400207D
:1050B000F0090020FA080020F0080020090900206B
:1050C000F1080020501A0020BA1900206E1A0020A2
:1050D000CE190020F0190020780B0020880800204D
:1050E000B8080020F808002078080020790800207F
:1050F000FC0700207C080020624906221A70624BDF
:105100000A7818782244D2B20A7002441A705F4BAF
:105110001A8802EB0424A4B2B4F5007F01D81C80E5
:1051200003E000221A805A4B1A705A4A0023138057
:10513000D3E05448544A017815782144C9B201702B
:105140002944117053490A88C72A9CBF5248845485
:10515000013292B20A804D490988914240F0BC80E8
:10516000072279E708221A70464B1B78834200F029
:10517000B380474A00231370AFE01A70424B1B788C
:10518000834240F0A980454B1B78062B39D004D8C8
:10519000022B12D0032B24D09EE0122B44D0302BB4
:1051A00040F09A803C4B1A793D4B102A88BF102260
:1051B0001A701978384A002344E0374B394A596845
:1051C0005160996811601A694FF47A7392FBF3F297
:1051D000354B1A80354B1A78354BDA720122354B34
:1051E00020E02D4A537913F0010303D01379D81E20
:1051F000434243412D4A1370002B38D12C4AD372BD
:1052000035E0254BDA7A12F0010203D09A7AD11EEA
:105210004A424A4125490A700AB92549CA7293F897
:105220002F20254B1A7022E01B4B24495A690A8013
:105230009A6942F2107392FBF3F2214B1A80012219
:10524000204BEFE78B4202F10C0210DA12F8044C0B
:105250001D481C5412F8034C1C481C5412F8014CF5
:105260001B481C5414781B481C540133EAE71149AD
:105270000B788BB3134B1A7872B300221A700A7032
:1052800001232AE078080020790800207C0800200B
:10529000B80800206408002028090020FC0700202E
:1052A0006F1A0020501A0020CE1900200809002093
:1052B000BA1900207A0800206E1A0020F019002088
:1052C000780B0020F9080020A81900203F1A0020C0
:1052D000581A00209C1A00200023002B3FF4CFAD69
:1052E0008F4CA368E36005F0E1FEA0602020FFF78B
:1052F000D1F88C4B8C4C1A78012A0CBF0022012269
:105300001A70E37A002B3FF4BAAD884B1B78042B5C
:105310007FF6B5AD637813B9227C02B92373227B83
:1053200012B90BB1FFF7A4FB814B4FF0050E1A78B1
:10533000804D013292FBFEFE0EEB8E0ECEEB020E86
:1053400083F800E07C4B1B7804937C4B03EB8E0EC0
:1053500000237B4A7B499858DFF824827A4E5850C4
:1053600090FBF8F19951794EDFF8189206FB010095
:1053700003EB830A5EF80A6053F8097042F2107C6E
:10538000BF1B90FBFCFC05264EF80A00384443F88E
:10539000090090FBF6F008FB01016D481FFA8CFC38
:1053A0001950049803EB020B012825F802CF16468A
:1053B00006D1ACF1020CBCF5797F98BFCBF8001098
:1053C0000433082BC5D105F071FE624F624D3B6876
:1053D000C01AFBF747FC6149FBF750FD286005F058
:1053E00065FE38602F684FF07E513846FBF730FE7F
:1053F00008B94FF07E570AAA2F60594B00920BAAAA
:10540000019296E803000CCBFFF742FA0A9A642354
:105410005449B2FBF3F20B980A80534A90FBF3F322
:105420001380237B0BB90B801380DFF85C914F4F07
:1054300099F80030002B36D029684FF07E50FBF7EA
:105440001DFD3B6880463068C01AFBF70FFC4146E3
:10545000FBF760FCFBF724FE7B681FFA80FA70689C
:105460000FFA8AFAC01AFBF701FC414B1968FBF7E7
:1054700051FC4146FBF74EFCFBF712FE3D4B00B2E0
:10548000B3F902204FF0020E8118B3F900203A4818
:10549000524491FBFEF192FBFEF289B292B241803E
:1054A000028059801A80012389F8003071683068C1
:1054B000237A7960386023B91B4BDB79002B3FF4EA
:1054C000DEACDFF8C880DFF8C8902C4FCDF8008044
:1054D000CDF8049097E80C00FFF7DAF97368786864
:1054E000DFF8B0A0C01AFBF7C1FB214B1968FBF72E
:1054F00011FCFBF7D5FD3A683368CAF80400D31AEB
:10550000227CCAF800300C4B0AB102221A7093F9BF
:105510000030012B40D0022B00F0EF80AFE400BF41
:10552000FC1800207B0B0020BA1900206E1A002006
:1055300024090020880800207C0B0020D4070020CC
:10554000501A002000090020AC080020806967FF85
:105550002C08002038080020A808002000007A4409
:105560001C1A00201A1A0020281A00209008002077
:105570001C000020FC080020B40800208008002047
:1055800080969800E808002036080020F8180020CF
:10559000E40800201C090020894F0026DFF86492EF
:1055A000DFF85CA259F81680864C4046FBF75EFB9C
:1055B000854B864D1968FBF7ADFBFBF771FD36F89F
:1055C0000A30834AC01A83B2B3521BB218460393FF
:1055D000FBF74CFB2168FBF79DFBFBF761FD039B91
:1055E0003A461FFA80FB296803EB08002346FFF7C1
:1055F00091F9DFF81482D5F800C0A468584426F861
:1056000008006046D7F808B059F816900694CDF80F
:105610000CC0FAF70BFF044658460D46FAF706FF92
:105620006C4BCDE9040193F8C000FBF71BFBFAF7C4
:10563000FDFE61A3D3E90023FAF74CFF02460B46B7
:1056400000206549FBF770F822462B46FAF790FDDB
:1056500002460B4620462946FBF766F80446786862
:105660000D46C0EB0900FBF701FBDDF80CC06146FD
:10567000FBF704FC5946FBF743FAFAF7D7FE02465C
:105680000B4620462946FAF725FF0B460246DDE980
:105690000401FAF76DFDFBF7DFF9C7F80490014646
:1056A0003861B8600698FBF735FBFBF7F9FC4B490E
:1056B0004FF4FA6206F022FC36F80A3048493133DA
:1056C0009BB2622B36F8083098BF0020184480B295
:1056D00026F8080040F6B83200B206F00FFC0A22A5
:1056E000724328F8060057F8141B3E4B0236042E6E
:1056F000D1507FF453AFFFF7C2BB364BD8F80060F0
:10570000394CB3F9C6807308984528BF9846278856
:105710001FFA88F80FFA88F23BB29A420ADD334941
:105720002868FBF7F7FAFBF7BBFC38441FFA80F850
:10573000A4F800802E4BD9F800401F682D4DE71BC0
:105740003846FFF717FB0028D8BF404241F29313B9
:105750009842CCBF00200120002857D03846FBF7E4
:1057600085FA2549FBF7D6FA08F08AF9074630464C
:10577000FBF778FA01463846FBF7CCFAFBF790FCCA
:105780001E4B80B21880164900B240F6B83206F0BF
:10579000B5FB48F6A0432044984203DDA0F50C4039
:1057A000A03804E00028BCBF00F50C40A030286001
:1057B0002DE000BFAFF30080182D4454FB211940A9
:1057C000000800209808002068080020A808002091
:1057D00028080020041400200000F03F30F8FFFFEC
:1057E00048F4FFFFBC080020180900200000C84250
:1057F000F4080020CC180020D302373934080020E8
:10580000B40800201C090020EC1900202C60286836
:10581000934FC0F50C502830FBF728FA9149FBF75D
:1058200079FA044608F0B8F80D90204608F028F9F7
:1058300000260C900FFA88F0FBF718FA0CAB53F81F
:105840001610FBF767FA884B0446985FFBF70EFAD1
:1058500001462046FBF754F9FBF722FCDFF8509293
:1058600080B24FF47A7226F80900804900B206F03F
:1058700045FB80B20FFA80FA7D4C26F809005046AD
:10588000FBF7F4F92168FBF745FAFBF709FC794DC2
:1058900080B23A462346296806905046FFF73AF808
:1058A000D5F800C0A46804906046D7F808B036F96F
:1058B00009900794CDF80CC0FAF7B8FD0446584695
:1058C0000D46FAF7B3FDDFF8ECA1CDE908019AF82F
:1058D000C000FBF7C7F9FAF7A9FD5FA3D3E90023DE
:1058E000FAF7F8FD02460B4600206349FAF71CFF61
:1058F00022462B46FAF73CFC02460B462046294638
:10590000FAF712FF044678680D46C0EB0900FBF772
:10591000ADF9DDF80CC06146FBF7B0FA5946FBF76C
:10592000EFF8FAF783FD02460B4620462946FAF7C0
:10593000D1FD0B460246DDE90801FAF719FCFBF739
:105940008BF8049A069C01463861B860C7F8049049
:1059500007981444FBF7DEF9FBF7A2FB2044474C01
:1059600080B23053464940F6B83200B206F0C6FA6B
:105970000A227243434BA05357F8141B0236042EDD
:10598000D15053467FF456AF93F8C22032B13E4A0D
:105990001168642291FBF2F13C4A11803C4AB3F851
:1059A000BE3012689A420ED93A4B18683A4B1B68BF
:1059B000C01AFFF7DFF942F210730028B8BF404267
:1059C00098427FF75CAA354B01221A70344B1A8833
:1059D0002E4B1A80FFF753BAFEF7E6FF36E06368F6
:1059E00005220133636063780133DBB2B3FBF2F26B
:1059F00002EB82029B1A637005F058FB294A0023D0
:105A00001370294AA060D37201200BE005F04EFB11
:105A1000A36840F6C412C01A904217D92020FEF79E
:105A200041FD0420FEF70AFF10E09B781F49522B2E
:105A30007FF4B0AACB784D2B7FF4ACAA0B79432B23
:105A40007FF4A8AA02231370FFF7A4BA0FB0BDE831
:105A5000F08F00BFAFF30080182D4454FB21194094
:105A6000BC080020D3023739B408002018FCFFFF1F
:105A7000D4180020A80800200000F03FEC190020F6
:105A800048F4FFFF00080020CC180020CC1A0020AA
:105A9000F8180020E4080020F40800207C0B002007
:105AA0007E0800206E1A0020BA1900200909002083
:105AB00028080020041400202DE9F84F384E044631
:105AC0003768384607F068FF0546384607F0D8FFC4
:105AD00076688046304607F05FFF8346304607F021
