:020000040800F2
:1000000000500020A5EF000851F0000871BF000863
:1000100051F0000851F0000851F000080000000005
:1000200000000000000000000000000051F0000887
:1000300051F000080000000051F000084DBF00081A
:1000400051F0000851F0000851F0000851F000088C
:1000500051F0000851F0000851F000081DC00008E0
:1000600051F0000851F0000851F0000851F000086C
:10007000E1BE000851F0000811BF000851F000086F
:1000800051F0000851F0000851F0000851F000084C
:1000900051F0000851F0000851F0000819C00008A4
:1000A00051F0000851F0000851F000080BC00008A2
:1000B00001C00008F5BF0008E9BF00086DBF0008D7
:1000C00065BF000869BF000861BF000851F0000863
:1000D00051F000089DBE000829BE0008F1BD0008CF
:1000E00021C0000851F0000851F000080000000095
:1000F0000000000000000000000000000000000000
:0C01000000000000000000005FF808F1A3
:100110002DE9F04FB74C93B0A368B74D13F0080129
:1001200000F0E88094F88A21052A00F2E580DFE8F3
:1001300002F0030305527A852B78DEE06878AE4A38
:10014000002800F0D98000209F05507003D5137E51
:100150001E0700F1D180E8780023AA7800F0070696
:10016000AB83A64B42EA06221A602A7902F03F06C8
:10017000760146EAD00058606879800040EA921023
:10018000AA7902F0010640EA86209860E87900F03A
:100190000F06F60146EA5202DA602A7A02F07F067A
:1001A000360146EA10101861687A400040EAD2121F
:1001B000A87A00F0030642EA46225A61EA7A02F07F
:1001C0001F06B60146EA90009861287BC00040EA0D
:1001D0005212DA6130E0AA7F874B002A00F08C804F
:1001E00093F82000002201289A7740F085809A83B6
:1001F00093F83420082A84BF082283F8342095F825
:1002000034007F4A0023DEB2864202F1020213D29A
:1002100012F8016C12F8027C46EA0727794E46F87C
:1002200023700133EFE795F85830734A0020002B14
:1002300063D0908382F8580001235EE095F859302E
:10024000002B59D06C4B002283F859204FF6FF70D9
:10025000694B03F15A06965D0132801B1E2A80B25B
:10026000F6D193F8796093F8782002EB062292B2E7
:10027000904241D193F85D0093F85C2002EB00229C
:10028000DA6793F85F0093F85E2002EB0022C3F870
:10029000802093F8610093F8602002EB0022C3F8FD
:1002A000842093F8630093F8622002EB0022C3F8E5
:1002B000882093F8650093F8642002EB0022C3F8CD
:1002C0008C2093F8670093F8662002EB0022C3F8B5
:1002D000902093F8690093F8682002EB0022C3F89D
:1002E000942093F86B0093F86A2002EB0022C3F885
:1002F0009820A1E70B4600E000234348D5F89C6016
:1003000002688346961B002E02DA002B00F0BE84A2
:1003100002F59C422032C5F89C20DFF800A1DFF8EE
:100320000091002939D1394E88460F46DAF800305D
:10033000F8B29847A0F2EE2292B240F2DC539A4211
:10034000D5F8E020324B88BFB4F88E011340002B63
:1003500003DA013B63F003030133274903EB87030F
:1003600001EB4303A3F8A0003188738801370B44E5
:10037000B188082F0B44F18806F108060B441BB224
:100380004FF0040193FBF1F329F8083008F102085B
:10039000CCD10132C5F8E02009E00026F0B2DAF84D
:1003A0000030984729F816000136082EF6D1A368C8
:1003B000580404D595F8E4300BB90BF0EFFD94F830
:1003C00097210C4B72B3033239F91200A0F57A7001
:1003D000B0F57A7FA8BF4FF47A7020EAE0700CF095
:1003E0002DFB0C490CF032FC0B490CF07BFB0CF0A4
:1003F00065FD2CE0741B0020000100200009002096
:1004000022010020380100205C210020A0010020F2
:100410000300008000007A4400C07F44F8080020F8
:10042000D408002093F8980190B1B84AD179B84A1D
:1004300032F81100B3F89C2180B2801AB3F89A31D7
:10044000C0EB802090FBF3F000B280F30A0080B292
:10045000A368B04A13F4024FA5F8FC006AD0AE4E70
:10046000B2F91C0096F8CE3003EB8301884241DDDF
:10047000AA4991F801E00F46BEF1000F3AD0A84911
:10048000B1F88E11A9F80010A9F80210A9F804100B
:10049000B6F8D010A9F80610A24991F800E08846F5
:1004A000BEF1030F08D9A049C2F80011032188F852
:1004B00000100021A2F8041196F8CF20134403EB9A
:1004C0008303984211DDBF7C7FB90BF067FD934B2E
:1004D0001F7098F80030042B07D9944B0422C5F8FC
:1004E0000031904BA5F804711A70B5F8063101334C
:1004F000A5F8063196F8CE30B5F91C2003EB83033E
:100500009A42844F13DDDFF8148298F8016076B9BF
:100510000BF044FD834B88F800601A78042A06D952
:10052000824AA7F80461C7F8002104221A70AB8B35
:100530000133AB830022B4F89011B4F892611346F2
:1005400039F902009B088842C4BF63F07F03DBB225
:100550000232B042B8BF43F04003082AF0D195F808
:1005600008016C4A984205D192F80901F92804D88B
:10057000013000E0002082F8090185F80831A36805
:10058000674A13F4804A644FB9F906300AD0B2F8CA
:100590008E11B2F84C21881A834206DD0A44934238
:1005A00006DB02E08B4203DB21E04FF0000A1EE095
:1005B0000023C5F80435C5F80835C5F80C35C5F86D
:1005C0001431C5F818310023C5F81035C5F81435B5
:1005D000C5F81835C5F81C35B7F846302BB14D4B6A
:1005E00093F8E430002B41F018874FF0010AB7F878
:1005F000463073B195F8E4305BB9484B5B7843B152
:1006000094F8953113B10BF0C9FC02E0BAF1000F78
:10061000F9D195F809213F4B142A40F0C6803F4E8E
:100620007178D1B1B7F846202AB993F808315F2B19
:1006300001D10BF0B3FC94F89431002B00F0B5809D
:10064000B7F84630002B40F0B08095F808317D2B8C
:1006500040F0AB800BF0A2FCA7E093F80821572AEA
:1006600015D1334B4FF47A721A80A368D90501D59E
:1006700008F086F92F4B1B685A0702D52E4A0A212B
:10068000118013F0080337D1A5F80A3134E0A068CF
:10069000400728D55A2A26D193F80C0128B1012207
:1006A00083F80C1183F80D2126E093F80E111D4AF2
:1006B00081F0010183F80E1151B111780A291BD97B
:1006C0001E49A3F80401C3F800110A21117013E0B8
:1006D00010780B2810D91A48A3F80411C3F80001A8
:1006E0000B20107008E05D2A01F0A0865B2A01F063
:1006F0009F865E2A01F09E86B7F8463013BB95F8B8
:1007000008216F2A1ED104F02BFA30E038060020B1
:100710004006002000010020542000206108002035
:10072000741B00200000002098150108AB1501087B
:10073000F80D002070060020FA0D0020AE1501080B
:10074000B315010894F8942122B11BB995F808312A
:100750007E2BD8D095F80831972B04D1984B4FF4C5
:10076000C8721A8003E0A72B04BF0123B37395F866
:100770000831BB2B02D1BB8D023303E0B72B03D171
:10078000BB8D023BBB8509E0BE2B02D17B8D0233C2
:1007900003E0BD2B09D17B8D023B7B850120014607
:1007A00004F010FD002385F80931A068420731D517
:1007B00095F80E21834B8AB1834A527872B1834AED
:1007C000B9F90610B2F89021914207DD93F8E420C0
:1007D00022B93221A3F8101183F80E2195F8F520E3
:1007E000784B62B193F812212AB993F80C2112B90F
:1007F0003222A3F81021012385F812310AE093F880
:100800000C213AB1704A527822B983F80C210122A6
:1008100083F80D216E4E0123002136F8022F03F1DB
:10082000FF3CA2F2155EBEF5C77F8CBF4FF0000EF5
:100830004FF0010E0EFA03FE12B24EEA010140F231
:10084000135E7245CCBF4FF0000E4FF0010E0EFA52
:100850000CFE41EA0E0140F2A46E7245D4BF0022A4
:10086000012203F1010E02FA0EF2033311430D2BA4
:1008700089B2D2D1002307EB430EBEF846E0514ABD
:1008800011EA0E0F0CBF4FF0000E4FF0010E02F1F7
:10089000E40603F806E00133182BECD192F8E530BA
:1008A000494E4C4943B94C4BB2F91C2093F8CE3019
:1008B00003EB83039A421BDD0A68930718D5F3788C
:1008C00043B9C5F81431C5F818313F4B4FF0010E4C
:1008D00083F803E003040ED597F8CE30B5F91C0079
:1008E00003EB8303984206DD900604D5012301E063
:1008F0000023F370B37495F8E630324A5BB10023FD
:10090000F370337943B9C2F81431C2F818312E4B61
:1009100001221A7100E0337195F8E4300BB901231C
:100920003370F2782D4B12B9274A127912B1102286
:100930005A6101E010221A6109684A0725D595F825
:10094000E720204B9AB1B07990B91F4A4FF0010EC1
:1009500082F806E0D3F82021C3F83001C3F81C2147
:10096000B3F82C21C3F83401A3F8242100E0B271BC
:10097000A3689B0409D595F8E8302BB1F37B23B924
:10098000114B0122DA7300E0F37311F00A0F30D03B
:1009900095F8E9300B4A4BB1737943B90A4B012002
:1009A0005871B2F80A31A2F8383100E0737195F845
:1009B000EA30ABB1737AA3B9034B01225A7210E04B
:1009C000682100200001002061080020741B002025
:1009D000DA0800207006002054200020000C01409E
:1009E000737295F8EB20B04B1AB1B3F80A21A3F853
:1009F0003A2111F0200FDFF8B08200F0CC80F27ABB
:100A0000AA4B002A00F0C28095F83C21042A40F24B
:100A1000BD8098F8EE20A6490AB99A7CB2B1F07967
:100A2000A24B002840F09F8048701872A148012214
:100A3000011DDA710392029305F074FA022185F820
:100A40004C11B5F85C11C5F8581136E0DA7198F818
:100A5000EF20002A35D0B8F92601B7F8E2200028A7
:100A6000B8BF404290422CDAB8F928010028B8BF3C
:100A70004042904225DA1A7A002A74D14A70D8F896
:100A800060114FF0010CC8F85011D8F8641108F546
:100A9000A870C8F8541108F5AA7183F808C0CDF8F9
:100AA00010C00392029305F03DFADDF810C0B8F8CB
:100AB0005C1188F84CC1C8F85811039A029BDA748B
:100AC00051E049780023337200294CD1784B012240
:100AD0005A708E46744B002203F5B4702EF8002035
:100AE00003F5B7702EF8002003F5B9702EF800203A
:100AF00003F5BC7C002041F80C008C44CCF80420A9
:100B0000CCF8080003F5D07C41F80C008C44CCF8FC
:100B10000420CCF808000EF1020E03F5E47C41F845
:100B20000C00BEF1040F8C44CCF80420CCF8080073
:100B300001F11401CED1317C11B90023F37412E01C
:100B4000C3F8F001C3F8F401A3F8F821A3F8FA21DF
:100B5000A3F8FC215849002353520C31535202325E
:100B60000A2AF7D1E9E752490B780C2B13D995F8EB
:100B700016224D4B7AB95148A3F80421C3F800015D
:100B80000C200870012183F8161204E00023F37191
:100B9000337285F84C3195F8F0302BB1B37C1BB92A
:100BA000424B01229A7201E00023B372637903F091
:100BB000EF02082A01D00E2B2AD1A268002190054D
:100BC0003A4B717224D597F8CE2006277A43B5F9AF
:100BD0001C0090421CDD0122DA70394A9972B2F889
:100BE0008E118AB2A9F80020A9F80220A9F80420E1
:100BF000344AB2F8D020A9F80620DA7A42B92A4855
:100C000090F83C01052803D89A742F4B323919808B
:100C1000A2682B4BD20640F168817278002A00F05E
:100C20006481224A127C002A40F05F81BAF1000FF1
:100C300023D02649D8F8182209684AB993F87631A2
:100C40004FF47A7202FB0312174BC3F8182206E026
:100C50008A4204D293F876310BB10BF09FF9144B12
:100C60001A78092A40F24181194AC8F8002109225C
:100C70001A700023A8F8043137E1D8F81832002B95
:100C800000F03381084BC3F818A22EE1064BD3F8CD
:100C90001C32042B00F22981DFE813F01C00A200B3
:100CA000F40000010B0100BF0001002061080020DA
:100CB0000000002040020020FE020020BA150108BA
:100CC000741B002054200020D4080020701B00203A
:100CD000AB1501080123C5F81C32B14BB14E1B689E
:100CE0001B077DD5D6F82032D31A002B78DBAE4B0C
:100CF00002F5C332A0325B6806F50970C6F82022FF
:100D00009847AA4B06F509779A7B184692B1D6F810
:100D100020220023C6F82C22E1180022A1F870211D
:100D20001646A349FA5A5A5206315A520233062B32
:100D3000F2D186739F4B1B78A3B1B5F82422B4F887
:100D40007031D31AA5F82432B5F82622B4F87231DE
:100D5000D31AA5F82632B5F82822B4F87431D31A7C
:100D6000A5F82832D5F82C328E4A002B00F0BD8031
:100D7000D2F820129048CB1A834202F2362102F5B3
:100D80000C7019D88D4BDA6882F00802DA60002303
:100D9000FA5A30F903E016B2B645C4BFDFF810E2E4
:100DA00023F80E2031F903E0B645BCBF844E9A53B8
:100DB0000233062BECD198E00023C2F82C32C75E38
:100DC000CE5EE2183E4402273B4496FBF7F6062B24
:100DD000A2F87061F3D10120014604F0F3F984E038
:100DE000D5F81C326F4E0133C5F81C326C4B1B68B2
:100DF0005F0747D5D6F83C32D31A002B42DBD6F832
:100E00004032C6F83C226F4F9BB13B6998477B68E4
:100E10009847D6F83C323A8806F511701344C6F864
:100E20003C3206F512717B6998470023C6F84032C0
:100E30005BE0BB689847FB689847634AD6F84C125A
:100E400092F831204B1C934208BF0023D5F844226E
:100E500005EB8101C1F85022D5F81013C5F84C32CA
:100E60000A4405EB8301D1F850020123121AC5F898
:100E70001023C5F840327A88D5F83C321344C5F8BF
:100E80003C3232E0D5F81C320133C5F81C32444BF9
:100E90001B68580702D509F00DF930BBD5F81C3294
:100EA0000133C5F81C32A368D90502D502F050FA07
:100EB0001BE00023C5F81C32394B1B68DA0614D539
:100EC000424B1A68424B19683C318A420DD31A6072
:100ED000404F414A334B394EC3F814233B880B2013
:100EE000336107F089F93B88736107F06BF9A389D7
:100EF000CBF800002BB1D5F81823821A002AC1F2D2
:100F0000AB821844C5F8180303F09AF907F05AF9B0
:100F1000324BCBF800001A681860314B821AB3F9D3
:100F20000610294B92B20592A5F81C23DA8C914247
:100F30000FDBB1F5FA6F93F8257007DA881A47438B
:100F4000A2F5FA6297FBF2F7643703E0C7F1640792
:100F500000E06427B4F88E2193F82350069294F9A8
:100F60005C2193F87660524292B293F877E093F85E
:100F70002430089200220993079513461848DDF89B
:100F8000189032F900B040F2E634C9EB0B0000F2E1
:100F9000F315A54226D80028B8BF404224E000BF80
:100FA0007006002000010020E806002061080020F3
:100FB00030030020100700207FC3C901000C01404E
:100FC00036030020C006002054200020701B0020A3
:100FD000E40D0020D80D002038000020F40D002082
:100FE000D40800204FF4FA70022B30D026B1B04262
:100FF000CCBFC6EB000000206424DFF810A390FBF8
:10100000F4F80AEB48056FF0630C0CFB080CB5F81C
:101010001E530AEB4808B8F920930FFA85F8C8EB7D
:10102000090808FB0CF8DDF81CC098FBF4F800FB7D
:101030000CF0A8440AF5937522F80580B24D90FB98
:10104000F5F52544ADB27D4395FBF4F518E0BEF10E
:10105000000F04D07045CCBFCEEB00000020089DEF
:10106000DDF8249000FB05F40028B8BF4042A74DEE
:1010700000FB09F0A5F82A41A34C90FBF4F5643578
:10108000DFF8BC82A24803EB080494F8019094F8BE
:101090000BA005FB09F905FB0AFA647D4FF0640C0F
:1010A00099FBFCF965439AFBFCFA03F8009000F108
:1010B000030903F809A0DDF818A000F1060995FB63
:1010C000FCF5D34503F809504446A0F54B7904DA02
:1010D00009F59370155A6D4215520133032B02F135
:1010E00002027FF44BAF8B4AB2F89031994205DB94
:1010F000B1F5FA6FA8BF4FF4FA6100E01946C91ABA
:101100004FF47A725143C3F5FA63B1FBF3F36426EB
:1011100093FBF6F209EB4201B1F836036FF063017D
:1011200001FB023309EB4202B2F9381302B28A1A08
:10113000534393FBF6F6784B30445B7A734DA9F832
:101140002C01002B44D0B5F93A31B5F90A01C01A87
:101150000BF0CAF86AA3D3E900230BF02BF90022A5
:101160006E4B0BF051FA0BF05FFB06460EF00CF9DC
:10117000074630460EF07CF90646B5F928010BF01B
:101180005DFC8046B5F926010BF058FC39468246D5
:101190000BF0A8FC3146834640460BF0A3FC014609
:1011A00058460BF095FB0BF063FE3946A5F8260177
:1011B00040460BF097FC3146074650460BF092FC38
:1011C000014638460BF086FB0BF052FEA5F82801CD
:1011D000504ED6F8088018F0020F00F0C280D9F8FF
:1011E0005033DDF814B006229B4499F85433474D30
:1011F0000133DBB2B3FBF2FA02FB1A3A1AF0FF0733
:10120000C9F850B389F85433059766D1444A454B21
:101210005078D5F8581333F810E0082791FBF7F011
:101220001FFA8EFE081A7044C5F8580390FBF7F0B9
:1012300080B2039202930BF001FC3B490BF052FC8D
:101240003A490BF003FD824696F87D010BF0F6FB60
:10125000014650460BF046FC0BF030FE96F881112B
:10126000A5F85C03039A029B002936D05279D5F881
:10127000601333F8122091FBF7F392B2CB1A1344A8
:10128000C5F8603393FBF7F39BB240F6E441594352
:1012900040F6FF72B1FBF2F1B6F87A21B6F8783178
:1012A000891A4FF47A72514391FBF3F10BFB01FB66
:1012B0002B469BFBF2F2C5F86413F3E9DA018018C0
:1012C00041EBE271C3E90001194A00230BF016FE5D
:1012D000059EC5F87003C5F85063164AB9F85C134B
:1012E00012880A4B8A42144A2CD31178012938D922
:1012F0001249C3F8001101212FE000BFAFF30080B5
:10130000182D4454FB2109400CFEFFFF0001002072
:101310002C040020741B002061080020008066401F
:1013200038060020400600203333534000F07F454C
:10133000407E05004A06002000000020C915010873
:1013400054200020AF48008888420AD3117802292F
:1013500007D9AD49C3F80011022111700022A3F88A
:10136000042199F8F130A94D8BB32B78082B2ED995
:1013700018F4807F23D0A64BDB7A03B3A54B93F8F8
:101380003C0104281BD90023A34905225A540F26E7
:10139000CA185670122B03F10206F2B204D0B0EB59
:1013A000520F3346F0D800E014224A44642382F8F6
:1013B0007533FF2382F87633C9F8001102E0974BAA
:1013C000C9F8003108232B700023A9F804312B78C9
:1013D0000D2B1FD0D9F800218E4BDAB193F88A0378
:1013E0008F4980B90868D3F88C13814212D8012044
:1013F00083F88A03B3F80431D35C0BB106F0DBFE4B
:1014000006F0BCFC06E00868D3F88C13814201D8D2
:101410000020EDE7834B1B881BB1834B1B689B07A8
:1014200002D4824B1B882BB1814BDA6882F0080210
:10143000DA600FE0764B9A7812B17D4A082111618B
:101440005B7813B17A4B08225A617A4B1B780BB147
:1014500003F0A4FC784EDFF8F481B36813F0800F3A
:1014600062D0D8F80030D9F890236A4F9A1A002A2F
:101470005ADB03F543435033C7F8903397F894335E
:1014800093B97A238DF83030B7F90A310222C3F1CB
:10149000B40393FBF2F38DF831306D200CABFF21D8
:1014A00006F020F8012324E0012B25D17923B7F998
:1014B00096238DF830300A2392FBF3F25A32B42A85
:1014C000A8BFB42222EAE2728DF83120B7F998233E
:1014D0006D2092FBF3F35A33B42BA8BFB42323EA55
:1014E000E3738DF83230FF210CAB032205F0FAFFD5
:1014F000022387F8943317E0022B15D164238DF86B
:10150000303001238DF83130414B6D205B78FF2165
:10151000002B18BF01238DF8323003220CAB05F0ED
:10152000E1FF002389F89433D8F80020D9F89C33E0
:10153000D31A002B0FDB364B597B71B999703C4B9A
:10154000D96881F00801D96002F5F423314A03F526
:101550009073C2F89C3300270DE001229A70FAE7DD
:1015600093F838341BBB6B68DFF8A080186804F070
:10157000FEF910BB0137D9F83C24264B9742DFF81F
:10158000D08080F2A08003F568724C2101FB072215
:101590006A6098F80020002AE2D009F00DFF92E07E
:1015A00096F8C1348342DED1244A254B1A6009F0F3
:1015B000B5FE244A244BDA60D5E7D8F80430186821
:1015C00004F0D0F9D8F8043093F8492092B9B0F17A
:1015D000240EDEF1000252EB0E0283F84920002AAD
:1015E000C1D10B4B5B78002BBDD12328D8D109F09A
:1015F000E3FEB8E7012A2DD14D2814BF00220222B4
:101600005EE000BF48060020CC1501080000002065
:10161000610800200001002074040020CF1501089B
:10162000701B00206821002070060020F80D0020AB
:10163000000C0140F00D0020741B0020EFBEADDE59
:10164000F04F00200400FA0500ED00E05C210020CE
:1016500060210020022A04D13C2814BF002203226A
:101660002EE0032A0BD140284FF0000228D883F83F
:1016700047205A7183F848001871042220E0042A98
:1016800006D11A7983F8460050401871052217E0F8
:10169000052A7FF468AF93F8481093F847209142E9
:1016A000197907D941401971511C83F84710134427
:1016B000987158E7814201D100F0E2FE6B68002288
:1016C00083F849204FE798F800303BB1B84B1A68CF
:1016D0001E4612F0200F40F085819AE1B268B54BAA
:1016E0001105F3D5B44A1278002AEFD093F8AF2150
:1016F00062B993F8B03113B9B04B5B7801E099F857
:10170000F830003318BF0123002BDFD096F8AE313C
:10171000002B72D1AA4BD86804F029F900286CD1AB
:10172000A84BD9F840141A68A74B511A7C2964D9E0
:10173000C3F8402493F844248046013283F84424BB
:1017400008F12400A04FC0B204F0AEF907F24643FE
:1017500033F918000BF072F99C4B824618880BF095
:101760006DF9014650460BF071FA99490BF0BAF940
:101770000BF07EFB08F1010800B206F011FDB8F194
:10178000030FDDD1302004F08FF9B7F94C0406F0D7
:1017900007FD04F099F997F8440410F0030A2AD1E0
:1017A000102004F081F9D7F850344FF0640893FB0F
:1017B000F8F000B206F0F4FC212004F075F9D7F837
:1017C000503493FBF8F008FB103888EAE870A0EB7F
:1017D000E87000B206F0E4FC142004F065F9B7F9F3
:1017E0000A0106F0DDFC1C2004F05EF9504606F00C
:1017F000D7FC04F069F905F0E7FA96F8AE31012B51
:101800007FF464AF6E4EF06804F0B1F800283FF446
:101810005DAFF06804F0A6F80746052006F0F7FC77
:101820008A2F2FD08E2FEDD100212E2269480DF066
:1018300040FB7C2389F88634E02389F889347D23B2
:1018400089F8B234B9F85C3389F88774DAB21B0AC4
:1018500089F8A53489F89B34142389F89E3489F8D3
:101860009F344FF4FA73A9F8A0344823A9F8A83498
:10187000782389F8A42489F89A2489F8AA34554849
:101880002E2191E04A4B1B689A06BBD54E4E002193
:1018900006F254402C220DF00CFB7C2389F85434C2
:1018A000A02389F857347D2389F87F3499F83C3197
:1018B00089F8557489F86E34404BDB7A002B6ED072
:1018C000D6F86071444ADFF8188197FBF2F066237E
:1018D000C0B286F87D34FB0F08FB00774FF0060E90
:1018E0000EFB07F786F85D3442F21073B7FBF3F195
:1018F00000EB800003FB117700EB8000C9B201EB25
:101900008000D6F8641180B291FBF2F2D2B286F870
:101910005E04000A86F85F04C80F08FB02110EFB84
:1019200001F186F8620402EB8202B1FBF3F003FBE3
:10193000101302EB8202C0B200EB820292B286F870
:101940006324120A86F8642486F86534B6F8802485
:101950001B0A86F866346423B2FBF3F303EBC3037C
:101960009B009BB286F85B341B0A86F85C34B6F8A1
:10197000823486F8607486F867341B0A86F8683407
:10198000B6F85C313F0A86F869341B0A86F86A3477
:10199000B6F8843486F8617486F8703402E0202347
:1019A00086F87D340D482C2104F04AFC2AE700BF5C
:1019B00070060020741B0020F00D0020610800203C
:1019C00014070020701B00200001002024000020CC
:1019D00000007A4486050020A086010054050020FE
:1019E0006079FEFF8D4BD9F8B4141B688C4A591AE4
:1019F00000290EDB92F83C1104290AD903F51233B1
:101A000003F5F873C2F8B434864BDA6882F010023A
:101A1000DA60854B9B680BB18448984731680B07A7
:101A200035D5B9F82A217E4E02F145039BB28A2BA7
:101A300029D87F4B58791F4628B3B6F83831B6F805
:101A40000A01C01A80B283B21EB2B336BCBF00F521
:101A5000B4739BB218B2B3287E7B7648C4BFA3F59B
:101A6000B4739BB290F85C018EB140B240424343E4
:101A7000607A1BB243436FF01D0093FBF0F31A44EE
:101A8000A9F82A2103E0B9F80A31A9F838314F073B
:101A90007BD5674B9A79002A77D01E7C002E69D1BE
:101AA00094F8790094F878205D4B88B3B9F82CE16C
:101AB000B9F924010FFA8EF7C0EB0708B8F1000F4F
:101AC000B8BFC8F1000890450FDD8742C8BF524239
:101AD0001FFA8EFEC8BF92B2C3F83061724401266D
:101AE00083F8BA64A9F82C214FE093F8BA242AB1FC
:101AF000D3F8202183F8BA64C3F81C21D9F8343113
:101B00004C4A1844B2F84031B2F84221984229E0D8
:101B1000B9F92471B9F92C61F61B86EAE67EAEEBC1
:101B2000E67E96450ADD022296FBF2F60122C3F814
:101B3000BC6483F8C02483F8BA240AE093F8BA247A
:101B40003AB1D3F8206183F8C004C3F81C6183F86C
:101B5000BA043848D9F83421B0F840313A44B0F8E2
:101B600042019A4203DB8242B4BF13460346A9F8FE
:101B70002C310AE02F4BB9F8282193F99601D9F8B6
:101B8000343100FB0323A9F8283194F87C305BB191
:101B9000274BDA780AB91B7933B1B9F82C31B9F887
:101BA000C2241344A9F82C318E0640F1D480204B76
:101BB000DA791AB91A7A002A00F0C6801B7B002B4A
:101BC00000F0C280B9F90A010AF038FF1A490AF098
:101BD00089FF07460DF04CFC804638460DF0D4FBDB
:101BE000134B0F4E1B7C0746002B40F0AA8094F845
:101BF000DBA0B6F97401BAF1000F6FD0B6F87031FE
:101C0000CAF100061FFA83FB1BB2C01A06F0E0FE01
:101C1000B04213DB5045A8BF504610E05C210020C5
:101C200000010020000C014074060020B8050020CF
:101C300061080020741B002035FA8E3C3046B9F84C
:101C40006E218344B9F9720193B212B21FFA8BFB71
:101C5000801AA9F870B1029306F0BAFEB042029B56
:101C600003DB5045B4BF064656461E449F48B6B2F5
:101C7000A0F86E610FFA8BF00AF0E0FE824630B2F7
:101C80000AF0DCFE3946064650460AF02BFF414674
:101C9000834630460AF026FF014658460AF018FEF1
:101CA00093490AF0D3FF0BF0E3F89049A1F86801DB
:101CB000414650460AF016FF3946804630460AF043
:101CC00011FF014640460AF005FE89490AF0BEFFB1
:101CD0000BF0CEF8854AA2F86A013CE00AF0AEFEAD
:101CE0008346B6F972010AF0A9FE39468246584683
:101CF0000AF0F8FE41460346504602930AF0F2FE0F
:101D0000029B014618460AF0E3FD79490AF09EFF5E
:101D10000BF0AEF84146A6F8680158460AF0E2FE1C
:101D20003946804650460AF0DDFE014640460AF03C
:101D3000D1FD6F490AF08AFF0BF09AF8A6F86A0104
:101D400009E005F02DFD06E00023A9F86831A9F8A7
:101D50006A31A9F86C31AB689847664B93F800B0CC
:101D6000BBF1030F13D9B9F92A11B9F9C824002915
:101D7000B8BF49426FF063035B1A9A4204DB01F17A
:101D800064039342A8BF1346A9F8C83408E0BBF126
:101D9000010F05D85849594B0A7C002A4FD161E000
:101DA00094F9D4A0B9F9C824CAF1000A02FB0AFACE
:101DB000B9F82C31B9F8C674B9F8C484504D00266E
:101DC0005E4505F11005E5D218B202930AF036FE21
:101DD00055F8101C0AF086FE024638B203920AF04B
:101DE0002DFE55F8081C0AF07DFE039A01461046A8
:101DF0000AF070FD02460FFA88F003920AF01EFE08
:101E000055F80C1C0AF06EFE039A014610460AF0C3
:101E100061FD0246504603920AF010FE55F8041C7C
:101E20000AF060FE039A014610460AF053FD0BF0DB
:101E30001FF8344A029B22F816000136C0E74A78A0
:101E4000304812B9B3F844210BE0B9F92C51B3F87A
:101E50004021B3F84261954203DBAE42B4BF324643
:101E60002A4602805A79013AD2B2172A00F23C81FE
:101E7000012303FA02F2244B134053BBD00640F176
:101E8000338194F98430B9F99803204958433223B7
:101E900090FBF3F0B4F8823080B21AB2112ADCBFA2
:101EA0001B4B33F8123003440B80B9F9960394F9B5
:101EB0008E305843322390FBF3F0B4F88C3080B26C
:101EC0001AB2112ADCBF124B33F8123003444B8094
:101ED0000AE18B7AF3B1B9F82631ADF83030B9F8B0
:101EE0002831ADF83230B9F82A311DE00001002068
:101EF000000020413820002061080020741B0020D1
:101F0000300700203A20002089209800800000201F
:101F1000D4080020B9F8C434ADF83030B9F8C6346C
:101F2000ADF83230B9F8C834ADF83430B54B1B8851
:101F3000ADF83630B44BB3F88E21B44B1989511A31
:101F4000ADF838105989511AADF83A109989511ADB
:101F5000ADF83C10D989511AADF83E101988511AC4
:101F6000ADF840105988511AADF842109988511AAD
:101F7000ADF84410D988521AADF84620002202EB81
:101F800082012144B1F8821008B21128D8BF33F879
:101F900010109F4811520232102AF0D19D4B00219F
:101FA0001B785B0006930B46DDF818C0634500F014
:101FB0008A80994D4A19907920B1484490F8F800E8
:101FC00000287BD0685C0A2505FB0045B5F88070C9
:101FD0007835ED8892F904B07F1BBFB207FB0BFB8D
:101FE00064259BFBF5FB92F801A055794FEA570C4D
:101FF00092F80380CCEB0B0B05951FFA8BFB874DFA
:102000004FEA4A0E12AEB8F1000F03D1764436F80B
:10201000186C0CE0B6443EF918ECEE5E764508DA32
:10202000B044B04503DBC645B4BF76464646EE52E3
:102030000AE009DDC8EB0608F04503DBB045B4BF94
:10204000C646B64625F803E0DFF8D8E14FF00A08A7
:1020500008FB00EEBEF886E0DFF8C0814EFA0AFA0F
:1020600033F9088092F902201AF0010F02FB08F2FE
:102070004FF06408664D92FBF8F20FFA8BFB0CBF31
:102080004FF0010E4FF0FF3E5A4535F810601FFA31
:102090008EFE0EDBDDF814A04FFA8AFB07FB0BFB6C
:1020A0009BFBF8FBCCEB0B0B0FFA8BFB9345A8BF0C
:1020B00093460BFB0E6B25F810B001E0574A98527F
:1020C0000233073170E7564A00235649B2F902003D
:1020D000194491F984100A334143642091FBF0F1D3
:1020E000502B22F8021FF0D1474CA36813F0200FA9
:1020F0004C4B3ED0B3F88220B3F88C5011B211296A
:10210000D8BF424A4248D8BF32F8112029B211291B
:10211000D8BF3E4D0280D8BF35F81150DFF810818E
:10212000458099F8EC003A492E4610B393F8D60052
:1021300093F98E5010F0020FB8F996734FF03200F9
:1021400093F984E0B8F998C318D07D43CEF1000E1E
:102150000CFB0EFC95FBF0F56FF03107ADB29CFB6C
:10216000F7F72F449CFBF0FC3A4465440A802E4468
:102170004E802B4A2B4902F1100610E00CFB0EFE9C
:102180007D439EFBF0FE724495FBF0F00A8006440E
:10219000EEE722F8020FB24201F10A010CD0B2F9C7
:1021A0000250B1F97E00B1F880708542F1DB38B29F
:1021B000A842A8BF2846ECE793F8D630590706D4C2
:1021C000194B104A93F80090118801230FE0174B28
:1021D00000251E7E043E0D4BA81903EB4503C0B23B
:1021E0001989013506F006FD042DF4D1E8E74B45C9
:1021F00020D232F9130009B28842A8BF014689B241
:102200000133F4E73A200020741B0020D40800209A
:1022100080000020F0070020F1070020CA05002000
:102220007E000020542000203820002014070020C9
:1022300000010020B4F84201B4F84661431A1FFAC5
:1022400083FAA368B4F8445103F480420A92844AA2
:1022500003F01003B2F906200B93824B0596B4F8F5
:1022600040610192B4F88EB15A78B4F848E1B4F8FC
:102270009041B7B21FFA85FC069407975C7CCDF8B5
:1022800020C009924FEA490900234B454CD00AB2BD
:102290008242DFF8D4C104DD3CF8032052442CF81C
:1022A00003200A9F704AC7B1DDF804C0DC4532F94B
:1022B00003C007DDF44503DB8445A8BF844609E07D
:1022C000F44607E0AC4504DB059FBC45A8BFBC460F
:1022D00000E0AC4622F803C01CE03CF90380B045A6
:1022E00003DB8045A8BF804600E0B04602EB030C4C
:1022F00022F80380069F019ABA420ADA0B9A1AB9A9
:10230000079FACF8007005E0089A0124ACF80020A3
:1023100000E00024099F2FB9544A33F802C0524A02
:1023200023F802C00233B0E7514A4E4B917D5C74F2
:102330001A4600296ED04F4D6B79013B172B5DD8A3
:10234000DFE803F00C5C5C195F5C5C215C5C5C5C4E
:102350005C295C5C5C5C5C19295C5C39464B93F8DD
:10236000D5301BB1454B0020598951E050780028E9
:10237000F8D101464CE0414C0020218906F03AFC9E
:102380000120618944E03D4C0020E18806F032FCE8
:10239000012021893CE0394C0020E18806F02AFC2C
:1023A0000120218906F026FC0220618906F022FC2A
:1023B0000320A1892CE0314C0020E18806F01AFCB2
:1023C0000120218906F016FC0220618906F012FC2A
:1023D0000320A18906F00EFCAB68DA071AD50420A9
:1023E000218806F007FC0520618806F003FC062022
:1023F000A18806F0FFFB0720E18909E0AB689B0696
:1024000008D51E4C0020218806F0F4FB61880120CD
:1024100006F0F0FB05F0C0FF1EE0124B1B78002B0E
:102420003EF4E3A802F09CFBFEF7DFB8012202E0D5
:10243000022200E003225FFA82F8002008F1FF3355
:10244000014684F8C03402F0BDFE02202821424635
:1024500005F00AFFFEF750B913B0BDE8F08F00BFDA
:10246000D4080020610800203A200020EA0500205E
:1024700014070020741B002054200020800000203E
:102480002DE9F347B84D2B6893F84630752B00F0D3
:10249000DF8400F2EF80692B00F0388400F2A28024
:1024A000452B00F030871CD8422B00F0EF860BD86C
:1024B000402B00F00E87412B40F03787002003F0BF
:1024C00089FA002400F013BF432B00F0B886442B98
:1024D00040F02B87002003F07DFA0122A34B00F08F
:1024E00010BF662B00F05C8271D8642B00F0338241
:1024F000652B40F01A870B2003F06CFA9C4BB3F964
:10250000000003F06AFA9B4B588800B203F065FAAA
:10251000994B1B68C3F3C000C3F38002800040EAFC
:102520004200C3F340021043C3F3401240EAC2002A
:1025300003F01003184303F050FA904A0020147976
:10254000D378A40044EA430453781C43937944EAC3
:10255000C304537944EA4314537A44EA8314884BFE
:10256000D97944EAC114197A44EA0124597A44EA2F
:102570004124D17944EA8124117A927A44EAC1242F
:1025800044EA02345A7B44EA42349A7B44EA823475
:102590001A7C44EA02441A7944EA02145A7C44EA56
:1025A00042449A7C44EA8244DA7C44EAC2441A7D7A
:1025B00044EA02545A7D44EA42549A7DDB7D44EA5F
:1025C000825444EAC3546F4B19780346D3E1672B16
:1025D00000F02082682B40F0A886102003F0FAF962
:1025E00000248BE36F2B00F0028424D86C2B00F0C6
:1025F000B98318D86A2B00F095836B2B40F0958631
:10260000052003F0E7F9604BB3F9000003F0E5F9AA
:102610005E4BB3F9000003F0E0F9564B187800F078
:10262000010000F009BD6D2B00F0AA836E2B00F0B5
:10263000B28300F07ABE722B00F088840FD8702B22
:1026400000F0F383712B40F070864E4E00243078FA
:10265000400000F0FE0003F0BDF900F02DBC732B2C
:1026600000F0BA84742B40F060864FF0000801241B
:1026700000F03FBCCD2B00F0208500F29380A62B0C
:1026800000F0BA8525D8782B00F0D1810DD8762BB3
:1026900000F0AD84772B40F048863A4C0026207835
:1026A00003F098F9274600F04BBCA02B00F03F85C3
:1026B000A42B40F03A862F4E0024B07B3746800092
:1026C0000130C0B203F086F9B07B03F055F900F099
:1026D0003CBDCA2B00F0FD8022D8C82B00F0E28060
:1026E000C92B40F0228605F01EFE244B284CD872E0
:1026F00005F019FE274B187005F02AFE206005F042
:1027000027FE606005F01AFE234B188005F016FEC8
:10271000224B1880174B1A7842F002021A70E7E039
:10272000CB2B00F0BD80CC2B40F0FF8505F0FBFDEE
:102730001B4CE07705F0F7FD84F8200005F0F3FD71
:1027400084F8230005F0EFFD84F8240005F0EBFD8C
:1027500084F8250005F0E7FD84F8210005F0E3FD8D
:1027600084F82200C4E000BF0400002038050020E7
:102770001C040020FC0D00207006002061080020D1
:10278000E40100205812002082050020840500206A
:10279000600200203C0200205C0200208005002036
:1027A00054200020D32B00F0D18058D8D02B00F03B
:1027B0007B844DD8CE2B00F08A84CF2B40F0B5859A
:1027C00005F0BCFD6FF4AF614318C64CC62B98BF33
:1027D000A4F88E0105F0B2FDA4F8400105F0AEFDAD
:1027E000A4F8420105F0AAFDA4F8440105F0A6FDF5
:1027F000BD4EA6F8D00005F096FD84F89E0105F0C8
:1028000092FD84F89F0105F08EFD84F8A00105F08B
:102810008AFD84F87C0105F086FD84F8970105F0B7
:1028200082FD05F08BFD00EB80004000308505F057
:102830007AFD84F87D0105F076FD84F87F0105F0CE
:1028400072FD84F87E0105F06EFD84F880014FE092
:10285000D12B00F0F483D22B66D000F066BDEF2BB5
:102860002FD008D8D42B00F07681D62B08BF0024B7
:1028700052D000F05ABDFA2B00F03184FE2B00F04C
:102880003984F02B40F05185974C042003F0A2F8D6
:10289000B4F92C0003F0A1F8B4F92A0000F016BD39
:1028A00000242AE0002405F049FD904B185302341F
:1028B000102CF8D1002003F08DF801228C4B00F091
:1028C00020BD05F03BFD884CA08505F037FD6085F7
:1028D0000EE0884C04F10A0605F025FD0134607015
:1028E00005F021FDE07205F01EFDB4426075F3D1E4
:1028F000002003F06FF800F01CBD7F4B1B789C425A
:10290000F6D27E4BE65C05F019FD774B013403EB04
:102910004606A6F84600F0E705F010FD784B185380
:102920000234102CF8D1E3E7764B5C78002CDFD131
:1029300005F0F9FC6B4B022898BF83F8C0044FF0F8
:10294000000088BF83F8C0440146CFE305F0F6FCE1
:102950006D4B1880CCE7072003F03CF8E72003F02C
:102960000BF8604B587903F007F8012003F004F8E6
:10297000664800F0D7BC8B420CD2604A9E5C0122B4
:1029800002FA06F6264218BF9A4003F1010318BF67
:102990001043F0E703F02BF8524B93F8C0044BE3DD
:1029A000122003F017F85A4B5A4C1B88B3F5806F6E
:1029B00023D90026A05F082390FBF3F0023603F032
:1029C0000CF8062EF6D1544CB4F9000003F005F8CB
:1029D000B4F9020003F001F8B4F904004F4C02F01E
:1029E000FCFFB4F9000002F0F8FFB4F9020002F0B5
:1029F000F4FFB4F9040000F069BCB4F9000002F07F
:102A0000ECFFB4F9020002F0E8FFB4F9040002F0B0
:102A1000E4FFD8E7102002F0DDFF0024404B185DF2
:102A2000013402F0A9FF102CF8D100F082BC38204C
:102A300002F0D0FF2C4C0026B4F97E0002F0CDFF4E
:102A4000B4F9800002F0C9FFB4F9820002F0C5FFBA
:102A5000244B94F884005B79082B18D004D8012B00
:102A60000DD0042B05D06DE0142B1ED0152B2ED0CD
:102A700068E0F3B2042B2FD0052B2DD062E0F3B227
:102A8000052B5FD1B4F8863013F0040F1BE0F3B2CE
:102A9000032B01D0042B55D1B4F886309A0748BFD8
:102AA00040F0010013F0010F49E0F3B2042B04D110
:102AB000B4F8863013F0020F05E0052B42D1B4F8CC
:102AC000863013F0010F3DD040F001003AE0F3B240
:102AD000032B01D0042B25D1B4F8863013F0020F5C
:102AE00028E000BF741B002054200020D4080020E0
:102AF00058010020532000205812002040120020CE
:102B0000EA05002061080020380200200C0000C007
:102B100024000020460500203A1200202403002053
:102B200080000020052B01D0062B0BD1B4F8863095
:102B300013F0010F18BF40F0010013F0040F18BF8D
:102B400040F00200013602F017FF082E04F10A04DB
:102B50007FF472AFEDE3002002F03CFFDFF84C930E
:102B6000002605F0EBFBA9F87E0005F0E7FBA9F8CD
:102B7000800005F0E3FBA9F8820005F0D4FB20F00B
:102B8000030389F88430B84B04465F79082F78D066
:102B900029D8012F71D0042F40F0A9804FF0010AED
:102BA0005FFA86F85346CDF800A0404621463A46E3
:102BB00005F0D7FB5346CDF800A040464FF0020A7F
:102BC0002146052205F0CDFB404621463A465346B4
:102BD000CDF800A005F0C5FBCDF800A04046214689
:102BE0000522534681E0142F6FD0152F7FD1F7B205
:102BF0004FF001084346CDF80080384621460322B5
:102C000005F0AFFB4FF0000A4346CDF80080384690
:102C10002146042205F0A5FB4346384621460522FD
:102C2000CDF800A005F09DFB434638464FF0020862
:102C300021460622CDF800A005F093FB3846214638
:102C400003224346CDF8008005F08BFB3846214631
:102C500004224346CDF8008005F083FB3846214628
:102C600005224346CDF8008005F07BFBCDF80080BF
:102C7000384621460622434637E002230093F0B24D
:102C800030E04FF00108F7B24346CDF800803846F7
:102C90002146032205F065FB4346CDF80080384607
:102CA000214604224FF0000805F05BFB3846214620
:102CB00003220223CDF8008005F053FBCDF80080FD
:102CC00038462146042202230FE05FFA86F80127E6
:102CD00040463B4600972146042205F042FB002374
:102CE00000934046214605223B4605F03AFB01365B
:102CF000082E09F10A097FF434AF1AE35B4B185D23
:102D0000013402F039FE102CF8D112E3102002F049
:102D100061FE0024564B185F023402F05EFE102C58
:102D2000F8D106E3102002F055FE524B524CD87AEF
:102D300002F022FE514B187802F01EFE206802F0CD
:102D400056FE606802F053FE4D4BB3F9000002F0EE
:102D500044FE4C4BB3F9000002F03FFE4A4BB3F97E
:102D60000400B3E2494C062002F034FEB4F900003E
:102D700002F033FEB4F9020002F02FFE444B07E0EC
:102D8000062002F027FE434B186802F030FE424B4B
:102D9000B3F900009AE2072002F01CFE3F4B4FF609
:102DA000FF741888FF28A8BFFF20C0B202F0E4FD1E
:102DB0003B4B1868A042A8BF204620EAE07000B252
:102DC00002F00BFE374BB3F9000002F006FE264B73
:102DD00093F87C21344B18680028B8BF40420AB1F0
:102DE0000A235843A042A8BF204600B26EE22F4CEF
:102DF000072002F0EFFDE07F02F0BEFD94F8200016
:102E000002F0BAFD94F8230002F0B6FD94F8240015
:102E100002F0B2FD94F8250002F0AEFD94F8210016
:102E200002F0AAFD94F8220006E11E2002F0D2FD75
:102E30001F4C04F10A060134607802F09DFDE07A2F
:102E400002F09AFD607D02F097FDB442F3D170E28A
:102E50002F2002F0BFFD174C14F8010F002800F0DE
:102E6000688202F089FDF7E7741B00203A200020F9
:102E7000D408002061080020600200203C020020ED
:102E80005C02002080050020FC0D0020960400203C
:102E90000A020020200200204C0500205C040020D3
:102EA00070040020FC010020640400205420002055
:102EB00053200020831E010833789C4280F0398221
:102EC000B64BE25CB64B013403EB4203B3F9460068
:102ED00002F083FDF0E780440136B24B1B789E423E
:102EE00009DB002C00F025825FFA88F002F072FD09
:102EF00000240026F1E7A94BAB4AF35C0C2101FB4F
:102F00000323D3F8349048460BF0F5FF8246002C9B
:102F1000E1D127465745DFDA19F8070002F02CFD0A
:102F20000137F7E7A14B9D4A23441B7AB05C9842D6
:102F300001D102F021FD0C34B4F5907FF2D10136BD
:102F40003B789E4280F0F5810024EBE7984C1620F8
:102F500002F040FDB4F98E0102F03FFDB4F94001EA
:102F600002F03BFD8E4EB4F9420102F036FDB4F999
:102F7000440102F032FDB6F9D00002F02EFD94F8C3
:102F80009E0102F0F9FC94F89F0102F0F5FC94F820
:102F9000A00102F0F1FC94F87C0102F0EDFC94F841
:102FA000970102F0E9FC002002F0E6FCB6F92800E7
:102FB0000A2390FBF3F002F010FD94F87D0102F07B
:102FC000DBFC94F87F0102F0D7FC94F87E0102F05C
:102FD000D3FC94F880012FE0082002F0FBFC0124D0
:102FE000E0B2013402F0C8FC092CF9D1A1E105F0EE
:102FF0009AF90746122002F0EDFC0FB96D4B02E082
:10300000102F03D16C4B1E685C6801E0002426463B
:10301000384602F0B1FC304602F0E9FC204602F0EE
:10302000E6FC664B186802F0E2FC002002F0D5FCDA
:10303000002002F0D2FC002002F09EFC79E105F0B5
:1030400072F9804605F084F9074605F081F90646D5
:1030500005F07EF9044605F071F905F06FF905F009
:1030600062F9B8F1000F0DD1524B00225E601F6073
:10307000534BDA7101221A73002C3FF439AC4F4BD9
:103080001C6035E4B8F1100F7FF432AC4A4B1F607E
:103090005E600CB1494B1C6047484A4B0222011D3F
:1030A0001A7002F03FFF23E4454B5B78002B7FF45E
:1030B0001FAC012003F0A2FF1AE4414B5B78002B08
:1030C0007FF416AC404B4FF4C8721A8010E43C4BAE
:1030D0005A78002A7FF40CAC01229A7308E4384B2A
:1030E0005B78002B40F021810020012102F06AF87A
:1030F000FFF7FEBB082002F06DFC344B344A1B681E
:103100000024B3FBF2F3C3EB431103EB810331491A
:103110000968B1FBF2F2304902EBC3038B812F4BFC
:10312000185F023402F059FC082CF8D101E10C20A0
:1031300002F050FC2A4B186802F059FC294B186821
:1031400002F055FC284B1868ECE0BB7B9C4213D284
:10315000264E305D02F010FC06F12003185D02F0EF
:103160000BFC06F14003185D603602F005FC305D93
:1031700002F002FC0134E8E70D4B93F89E31012B7D
:1031800040F0D78000241A4B98681A4B195D01341F
:1031900004F0E9FF082CF6D1CBE000BF401200207C
:1031A0005420002058120020841E0108B41E01087B
:1031B000741B002040020020500200201C0200204E
:1031C000610800204C020020682100200C00002033
:1031D00040420F0090000020FC0D0020020E002055
:1031E000E8F7FF1FECF7FF1FF0F7FF1F0B0E0020A3
:1031F00014070020E01F0108102002F0EBFB504BE9
:10320000504C1E6816F020060CD0D4F89030D4F83C
:103210009400C01A02F0EBFBD4F89C00D4F898306C
:10322000C01A03E0304602F0E2FB304602F0DFFB5A
:10323000D4F8A00002F0DBFBD4F8A40072E0002078
:1032400002F0C8FB05F06FF83F4C0023A3606071EB
:1032500005F07EF8A3681843A06005F064F884F8D0
:103260008A0105F06BF8A4F8560105F067F8A4F898
:10327000580105F063F8A4F85A0105F05FF8A4F8C6
:10328000780105F05BF8A4F87A0152E02E4C10208A
:1032900002F0A0FB607902F06FFBA06802F0A7FBD0
:1032A00094F88A0102F068FBB4F9560102F095FB2C
:1032B000B4F9580102F091FBB4F95A0102F08DFB08
:1032C000B4F9780102F089FBB4F97A0102F085FBC8
:1032D0002FE0082002F07EFB00241B4B234493F8D0
:1032E0008201013402F048FB082CF6D121E005F000
:1032F0001AF8154B23440134082C83F88201F6D1C7
:1033000017E01A7015E0132002F064FB00240F4B45
:10331000185D013402F030FB0B2CF8D1002002F0D4
:1033200066FB002002F063FB03E00120002102F0B5
:1033300033FB2B68187902B0BDE8F04702F01CBBE4
:1033400070060020FC0D0020741B0020F72E0108E1
:103350002DE9F04F954B95B09B68CBB9944D2B78E8
:10336000013B042B00F25987DFE813F06A066A0676
:103370006A0647072A07A06802F0F4FA8D4B054653
:1033800093F89E31012B00F02D8108D3022B06D03B
:10339000864CA06802F0EBFA0028ECD1DEE7242D81
:1033A000854C0CD006D80A2D00F08C800D2D00F035
:1033B0008980E6E02A2D07D02C2D05D0E1E00023FE
:1033C00023706370A370EDE06278267822440021B8
:1033D000794BD170EEB9DA789E74472A19D11A79EF
:1033E000502A16D15A79472A07D19A79472A04D107
:1033F000DA79412A01D101229A7462796E4B522AFC
:1034000007D19A794D2A04D1DA79432A04BF0222DE
:103410009A74A37C684F012B02D0022B33D046E074
:10342000B31E072B43D8DFE803F0040810141C2454
:10343000422906F03BF8606139E0E2785E4B532A9E
:1034400035D15A6952425A6131E006F02FF8A06135
:103450002DE0E278584B572A29D19A6952429A6155
:1034600025E0E278554B302A94BF00220122DA721F
:103470001DE0002005F0FAFF207718E0002005F09D
:10348000F5FFE08313E0072E06D0082E0FD10120B0
:1034900005F0ECFF78840AE0012005F0E7FF41F237
:1034A000184358434FF47A72B0FBF2F33B84013671
:1034B00000232A2D404A267063706ED1012182F8C4
:1034C00024106FE094F82430002B55D03A4BDB7871
:1034D000402B04D9A3F137021201D2B202E01B0142
:1034E00003F0F0022379A178402B8CBF373B303BAF
:1034F000DBB21344DBB299422F4A3DD1937C012BBE
:1035000002D0022B1FD037E02C49C87A08B901231A
:1035100033E02B485569056095694560157F29485A
:10352000D28B057028480280284800684507EED4F1
:10353000097C0029EBD026498968521A64214A4344
:1035400024490A6019E0244B118C508C19801F4BC0
:10355000224E1B68308013F008070DD164290BD967
:103560000A25684305F034FA90FBF5F080B21C4B55
:10357000B0FBF5F530801D800023002284F8242064
:1035800010E063780C4A0E2B03D8591C1344517079
:10359000DD7094F82430084A1BB991784D4095703D
:1035A00000E0002303F0010399E100BF14070020AD
:1035B00020090020741B0020A40E002061080020B8
:1035C000600200203C0200205C0200207006002007
:1035D000400200202002002080050020000E002074
:1035E0000A020020A74C002294F82530082B00F294
:1035F0007581DFE803F00B05141C2D3D5B7A870015
:10360000622801D1022307E084F82520B52D40F07F
:10361000658194F82530013384F825305EE1032379
:1036200084F8253084F8260084F8270056E1042326
:1036300084F8253094F8263094F827200344DBB230
:1036400084F82630134484F8273084F8280045E1B4
:10365000052384F8253094F8263094F82720034475
:10366000DBB284F82630134484F82730608535E1D6
:10367000062284F8252094F8262094F82710024486
:10368000D2B284F826200A4484F82720628D7D4B2C
:1036900002EB0025ADB2B5F5E87F89BF00225D855C
:1036A0005A8583F825200023A38518E194F8263055
:1036B00094F827200344DBB284F82630134484F8BE
:1036C0002730A38DB3F5E87F03D26E4A1A4482F8FF
:1036D00030000133628D9BB29A42A38540F0FE8098
:1036E000684B072283F82520F8E0082384F825306A
:1036F00094F82630834200F0F180624A002382F879
:103700002530ECE084F8252094F827205D4B824298
:1037100040F0E48093F82820062A51D004D8022AE9
:1037200012D0032A39D0D9E0122A5FD0302A40F0D3
:10373000D58093F83420544B202A88BF20221A7059
:103740001978524A002373E0514A596B514851602D
:10375000996B11601A6C4FF47A7192FBF1F24E4939
:103760000A80596C0160996C4C48016093F8000222
:103770004B49C872012083F801024A4B1B68580765
:1037800009D40B7C3BB1484B92B29B68D21A64239C
:103790005A43464B1A60464B60E093F8352012F0CE
:1037A000010205D093F83430D91E4B424B4100E062
:1037B000134684F80032002B55D1394AD37252E0B7
:1037C00093F83B2012F0010205D093F83A30DA1E4C
:1037D0005342534100E0134684F800320BB9304A9B
:1037E000D37294F85F20334B1A703CE0B3F8442056
:1037F000314942F210700A80996C304E91FBF0F022
:10380000012183F80212274B30801B681B072AD442
:10381000642A28D90A2580B2684305F0D9F890FBBC
:10382000F5F080B2264BB0FBF5F530801D801AE034
:103830008B4202F10C0210DA12F8045C21481D548C
:1038400012F8035C20481D5412F8015C1F481D54F7
:1038500015781F481D540133EAE71E4B5A681A6059
:103860001D4A12685A6094F80122064BB2B393F8CD
:1038700002229AB3002283F8012283F80222012354
:103880002DE000BFA40E00200A0E0020D40E002060
:10389000600200209C0E00205C020020A00E002090
:1038A0006108002070060020400200202002002055
:1038B0008C0E00203C02002080050020000E00201D
:1038C0000A0200200B0E00202B0E00204B0E0020C1
:1038D0006B0E0020940E0020701B00200023002B94
:1038E0003FF456AD994B9A4D9A68DA602A689A600F
:1038F000984B1A6842F020021A60974B1A78012AF6
:103900000CBF002201221A70944BDA7A002A3FF48D
:103910003FAD934A1278042A7FF63AAD5A7812B92D
:10392000197C01B91A731B7B13B90AB105F028F889
:103930008C4C4FF0050C94F8033204F2022701334B
:1039400093FBFCFC0CEB8C0CCCEB030C864B84F84F
:1039500003C21B780397049304F5027303EB8C0CEA
:1039600000238249DFF828925E58814A96FBF9F7D6
:10397000069758180590069802F10807D8517D4F10
:1039800042F2107807FB00679E5097FBF8F8039E01
:103990001FFA88F802F1100A26F8028F03EB830B56
:1039A00053F80A0003965CF80B604CF80B70C6EBFA
:1039B000000E0EEB0706069F4FF0050E43F80A6057
:1039C00096FBFEF609FB076018329850049A0F46E2
:1039D000012A06D1A8F10208B8F5797F9CBF059E9F
:1039E00030600433082BBCD15E4E2868D6F85032C4
:1039F000C01A09F01FF8604909F028F92B684FF048
:103A00007E51C6F85032804609F00AFA10B94FF0DC
:103A10007E5000E0404610AAC6F85402574B009270
:103A200011AA019297E803000CCB04F048FF109A0A
:103A30006423534992FBF3F211980A80DFF81C814A
:103A4000504A90FBF3F3138098F80C300BB90B80BD
:103A5000138096F85832434D002B3AD0D5F85412C3
:103A60004FF07E5009F0F2F8D5F85C3281463868A4
:103A7000C01A08F0E3FF494609F034F809F0F8F9F4
:103A8000D5F860221FFA80FA78680FFA8AFA801A4D
:103A900008F0D4FF3C4B196809F024F8494609F0B6
:103AA00021F809F0E5F9B5F9663200B2C218B5F9A6
:103AB00064320221534492FBF1F293FBF1F392B290
:103AC0009BB2A5F86A22A5F86832A5F86622A5F887
:103AD0006432012386F858327968386898F80830DB
:103AE000C6F86012C6F85C0223B91C4BDB79002BC8
:103AF0003FF44EAC254B009304330193D4F86C2271
:103B0000D4F8703204F0DBFE7B68D4F87002C01A7F
:103B100008F094FF1C4B196808F0E4FF09F0A8F9BD
:103B20003A68D4F86C32C4F880029B1A98F81020D6
:103B3000C4F87C320C4B0AB102221A7093F900309F
:103B4000012B27D0022B00F0F68021E42009002071
:103B5000701B002070060020FC0D00206108002072
:103B60003C020020A40E00204C0200206002002035
:103B7000D4100020806967FF00007A4440020020D2
:103B800082050020840500203C0000201811002040
:103B900080969800D4F88472D4F8A052D4F8946235
:103BA0000397D4F8987205F100400496069709F03F
:103BB0005FF98146284609F05BF9D4F85482D4F8BD
:103BC0009C4207904046059408F0A0FB8E4B0446AB
:103BD00093F8DA000D4608F02DFF08F097FB88A354
:103BE000D3E9002308F0E6FB02460B460020874994
:103BF00008F00AFD2B46224608F02AFA02460B4638
:103C00002046294608F000FDCDE90801804E002538
:103C1000804C54F81570A4F11403384635F803A00D
:103C200008F00CFF039908F05DFF09F021F9CAEBD9
:103C3000000080B22834285304B2204608F0FEFE6B
:103C4000049908F04FFF09F013F91FFA80FBE019FF
:103C500008F0F4FE069908F045FF414608F042FFDF
:103C6000316808F037FE09F003F9484504DB07998D
:103C70008842A8BF084600E0484608F0DFFE3060F2
:103C800009F0F6F8B46858441FFA80FB204608F0A3
:103C90003DFBCDE90A0170680AF1310A381A08F0D3
:103CA000CDFE414608F0D2FF214608F011FE08F093
:103CB0002DFB02460B46DDE9080108F07BFB0246BE
:103CC0000B46DDE90A0108F0C3F908F0ADFD1FFA63
:103CD0008AFABAF1620F014630617760B0600ED99E
:103CE000059808F0FFFE09F0C3F84B4BB0F5FA6FEA
:103CF000A8BF4FF4FA609842B8BF184600E0002011
:103D0000834440F6B8330FFA8BFB9B45A8BF9B4614
:103D1000424B0A229B45B8BF9B466A43404B56F82C
:103D2000141B25F803B03F4B0235042DD1507FF40E
:103D30006FAFFFF72DBB344AD6F874A2B2F9E0900A
:103D40009AFBF3F39945A8BF9946B6F8A8521FFA13
:103D500089F90FFA89F22BB29A42334C0BDD3349C1
:103D6000D4F8540208F0BEFE09F082F828441FFA85
:103D700080F9A4F8A892D6F87842D6F8AC52651B20
:103D8000284604F025FE0028D8BF404241F2931394
:103D90009842CCBF0020012000284BD0284608F0D4
:103DA0004DFE234908F09EFE0BF062FB054650468F
:103DB00008F044FE0146284608F094FE09F058F841
:103DC00080B240F6B83203B29342A8BF1346134AFA
:103DD000A6F8B0029342ACBFE318A31848F6A0427D
:103DE000934203DDA3F50C43A03B04E0002BBCBFD2
:103DF00003F50C43A033C6F8B4321DE0AFF30080E6
:103E0000182D4454FB211940542000200000F03F9D
:103E1000A00200202011002030F8FFFF48F4FFFF2F
:103E200072020020C8020020A40E00200000C84238
:103E3000D3023739C6F8B442D6F8B472C7F50C507D
:103E40002830039708F0FAFDAF4908F04BFE04460E
:103E50000BF09AFA139020460BF00AFBD6F8B872D2
:103E6000D6F8C4420597D6F8BC72129004F100400F
:103E7000089708F0FDFF0490204608F0F9FFD6F8F7
:103E800054B2D6F8C0620A905846079608F03EFA37
:103E90009E4B044693F8DA000D4608F0CBFD08F07F
:103EA00035FA97A3D3E9002308F084FA02460B46BB
:103EB0000020974908F0A8FB22462B4608F0C8F8D6
:103EC00002460B462046294608F09EFBCDE90C0130
:103ED000904E00270FFA89F008F0B0FD12AB53F8AE
:103EE000171008F0FFFD8C4C0546E05F08F0A6FDBA
:103EF0000146284608F0ECFC08F0BAFF874B0FFAA1
:103F000080F8B8F57A7FA8BF4FF47A789845B8BFA3
:103F100098461FFA88F03C34385300B208F08EFD02
:103F20000599044608F0DEFD08F0A2FF80B2069075
:103F30000899204608F0D6FD594608F0D3FD3168AF
:103F400008F0C8FC08F094FF0499884204DB0A9A40
:103F50009042A8BF104600E0049808F06FFDB468D6
:103F600005463060204608F0D1F9CDE90E017068B1
:103F70001436C0EB080008F061FD594608F066FEF3
:103F8000214608F0A5FC08F0C1F902460B46DDE920
:103F90000C0108F00FFA02460B46DDE90E0108F0AD
:103FA00057F808F041FC46F8108C014646F8040C1E
:103FB00046F80C0C079808F095FD08F059FF069C90
:103FC0000444284608F054FF204440F6B83300B2B9
:103FD0009842A8BF1846524B0A229842B8BF1846CA
:103FE0007A43504BF852504B0237042FD5507FF490
:103FF00071AF464B93F8DC202AB1039E64214B4AF3
:1040000096FBF1F11180B3F8D830494C9A450EDD9A
:10401000D4F8AC32D4F87802C01A04F0D9FC42F2D9
:1040200010730028B8BF404298427FF7B1A9414BB6
:1040300001221A70B4F8C8223C4B1A80FFF7A8B9C5
:10404000DFF8048198F89E7117B1012F0AD0B4E00F
:104050006A78394B03EB0213384A5968906801F0CB
:104060007CFCA7E0354EB068B14603681B699847F1
:10407000002800F0A2802B78314C022B66D0032B55
:104080006ED0012B40F099802E4B1E68636AF31AA4
:10409000632B40F29280E369042B2EDCD8F80820D1
:1040A000254C02F04802482A0ED0EB69D9F80800E6
:1040B00004EB0313596801F050FC6B78D9F80870D1
:1040C00004EB0314A4680CE098F88C21002AECD1CE
:1040D00004EB03135B68B3F5164FE6D90223EB61DB
:1040E000E3E714F8011B19B1384604F03CF8F8E78F
:1040F000EB696E620133EB615FE002205BE000BFC1
:10410000182D4454FB211940D30237395420002084
:104110000000F03FC80200200C11002018FCFFFF37
:1041200048F4FFFF72020020A002002038020020A5
:10413000A40E00204C020020A01701081407002044
:1041400020090020701B0020741B00206278344B73
:10415000B06803EB0213596801F0FFFB03202AE06B
:104160002369012B0DD0022B24D033BB226A2D4BA7
:10417000276153F8321003EBC2035B686161A361EE
:104180001BE0E369A269934208DA6269B068D15C16
:1041900003F0E9FFE3690133E3610EE0226A21499C
:1041A0000132226251F832200023E36102B9022376
:1041B000236102E0042006F0D9F900236B602CE0B3
:1041C0006A68194B01326A60184A92F8A1214AB113
:1041D0005A7805210132D2B2B2FBF1F101EB810133
:1041E000521A5A70124B134A1B680120AB6000230D
:1041F0001370114A2B61D3720DE00D4B1A68AB6836
:10420000D21A40F6C4139A4207D90C4B05201A68FB
:1042100022F020021A6006F0A9F915B0BDE8F08F6F
:10422000A0170108C018010820090020741B0020F5
:10423000701B00203C020020610800207006002056
:104240002DE9F04F904C93B0636890489847904B9D
:104250008E4C1A88984604F15009002A00F0968086
:10426000002704F108053E46B8F800A0894BBAF5CE
:104270007A7F07D10A21A3F13C0001FB060100224D
:10428000DA510A61DA59A05F0244DA5108F0D6FB2C
:104290002A690132012A2A6104D10023686028605A
:1042A000AB602AE0D5F800C002926146CDF80CC0A0
:1042B000019008F00DFB029A8346104608F0BEFB01
:1042C0000146584608F0C2FCDDF80CC001466046C5
:1042D00008F000FB019B02461146686018460292F6
:1042E00008F0F6FA0146584608F0FCFBA96808F009
:1042F000F1FA029AE8602A60A8600023BAF1010F7F
:10430000A35329F8063034D12869012807DD013884
:1043100008F094FB0146E86808F098FC00E00020F3
:104320000BF0BEFA5C4B824693F8660190B108F040
:1043300085FB0146504608F091FD58B14FF47A7361
:10434000A8F800300023A361E3622364E364A3645C
:1043500063640EE04F4B4FF47A72FB580A2003F56A
:10436000FA7393FBF2F329F806300F21012203F0D0
:104370007BFF0236062E07F1040705F114057FF4D2
:1043800073AFB8F80030013BA8F800300023E15AC1
:1043900039F803203D4E8A1AE2520233062BF6D139
:1043A0003E4A3D4D136813F0020300F0B5833C4BC9
:1043B0003C4F06F156005B6898473888563600280F
:1043C00044D000231A46DFF8ECC0B0F5C87F04BF24
:1043D00000214CF8021036F903805CF80210DFF877
:1043E000ACE041444CF80210002105EB0308F15207
:1043F0000233062BDFF8A0C0A8F86A1102F104020C
:10440000E1D101281FD1DEF85C304FF4C872C83307
:1044100093FBF2F3ACF86A31DEF86030C83393FBFB
:10442000F2F3ACF86C31DEF86430C83393FBF2F28F
:104430001D4B1B88D21A1D4BACF86E2159859985EE
:10444000014600F0BFFE3B88013B3B80AA68124B4F
:10445000520740F1908016490A888E46322A2BD1A5
:10446000B3F86A11A4F86810B3F86C11B3F86E31A0
:10447000A4F86A10A4F86C300C4B598D9B8DA4F8ED
:104480006E10A4F8703019E074060020701100203E
:10449000F80D0020B4110020741B002070060020CD
:1044A00088060020682100202400002054200020DD
:1044B00010020020CC110020002A3DD00023194614
:1044C000322AA94F04BF0020785036F903C078582B
:1044D00060447850002005EB030CF0520233062BA9
:1044E000ACF86A0101F10401EAD1012A21D19F4B04
:1044F00018709F4B1A709F4B19780A2906D99E494C
:104500009E4E0E600A2119709D4B1880B4F86830D9
:10451000B4F86E10A5F86A31B4F86A30A5F86C31B9
:10452000B4F86C30A5F86E31964B5985B4F870101C
:104530009985013AAEF80020934A1378DBB1002345
:10454000616F1370322291FBF2F1A5F86A11A16F2D
:1045500091FBF2F1A5F86C11E16F91FBF2F28B493E
:104560000888121AA5F86E210120864A0146538553
:10457000938500F027FEB4F85620B5F86A3100277D
:10458000D31AA4F85630B4F85820B5F86C31BB46AD
:10459000D31AA4F85830B4F85A20B5F86E31D31AAB
:1045A000A4F85A3003F00EFED4F880300646C31A41
:1045B0001846049308F03EFA754A0690D16808F050
:1045C00091FA704AC4F8806092F82E3007900593F3
:1045D0003E469046A05F08F031FA079908F082FA4B
:1045E000059A0DF1240A4AF807006AB3104608F04C
:1045F00025FA01464FF07E5008F028FBDFF8B09115
:10460000024611464FF07E50029208F061F957F8C9
:10461000091008F067FAA9F12E018446885FCDF8E9
:104620000CC008F00BFA029A114608F05BFADDF8AC
:104630000CC00146604608F04DF949F8070008F043
:1046400017FC544A905303E0534AB15A514AB152AD
:10465000504A0437B25E0236062E02FB02BBB9D1C5
:104660004A4A6426128806FB0BF3524393FBF2F688
:10467000493E4A4809A9B6B203F0AAFE3B2E40F2D1
:104680009B80474BD4F89860B3F9000008F0D6F946
:10469000014630464FF0010708F0E0FB00B907463D
:1046A000404B3146D4F894005F730AF06FFF074621
:1046B000C4F89C00D4F89000D4F898B000F10046FB
:1046C000D4F89400014608F00DFA59468146584640
:1046D00008F008FA0146484608F0FCF80BF0E0F84C
:1046E000014630460AF052FF0646C4F8A00038469C
:1046F00007F00CFE1AA3D3E9002307F05BFE08F0D5
:1047000093F80AF077FEDFF8AC90A9F80000304685
:1047100007F0FCFD12A3D3E9002307F04BFE08F0DD
:1047200083F80AF067FEA9F802001F4803681B0718
:1047300040F1918009A91D4803F04AFEB5F86401D3
:1047400008F078F94FF07E51824608F0C3F8014630
:104750004FF07E5008F07AFA4FF0000B81465AE095
:104760003B597E90A9E78140E4110020120200200D
:104770000C0200200000002000020020AE150108FD
:1047800004020020542000200D02002024000020FC
:104790007406002046050020C611002000120020EB
:1047A000000700206108002070060020141200207D
:1047B000F411002096040020B5F8620108F03AF9DF
:1047C0004FF07E51074608F085F801464FF07E50C5
:1047D00008F03CFA4FF000090646DFF838B33846D7
:1047E0005BF8191008F07EF9BB4A034632F909005C
:1047F000019308F023F9019B0146184608F06AF876
:10480000314608F06FF94BF8190009F10209B9F1C6
:10481000060FE2D135E7B14B504653F81B10019318
:1048200008F060F9AE49024631F90B00029208F037
:1048300005F9029A0146104608F04CF8494608F07E
:1048400051F9019B43F81B000BF1020BBBF1060F62
:10485000E1D118463FE0DFF88CB25146584603F0EC
:10486000B7FDDBF80000DBF804300146DBF808A0F8
:10487000019308F037F9019B81461946184608F064
:1048800031F90146484608F025F851468146504620
:1048900008F028F90146484608F01CF80BF000F82B
:1048A0000021814608F0B2FAA0B9DBF800004946C1
:1048B00008F0CCF94946CBF80000DBF8040008F01A
:1048C000C5F94946CBF80400DBF8080008F0BEF94A
:1048D000CBF80800834803F033FE834B83491880EC
:1048E000069808F0FFF8804B06F10046814607F174
:1048F0000047B3F900000D960C9708F09FF800F1FF
:10490000004007F003FD70A3D3E9002307F052FD38
:1049100007F08AFF704E0E90B6F9000008F08EF88E
:104920000F90B6F9020008F089F81090B6F904006B
:1049300008F084F80CA911900FA803F049FD6C4B06
:1049400093F84430012B17D16A4B5B7873B9D4F8D4
:10495000B030402093FBF0F0181A08F06FF811996E
:1049600007F0B8FF08F084FAC4F8B000D4F8B0300B
:10497000402093FBF0F001E05F4B188808F05EF8F0
:104980000146119807F0A4FF5C4B11901968484646
:1049900007F0A0FF0146484608F058F9D4F8B47073
:1049A00081463946119807F093FF0146484608F0C2
:1049B00099F80146384607F08DFF0746C4F8B40061
:1049C0000F98D4F8B8900AF015FD98F8301003F05D
:1049D00033FE4844C4F8B8001098D4F8BC900AF0EC
:1049E00009FD98F8301003F027FE4844C4F8BC00D5
:1049F0003846D4F8C0900AF0FDFC98F82F1003F068
:104A00001BFE3F4B04991A6848440A441A60D4F8C4
:104A1000C4303C4E0133C4F8C43098F87C30C4F83C
:104A2000C000002B7ED0D6F89000D6F894800146C6
:104A300008F058F841460746404608F053F801464A
:104A4000384607F047FFD6F89860074631463046AB
:104A500008F048F80146384607F03CFF0AF020FF0E
:104A60000146304608F0F2F82749074608F0E2F917
:104A7000264E10B10023338054E038460AF036FD4C
:104A8000234B196808F02EF80AF0B4FCB0F5617FEA
:104A9000A8BF4FF4617007F027FC0DA3D3E90023F2
:104AA00007F0B2FD07F0C0FE0AF0E2FC104B07462B
:104AB00093F87C0007F0C2FF394608F013F80AF0BB
:104AC00099FC30802EE000BF399D52A246DF913F15
:104AD000A2EB0FE5DD1696404605002014120020DB
:104AE00024030020400000200A020020BD37863544
:104AF0005420002061080020240000200C07002022
:104B000070210020701100208FC2753CC20500206A
:104B10000807002000120020A6F85630A6F85830EA
:104B2000A6F85A306B79012B0ED1B4F9C820B4F92C
:104B3000043003EB4203032293FBF2F39BB2A4F88D
:104B4000CE30A4F8C83002E0A388A4F8CE30238881
:104B5000A4F8CA306388A4F8CC3013B0BDE8F08F55
:104B6000204B1A88204B002A33D19A78002A30D063
:104B70005978002934D101225A701C4A10881C4AE5
:104B800010801C4A926812F4807F1B4A12D0DB7A94
:104B900083B11A4B1B78042B0CD91378072B1FD920
:104BA000174B1848186007231370174B1960174BE1
:104BB000198070471378062B12D9154A104B1A60CA
:104BC0000D4B06221A70104A002313600F4A1380FF
:104BD00070475B7823B90220FF21012203F044BB18
:104BE000704700BFF80D0020610800200A02002075
:104BF0003A020020741B0020000000203C0200202C
:104C000000020020D21501088C04002004020020BC
:104C1000DB1501082DE9F041574D804600210323A3
:104C200056484246296006F0D1F92B68544F0133AB
:104C30002B60544B544E1B683860022B3060534C31
:104C40000CDD94F88C1149B903235148424606F013
:104C5000BDF92B6878600133F0642B604D4DFF2166
:104C6000182205F1D0000AF024F9002385F8D0308D
:104C7000494B2A461968012311F0020F05D085F827
:104C8000D130022385F8D23003234E070FD5D51833
:104C9000032685F8D060A568581CAD0406D53D4DA7
:104CA00002332844042580F8D05000E0034611F078
:104CB0000A0F0CD0D118052081F8D0000625981CC9
:104CC00081F8D15011180720033381F8D000A06873
:104CD000810604D5D118082581F8D0500133C705C5
:104CE00009D5D518591C0A2685F8D06011440B2522
:104CF000023381F8D050657905F0EF01082901D021
:104D00000E2D04D1D1180C2681F8D0600133D618AD
:104D10000D2786F8D070460703F1010105D51D4E19
:104D20003144112681F8D060991C94F8B04156188E
:104D30001327002C0CBF002000F001004B1C86F84C
:104D4000D07028B113480344142083F8D0008B1C82
:104D5000182D0CD1D118152081F8D0001624981CDC
:104D600081F8D14011181720033381F8D00082F860
:104D7000E830BDE8F08100BF3C050020003801406C
:104D80001407002064210020A0040020741B0020D0
:104D900000480040701100207006002070B51D4DC5
:104DA00095F8AF315BB995F8B02112B91A4A547829
:104DB00001E01A4A147D003418BF012400E00124E8
:104DC000174A92F8E9101646A14221D095F8AE2173
:104DD00064B122B91BB94FF41650FFF71BFF95F8C9
:104DE000AE11012912D10F4BD8680DE02AB923B9B1
:104DF000084BD3F8A401FFF70DFF95F8AE31012B56
:104E000004D1084B0321D86800F0A2FD86F8E940E0
:104E100070BD00BF741B002061080020E401002069
:104E20007011002014070020B0F8400080B27047D5
:104E3000808F80B27047008F80B27047808E80B2C2
:104E40007047094BDA68D10709D4DA68520708D4E9
:104E5000DB6813F0100F0CBF042003207047012003
:104E600070470220704700BF0020024010B5044682
:104E7000FFF7E7FF012806D11CB1FFF7E2FF013C75
:104E8000F8E7052010BD002C08BF052010BD38B57F
:104E900005464FF43020FFF7E9FF042812D10A4CF1
:104EA0004FF43020236943F00203236165612369D5
:104EB00043F040032361FFF7D9FF226941F6FD73F8
:104EC0001340236138BD00BF00200240204B2DE974
:104ED000F0431A781D461F49FAB11F4B4F7D1E78CB
:104EE0001E4B93F800C002231D4A03F10108D45C55
:104EF000344104F00F04BC420AD212F8039012F8B5
:104F0000088002EB840209EA0C0408EB0424146113
:104F10000233102BE8D100232B704B7D114A8342C2
:104F200003D90F4B93F8301019B9B2F88E01BDE8D0
:104F3000F08310440C4990F88221097803EB820336
:104F4000186901B1400800F5777080B2BDE8F083C0
:104F50000001002014070020FC080020FD080020AC
:104F60005C120020741B0020FE080020044B184433
:104F700090F88221034B53F82200C0F3CF00704712
:104F8000741B00203801002008B5094B184490F824
:104F90008221084B53F8220007F04CFD064907F028
:104FA000A1FD064907F096FC07F088FF80B208BD16
:104FB000741B0020000900200000203F00005C441A
:104FC000034B184490F88221024B33F822007047BB
:104FD000741B00207C010020016B0346C26810B5E1
:104FE000406941B1196C541A005D013918BF0A4675
:104FF000C0B21A6410BD196A405C0131B1FBF2F411
:1050000002FB1412C0B21A6210BD436B13B190F8C8
:1050100044007047826A436AD31A58425841704725
:10502000036B13B15A68036C01E0026AC369D01ABA
:1050300018BF01207047704738B5124C0123054650
:1050400084F8303003F0BEF8636B41F28832C31A43
:105050009342A36384BF002384F83C3094F83C302F
:10506000EDB20F2B6063E55406D1074B01221A7095
:10507000064B00221A8038BD024A013382F83C30C8
:1050800038BD00BF5C120020000100201C01002080
:1050900010B5044603F096F8164A136C1064C31A50
:1050A000B3F57A6F84BF002382F8443092F844301D
:1050B00023B9A82C1CD110490B7006E0022B02D199
:1050C0000E490C7001E0142B01D80D49CC5401336A
:1050D000DBB282F84430094A12785200053293421A
:1050E00006D1044B002283F84420034B01221A709E
:1050F00010BD00BF5C1200201E0100203401002002
:105100001F01002038B5044603F05CF8114B40F64F
:10511000C4119A6C9864821A8A4284BF002283F870
:105120004C2093F84C200AB90F2C11D10A480021C9
:10513000017052B1094D182A154405F8014C04D1EB
:10514000012283F84C10027038BD013283F84C20E4
:1051500038BD00BF5C1200200101002002010020C8
:1051600010B5044603F02EF80F4B40F6B8311A6D17
:105170001865821A8A4284BF002283F8542093F86B
:1051800054200AB9202C0DD108491F2A8C5406D16D
:10519000074B01221A70074B00221A8010BD013202
:1051A00083F8542010BD00BF5C1200205A0100207B
:1051B000590100201C010020014B186802F0D3BFE8
:1051C00014070020454B2DE9F74349221A7040F29D
:1051D000C4425A80BE221A71EF2283F8C2240022F0
:1051E000074683F8C3241E4651B193F8C0044FF418
:1051F000827202FB00303A4900F5DA7009F050FE85
:1052000000221346B15C01324B4040F2C4418A4255
:10521000F8D1324A4FF0030882F8C334314B324A96
:105220005A6002F188325A602E4B3422DA602F48DD
:10523000FFF72DFE2E48FFF72AFE2E4C04282FD113
:105240002D4B321953F802904FF400500023019374
:10525000FFF70CFE04281DD1224D4FF400502B699E
:1052600043F001032B611FFA89F324F8023CFFF796
:10527000FDFD042809D10194019B4FEA1949A3F8C7
:1052800000904FF40050FFF7F1FD2A6941F6FE73DC
:1052900013402B61194B04349C42CFD1042802D017
:1052A000B8F10108C0D10F4B04281A6942F08002FE
:1052B0001A6102D103F0E8F910B90A2002F0B1FF37
:1052C00003F006FA03F006FC27B10F201421012297
:1052D00002F0CAFF03B0BDE8F08300BF741B0020DA
:1052E00054200020002002402301674500F80108F7
:1052F00000FC010802F80108FE07FEF7C6FC0108E1
:1053000030B587B005460C4603A800210C2209F0F1
:10531000D0FD2846002107F0A1FD20B128462A49EA
:1053200007F0D8FA03E02846274907F0D1FA2749C1
:1053300007F0D8FB07F09CFD054685EAE570A0EB79
:10534000E57069460A2203F081FA00239D4203704A
:10535000ACBF20232D2368468DF80C3009F0CBFD1F
:10536000012807D130238DF80D308DF80E308DF8DF
:105370000F300CE0022805D130238DF80D308DF868
:105380000E3004E0032804BF30238DF80D30694649
:1053900003A809F096FD03A809F0ADFD0338C5B2D6
:1053A0002A4603A9204609F0D1FD00236355204673
:1053B000074909F086FD03A92046294409F081FD2B
:1053C000204607B030BD00BF6F12033A00007A4498
:1053D0007136010870B5104C064604EB81140025A7
:1053E0000E4A308A2A445388B189034289B20CD0CC
:1053F0000B420AD0DB439BB2338230465368984756
:10540000A36801460BB1207B98470835202D04F195
:105410001004E5D170BD00BFD01300202821010881
:105420001F4B10B55A6802F00C02042A03D0082A58
:1054300004D01C4A14E01C4A126811E05A685968EA
:10544000C2F38342C90302F1020201D4174906E004
:10545000596811F4003F1449096818BF49084A43C4
:1054600002605968124AC1F30311545C0168E140BB
:1054700041605C68C4F30224145D21FA04F4846082
:105480005C68C4F3C224145DE140C1605B68C3F38F
:1054900081331A44137CB1FBF3F1016110BD00BFED
:1054A0000010024000127A000C00002000093D00AC
:1054B0004C000020038ACA889BB223F44053134354
:1054C00030B503820D4682890989AB8892B20B43BD
:1054D000698922F4B0520B4322F00C0213439BB2B1
:1054E0008381838AAA899BB223F4407387B01343D4
:1054F0000446838201A8FFF793FF1749049A039B90
:105500008C4208BF1346A289192112B25943002ABE
:105510002A684FF06403B4BF52009200B1FBF2F16D
:10552000B1FBF3F21201100903FB1011A08900B2C4
:10553000002806DAC9003231B1FBF3F303F00703A8
:1055400005E009013231B1FBF3F303F00F031A4315
:1055500092B2228107B030BD0038014030B500233F
:1055600085B0ADF80A30ADF80430ADF80630ADF8CE
:105570000830ADF80C3003790446DA0744BF042242
:10558000ADF80A209B070D46009105D5BDF80A30FD
:1055900043F00803ADF80A30A06C6946FFF78AFFB4
:1055A000A56005B030BD034B1A6922EA00001861FE
:1055B000704700BF001002408A6810B50C6A03688B
:1055C00014430A6923F4FF4314434A6923F0700328
:1055D00014438A691443CA6914434A6A14438A6AA1
:1055E000224313430360CB6843600B6883604B68BE
:1055F000C36010BD02684FF6FE73134003600023C2
:10560000036043608360C3602A4B984222D02A4BD8
:10561000984229D0294B984230D0294B984237D014
:10562000284B98423ED0284B984206D153F8682C1C
:1056300042F4700243F8682C7047244B984206D11C
:1056400053F87C2C42F0706243F87C2C7047204B5E
:10565000984206D153F8042C42F00F0243F8042C70
:1056600070471C4B984206D153F8182C42F0F002B8
:1056700043F8182C7047184B984206D153F82C2C3D
:1056800042F4706243F82C2C7047144B984206D1B8
:1056900053F8402C42F4704243F8402C7047104BB2
:1056A000984205D153F8542C42F4702243F8542CFC
:1056B000704700BF080002401C000240300002405A
:1056C00044000240580002406C000240800002404A
:1056D000080402401C04024030040240440402401A
:1056E0005804024010B5104B4178DB688478DB43E6
:1056F000C3F30223C3F1040201FA02F20F21D940DD
:1057000021401143094B02780901C9B21A4482F8B9
:10571000001302780120510902F01F0200FA02F280
:1057200043F8212010BD00BF00ED00E000E100E0E3
:10573000013A2DE9F8430C46072A30D8DFE802F099
:1057400004080C12191E222603880B8043880DE0E2
:1057500043880B80038803E003885B420B80438807
:105760005B4203E043885B420B800388638083884D
:1057700014E003885B420B8043880CE043880B8075
:10578000038808E003880B80438803E043885B427A
:105790000B8003885B42638083885B42A380304B2D
:1057A0001B78002B5AD1B4F9000007F047F9804666
:1057B000B4F9020007F042F90746B4F9040007F013
:1057C0003DF9284D06462968404607F08BF9E968FF
:1057D0008146384607F086F90146484607F07AF8D0
:1057E000A9698146304607F07DF90146484607F031
:1057F00071F809F0FFFD69682080404607F072F9F2
:1058000029698146384607F06DF90146484607F098
:1058100061F8E9698146304607F064F90146484677
:1058200007F058F809F0E6FDA9686080404607F0E7
:1058300059F969698046384607F054F901464046EF
:1058400007F048F8296A0746304607F04BF9014649
:10585000384607F03FF809F0CDFDA080BDE8F88399
:10586000210000204C0600202DE9F041069C002B71
:1058700006460F460CBF4FF020084FF03008234675
:1058800013F8011B09B9154603E0002AFBDD013AB4
:10589000F6E7002D04DD30464146B847013DF8E704
:1058A00014F8011B11B13046B847F9E7BDE8F081A3
:1058B000F0B50124B0FBF4F58D4201D34C43F9E778
:1058C0000026DCB1B0FBF4F504FB1500B4FBF1F4E9
:1058D0001EB9002D01DC002CF3D1092D03F10107C5
:1058E0005FFA85FC04DD002A0CBF5725372500E050
:1058F000302565441D7001363B46E2E71C70F0BD63
:10590000F0B50124B0FBF4F58D4201D34C43F9E727
:105910000026DCB1B0FBF4F504FB1500B4FBF1F498
:105920001EB9002D01DC002CF3D1092D03F1010774
:105930005FFA85FC04DD002A0CBF5725372500E0FF
:10594000302565441D7001363B46E2E71C70F0BD12
:1059500008B503685B69984708BD08B50368DB684C
:10596000984708BD08B503689B68984708BD08B507
:1059700003685B68984708BD38B5064D04462B6838
:105980002146186802F0EFFB2B681A7954401C710D
:1059900038BD00BF0400002038B5044624200D4661
:1059A000FFF7EAFF4D20FFF7E7FF002C084C0CBF84
:1059B0003E202120FFF7E0FF2368002228461A71CD
:1059C000FFF7DAFF236893F84600BDE83840D3E7D5
:1059D0000400002001460020DEE710B50446C0B2F6
:1059E000FFF7CAFFC4F30720BDE81040C4E710B5B5
:1059F0000446C0B2FFF7C0FFC4F30720FFF7BCFFA7
:105A0000C4F30740FFF7B8FF200EBDE81040B3E72E
:105A100010B5441E14F8011F21B1034B186802F0A1
:105A2000A2FBF7E710BD00BF14070020F8B5184B24
:105A30001B78042B28D1174B08221A6110221A61F7
:105A4000154CA068FFF793FF58B1124D08266E6100
:105A5000A0682768FFF786FF0146384602F083FBFF
:105A60002E6120680C4EFFF782FF0028E8D0094C19
:105A7000102565613068B768FFF774FF0146384646
:105A800002F071FB2561DBE70448BDE8F840BFE7A1
:105A900020090020000C014014070020CA2F010833
:105AA0000048B5E7F02F010838B5064C05465E21E1
:105AB000E06802F058FBE0682946BDE8384002F093
:105AC00052BB00BF14070020024B5E21D86802F0D1
:105AD0004ABB00BF140700201FB50123ADF80830F2
