:020000040800F2
:10000000005000207DEA000829EB0008C1B9000873
:1000100029EB000829EB000829EB0008000000008C
:1000200000000000000000000000000029EB0008B4
:1000300029EB00080000000029EB00089DB900082A
:1000400029EB000829EB000829EB000829EB000840
:1000500029EB000829EB000829EB000841BB000848
:1000600029EB000829EB000829EB000829EB000820
:1000700031B9000829EB000861B9000829EB000834
:1000800029EB000829EB000829EB000829EB000800
:1000900029EB000829EB000829EB00083DBB00080C
:1000A00029EB000829EB000829EB00082FBB00080A
:1000B00025BB000819BB00080DBB0008BDB900082E
:1000C000B5B90008B9B90008B1B9000829EB0008B2
:1000D00029EB0008EDB8000879B8000841B800081D
:1000E00045BB000829EB000829EB000800000000D0
:1000F0000000000000000000000000000000000000
:0C01000000000000000000005FF808F1A3
:100110002DE9F04F854D93B0AB68854C13F0080185
:1001200000F0868095F88A21042A00F28380DFE8B7
:1001300002F003030550750023787CE060787C4A68
:10014000002877D000209F05507002D5137E1E072F
:1001500070D4E0780023A27800F00706A383754BE3
:1001600042EA06221A60227902F03F06760146EA48
:10017000D00058606079800040EA9210A27902F0C5
:10018000010640EA86209860E07900F00F06F6014B
:1001900046EA5202DA60227A02F07F06360146EA27
:1001A00010101861607A400040EAD212A07A00F084
:1001B000030642EA46225A61E27A02F01F06B601BD
:1001C00046EA90009861207BC00040EA5212DA6152
:1001D0002CE0A27F564B6AB393F82000002201283E
:1001E0009A7727D19A8393F83420082A84BF08226B
:1001F00083F8342094F834004F4A0023DEB286425C
:1002000002F1020212D212F8016C12F8027C46EAE4
:1002100007274A4E46F823700133EFE794F8583029
:10022000434A00203BB1908382F85800012302E04A
:100230000B4600E00023424AE06D1268101A0028C5
:1002400002DA002B00F0C38402F59C422032E26502
:10025000DFF800A1DFF80091002939D1394E884636
:100260000F46DAF80030F8B29847A0F2EE2292B2C8
:1002700040F2DC539A42D4F8A020334B88BFB5F843
:100280008E011340002B03DA013B63F003030133BB
:10029000274903EB870301EB4303A3F86000318890
:1002A000738801370B44B188082F0B44F18806F19D
:1002B00008060B441BB24FF0040193FBF1F329F83D
:1002C000083008F10208CCD10132C4F8A02009E0BE
:1002D0000026F0B2DAF80030984729F81600013607
:1002E000082EF6D1AB68580404D594F8A4300BB9A5
:1002F0000BF07CFB95F897210C4B7AB3033239F95C
:100300001200A0F57A70B0F57A7FA8BF4FF47A702A
:1003100020EAE0700CF024F90C490CF029FA0C49A1
:100320000CF072F90CF05CFB2DE000BFBC19002052
:1003300000010020140800202201002038010020C4
:10034000A41F0020600100200300008000007A4408
:1003500000C07F440C080020E807002093F89801B3
:1003600090B1B44AD179B44A32F81100B3F89C2163
:1003700080B2801AB3F89A31C0EB802090FBF3F082
:1003800000B280F30A0080B2AB68AC4A13F4024FAB
:10039000A4F8BC006AD0AA4EB2F91C0096F8CE3080
:1003A00003EB8301884241DDA64991F801E00F4645
:1003B000BEF1000F3AD0A449B1F88E11A9F800108F
:1003C000A9F80210A9F80410B6F8D010A9F8061080
:1003D0009E4991F800E08846BEF1030F08D99C4978
:1003E000C2F8C010032188F800100021A2F8C41040
:1003F00096F8CF20134403EB8303984211DDBF7CB2
:100400007FB90BF0F3FA8F4B1F7098F80030042B74
:1004100007D9904B0422C4F8C0308C4BA4F8C470A8
:100420001A70B4F8C6300133A4F8C63096F8CE304E
:10043000B4F91C2003EB83039A42804F13DDDFF8ED
:10044000048298F8016076B90BF0D0FA7F4B88F8F7
:1004500000601A78042A06D97E4AA7F8C460C7F853
:10046000C02004221A70A38B0133A3830022B5F8A5
:100470009011B5F89261134639F902009B08884241
:10048000C4BF63F07F03DBB20232B042B8BF43F0B7
:100490004003082AF0D194F8C800684A984205D170
:1004A00092F8C900F92804D8013000E0002082F851
:1004B000C90084F8C830AB68634A13F4804A604FBF
:1004C000B9F906300AD0B2F88E11B2F84C21881A68
:1004D000834206DD0A44934206DB02E08B4203DBE3
:1004E00018E04FF0000A15E00023C4F82834C4F8DF
:1004F0002C34C4F83034C4F8D430C4F8D830B7F849
:1005000046302BB14D4B93F8A430002B42F028819C
:100510004FF0010AB7F8463073B194F8A4305BB9D4
:10052000484B5B7843B195F8953113B10BF05EFA07
:1005300002E0BAF1000FF9D194F8C9203F4B142A18
:1005400040F0C7803F4E7178D1B1B7F846202AB944
:1005500093F8C8305F2B01D10BF048FA95F894312D
:10056000002B00F0B680B7F84630002B40F0B18089
:1005700094F8C8307D2B40F0AC800BF037FAA8E03F
:1005800093F8C820572A15D1334B4FF47A721A804A
:10059000AB68D90501D50AF01FF8304B1B685A0724
:1005A00002D52F4A0A21118013F0080337D1A4F88D
:1005B000CA3034E0A868400728D55A2A26D193F8D3
:1005C000CC0028B1012283F8CC1083F8CD2026E09E
:1005D00093F8CE101D4A81F0010183F8CE1051B17D
:1005E00011780A291BD91F49A3F8C400C3F8C01009
:1005F0000A21117013E010780B2810D91A48A3F8BB
:10060000C410C3F8C0000B20107008E05D2A02F08F
:10061000B0805B2A02F0AF805E2A02F0AE80B7F8AD
:1006200046301BBB94F8C8206F2A1FD106F0C8FCC7
:1006300031E000BF500500205805002000010020D7
:100640009C1E002075070020BC190020000000201F
:1006500070100108831001080C0D0020880500208F
:100660000E0D0020861001088B10010895F89421CA
:1006700022B11BB994F8C8307E2BD7D094F8C8307B
:10068000972B04D1984B4FF4C8721A8003E0A72B24
:1006900004BF0123B37394F8C830BB2B02D1BB8DC8
:1006A000023303E0B72B03D1BB8D023BBB8509E0CE
:1006B000BE2B02D17B8D023303E0BD2B09D17B8D94
:1006C000023B7B850120014607F044FB002384F8B0
:1006D000C930A868420731D594F8CE20834B8AB13F
:1006E000834A527872B1834AB9F90610B2F8902160
:1006F000914207DD93F8A42022B93221A3F8D0104B
:1007000083F8CE2094F8B520784B62B193F8D220CC
:100710002AB993F8CC2012B93222A3F8D0200123B1
:1007200084F8D2300AE093F8CC203AB1704A52787B
:1007300022B983F8CC20012283F8CD206E4E01230C
:10074000002136F8022F03F1FF3CA2F2155EBEF540
:10075000C77F8CBF4FF0000E4FF0010E0EFA03FE64
:1007600012B24EEA010140F2135E7245CCBF4FF067
:10077000000E4FF0010E0EFA0CFE41EA0E0140F29F
:10078000A46E7245D4BF0022012203F1010E02FAC9
:100790000EF2033311430D2B89B2D2D1002307EBA4
:1007A000430EBEF846E0514A11EA0E0F0CBF4FF05F
:1007B000000E4FF0010E02F1A40603F806E001332B
:1007C000182BECD192F8A530494E4C4943B94C4B0B
:1007D000B2F91C2093F8CE3003EB83039A421BDD61
:1007E0000A68930718D5F37843B9C4F8D430C4F82D
:1007F000D8303F4B4FF0010E83F803E003040ED5D1
:1008000097F8CE30B4F91C0003EB8303984206DD61
:10081000900604D5012301E00023F370B37494F82B
:10082000A630324A5BB10023F370337943B9C2F882
:10083000D430C2F8D8302E4B01221A7100E0337147
:1008400094F8A4300BB901233370F2782D4B12B910
:10085000274A127912B110225A6101E010221A615E
:1008600009684A0725D594F8A720204B9AB1B0799A
:1008700090B91F4A4FF0010E82F806E0D3F8E0204D
:10088000C3F8F000C3F8DC20B3F8EC20C3F8F400A0
:10089000A3F8E42000E0B271AB689B0409D594F89A
:1008A000A8302BB1F37B23B9114B0122DA7300E09E
:1008B000F37311F00A0F30D094F8A9300B4A4BB102
:1008C000737943B90A4B01205871B2F8CA30A2F8C3
:1008D000F83000E0737194F8AA30ABB1737AA3B921
:1008E000034B01225A7210E0B41F002000010020C7
:1008F00075070020BC190020EE07002088050020A5
:100900009C1E0020000C0140737294F8AB20B64B83
:100910001AB1B3F8CA20A3F8FA2011F0200FDFF8BB
:10092000C88200F0D980F27AB04B002A00F0CF8064
:1009300094F8FC20042A40F2CA8098F8AE20DFF830
:10094000B4B20AB99A7CFAB1F279A84B002A40F005
:10095000AA80A7484FF0010C011D83F807C01A7246
:100960008BF801200293CDF810C008F051F9022253
:1009700084F80C21029BB4F81C21DDF810C0C4F8E7
:10098000182183F813C08EE0DA7198F8AF20002A9E
:1009900036D0B8F9E610B7F8E2200029B8BF4942CE
:1009A00091422DDAB8F9E8100029B8BF49429142C6
:1009B00026DA1A7A002A76D1D8F820114FF0010CE5
:1009C000C8F81011D8F8241108F58870C8F8141167
:1009D00008F58A7183F808C08BF80120039202930E
:1009E000CDF810C008F014F9DDF810C0B8F81C11EB
:1009F00088F80CC1039A029BC8F81811DA7452E007
:100A00009BF801100023337200294CD1794B01224D
:100A10005A708E46744B002203F594702EF8002015
:100A200003F597702EF8002003F599702EF800203A
:100A300003F59C7C002041F80C008C44CCF8042089
:100A4000CCF8080003F5B07C41F80C008C44CCF8DD
:100A50000420CCF808000EF1020E03F5C47C41F826
:100A60000C00BEF1040F8C44CCF80420CCF8080034
:100A700001F11401CED1317C11B90023F37412E0DD
:100A8000C3F8B001C3F8B401A3F8B821A3F8BA21A0
:100A9000A3F8BC215849002353520C31535202325F
:100AA0000A2AF7D1E9E79BF800300C2B14D994F807
:100AB000D6214D4B82B951490C20C3F8C0104D4985
:100AC000A3F8C4200870012183F8D61104E00023A4
:100AD000F371337284F80C3194F8B0302BB1B37CDD
:100AE0001BB9424B01229A7201E00023B3726B7969
:100AF00003F0EF02082A01D00E2B2AD1AA680021A8
:100B000090053A4B717224D597F8CE2006277A4388
:100B1000B4F91C0090421CDD0122DA70384A997247
:100B2000B2F88E118AB2A9F80020A9F80220A9F81B
:100B30000420344AB2F8D020A9F80620DA7A42B963
:100B4000294890F8FC00052803D89A742E4B3239B6
:100B50001980AA682A4BD20640F188837278002A4D
:100B600000F08483214A127C002A40F07F83BAF18E
:100B7000000F23D02549D8F8D82109684AB993F83D
:100B800076314FF47A7202FB0312174BC3F8D82167
:100B900006E08A4204D293F876310BB10AF026FFC0
:100BA000144B1A78092A40F26183194AC8F8C02008
:100BB00009221A700023A8F8C43057E3D8F8D831B6
:100BC000002B00F05383084BC3F8D8A14EE3064B2B
:100BD000D3F8DC31042B00F24983DFE813F01B006B
:100BE000A100AF0008032B030001002075070020BF
:100BF0000002002000000020BE0200209210010828
:100C0000BC1900209C1E0020E8070020B819002015
:100C1000831001080123C4F8DC31AF4BAF4E1B68D1
:100C20001F077DD5D6F8E031D31A002B78DBAC4B0B
:100C300002F5C332A0325B6806F5F270C6F8E02117
:100C40009847A84B06F5F2779A7B184692B1D6F8EA
:100C5000E0210023C6F8EC21E9180022A1F8702158
:100C60001646A149FA5A5A5206315A520233062BF5
:100C7000F2D186739D4B1B78A3B1B4F8E421B5F88B
:100C80007031D31AA4F8E431B4F8E621B5F8723122
:100C9000D31AA4F8E631B4F8E821B5F87431D31AC0
:100CA000A4F8E831D4F8EC318C4A002B00F0DE8255
:100CB000D2F8E0118E48CB1A834202F5FB7102F59F
:100CC000F87019D88B4BDA6882F00802DA600023DA
:100CD000FA5A30F903E016B2B645C4BFDFF808E2AD
:100CE00023F80E2031F903E0B645BCBF824E9A537B
:100CF0000233062BECD1B9E20023C2F8EC31C75E17
:100D0000CE5EEA183E4402273B4496FBF7F6062BDC
:100D1000A2F87061F3D10120014607F01BF8A5E2AB
:100D2000D4F8DC310133C4F8DC316B4B1B685E074F
:100D300004D509F033F9002840F09882D4F8DC316A
:100D4000664E0133C4F8DC31634B1B68580740F131
:100D50004E8209F083F8D6F8007246F2A713C71B3B
:100D60009F42B6F8FEA1B6F8FCB140F24082DFF82F
:100D7000A091C6F80002B9F80030DFF898817BB383
:100D800098F83100D6F80832D6F804220138B3FBBF
:100D9000F0F0082392FBF3F1521A1044C6F8040253
:100DA00090FBF3F00BF0DCFB54490BF0E1FC5449F1
:100DB0000EF05AF901464FF07E500BF01BFB5149E3
:100DC0000BF022FC0BF0E6FD0023C6F81032C6F84B
:100DD0001432B9F80030C6F80C02013BA9F8003013
:100DE00098F831000FFA8BFB0FFA8AFAD4F8083220
:100DF000BBF1000FB8BFCBF1000BBAF1000FB8BFC9
:100E0000CAF1000AD345A8BFDA460138B3FBF0F0B7
:100E10001FFA8AFACDF814A00BF09EFB37490BF0AD
:100E2000A7FC37490EF020F901464FF07E500BF039
:100E3000E1FA34490BF0E8FB0EF048F8D8F83460DA
:100E40008146D4F818020BF08BFB31460BF0DCFB2B
:100E50008046D4F80C02C0EB09000BF081FB314650
:100E600081464FF07E500BF0C5FA014648460BF024
:100E7000CBFB014640460BF0BFFA0EF027F80FFA05
:100E80008AF8B8F1FA0F83461F4E03DD4FF0FF33A7
:100E9000336014E030680BF063FB814640460BF092
:100EA0005FFB014619480BF0A5FA014648460BF0D6
:100EB000ABFB16490BF05CFC0BF06CFD3060366848
:100EC00006F1FF39B9F1C60F26D8C6EB0B03C4F8FB
:100ED0001C32C4F818624FE0880500200001002091
:100EE0000006002075070020F002002028060020E0
:100EF0007FC3C901000C0140F602002080E6C5470F
:100F0000B1DC423ED048874A3800002000006144EE
:100F10000E0D00209C1E0020D4F81C32002EC3EBC6
:100F20000B0BDFF8F4A2C4F818B225DDC6F59670F5
:100F30000BF016FBB3490BF01BFC8046CAF82002ED
:100F400030460BF00DFB41460BF05EFB0646584663
:100F50000BF006FB414683464FF07E500BF04AFAF9
:100F6000014658460BF050FB014630460BF044FA60
:100F70000BF010FDCAF81802A34B186802930BF08F
:100F8000EBFAA24906460BF03FFB8346D4F82C024D
:100F90000BF0E6FA8046D4F830020BF0E1FA014695
:100FA00040460BF0E5FB9A4A069011680BF02CFBCB
:100FB00031460BF029FB974A4FF07C51D2F83CA008
:100FC000D4F81082D4F81862079003920BF01CFB3F
:100FD00059460BF019FB594684464046CDF810C0DF
:100FE0000BF012FBDDF810C0014660460BF004FA6E
:100FF000D4F814120BF000FA51460BF005FB8346AF
:1010000030460BF0ADFA514684464FF07E50CDF895
:1010100010C00BF0EFF9DDF810C0014660460BF090
:10102000F3FA014658460BF0E7F9039A029BB9F12F
:10103000C60FC4F8140291469A4603D8764AC2F8FD
:10104000E06004E00BF0A6FC734BC3F8E0000799E6
:1010500040460BF0D1F90346D4F834024FF00008B3
:10106000CAF80080C4F82482C4F82882C4F82C820C
:10107000C4F83082301A02930BF072FA67490BF011
:10108000C3FA824638460BF067FA014650460BF029
:101090006FFB0BF07FFC40F2DC5261499042A8BF2D
:1010A00010468842B8BF08460A21C4F8346209F0E5
:1010B0000FF9029BD9F838608246314618460BF08A
:1010C000A3FA074650460BF04BFA314682464FF0E2
:1010D0007E500BF08FF9014650460BF095FA014611
:1010E00038460BF089F9C4F810020DF0EFFE052127
:1010F000064609F0EDF8059FDFF81CB13BB2B3F5E9
:10110000487FC4F838026BDA9BF83C320BBBDBF843
:10111000DC20DBF8E0304348D31AB3F5FA7FA8BFF0
:101120004FF4FA738342A8BF18460A2109F0D0F899
:10113000384B80221B79584390FBF2F3B3F5967F2E
:10114000A8BF4FF49673A2F5D6729342B8BF134668
:1011500001E0DBF8403299F80A209B1B5A4320211A
:1011600092FBF1F299F81400D4F8F01042F2040660
:1011700003FB00102C4BB2F5967FA8BF4FF496727C
:101180009842A8BF1846294B9842B8BF1846C4F8E1
:10119000F00090FBF6F0264EB242ACBF86188619DE
:1011A00099F81E000BF0DCF9D4F8441207460698B3
:1011B0000BF022F9014638460BF026FA4FF06C513D
:1011C0000BF022FA0BF0E6FB6FF095039628A8BF10
:1011D00096209842B8BF1846301AC4F8F40001E0CF
:1011E000CBF8F480DDF81890C4F844923EE0D4F8CF
:1011F000DC310133C4F8DC31AB68D9051AD502F013
:1012000017FA33E00000C842A81F0020BD3786351A
:101210001C0600209C1E00200001002000247449B0
:1012200024FAFFFF0CFEFFFF20031900E0FCE6FF9D
:10123000D4FEFFFF0023C4F8DC31804B1B68DA06C4
:1012400014D57F4B1A687F4B19683C318A420DD305
:101250001A607D4F7D4A7E4B7E4EC3F848223B8804
:101260000B20336108F014FE3B88736108F0F6FD33
:10127000794AAB89106016462BB1D4F84C12411A4A
:101280000029C1F28C821844C4F84C0204F012FF09
:1012900008F0E4FD714B30601A681860704B821AD8
:1012A000B3F906106F4B92B20592A4F85022DA8C73
:1012B00091420FDBB1F5FA6F93F8257007DA881ABF
:1012C0004743A2F5FA6297FBF2F7643703E0C7F1F0
:1012D000640700E0642795F95C2193F823C052422B
:1012E00092B2B5F88EA193F8766093F877E093F810
:1012F0002430089200220993CDF818A0CDF81CC024
:1013000013465748069C32F900B0C4EB0B0000F2BC
:10131000F31540F2E634A54203D80028B8BF404296
:1013200001E04FF4FA70022B2FD026B1B042CCBFAF
:10133000C6EB000000206424DFF8149190FBF4F861
:1013400009EB48056FF0630CB5F852520CFB080C22
:1013500009EB4808B8F954920FFA85F8C8EB090868
:1013600008FB0CF8DDF81CA098FBF4F8A84400FB7F
:101370000AF03D4D22F805803C4D90FBF5F52544E3
:10138000ADB27D4395FBF4F519E0BEF1000F04D03A
:101390007045CCBFCEEB00000020DDF820C0DDF8AA
:1013A000249000FB0CF40028B8BF4042284D00FBFD
:1013B00009F0A5F8EA402D4C90FBF4F56435DFF810
:1013C000A4802B4803EB080494F8019094F80BA038
:1013D00005FB09F905FB0AFA647D4FF0640C99FBE3
:1013E000FCF965439AFBFCFA03F8009000F103094D
:1013F00003F809A0DDF818A000F1060995FBFCF53B
:10140000D34503F809504446A0F5187904DA09F1E8
:10141000E600155A6D4215520133032B02F1020208
:101420007FF46FAF134AB2F89031994224DBB1F5E3
:10143000FA6FA8BF4FF4FA611FE000BF88050020D3
:10144000B8190020F80C0020EC0C00203800002017
:1014500000010020000C0140A41F0020080D002006
:10146000E80700209C1E0020E60100200CFEFFFF84
:1014700060030020BC1900201946C91A4FF47A7283
:101480005143C3F5FA63B1FBF3F3642693FBF6F221
:1014900009EB4201B1F86A026FF0630101FB02330C
:1014A00009EB4202B2F96C1202B28A1A534393FB5F
:1014B000F6F6AF4B30445B7AAE4DA9F8EC00002B4A
:1014C00044D0B5F9FA30B5F9CA00C01A0AF09EFC4A
:1014D000A5A3D3E900230AF0FFFC0022A64B0AF0E3
:1014E00025FE0AF033FF06460DF0BAFC07463046EB
:1014F0000DF02AFD0646B5F9E8000BF031F88046FC
:10150000B5F9E6000BF02CF8394682460BF07CF872
:101510003146834640460BF077F8014658460AF0BC
:1015200069FF0BF037FA3946A5F8E60040460BF0A4
:101530006BF83146074650460BF066F801463846D0
:101540000AF05AFF0BF026FAA5F8E8008B4ED6F801
:10155000088018F0020F00F09D80D9F88432DDF881
:1015600014B006229B4499F88832824D0133DBB2D5
:10157000B3FBF2FA02FB1A3A1AF0FF07C9F884B279
:1015800089F88832059766D17D4A7E4B5078D5F828
:101590008C1233F810E0082791FBF7F01FFA8EFE4B
:1015A000081A7044C5F88C0290FBF7F080B20392E1
:1015B00002930AF0D5FF74490BF026F873490BF03B
:1015C000D7F8824696F87D010AF0CAFF01465046D8
:1015D0000BF01AF80BF004FA96F88111A5F89002B6
:1015E000039A029B002936D05279D5F8941233F829
:1015F000122091FBF7F392B2CB1A1344C5F8943240
:1016000093FBF7F39BB240F6E441594340F6FF7277
:10161000B1FBF2F1B6F87A21B6F87831891A4FF4B5
:101620007A72514391FBF3F10BFB01FB2B469BFBC1
:10163000F2F2C5F89812F3E9A801801841EBE271C3
:10164000C3E90001524A00230BF0EAF9059EC5F8F0
:10165000A802C5F884624F4AB9F890121288454B27
:101660008A424D4A07D31178012913D94B49C3F84F
:10167000C01001210AE04A48008888420AD3117844
:10168000022907D94749C3F8C0100221117000226E
:10169000A3F8C42099F8B1303F4D8BB32B78082BB9
:1016A0002ED918F4807F23D0314BDB7A03B3314B32
:1016B00093F8FC0004281BD900233B4905225A5407
:1016C0000F26CA185670122B03F10206F2B204D08C
:1016D000B0EB520F3346F0D800E014224A446423A2
:1016E00082F8AD32FF2382F8AE32C9F8C01002E0B2
:1016F0002E4BC9F8C03008232B700023A9F8C43042
:101700002B780D2B1FD0D9F8C0201A4BDAB193F8E3
:10171000C202274980B90868D3F8C412814212D89E
:10172000012083F8C202B3F8C430D35C0BB108F0D7
:101730008EFB08F041F906E00868D3F8C412814234
:1017400001D80020EDE71B4B1B881BB11A4B1B680F
:101750009B0702D4194B1B88A3B3194BDA6882F09C
:101760000802DA603EE000BF182D4454FB21094016
:10177000750700200001002000806640BC19002091
:1017800050050020580500203333534000F07F45BA
:10179000407E05006205002000000020A110010825
:1017A00060050020A4100108AC030020A710010868
:1017B000B8190020B41F0020880500200C0D00205F
:1017C000000C01409C4B9A7812B19C4A082111618F
:1017D0005B7813B1994B08225A61994B1B780BB176
:1017E00005F0B4FE974EDFF87882B36813F0800FEF
:1017F00062D0D8F80030D9F8C822934F9A1A002A3C
:101800005ADB03F543435033C7F8C83297F8CC325C
:1018100093B97A238DF83030B7F9CA300222C3F178
:10182000B40393FBF2F38DF831306D200CABFF2144
:1018300009F096FE012324E0012B25D17923B7F985
:10184000FC218DF830300A2392FBF3F25A32B42A8D
:10185000A8BFB42222EAE2728DF83120B7F9FE2146
:101860006D2092FBF3F35A33B42BA8BFB42323EAC1
:10187000E3738DF83230FF210CAB032209F070FEC8
:10188000022387F8CC3217E0022B15D164238DF8A0
:10189000303001238DF83130674B6D205B78FF21AC
:1018A000002B18BF01238DF8323003220CAB09F056
:1018B00057FE002389F8CC32D8F80020D9F8D0326E
:1018C000D31A002B0FDB5C4B597B71B999705B4BC2
:1018D000D96881F00801D96002F5F4235A4A03F56A
:1018E0009073C2F8D03200270DE001229A70FAE717
:1018F00093F86C3313BB6B68DFF86881186809F0E4
:10190000C4FB08BB0137D9F870234F4B9742DFF86F
:10191000588175DA03F535724C2101FB07226A60A4
:1019200098F80020002AE3D005F056FE68E096F80B
:10193000C1348342DFD1454A454B1A600AF07CF836
:10194000444A454BDA60D6E7D8F80430186809F005
:1019500097FBD8F8043093F8492092B9B0F1240EDF
:10196000DEF1000252EB0E0283F84920002AC2D1B8
:10197000314B5B78002BBED12328D8D105F02CFE4B
:10198000B9E7012A04D14D2814BF0022022234E015
:10199000022A04D13C2814BF002203222DE0032A8E
:1019A0000BD140284FF0000227D883F847205A7106
:1019B00083F84800187104221FE0042A06D11A791E
:1019C00083F8460050401871052216E0052A92D18E
:1019D00093F8481093F847209142197907D941406C
:1019E0001971511C83F847101344987183E78142A1
:1019F00001D100F0DDFE6B68002283F849207AE710
:101A000098F800303BB1154B1A681E4612F0200FB3
:101A100040F069817EE1B2680A4B1105F3D5084AAE
:101A20001278002AEFD093F8AF2132BB93F8B0318F
:101A3000E3B9014B5B781BE075070020000C014007
:101A4000040D0020BC19002000010020EFBEADDE17
:101A5000F04F00200400FA0500ED00E088050020AA
:101A6000A41F002000000020AC1F002099F8B8300F
:101A7000003318BF0123002BC5D096F8AE31002BE0
:101A800057D1C24BD86809F000FB002851D1C04B98
:101A9000D9F874131A68BF4B511A7C2949D9C3F875
:101AA000742393F878230746013283F8782307F1EB
:101AB0002400DFF8E082C0B209F08EFB08F27A332E
:101AC00033F917000AF04CFDB34B824618880AF030
:101AD00047FD014650460AF04BFEB0490AF094FD1E
:101AE0000AF058FF013700B209F0A2FB032FDED144
:101AF000302009F071FBB8F9380209F099FB09F0C0
:101B000079FB98F8780310F0030710D109F09BFBDC
:101B1000142009F061FBB8F9CA0009F089FB1C2008
:101B200009F05AFB384609F083FB09F063FB03F028
:101B3000D1FA96F8AE31012B7FF465AF934EF06881
:101B400009F0A3FA00283FF45EAFF06809F098FAB4
:101B50000746052008F0A7F98A2F2FD08E2FEDD148
:101B600000212E228E480CF010FF7C2389F8B2331E
:101B7000E02389F8B5337D2389F8DE33B9F8903254
:101B800089F8B373DAB21B0A89F8D13389F8C733FD
:101B9000142389F8CA3389F8CB334FF4FA73A9F8C0
:101BA000CC334823A9F8D433782389F8D02389F893
:101BB000C62389F8D6337A482E2191E0794B1B68E9
:101BC0009A06BBD5734E002106F560702C220CF0EE
:101BD000DCFE7C2389F88033A02389F883337D23BE
:101BE00089F8AB3399F8FC3089F8817389F89A3316
:101BF0006D4BDB7A002B6ED0D6F820716B4ADFF884
:101C0000C88197FBF2F06623C0B286F8A933FB0FB8
:101C100008FB00774FF0060E0EFB07F786F88933B6
:101C200042F21073B7FBF3F100EB800003FB117776
:101C300000EB8000C9B201EB8000D6F8241180B21D
:101C400091FBF2F2D2B286F88A03000A86F88B037F
:101C5000C80F08FB02110EFB01F186F88E0302EBA0
:101C60008202B1FBF3F003FB101302EB8202C0B25D
:101C700000EB820292B286F88F23120A86F8902334
:101C800086F89133B6F8AC231B0A86F892336423A6
:101C9000B2FBF3F303EBC3039B009BB286F88733DD
:101CA0001B0A86F88833B6F8AE3386F88C7386F84C
:101CB00093331B0A86F89433B6F81C313F0A86F832
:101CC00095331B0A86F89633B6F8B03386F88D73D1
:101CD00086F89C3302E0202386F8A93334482C216F
:101CE00007F024F92AE7334BD9F8E0131B68294A97
:101CF000591A00290EDB92F8FC1004290AD903F5C1
:101D0000123303F5F873C2F8E0332B4BDA6882F034
:101D10001002DA60294B9B680BB12948984731685B
:101D20000B0757D5B9F8EA201A4E02F145039BB2CA
:101D30008A2B4BD81C4B58791F46002846D0B6F842
:101D4000F830B6F8CA00C01A80B283B21EB2B336F9
:101D5000BCBF00F5B4739BB218B2B3287E7B1948A0
:101D6000C4BFA3F5B4739BB290F85C0196B340B2C4
:101D700040424343607A1BB243436FF01D0093FB24
:101D8000F0F31A44A9F8EA2024E000BF2C06002052
:101D9000B8190020000100202400002000007A442F
:101DA000B20400208805002075070020A0860100ED
:101DB00080040020A41F0020000C01408C0500209E
:101DC000E4040020BC1900206079FEFFB9F8CA3095
:101DD000A9F8F8304F077BD5B64B9A79002A77D00F
:101DE0001E7C002E69D194F8790094F87820B24BCB
:101DF00088B3B9F8ECE0B9F9E4000FFA8EF7C0EB5C
:101E00000708B8F1000FB8BFC8F1000890450FDD12
:101E10008742C8BF52421FFA8EFEC8BF92B2C3F8B3
:101E2000F0607244012683F8E663A9F8EC204FE0E5
:101E300093F8E6232AB1D3F8E02083F8E663C3F8E9
:101E4000DC20D9F8F4309D4A1844B2F84031B2F899
:101E50004221984229E0B9F9E470B9F9EC60F61B27
:101E600086EAE67EAEEBE67E96450ADD022296FB2A
:101E7000F2F60122C3F8406283F83C2283F8E6239D
:101E80000AE093F8E6233AB1D3F8E06083F83C0225
:101E9000C3F8DC6083F8E6038848D9F8F420B0F88A
:101EA00040313A44B0F842019A4203DB8242B4BF67
:101EB00013460346A9F8EC300AE0804BB9F8E82055
:101EC00093F99601D9F8F43000FB0323A9F8E83020
:101ED00094F87C305BB1774BDA780AB91B7933B16F
:101EE000B9F8EC30B9F8E8231344A9F8EC308E06C1
:101EF00040F1C4806F4BDA791AB91A7A002A00F0DF
:101F0000B6801B7B002B00F0B280B9F9CA000AF042
:101F100027FB6B490AF078FB07460DF015F8804661
:101F200038460CF09DFF634B634E1B7C0746002B2D
:101F300040F09A8094F8DBA0B6F93401BAF1000FB2
:101F40005FD0B6F83031CAF100061FFA83FB1BB22E
:101F5000C01A08F069FBB04203DB5045A8BF5046E9
:101F600000E03046B9F82E218344B9F9320193B22A
:101F700012B21FFA8BFB801AA9F830B1029308F055
:101F800053FBB042029B03DB5045B4BF06465646A6
:101F90001E444948B6B2A0F82E610FFA8BF00AF041
:101FA000DFFA824630B20AF0DBFA3946064650467E
:101FB0000AF02AFB4146834630460AF025FB0146DB
:101FC00058460AF017FA3F490AF0D2FB0AF0E2FC41
:101FD0003949A1F82801414650460AF015FB394617
:101FE000804630460AF010FB014640460AF004FAEB
:101FF00034490AF0BDFB0AF0CDFC2F4AA2F82A01B1
:102000003CE00AF0ADFA8346B6F932010AF0A8FACC
:102010003946824658460AF0F7FA4146034650468A
:1020200002930AF0F1FA029B014618460AF0E2F91F
:1020300024490AF09DFB0AF0ADFC4146A6F82801B0
:1020400058460AF0E1FA3946804650460AF0DCFA72
:10205000014640460AF0D0F91A490AF089FB0AF015
:1020600099FCA6F82A0109E004F0BCFC06E0002374
:10207000A9F82831A9F82A31A9F82C31AB6898477A
:10208000114B93F800B0BBF1030F1FD9B9F9EA1057
:10209000B9F9EE230029B8BF49426FF063035B1A18
:1020A0009A4204DB01F164039342A8BF1346A9F8E6
:1020B000EE3314E07507002000010020BC19002059
:1020C00035FA8E3C00002041801E0020BBF1010F3C
:1020D00005D8C049C04B0A7C002A4FD161E094F971
:1020E000D4A0B9F9EE23CAF1000A02FB0AFAB9F842
:1020F000EC30B9F8EC73B9F8EA83B84D00265E45C8
:1021000005F11005E5D218B202930AF029FA55F844
:10211000101C0AF079FA024638B203920AF020FA4B
:1021200055F8081C0AF070FA039A014610460AF0A6
:1021300063F902460FFA88F003920AF011FA55F893
:102140000C1C0AF061FA039A014610460AF054F991
:102150000246504603920AF003FA55F8041C0AF0AE
:1021600053FA039A014610460AF046F90AF012FCA7
:102170009B4A029B22F816000136C0E74A7898482D
:1021800012B9B3F844210BE0B9F9EC50B3F840218F
:10219000B3F84261954203DBAE42B4BF32462A46F1
:1021A00002805A79013AD2B2172A00F23F81012304
:1021B00003FA02F28B4B134053BBD00640F1368139
:1021C00094F98430B9F9FE0187495843322390FBD2
:1021D000F3F0B4F8823080B21AB2112ADCBF834B1C
:1021E00033F8123003440B80B9F9FC0194F98E30B6
:1021F0005843322390FBF3F0B4F88C3080B21AB21B
:10220000112ADCBF794B33F8123003444B800DE1C7
:102210008B7A53B1B9F8E630ADF83030B9F8E83020
:10222000ADF83230B9F8EA3009E0B9F8EA33ADF880
:102230003030B9F8EC33ADF83230B9F8EE33ADF8F0
:102240003430674B1B88ADF83630634BB3F88E21C2
:10225000664B1989511AADF838105989511AADF8E1
:102260003A109989511AADF83C10D989511AADF834
:102270003E101988511AADF840105988511AADF81E
:1022800042109988511AADF84410D988521AADF805
:102290004620002202EB82012144B1F8821008B2EC
:1022A0001128D8BF33F810104F4811520232102AAB
:1022B000F0D14F4B00211B785B0006930B46DDF8F5
:1022C00018C0634500F0A1804A4D4A19907928B1A1
:1022D000484490F8B800002800F09280685C0A2515
:1022E00005FB0045B5F880707835ED8892F904B0AB
:1022F0007F1BBFB207FB0BFB64259BFBF5FB92F832
:1023000001A055794FEA570C92F80380CCEB0B0BE8
:1023100005951FFA8BFB384D4FEA4A0E12AEB8F105
:10232000000F03D1764436F8186C0CE0B6443EF941
:1023300018ECEE5E764508DAB044B04503DBC645DE
:10234000B4BF76464646EE520AE009DDC8EB060801
:10235000F04503DBB045B4BFC646B64625F803E0FA
:10236000DFF898E04FF00A0808FB00EEBEF886E0C0
:10237000DFF884804EFA0AFA33F9088092F90220D5
:102380001AF0010F02FB08F24FF06408164D92FBA1
:10239000F8F20FFA8BFB0CBF4FF0010E4FF0FF3E2F
:1023A0005A4535F810601FFA8EFE0EDBDDF814A0DA
:1023B0004FFA8AFB07FB0BFB9BFBF8FBCCEB0B0BF1
:1023C0000FFA8BFB9345A8BF93460BFB0E6B25F8CA
:1023D00010B017E075070020BC190020440600204B
:1023E000821E00208920980080000020E80700203D
:1023F0000407002005070020F00400209C1E002098
:10240000A24A98520233073159E7A14A0023A14951
:10241000B2F90200194491F984100A33414364204F
:1024200091FBF0F1502B22F8021FF0D19A4CA368D7
:1024300013F0200F974B3ED0B3F88220B3F88C50A6
:1024400011B21129D8BF954A9548D8BF32F811204A
:1024500029B21129D8BF914D0280D8BF35F811504B
:10246000DFF85482458099F8AC008D492E4610B3B0
:1024700093F8D60093F98E5010F0020FB8F9FC7162
:102480004FF0320093F984E0B8F9FEC118D07D43D3
:10249000CEF1000E0CFB0EFC95FBF0F56FF0310752
:1024A000ADB29CFBF7F72F449CFBF0FC3A4465442B
:1024B0000A802E444E80764A764902F1100610E0DA
:1024C0000CFB0EFE7D439EFBF0FE724495FBF0F08C
:1024D0000A800644EEE722F8020FB24201F10A0137
:1024E0000CD0B2F90250B1F97E00B1F8807085428B
:1024F000F1DB38B2A842A8BF2846ECE793F8D63003
:10250000590706D4674B684A93F800901188012355
:102510000FE0664B0025DE7D043E604BA81903EBFF
:102520004503C0B21989013508F08CF9042DF4D1A6
:10253000E8E74B4508D232F9130009B28842A8BF38
:10254000014689B20133F4E7B4F84201B4F84661B8
:10255000431A1FFA83FAA368B4F8445103F4804283
:102560000A924E4A03F01003B2F906200B93504B27
:102570000596B4F840610192B4F88EB15A78B4F877
:1025800048E1B4F89041B7B21FFA85FC069407976A
:102590005C7CCDF820C009924FEA490900234B45E5
:1025A0004CD00AB28242DFF800C104DD3CF80320BF
:1025B00052442CF803200A9F3B4AC7B1DDF804C0FF
:1025C000DC4532F903C007DDF44503DB8445A8BFD1
:1025D000844609E0F44607E0AC4504DB059FBC45B2
:1025E000A8BFBC4600E0AC4622F803C01CE03CF9A2
:1025F0000380B04503DB8045A8BF804600E0B046BD
:1026000002EB030C22F80380069F019ABA420ADA11
:102610000B9A1AB9079FACF8007005E0089A0124DC
:10262000ACF8002000E00024099F2FB9214A33F8BC
:1026300002C01D4A23F802C00233B0E71B4A1C4BFC
:10264000917D5C741A46002900F08780124D6B79E9
:10265000013B172B75D8DFE803F00C7474317774E5
:10266000743974747474744174747474743141740E
:102670007451084B93F8D5301BB1094B0020598990
:1026800069E050780028F8D1014664E0F0040020A9
:102690007E0000209C1E0020BC190020E8070020BE
:1026A00080000020801E0020821E00202C060020BA
:1026B000750700201005002000010020394C002083
:1026C000218908F0BFF80120618944E0354C0020E1
:1026D000E18808F0B7F8012021893CE0314C002066
:1026E000E18808F0AFF80120218908F0ABF802205A
:1026F000618908F0A7F80320A1892CE0294C00206B
:10270000E18808F09FF80120218908F09BF8022059
:10271000618908F097F80320A18908F093F8AB6865
:10272000DA071AD50420218808F08CF80520618882
:1027300008F088F80620A18808F084F80720E189CD
:1027400009E0AB689B0608D5164C0020218808F0EC
:1027500079F86188012008F075F807F069FC1EE03F
:10276000114B1B78002B3DF4D3AE04F029FCFDF790
:10277000CFBE012202E0022200E003225FFA82F8CB
:10278000002008F1FF33014685F8C03405F0E2FA75
:1027900002202821424608F0BFFDFDF740BF13B0DC
:1027A000BDE8F08F8000002075070020AFF30080A7
:1027B0002DE9F347B84D2B6893F84630752B00F0A0
:1027C000DF8400F2EF80692B00F0388400F2A280F1
:1027D000452B00F00C871CD8422B00F0CB860BD881
:1027E000402B00F0EA86412B40F01387002008F0D0
:1027F00083FC002400F0EFBE432B00F09586442BB1
:1028000040F00787002008F077FC0122A34B00F07E
:10281000ECBE662B00F05C8271D8642B00F0338232
:10282000652B40F0F6860B2008F066FC9C4BB3F954
:10283000000008F064FC9B4B588800B208F05FFC75
:10284000994B1B68C3F3C000C3F38002800040EAC9
:102850004200C3F340021043C3F3401240EAC200F7
:1028600003F01003184308F04AFC904A0020147942
:10287000D378A40044EA430453781C43937944EA90
:10288000C304537944EA4314537A44EA8314884BCB
:10289000D97944EAC114197A44EA0124597A44EAFC
:1028A0004124D17944EA8124117A927A44EAC124FC
:1028B00044EA02345A7B44EA42349A7B44EA823442
:1028C0001A7C44EA02441A7944EA02145A7C44EA23
:1028D00042449A7C44EA8244DA7C44EAC2441A7D47
:1028E00044EA02545A7D44EA42549A7DDB7D44EA2C
:1028F000825444EAC3546F4B19780346D3E1672BE3
:1029000000F02082682B40F08486102008F0F4FB51
:1029100000248BE36F2B00F0028424D86C2B00F092
:10292000B98318D86A2B00F095836B2B40F0718621
:10293000052008F0E1FB604BB3F9000008F0DFFB75
:102940005E4BB3F9000008F0DAFB564B187800F044
:10295000010000F009BD6D2B00F0AA836E2B00F082
:10296000B28300F056BE722B00F088840FD8702B13
:1029700000F0F383712B40F04C864E4E00243078EB
:10298000400000F0FE0008F0B7FB00F02DBC732BF8
:1029900000F0BA84742B40F03C864FF0000801240C
:1029A00000F03FBCCD2B00F0208500F29380A62BD9
:1029B00000F07B8525D8782B00F0D1810DD8762BBF
:1029C00000F0AD84772B40F024863A4C0026207826
:1029D00008F092FB274600F04BBCA02B00F03F858F
:1029E000A42B40F016862F4E0024307D3746800001
:1029F0000130C0B208F080FB307D08F050FB00F0E1
:102A00003CBDCA2B00F0FD8022D8C82B00F0E2802C
:102A1000C92B40F0FE8507F089FA244B284CD87268
:102A200007F084FA274B187007F094FA206007F03B
:102A300091FA606007F084FA234B188007F080FA5F
:102A4000224B1880174B1A7842F002021A70E7E006
:102A5000CB2B00F0BD80CC2B40F0DB8507F066FA75
:102A60001B4CE07707F062FA84F8200007F05EFA6A
:102A700084F8230007F05AFA84F8240007F056FA85
:102A800084F8250007F052FA84F8210007F04EFA86
:102A900084F82200C4E000BF040000206C04002081
:102AA00050030020100D002088050020750700202D
:102AB000A40100201C150020AE040020B00400205A
:102AC00020020020FC0100201C020020AC04002099
:102AD0009C1E0020D32B00F0D18058D8D02B00F0C2
:102AE0007B844DD8CE2B00F08A84CF2B40F091858B
:102AF00007F026FA6FF4AF614318C64CC62B98BF97
:102B0000A4F88E0107F01CFAA4F8400107F018FAA7
:102B1000A4F8420107F014FAA4F8440107F010FAEF
:102B2000BD4EA6F8D00007F001FA84F89E0107F028
:102B3000FDF984F89F0107F0F9F984F8A00107F086
:102B4000F5F984F87C0107F0F1F984F8970107F0B2
:102B5000EDF907F0F5F900EB80004000308507F053
:102B6000E5F984F87D0107F0E1F984F87F0107F0C9
:102B7000DDF984F87E0107F0D9F984F880014FE08F
:102B8000D12B00F0F483D22B66D000F042BDEF2BA6
:102B90002FD008D8D42B00F07681D62B08BF002484
:102BA00052D000F036BDFA2B00F03184FE2B00F03D
:102BB0003984F02B40F02D85974C042008F09CFAC6
:102BC000B4F92C0008F09BFAB4F92A0000F0F2BC2A
:102BD00000242AE0002407F0B3F9904B1853023484
:102BE000102CF8D1002008F087FA01228C4B00F05D
:102BF000FCBC07F0A5F9884CA08507F0A1F9608519
:102C00000EE0884C04F10A0607F090F90134607078
:102C100007F08CF9E07207F089F9B4426075F3D1DE
:102C2000002008F069FA00F0F8BC7F4B1B789C424A
:102C3000F6D27E4BE65C07F083F9774B013403EB69
:102C40004606A6F84600F0E707F07AF9784B1853E5
:102C50000234102CF8D1E3E7764B5C78002CDFD1FE
:102C600007F064F96B4B022898BF83F8C0044FF05B
:102C7000000088BF83F8C0440146CFE307F060F945
:102C80006D4B1880CCE7072008F036FAE72008F0F3
:102C900006FA604B587908F002FA002008F0FFF9B4
:102CA000664800F0B3BC8B420CD2604A9E5C0122A5
:102CB00002FA06F6264218BF9A4003F1010318BF34
:102CC0001043F0E708F025FA524B93F8C0044BE3A9
:102CD000122008F011FA5A4B5A4C1B88B3F5806F3A
:102CE00023D90026A05F082390FBF3F0023608F0FA
:102CF00006FA062EF6D1544CB4F9040008F0FFF998
:102D0000B4F9060008F0FBF9B4F908004F4C08F0DC
:102D1000F6F9B4F9000008F0F2F9B4F9020008F08D
:102D2000EEF9B4F9040000F045BCB4F9000008F075
:102D3000E6F9B4F9020008F0E2F9B4F9040008F089
:102D4000DEF9D8E7102008F0D7F90024404B185DD1
:102D5000013408F0A4F9102CF8D100F05EBC382042
:102D600008F0CAF92C4C0026B4F97E0008F0C7F927
:102D7000B4F9800008F0C3F9B4F9820008F0BFF993
:102D8000244B94F884005B79082B18D004D8012BCD
:102D90000DD0042B05D06DE0142B1ED0152B2ED09A
:102DA00068E0F3B2042B2FD0052B2DD062E0F3B2F4
:102DB000052B5FD1B4F8863013F0040F1BE0F3B29B
:102DC000032B01D0042B55D1B4F886309A0748BFA5
:102DD00040F0010013F0010F49E0F3B2042B04D1DD
:102DE000B4F8863013F0020F05E0052B42D1B4F899
:102DF000863013F0010F3DD040F001003AE0F3B20D
:102E0000032B01D0042B25D1B4F8863013F0020F28
:102E100028E000BFBC1900209C1E0020E80700200D
:102E2000580100209B1E00201C15002004150020C6
:102E30001005002075070020F80100200C0000C0DC
:102E4000240000207A040020100D0020E40200205D
:102E500080000020052B01D0062B0BD1B4F8863062
:102E600013F0010F18BF40F0010013F0040F18BF5A
:102E700040F00200013608F012F9082E04F10A04AD
:102E80007FF472AFC9E3002008F036F9DFF84C9305
:102E9000002607F055F8A9F87E0007F051F8A9F8C8
:102EA000800007F04DF8A9F8820007F03FF820F005
:102EB000030389F88430B84B04465F79082F78D033
:102EC00029D8012F71D0042F40F0A9804FF0010ABA
:102ED0005FFA86F85346CDF800A0404621463A46B0
:102EE00007F041F85346CDF800A040464FF0020AE3
:102EF0002146052207F037F8404621463A46534618
:102F0000CDF800A007F02FF8CDF800A040462146EC
:102F10000522534681E0142F6FD0152F7FD1F7B2D1
:102F20004FF001084346CDF8008038462146032281
:102F300007F019F84FF0000A4346CDF800803846F4
:102F40002146042207F00FF8434638462146052261
:102F5000CDF800A007F007F8434638464FF00208C6
:102F600021460622CDF800A006F0FDFF3846214696
:102F700003224346CDF8008006F0F5FF384621468F
:102F800004224346CDF8008006F0EDFF3846214686
:102F900005224346CDF8008006F0E5FFCDF800801D
:102FA000384621460622434637E002230093F0B21A
:102FB00030E04FF00108F7B24346CDF800803846C4
:102FC0002146032206F0CFFF4346CDF80080384665
:102FD000214604224FF0000806F0C5FF384621467E
:102FE00003220223CDF8008006F0BDFFCDF800805B
:102FF00038462146042202230FE05FFA86F80127B3
:1030000040463B4600972146042206F0ACFF0023D1
:1030100000934046214605223B4606F0A4FF0136B8
:10302000082E09F10A097FF434AFF6E25B4B185D14
:10303000013408F034F8102CF8D1EEE2102008F03A
:103040005BF80024564B185F023408F058F8102C37
:10305000F8D1E2E2102008F04FF8524B524CD87AE7
:1030600008F01DF8514B187808F019F8206808F09E
:1030700050F8606808F04DF84D4BB3F9000008F0C7
:103080003EF84C4BB3F9000008F039F84A4BB3F95D
:103090000A008FE2494C062008F02EF8B4F900002F
:1030A00008F02DF8B4F9020008F029F8444B07E0C5
:1030B000062008F021F8434B186808F02AF8424B24
:1030C000B3F9000076E2072008F016F83F4B4FF600
:1030D000FF741888FF28A8BFFF20C0B207F0DFFFE9
:1030E0003B4B1868A042A8BF204620EAE07000B21F
:1030F00008F005F8374BB3F9000008F000F8264B4C
:1031000093F87C21344B18680028B8BF40420AB1BC
:103110000A235843A042A8BF204600B24AE22F4CDF
:10312000072007F0E9FFE07F07F0B9FF94F82000DF
:1031300007F0B5FF94F8230007F0B1FF94F82400DE
:1031400007F0ADFF94F8250007F0A9FF94F82100DF
:1031500007F0A5FF94F8220006E11E2007F0CCFF3F
:103160001F4C04F10A060134607807F098FFE07AFA
:1031700007F095FF607D07F092FFB442F3D14CE277
:103180002F2007F0B9FF174C14F8010F002800F0AA
:10319000448207F084FFF7E7BC190020821E00205C
:1031A000E80700207507002020020020FC01002015
:1031B0001C020020AC040020100D0020FC020020A6
:1031C000CA010020E0010020380300209003002005
:1031D000A8030020BC010020980300209C1E0020B2
:1031E0009B1E00203B19010833789C4280F0158219
:1031F000B64BE25CB64B013403EB4203B3F9460035
:1032000007F07DFFF0E780440136B24B1B789E4209
:1032100009DB002C00F001825FFA88F007F06CFFF8
:1032200000240026F1E7A94BAB4AF35C0C2101FB1B
:103230000323D3F8349048460BF0C9FB8246002C98
:10324000E1D127465745DFDA19F8070007F027FFD5
:103250000137F7E7A14B9D4A23441B7AB05C9842A3
:1032600001D107F01CFF0C34B4F5907FF2D1013688
:103270003B789E4280F0D1810024EBE7984C1620E9
:1032800007F03AFFB4F98E0107F039FFB4F94001B5
:1032900007F035FF8E4EB4F9420107F030FFB4F964
:1032A000440107F02CFFB6F9D00007F028FF94F88E
:1032B0009E0107F0F4FE94F89F0107F0F0FE94F8E9
:1032C000A00107F0ECFE94F87C0107F0E8FE94F80A
:1032D000970107F0E4FE002007F0E1FEB6F92800B0
:1032E0000A2390FBF3F007F00AFF94F87D0107F042
:1032F000D6FE94F87F0107F0D2FE94F87E0107F025
:10330000CEFE94F880012FE0082007F0F5FE01249E
:10331000E0B2013407F0C3FE092CF9D17DE106F0DB
:1033200005FE0746122007F0E7FE0FB96D4B02E0DD
:10333000102F03D16C4B1E685C6801E00024264608
:10334000384607F0ACFE304607F0E3FE204607F0B3
:10335000E0FE664B186807F0DCFE002007F0CFFEA9
:10336000002007F0CCFE002007F099FE55E106F0A2
:10337000DDFD804606F0EEFD074606F0EBFD064655
:1033800006F0E8FD044606F0DBFD06F0D9FD06F088
:10339000CDFDB8F1000F0DD1524B00225E601F60D1
:1033A000534BDA7101221A73002C3FF439AC4F4BA6
:1033B0001C6035E4B8F1100F7FF432AC4A4B1F604B
:1033C0005E600CB1494B1C6047484A4B0222011D0C
:1033D0001A7005F01DFC23E4454B5B78002B7FF44D
:1033E0001FAC012004F054FD1AE4414B5B78002B24
:1033F0007FF416AC404B4FF4C8721A8010E43C4B7B
:103400005A78002A7FF40CAC01229A7308E4384BF6
:103410005B78002B40F0FD800020012104F09AFC35
:10342000FFF7FEBB082007F067FE344B344A1B68E9
:103430000024B3FBF2F3C3EB431103EB81033149E7
:103440000968B1FBF2F2304902EBC3034B822F4B08
:10345000185F023407F053FE082CF8D1DDE00C2091
:1034600007F04AFE2A4B186807F053FE294B1868EC
:1034700007F04FFE284B1868C8E03B7D9C4280F067
:10348000CC80264E305D07F00AFE06F11003185D71
:1034900007F005FE06F12003185D303607F0FFFD4A
:1034A000305D07F0FCFD0134E7E7052007F024FE5E
:1034B0001B4B186810F0200003D0134BD86D9B6D88
:1034C000C01A07F026FE174BD87A4DE704150020E6
:1034D0009C1E00201C1500203C1901086C190108D5
:1034E000BC1900200002002010020020DC01002096
:1034F000750700200C020020B41F00200C000020E3
:1035000040420F0090000020100D00201C0D0020F4
:10351000E8F7FF1FECF7FF1FF0F7FF1F250D002056
:1035200088050020A4010020002007F0E5FD06F03A
:10353000FDFC3D4C0023A360607106F00BFD06F01E
:10354000EFFE06F0F3FC84F88A0106F0F9FCA4F81B
:10355000560106F0F5FCA4F8580106F0F1FCA4F8B9
:103560005A0106F0EDFCA4F8780106F0E9FCA4F895
:103570007A0152E02C4C102007F0BEFD607907F074
:103580008EFDA06807F0C5FD94F88A0107F087FD5D
:10359000B4F9560107F0B3FDB4F9580107F0AFFDD7
:1035A000B4F95A0107F0ABFDB4F9780107F0A7FDB3
:1035B000B4F97A0107F0A3FD2FE0082007F09CFD85
:1035C0000024194B234493F88201013407F067FD6E
:1035D000082CF6D121E006F0A9FC134B234401345A
:1035E000082C83F88201F6D117E01A7015E0132039
:1035F00007F082FD00240D4B185D013407F04FFDEC
:103600000B2CF8D1002007F084FD002007F081FD8D
:1036100003E00120002107F051FD2B68187902B06A
:10362000BDE8F04707F03BBDBC190020A729010801
:103630002DE9F04F954B95B09B68CBB9944D2B7805
:10364000013B042B00F24987DFE813F05A065A06C3
:103650005A0637071A07A06807F012FD8D4B05467A
:1036600093F89E31012B00F02D8108D3022B06D058
:10367000864CA06807F009FD0028ECD1DEE7242D78
:10368000854C0CD006D80A2D00F08C800D2D00F052
:103690008980E6E02A2D07D02C2D05D0E1E000231B
:1036A00023706370A370EDE06278267822440021D5
:1036B000794BD170EEB9DA789E74472A19D11A790C
:1036C000502A16D15A79472A07D19A79472A04D124
:1036D000DA79412A01D101229A7462796E4B522A19
:1036E00007D19A794D2A04D1DA79432A04BF0222FC
:1036F0009A74A37C684F012B02D0022B33D046E092
:10370000B31E072B43D8DFE803F0040810141C2471
:10371000422904F0C9FA606139E0E2785E4B532A2D
:1037200035D15A6952425A6131E004F0BDFAA061C4
:103730002DE0E278584B572A29D19A6952429A6172
:1037400025E0E278554B302A94BF00220122DA723C
:103750001DE0002004F088FA207718E0002004F033
:1037600083FAE08313E0072E06D0082E0FD1012044
:1037700004F07AFA78840AE0012004F075FA41F244
:10378000184358434FF47A72B0FBF2F33B8401368E
:1037900000232A2D404A267063706ED1012182F8E1
:1037A00024106FE094F82430002B55D03A4BDB788E
:1037B000402B04D9A3F137021201D2B202E01B015F
:1037C00003F0F0022379A178402B8CBF373B303BCC
:1037D000DBB21344DBB299422F4A3DD1937C012BDB
:1037E00002D0022B1FD037E02C49C87A08B9012338
:1037F00033E02B485569056095694560157F294878
:10380000D28B057028480280284800684507EED40E
:10381000097C0029EBD026498968521A64214A4361
:1038200024490A6019E0244B118C508C19801F4BDD
:10383000224E1B68308013F008070DD164290BD984
:103840000A25684306F0F0FE90FBF5F080B21C4BB1
:10385000B0FBF5F530801D800023002284F8242081
:1038600010E063780C4A0E2B03D8591C1344517096
:10387000DD7094F82430084A1BB991784D4095705A
:1038800000E0002303F0010389E100BF2C060020C3
:1038900034080020BC190020700D0020750700209E
:1038A00020020020FC0100201C02002088050020CE
:1038B00000020020E0010020AC0400201A0D0020CE
:1038C000CA010020A24C002294F82530082B00F2F7
:1038D0006581DFE803F00B05141C2D3D5A78850047
:1038E000622801D1022307E084F82520B52D40F09D
:1038F000558194F82530013384F825304EE10323B7
:1039000084F8253084F8260084F8270046E1042353
:1039100084F8253094F8263094F827200344DBB24D
:1039200084F82630134484F8273084F8280035E1E1
:10393000052384F8253094F8263094F82720034492
:10394000DBB284F82630134484F82730608525E103
:10395000062284F8252094F8262094F827100244A3
:10396000D2B284F826200A4484F82720628D784B4E
:1039700002EB0025ADB2C82D89BF00225D855A85B6
:1039800083F825200023A38509E194F8263094F8D4
:1039900027200344DBB284F82630134484F8273010
:1039A000A38DC72B03D86A4A1A4482F8300001332A
:1039B000628D9BB29A42A38540F0F080644B07224F
:1039C00083F82520EAE0082384F8253094F826308F
:1039D000834200F0E3805E4A002382F82530DEE077
:1039E00084F8252094F82720594B824240F0D68055
:1039F00093F82820062A50D004D8022A12D0032A8D
:103A000038D0CBE0122A5ED0302A40F0C78093F83D
:103A10003420504B102A88BF10221A7019784E4A51
:103A2000002372E04D4A596B93F8F8005160996B8E
:103A300011601A6C4FF47A7192FBF1F248490A80D6
:103A40004849C872012083F8F900474B1B685807A2
:103A500009D40B7C3BB1454B92B29B68D21A6423CC
:103A60005A43434B1A60434B5A681A60424A1268E1
:103A70005A605FE093F8352012F0010205D093F808
:103A80003430D91E4B424B4100E0134684F8F830E5
:103A9000002B4FD1334AD3724CE093F83B2012F005
:103AA000010205D093F83A30DA1E5342534100E048
:103AB000134684F8F8300BB92A4AD37294F85F2081
:103AC0002E4B1A7036E0B3F844202D4942F21070A4
:103AD0000A80996C2B4E91FBF0F0012183F8FA10CB
:103AE000214B30801B681B0724D4642A22D90A2565
:103AF00080B2684306F098FD90FBF5F080B2224B4F
:103B0000B0FBF5F530801D8014E08B4202F10C0211
:103B100010DA12F8045C1D481D5412F8035C1C48AE
:103B20001D5412F8015C1B481D5415781A481D5489
:103B30000133EAE794F8F920054B7AB393F8FA20B9
:103B400062B3002283F8F92083F8FA20012326E0EB
:103B5000700D0020240D0020A00D00202002002068
:103B60001C020020750700208805002000020020AC
:103B7000E0010020680D0020B8190020FC010020A1
:103B8000AC0400201A0D0020CA010020250D0020E1
:103B9000350D0020450D0020550D00200023002B81
:103BA0003FF466AD994B9A4D9A68DA602A689A603C
:103BB000984B1A6842F020021A60974B1A78012A33
:103BC0000CBF002201221A70944BDA7A002A3FF4CB
:103BD0004FAD934A1278042A7FF64AAD5A7812B94B
:103BE000197C01B91A731B7B13B90AB106F0F4FCF6
:103BF0008C4C4FF0050C94F8FB3004F1FA070133BC
:103C000093FBFCFC0CEB8C0CCCEB030C864B84F88C
:103C1000FBC01B780397049304F5807303EB8C0CB3
:103C200000238249DFF828925E58814A96FBF9F713
:103C3000069758180590069802F10807D8517D4F4D
:103C400042F2107807FB00679E5097FBF8F8039E3E
:103C50001FFA88F802F1100A26F8028F03EB830B93
:103C600053F80A0003965CF80B604CF80B70C6EB37
:103C7000000E0EEB0706069F4FF0050E43F80A6094
:103C800096FBFEF609FB076018329850049A0F461F
:103C9000012A06D1A8F10208B8F5797F9CBF059EDC
:103CA00030600433082BBCD15E4E2868D6F848310A
:103CB000C01A08F051FC604908F05AFD2B684FF01B
:103CC0007E51C6F84831804608F03CFE10B94FF0EE
:103CD0007E5000E0404610AAC6F84C01574B0092B7
:103CE00011AA019297E803000CCB06F014FC109A7D
:103CF0006423534992FBF3F211980A80DFF81C8188
:103D0000504A90FBF3F3138098F80C300BB90B80FA
:103D1000138096F85031434D002B3AD0D5F84C1112
:103D20004FF07E5008F024FDD5F8543181463868B4
:103D3000C01A08F015FC494608F066FC08F02AFE97
:103D4000D5F858211FFA80FA78680FFA8AFA801A93
:103D500008F006FC3C4B196808F056FC494608F090
:103D600053FC08F017FEB5F95E3100B2C218B5F980
:103D70005C310221534492FBF1F293FBF1F392B2D6
:103D80009BB2A5F86221A5F86031A5F85E21A5F8DF
:103D90005C31012386F850317968386898F808302A
:103DA000C6F85811C6F8540123B91C4BDB79002B17
:103DB0003FF45EAC254B009304330193D4F86421A7
:103DC000D4F8683106F0A7FB7B68D4F86801C01A04
:103DD00008F0C6FB1C4B196808F016FC08F0DAFD69
:103DE0003A68D4F86431C4F878019B1A98F8102026
:103DF000C4F874310C4B0AB102221A7093F90030E6
:103E0000012B27D0022B00F0F68031E4340800208B
:103E1000B819002088050020100D0020750700202B
:103E2000FC010020700D00200C0200202002002068
:103E3000980E0020806967FF00007A44000200208D
:103E4000AE040020B00400203C000020DC0E002066
:103E500080969800D4F87C71D4F89851D4F88C618D
:103E60000397D4F8907105F100400496069708F086
:103E700091FD8146284608F08DFDD4F84C81D4F898
:103E8000944107904046059407F0D2FF8E4B0446BC
:103E900093F8DA000D4608F05FFB07F0C9FF88A32E
:103EA000D3E9002308F018F802460B4600208749A2
:103EB00008F03CF92B46224607F05CFE02460B4612
:103EC0002046294608F032F9CDE90801804E002548
:103ED000804C54F81570A4F11403384635F803A04B
:103EE00008F03EFB039908F08FFB08F053FDCAEB86
:103EF000000080B22834285304B2204608F030FB7A
:103F0000049908F081FB08F045FD1FFA80FBE019D9
:103F100008F026FB069908F077FB414608F074FB91
:103F2000316808F069FA08F035FD484504DB079967
:103F30008842A8BF084600E0484608F011FB306000
:103F400008F028FDB46858441FFA80FB204607F0AB
:103F50006FFFCDE90A0170680AF1310A381A08F0DA
:103F6000FFFA414608F004FC214608F043FA07F046
:103F70005FFF02460B46DDE9080107F0ADFF024690
:103F80000B46DDE90A0107F0F5FD08F0DFF91FFA3D
:103F90008AFABAF1620F014630617760B0600ED9DB
:103FA000059808F031FB08F0F5FC4B4BB0F5FA6FC3
:103FB000A8BF4FF4FA609842B8BF184600E000204E
:103FC000834440F6B8330FFA8BFB9B45A8BF9B4652
:103FD000424B0A229B45B8BF9B466A43404B56F86A
:103FE000141B25F803B03F4B0235042DD1507FF44C
:103FF0006FAFFFF73DBB344AD6F86CA1B2F9E09041
:104000009AFBF3F39945A8BF9946B6F8A0511FFA59
:1040100089F90FFA89F22BB29A42334C0BDD3349FE
:10402000D4F84C0108F0F0FA08F0B4FC28441FFA68
:1040300080F9A4F8A091D6F87041D6F8A451651B78
:10404000284606F0F1FA0028D8BF404241F2931307
:104050009842CCBF0020012000284BD0284608F011
:104060007FFA234908F0D0FA0AF06EFF0546504661
:1040700008F076FA0146284608F0C6FA08F08AFCED
:1040800080B240F6B83203B29342A8BF1346134A37
:10409000A6F8A8019342ACBFE318A31848F6A042C3
:1040A000934203DDA3F50C43A03B04E0002BBCBF0F
:1040B00003F50C43A033C6F8AC311DE0AFF300802C
:1040C000182D4454FB2119409C1E00200000F03F95
:1040D00060020020E40E002030F8FFFF48F4FFFFEC
:1040E0003202002088020020700D00200000C8422B
:1040F000D3023739C6F8AC41D6F8AC71C7F50C50CD
:104100002830039708F02CFAAF4908F07DFA0446EE
:104110000AF0A6FE139020460AF016FFD6F8B071FA
:10412000D6F8BC410597D6F8B471129004F100405E
:10413000089708F02FFC0490204608F02BFCD6F8D6
:104140004CB1D6F8B8610A905846079607F070FE51
:104150009E4B044693F8DA000D4608F0FDF907F08F
:1041600067FE97A3D3E9002307F0B6FE02460B468D
:104170000020974907F0DAFF22462B4607F0FAFCA9
:1041800002460B462046294607F0D0FFCDE90C0138
:10419000904E00270FFA89F008F0E2F912AB53F8BD
:1041A000171008F031FA8C4C0546E05F08F0D8F99A
:1041B0000146284608F01EF908F0ECFB874B0FFA81
:1041C00080F8B8F57A7FA8BF4FF47A789845B8BFE1
:1041D00098461FFA88F03C34385300B208F0C0F912
:1041E0000599044608F010FA08F0D4FB80B2069056
:1041F0000899204608F008FA594608F005FA31688F
:1042000008F0FAF808F0C6FB0499884204DB0A9A21
:104210009042A8BF104600E0049808F0A1F9B468E5
:1042200005463060204607F003FECDE90E017068B8
:104230001436C0EB080008F093F9594608F098FAD4
:10424000214608F0D7F807F0F3FD02460B46DDE9FA
:104250000C0107F041FE02460B46DDE90E0107F0B6
:1042600089FC08F073F846F8108C014646F8040CF7
:1042700046F80C0C079808F0C7F908F08BFB069C71
:104280000444284608F086FB204440F6B83300B2C8
:104290009842A8BF1846524B0A229842B8BF184607
:1042A0007A43504BF852504B0237042FD5507FF4CD
:1042B00071AF464B93F8DC202AB1039E64214B4A30
:1042C00096FBF1F11180B3F8D830494C9A450EDDD8
:1042D000D4F8A431D4F87001C01A06F0A5F942F25E
:1042E00010730028B8BF404298427FF7C1A9414BE4
:1042F00001221A70B4F8C0213C4B1A80FFF7B8B9FC
:10430000DFF8048198F89E7117B1012F0AD0B4E04C
:104310006A78394B03EB0213384A5968906806F003
:10432000AAFEA7E0354EB068B14603681B699847FE
:10433000002800F0A2802B78314C022B66D0032B92
:104340006ED0012B40F099802E4B1E68636AF31AE1
:10435000632B40F29280E369042B2EDCD8F808200E
:10436000254C02F04802482A0ED0EB69D9F8080023
:1043700004EB0313596806F07EFE6B78D9F80870D9
:1043800004EB0314A4680CE098F88C21002AECD10B
:1043900004EB03135B68B3F5964FE6D90323EB6197
:1043A000E3E714F8011B19B1384606F073FEF8E78D
:1043B000EB696E620133EB615FE002205BE000BFFE
:1043C000182D4454FB211940D30237399C1E00207C
:1043D0000000F03F88020020D00E002018FCFFFFF4
:1043E00048F4FFFF3202002060020020F8010020A4
:1043F000700D00200C020020781201082C0600200D
:1044000034080020B8190020BC1900206278344B11
:10441000B06803EB0213596806F02DFE03202AE072
:104420002369012B0DD0022B24D033BB226A2D4BE4
:10443000276153F8321003EBC2035B686161A3612B
:104440001BE0E369A269934208DA6269B068D15C53
:1044500006F020FEE3690133E3610EE0226A2149A0
:104460000132226251F832200023E36102B90223B3
:10447000236102E0042005F0CDFA00236B602CE0FC
:104480006A68194B01326A60184A92F8A1214AB150
:104490005A7805210132D2B2B2FBF1F101EB810170
:1044A000521A5A70124B134A1B680120AB6000234A
:1044B0001370114A2B61D3720DE00D4B1A68AB6873
:1044C000D21A40F6C4139A4207D90C4B05201A6839
:1044D00022F020021A6005F09DFA15B0BDE8F08FB9
:1044E000781201087813010834080020BC19002054
:1044F000B8190020FC010020750700208805002065
:104500007FB5174C4FF4805506466561BB2006F019
:1045100085F968460021062205F0C0F825619DF85E
:1045200000209DF8013002A843EA0223ADF80830CC
:104530009DF802209DF80330314643EA0223ADF88E
:104540000A309DF804209DF8053043EA0223ADF8B7
:104550000C30044B1A7806F079FC04B070BD00BF33
:10456000000C01404000002010B5074806F0E8FDAF
:104570000024064B0648E218E15852680C3404F057
:1045800027F8CC2CF5D110BD7A2A0108A81B010808
:10459000902A01082A4B2DE9F04119684FF47A73EB
:1045A000B1FBF3F1274B28481A88284B284D1B787C
:1045B00004F00EF8274B284A1B68126855F82310A0
:1045C000264B274E2748B2FBF3F2376804F000F879
:1045D0000024E3B205EB8302116949B1012202FA1A
:1045E00003F33B4202D0204803F0F2FF0134F0E72E
:1045F00033689B0714D51D4C154B22781C4803EBE0
:104600008203196B03F0E4FF2378022B08D1194BC6
:1046100019481B7D002B0CBF6E216F2103F0D8FFC2
:10462000164806F08DFDBDE8F041154B15481A8877
:10463000154B92B2198840F2C44303F0C9BF00BFC2
:10464000B819002090030020982A010820000020BB
:10465000981A0108B01F00209000002040420F006F
:1046600088050020D62A0108FF2A0108B00500208D
:10467000032B01082C0600200D2B01081C34010817
:10468000120D0020112B010850030020F8B5074639
:104690000AF09DF9044650B9264B27485A79274B12
:1046A00003EB8203D96CBDE8F84003F091BF3846B4
:1046B000234922460AF094F960B9224806F040FDE9
:1046C000214C54F8041F19B1204803F081FFF8E78A
:1046D0001F4805E000251F4B53F8256026B91E48EA
:1046E000BDE8F84006F02CBD3846314622460AF0B7
:1046F00077F901350028EED10E4C18483146657126
:1047000003F066FF6379082B01D00E2B10D1144BF8
:10471000002232241E20142183F820202D2283F829
:104720002540187199731A769C76D8715974DA7687
:10473000F8BD00BFBC190020432B0108981A0108DE
:1047400043330108572B0108E41A0108FF2A010826
:104750001C340108E81A01086A2B0108822B0108A1
:104760009C1E002070B504460AF031F908B92048B3
:1047700030E020461F490AF0FFF90024264625466E
:1047800078B12CB1012C06D10AF0D0F9064602E02E
:104790000AF0CCF905461749002001340AF0ECF97B
:1047A000EEE70B2D05D9BDE8704013480C2103F04E
:1047B0000FBF012C08DC114B294633F91520104896
:1047C000BDE8704003F004BFA6F57A73B3F57A7FB5
:1047D00004D90C48BDE8704003F0FABE0A482946E7
:1047E000324603F0F5FE054B23F8156070BD00BF9F
:1047F000942B0108BA2D0108CE2B010810050020CA
:10480000F42B01080C2C01082E2C010838B50546A4
:104810000AF0DDF8C0B268B90446124B214603EB3A
:1048200044031148B3F84620013403F0D1FE182C9C
:10483000F3D138BD28460AF079F9172804460BDC75
:10484000202128460AF0B6F80AF070F9054B03EB70
:104850004404A4F8460038BD04481821BDE8384097
:1048600003F0B6BE9C1E0020472C0108532C010803
:10487000F0B5044689B020460AF0A9F8C5B2002D6B
:104880003AD1B34803F0A4FEB24803F0A1FEB24C03
:1048900094F9D2300BB9B14834E10135B04829461A
:1048A00003F096FE94F8D010AE48013103F090FE6C
:1048B00094F8D110AB48013103F08AFE94F9D2107C
:1048C000A84803F085FE94F8D310A64803F080FEB4
:1048D00094F9D410A34803F07BFE94F9D510A148B5
:1048E00003F076FE94F8D6109F4803F071FE102D69
:1048F00004F10704CCD1CEE720469C4905220AF0FA
:104900006FF8054670B99A48294670220AF03DF8BA
:104910002846984B002203440A305028A3F88620EA
:10492000F7D152E12046944904220AF059F805468D
:104930002046002D46D120210AF03CF8002800F046
:104940004481461C30460AF042F82C4607468B4B01
:1049500053F824500DB98A48D4E030462946FAB2BB
:104960000AF03EF801340028F1D17B4B03F17001CD
:104970001E46002283F8D62083F8D22083F8D12067
:1049800083F8D02007338B42F3D113467D4911F8C9
:104990003420934211DA01EBC4014F68C3EBC30228
:1049A000B0183A44176800F1D001C0F8D070908870
:1049B0000133888092798A71E8E77348294603F0C9
:1049C00007FE9CE0714909220AF00AF805462046D4
:1049D000002D4DD1202109F0EDFF064609F0F7FF2B
:1049E000C4B27CBB6A4803F0F3FD6A4803F0F0FDF3
:1049F00001346948214603F0EBFD0C2CF8D15748EF
:104A000003F0E6FD002401346448214603F0E0FD94
:104A1000584B0A2606FB04360025B6F87C30604960
:104A20002B4113F0010F5F4B5F4818BF194601354A
:104A300003F0CEFD0C2DF0D1484803F0C9FD082C41
:104A4000E1D1C2E0304659490AF096F82C4658B1F7
:104A5000032C0BD00AF06AF854494DF824000020CA
:104A60000AF08AF80134F2E7032C50D0504849E0AC
:104A70004E490AF081F8002458B1082C0BD00AF0F6
:104A800055F84A494DF8240000200AF075F8013421
:104A9000F2E7082C01D0474834E0009B013B0F2B84
:104AA0002FD8019F013F072F2BD8029E013E0B2ECE
:104AB00027D8039D05F16402C82A22D8049CFF2C44
:104AC0001FD8059964291CD8069A642A19D89142DE
:104AD00017DA0798032814D8DFF87CE0C3EBC30388
:104AE0009E448EF8D0708EF8D1608EF8D2508EF839
:104AF000D3408EF8D4108EF8D5208EF8D6002E4CE8
:104B0000B9E62E4809B0BDE8F04003F061BD009A57
:104B1000013A072A54D8019B013B0B2B50D802992C
:104B2000481C01D001294BD1013112494FF00A0034
:104B300000FB02124FF0010101FA03F3B2F88610F4
:104B40000CBF0B4321EA0303A2F886303BE000BF11
:104B5000792C0108DE2C0108BC1900201C34010846
:104B60003C2D0108422D0108F82F0108462D0108AF
:104B70008C1A00209C1E00204C2D0108E81A010808
:104B80006A2B0108A0110108512D01081B380108EA
:104B9000642D01080B2B0108B12D01080734010811
:104BA0009F3B01083E3C0108B62D0108BA2D0108C3
:104BB000BC2D0108162E010827320108F52D010829
:104BC000034803F005FD034C55E609B0F0BD00BFF6
:104BD000F52D01081B3801087FB5044609F0F7FEE2
:104BE000082824D100231F49E25C09681144497850
:104BF00001F00301022908BF203AE2540133082BD7
:104C0000F1D10025665D1848314609F0D3FE28B180
:104C100001356019314609F0CDFE18B1134806F090
:104C20008FFA1CE0082DEDD1204605F060FB1048FE
:104C300006F086FA00230F4A04A91A4492F882214A
:104C40000A440949595C0133082B02F80C1CF2D1C3
:104C50000023094801A98DF80C3003F0B9FC04B019
:104C600070BD00BF94000020AD310108772E01080F
:104C7000972E0108BC190020932A01082DE9F0475E
:104C8000054609F0A4FE2F4B0446D3F808809A4647
:104C900090B92D4806F054FA2C4B53F8241049B122
:104CA0000123A34013EA080F02D0294803F090FC27
:104CB0000134F1E7274821E028462749224609F038
:104CC0008FFE58B9254806F03BFA254C54F8041FCE
:104CD0000029EFD01E4803F07BFCF7E72B78002675
:104CE0002D2B03BF013504F1FF344FF001094FF0C4
:104CF0000009164B53F8267027B91A48BDE8F0474B
:104D000006F01EBA28463946224609F069FEB8B9AF
:104D10000120B9F1000F07D000FA06F628EA0606CE
:104D2000CAF80860104803E0B04005F0F9FA0F48EF
:104D300006F006FA39460E48BDE8F04703F048BCD5
:104D40000136D6E7BC190020AC2E01084C1B010827
:104D5000FF2A01081C34010843330108BF2E010853
:104D6000481B0108D42E0108EE2E0108F82E010878
:104D7000932A01082DE9FF47824806F0E1F9824EA7
:104D8000824803F025FC8248FFF740FD7279814B91
:104D9000814803EB8203D96C03F01AFC30690021CF
:104DA00007F0C6FD00285BD134460546276900217F
:104DB000384607F0BDFD00284ED101357748294619
:104DC000D4F814A0D4F81890D4F81C8003F000FC98
:104DD0003846002107F0B6FD10B1714803F0F8FB2A
:104DE0006946384603F070FA01466E4803F0F0FB5E
:104DF0005046002107F0A6FD10B1694803F0E8FB1A
:104E00006946504603F060FA0146664803F0E0FB4D
:104E10004846002107F096FD10B1614803F0D8FB29
:104E20006946484603F050FA01465E4803F0D0FB5D
:104E30004046002107F086FD10B1594803F0C8FB39
:104E40006946404603F040FA0146574803F0C0FB6C
:104E50000C2D04F11004A9D15448691C03F0B8FBCF
:104E600096F9D230002B36D0474C002594F9D23039
:104E70006BB301354E48294603F0AAFB94F8D010D5
:104E80004C48013103F0A4FB94F8D110494801319A
:104E900003F09EFB94F9D210464803F099FB94F876
:104EA000D310444803F094FB94F9D410414803F024
:104EB0008FFB94F9D5103F4803F08AFB94F8D61085
:104EC0003D4803F085FB102D04F10704CED13B488B
:104ED000691C03F07DFB0124394B0A2707FB0437CB
:104EE0000022B7F87C30551C134113F0010F04D099
:104EF000344821462A4603F06BFB0C2D2A46F0D19C
:104F00000134092CE8D1B5682F4C54F8041F19B1AD
:104F10002E4803F05DFBF8E70C462D4B53F82410A8
:104F200041B10123A3402B4202D02A4803F050FB99
:104F30000134F2E7731893F8823104AA1344264A25
:104F40008A5C0131082903F8102CF3D1002423488E
:104F500069468DF8084003F03BFB214B2148E518DA
:104F6000E15803F035FB2846002103F00BFC143414
:104F70001D4806F0E5F8B4F52F6FEED104B0BDE89A
:104F8000F08700BF012F0108BC1900202F2F010856
:104F900027320108981A01085F2F01086A2F0108BB
:104FA000BA2D01080A2B0108932A0108722F010863
:104FB000842F0108892F0108F82F01088D2F01087F
:104FC0009C1E00209F2F0108481B0108B92F0108D3
:104FD0004C1B0108C72F0108AD310108D42F01086F
:104FE000DC1C0108DD2F01081C34010810B5044643
:104FF000204609F0ECFC10F0FF0F07D10B4B0C48DA
:1050000093F8C014BDE8104003F0E2BA204609F05E
:105010008DFD022808D8054B064C83F8C0040020FB
:10502000014602F097FEE3E710BD00BFBC19002067
:10503000E72F01082732010873B51D4D4FF4805644
:1050400004466E61F52005F0E9FB0DF10700002133
:10505000012204F023FB2E619DF80730702B24D130
:10506000144B154ABB2C1A60144A5A60144B154A4B
:105070001A60154A5A60154ADA60154B02D90120A8
:10508000587013E0612C01D902220BE0292C01D9C0
:10509000032207E0132C01D9042203E0092C8CBF62
:1050A000052206225A70012000E0002002B070BDE7
:1050B000000C0140A0050020C19B0008014500082C
:1050C0008C050020119600083960000818449231C0
:1050D000400000202DE9F84F7E4B1A78984612F0D8
:1050E000070F40F0CE80022006F076F87A4B0A24B3
:1050F000B3F9000090FBF4F006F09AF8774B9B6848
:105100009A0757D5764F6E253B883A205D43152385
:1051100095FBF3F5ADB24FF0640906F05DF8B5FB11
:10512000F9F630B206F084F83B2006F055F809FB9A
:10513000165080B205306B4E90FBF4F000B206F0D2
:1051400077F833783A8840F6340192FBF3F24A4319
:10515000654D2A21B2FBF1F22988062091FBF3F775
:1051600003FB17173F01BFB247EA0227BFB2C2F3E2
:105170000322174306F030F838B206F059F82A88AF
:105180003378013292B292FBF3F103FB1123282012
:105190002B8006F021F8554B1B6893FBF4F000B20E
:1051A00006F046F8042006F017F8514BB3F900005A
:1051B00006F03EF84F4B1B689B0660D54E4D4F4E98
:1051C0002B684F4C83EAE37AAAEBE37A9AFBF6F773
:1051D00004FB07AA4FF03C0B0BFB0AFA07EB87070F
:1051E0009AFBF6F9132007EB870705F0F5FF09EBAB
:1051F000870004FB09A900B206F01AF84FF47A7A86
:105200001B2005F0E9FF99FBFAF000B206F010F858
:10521000232005F0E1FF2B68002BACBF4E2053206C
:1052200006F006F86B68122083EAE379A9EBE379CC
:1052300099FBF6F704FB07990BFB09F907EB8707C6
:1052400099FBF6F607EB870705F0C6FF06EB87002C
:1052500004FB069600B205F0EBFF1A2005F0BCFF38
:1052600096FBFAF000B205F0E3FF222005F0B4FF50
:105270006B68002BACBF4520572005F0D9FF05F027
:10528000B9FF98F80030282B22D1124B00221A7057
:105290001C4B3C241E684FF47A73B6FBF3F61720C0
:1052A00005F09AFFB6FBF4F5B5FBF4F004FB1050E3
:1052B000000200B205F0BCFF182005F08DFF04FBD2
:1052C000156000B205F0B4FFBDE8F84F05F092BFDD
:1052D000BDE8F88F78040020E4040020BC19002009
:1052E0009003002020000020340F002098030020AD
:1052F000A803002088050020200200208096980046
:10530000806967FFB8190020426A10B58469A1540A
:10531000416A02690131B1FBF2F402FB14124262EC
:10532000426B32B11368DB0708D4BDE8104004F0CB
:10533000ADBB836CDA6842F08002DA6010BD204BAE
:1053400037B51B680446012B0EDD4FF40053ADF852
:10535000043002238DF8073004231A480DEB0301B3
:105360008DF8063004F0A9FD6B218022682006F03C
:105370004FF9642004F097FD19210022682006F0FF
:1053800047F9114D6B210322682006F041F93721BE
:105390000222682006F03CF91A212A78682006F0DB
:1053A00037F91B211822682006F032F968201C21E9
:1053B000102206F02DF904B16C7003B030BD00BFAF
:1053C000B01F0020001001404400002010B504462A
:1053D000642004F068FD68202321F02206F018F90B
:1053E00010B9032005F04EFF052004F05CFD064BCC
:1053F00068201A78202142F00F0206F009F90CB15A
:10540000024B9C7010BD00BF9C0500204400002092
:1054100010B50446192004F046FD6820152100222D
:1054200006F0F6F810B9032005F02CFF0D4B1621FD
:105430001A78682042F0180206F0EAF817210022D4
:10544000682006F0E5F83D210122682006F0E0F82A
:1054500068203E21012206F0DBF80CB1024BDC7023
:1054600010BD00BF220000204400002037B52023DB
:10547000ADF8043004230DEB0301022405461C485B
:105480008DF806308DF8074004F017FD2A21002220
:105490001C2006F0BDF80E2122461C2006F0B8F8AC
:1054A0000F2103221C2006F0B3F82B2112221C200E
:1054B00006F0AEF82C2122461C2006F0A9F82D217A
:1054C00001221C2006F0A4F82E2100221C2006F048
:1054D0009FF805221C202A2106F09AF8054B4FF46C
:1054E00080721A800DB1044B1D7103B030BD00BF36
:1054F00000080140240000204400002077204821BB
:10550000012206F085B877205821012206F080B8E4
:10551000064B002193F82020054B9201343219707C
:105520007720F42102F0FC0206F072B8B4050020E6
:10553000A01F0020034B00221A707720F4212E2296
:1055400006F066B8A01F002010B50F2108220446FF
:10555000182006F05DF80E221820102106F058F8E9
:10556000034B4FF480521A800CB1024B5C7110BD9A
:10557000240000204400002008B1034B98710C2047
:105580000A21012206F044B8440000201FB501237F
:10559000ADF80830ADF80410002301A9ADF80A30C9
:1055A000ADF80C30ADF8062002F000FA05B05DF859
:1055B00004FB2DE9F7431F46394B044603600323E0
:1055C000037191464FF4807300F13402C36042616D
:1055D000012500202361D4F8343184F8385284F84E
:1055E0003C0284F8390284F842722062E061A062D1
:1055F0006062A4F84402A4F8460258689B6804F567
:105600009C72A2614FF00208ADF804300E461023E0
:1056100001A98DF806308DF8078004F04EFC236B4D
:1056200001A958689B688DF80780ADF804304823BD
:105630008DF8063004F041FC2946204604F05BFF5B
:10564000322004F030FC174BD4F834811B681D461F
:10565000B5FBF9F1B1F5803F03D3012DF8D96D0801
:10566000F6E7114A4046B3FBF2F289B2D2B206F035
:105670005DF8404631460D4A02F0C0F8246B002F19
:105680000CBF022200222068217BFFF77FFF20460B
:105690003146074A02F0B2F803B0BDE8F08300BF1C
:1056A0009C1C01089000002040420F00B5560008E5
:1056B00019850008444B10B54FF4127404FB0034F4
:1056C00094F83C22C2B9A36A616A994229D0591C54
:1056D000A069A162C05C2369C0B299424FEA40034D
:1056E00043F40073A4F83E324FF00A0384F83D32CD
:1056F00028BFA262012312E094F93D327BB1B4F8D5
:105700003E1220464B08A4F83E3201F0010104F09D
:10571000F2FE94F83D32013B84F83D3201E084F81A
:105720003C3294F83832002B4DD194F839320133A1
:10573000DBB2092B84F8393204D12046BDE8104091
:1057400004F0C4BE0A2B3ED194F83B322BB9B4F816
:10575000403243F00103A4F840322379D8071AD528
:10576000B4F8403203F4007292B20AB9D90705D4F2
:10577000B4F846320133A4F846320CE0216A60697D
:10578000C3F347034354E168236A01398B4236BFB0
:10579000013322622362012284F8382294F83B22EA
:1057A0000023012A84F839320DD194F8422284F87A
:1057B0003B32236B002A1868197B0CBF022200229F
:1057C000BDE81040E2E610BD5C08002010B54000C6
:1057D0001C4CC0B22070617001200021A170E070EB
:1057E0002273607320696360A360A17340B38388F0
:1057F0009B0515D40388D9050DD447F23053028890
:10580000920502D5013BFAD112E08BB103889BB21D
:1058100043F48073038083889BB243F44073838096
:1058200047F23053627B12B1013BFBD100E01BB960
:10583000BDE8104005F084BE024B987B80F001006B
:1058400010BD00BF380F0020F0B5044685B02320FE
:1058500004F029FB6820752101220DF10703FFF7F1
:10586000B5FF00285FD09DF80770682F5AD1062138
:1058700002AB38460A46FFF7A9FF9DF80B309DF8AA
:105880000D6003F001035B0006F0010643EA8606A3
:105890009DF80930254D03F001031E4305D0012E6C
:1058A00017D0022E0DD1002311E00DF10703384669
:1058B0000C210122FFF78AFF9DF8073013F00F0338
:1058C00002D1052005F0DEFC042B02D101232B754B
:1058D00000E02E75164B174ABB2C1A60164A5A6008
:1058E000164B174A1A60174A5A60174ADA60174B64
:1058F0002A7D1A75164B02D90120187013E0612C0D
:1059000001D902220BE0292C01D9032207E0132C34
:1059100001D9042203E0092C8CBF052206221A704B
:10592000012000E0002005B0F0BD00BF380F0020CE
:10593000A0050020D99B0008555900088C050020BF
:105940003F530008A9590008184492312C06002042
:10595000440000201FB504466B463B210622682008
:10596000FFF734FF9DF800209DF8013002A843EABC
:105970000223ADF808309DF802209DF8033021463F
:1059800043EA0223ADF80A309DF804209DF8053063
:1059900043EA0223ADF80C30024BDA7905F056FAEF
:1059A00004B010BD440000201FB504466B464321DF
:1059B00006226820FFF70AFF9DF801309DF80020BD
:1059C0009DF8021043EA022212B2042392FBF3F282
:1059D000ADF808209DF8032002A842EA012212B285
:1059E00092FBF3F29DF80410ADF80A209DF8052013
:1059F00042EA012212B292FBF3F3ADF80C30034BF2
:105A000021465A7805F022FA04B010BD4400002067
:105A10001FB504466B46A82106226820FFF7D6FE74
:105A20009DF801309DF800209DF8021043EA022203
:105A300012B2042392FBF3F2ADF808209DF8032084
:105A400002A842EA012212B292FBF3F29DF804107E
:105A5000ADF80A209DF8052042EA012212B292FB1D
:105A6000F3F3ADF80C30034B21469A7805F0EEF9CC
:105A700004B010BD4400002013B50222044601AB5F
:105A80001B216820FFF7A2FE9DF804209DF8053039
:105A900043EA022303F54E534FF48C72103393FB09
:105AA000F2F32333238002B010BD1FB504466B46CA
:105AB0001D2106226820FFF789FE9DF801309DF820
:105AC00000209DF8021043EA022212B2042392FB46
:105AD000F3F2ADF808209DF8032002A842EA012263
