:020000040800F2
:1000000088310020D5CD000815CE0008632F0008E8
:1000100019CE00081BCE00081DCE0008000000000D
:100020000000000000000000000000001FCE0008DB
:1000300021CE00080000000023CE00082DA10008FA
:1000400027CE000827CE000827CE000827CE0008BC
:1000500027CE000827CE000827CE0008B5AD00083F
:1000600027CE000827CE000827CE000827CE00089C
:1000700041A8000827CE000815A8000827CE0008D0
:1000800027CE000827CE000827CE000827CE00087C
:1000900027CE000827CE000827CE0008B7AD0008FD
:1000A00027CE000827CE000827CE00081FB600087C
:1000B00025B600082BB6000831B600089199000853
:1000C00091970008959900089399000827CE000899
:1000D00027CE00086DA80008A1A8000805A90008FF
:1000E000E990000827CE000827CE0008DFF80CD0E2
:1000F0000DF072FB00480047292C000888310020D1
:1001000070B50C46911E232900D30A220025002831
:1001100004DA2D212170611C404200E0214601F0EB
:1001200023FC0570204670BD2DE9F047044600E031
:10013000641C20782028FBD00928F9D04FF07E5885
:10014000C1B247462D2902D02B2801D001E0FC4F37
:10015000641C0026DFF8EC930CE000BF0DF020F9E2
:100160000546494630460DF02DF829460CF0D2FFE1
:100170000646641C207830380928EFD920782E28CC
:1001800015D14D460EE000BF0DF00AF929460DF0DD
:100190004BF831460CF0BEFF0646494628460DF0A6
:1001A00011F8054614F8010F30380928ECD92178E8
:1001B0004046652901D0452935D114F8011F4FF07B
:1001C00000082D2902D02B2902D002E04FF00108AF
:1001D000641C00256FF02F0206E000BF05EB8503CD
:1001E00002EB4303CD18641C2178A1F13003092BE5
:1001F000F4D94FF49A718D4204D90D46D2490CF0CE
:10020000E1FF083D082DF9D203E049460CF0DAFF82
:100210006D1E002DF9D1B8F1000F04D00146304613
:100220000DF002F803E0014630460CF0CBFF3946F2
:10023000BDE8F0470CF0C6BFF0B587B000260D460C
:10024000C34900960196C1A70296B0F5000F02DBE4
:100250000CF060FF01E00CF0AFFFBE490CF0B2FF04
:100260000DF0BDF8041E00DC60420A2203A9FFF76E
:1002700047FF002C01DB202000E02D208DF800003E
:1002800003A80CF0F8FE302401280AD003A80CF0D3
:10029000F2FE02280CD003A80CF0EDFE03280CD0CF
:1002A0000DE08DF801408DF802408DF8034006E026
:1002B0008DF801408DF8024001E08DF8014003A95E
:1002C00068460CF0A4FE68460CF0D5FEC01EC4B211
:1002D0002246694628460CF0B8FE2E553946284677
:1002E0000CF095FE0DEB040128460CF090FE07B0D3
:1002F0002846F0BD70B505460C4608680CF0BBFEFC
:10030000024621682868BDE870400CF0DDBE70B57B
:1003100006460CF0B0FE904D10F0FF0F10D03046A6
:100320000CF0EBFE0446182818DA202130460CF0B9
:1003300098FE0CF0E2FE05EB4401A1F8460070BD0A
:100340005FF0000405EB44002146B0F8462083A08E
:100350000DF0ECFA641C182CF4DB70BDBDE87040A5
:10036000182181A00DF0E2BA2DE9F041002588B0F6
:1003700007462E460CF07FFE854C10F0FF0FA84676
:1003800051D0052283A138460CF09EFE00287DD076
:10039000042282A138460CF097FE002877D0384618
:1003A0000CF0ABFE461E0C2E72DA202138460CF003
:1003B00058FE070007D0781C0746FFF7B5FE04EB90
:1003C000061101250861202138460CF04AFE07007D
:1003D00007D0471C3846FFF7A7FE04EB06116D1C3B
:1003E0004861202138460CF03CFE070007D0471C2E
:1003F0003846FFF799FE04EB06116D1C8861202139
:1004000038460CF02EFE30B1401CFFF78DFE04EB99
:1004100006116D1CC861042D77D062A001F0B7FAF7
:1004200008B0BDE8F0816EA001F0B1FA5FF0000500
:1004300004EB0517386910F0FF4F2BD0691C73A02F
:10044000761C0DF073FA03A93869FFF7F5FE014633
:1004500070A00DF06BFA03A97869FFF7EDFE014675
:100460006CA00DF063FA03A9B869FFF7E5FE014639
:1004700068A00DF05BFA03A9F869FFF7DDFE0146FD
:1004800065A00DF053FA6D1C0C2D02E034E03DE048
:10049000E5E0CDDBCDF80880CDF804800025CDF86F
:1004A000008011E004EB0517009879690CF032FE2A
:1004B0000090B96901980CF02DFE0190F96902983D
:1004C0000CF028FE6D1C0290B542EBDB54A001F04D
:1004D0005EFA574E00246D4655F8240020F0004087
:1004E000B04201DD53A000E053A001F050FA641CBB
:1004F000032CF1DB44A091E70020414604EB0012FD
:10050000401C11610C28F9DB8AE7A3E02021384662
:100510000CF0A7FD002883D0401C06460CF0ABFD74
:10052000464DC7B2002400BF55F8241031B13A46F9
:1005300030460CF0C9FD10B1641CF5E780E081E0A5
:10054000000080BF0000204120BCBE4C2E000000F7
:100550006F12033A00007A44E408002061757820A5
:1005600025752025750D0A00496E76616C69642039
:100570004665617475726520696E6465783A206DB0
:10058000757374206265203C2025750D0A000000FB
:100590002004002072657365740000006C6F616454
:1005A0000000000057726F6E67206E756D62657295
:1005B000206F6620617267756D656E74732C206E96
:1005C00065656473206964782074687220726F6C4A
:1005D0006C207069746368207961770D0A000000EF
:1005E000437573746F6D206D697865723A200D0ADA
:1005F0004D6F746F720954687209526F6C6C0950B8
:1006000069746368095961770D0A00002325643A0B
:10061000090000002573090025730D0A0000000081
:1006200053616E69747920636865636B3A090000F1
:100630000AD7233C4E4709004F4B0900B8E9000890
:10064000F7A0EBE6204602F0DDFD55F82410FAA0F5
:100650000DF06CF9AFF2B800FFF786FEE0E60C2172
:10066000FAA00DF063F9DBE62DE9F04188B0804691
:1006700000240CF000FDFF4D10F0FF0F1BD00522F1
:10068000AFF2F00140460CF01FFDFB4E00284BD0AE
:100690000422AFF2F80140460CF016FD002855D0B8
:1006A0000922F6A140460CF00FFD6F46002871D0DC
:1006B000F5A14046F5E0F5480DF038F9F4480DF0A5
:1006C00035F90026C6EBC600441994F8D20048B3A9
:1006D000711CAFF2C8000DF029F914F8D01FEDA07D
:1006E000491C0DF023F96178EAA0491C0DF01EF9B0
:1006F00094F90210E7A00DF019F9E178E5A00DF0EA
:1007000015F994F90410E3A00DF010F994F905100F
:10071000E0A00DF00BF9A179DFA00DF007F9761C30
:10072000102ECFDBC8A009E1D2487021D0300CF0E8
:1007300063FC00204FEA000100EB800206EB42025E
:10074000401CA2F886100828F6DB69E62021404606
:100750000CF087FC0028F8D0401C06460CF08BFCFF
:10076000CF4DC7B2002400BF55F8241031B13A462E
:1007700030460CF0A9FC18B1641CF5E7A8A0DDE038
:10078000204602F013FD55F82410ABA00DF0CEF872
:10079000D1E0FFE7202140460CF063FC80460CF0DE
:1007A0006AFC10F0FF0F4FF0010502D0B6A14046E1
:1007B00039E0BC480DF0BAF8BBA00DF0B7F8002442
:1007C000611CBAA00DF0B2F8641C0C2CF8DB9EA0E2
:1007D0000DF0ACF80024B046611CB6A00DF0A6F8F0
:1007E00004EB8401002608EB410700BFB7F8860040
:1007F00005FA06F1084201D0AFA100E0A1A1AFA027
:100800000DF094F8761C0C2EF0DB8FA00DF08EF816
:10081000641C082CE0DB03E60CF06FFC47F82400B6
:1008200099A10020641C0CF02DFC10B1032CF3DB0B
:1008300001E0032C01D0A3A080E00098401E07280F
:100840000AD80199012907DB0C2905DC0299491C0A
:1008500009D00299012906D0A9A00DF067F887A058
:10086000FFF702FFDCE500900198401E019002981E
:10087000019A401C009805FA02F500EB800006EB97
:10088000400030F8861F02D0A9430180E7E72943E2
:10089000FBE700BF0CF031FC47F824007AA10020F0
:1008A000641C0CF0EFFB10B1082CF3DB01E0082C0A
:1008B00001D09C4842E00098401E10283DD201998A
:1008C00000293ADD082938DC0299012935DB0C2999
:1008D00033DC039911F1640F2FDB64292DDC0499BB
:1008E00000292ADBFF2928DC0599002925DB64295A
:1008F00023DC0699002920DB64291EDCDDE90512D2
:1009000091421ADA0799002917DB032915DCC0EB9D
:10091000C00001992844491E00F8D01F0299491EC1
:100920004170039981700499C1700599017106990C
:1009300041710799817159A092E771A00CF0F6FFFF
:100940006EE510B578A001F022F8012001F03BFB24
:100950007CA001F01CF80A2009F0AEFCBDE81040B4
:10096000002009F0F1BC7CB504460D460079002159
:10097000062814D2DFE800F003060A0D111EA06855
:1009800001780CE0A06890F9001008E0A0680188E8
:1009900005E0A068B0F9001001E0A068016845A07A
:1009A0000CF0C4FF002D04D0D4E9031269A00CF0B0
:1009B000BDFF7CBDA06869460068FFF73DFC0146AD
:1009C00066A00CF0B3FF002DF3D0E0680CF0E8FC5B
:1009D0006946FFF731FC014661A00CF0A7FF2069D2
:1009E0000CF0DEFC6946FFF727FC01465CA00CF02A
:1009F0009DFF7CBD5BA000F0CABF2DE9FF47002032
:100A0000FFF7F8FF63A00CF091FF24A0FFF77FFC35
:100A1000184D2349687901EB800050F8041CD1E09F
:100A2000496E76616C6964206D69786572207479AD
:100A300070652E2E2E0D0A004C6F616465642025B2
:100A400073206D69782E2E2E0D0A00004D6F746F85
:100A500072206E756D626572206D757374206265AB
:100A6000206265747765656E203120616E64202593
:100A7000640D0A0020040020E40800206469726507
:100A80006374696F6E00000020000000D00401084C
:100A9000700401082564090025640D0A00000000A7
:100AA000B8E9000820040108730000000969256402
:100AB000000000002564000072000000092573207A
:100AC0002000000057726F6E67206E756D62657250
:100AD000206F6620617267756D656E74732C206E71
:100AE0006565647320736572766F20696E707574C6
:100AF00020646972656374696F6E0D0A00000000FE
:100B00004552523A2057726F6E672072616E676568
:100B100020666F7220617267756D656E74730D0A61
:100B20000000000038050108526573657474696E31
:100B30006720746F2064656661756C74732E2E2E49
:100B40000D0A00005265626F6F74696E672E2E2E5B
:100B500000000000202564202564000025730000AB
:100B6000202573004166726F333220434C49207652
:100B7000657273696F6E20322E33204D61722032A0
:100B8000372032303135202F2031303A35323A316A
:100B90003200000043757272656E7420436F6E669A
:100BA00069673A20436F7079206576657279746859
:100BB000696E672062656C6F7720686572652E2E9E
:100BC0002E0D0A00FBA00CF0B1FE286910F0FF4FBB
:100BD00053D0DFF8ECA3002405EB0410066916F0EF
:100BE000FF4F46D0D0E90598C769611CF5A00CF00D
:100BF0009DFE564503D3AFF270100CF097FE694688
:100C00003046FFF719FB0146AFF2B0000CF08EFE44
:100C10005646B14503D3AFF290100CF087FE6946FB
:100C20004846FFF709FB0146AFF2D0000CF07EFE0C
:100C3000B04503D3AFF2B0100CF078FE69464046E1
:100C4000FFF7FAFA0146AFF2EC000CF06FFEB74284
:100C500003D3AFF2CC100CF069FE69463846FFF7BB
:100C6000EBFA0146AFF250600CF060FE641C0C2CF5
:100C7000B2D3611CD5A00CF059FE95F8D200A8465D
:100C8000002835D000254646C5EBC500841994F8E8
:100C9000D20048B3691CD2A00CF048FE14F8D01F53
:100CA000D2A0491C0CF042FE6178D0A0491C0CF087
:100CB0003DFE94F90210CDA00CF038FEE178CBA0F7
:100CC0000CF034FE94F90410C8A00CF02FFE94F937
:100CD0000510C6A00CF02AFEA179AFF244200CF05A
:100CE00025FE6D1C102DCFD3691CC1A00CF01EFE7B
:100CF0000025DFF81093012605EB8501002409EBA0
:100D0000410700BFB7F8860006FA04F1084204D094
:100D1000621C691CBCA00CF009FE641C0C2CF1D3F5
:100D20006D1C082DE8D301F07FF9BE4D0746002465
:100D300055F8241021B1BCA00CF0F8FD641CF7E7B5
:100D40005FF0000455F8241041B106FA04F038426F
:100D500002D0B9A00CF0EAFD641CF3E7BA4B002006
:100D60006946424615181C5C95F88251401C0828BB
:100D70004C55F7D300220A54B4A00CF0D7FDB64D61
:100D8000002400BF04EB840005EB800655F820101A
:100D9000B2A00CF0CBFD00213046FFF7E4FD87A0A8
:100DA00000F0F5FD641C8C2CECD3BDE8FF8710B57A
:100DB000ADA000F0ECFD0121002000F0F2FEADA09E
:100DC00000F0E5FD0A2009F077FABDE810400020A8
:100DD00009F0BABA10B50446AAA000F0D8FDAF4891
:100DE000AF4A002101705160117002F024F92046D1
:100DF000BDE81040DBE72DE9F04706460CF03BF973
:100E0000054601F011F9DFF81C8207464FF0010991
:100E100055B12A46A3A130460CF056F9C0B130783E
:100E200000272D2823D025E0A0A000F0B0FD00244D
:100E30004D46464656F8241041B105FA04F03842B2
:100E400002D09FA00CF072FD641CF3E75BA01EE0D3
:100E50009CA000F09CFD00244FEA080555F82410E2
:100E60000029F3D096A00CF061FD641CF6E7012781
:100E70006D1E761C5FF0000458F8241031B12A462C
:100E800030460CF021F930B1641CF5E793A0BDE8C1
:100E9000F04700F07CBD09FA04F01FB101F0BFF883
:100EA00095A002E000F0E0FE96A000F070FD58F87A
:100EB0002410BDE8F04762A00CF038BD10B506F074
:100EC000D0FB401C04D092A0BDE8104000F05FBDF4
:100ED00097A0F9E770B500249FA000F058FD514D90
:100EE00015F19C0504EB440005EB80014A6855F8B8
:100EF00020109FA00CF01AFD641C112CF2D370BDC1
:100F00003EB505460CF0B7F808281DD10024285D31
:100F10000CF030F82855641C082CF8D300244A48FB
:100F2000295D0CF09EF828B12819295D401C0CF0B1
:100F300098F818B190A000F02AFD3EBD641C082C62
:100F4000EDD3284600F06FFD93A000F020FD3E4B4E
:100F5000974A0020694615181C5C95F88251401C80
:100F600008284C55F7D300220A5435A00CF0DEFCBB
:100F70003EBD2DE9F04180460CF07DF8294D8C4EA8
:100F80000700A5F1640514D0024646A140460CF0C6
:100F90009BF858B15FF0000455F8241039B13A4677
:100FA00040460CF091F818B1641CF5E70CE11BE128
:100FB00020E1FFE06D697865722025730D0A00005D
:100FC00000008080636D697820256400636D697816
:100FD00020256420302030203020300D0A00000011
:100FE000736D6978202564200000000025642000CE
:100FF000736D697820256420302030203020300D3A
:101000000A000000E4080020736D697820646972AA
:10101000656374696F6E202564202564202D310D71
:101020000A0000001CEA000866656174757265209C
:101030002D25730D0A0000006665617475726520C8
:1010400025730D0A0000000074F600086D61702021
:1010500025730D0A0000000084EB000873657420FE
:101060002573203D20000000536176696E672E2EA7
:101070002E0000000D0A5265626F6F74696E672E54
:101080002E2E00000D0A4C656176696E6720434C78
:1010900049206D6F64652E2E2E0D0A00F00300208E
:1010A000000000206C69737400000000456E6162EE
:1010B0006C65642066656174757265733A20000022
:1010C00025732000417661696C61626C65206665FC
:1010D0006174757265733A2000000000496E766194
:1010E0006C69642066656174757265206E616D65FA
:1010F0002E2E2E0D0A00000044697361626C656437
:1011000020000000456E61626C65642000000000F4
:10111000456E61626C696E67204750532070617341
:10112000737468726F7567682E2E2E0D0A000000AA
:101130004572726F723A20456E61626C6520616E15
:101140006420706C756720696E2047505320666973
:101150007273740D0A000000417661696C61626C03
:101160006520636F6D6D616E64733A0D0A00000057
:1011700025730925730D0A004D757374206265206F
:10118000616E79206F72646572206F6620414554EC
:1011900052313233340D0A0043757272656E742019
:1011A00061737369676E6D656E743A2000000000AC
:1011B00020040020707905EB800050F8041CBDE885
:1011C000F041FBA00CF0B2BBFEA000F0E0FB00245D
:1011D00055F8241029B1AFF218100CF0A7FB641CCD
:1011E000F6E7AFF2282001E0AFF2CC70BDE8F041A5
:1011F00000F0CDBB601C707155F82410F6A00CF007
:1012000095FB7079082801D00E2810D1F7483221BB
:10121000002280F8251080F820201E22142302715D
:1012200083732D2404768176C2714374C476BDE83D
:10123000F0812DE9F041002507462C462E460BF0A3
:101240001AFF18B1AFF2E411384610E0E8A02BE025
:1012500016B1012E07D103E00BF04FFF054602E067
:101260000BF04BFF0446AFF204210020761C0BF07C
:1012700009FF0028ECD10C2D05D3BDE8F0410C216D
:10128000EAA00CF053BBF34F022E07DA37F9152012
:101290002946BDE8F041F0A00CF048BBA4F57A70F7
:1012A000B0F57A7F04D9F2A0BDE8F0410CF03EBB66
:1012B00022462946F7A00CF039FB27F81540B6E77F
:1012C00070B505460BF0D7FEF94C10F0FF0F0CD0AF
:1012D00028460BF012FF02280ED884F8C004002123
:1012E000084600F05EFCF1A0EBE794F8C014BDE8FE
:1012F0007040F0A00CF01ABB70BD2DE9F04782469B
:101300000BF0B9FEF14D06002AD0012E03D19AF858
:1013100000002A2824D0EEA150460BF084FE0028BD
:1013200070D0401C04460BF0E8FE81462046FEF7D4
:10133000FBFE80465FF0000606EB860705EB8704A0
:1013400055F827000BF097FE024655F82710504637
:101350000BF0BAFEF8B1761C8C2EEDD3DDA04DE07B
:10136000E4A000F014FB002404EB840005EB8007EC
:1013700055F82010AFF218300CF0D8FA3146384644
:10138000FFF7F1FAAFF2CC3000F001FB641C8C2CBB
:10139000EAD3BDE8F08706EB860605EB8607F8681A
:1013A0000BF0FEFF41460CF067F826D838690BF0C9
:1013B000F7FF41460CF06AF81FD83979052907D0A4
:1013C000484606290ED2DFE801F0050508080B0B98
:1013D0004046F6E7A168087004E0A168088001E0D3
:1013E000A168086055F82610C8A00CF09FFA2046A6
:1013F000BDE8F0470021FFF7B6BAC7A0BDE8F04747
:1014000000F0C5BA5FF0000404EB8406514655F8BD
:1014100026000BF008FE78B155F8261005EB86077C
:10142000AFF2C4300CF082FA00213846FFF79BFA85
:10143000AFF278400CF07AFA641C8C2CE4D3A8E765
:101440002DE9F04108F091FE4FF47A71B0FBF1F113
:10145000BB480378BB480288BBA00CF067FA00F0D9
:10146000D3FD0646C848C9490068B0FBF1F2C84937
:1014700096480968DC3850F82110C6A00CF056FADE
:101480000024CF4F012500BF57F8241051B105FAB1
:1014900004F0304203D0AFF2D8300CF047FA641CAD
:1014A000E4B2F1E7022000F09DFDA0B1C54CC448B4
:1014B0002178203050F82110C3A00CF037FA2078A2
:1014C000022808D1C348007D08B16F2100E06E21D9
:1014D000C1A00CF02BFAAFF21C5000F058FA08F043
:1014E000D6FA0246BD4840F2C4430188BDE8F04147
:1014F000BBA00CF01BBA2DE9FF5FDFF8189399F839
:10150000000040B9012189F80010C3A000F03FFAA3
:10151000CFA000F03CFADFF840B3DFF8B8A25446A1
:10152000DAF800000AF04BFB00283FD020680AF0F0
:1015300049FB092807D03F2805D0D9F804104C46AC
:10154000002934D0AEE100249D4F25465037DFF806
:101550007C81D9F804600BE0D9F8042022B1BE48A0
:1015600039680BF0B1FD10B904B93C463D460C3763
:101570004745F1D39CB149465F46486822682B68CD
:10158000125C1B5C9A420AD172B92E280CD220221E
:101590003A54401C0021C9F804000BF80010D9F897
:1015A00004004F4608B159E15EE159E1DAE177E123
:1015B00043757272656E74206D697865723A202584
:1015C000730D0A00417661696C61626C65206D691A
:1015D000786572733A2000004D69786572207365F2
:1015E0007420746F2025730D0A000000E4080020A9
:1015F00055736167653A0D0A6D6F746F7220696E7D
:10160000646578205B76616C75655D202D2073685C
:101610006F77205B6F72207365745D206D6F746FE0
:10162000722076616C75650D0A0000004E6F2073A4
:10163000756368206D6F746F722C207573652061FF
:10164000206E756D626572205B302C2025645D0D07
:101650000A000000680A00204D6F746F7220256434
:10166000206973207365742061742025640D0A005D
:10167000496E76616C6964206D6F746F722076615B
:101680006C75652C20313030302E2E323030300DDC
:101690000A00000053657474696E67206D6F746F83
:1016A0007220256420746F2025640D0A000000005C
:1016B0002004002043757272656E742070726F662C
:1016C000696C653A2025640D0A00000084EB00086F
:1016D0003D0000004552523A20556E6B6E6F776E9A
:1016E000207661726961626C65206E616D650D0ABC
:1016F0000000000043757272656E74207365747427
:10170000696E67733A200D0A00000000257320738C
:10171000657420746F2000004552523A2056616C67
:1017200075652061737369676E6D656E74206F7582
:1017300074206F662072616E67650D0A00000000FC
:1017400094010020F800002053797374656D2055D2
:101750007074696D653A202564207365636F6E64EB
:10176000732C20566F6C746167653A202564202ABB
:1017700020302E3156202825645320626174746510
:101780007279290D0A000000B803002040420F00C2
:10179000C800002048617264776172653A20257341
:1017A00020402025644D487A2C206465746563745C
:1017B00065642073656E736F72733A2000000000D9
:1017C00068EA0008C001002041434348573A2025F9
:1017D00073000000180A00202E256300EC00002092
:1017E0004379636C652054696D653A2025642C202B
:1017F000493243204572726F72733A2025642C205F
:10180000636F6E6669672073697A653A2025640D97
:101810000A000000000000200D0A456E7465726920
:101820006E6720434C49204D6F64652C207479709D
:10183000652027657869742720746F207265747538
:10184000726E2C206F72202768656C70270D0A005D
:101850000D0A232000000000F0030020AC4215D048
:1018600053A000F094F80AE03A54401C486084E623
:10187000206800F08CF8092000F095F80C34AC4298
:10188000F6D9AFF2340000F082F800265C467868A2
:101890008642BFF444AEA05D00F085F8761CF6E702
:1018A000042812D00C2816D019B10A2817D00D28F8
:1018B00015D07F283FD03029EBD22028FFF42FAE5F
:1018C0007E283FF62CAEA9B344E004B03A48BDE808
:1018D000F05FFFF77FBA39A000F059F827E0AFF6C4
:1018E000241000F054F8606800255E460BF80050A4
:1018F0003548CDE9000B0C2311223449029501A88B
:101900000BF03EFB070007D038680BF0B4FB304407
:10191000B968401C884702E02DA000F038F830215B
:1019200025480BF069FB6560207800281AD0AFF2DB
:10193000E0000AE00CE000293FF4F1AD491E002070
:10194000C9F804100BF801002AA000F020F8E6E521
:101950002028FCD00BF80100491CC9F8041000F045
:1019600022F8DCE5BDE8FF9F30B514460546A042ED
:1019700004D3B5FBF4F0FFF7F7FF0146B5FBF4F035
:1019800004FB10501CA2105C0870481C30BD70B5E0
:101990000446234D03E0641C28680AF001F921780D
:1019A0000029F8D170BD01461D4800680AF0F8B85A
:1019B0000D1B5B4B00000000F00300201B5B324A54
:1019C0001B5B313B31480000F5020008B8EA000813
:1019D0004552523A20556E6B6E6F776E20636F6D75
:1019E0006D616E642C20747279202768656C702795
:1019F000000000000820080030313233343536371B
:101A000038394142434445464748494A4B4C4D4E7C
:101A10004F505152535455565758595A00000000D0
:101A2000180A002070472DE9F04105460446FE4E95
:101A3000FE4F09E0FC480BF014FB20B1611B801B3A
:101A4000384480F88211641C21780029F2D1BDE865
:101A5000F081F74800210278492A13D14288A2F583
:101A60008063C43B0ED10279BE2A0BD190F8C22408
:101A7000EF2A07D100F2C44210F8013B59409042CE
:101A8000FAD309B1002070470120704710B5FFF765
:101A9000E0FF10B90A2008F01AFC40F2C442E44901
:101AA000E2480BF090FAE14890F8C014022902D9FC
:101AB000002180F8C014C9B201EB811100EB810153
:101AC000BDE810404FF48272DA4801F5DA710BF08C
:101AD0007ABA2DE9F05FD74AD74E002092F820104D
:101AE00092F81F4040F6C41500FB00F3193B4B432E
:101AF00003F6C4134343634393FBF5F326F8103016
:101B0000401CC0B20728EFD3C84B914692F8212061
:101B100099F82240B3F84211B3F840710020DFF881
:101B20001CA34FF00A0B4FF47A7EC4F1640802EB59
:101B3000820CCD1B00EB8001C2EB41030121002B85
:101B400003DDC2F16401C9B201E000DA114603FB12
:101B500003F604FB06F601FB01F196FBF1F14144AB
:101B600001FB03F191FBFBF101EB4C0109B205FB19
:101B700001F191FBFEF139442AF8101000F1010047
:101B8000C0B20C28D6D399F8000002F0FEFABDE8E6
:101B9000F05F04F0B3BC10B5FFF778FFBDE810406C
:101BA00097E72DE9F047A14C81464920207040F28B
:101BB000C4456580BE2000262071EF2084F8C20451
:101BC00084F8C36461B194F8C0044FF4827200EBEE
:101BD000801004EB8000974900F5DA700BF0F3F900
:101BE0009248944903E000BF10F8012B5640884208
:101BF000FAD384F8C3640BF075F8DFF844A28C4F75
:101C00000326A84634200BF0DBF838460BF098F892
:101C100050460BF095F8002506E06159E8190BF0E5
:101C2000ABF82D1D454502D20428F6D001E004286A
:101C300004D0761EE6D10BF05BF804E00BF058F808
:101C4000FFF707FF10B90A2008F041FBFFF7A3FFD9
:101C5000B9F1000F06D0BDE8F047012214210F2092
:101C600001F02EBEBDE8F08770498A6802438A60A1
:101C700070476E490020886070472DE9FC5F71A1B4
:101C8000D1E90001CDE9000140F2C44167480BF001
:101C9000B3F94FF4827167480BF0AEF9634B4920FA
:101CA000002518700320587102209D60FFF7DCFFAB
:101CB00083F8C0544FF41670A3F86201FA20A3F819
:101CC00064012A20A3F86001A3F86A51A3F86C51BB
:101CD000A3F86E5183F8535183F8545183F855514A
:101CE000A3F85651A3F85851A3F85A5183F85D51FF
:101CF00083F85E514FF4FA70A3F86801012683F867
:101D00005C61202083F866014FF4C870A3F8780165
:101D10006E2083F87D012B2083F87E01212083F83B
:101D20007F01232083F8800183F8815183F88A5151
:101D300083F88B5183F8AE5183F8AF5183F8B051DB
:101D400040F2DC50A3F88E0140F24C40A3F8900121
:101D500040F26C70A3F8920183F8945183F8956176
:101D600083F8966140F27E40A3F8400140F23A7059
:101D7000A3F842014FF47A70A3F8440140F27E5078
:101D8000A3F8460140F2EA50A3F8480140F2B450EB
:101D9000A3F84A013220A3F84C01C100A3F84E1168
:101DA000A3F85001052183F8761183F89E5183F83A
:101DB0009F514FF4E131C3F8A4114FF41651C3F809
:101DC000A81183F8AC5183F8AD5140F6AC5199811C
:101DD0009D7383F8975140F6FF71164CA3F89A1142
:101DE0002827257067704FF01E0984F80B90172282
:101DF0006275A77084F80C90A2755521E1702D21B1
:101E00006173E5752071A57325760B226271E57308
:101E100065764FF0140A84F806A008222274A17691
:101E20000E22E27112E0000074F600082004002087
:101E300000F80108E4080020700C00207E0C00204F
:101E400000FC01081E1E64646464646484F811A0CC
:101E50005022E2765A2222724FF00A0B84F812B016
:101E60004FF0640884F81C8067727823A372217590
:101E7000A677E277412184F8201084F8235084F873
:101E8000245084F8255040F2DC51E18484F821008C
:101E900084F822506585A5852585042084F82E00C8
:101EA00084F82F7084F83070152084F83100604871
:101EB00060636048A0636048E0636048206484F821
:101EC0004460192084F845005DA0FFF7ACFD84F85C
:101ED000765084F8775084F8787084F8796084F8C4
:101EE0007C504FF44870A4F87A00C82584F8CEB02E
:101EF00084F8CF504FF49660A4F8D00040F2D93067
:101F0000A4F8D200514800216C4640F2DC534FF453
:101F10007F764FF4FA6700BF01EB810200EB4202CB
:101F200022F87E6F5780938014F801C0491C82F814
:101F300006C00829F0DB012100F8D41F444C417091
:101F40008170858080F806A080F807900172A0F863
:101F50000A804FF4967181812821C1814FF07C5114
:101F600001614161A0F81AA00F218183C18301841E
:101F700040F26C714184838440F21451C184082181
:101F800001854FF07E51C162522084F8C1040020C7
:101F90004FEA000104EB0012401C11610C28F9DB30
:101FA00000254FF4827600BF05EB851004EB80001E
:101FB0003246264900F5DA700BF005F86D1C032D4A
:101FC000F2DBBDE8FC9F10B50446FFF742FD641E3E
:101FD000204206D1FFF751FE0021BDE8104008461F
:101FE000DFE510BD1B490968014201D0012070479F
:101FF0000020704717490A6802430A607047154974
:102000000A6882430A6070471248006870471049A6
:102010008968014201D001207047002070470C49B7
:102020008A6882438A607047094880687047000068
:102030009A99193FF6287C3F3D0A773F0000A0405F
:10204000414554523132333400000000E40800208E
:10205000200400200800002070B5F84D95F84500D8
:1020600040350BF0A6F9F6490BF0ACF80CF000F88F
:10207000F44E044630880BF09CF921460BF0A2F890
:102080000CF0B4F8F04C608030880BF092F9014607
:10209000EE480BF0C9F8EE490BF0C6F8E066688F21
:1020A0000BF087F90146EB480BF0BEF8EA490BF05C
:1020B00089F82067E94928680BF084F801464FF059
:1020C0007C500BF0B1F860670820FFF78BFF002809
:1020D00003D0BDE8704003F03DB970BD002801DDBC
:1020E000024600E042428A4201DA0020704700289E
:1020F00002DDA0EB01007047FDDA084470472DE9CE
:10210000F04F91B0D0E90045814686680F460868D7
:102110000BF0AEFF049038680CF074FB0590786803
:102120000BF0A6FF834678680CF06CFB8046B8681D
:102130000BF09EFF8246B8680CF064FB07465046E1
:1021400004990BF03FF80990384604990BF03AF8DF
:102150000890514605980BF035F8079039460598D8
:102160000BF030F80690594650460BF02BF81090C3
:102170008BF0004039460BF025F80746414607989A
:102180000BF020F808990AF0C5FF03904146069825
:102190000BF018F809990BF012F882460598594689
:1021A00080F000400BF00EF80590414609980BF0C6
:1021B00009F806990BF003F80290414608980BF0D5
:1021C00001F807990AF0A6FF0690584604990AF00C
:1021D000F9FF8346304602990AF0F4FF0090284642
:1021E00003990AF0EFFF0190204610990AF0EAFFE8
:1021F00001990AF08FFF00990AF08CFFC9F80000DE
:10220000304606990AF0DEFF0090514628460AF053
:10221000D9FF8246394620460AF0D4FF51460AF0DB
:1022200079FF00990AF076FFC9F804005946304654
:102230000AF0C8FF0646284605990AF0C3FF05467E
:10224000414620460AF0BEFF29460AF063FF3146A8
:102250000AF060FFC9F8080011B0BDE8F08F2DE961
:10226000F04387B080460BF0A4F87D490AF0AAFF3E
:10227000054675489830016881F000410391406837
:1022800080F0004004907748B0F900000BF088F827
:1022900075490AF097FF6C4C05908A34B4F9000038
:1022A0000BF07EF80090B4F902000BF079F8019081
:1022B000B4F904000BF074F8029003A96846FFF724
:1022C0001EFF5E4E8A3C96F84400012804D05D480B
:1022D00000880BF06EF817E0644840780028E06B47
:1022E0000CD1C11700EB9161A0EBA1100BF058F8D5
:1022F00002990AF00FFF0BF072F8E063C11700EBD0
:10230000916080110BF04CF802990AF058FF02908E
:10231000216C89460AF050FF07462946606F0AF093
:10232000F9FE014628460AF07FFF39460AF04AFFC7
:1023300049460AF0EFFE206400980BF057FF96F82C
:1023400030102F36FFF7CAFE494D2968084428602F
:1023500001980BF04BFF7178FFF7C0FE69680844E5
:102360006860206C0BF042FF3178FFF7B7FEA96878
:102370000844A860A16801EB0800A060E068401C68
:10238000E06007B0BDE8F0832DE9F05F2E4D044614
:10239000983528680BF06CFE834628680CF032FAFA
:1023A000824668680BF064FE814668680CF02AFA81
:1023B0000546D4F80880294640460AF003FF5946EE
:1023C0000AF000FF67680646514638460AF0FAFEF2
:1023D00029460AF0F7FE0546494620680AF0F2FE53
:1023E00029460AF097FE31460AF094FE044651460B
:1023F00040460AF0E7FE0546594638460AF0E2FE36
:1024000029460AF0D9FE21460BF004FD19490AF0CD
:10241000D9FE12490AF008FF0B49496B0AF07AFE0F
:1024200015490AF001FF0BF0E1FE00B2002802DAC4
:1024300000F5B47000B2BDE8F09F0000E408002091
:1024400035FA8E3CC80100200C0000200AE81C412F
:1024500000401C46000061444C3D0F44DB0F4940E6
:10246000BD378635F801002035FA8EBC380C0020C7
:10247000000A00200000E144000020412DE9F04165
:10248000044680680D4601460AF09CFE07466068D7
:1024900001460AF097FE0646206801460AF092FEC1
:1024A00031460AF037FE39460AF034FE0CF06EFA77
:1024B000064610F0FF4F0ED0314620680AF0B4FEF9
:1024C0002860314660680AF0AFFE68603146A06857
:1024D0000AF0AAFEA860BDE8F0812DE9F04F87B0B0
:1024E000002607F028FEDFF808B405465C46DBF856
:1024F0004400281A03900AF05CFFFE49C9680AF0FC
:1025000061FE0590DFF8F0A3656400249AF82E7050
:102510000BF18A054FF07E58F5487E3030F91400F3
:102520000AF03EFF05990AF04DFE4DF8240027B34E
:1025300038460AF03EFF014640460AF075FE8146E5
:102540000490EB48843030F914000AF029FF494622
:102550000AF038FE8146414604980AF030FEE74909
:1025600051F824100AF02EFE49460AF0D3FDE34943
:1025700041F824000AF033FF03E0DD48843030F8EE
:10258000140025F8140035F91400641C00FB0066E3
:10259000032CC1DB64204643D94869460088404388
:1025A00096FBF0F4D5481830FFF7A9FDD34EA0B242
:1025B000183649383C2826D2D2480024A946B0F81B
:1025C00062010AF0F6FE4546414604900AF0A2FD7B
:1025D000014628460AF028FE4FEA000539F91400A2
:1025E0000AF0DEFE074656F8241004980AF0EAFDC9
:1025F00039460AF08FFD29460AF0E4FD46F824002A
:10260000641C032CEADB5D46BBF902000AF0C8FE3D
:102610003446B1680AF030FF01D2012000E000200A
:10262000B949A1464873D4E901010BF0F3FBB04E60
:1026300098363060A06801460AF0C4FD074660681D
:1026400001460AF0BFFD39460AF064FD0CF09EF920
:102650000146206880F000400BF0DCFBAB4F70605F
:10266000394630680AF0AEFD0BF0C0FDA6F16004FB
:102670003946208070680AF0A5FD0BF0B7FD608038
:102680000820FFF7AFFCDFF888B2002869465CD06D
:102690009A480C38FFF733FD9A48984F0024464675
:1026A0000C3FB0F864010AF084FE314604900AF051
:1026B00031FD014630460AF0B7FD06468C489030A1
:1026C00030F914000AF06CFE804657F82410049884
:1026D0000AF078FD41460AF01DFD31460AF072FD10
:1026E00047F82400641C032CE8DB8448B0F10C009C
:1026F000FFF74AFEABF800000398FFF7B0FD9AF829
:102700007C00564600284AD0D9F808004C460146BD
:102710000AF058FD8046606801460AF053FD0746FE
:10272000206801460AF04EFD39460AF0F3FC4146A6
:102730000AF0F0FC0CF02AF90146A0680AF074FDDA
:10274000744988420DDC002028E06948A030FFF77A
:10275000D6FC6749A0310846FFF790FE6448A030D8
:10276000C6E70BF0C9FA296F0AF02CFD0BF03EFD0D
:102770004FF46171884200DD08460AF011FE664997
:102780000AF052FD0CF03EF8044696F87C000AF080
:1027900010FE21460AF016FD0BF028FDA88007B0B8
:1027A0005BE510B502F0CDFD0220FFF71BFC20B168
:1027B00002F0F5FCFFF791FE05E04D490020843161
:1027C0000880488088804F48494942797E31881F77
:1027D000012A06D08A8882800A880280498841803E
:1027E00010BD434BB1F90420B3F9064002EB44029B
:1027F000032492FBF4F28280DA80EDE73F49002067
:102800000C310860486088603949C860886070474A
:102810002DE9FE4F07F08FFC024635483830B0F9FD
:102820000010002901DD0B4600E04B42B0F9020028
:10283000002801DD044600E04442A34205DD0029F2
:1028400001DD084604E0484202E0002800DC404286
:10285000274C05B246F2A811A06CA2EB00098945ED
:1028600002D20020BDE8FE8F2C4EA264DFF8B0A09B
:102870003088DFF8B0B0204F4FF07E5840B3206E64
:102880002269C11700EB5171A0EBE10097F83110FC
:10289000491EB2FBF1F10844C117206600EB5170EC
:1028A000C0100AF07DFD51460AF0BEFC59460BF0FF
:1028B000B7FC41460AF083FC1B490AF083FC0AF08E
:1028C0008EFDE0650020206560653088401E308008
:1028D000094F216997F83100401EB1FBF0F00AF072
:1028E00068FD51460AF0A0FC59460BF099FC1DE02A
:1028F0000C000020780E0020E4080020F4090020DD
:10290000C801002020040020380C00204C3D0F445A
:10291000F80100208FC2753CEFB6B044F6010020EC
:1029200080E6C547B1DC423ED048874A4FF07E582A
:1029300041460AF044FCAD490AF044FC0BF056FC59
:10294000E16D7F6B461A394640460AF035FC8046F9
:1029500030460AF025FD41460AF034FC064660691F
:102960000AF01EFD39460AF02DFC31460AF0D2FB72
:102970000BF03CFC06464FF0FF3B6061FA2D01DD99
:10298000584613E028460AF00BFDDFF86482414602
:102990000AF015FC0746206A0AF002FD39460AF0E3
:1029A00011FC41460AF040FC0AF019FDA0F10108B3
:1029B00007462062B8F1C70F03D2F01B6761E061E0
:1029C00026E0E069361A6661002F21DDC7F59670B2
:1029D0000AF0E6FC87490AF027FC8246A0615146CE
:1029E0004FF07E500AF0E8FB009030460AF0D8FC29
:1029F00000990AF0E7FB064638460AF0D1FC51463A
:102A00000AF0E0FB31460AF085FB0AF0E8FC606161
:102A1000A0680AF0CEFC074677490AF0D3FB0646C9
:102A2000E0680AF0BDFC8246744880680AF0B8FC91
:102A300051460AF0F9FB8246E16E0AF0C3FB3946C3
:102A40000AF0C0FB0090206D314601900AF0BAFBFD
:102A50000746594600980AF025FC31460AF0B2FBB9
:102A600039460AF057FB616D0AF054FB834664480F
:102A7000C76B4FF07E5039460AF09EFB06466069F0
:102A800002900AF08DFC31460AF09CFB064639465E
:102A900058460AF097FB31460AF03CFB6065B8F1F6
:102AA000C70F01D2029801E00AF099FC6066DDE9E7
:102AB00000100AF02FFB2065FFF7A0FE48460AF041
:102AC00078FC07466669A06D301A0AF069FC4D492A
:102AD0000AF078FB39460AF0A7FB0AF080FC40F2C6
:102AE000DC525142A66505F029F80A21FFF7F6FAF3
:102AF000434E81464FF07E50D6F8388041460AF06A
:102B00005BFB074648460AF04BFC39460AF05AFB85
:102B100007464146206D0AF055FB39460AF0FAFA9D
:102B200020650BF063FB07460521FFF7D7FA20630A
:102B3000B5F5487F57DA20784FF49678C8F1000948
:102B4000C8B3A06A4246C51BB07A6843C11700EB00
:102B5000D1604011494604F0F1FF6062307DE16AC6
:102B6000294A00FB05105142E06204F0E7FF42F2FF
:102B70000401E06290FBF1F0616A08446062504633
:102B8000E16C0AF0C7FA0546B07F0AF012FC29464C
:102B90000AF018FB6FF008010AF084FB0AF01FFC32
:102BA0009622514204F0CAFF616A081AC4F84CA088
:102BB0006062012056E6FFE7D4E91910401A4FF48D
:102BC000FA72514204F0BAFF0A21FFF787FA014670
:102BD000307942464843C11700EB5160C011494665
:102BE00004F0ACFFAEE70020E0E70000D048874AE1
:102BF000000061440000C842BD378635000A00204D
:102C0000E4080020002474492003190070B5D84D51
:102C10000446286808F0DCFF0028FAD0E1B22868F2
:102C200008F0BEFF204670BD88B0FEF7FBFE002016
:102C3000FFF7C9F9FEF72AFFCE4CA07B00B10120B7
:102C400009F05DF9CC48CD49CD4D00680126884298
:102C500001D12E6004E0CB49884201D102202860D6
:102C600007F09BFA0820FFF7D2F930B194F88A01F7
:102C700008B1012801D104F02EFE642007F01CFBEE
:102C8000FEF727FF08F093FB022802D128680228EC
:102C90001ED02868032802D0012006F0EFFC94F82B
:102CA0008101002528B1012815D0092813D0052855
:102CB00011D08DF8185084F8815100BF94F8980114
:102CC00098B101280AD0092808D0052806D00CE0C0
:102CD00003202860E3E78DF81800EFE794F88111EE
:102CE000884202D08DF8190003E08DF8195084F85D
:102CF000985106A806F09EF80220FFF788F908B15F
:102D000002F024F904F022FF0E20FFF773F901F01E
:102D1000B9FF10B9032007F0DAFA9B494FF0100A07
:102D2000C1F800A0A1F104084FF00809C8F800900C
:102D30000027A8F1040B00BFDBF8001081F01001A0
:102D4000CBF80010DBF8001081F00801CBF8001080
:102D5000192007F0B1FA012007F00AFA192007F04C
:102D6000ABFA002007F004FA7F1CFFB20A2FE3D36E
:102D70004F46C8F80090C8F800A0FFF76DF900F0C2
:102D800072F9D4F8A40102F08EFC60790E280BD001
:102D9000082809D0182807D08DF806504FF4807005
:102DA000FFF735F938B902E08DF80660F6E708203C
:102DB000FFF72DF900B101208DF802004020FFF748
:102DC00026F98DF803000120FFF721F98DF80100A5
:102DD0000820FFF71CF9DFF8988180F001008DF8DA
:102DE0000000DFF8A89198F816008DF8040099F813
:102DF000D6004FF47A7AC0F380008DF80500B4F85D
:102E00004E01ADF80A00B4F85001ADF80C0094F88A
:102E100052018DF80700ADF80EA04FF48040FFF787
:102E2000F6F818B1B4F84A01ADF80E00BDF80A0082
:102E3000B0F5FA7F01D9ADF80E504FF48030FFF7AE
:102E4000E6F88DF814004FF40030FFF7E0F88DF845
:102E50001500B4F88E01ADF81000B9F8D200ADF845
:102E6000120094F88101012826D0092827D08DF876
:102E70000850684607F022F89DF8160088F81700F9
:102E8000434B002040F2DE5223F81020401CC0B219
:102E90001228F9D340483F4A026088F8157008208C
:102EA000FFF7B5F810B394F88A0106281ED2DFE8C0
:102EB00000F00A0A0E12161A8DF80860D9E70720EA
:102EC0008DF80800D5E7344804F0DDFC0EE0324808
:102ED00004F0AFFF0AE0304805F062F806E02E4843
:102EE00005F065FC02E02C4805F03EFF94F89F01D8
:102EF00003F067FB0120FFF78AF830B14FF48060E0
:102F0000FFF785F808B102F0B2FA4020FFF77FF82A
:102F100048B194F8AC11D4F8A80108F05FFD94F81A
:102F2000AD0108F06EFD4FF40060FFF770F808B1D6
:102F300005F0CAFA07F0FFF818490860607905281B
:102F400003D117494FF4C87008801649C820A1F86A
:102F500000A015490880154880F80D6001F01DF9A2
:102F6000FCE70448B0F9440100F0F9F9FEE700007D
:102F7000180A002020040020BC03002000127A0060
:102F8000C8000020001BB700140C0140E40800201A
:102F90004C0C00202D3D00081801002014010020D9
:102FA000C4010020C6010020F6010020380C0020DA
:102FB000014600EB8102FE4800EB4200B0F98200BE
:102FC000122804DA082902DAFA4931F910007047A8
:102FD000F74A00EB800002EB40000122B0F88600C7
:102FE0008A40104202D04FF0FF30704701207047F6
:102FF00070B5F14C002070216070F04809F0FCFFC2
:10300000EE4DEF49002000BFC0EBC0035A1892F804
:10301000D260002E0ED02B4452F8D06F1E609688DE
:103020009E8092799A716278401C521CC0B2627084
:103030001028E9D370BD2DE9F041E04E0024E04DA9
:103040004FF48047D83E3846FEF7E1FF10B1B5F89F
:103050004A0101E0B5F8440126F81400641C0C2C68
:10306000F1DBBDE8F0812DE9F05FD54DD54E6879F3
:1030700006EBC000407808B1012100E00021DFF834
:1030800048A320208AF81610FEF7C1FF10B10120D6
:103090008AF816006979DFF82493C74CA9F1C009B2
:1030A00017290AD016F8312006EBC10022704068BB
:1030B0005FEA000B25D0002021E000204FEA09083C
:1030C00005EB0012136913F0FF4F1AD0143208EB0E
:1030D000001692E8841008C6401C86E88410227806
:1030E000521C22700C28EBDB0BE000BF0BEB001630
:1030F00009EB001396E8C01183E8C011401C904210
:10310000F4DB9AF81600E0B1AE48C83010F8312070
:1031100000EBC1006270416899B10020A74E0EE03B
:10312000C0EBC003CF183344D7F800C0C3F800C0C9
:10313000B7F804C0A3F804C0BF799F71401C904247
:10314000EEDB4FF48040FEF762FFD8B12778012F05
:1031500018D9002614E000BF09EB06144FF0FF3821
:103160004146A0680AF09EF8A060414660680AF0F7
:1031700099F860604146E0680AF094F8761CE060D7
:10318000BE42E9DB68799149082808D00E2806D0AC
:10319000182804D000200874BDE8F05F4BE7012236
:1031A0000A741828F8D1FFF723FFF5E770B500225D
:1031B0008349144610F10100C2EBC2030B44521CB8
:1031C00083F8D64083F8D24083F8D14083F8D040CA
:1031D000102AF1DB7B4B0022C83303EBC00413F849
:1031E00030000CE0C2EBC2036568521C1D440B4466
:1031F0002E6843F8D06FAE889E80AD799D71904265
:10320000F0DC70BDF0B500216D4A0B4610F10100F5
:1032100002EB0114491C23610C29F9DB694B03EB18
:10322000C0014C68002C0FD0002113F8300009E0D9
:1032300004EB011302EB011593E8C8101035491C8B
:1032400085E8C8108842F3DCF0BD5F4810B5807D8A
:10325000002872D0584C5A48A41C4079E188228931
:103260000E2836D008DC012817D0042826D00528DF
:103270000DD0082806D127E014281FD0152828D003
:10328000182834D02020FEF7C2FE002855D021880F
:10329000002006F0CDFE61880EE047494448891CB5
:1032A00090F8D500498908B1002042E047484078AD
:1032B0000028F9D10021F7E701203AE0114600206B
:1032C00006F0B6FE6189F7E7002006F0B1FE21891D
:1032D000F2E7002006F0ACFE2189012006F0A8FEEE
:1032E0006189022006F0A4FEA189032021E00020CC
:1032F00006F09EFE2189012006F09AFE61890220D7
:1033000006F096FEA189032006F092FE0120FEF74A
:103310007EFE002811D02188042006F089FE6188F5
:10332000052006F085FEA188062006F081FEE189D1
:103330000720BDE8104006F07BBE10BD70B51F4EE3
:103340000024F03E1C4D06E036F81410204606F02E
:1033500068FE641CE4B228788442F5D370BD164A36
:10336000164B00211278F03B04E000BF23F8110057
:10337000491CC9B29142F9D3E0E72DE9F04F134857
:1033800089B0807A08B1124800E012480188ADF88F
:1033900000104188ADF802108088ADF8040007489D
:1033A000F0380088ADF806000548B0F88E1113E03B
:1033B000E40800204C0C0020CC000020400B002032
:1033C0002004002050FB0008180A0020380C0020C0
:1033D0008001002068010020FE48FF4D02898A1A02
:1033E000ADF8082042898A1AADF80A2082898A1A23
:1033F000ADF80C20C2898A1AADF80E2002888A1A0C
:10340000ADF8102042888A1AADF8122082888A1AF4
:10341000ADF81420C088081AADF816000020014647
:1034200025F81010401CC0B289460828F8D3DFF8F0
:10343000A8A30024DFF8A4B3AAF1020A61E000BF48
:10344000E748C4EBC4010E18B27912B1E54BD25C67
:1034500082B310F80180E44808EB880100EB4100DA
:1034600096F90420B0F88010B0F87E007778081A3A
:1034700080B24243642192FBF1F2A2EB500212B2FD
:10348000079296F90520424392FBF1F1A1EB50001F
:1034900000B20690F07840B13BF914103DF91730B6
:1034A000994208DA08441A460AE03DF817102BF84A
:1034B000141009E021E007DDA1EB00000A461946DF
:1034C00004F03CFB2BF8140039464046FFF780FD22
:1034D00007463BF9140096F902104843642190FB1B
:1034E000F1F0DDE9062104F029FB014635F9180069
:1034F00007FB010025F8180001E02BF81490641C6C
:10350000E4B29AF8010084429AD30023B64C6426B0
:1035100003EB830004EB400035F9131090F98400AD
:10352000484390FBF6F025F813001846FFF740FDDE
:1035300035F81310084425F813005B1CDBB2082B88
:10354000E6D309B0BDE8F08F2DE9F84FA24CDFF8C3
:103550009CA2A41E2078032815D9BAF90400414280
:10356000002801DD024600E00A4602F1640200DCA8
:1035700008469F4D6FF06301A1EB0001B5F904000F
:1035800004F0DCFAA8809448944D801EDFF858823D
:1035900007782035012F3AD9002436E0DFF8509221
:1035A00098F9D400B9F904104042484309F0F8FEF4
:1035B0008A49503101EB0416F16809F003FE0090CE
:1035C000B9F9000009F0ECFE716809F0FBFD8346D3
:1035D000B9F9020009F0E4FEB16809F0F3FD814693
:1035E000BAF9060009F0DCFE316809F0EBFD494646
:1035F00009F090FD594609F08DFD009909F08AFD0A
:1036000009F0EDFE25F81400641CBC42C6D3DFF8B7
:10361000E491794C99F8100058B199F80100C8B1BB
:10362000B4F84221B4F84011BAF9060004F086FA61
:103630002880A2466079714F3226674C0E2812D03E
:103640000BDC01280FD004280DD005280ED0082847
:1036500025D108E0B4F84401EAE7142803D015287E
:1036600001D018281BD1FFF788FE18E098F98400D4
:10367000B7F90210C446484390FBF6F30020FFF769
:1036800097FC184420809CF98E00B7F9001048433D
:1036900090FBF6F30120FFF78BFC1844608020209C
:1036A000FEF7B5FCC8B30020FFF782FC20800120A4
:1036B000FFF77EFC4B4960801439097A69B398F8AA
:1036C000D620920798F9842016D5B7F9023098F9D8
:1036D0008E10B7F9007052425A43794392FBF6F3C9
:1036E00091FBF6F792FBF6F291FBF6F1DB1B2788D4
:1036F0001144FB1A23800EE0B7F902305A4392FBC3
:10370000F6F223881A44228098F98E10B7F9002027
:10371000514391FBF6F10844608000264FEA080708
:1037200006EB860007EB4000B0F98020B0F97E1070
:1037300034F9160004F002FA24F81600761C082E5C
:10374000EED32948DFF88CB090F8D60040070FD5AB
:103750002B480026D846C77DB7F1040708EB460082
:103760000189F019C0B206F063FC761C042EF5D373
:1037700019490120891EB5F900700B7806E000BFD9
:1037800035F91020BA4200DD1746401C9842F7D3A5
:103790000026884689E000BFBAF84201B84205DA3F
:1037A00035F81610381A081A25F816004FF480401C
:1037B000FEF72DFC30B3BBF90610BAF88E2191420A
:1037C0002DDDBAF84221BAF8481135F9160004F097
:1037D000B5F918E04C0C0020CE000020300A002083
:1037E000400B0020AA0C0020E408002080010020EB
:1037F00068010020380C0020200400204400002034
:10380000180A002024E025F816009AF8050001287F
:103810003FD12948B0F9B220B0F9B01012E0BAF89F
:103820004621BAF8441135F9160004F087F925F855
:1038300016009AF8050001282BD11F4830F9B02F47
:10384000B0F90210B4F90A0004F078F9608120E0C0
:10385000BAF84221BAF8401135F9160004F06EF9B1
:1038600025F81600BBF90610BAF89001814214DA67
:103870001020FEF7CCFB40B1BAF8440125F8160041
:103880005FF0010189F8111003E0BAF8400125F852
:10389000160099F8010010B106E00021F2E7074890
:1038A00030F8160025F81600761C98F800008642BD
:1038B000FFF472AFBDE8F88FE4080020680A00202A
:1038C0002DE9F0471746894606460025DFF8208493
:1038D0001AE0002411E000BFD8F8001081F00801C0
:1038E000C8F80010012006F043FC484606F0E4FC4E
:1038F000002006F03DFC641CE4B2B442ECD33C2052
:1039000006F0DAFC6D1CEDB2BD42E2D3BDE8F087F3
:103910002DE9F84FF74AF84CB2F90630E08C8342B3
:1039200001DA642510E0F449B3F5FA6F91F8251037
:1039300008DA1D1A4D43C0F5FA6095FBF0F0C0F1AE
:10394000640501E0C1F16405DFF8B0E3A14694F835
:1039500076B094F877A0BEF88E410021E54840F299
:10396000E63C30F91160301B00F2F317674503D8CD
:10397000002803DCA01B01E04FF4FA70022933D0C9
:10398000BBF1000F05D0834502DAA0EB0B0000E08D
:103990000020642290FBF2F2D64F6FF01808243713
:1039A00007EB420C37F91270BCF902C002FB08F2B7
:1039B000ACEB070C00EB82020CFB02FC64229CFBCC
:1039C000F2F23A44CE4F27F8112099F823204243CF
:1039D0004FF4FA7092FBF0F0C0F1640080B26843DB
:1039E000642290FBF2F01CE0BAF1000F05D0824592
:1039F00002DAA0EB0A0000E000209EF95C21DFF86B
:103A000000C352424243ACF8042099F82420002815
:103A100000DC404242434FF4FA7092FBF0F0C0F1F8
:103A2000640009EB0107642297F801C0DFF8D08237
:103A30000CFB00FC9CFBF2FCA8F17C0808F801C020
:103A400097F80BC008F103080CFB00FC9CFBF2FC90
:103A500008F801C07F7D474397FBF2F008F10302AD
:103A6000A642505405DAA64830F81120524220F8F8
:103A70001120491C0329FFF671AFF1467446BEF8C8
:103A8000901118464FF4FA6204F058F8B4F8901107
:103A90004FF47A72401A5043C1F5FA61B0FBF1F26B
:103AA000642192FBF1F0934B6FF01805323303EB76
:103AB000400433F91030B4F902406843E41A02EBD1
:103AC0008000444394FBF1F08D4D8A4E1844143E1F
:103AD000E880707AA5F1A004E0B38A48B4F9161022
:103AE000B0F90000401A09F05BFC874909F06AFB55
:103AF000864909F099FB07460AF0BAFA0090384661
:103B00000AF080FE8346B5F9000009F049FC8246C0
:103B1000594609F057FB0746B5F9020009F040FC89
:103B20008046009909F04EFB394609F0F3FA09F096
:103B300056FC07464046594609F044FB804650462D
:103B4000009909F03FFB414609F036FB09F047FCBC
:103B500028806F800220FEF75AFA0027E8B3A18977
:103B6000206D084420656079401CC0B20621B0FB7E
:103B7000F1F2607101FB120080BBA06CC11700EB79
:103B80005171A0EBE100A064002005F0D9F9A16C0F
:103B90000844C117A06400EB5170C0F3CF0001F0DE
:103BA000AAF9208399F88101C0B1E06CC11700EB3C
:103BB0005171A0EBE100E064022005F0C1F9E16C75
:103BC0000844C117E06400EB5170C0F3CF0001F06E
:103BD000AAF9E066216D484301E01FE012E04FF4CE
:103BE0007A7190FBF1F0464AC117203AD2E90635C6
:103BF000C0186941C2E90601454A002309F084F969
:103C000027652067208B618C884201D8012003E062
:103C1000218C884202D8022003F0C4FE03F04DFF3D
:103C20003C48334D008818B10220FEF7DBF910B98B
:103C30003948008820B1286880F0080028600CE02E
:103C4000B178082011B12A49091D0860717811B1B5
:103C500027490831086004F01CFC8020FEF7D7F9E2
:103C600048B1616D206B411A05D44CF250310844C3
:103C7000606506F061FE616C206B411A03D4717BB4
:103C800039B10120B07002F091FB2448007848B1AE
:103C90000FE0B770296881F00801296020490844C5
:103CA0006064F0E74FF40060FEF7B1F908B104F08A
:103CB00028FC2020FEF796F968B1A16D206B411A0F
:103CC00009D4A17A052906D316490844A0652868B5
:103CD00080F01000286014488168002905D001B0E8
:103CE0000748BDE8F04F86380847BDE8F88F000068
:103CF0000C0C01404C0C0020E408002020040020A3
:103D000080010020F8010020DB0F4940000034430F
:103D1000407E0500C4010020C601002000000020F4
:103D200020A10700F0490200780E0020FE49084457
:103D300090F8820106F087B92DE9F0470820FEF7D8
:103D400066F9FA4EFA4D4FF0000440B1B16BE0B2A3
:103D5000884725F81400641C082CF7DBD6E5F44FDF
:103D600040F2DD584FF00009903FB16BE0B2884758
:103D7000A0F2EE21414502D3EB48B0F88E01F16D7F
:103D800007EBC402CB1701EB937323F00303C91AAB
:103D900022F8110025F814905FF0000035F8143077
:103DA00032F81010401C194425F814100428F5DBD3
:103DB00035F91400C11700EB9170801025F814003C
:103DC000641C082CD1DBF06D401CF0659EE570B5DD
:103DD000D848D74C143C01886078D1B9A178C1B1DA
:103DE00000281ED101206070D348D04D0088E882A1
:103DF0004FF48070FEF70BF930B1E07A20B1A87A69
:103E0000052801D3072000E00620BDE8704003F03C
:103E1000C9BD002805D1BDE870400122FF21022064
:103E20004EE570BD2DE9FC5F002083460546074640
:103E30000190BE48A030B0F902104B42002901DDCC
:103E40000C4600E01C468246B0F9000042420028C1
:103E500001DD064600E01646B44205DD002901DD1D
:103E6000084604E0184602E0002800DC1046DFF8AF
:103E7000CC9200240090AE4E143EF07808B9307910
:103E8000F0B3022C40DAA9487C3030F914103AF92A
:103E9000140001EB4000A449B1F86821514203F03D
:103EA0004DFEA749DFF89CB231F91410411A0BEB13
:103EB0004400B0F92A0001EB00089BF808106420C8
:103EC00001FB08F191FBF0F09BF81C1001EB810263
:103ED000494201EB810103F031FE0190934842F227
:103EE0001072903050F8241001EB0800514203F09A
:103EF00025FE8E49903141F824009BF8121000E015
:103F000008E048434FEA203BF07818B1307908B90F
:103F1000022C4FD13AF91450854F05EB8500010171
:103F200088489C3F00EB04084FF47A5298F801004F
:103F300091FBF0F039F91410401A57F82410084496
:103F4000514203F0FBFD47F8240039F9140000F555
:103F50002070B0F5A06F06D8022C07D1BAF9040082
:103F60006430C82802D9002047F8240057F82400FC
:103F70007D2190FBF1F198F80B00414330798F11CE
:103F8000B0B1022C14DA0098009BC0F5FA710198C8
:103F900001FB00F2009801FB0BF105FB00204FF440
:103FA000FA7207FB031190FBF2F091FBF2F608E0C6
:103FB000F07820B1022C02DA5E46019801E0284632
:103FC0003E465A4A39F9141024325023125DDFF864
:103FD00060814A4392FBF3F2544B821A8233A8F178
:103FE000500833F9140023F81410081A08F10C01D2
:103FF00058F8243051F824C041F824309C448444BB
:1040000048F8240049482A30005D00FB0CF0C11735
:1040100000EBD1609119A1EB60104449883121F87F
:104020001400641C032CFFF626AFBDE8FC9F2DE9AD
:10403000F05FDFF8F8B03E4E00240BF1A00BDFF884
:1040400004A19C3EDFF8E49001E0022C6BD03748DD
:104050003BF914107C304FF4FA7230F91400084424
:10406000514203F06BFD3649554631F91410401AA0
:104070000AEB4401B1F92A10084409F091F93249D8
:1040800009F0D2F809F0ABF9294A143AD178E9B32A
:10409000297A41430911AA4628480AEB040730F956
:1040A0001400FA7A0D1A787856F8241068434FEA0B
:1040B000E018B9F80C006843C01200FB02104FF47E
:1040C000001246F82400514203F038FD46F824005F
:1040D00043131748203850F8241040F82450B9F8FA
:1040E0000C00691A02094FF6FF70B0FBF2F048436A
:1040F0000F498011383901F10C0251F8245052F85F
:1041000024C042F82450AC44844400E02EE041F83E
:104110002400787D08EB030100FB0CF001EB20206C
:104120000249883112E019E020040020E00000205C
:104130004C0C0020C6010020F80100208400002063
:1041400044000020E40800200000204121F8140071
:10415000641C032CFFF679AFBDE8F09F9AF82400A9
:10416000BBF904101B304843411195E795F8231023
:104170003BF914301B31594312790911002A8AD0B6
:10418000AA7C424301EB222185E7F949012801D0AD
:10419000F84800E0F848C86370472DE9F84F4FF041
:1041A0000008C146C34645460820FDF730FFDFF84A
:1041B000CCA3B8B19AF88A01062813D2DFE800F040
:1041C000030306090C0F03F083FB0AE003F05EFE15
:1041D00007E003F0F5FE04E004F0DEFA01E004F08D
:1041E000D3FD0546E248E64C4FF00107016B006E37
:1041F0004FF00006081A01D5002D7CD0DC4D44F6A6
:10420000206211442966FFF797FD4FF48040FDF7C7
:10421000FEFE28B1DA485E30007808B900F006FDED
:1042200000F034FED24988834FF40070FDF7EFFEB2
:1042300020B94FF40040FDF7EAFEE8B3D148CC4D79
:1042400090F8CE0000EB8001B5F90E0081422ADA29
:10425000607840B3CA490020BAF98E2111F11401E7
:1042600021F81020401C0328FADBC648B0F8D00023
:10427000C880032003F096FBC24890F8CE1090F857
:10428000CF00084400EB8001B5F90E00814207DA47
:10429000A07C28B900F0CAFC2670042003F082FB41
:1042A000298A491C2982B74890F8CE0000EB80018A
:1042B000B5F90E00814200E00BE007DA607828B91A
:1042C00000F0B4FC2670042003F06CFBE989491C63
:1042D000E981BAF89051BAF892310020A8494FEA22
:1042E0009808143131F91020AA4201DD48F0800805
:1042F0009A4203DA00E0D1E248F04008401C04286A
:10430000ECDB9B4DE879804505D1A879FA2803D2EA
:10431000401CA87100E0AE7185F807804FF480481A
:104320004046FDF774FE68B1954ABAF88E11143212
:10433000BAF84C01B2F906200B1A934202DA08448B
:1043400090420BDC4046FDF762FEF0B98C48143019
:10435000B0F90610BAF89001814216DA88484FF099
:10436000010B8838066046608660814890300660A0
:1043700046608448B0F84600C8B181485E30007895
:1043800058B1207898B1FFF722FD7E48B0F846007A
:1043900068B17B485E30007848B9607838B19AF8E7
:1043A000950110B9BBF1000F01D000F03FFCA879D6
:1043B000142818D16078B8B1DFF8C881B8F8460081
:1043C00020B9E8795F2801D100F030FC9AF8940117
:1043D000002808D0B8F84600002804D1E8797D28E4
:1043E00001D100F023FC8CE0E879572807D00420A5
:1043F000FDF70DFE58B3E8795A2819D027E0624935
:104400004FF47A7008804FF48070FDF700FE08B119
:1044100002F037FC0420FDF7E5FD10B15B490A20EE
:1044200008800820FDF7DEFD88B9594806800EE0B7
:10443000A87810B1AE70EF7023E0687890F00100BA
:10444000687001D00A2000E00B2003F0ABFAE87995
:104450005D2804D05B2804D05E2804D011E0012040
:1044600002E0022000E003208046401E8AF8C004DB
:1044700000210846FDF795FB424628210220FFF760
:104480001FFADFF80081B8F8460010B9E9796F2902
:104490000CD09AF8941119B110B9E8797E2805D09A
:1044A000E879972805D0A72808D008E0FFF78FFC07
:1044B00005E038494FF4C870088000E0A773E87938
:1044C000BB2806D0B72808D0BE280CD0BD280ED0F7
:1044D00017E0B8F82C10891C02E0B8F82C10891EDF
:1044E000A8F82C1008E0B8F82A10891C02E0B8F8E7
:1044F0002A10891EA8F82A1001210846FDF751FB51
:10450000AE710420FDF783FD18B36978322079B1CC
:10451000617869B11A491431B1F90620BAF89011DD
:104520008A4205DD16495E31097809B968826E70E4
:1045300013495E31497C31B12979AA78114300D100
:1045400068822F7105E0A87818B1607808B9AE705C
:10455000EF70DFF82CE000200EF1140E0EEB40019E
:10456000B1F9082040F214518A4215DA012314E00F
:10457000E0000020253E00082F4000082004002015
:10458000380C0020E4080020C6010020F6010020BD
:10459000F8010020C4010020002300EB40018B4003
:1045A000A2F2155CBCF5C77F02D84FF0010C01E008
:1045B0004FF0000C01F101080CFA08FC43EA0C036F
:1045C00040F2A46C624501DD012200E00022891C5A
:1045D0008A40134343EA0903401C1FFA83F9042865
:1045E000BCDBFF49DFF8FC83002000BF08EB400282
:1045F000B2F8462012EA090200D001220A54401CF7
:104600001828F3DB4878894638B998F8CE00B5F910
:104610000E1000EB800088421CDA0220FDF7E2FC5D
:10462000C0B1E07818B9F04806604660E7704FF412
:104630000040FDF7ECFC78B198F8CE00B5F90E100B
:1046400000EB8000884207DA2020FDF7CBFC18B190
:10465000A77401E0E670A67499F8021039B1E6700B
:10466000217929B9E0490E604E60277100E026717A
:1046700099F8000000B92770E178102009B9217974
:1046800009B1DA4901E0D949091F08600420FDF7A2
:10469000A9FC00B399F8030078B1A07970B9D448A7
:1046A000A7710168D3480160CF481030C088A88244
:1046B000D1480660D148066000E0A6714FF4005072
:1046C000FDF7A5FC38B199F8040018B1E07B10B9EA
:1046D000E77300E0E6730220FDF784FC18B90820B8
:1046E000FDF780FCC8B199F80510484639B16179E9
:1046F00031B9C34967710A88C2490A8000E066710E
:10470000817919B1617A11B9677200E0667299F81E
:10471000070010B1BA480088E8822020FDF762FC4B
:10472000F0B3E07AE8B3A87A052850D399F80A10D4
:1047300009B9A17C89B1E079A0BBA949E7712672CA
:104740001E312E72081F02F0BDFF02202870A448FF
:10475000E98B26308160E77435E0E67199F80B004B
:1047600050B3A14A1032B2F90000002800DC4042E8
:10477000B8F8E21088421FDAB2F90200002800DC23
:104780004042884218DA207A60B9974A94482772E2
:1047900018322E722630116801605168416002E0C3
:1047A00018E014E00FE0011D02F08CFF8C482F7020
:1047B0002630E98B816005E02672287A18B92F72BD
:1047C00002F01EFFE6740C2003F0ECF802E0E67144
:1047D00026722E7099F80C0008B1A07C48B1A67220
:1047E0009AF80500082806D00E2804D0182802D010
:1047F0002AE0A772F4E766724FF40070FDF707FC39
:1048000010B398F8CE00B5F90E1000EB4000B1EBF4
:10481000400F19DDA672E77071490020BAF98E21A8
:10482000B1F14A0121F81020401C0328FADBB8F846
:10483000D000C880E07A38B9A87A052804D8A674D0
:10484000BAF88E01323808801020FDF7E0FB20B363
:10485000607810B3207C00BB286CBBF1000F1AD02D
:1048600068B105F082FC296C884204D99AF8760177
:1048700008B100F0DBF9092003F094F84AE005F0F4
:1048800074FC9AF8761101EB4102C2EBC11100EB06
:10489000C1002864EFE700B12E643BE0524D903D2B
:1048A000A86E052836D2DFE800F0030B151F2A009A
:1048B0000820AF66FDF796FB10B100F05EFD48BB27
:1048C000A86E401CA8660420FDF78CFB10B100F018
:1048D00088FCF8B9A86E401CA8660420FDF782FB8E
:1048E00010B1FDF795FFA8B9A86E401CA8664FF45B
:1048F0008070FDF78CFB10B102F0E4FD0AE010209F
:10490000AE66FDF76FFB08B100F0BCFD4FF4005040
:10491000FDF77DFB05F00FFC334D903D2863BAF8A1
:104920000C2012B16B6EC31A6ED41044D046686668
:10493000FDF737FF05F0FFFB2863A98E411AA98117
:104940006863FEF7E5FF0820FDF74CFB48B32649F6
:104950001031B1F9042002F145008A2822D860798B
:1049600000B32748038827480088181A00B210F1BE
:10497000B40F02DC00F5B47000B2B42802DBA0F57D
:10498000B47000B298F95C315B42434318B2637B68
:104990003BB1144B5B7A43431E2093FBF0F0101A9B
:1049A000888003E016480188164801800420FDF73E
:1049B00019FB70B1A07960B1207C30B30A480F496F
:1049C000103098F99631B0F90220096801FB0321F3
:1049D0004180DFF8109099F87C00B0B3E07815E0E2
:1049E000960C0020E408002070010020140C014007
:1049F00070000020740000203800002030000020EB
:104A0000F8010020FA0100200EE101E0D8BB4DE0E2
:104A10008F49DFF84092B5F9143091F87900B9F96F
:104A20000620E8B1A2EB030CBCF1000F01DCA3EB04
:104A3000020C91F87800844508DD87499A420E609F
:104A40006F7200DD4042104407E037E0687A18B327
:104A500082480168824801601DE0A9F80600B8E7B5
:104A6000D01A002801DD024600E09A1A91F878C0B9
:104A70007C49624508DD7C4A00EBD0704010106034
:104A80000F706F7208E013E0687A28B1734802680B
:104A9000734802600E706E727448B8F84221B8F81C
:104AA00040110068184403F049F8D6E7207928B18E
:104AB00068486F4AC18812881144C1802020FDF7E0
:104AC00091FA10B3634FE079243F08B9207AE0B33C
:104AD000207BD0B3674EB6F9000008F061FCDFF828
:104AE0009881414608F06EFB09F08CFE0090B6F903
:104AF000000008F055FC414608F064FB09F0B8FAE4
:104B00008046207C10B103F074FE83E0514C99F88C
:104B1000DB00DFF868A14E462C3CE8B3A146B4F9AF
:104B20000200241DB4F90210401A01F058FE16F8D4
:104B3000DB2F514203F002F8618808446080B9F924
:104B40000000B4F90010401A00E060E001F047FEF8
:104B50003278514202F0F2FF2188084400B22080EE
:104B600008F01EFC8346009908F02CFB0646B4F9B9
:104B7000020008F015FC8146414608F023FB31464F
:104B800008F01AFB5646514608F04EFB08F027FC89
:104B900038805846414600E00BE008F013FB04461D
:104BA0004846009908F00EFB214608F0B3FA31465A
:104BB00027E0B4F9000008F0F3FB8346009908F001
:104BC00001FB0646B4F9020008F0EAFB81464146C3
:104BD00008F0F8FA314608F0EFFA5446514608F06A
:104BE00023FB08F0FCFB38805846414608F0EAFAFF
:104BF00006464846009908F0E5FA314608F08AFA78
:104C0000214608F011FB08F0EAFB788002E03E80C4
:104C10007E80BE80E86B8047FEF796FCFEF715FBB2
:104C2000BDE8F84FFEF78ABBBDE8F88F144810B511
:104C3000417800290AD000244470052002F0B2FE19
:104C40000448A038016C002900D0046410BD0000A5
:104C5000E4080020800100203800002070000020BF
:104C6000740000200C0000203400002030000020E0
:104C700010000020F801002035FA8E3C0000204191
:104C8000380C00202DE9F84FFE4CFF4BFF49002661
:104C90003746B4F860219B46A1F1100005F046FFAD
:104CA00008B101271AE0FA480068032809D1F7493A
:104CB000B4F86021A1F1100007F01DF808B1012639
:104CC0000CE0B4F86011F14806F02EF930B9B4F8F0
:104CD0006011EE4804F0A1FF00287CD0ED4D4FF0AC
:104CE000020A4FF001094FF0000800BF94F85D017F
:104CF00007284BD2DFE800F008081A3742290400E1
:104D00000220FDF77CF941E08DF800804FF44870F7
:104D1000DE49ADF802001039684604F0BAF908B16E
:104D200085F8009094F85D0101282FD06FB1D74924
:104D3000B4F860215B46A1F1100005F0F7FE85F89C
:104D400000A094F85D0102282DD066B1CF49B4F8D7
:104D50006021A1F1100006F0CEFF0520287094F824
:104D60005D0105281FD0C948103805F0D9FF28B1CA
:104D70000320287094F85D01032814D0C34810382C
:104D800006F0EDFE10B1042028700CE0287850B930
:104D900094F85D01401E052802D284F85D81A5E7E4
:104DA0000220FDF72CF9B948203004F017FA38B981
:104DB000B648203006F0BBF910B90420FDF71FF902
:104DC0000220FDF70FF928B1B04994F854011039C9
:104DD0000968884700E057E0AC4994F85301096836
:104DE00088474E464FEA080794F85E0148B101280B
:104DF00007D002280FD0032815D10820FDF7FFF8AF
:104E000011E0A248103004F010FC20B16E7094F84C
:104E10005E01012814D09D48103007F008F810B149
:104E200085F801A00CE0687850B994F85E01401E46
:104E3000022802D284F85E71D6E70820FDF7DFF879
:104E400095486421B0F9280090FBF1F216B290FB6E
:104E5000F1F201FB12040820FDF7C4F88F4D88B170
:104E6000204608F09DFA8E4908F0ACF90446304619
:104E700008F096FA214608F04DF98A4908F0A2F99F
:104E8000286000E02F600120BDE8F88F10B57D4C50
:104E9000002094F89711B1B183484FF47A7200EB77
:104EA00041000021B0F90600A0F57A7002F046FE3C
:104EB00008F076FA7D4908F0B7F97D4908F082F9E3
:104EC00008F0A6FA15E094F89811002912D00320F2
:104ED00004F036F8B4F89C1140F2FF32401AB4F8EE
:104EE0009A11C0EB802090FBF1F000B2002102F09B
:104EF00025FE80B210BD70B50546624890F87D0170
:104F000008F057FA0446284608F053FA694908F0B1
:104F100059F9694908F088F9214608F053F908F071
:104F200077FA80B270BD40F6E441484340F6FF7125
:104F3000B0FBF1F05349B1F87A21B1F87811801A39
:104F40004FF47A72504390FBF1F0704770B5002532
:104F50002C46002003F0F4FF05440A2005F0ACF9CC
:104F6000641C202CF5D3C5F34F10FFF7C4FF454A4E
:104F7000012192F87E3100BF03FB01F4844202D884
:104F8000491C0829F8D34D484D4B017092F8800117
:104F90004843188092F87F0148434A49088070BD11
:104FA0002DE9F05FDFF8EC90474E3B4FB9F8042055
:104FB000344C0025CAB3454900204FF4C878424517
:104FC00001D141F8205051F8203036F910C0634427
:104FD00041F8203026F8105004EB4003401CA3F8A1
:104FE0006A510328EBDB012A1AD10868C83090FB0C
:104FF000F8F0A4F86A014868C83090FBF8F0A4F80B
:105000006C018868C83090FBF8F1B9F80800081AFC
:10501000A4F86E017D850121BD850846FCF7C1FD20
:10502000B9F80410491EA9F804100420FCF7EFFF9A
:1050300000287DD0DFF89880DFF858B0DFF88CA02A
:10504000B8F800200BF1240B0AF10C0A322A05D023
:10505000BAB100205146322A3CD03DE0B4F86A1182
:10506000ABF80010B4F86C11ABF802100948B4F8B2
:105070006E11ABF804100A30798D0180B98D418032
:10508000E7E75BE0200400202C0A0020780E0020D7
:10509000C8000020C0010020E408002040000020DB
:1050A0008988883C000020414C0C002000007A4494
:1050B00000C07F443333534000F07F45940100200B
:1050C000000100200201002090000020480D002077
:1050D000F200002041F8205051F8203036F910C07D
:1050E000634441F8203026F8105004EB4003401C84
:1050F000A3F86A510328AEDB012A18D1F748F84912
:105100000570012008700A2002F04CFCBBF800106A
:10511000A4F86A11BBF80210A4F86C11BBF80400E3
:10512000A4F86E01EF48018879854088B88500E0D1
:1051300024E0B8F80010491EA8F80010EA480178E9
:10514000E1B10570DAF80020322192FBF1F2A4F807
:105150006A21DAF8042092FBF1F2A4F86C21DAF863
:10516000080090FBF1F1B9F80800081AA4F86E01E4
:105170007D850121BD850846FCF713FD3088B4F814
:105180006A11401A30807088B4F86C11401A70802F
:10519000B088B4F86E11401AB080BDE8F09FD348D3
:1051A00010B54168D2488847BDE81040F8E630B5F0
:1051B000CC4CD04A0A3C206992F831200146401C70
:1051C000824200D10020CC4A1368CC4A42F82130F8
:1051D000CB4952F820200D682B449A1A0A602061AE
:1051E00030BD70B5BF4CC7480A3C00686169411AC0
:1051F00001D5002070BD6061BC4DA069303578B12B
:105200002869804768688047288861690844606128
:105210006A69BD49B84890470020A061022070BD6E
:10522000A8688047E8688047FFF7C1FF0120A061B8
:105230006888616908446061012070BD2DE9F05FF4
:10524000A84D0A3DE88800286DD0DFF8A082002430
:10525000A8F13C08A3464FF47A79A8F10C06E88837
:10526000484507D104EB840208EB820146F824B0DC
:10527000C1F810B0A54F56F8241037F914000144B6
:1052800046F8241008F08CF8014604EB840208EB81
:105290008200824600F0F9F827F814B09C4F27F8F6
:1052A00014B0E888012838D1DAF81000012808DDA8
:1052B000401E08F075F80146DAF80C0007F0B4FF5C
:1052C00000E0002009F062FB8246924890F86601F7
:1052D000B0B108F06EF8514608F0CEF810D283490C
:1052E000A5F806903C39C8F810B0C1F824B0C1F850
:1052F00038B0C6F808B0C6F804B0C6F800B00CE084
:1053000056F82400012200F5FA7090FBF9F027F816
:1053100014000F210A20FEF7D3FA641C032C9EDB35
:10532000E888401EE8807949794A002031F8103039
:1053300032F810401B1B21F81030401C0328F5DB0D
:105340002BE76A4810B51030416870488847BDE8BF
:10535000104073E710B570481024046063496D482D
:105360002031096890F8550188476B48001F046098
:105370005C4901200A39887010BD2DE9F041594C73
:1053800060480A3C0068E169411A02D50020BDE886
:10539000F08162490844E061544820304168604827
:1053A0008847DFF880C14F4B00269CF80E005C490F
:1053B000584A20339D1D90B1E06920625FF00000E3
:1053C00002EB4007A7F8706131F8107023F81070F5
:1053D00025F81070401C0328F2D38CF80E60A078DA
:1053E00070B10888B2F87071C01B08804888B2F8A4
:1053F0007271C01B48808888B2F87471C01B8880A5
:10540000206A90B3E769381A474FB84218D2424829
:105410000838026882F008020260002031F910208A
:1054200033F91040A24201DA23F8102035F9104078
:10543000A24201DD25F81020401C0328EED314E021
:105440000020266233F9101035F91040214401EB99
:10545000D17102EB40044910401CA4F870110328DC
:10546000F0D301210846FCF79CFB01208FE710B523
:10547000012005F0A1FC1020FCF7BCFD2B49002009
:10548000086010BD294805F0EABC2DE9F04104464A
:1054900000690E46401C2061012849D007F080FFBA
:1054A000256880462946304607F086FE0746414675
:1054B00007F0BAFE294607F02DFE05466060294632
:1054C000304607F079FE0146384607F07BFEA168BA
:1054D00007F020FEE0602560A06058E7E4000020AF
:1054E000E2000020CA010020E3000020680E002036
:1054F00090000020E4080020B8000020600D00208B
:105500001C00002010010020BC0000208A000020A8
:10551000C000002020040020140C0140A0860100DF
:105520009C000020380C002080C3C9012C00002002
:10553000666000202660A06029E7000070B5FF4D7E
:10554000044621466868006806F02AFB686801790D
:105550006140017170BD10B50446C0B2FFF7EEFFA7
:10556000C4F30720FFF7EAFFC4F30740FFF7E6FFA5
:10557000200EBDE81040E1E710B50446C0B2FFF7C9
:10558000DDFFC4F30720BDE81040D7E7EB484168D2
:105590008B1D4879421C4A71C05C704710B5FFF7FB
:1055A000F5FF0446FFF7F2FF04EB002080B210BDC8
:1055B00010B5FFF7F3FF0446FFF7F0FF04EB0040E0
:1055C00010BD70B504460D462420FFF7B7FF4D20EF
:1055D000FFF7B4FF0CB1212000E03E20FFF7AEFF43
:1055E000D64C0020616808712846FFF7A7FF606865
:1055F00090F88600BDE87040A0E701460020E0E793
:1056000001460120DDE7CD484068007996E770B596
:1056100004460D460846FFF7F0FF03E014F8010BBF
:10562000FFF78CFF6D1EEDB2F8D270BD10B50446C9
:1056300003E000BFFFF782FF641C20780028F9D147
:1056400010BD2DE9F05FDFF8F8B2DFF8F092012726
:105650004FF0000A002518E0BA48405D00EB400119
:105660000BEB8108D8F8040007F005FD06460FB1E2
:10567000B24409E0002405E0D8F80400005DFFF71B
:105680005DFF641CB442F7DB6D1C99F80000854295
:10569000E2DB002F05D00AF0FF00FFF7AEFF002786
:1056A000D8E7BDE8F09F2DE9F047A44E00248146DD
:1056B000024603232146A448B46004F057FFA34DDB
:1056C000DFF88082A34F08F118082860C8F80000AE
:1056D000B068401CB0609E48006803280EDB97F855
:1056E0008C0158B903234A4600219B4804F03EFF31
:1056F0006860C8F88C00B068401CB060FF221821B8
:10570000904807F072FC8F4D02202C700124FCF7AA
:1057100069FC20B1012068700220A87003240420D5
:10572000FCF760FC50B1032028554FF40050641C76
:10573000FCF76DFC10B104202855641C0220FCF716
:1057400051FC18B90820FCF74DFC40B10520285544
:10575000641C06202855641C07202855641C202042
:10576000FCF755FC10B108202855641C4FF48070DC
:10577000FCF74DFC28B10A202855641C0B20285545
:10578000641C7879082803D00E2801D0182802D18B
:105790000C202855641C0D2028550420641CFCF79F
:1057A00036FC10B111202855641C1320285597F899
:1057B000B001641C00B10120FCF729FC10B11420D9
:1057C0002855641C7879182808D115202855641CA0
:1057D00016202855641C17202855641C3470BDE819
:1057E000F0872DE9F05F4FF00009CA460FF26C1BFD
:1057F000524C01275C4E6068DFF87081554D90F87F
:1058000086102046772900786FD024DC6A296DD075
:1058100016DC64296BD00BDCA1F14001062967D2AC
:10582000DFE811F090059D056B054205AB05B3055A
:1058300065390529F3D2DFE801F0F9F8F7F6F5004C
:105840006B390C29EBD2DFE801F0FDFCFBFAF9F82B
:10585000F7F6F5F4F3F24548D029407868D019DC22
:10586000CA2966D00EDCA62964D006DC782962D06D
:10587000A02961D0A4293BD1F0E3C82925D0C929AA
:10588000F9D13DE0CB390529C9D2DFE801F093A376
:10589000FEFDBA00EF292CD00ADCA1F1D1014FF0B6
:1058A00000090629BBD2DFE801F0F5F4F3F223F199
:1058B000F22942D004DCF0297AD0F129DBD121E2AF
:1058C000FA2976D0FE29D6D1FAE3294D002400BF6B
:1058D000FFF764FE25F81400641C082CF8D30020A0
:1058E000FFF78BFE02F054FF0BE242E37CE2FDE0A7
:1058F000E7E3FFF753FEB085FFF750FE7085DEE368
:10590000FFF744FE88F80B00FFF740FE19490870C6
:10591000FFF74EFE184C2060FFF74AFE6060FFF76D
:105920003DFE16490880FFF739FE1549088029E039
:10593000E1E32DE0F3E3A8E1F2E304E2FC0100205F
:1059400084FD0008B00E002000380140180A002035
:10595000C800002020040020004800404D61722053
:105960003237203230313500E4080020380C002076
:105970004C0C0020EA00002088010020FE000020DE
:10598000A2010020FE48017841F002010170CCE341
:105990005FF00004FFF7FAFD35196870FFF7F6FDB8
:1059A000E872FFF7F3FD641C68750A2CF2D3BCE3C0
:1059B000DCE3AFE30025F34F08E000BFFFF7EEFDA7
:1059C000795D6D1C06EB4101A1F846002078854207
:1059D000F4D3AAE3FFF7DAFD06F81F0FFFF7D6FDB1
:1059E0007070FFF7D3FD3071FFF7D0FD7071FFF7D6
:1059F000CDFDB071FFF7CAFDB070FFF7C7FDF070C5
:105A000093E3FFF7CBFDA0F27951C72901D2A5F8A6
:105A10008E01FFF7C3FDA5F8400105F5BC75FFF742
:105A2000BDFD10E0D2E1CCE12CE1F8E06CE009E34F
:105A300082E29BE2FAE2B8E285E26BE252E21EE227
:105A400013E201E2EEE125F8360CFFF7A7FD25F899
:105A5000340CFFF7A3FDA6F8D000FFF797FD85F8FB
:105A60002600FFF793FD85F82700FFF78FFD85F8E7
:105A70002800FFF78BFD2871FFF788FDE877FFF717
:105A800085FDFFF78BFD06E040E339E314E01CE100
:105A900028E01BE0FBE200EB800040003085FFF7D0
:105AA00075FD6871FFF772FDE871FFF76FFDA87172
:105AB000FFF76CFD287238E30024B34DFFF76EFD4D
:105AC00025F81400641C082CF8D32EE3002897D185
:105AD000FFF75CFD85F8C004022801D985F8C09461
