:020000040800F2
:100000000050002045DD0008F1DD000869AE000861
:10001000F1DD0008F1DD0008F1DD0008000000005E
:10002000000000000000000000000000F1DD0008FA
:10003000F1DD000800000000F1DD000845AE000819
:10004000F1DD0008F1DD0008F1DD0008F1DD000858
:10005000F1DD0008F1DD0008F1DD0008C9AE00089F
:10006000F1DD0008F1DD0008F1DD0008F1DD000838
:10007000D5AD0008F1DD00080DAE0008F1DD000887
:10008000F1DD0008F1DD0008F1DD0008F1DD000818
:10009000F1DD0008F1DD0008F1DD0008C5AE000863
:1000A000F1DD0008F1DD0008F1DD0008B7AE000861
:1000B000ADAE0008A1AE000895AE000865AE000820
:1000C0005DAE000861AE000859AE0008F1DD000821
:1000D000F1DD000899AD00082DAD0008F1DD000844
:1000E000CDAE0008F1DD0008F1DD000800000000E1
:1000F0000000000000000000000000000000000000
:0C01000000000000000000005FF808F1A3
:100110002DE9F04F844D8DB0AB68844C13F008018D
:1001200000F0868095F81721042A00F28380DFE82A
:1001300002F003030550750023787CE060787B4A69
:10014000002877D000209F05507002D5137E1E072F
:1001500070D4E0780023A27800F00706A383744BE4
:1001600042EA06221A60227902F03F06760146EA48
:10017000D00058606079800040EA9210A27902F0C5
:10018000010640EA86209860E07900F00F06F6014B
:1001900046EA5202DA60227A02F07F06360146EA27
:1001A00010101861607A400040EAD212A07A00F084
:1001B000030642EA46225A61E27A02F01F06B601BD
:1001C00046EA90009861207BC00040EA5212DA6152
:1001D0002CE0A27F554B6AB393F82000002201283F
:1001E0009A7727D19A8393F83420082A84BF08226B
:1001F00083F8342094F834004E4A0023DEB286425D
:1002000002F1020212D212F8016C12F8027C46EAE4
:100210000727494E46F823700133EFE794F858302A
:10022000424A00203BB1908382F85800012302E04B
:100230000B4600E00023E26D206E101A002802DA5F
:10024000002B00F0278402F59C4220322266DFF862
:10025000FCA0DFF8FC80002939D1384E89460F46D2
:10026000DAF80030F8B29847A0F2EE2292B240F2EB
:10027000DC539A42D4F8A420314B88BFB5F81A0158
:100280001340002B03DA013B63F0030301332749DA
:1002900003EB870301EB4303A3F864003188738801
:1002A00001370B44B188082F0B44F18806F108068A
:1002B0000B441BB24FF0040193FBF1F328F8093013
:1002C00009F10209CCD10132C4F8A42009E00026CA
:1002D000F0B2DAF80030984728F816000136082EF8
:1002E000F6D1AB68580404D594F8A8300BB904F0E3
:1002F00072FD95F82B210C4B62B3033238F91200D2
:10030000A0F57A70B0F57A7FA8BF4FF47A7020EA32
:10031000E0700BF0E9FA0B490BF0EEFB0A490BF029
:1003200037FB0BF021FD2AE0D8180020080100203F
:10033000F00600202A010020400100206C0100206E
:100340000300008000007A4400C07F44E8060020DB
:10035000C406002093F82C0190B1AA4AD179AA4A88
:1003600032F81100B3F8302180B2801AB3F82E3180
:10037000C0EB802090FBF3F000B280F30A0080B263
:10038000AB68A4F8BE0013F4024F42D09F4BA04FBD
:10039000B3F81CA097F8B8300FFA8AF603EB830283
:1003A000964226DDDFF8709299F801200AB3994A47
:1003B000B2F81A21A8F80020A8F80220A8F8042012
:1003C000B7F8BA20A8F8062097F8B920134403EB31
:1003D00083039E4208DD99F812B0BBF1000F03D1F0
:1003E00004F0F9FC89F800B0B4F8C0300133A4F887
:1003F000C03097F8B83003EB83039E4205DD864E8C
:10040000777817B904F0E7FC37700AF1010AA4F80D
:100410001CA00022B5F81C11B5F81E61134638F96E
:1004200002009B088842C4BF63F07F03DBB2023244
:10043000B042B8BF43F04003082AF0D194F8C2009C
:10044000724A984205D192F8C300F92804D80130C5
:1004500000E0002082F8C30084F8C230AB686D4A27
:1004600013F480436A4F0CD0B2F81A11B2F8DC20B2
:10047000B8F90630881A834208DD0A44934207DB44
:1004800004E0B8F906208A4202DB16E0002314E0FB
:100490000023C4F88033C4F88433C4F88833C4F824
:1004A000D030C4F8D430B7F846302BB1574B93F85E
:1004B000A830002B42F017800123B7F846206AB11C
:1004C00094F8A82052B9544A52783AB195F82121AB
:1004D00012B104F080FC01E0002BFAD194F8C320A3
:1004E0004A4B142A40F0B0804B4E7178D1B1B7F826
:1004F00046202AB993F8C2305F2B01D104F06BFC7F
:1005000095F82031002B00F09F80B7F84630002B83
:1005100040F09A8094F8C2307D2B40F0958004F032
:100520005AFC91E093F8C220572A15D13B4B4FF467
:100530007A721A80AB68D90501D504F05BFF384B9D
:100540001B685A0702D5374A0A21118013F00803A5
:1005500026D1A4F8C43023E0A868400717D55A2A4A
:1005600015D193F8C6202AB1012283F8C61083F86A
:10057000C72015E093F8C82082F0010283F8C82054
:10058000294B0AB1022200E003221A7008E05D2A1A
:1005900001F0B2875B2A01F0B1875E2A01F0B087D3
:1005A000B7F8463033B994F8C2206F2A02D104F06C
:1005B0009DFB14E095F8202122B11BB994F8C230BC
:1005C0007E2BF4D094F8C230972B04D1174B4FF404
:1005D000C8721A8003E0A72B04BF0123B37394F8F9
:1005E000C230BB2B02D1BB8D023303E0B72B03D14A
:1005F000BB8D023BBB8520E0BE2B19D17B8D023326
:100600001AE000BFA0040020A80400200801002078
:10061000F81C0020D818002054060020E80B002009
:10062000D8040020EA0B0020E11D0020EC1D002072
:10063000BD2B09D17B8D023B7B850120014609F052
:1006400013F9002384F8C330A868420731D594F821
:10065000C8209D4B8AB19D4A527872B19C4AB8F924
:100660000610B2F81C21914207DD93F8A82022B9A8
:100670003221A3F8CA1083F8C82094F8B920924B0D
:1006800062B193F8CC202AB993F8C62012B932226D
:10069000A3F8CA20012384F8CC300AE093F8C620DE
:1006A0003AB18A4A527822B983F8C620012283F8E7
:1006B000C720884E0123002136F8022F03F1FF3CAA
:1006C000A2F2155EBEF5C77F8CBF4FF0000E4FF053
:1006D000010E0EFA03FE12B24EEA010140F2135E61
:1006E0007245CCBF4FF0000E4FF0010E0EFA0CFE1B
:1006F00041EA0E0140F2A46E7245D4BF00220122ED
:1007000003F1010E02FA0EF2033311430D2B89B2ED
:10071000D2D1002307EB430EBEF846E06A4A11EA45
:100720000E0F0CBF4FF0000E4FF0010E02F1A806A5
:1007300003F806E00133152BECD192F8A930634E93
:10074000654943B9654BB2F91C2093F8B83003EB07
:1007500083039A4217DD0B689B0714D5F37833B9EE
:10076000C4F8D030C4F8D430584B0122DA700004F9
:100770000CD597F8B830B4F91C2003EB83039A42E8
:1007800004DD012301E00023F370B37494F8AA3070
:100790004D4A5BB10023F370337943B9C2F8D030CE
:1007A000C2F8D430494B01221A7100E0337194F839
:1007B000A8300BB901233370F278494B12B9434A80
:1007C000127912B110225A6101E010221A610A68EE
:1007D000510725D594F8AB103B4B99B1B07990B93E
:1007E0003A494FF0010E81F806E0D3F8DC10C3F867
:1007F000EC00C3F8D810B3F8E810C3F8F000A3F881
:10080000E01000E0B171AB689B0409D594F8AC30FE
:100810002BB1F37B23B92D4B0121D97300E0F37386
:1008200012F00A0F20D094F8AD3027494BB17379FC
:1008300043B9264B01205871B1F8C430A1F8F43007
:1008400000E0737194F8AE302BB1737A23B91F4B6B
:100850000121597200E0737294F8AF101A4B19B16C
:10086000B3F8C410A3F8F610900640F1D080F37AE4
:10087000DFF85890002B00F0C58094F8F820124B58
:10088000042A40F2BF8093F8B22012B999F81220DE
:1008900062B3F379DFF83490002B40F0B880114850
:1008A000114A4FF0010A011D89F80830137089F8C8
:1008B00007A007F089FE022384F80831B4F8183144
:1008C000C4F8143149E000BF08010020540600209C
:1008D000D8180020CA060020D8040020F81C0020E8
:1008E000000C0140040200200000002089F80720CD
:1008F00093F8B320A2B3B3F9E210B7F8CC200029E3
:10090000B8BF494291422BDAB3F9E4100029B8BFCD
:100910004942914224DA99F808A0BAF1000F76D141
:10092000BA4A4FF0010B82F800A0D3F81C2103F55E
:100930008670C3F80C21D3F8202103F58871C3F821
:10094000102189F808B0029307F03EFE029BB3F82D
:10095000182183F808B1C3F8142189F813A056E0D0
:1009600000233372A94B1978002950D101221A7043
:100970008E46A74B002203F592702EF8002003F557
:1009800095702EF8002003F597702EF8002003F5DF
:100990009A7C002041F80C008C44CCF80420CCF860
:1009A000080003F5AE7C41F80C008C44CCF8042020
:1009B000CCF808000EF1020E03F5C27C41F80C00E1
:1009C000BEF1040F8C44CCF80420CCF8080001F1EF
:1009D0001401CED1317C11B90023F37417E0C3F8B0
:1009E000AC01C3F8B001A3F8B421A3F8B621A3F871
:1009F000B8218849002353520A31535202320A2A3D
:100A0000F7D1E9E70023F371337284F8083194F8E1
:100A1000B4302BB1B37C1BB97F4B01229A7201E039
:100A20000023B3726B79082B02D00E2B40F0988410
:100A3000A96800228905784B727240F1918497F879
:100A4000B81006267143B4F91C00884240F388842C
:100A50009A720122DA70714AB2F81A118AB2A8F8B1
:100A60000020A8F80220A8F804206D4AB2F8BA20A5
:100A7000A8F80620DA7A002A40F07284644890F8D8
:100A8000F800052800F26C849A74664B323919809C
:100A900000F066BC5E4BD3F8D031042B00F26084CA
:100AA000DFE813F005008B00FB0050034204012334
:100AB000C4F8D0315C4B564E1B681F077DD5D6F865
:100AC000D431D31A002B78DB584B02F5C332A03255
:100AD0005B6806F5EC70C6F8D42198474E4B06F5D6
:100AE000EC779A7B184692B1D6F8D4210023C6F849
:100AF000E021E9180022A1F8002116464C49FA5AD3
:100B00005A5206315A520233062BF2D18673494BA0
:100B10001B78A3B1B4F8D821B5F80031D31AA4F8E2
:100B2000D831B4F8DA21B5F80231D31AA4F8DA31A1
:100B3000B4F8DC21B5F80431D31AA4F8DC31D4F8C8
:100B4000E031334A002B00F00B84D2F8D4113A483C
:100B5000CB1A834202F5F57102F5F27019D8374BC2
:100B6000DA6882F00802DA600023FA5A30F903E00A
:100B700016B2B645C4BFDFF8B8E023F80E2031F94D
:100B800003E0B645BCBF2E4E9A530233062BECD180
:100B9000E6E30023C2F8E031C75ECE5EEA183E44C9
:100BA00002273B4496FBF7F6062BA2F80061F3D12F
:100BB0000120014608F058FED2E3D4F8D031144E9B
:100BC0000133C4F8D031184B1B68580765D5D6F8E7
:100BD000F031D31A002B60DBD6F8F431C6F8F021DF
:100BE000184F8BB33B6998477B689847D6F8F0312C
:100BF0003A8806F5FC701344C6F8F03106F5FE712C
:100C00007B6998470023C6F8F431A9E3000000206F
:100C100008010020C202002054060020D81800203D
:100C2000F81C0020C4060020D80400205005002035
:100C3000EC020020780500207FC3C901000C0140B0
:100C4000F202002028050020BB689847FB689847FF
:100C5000C54AD6F8001292F831204B1C934208BFC7
:100C60000023D4F8F82104EB8101C1F80422D4F860
:100C7000C412C4F800320A4404EB8301D1F8040220
:100C80000123121AC4F8C422C4F8F4317A88D4F8C3
:100C9000F0311344C4F8F03162E3D4F8D031B34EEC
:100CA0000133C4F8D031B24B1B68590740F14A8276
:100CB00003F010FFD6F8CC7246F2A713C71B9F4271
:100CC000B6F8CAA2B6F8C8B240F23C82DFF8C892C1
:100CD000C6F8CC02B9F80030DFF88C827BB398F804
:100CE0003100D6F8C432D6F8D0220138B3FBF0F088
:100CF000082392FBF3F1521A1044C6F8D00290FB7D
:100D0000F3F00AF0F1FD9B490AF0F6FE9A490DF066
:100D10000FFB01464FF07E500AF030FD97490AF074
:100D200037FE0AF0FBFF0023C6F8D832C6F8DC32E3
:100D3000B9F80030C6F8D402013BA9F8003098F8A1
:100D400031000FFA8BFB0FFA8AFAD4F8C432BBF1E8
:100D5000000FB8BFCBF1000BBAF1000FB8BFCAF15A
:100D6000000AD345A8BFDA460138B3FBF0F01FFAFA
:100D70008AFACDF814A00AF0B3FD7E490AF0BCFE51
:100D80007D490DF0D5FA01464FF07E500AF0F6FC91
:100D90007A490AF0FDFD0DF0FDF9D8F8346081467E
:100DA000D4F8E0020AF0A0FD31460AF0F1FD8046D9
:100DB000D4F8D402C0EB09000AF096FD3146814612
:100DC0004FF07E500AF0DAFC014648460AF0E0FD9A
:100DD000014640460AF0D4FC0DF0DCF9DDF814A021
:100DE00083460FFA8AF8B8F1FA0F654E03DD4FF02B
:100DF000FF33336014E030680AF076FD81464046E8
:100E00000AF072FD01465F480AF0B8FC0146484608
:100E10000AF0BEFD5B490AF06FFE0AF07FFF30600A
:100E2000366806F1FF39B9F1C60F06D8C6EB0B03D9
:100E3000C4F8E432C4F8E0622FE0D4F8E432002EC3
:100E4000C3EB0B0BDFF824A1C4F8E0B225DDC6F537
:100E500096700AF049FD4C490AF04EFE8046CAF8E9
:100E6000E80230460AF040FD41460AF091FD064690
:100E700058460AF039FD414683464FF07E500AF04D
:100E80007DFC014658460AF083FD014630460AF0D3
:100E900077FC0AF043FFCAF8E0023C4B1868029363
:100EA0000AF01EFD3A4906460AF072FD8346D4F860
:100EB000F4020AF019FD8046D4F8F8020AF014FD95
:100EC000014640460AF018FE324A079011680AF0BF
:100ED0005FFD31460AF05CFD234A4FF07C51D2F8A9
:100EE0003CA0D4F8D882D4F8E062069004920AF0CC
:100EF0004FFD59460AF04CFD594684464046CDF810
:100F00000CC00AF045FDDDF80CC0014660460AF051
:100F100037FCD4F8DC120AF033FC51460AF038FDF5
:100F2000834630460AF0E0FC514684464FF07E503E
:100F3000CDF80CC00AF022FCDDF80CC0014660467A
:100F40000AF026FD014658460AF01AFC049A029B54
:100F5000B9F1C60FC4F8DC0291469A461ED8034A7E
:100F6000C2F8DC601FE000BFF81C00200801002070
:100F7000D804002080E6C547B1DC423ED048874A0D
:100F800034000020000061440000C842E41D00203D
:100F9000BD3786356C050020EA0B00200AF0BEFE46
:100FA000B04BC3F8DC00069940460AF0E9FB034663
:100FB000D4F8FC024FF00008CAF80080C4F8EC82B4
:100FC000C4F8F082C4F8F482C4F8F882301A0293AC
:100FD0000AF08AFCA4490AF0DBFC824638460AF093
:100FE0007FFC014650460AF087FD0AF097FE40F26A
:100FF000DC529E499042A8BF10468842B8BF0846BE
:101000000A21C4F8FC6204F053F8029BD9F8386056
:101010008246314618460AF0BBFC074650460AF0A5
:1010200063FC314682464FF07E500AF0A7FB014632
:1010300050460AF0ADFC014638460AF0A1FBC4F860
:10104000D8020DF0A7F80521064604F031F8059AFC
:10105000DFF810B213B2B3F5487FC4F800036BDABF
:101060009BF804330BBBDBF8D820DBF8DC3080487E
:10107000D31AB3F5FA7FA8BF4FF4FA738342A8BF1F
:1010800018460A2104F014F87A4B80221B79584341
:1010900090FBF2F3B3F5967FA8BF4FF49673A2F5D9
:1010A000D6729342B8BF134601E0DBF8083399F8D3
:1010B0000A209B1B5A43202192FBF1F299F814005D
:1010C000D4F8EC1042F2040603FB00106A4BB2F5B0
:1010D000967FA8BF4FF496729842A8BF1846674BF8
:1010E0009842B8BF1846C4F8EC0090FBF6F0644E86
:1010F000B242ACBF8618861999F81E000AF0F4FBBC
:10110000D4F80C13074607980AF03AFB0146384614
:101110000AF03EFC4FF06C510AF03AFC0AF0FEFD7A
:101120006FF095039628A8BF96209842B8BF18463E
:10113000301AC4F8F00001E0CBF8F080079BC4F847
:101140000C330DE1D4F8D0310133C4F8D031AB68A1
:10115000DA0540F1E9804B4EB36863B94A4F3B78FA
:10116000013B042B00F2FC80DFE813F011001100BA
:101170001100CD00B600B06803F0C7FB0028EDD029
:10118000404B986803F0BCFB04F0CAFAF3E795F80B
:101190003291B9F1000F03D0B9F1010F09D098E0F5
:1011A0007A783A4BB06803EB0213596803F0A3FB5B
:1011B0008CE0B068DFF8CC8003681B699847002892
:1011C00000F087803B78304E022B2CD0032B35D09B
:1011D000012B7ED12E4BD3F80090736AC3EB090329
:1011E000632B76D9F369042B1BDCDFF8A0A0D8F8B9
:1011F00008000AEB0313596803F07DFB7378D8F8F5
:1012000008800AEB03139E6816F8011B19B14046CB
:1012100003F080FBF8E7FB69C7F824900133FB611A
:1012200057E0022053E07278184BD8F8080003EB1F
:101230000213596803F05FFB032048E03369012B78
:101240002AD0022B42D0002B43D1326A114BC6F870
:10125000109053F8321003EBC2035B687161B36105
:1012600037E000BF080100200024744924FAFFFF82
:101270000CFEFFFFF81C002020031900E0FCE6FF35
:10128000D4FEFFFF7C050020100700202004010889
:10129000D41800200C050108F369B269934209DAF9
:1012A0007269D8F80800D15C03F034FBF3690133AC
:1012B000F3610EE0326A91490132326251F8322014
:1012C0000023F36102B90223336102E0042007F036
:1012D00099FF00237B6043E07B68052201337B603C
:1012E0007B7801200133DBB2B3FBF2F202EB820226
:1012F0009B1A7B70824B834A1B68BB60002384F877
:10130000F830D3720DE07E4B1A68BB68D21A40F6F3
:10131000C4139A4224D97C4B05201A6822F020027B
:101320001A6007F06FFF1BE00023C4F8D031764B42
:101330001B68DB0614D5724B1A68744B19683C3174
:101340008A420DD31A60724F724A734B734EC3F8C0
:1013500010233B880B20336103F06AFC3B887361E8
:1013600003F0B8FBAB89E06533B16B4AD2F81423C4
:10137000821A002AC1F2D6801844C4F8140305F07A
:101380005DFB03F0A7FB664BE0651A681860821AE4
:10139000A4F8182301F0D0F85B4B5F4F1A68DFF810
:1013A00084B112F0080635D0B7F8E61001F1450314
:1013B0009BB28A2B2AD8534B58799E4630B3B7F844
:1013C000F430B7F8C400C01A80B283B21FB2B3378A
:1013D000BCBF00F5B4739BB218B2B3289EF80D7071
:1013E000C4BFA3F5B4739BB295F8EC0097B140B2BB
:1013F000404243439BF809001BB243436FF01D007A
:1014000093FBF0F31944A4F8E61003E0B4F8C430F9
:10141000A4F8F430570740F191803A4B99790029AC
:1014200000F08C801F7C002F7ED19BF873009BF80E
:101430007210394B80B3B4F8E8C0B4F9E0000FFA89
:101440008CFEC0EB0E08B8F1000FB8BFC8F1000861
:1014500088450FDD8645C8BF49421FFA8CFCC8BFCE
:1014600089B201256144C3F8EC7083F81A53A4F8DB
:10147000E81063E093F81A1329B1D3F8DC1083F86D
:101480001A73C3F8D810D4F8F030B5F8D210184455
:10149000B5F8D030984229E0B4F9E0E0B4F9E8704A
:1014A000CEEB070787EAE77CACEBE77C8C450ADDEF
:1014B000022197FBF1F70121C3F8087383F80413A5
:1014C00083F81A130AE093F81A1339B1D3F8DC70D1
:1014D00083F80403C3F8D87083F81A03D4F8F01023
:1014E000B5F8D0307144B5F8D200994203DB81429F
:1014F000B4BF0B460346A4F8E8301FE00C05010812
:10150000D418002054060020D804002044070020EE
:10151000380700203400002008010020000C0140A2
:10152000E40B0020F81C0020B4F8E41095F92A011F
:10153000D4F8F03000FB0313A4F8E4309BF87630C5
:101540005BB19E4BD97809B91B7933B1B4F8E83057
:10155000B4F81C130B44A4F8E830900640F1A583BE
:10156000964BDA7905921AB91A7A002A00F0968316
:101570001B7B924F002B00F09183B4F8C480904DF8
:101580000FFA88F00AF0B0F98E490AF001FA8146A4
:101590000CF03EFE824648460CF0C6FD3B7C814680
:1015A000002B40F08F809BF8C560B5F93001002E0C
:1015B00057D0B5F82C3175429FB21BB2C01A03F058
:1015C00041FFA84203DBB042A8BF304600E02846F6
:1015D000B4F82A310744B4F92E011FFA83F81BB27C
:1015E000BFB2C01AA4F82C7103F02CFFA84203DB91
:1015F000B042B4BF054635464544ADB2A4F82A51C1
:1016000038B20AF071F9064628B20AF06DF9494677
:10161000054630460AF0BCF95146074628460AF00E
:10162000B7F9014638460AF0A9F867490AF064FAA2
:101630000AF074FB5146A4F8240130460AF0A8F9D8
:101640004946064628460AF0A3F9014630460AF004
:1016500097F85D490AF050FA0AF060FBA4F82601F9
:1016600023E30AF041F90746B5F92E010AF03CF9E7
:101670004946064638460AF08BF9514680463046C0
:101680000AF086F9014640460AF078F84E490AF019
:1016900033FA0AF043FB5146A5F8240138460AF014
:1016A00077F94946074630460AF072F9014638464E
:1016B0000AF066F844490AF01FFA0AF02FFBA5F871
:1016C0002601F2E2414BD5F80421DB88B5F818E198
:1016D0000793D5F814311FFA82FCCCEB0E0EB5F847
:1016E0001EA3CCEB030CFB7C1FFA8EFE1FFA8AF9BB
:1016F0009BF81A101FFA8EF01FFA8CFC2BB107B260
:101700008F42BCBF5718C5F814710FFA89F5B5F5AB
:10171000E16F02DDAAF5616904E015F5E16F03DA16
:101720000AF561691FFA89F90A270FFA89F9244D28
:1017300099FBF7F99EB10FFA88F71FFA89F6C9EB02
:101740000709B9F1000FB8BFC9F10009B9F10A0FD3
:1017500007DDB5F82073C82F88BFB04601E01FFA37
:1017600089F8D5F82463642796FBF7F70897A5F85E
:101770002873174FCCEB0E0CD5F82C63D7F800E08C
:101780001FFA8CFCC6EB0E0EBEF1C70FA5F82AC3DC
:101790000B4EB94640F261823F68C6F82C730D4F7C
:1017A000B7F8E2E0BCF1000F16D1A6F830E35BB366
:1017B000024B4FF0000E83F813E025E054060020A2
:1017C0000801002035FA8E3C00002041C4060020AC
:1017D000D4180020F81C0020B7F8E6A00FFA8CFC03
:1017E0000AFB1CEAB7F8E4E0B7F8E0B0F245CDF840
:1017F00018B003DBDE46F245B8BFD646A6F830E3A4
:1018000013B1BCF1000FD3DADDF820E0C8EB0E0312
:101810001FFA83FB059B1BB3A74BDB7CA3B1B7F877
:10182000DCE0CEEB4E3CCEEB8C0E4FEA4E0EA5F834
:101830002AE3B7F8E0E0A5F830E30FFA80FEBEF146
:10184000130FD8BF4FF0000BB6F832E3BEF1310FE3
:1018500006D800B2884203DD98481144C0F814113C
:101860009549887C50B1B6F83203092806D8002083
:101870004870C87491490532C1F81421B6F8322372
:10188000092A0CD80FFA8BF009F084FC88A3D3E95D
:10189000002309F0E5FC09F0F5FE1FFA80FB0FFAC2
:1018A0008BF2B332BCBF0BF5B4731FFA83FB0FFA94
:1018B0008BF2B32AC4BFABF5B4731FFA83FB0FFAE4
:1018C0008BF2002AB8BF5242AB2AD9F80000D4F8F4
:1018D0003423A8BF4FF0AF0B801A0AF001F8784903
:1018E0000AF00AF9D9F80020B4F82A93C4F834238E
:1018F00009F1030292B2062ADFF8C0A1804606D899
:10190000DAF8B00141460AF043F8CAF8B00109EB31
:1019100089094FEA490A1FFA8AFA1FFA8AF9A4F8D4
:101920002A930FFA89F009F0DFFFD4F83C130590F1
:101930000AF02EF841460AF02BF8D4F8B01109F05D
:101940001FFF0AF0EBF95F4AB0F5FA7FA8BF4FF42A
:10195000FA709042B8BF104609F0C6FF0246C4F8BC
:10196000B001B4F8B401A4F8B491C0EB0A0080B29D
:1019700001B20029B8BF494265295349A8BF0020D8
:1019800001F10A0EB1F804C021F802CF7145F9D176
:101990000021A6F8C2010846DFF8209109F5DD7E96
:1019A00031F80EE0023170440A2980B201D080B2D1
:1019B000F2E700B2049209F097FFD9F8401309F05A
:1019C000E7FF41460AF098F80AF0A8F91FFA80FAF2
:1019D000D9F838130598A9F848A309F0D9FF0AF0F7
:1019E0009DF900B209F080FF049A114609F0C8FE83
:1019F0000AF094F91FFA8BF3DA1C92B280B2062A2D
:101A0000059008D8D9F8AC014146029309F0C0FF0F
:101A1000029BC9F8AC0103EB83035B009BB21FFA86
:101A200083F90FFA89F0029309F05EFFD4F850139E
:101A3000834609F0ADFF414609F0AAFFD4F8AC1186
:101A400009F09EFE0AF06AF91E49B0F5FA7FA8BFB8
:101A50004FF4FA708842B8BF084609F045FFB4F861
:101A6000B611029B84465B1A9BB21AB2002AB8BF19
:101A70005242652A154AC4F8AC01A4F8B691A8BF31
:101A8000002302F10A01908822F8020F8A42FAD15B
:101A9000A6F8CC3100231846DFF8209009F5E27152
:101AA000595A023308440A2B80B211D080B2F3E7AE
:101AB0009A9999999999B93F5406002008010020F4
:101AC00000007A440CFEFFFFC0020020CA02002082
:101AD00000B20293CDF80CC009F006FFD9F85413F8
:101AE00009F056FF41460AF007F80AF017F91FFA05
:101AF00080F8D9F84C135846A9F85C8309F048FFE0
:101B00000AF00CF900B209F0EFFEDDF80CC06146F6
:101B100009F036FE0AF002F9B7F9DC1082B2DDF8FE
:101B200014E06FF00900029B41430FFA8EFB9BFB10
:101B3000F3FB0FFA8BFBB7F9DE008B4503FB00F3D9
:101B400003DB9B45B4BF59461946DFF83C938A44F2
:101B5000B9F9D8106FF00900484312B20A2792FB76
:101B6000F7F21FFA8AFA8242A5F826A104DB07FBE6
:101B700001F08242B8BF10461FFA88F84044A5F829
:101B80002401B9F9DA006FF0090141438A4204DB0C
:101B90000A2141438A42B8BF1146B74A8844527C61
:101BA000A5F828815AB10FFA8AF1002903DB99427E
:101BB000B8BF0B4600E00023B04AA2F82631B5F9C1
:101BC000C832B5F82621002BB8BF5B42D31AA5F85E
:101BD0002631B5F9CA0209F087FE4FF07C5109F0B1
:101BE000D7FE0AF09BF8B5F83033B0F5E17FA8BF17
:101BF0004FF4E17020EAE070181AB9F8E47000B20E
:101C0000B842B9F8E03003DB9842B4BF07461F463C
:101C1000B5F82003DFF86482A0F5E173642B0ED9D8
:101C200000B2C0F5FA7009F05FFE954909F0B0FE08
:101C30000AF074F8B8F8B8311844A8F8B801B5F942
:101C4000B831B3F5FA7FA8BF4FF4FA7323EAE37310
:101C5000A5F8B8313B44A5F83033874BDA780AB998
:101C60001A7922B19B7A6BB1834B9B7C53B9DDF817
:101C70001CB00023A6F830B3A6F82631A6F824310C
:101C8000A6F82831B5F83033B5F82821A5F8E830A2
:101C9000B5F8E6301344A5F8E63006E00023A4F8D2
:101CA0002431A4F82631A4F82831764B764D5B68B0
:101CB0009847764B93F80080B8F1030F14D96F4919
:101CC0006FF06303B1F9E660B1F96203002EB8BFAB
:101CD00076429B1B984204DB06F164038342A8BF53
:101CE0000346A1F862331FE0B8F1010F1CD8684F1A
:101CF0007B79013B142B00F29E82DFE813F0A900F0
:101D00009C029C026900D1009C029C02A4019C02DE
:101D10009C029C029C029C02ED009C029C029C0284
:101D20009C029C0231026902544B95F9BEB0B3F893
:101D3000E8C0B3F86093B3F85EA3B3F96233CBF1B4
:101D4000000B03FB0BFB534E0027474506F1100623
:101D5000CDD20FFA8CF0CDF80CC009F0C5FD56F8C5
:101D6000101C09F015FE03460FFA89F0029309F0E2
:101D7000BBFD56F8081C09F00BFE029B01461846F5
:101D800009F0FEFC03460FFA8AF0029309F0ACFD5D
:101D900056F80C1C09F0FCFD029B0146184609F0A0
:101DA000EFFC03465846029309F09EFD56F8041CCA
:101DB00009F0EEFD029B0146184609F0E1FC09F02E
:101DC000ADFF354BDDF80CC023F817000137BCE739
:101DD00095F89E30294A13F0020F0CBF4FF0010B0B
:101DE0004FF0FF3B042013F0010FB2F862930CBFD9
:101DF0004FF0010A4FF0FF3A03F012F8B4F86063B5
:101E00000BFB09FB0AFB06FA95F8A6301FFA8BFBC1
:101E100013F0020F0CBF01224FF0FF321F4C584449
:101E200013F0010F1FFA8AFA82440CBF01234FF00E
:101E3000FF33052002FB09F95E43A4F808A002F075
:101E4000EFFF1FFA89F9B6B2484406446681F2E111
:101E500095F8A630052013F0010F084B0CBF0124A4
:101E60004FF0FF34B3F862335C4302F0D9FFA4B201
:101E70000A4B20445881DEE154060020080100206E
:101E8000CDCCCC3D00000020F81C0020DC1C002044
:101E9000D818002094050020DE1C002082000020BD
:101EA000002002F0BDFFB4F9CA2295F97E304FF050
:101EB00032095343C04E93FBF9F31844308001209C
:101EC00002F0AEFF95F98630B4F9C822534393FB74
:101ED000F9F948447080AEE1B84BB94E5A78B64C27
:101EE00012B9B7F8D4300BE0B6F9E820B7F8D03023
:101EF000B7F8D2109A4203DB9142B4BF0B461346A7
:101F0000E381E289AF4B97F822B11A80ABF102026C
:101F1000032AAD4B38D893F823E1AC49B3F826A196
:101F200031F91E10B6F864035145B3F81A81B3F8BD
:101F3000289103DB4945A8BF494600E05146C1EB63
:101F4000080100B209B207F06BF9A6F86403C0EB10
:101F50000800504503DB4845B4BF8246CA46CAEB79
:101F6000080A1FFA8AFABBF1030F1FFA8AF2CAF1B4
:101F7000000A02D0BBF1050F02D11FFA8AF32CE050
:101F800013461FFA8AF228E0BBF1010F23D1022089
:101F900002F046FFB5F98830B6F866A39842B5F866
:101FA0008CB0B5F88A2003DB13B29842B8BF034661
:101FB000C3EB0B010FFA8AF009B207F031F995F97A
:101FC0008E30A6F866035843642390FBF3F0B7F80D
:101FD0001A311844A08000231A467848817A71B1DA
:101FE000B6F8E2100B442381B6F8E6300A44638168
:101FF000B6F8E430E280A3816F4E03240BE0B6F81C
:102000005E130B442381B6F862330A446381E28095
:10201000B6F86033EFE705EBC403B6F9069093F921
:102020007E30204609FB03F9642399FBF3F9A6F8F7
:10203000069002F0F5FE01344844072CF08006F1CA
:102040000206E8D1F7E05D4A5D4B517810465A4EE2
:1020500011B9B7F8D4200BE0B3F9E810B7F8D020E5
:10206000B7F8D2E0914203DB8E45B4BF72460A4610
:10207000F281F189534A95F896A01180827A1AF07C
:10208000010F0CBF01204FF0FF30A2B1B3F9E48083
:10209000D5F8D49008FB00F009F026FC494609F079
:1020A00077FC1AF0020F8346B4F9E2A00CBF0120BE
:1020B0004FF0FF3013E0B3F96083D5F8D49008FBFC
:1020C00000F009F011FC494609F062FC1AF0020F19
:1020D000B4F95EA383460CBF01204FF0FF30D5F862
:1020E000D0400AFB00F009F0FFFB214609F050FC4C
:1020F0000146584609F044FB09F010FE95F89EB0E1
:10210000F0801BF0010F0CBF01204FF0FF3008FBE7
:1021100000F009F0E9FB494609F03AFC1BF0020F18
:1021200081460CBF01204FF0FF300AFB00F009F0A0
:10213000DBFB214609F02CFC0146484609F020FB58
:1021400009F0ECFD3081032002F06AFEF3881844A8
:10215000F080042002F064FE3389184430816AE084
:10216000174E95F89E20B6F8603312F0010F0CBFA1
:102170004FF001094FF0FF3909FB03F90E4C1FFA2C
:1021800089F90420A4F8089002F04AFE95F8A620E8
:10219000B6F85E3312F0010F0CBF01264FF0FF3688
:1021A0005E4348442081B6B20520668102F038FEC5
:1021B000304460813FE000BF8200002054060020D0
:1021C00008010020DE1C0020D8180020C4060020D2
:1021D000A14E0324B6F862B305EBC40393F87E3036
:1021E000C4F1060113F0020F0CBF01224FF0FF32C1
:1021F00002FB0BF221F00101314413F0010FB1F8A1
:102200005E130CBF4FF0010A4FF0FF3A0AFB012AA0
:10221000DFF84C921FFA8AFA29F814A0204602F03F
:10222000FFFD504429F814000134072CD4D1B6F82E
:10223000E8208A4B1A80BB68990631D5002002F04D
:10224000EFFD874C06462080012002F0E9FD824A1E
:10225000608092F8B0301BB395F8C030B2F9C8C2B4
:1022600013F0020F95F986104FF0320395F97E9026
:10227000B2F9CA2219D00CFB01F1C9F1000902FB25
:1022800009F291FBF3F16FF0310C89B292FBFCFC87
:102290008C4492FBF3F2664411442680084460802B
:1022A000704B714A03F1100411E002FB09F20CFBC0
:1022B00001F192FBF3F2164491FBF3F326801844EC
:1022C000EDE723F8021FA34202F108020CD0B3F994
:1022D0000200B2F97810B2F87A608842F1DB31B2CC
:1022E0008142A8BF0146ECE795F8C0305A0706D4F2
:1022F0005E4B5A4A93F80090118801230FE05C4B23
:102300000024DD7D043D5B4B601903EB4403C0B248
:102310001989013403F09EF9042CF4D1E8E74B4508
:1023200008D232F9130009B28842A8BF014689B227
:102330000133F4E7B7F8D200B7F8D460431A1FFAB4
:1023400083FBBB680196B7F8D06003F4804403F0C8
:1023500010030B93B3B2B7F81A51464A0893464B91
:102360000A94B2F906C0019CB7F8D6200595B7F8D3
:10237000D8805D78B7F81C711FFA84FA07925C7CEC
:10238000069709954FEA490900234B453DD00AB20B
:102390008242324F02DDFA5A5A44FA520A9D2F4ABB
:1023A000B5B1059DD75EAC4507DD474503DB8742E8
:1023B000A8BF07460AE0474608E0019DAF4204DB9C
:1023C000079DAF42A8BF2F4600E0019FD75214E0FF
:1023D000FC5EB44203DB8442A8BF044600E03446FE
:1023E000D452069CA44507DA089C0B9D002D18BF0B
:1023F0005446D452012400E00024099A1AB91F4A15
:102400009F5A164A9F520233BFE7194A1A4B927DD0
:102410005C741946002A61D0194A5379013B142B88
:1024200050D8DFE803F00B4F4F37524F4F2F4F4F2D
:102430004F4F4F3F4F4F4F4F4F373F000A4B93F88F
:10244000BF301BB1064B0020598945E04878002871
:10245000F8D1014640E000BF08010020DE1C00204A
:102460008200002080000020F81C0020DC1C0020DE
:102470007C050020C40600205406002070040020C3
:10248000D8180020294C0020E18803F0E3F801204F
:10249000218921E0254C0020218903F0DBF801206F
:1024A000618919E0214C0020E18803F0D3F8012074
:1024B000218903F0CFF80220618903F0CBF80320D3
:1024C000A18909E093689B0608D5184C0020218853
:1024D00003F0C0F86188012003F0BCF80DB0BDE83E
:1024E000F04F02F081BC124B1B78002B3DF4E4AF9F
:1024F00002F0FCFBFDF7E0BF012202E0022200E057
:1025000003225FFA82F9002009F1FF33014685F8C2
:10251000003407F0A9F9022028214A4602F0C0FB46
:10252000FEF73EB80DB0BDE8F08F00BF820000207E
:1025300054060020AFF30080634B2DE9F04FB3F950
:102540000600624B8DB0DA8C90420FDBB0F5FA6F6B
:1025500093F8254007DA811A4C43A2F5FA6294FBFE
:10256000F2F4643403E0C4F1640400E06424584AE3
:1025700093F82360B2F81A1192F9EC2093F8705096
:1025800093F87170524293F8243092B20491002172
:102590000692059607930A464B4BDDF810C031F9B9
:1025A000038040F2E636CCEB080303F2F31EB64597
:1025B00003D8002BB8BF5B4201E04FF4FA73022A44
:1025C000DFF814C12CD025B1AB42CCBFC5EB03035F
:1025D00000236426DFF804A193FBF6FE6FF0630B83
:1025E0003AF81E900BFB0E3B0EF1010E3AF91EA0BD
:1025F0000FFA89FECEEB0A0E0EFB0BFE9EFBF6FEDB
:10260000CE442CF801E0DDF814C003FB0CFE314B86
:102610009EFBF3F333449BB2634393FBF6F314E066
:1026200027B1BB42CCBFC7EB03030023DDF818E0A2
:1026300003FB0EF6ACF80460079E002BB8BF5B42AC
:102640007343244E93FBF6F36433DFF88090DFF896
:1026500090C002EB090696F801A096F80BB0767DC3
:1026600003FB0AFA03FB0BFB73434FF0640E9AFB68
:10267000FEFA02F80CA093FBFEF30CF1030A0CF136
:10268000060C02F80C30DDF810C09BFBFEFBE045A9
:1026900002F80AB0104B05DA33F801E0CEF1000E73
:1026A00023F801E00132032A01F102017FF474AF43
:1026B000074DB5F81C21904214DBB0F5FA6FA8BFA6
:1026C0004FF4FA600FE000BFC4060020F81C0020A1
:1026D000D81800200CFEFFFFEA010020F00B0020BC
:1026E000FE0B00201046801A4FF47A714843C2F561
:1026F000FA62B0FBF2F24FF0640CB34C92FBFCF1C7
:1027000004EB4100B0F818E06FF0630000FB012219
:1027100004EB4101B1F91A000FFA8EF1411A4A4354
:1027200092FBFCFCE644A3F806E0A84BA84F5B7ABA
:10273000002B44D0A74BB3F90000A74BB3F90030EE
:10274000C01A08F027FD9EA3D3E9002308F088FDF6
:102750000022A24B08F0AEFE08F0BCFF80460BF052
:10276000E3FC814640460BF053FD8046B7F902007A
:1027700009F0BAF88246B7F9000009F0B5F8494601
:10278000834609F005F941460646504609F000F92E
:102790000146304608F0F2FF09F0C0FA4946388099
:1027A000504609F0F5F841468146584609F0F0F8E0
:1027B0000146484608F0E4FF09F0B0FA7880D5F801
:1027C0000880DFF848A218F0020F00F08380844BE5
:1027D00006211A88236B7C4F1A4494F83430226304
:1027E0000133DBB2B3FBF1F901FB193919F0FF0634
:1027F00084F8343004965CD17A4E7B4B7078B96B98
:1028000033F810E04FF0080B91FBFBF01FFA8EFE3F
:10281000081A7044B86390FBFBF080B203920193F6
:1028200009F062F8714909F0B3F8714909F064F9E7
:1028300081469AF80B0109F057F80146484609F01D
:10284000A7F809F091FA9AF80E11B887039A019B3C
:1028500079B37079396C33F8100091FBFBF380B2D7
:10286000CB1A03443B6493FBFBF39BB240F6E44179
:10287000594340F6FF70B1FBF0F1BAF808014FF48C
:102880007A73091A5943BAF8060191FBF0F14A43E9
:1028900092FBF3F37964D7E91201C01841EBE371BD
:1028A000C7E91201534A002309F07EFA049E3865F5
:1028B0003E63514AA38F12889A4203D395F80D21A3
:1028C0009A4203D9002384F8543003E03E4B04229B
:1028D00083F8542049483C4B417B94F8542001B183
:1028E000012118F4007F83F8551022D0444E454B47
:1028F00096F8B8101B8801EB810618B2B04215DDBE
:10290000324E76787EB1012684F856603C4E96F8B9
:10291000B960314401EB8101884207DD2A49022078
:1029200081F8560002E0022184F856100BB984F8B1
:102930005630354E336899060CD530498B7A0BB931
:10294000CB7A23B1214BDB7A0BB9012300E00023C2
:1029500084F8573094F856101B4B022902D14C20B2
:102960004E211DE0012904D14D2153204C220B465C
:1029700007E093F85710012906D1532001464E2253
:102980004D2306F0E9FB4EE093F85510012903D1E1
:10299000532001460246F3E7042A03D153204D2178
:1029A0000A460AE0022A03D1532001464D2204E0E0
:1029B000012A2DD153204D214E224423E1E700BFAF
:1029C000182D4454FB210940F00B00205406002030
:1029D000EA010020CC010020FE01002000806640BA
:1029E00020040020A0040020A8040020333353401A
:1029F00000F07F45407E0500B0040020B0010020BB
:102A0000F81C002024010020D8040020D818002041
:102A1000A44A107818B1322006F070FB03E083F866
:102A2000580002F050F8A04B1A8812B133689A0788
:102A300002D49E4B1B882BB19D4BDA6882F00802B2
:102A4000DA600FE09B4B9A7812B1994A0821116124
:102A50005B7813B1964B08225A61974B1B780BB1E8
:102A600007F0D0FBAB681B0662D5944A944F1368FD
:102A7000E26D9A1A002A5BDB03F543435033FB6592
:102A800097F860309BB97A238DF824308D4B022261
:102A9000B3F900306D20C3F1B40393FBF2F38DF86A
:102AA0002530FF2109AB04F099FF012325E0012B1C
:102AB00026D185497923B1F900208DF824300A23E5
:102AC00092FBF3F25A32B42AA8BFB42222EAE2728D
:102AD0008DF82520B1F902206D2092FBF3F35A33D3
:102AE000B42BA8BFB42323EAE3738DF82630FF216B
:102AF00009AB032204F072FF022387F8603017E06D
:102B0000022B15D164238DF8243001238DF8253054
:102B1000684B6D205B78FF21002B18BF01238DF8D7
:102B20002630032209AB04F059FF002384F86030FB
:102B3000624B1A68636ED31A002B11DB5D4B597B15
:102B400061B999705A4BD96881F00801D96002F5D2
:102B5000F4235B4A03F59073536601E001229A70F7
:102B600033685F0708D4594A1188594A9268891A0C
:102B700064225143574A116018070DD4564B1A88E6
:102B80000A23B2FBF3F291B20BB2B32B4D4BCABF87
:102B9000A2F5B47219801A800027D4F87421484B2A
:102BA0009742DFF84CA180F2438703F168014C2083
:102BB00000FB0711494A11609AF80010914619B1BB
:102BC00003F0B8FB00F034BF93F8003113B1444A6E
:102BD000444BDA60D9F80030DFF800A1186801F042
:102BE00094FE002800F02187DAF80030186801F020
:102BF00087FEDAF8003093F84920C2B9B0F1240119
:102C00004A424A4183F84920002AE3D1294B5B78A4
:102C1000002BDFD1232802D103F08CFBDAE795F8F3
:102C200001348342D6D1304A304B1A60CFE7012AB3
:102C300005D14D2814BF0022022200F0F2BE022A64
:102C400005D13C2814BF0022032200F0EABE032A6B
:102C50000DD140284FF0000200F2E38683F84720B0
:102C60005A7183F848001871042200F0DABE042A71
:102C700007D11A7983F8460050401871052200F0F8
:102C8000D0BE052AA6D193F8481093F84720914268
:102C900019792FD941401971511C83F847101344F9
:102CA000987197E7E11D0020EC1D0020E80B002043
:102CB000000C014054060020E00B002064010020BD
:102CC000F00B0020CC010020D003002020020020C7
:102CD00004020020E4010020260400203800002027
:102CE0000400FA0500ED00E0EFBEADDEF04F00207D
:102CF000F41D0020814240F0918693F84630752BF8
:102D000000F0428400F2F280692B00F05A8300F256
:102D1000A280452B00F063861FD8422B00F01C8652
:102D20000CD8402B00F03E86412B40F06E860020F0
:102D300001F022FE4FF0000A00F045BE432B00F0E8
:102D4000DF85442B40F06186002001F015FED04B5A
:102D5000012283F8002100F05CBE662B00F09D820A
:102D60006DD8642B00F06A82652B40F04E860B20F4
:102D700001F002FEC74BDFF818A3B3F9000001F021
:102D8000FEFDBAF8180100B201F0F9FDC24B1B6854
:102D9000C3F3C000C3F38002800040EA4200C3F3E3
:102DA00040021043C3F3401240EAC20003F0100394
:102DB000184301F0E4FDB94A002092F804E0D3780A
:102DC0004FEA8E0E4EEA430E53784EEA030E937985
:102DD0004EEAC30E53794EEA431E537A4EEA831EDF
:102DE000AF4BD9794EEAC11E197A4EEA012E597AB3
:102DF0004EEA412ED1794EEA812E117A927A4EEA2C
:102E0000C12E4EEA023E5A7B9AF817114EEA423E14
:102E10009A7B4EEA823E1A7C4EEA024E1A794EEABC
:102E2000021E5A7C4EEA424E9A7C4EEA824EDA7C70
:102E30001B7D4EEAC24E4EEA035E034616E2672B46
:102E400000F06C82682B40F0E085102001F094FDCA
:102E50004FF0000AAAE26F2B00F05E8325D86C2B9E
:102E600000F0E08219D86A2B00F0BB826B2B40F097
:102E7000CC85052001F080FD8A4BDFF814A2B3F960
:102E8000000001F07CFDBAF9260101F078FD9AF806
:102E9000010100F0010000F066BC6D2B00F0D18252
:102EA0006E2B00F0078300F0B0BD722B00F0DC83C6
:102EB00011D8702B00F05083712B40F0A685DFF8FD
:102EC000D0B14FF0000A9BF81701400000F0FE005F
:102ED00001F052FD65E3732B00F00C84742B40F07D
:102EE00094854FF0000A4FF0010B7EE3CE2B00F0EB
:102EF000AB8444D8C82B00F094802BD8782B00F0FA
:102F00001D820FD8762B00F00484772B40F07D854E
:102F1000DFF87CA14FF0000B9AF8170101F02CFDAF
:102F2000534699E3A02B00F0BB84A42B40F06D85A1
:102F3000DFF85CA14FF0000B9AF8300180000130FF
:102F4000C0B201F019FD9AF8300101F0E8FC5346D7
:102F500000F0B4BCCB2B61D009D8C92B75D0CA2BDB
:102F600040F05385DFF864A10AF10A0BB4E0CC2BE2
:102F700000F0D680CD2B00F03E8400F046BDD42B6F
:102F800000F0F88116D8D12B00F0F08307D8CF2BB2
:102F900000F0E980D02B00F0258400F036BDD22B64
:102FA00000F03781D32B40F0308501F001FF3E4B1C
:102FB0001880D3E0F02B00F0678410D8D62B00F0F7
:102FC0001B81EF2B40F0218501F0F2FEDFF800A11C
:102FD000AAF82C0001F0ECFEAAF82A00BEE0FA2BB9
:102FE00000F03A84FE2B40F01085082001F0C4FC6C
:102FF0002E4B2F4A1B684FF0000AB3FBF2F3C3EBD2
:10300000431103EB81032B490968B1FBF2F220491C
:1030100002EBC303A1F82E3100F02BBC4FF0000AE5
:103020006BE04FF0000A01F0C3FE234B23F80A00C7
:103030000AF1020ABAF1100FF5D1002001F09CFC50
:103040001E4B01221A7000F0E4BC01F0A6FE134BE7
:10305000DFF880A0D87201F0A0FE194B187001F0C3
:10306000B1FECAF8000001F0ADFECAF8040001F09C
:103070009FFE144B188001F09BFE134B1880044BED
:1030800093F8012142F0020283F8012166E000BFBB
:10309000F00B002020040020D8040020540600205B
:1030A000B00100203A040020FC01002008000020AC
:1030B00040420F0094000020C40600206001002060
:1030C000000200202002002028040020F71C00201D
:1030D000F81C00202402002001F05FFE0AF1010A22
:1030E0008AF8010001F059FE8AF80B0001F055FE44
:1030F000DA458AF81500EFD130E0D74B93F8172165
:1031000092452BD203F581731AF803B001F050FEFB
:10311000D24B0AF1010A03EB4B03A3F84600ECE79C
:1031200001F03BFEDFF834A38AF81F0001F035FE02
:103130008AF8200001F031FE8AF8230001F02DFE0C
:103140008AF8240001F029FE8AF8250001F025FE06
:103150008AF8210001F021FE8AF82200002001F007
:103160000BFC00F056BC01F023FE6FF4AF62831835
:10317000DFF8F4A2C62B98BFAAF81A0101F018FED6
:10318000AAF8D00001F014FEAAF8D20001F010FE57
:10319000AAF8D40001F00CFEDFF8C0B2ABF8BA0018
:1031A00001F0FBFD8AF8320101F0F7FD8AF83301E6
:1031B00001F0F3FD8AF8340101F0EFFD8AF80A010D
:1031C00001F0EBFD8AF82B0101F0E7FD01F0F0FDC5
:1031D00000EB80004000ABF8280001F0DEFD8AF82B
:1031E0000B0101F0DAFD8AF80D0101F0D6FD8AF835
:1031F0000C0101F0D2FDB1E74FF0000A01F0D8FD5B
:10320000974B23F80A000AF1020ABAF1100FF5D120
:10321000A4E7944B5B78002BA0D101F0BEFD924B4C
:10322000022883F800044FF0000088BF0022014606
:1032300088BF83F8002406F017FB8FE70720DFF82C
:1032400028A201F099FBE72001F069FB9AF805003C
:1032500001F065FB002001F062FB9AF82401834B2A
:10326000834A00280CBF10461846CBE38B420ED28F
:10327000804A13F802C0012202FA0CFC1CEA0E0F6D
:1032800018BF9A4003F1010318BF1043EEE701F0A5
:1032900080FB754B93F8000465E2122001F06CFB93
:1032A000754B1B88B3F5806F29D94FF0000A734B1B
:1032B0003AF90300082390FBF3F00AF1020A01F047
:1032C0005EFBBAF1060FF2D1DFF88CA1BAF920014A
:1032D00001F055FBBAF9220101F051FBBAF92401C2
:1032E000DFF8C4A101F04BFBBAF9000001F047FB85
:1032F000BAF9020001F043FBBAF904004FE3DFF82A
:1033000058A1BAF91A0101F03AFBBAF91C0101F00F
:1033100036FBBAF91E0101F032FBD5E7102001F0AF
:103320002BFB4FF0000A564B13F80A000AF1010A72
:1033300001F0F5FABAF1100FF5D16AE3382001F087
:103340001BFBDFF818A10AF1400BBAF9780001F075
:1033500016FBBAF97A0001F012FBBAF97C0001F011
:103360000EFB0AF1080A9AF8760001F0D8FADA455D
:10337000EBD14EE3002001F0FFFADFF8E0A00AF104
:10338000400B01F015FDAAF8780001F011FDAAF834
:103390007A0001F00DFDAAF87C0001F0FEFC0AF1B4
:1033A000080A8AF87600DA45EBD132E3354B13F898
:1033B0000A000AF1010A01F0B2FABAF1100FF5D1D0
:1033C00027E3102001F0D8FA4FF0000A2E4B33F912
:1033D0000A000AF1020A01F0D2FABAF1100FF5D18F
:1033E00017E3102001F0C8FA1E4BDFF8C0A0D87A0E
:1033F00001F095FA254B187801F091FADAF80000FF
:1034000001F0C7FADAF8040001F0C3FA204BB3F96F
:10341000000001F0B4FA1F4BB3F9000001F0AFFA5D
:103420001D4B16E0DFF888A0062001F0A5FABAF9D6
:10343000000001F0A4FABAF9020001F0A0FA174B5B
:1034400007E0062001F098FA154B186801F0A1FA80
:10345000144BB3F90000A2E2F00B0020F81C00208E
:103460007004002054060020D81800200C0000C072
:10347000040000C0F20C0020200000200A0D0020F3
:1034800082000020DE1C0020C40600200002002074
:10349000200200202804002026040020CC01002067
:1034A000E401002008040020E002002024020020A3
:1034B000D0030020DFF864A3072001F05DFABAF81A
:1034C0003C004FF6FF7BFF28A8BFFF20C0B201F0F1
:1034D00026FADAF850005845A8BF584620EAE070AE
:1034E00000B201F04CFAC94BB3F9000001F047FA01
:1034F000C74BDAF8440093F80A310028B8BF4042BD
:103500002BB10A2358435845A8BF584602E05845F6
:10351000A8BF584600B242E2DFF8FCA2072001F043
:103520002BFA9AF81F0001F0FAF99AF8200001F03E
:10353000F6F99AF8230001F0F2F99AF8240001F064
:10354000EEF99AF8250001F0EAF99AF8210001F065
:10355000E6F99AF8220006E11E2001F00DFADFF8E4
:10356000E0A20AF10A0B0AF1010A9AF8010001F03F
:10357000D6F99AF80B0001F0D2F99AF8150001F08B
:10358000CEF9DA45EFD144E22F2001F0F5F9DFF86A
:10359000B4A21AF8010F002800F03B8201F0BFF935
:1035A000F7E79BF817319A4580F03382994B1AF868
:1035B0000320994B0AF1010A03EB4203B3F94600D9
:1035C00001F0DDF9EDE7824408F10108934991F833
:1035D000170180450CDBBBF1000F00F01A825FFA87
:1035E0008AF001F0C9F94FF0000B4FF00008EDE749
:1035F00001F581718A4818F801104FF00C0E0EFB8E
:103600000101496B084604910AF045FB8446BBF171
:10361000000FD8D159466145D6DA049A505C029120
:10362000CDF80CC001F07BF90299DDF80CC0013136
:10363000F1E77C4A77495244127A1BF80100904224
:1036400003D1019301F06BF9019B0AF10C0ABAF165
:10365000FC0FEED10BF1010B93F81721934580F08D
:10366000D8814FF0000AE4E7DFF8A4A1162001F0AA
:1036700083F9BAF91A0101F082F9BAF9D00001F020
:103680007EF9DFF894B1BAF9D20001F078F9BAF90D
:10369000D40001F074F9BBF9BA0001F070F99AF89E
:1036A000320101F03CF99AF8330101F038F99AF847
:1036B000340101F034F99AF80A0101F030F99AF86E
:1036C0002B0101F02CF9002001F029F9BBF92800A9
:1036D0000A2390FBF3F001F052F99AF80B0101F084
:1036E0001EF99AF80D0101F01AF99AF80C0101F08F
:1036F00016F937E0082001F03FF94FF0010A5FFAB0
:103700008AF00AF1010A01F00AF9BAF1090FF6D1BB
:103710007FE101F042FB03461220019301F02CF9F6
:10372000019B0BB9404A02E0102B05D13F4AD2F869
:1037300000B0D2F804A002E04FF0000AD3461846C9
:1037400001F0EDF8584601F024F9504601F021F956
:10375000374B186801F01DF9002001F010F9002026
:1037600001F00DF9002001F0DAF852E101F015FB4B
:10377000834601F027FB039001F024FB019001F048
:1037800021FB824601F014FB01F012FB01F005FB66
:10379000039A019BBBF1000F0FD1234981E80C0074
:1037A000244B012283F807B01A73BAF1000F3FF4DB
:1037B000D5AC1F4BC3F800A0D0E4BBF1100F7FF4D1
:1037C000CDAC1A4981E80C00BAF1000F02D0184BB9
:1037D000C3F800A01548184B0222011D1A7004F00E
:1037E000F3FEBBE4134B5B78002B7FF4B7AC0120F6
:1037F00007F0D8F8B2E40F4B5B78002B7FF4AEAC47
:103800000E494FF4C8730B80A8E400BFC601002026
:10381000D8180020F20C0020F81C0020F00B00202B
:10382000CC090108FC090108040200201402002050
:10383000E00100205406002010020020EC1D0020B2
:10384000F71C0020CB090108864B5A78002A7FF428
:1038500085AC01229A7381E4824B93F801A0BAF1FE
:10386000000F40F0D2805046012105F0FDFF504688
:1038700075E47D4B33F90A000AF1020A01F07FF882
:10388000BAF1080FF5D1C4E0DFF8F8A1042001F087
:1038900073F8BAF92C0001F072F8BAF92A007EE048
:1038A0000C2001F069F8714B186801F072F8704B48
:1038B000186801F06EF86F4B1868A3E093F8302198
:1038C000934580F0A680DFF8C0A11AF80B000193A1
:1038D00001F025F80AF1100212F80B0001F01FF8B0
:1038E0000AF1200212F80B000AF1300A01F017F871
:1038F0001AF80B0001F013F80BF1010B019BDDE747
:10390000002001F039F801F048FADFF86CA100233B
:10391000CAF808308AF8050001F054FADAF80830DD
:103920001843CAF8080001F038FA8AF8170101F0C4
:103930003FFAAAF8E60001F03BFAAAF8E80001F025
:1039400037FAAAF8EA0001F033FAAAF8060101F002
:103950002FFAAAF808015CE0DFF81CA1102001F0A2
:103960000BF89AF8050000F0DAFFDAF8080001F029
:1039700010F89AF8170100F0D2FFBAF9E60000F04B
:10398000FEFFBAF9E80000F0FAFFBAF9EA0000F029
:10399000F6FFBAF9060100F0F2FFBAF9080100F0EB
:1039A000EEFF36E0082000F0E7FF4FF0000A324B50
:1039B000534493F80F010AF1010A00F0B0FFBAF185
:1039C000080FF4D125E001F0E8F92B4B53440AF13C
:1039D000010ABAF1080F83F80F01F4D119E013209E
:1039E00000F0CAFF4FF0000A244B13F80A000AF156
:1039F000010A00F094FFBAF10B0FF5D1002000F09E
:103A0000C8FF002000F0C5FF03E00120002100F006
:103A100095FFD9F80030187900F081FFD9F800300F
:103A2000002283F84920FFF7D5B80137FFF7B5B872
:103A30009AF8003023B133689B0600F1AC82C1E2F2
:103A4000AA680D4B1705F6D50D4A1278002AF2D058
:103A500093F843210ABB93F84431BBB9014B5B781F
:103A600016E000BF54060020180D0020E8F7FF1FE5
:103A7000ECF7FF1FF0F7FF1FD8180020BA19010854
:103A8000E00B0020F81C0020210D0020D44A137DFB
:103A9000003318BF0123002BCDD095F84231002B05
:103AA00040F08581CF4BD86800F02FFF002840F010
:103AB0007E81CD4FD4F878113A68CC4B511A7C29CD
:103AC000B84640F27481C3F8782193F87C21074608
:103AD000013283F87C2107F12400DFF810A3C0B283
:103AE00000F0BAFF0AF58D7333F9170007F0FCFEFA
:103AF000BF4B8346188807F0F7FE0146584607F08B
:103B0000FBFFBC4907F044FF08F008F9013700B299
:103B100000F0CEFF032FDED1302000F09DFFB64B2A
:103B2000B3F9000000F0C4FF00F0A4FF9AF87C0194
:103B300010F0030B2CD1DFF8D0A2102000F08CFF86
:103B4000DAF80030642793FBF7F000B200F0B0FF22
:103B5000212000F081FFDAF8003093FBF7F007FB3B
:103B6000103787EAE770A0EBE77000B200F0A0FF23
:103B7000142000F071FFA14BB3F9000000F098FF92
:103B80001C2000F069FF584600F092FF00F072FF21
:103B900094F87C31954F580740F0E380022000F004
:103BA0005BFFB7F97E014FF00A0A90FBFAF000F0D4
:103BB0007FFFAB68990760D5BB8F4FF06E0B0BFB97
:103BC00003FB15239BFBF3FB3A2000F045FF1FFA94
:103BD0008BFB6422BBFBF2F90FFA89F0039200F031
:103BE00067FF3B2000F038FF039A02FB19B080B258
:103BF0000530DFF818B290FBFAF000B200F058FF81
:103C00009BF80030BA8F40F6340192FBF3F24A433E
:103C10002A21B2FBF1F2B7F8801191FBF3F003FB1C
:103C200010131B019BB243EA02239BB2C2F303228F
:103C300043EA0209062000F00FFF0FFA89F000F0B6
:103C400037FFB7F880219BF80030013292B292FB27
:103C5000F3F103FB11232820A7F8803100F0FCFECC
:103C6000786C90FBFAF000B200F022FF042000F024
:103C7000F3FEB7F9500000F01BFF33689A066ED5CB
:103C8000DFF88CA15E4FDAF800303C2183EAE37C58
:103C9000ACEBE37C5B4B13209CFBF3F207FB02CC09
:103CA00001FB0CF9029199FBF3FB0193039200F0E5
:103CB000D3FE039A02EB820202EB82020BEB82003C
:103CC00007FB0B9B00B200F0F3FE4FF47A791B2048
:103CD00000F0C2FE9BFBF9F000B200F0E9FE2320E9
:103CE00000F0BAFEDAF80020002AACBF4E205320C4
:103CF00000F0DEFEDAF80420019B82EAE27BABEB07
:103D0000E27B9BFBF3F207FB02BB0299122001FB53
:103D10000BF1039291FBF3FB029100F09DFE039ADD
:103D200002EB820202EB82020BEB820000B200F097
:103D3000BFFE1A2000F090FE029907FB0B1191FBC9
:103D4000F9F000B200F0B4FE222000F085FEDAF8AF
:103D50000430002BACBF4520572000F0A9FE00F036
:103D600089FE94F87C31282B21D1204B0022D8F8F1
:103D7000007083F87C214FF47A73B7FBF3FA1720B5
:103D80003C2700F069FEBAFBF7F9B9FBF7F007FB37
:103D90001090000200B200F08BFE182000F05CFED4
:103DA00007FB19A000B200F083FE00F063FE95F857
:103DB0004231012B7FF43FAE0A4DE86800F0A5FDCB
:103DC00000283FF438AEE86800F09AFD0746052069
:103DD00000F039FF8A2F4AD08E2FEDD11AE000BFB4
:103DE000B00100207C050020D4180020F00B00203A
:103DF0002000002000007A4408040020CC010020AC
:103E0000806967FF80969800E80300201C0000206E
:103E10002402002000212E226E4809F01AFF7C2384
:103E200084F8AE31E02384F8B1317D2384F8DA31AF
:103E3000A38F84F8AF71DAB21B0A84F8CD3184F80D
:103E4000C331142384F8C63184F8C7314FF4FA73B0
:103E5000A4F8C8314823A4F8D031782384F8CC21C1
:103E600084F8C22184F8D2315A482E2190E0336878
:103E70009B06A1D5584D002105F5C1702C2209F0F3
:103E8000E8FE7C2384F88231A02384F885317D23E9
:103E900084F8AD31514B84F883711B7884F89C31E0
:103EA0004F4BDB7A002B6ED04E494F4A0F68DFF83C
:103EB0005CC197FBF2F06623C0B285F8AB31FB0F13
:103EC0000CFB00774FF0060E0EFB07F785F88B31E1
:103ED00042F21073B7FBF3F900EB800003FB197794
:103EE00049685FFA89F900EB800009EB800080B235
:103EF00091FBF2F2D2B285F88C01000A85F88D01AF
:103F0000C80F0CFB02110EFB01F185F89001B1FB0B
:103F1000F3F003FB101302EB8202C0B202EB820249
:103F200000EB820285F893311B0A92B285F8943136
:103F30002E4B85F89121120A85F892211A88642364
:103F4000B2FBF3F303EBC3039B009BB285F889310B
:103F50001B0A85F88A31264B85F88E711B883F0A2B
:103F600085F895311B0A85F89631224B85F88F71BB
:103F70001B8885F897311B0A85F89831B5F82631EA
:103F800085F89E3102E0202385F8AB311A482C21B8
:103F900004F0A8FC10E7194ED4F8DC2133689A1A13
:103FA000002A0FDB0D4A1278042A0BD90A4A03F5BE
:103FB000123303F5F873C2F8DC31114BDA6882F082
:103FC0001002DA600F4B9B680BB10F4898470DB099
:103FD000BDE8F08F9E0D0020F00B002000020020B5
:103FE0005406002024020020A0860100280400209E
:103FF0003A04002020020020720D002064010020FD
:10400000000C0140DC0400206E0D00206079FEFFF2
:10401000084BDA68D10709D4DA68520708D4DB689C
:1040200013F0100F0CBF04200320704701207047CD
:1040300002207047002002401C4BF0B51A781C4645
:10404000DAB11B4B1D781B4B1E7802231A4A5F1CEA
:10405000D15C294101F00F01062909D812F803C0EB
:10406000D75D02EB81020CEA060107EB0121116129
:104070000233102BEAD10023237006280F4A03D8FD
:104080000D4B93F82C1011B9B2F81A01F0BD104481
:104090000B4990F80F21097803EB8203186901B1ED
:1040A000400800F5777080B2F0BD00BF0801002025
:1040B000EC060020ED060020D00D0020D8180020CE
:1040C000EE060020044B184490F80F21034B53F8E0
:1040D0002200C0F3CF007047D81800204001002014
:1040E000064B074A184490F80F11B3F8183152F8EC
:1040F000210003EB500080B2704700BFD8180020A9
:10410000F0060020016B0346C26810B5406941B15A
:10411000196C541A005D013918BF0A46C0B21A64FE
:1041200010BD196A405C0131B1FBF2F402FB1412BC
:10413000C0B21A6210BD436B13B190F844007047CF
:10414000826A436AD31A584258417047036B13B1CD
:104150005A68036C01E0026AC369D01A18BF0120D3
:1041600070477047034B4FF4805208B11A61704793
:104170005A61704700080140034B4FF4805208B168
:104180005A6170471A61704700080140014B33F8CB
:1041900010007047C4060020034B184490F80F210C
:1041A000024B33F812007047D81800201C1300206F
:1041B00003799B070AD5436A8269D154426A03692D
:1041C0000132B2FBF3F103FB112343627047037921
:1041D00013F001030BD0026AC3699A4205D09CBF59
:1041E000C0681218D31AD8B270470020704718461A
:1041F0007047037910B513F0010304460ED0FFF7A2
:10420000E6FF60B1E3696269D05CE268C0B2013A7E
:10421000934234BF01330023E36110BD184610BD43
:10422000426A806A131A58425841704701717047B8
:104230007047034B53F820301B681980704700BF4C
:1042400070060020074BA1F57A7153F820304FF427
:104250007A701A689B884B4393FBF0F39BB21380F0
:10426000704700BF70060020034B4FF480521A8045
:1042700008B1024B18707047200000208000002019
:10428000064B1A78064B12B14FF4FF6201E04FF46F
:1042900080521A8008B1034B18707047BA10002082
:1042A00020000020440000202DE9F04F504A514EDC
:1042B0001768738984463089A7EB032785B003917B
:1042C00087FB0001B288CB111404C209F08842EACE
:1042D000416287FB000114EB020872884FF0000571
:1042E0004FEAC2344FEA1022B08945EB030942EA93
:1042F00001620B1287FB000114EB020A4FEAD05255
:1043000042EA41224FF0000545EB030B12F5FA603B
:104310004FEAE15343F10001CDE90001B0F5FA6F36
:1043200071F1000147DAA2FB024502FB03F1052609
:1043300005EB4105A4FB060106FB05114D104FEAF4
:104340003004B8EB040869EB050984082A4844EAFC
:1043500081748D104FF0FF31BAEB040A6BEB050B43
:10436000DDE9004584428D4125DA40F6AC50121853
:104370004FF0000143EB010302FB03F1A2FB022318
:104380006FF0060003EB4103544200FB0344A2FB21
:10439000000118EB000821444FF00B0449EB010920
:1043A000A2FB040104FB031149104FEA3000BAEBF1
:1043B000000A6BEB010B114B1A68A2FB0A0102FB0E
:1043C0000B11420D42EAC1224B15B2EB080263EB1E
:1043D0000903D00B40EA4340BCF1000F01D0CCF8F8
:1043E0000000039808B10099016005B0BDE8F08FA6
:1043F000D41000204005002024FAFFFFD810002030
:10440000324B2DE9F0411C88314B0A265A89B3F909
:104410001250A41A1A89ED025443B3F91420E4137C
:10442000224495FBF2F22244DA615643A2F57A6205
:1044300002FB02F4B3F90480B3F902C0B3F90E70C1
:1044400002FB0CFC02FB08F2B3F90C802413674357
:1044500004FB08F4241404EB62320232DC8892106C
:1044600002F50042B3F920506243B3F900304FEA3D
:10447000EC2404EBE72404EB8304AC40154B02343A
:104480001B68D20BA3EBA4044CF250332B416343C3
:1044900055BF5B00B3FBF2F3B3FBF2F35B001A1200
:1044A000524340F6DE3462430B4C08365C4324141E
:1044B00004EB224202F6CF62361103EB221300B165
:1044C000036001B10E60BDE8F08100BFE410002080
:1044D00004050020E010002043E3FFFF38B50C681E
:1044E0000546204609F0D7FB214602462868BDE86C
:1044F000384009F0D9BB10B50446FFF789FD012803
:1045000006D11CB1FFF784FD013CF8E7052010BD82
:10451000002C08BF052010BD38B505464FF43020EB
:10452000FFF7E9FF042812D1094C4FF4302023692A
:1045300043F0020323616561236943F04003236173
:10454000FFF7D9FF226941F6FD731340236138BD9F
:10455000002002408A6810B50C6A036814430A6997
:1045600023F4FF4314434A6923F0700314438A6918
:104570001443CA6914434A6A14438A6A22431343A0
:104580000360CB6843600B6883604B68C36010BDF9
:1045900002684FF6FE73134003600023036043601C
:1045A0008360C3602A4B984222D02A4B984229D07C
:1045B000294B984230D0294B984237D0284B98420B
:1045C0003ED0284B984206D153F8682C42F4700232
:1045D00043F8682C7047244B984206D153F87C2C42
:1045E00042F0706243F87C2C7047204B984206D111
:1045F00053F8042C42F00F0243F8042C70471C4B74
:10460000984206D153F8182C42F0F00243F8182CC7
:104610007047184B984206D153F82C2C42F4706224
:1046200043F82C2C7047144B984206D153F8402C79
:1046300042F4704243F8402C7047104B984205D129
:1046400053F8542C42F4702243F8542C704700BFA6
:10465000080002401C0002403000024044000240BA
:10466000580002406C0002408000024008040240F2
:104670001C0402403004024044040240580402403A
:1046800010B5104B4178DB688478DB43C3F3022319
:10469000C3F1040201FA02F20F21D9402140114373
:1046A000094B02780901C9B21A4482F80013027852
:1046B0000120510902F01F0200FA02F243F8212002
:1046C00010BD00BF00ED00E000E100E0013A2DE97F
:1046D000F8430C46072A30D8DFE802F004080C1231
:1046E000191E222603880B8043880DE043880B8027
:1046F000038803E003885B420B8043885B4203E04E
:1047000043885B420B8003886380838814E00388BE
:104710005B420B8043880CE043880B80038808E0F1
:1047200003880B80438803E043885B420B80038847
:104730005B42638083885B42A380304B1B78002BF5
:104740005AD1B4F9000007F0CFF88046B4F902005E
:1047500007F0CAF80746B4F9040007F0C5F8284D79
:1047600006462968404607F013F9E968814638464D
:1047700007F00EF90146484607F002F8A96981469C
:10478000304607F005F90146484606F0F9FF09F002
:1047900001FD69682080404607F0FAF829698146E2
:1047A000384607F0F5F80146484606F0E9FFE969A2
:1047B0008146304607F0ECF80146484606F0E0FF37
:1047C00009F0E8FCA9686080404607F0E1F86969F3
:1047D0008046384607F0DCF80146404606F0D0FF38
:1047E000296A0746304607F0D3F80146384606F0F6
:1047F000C7FF09F0CFFCA080BDE8F8831D000020B2
:10480000B40400202DE9F041069C002B06460F461B
:104810000CBF4FF020084FF03008234613F8011B5F
:1048200009B9154603E0002AFBDD013AF6E7002D41
:1048300004DD30464146B847013DF8E714F8011B56
:1048400011B13046B847F9E7BDE8F081F0B5012471
:10485000B0FBF4F58D4201D34C43F9E70026DCB1FF
:10486000B0FBF4F504FB1500B4FBF1F41EB9002D08
:1048700001DC002CF3D1092D03F101075FFA85FC5F
:1048800004DD002A0CBF5725372500E0302565449C
:104890001D7001363B46E2E71C70F0BDF0B5012407
:1048A000B0FBF4F58D4201D34C43F9E70026DCB1AF
:1048B000B0FBF4F504FB1500B4FBF1F41EB9002DB8
:1048C00001DC002CF3D1092D03F101075FFA85FC0F
:1048D00004DD002A0CBF5725372500E0302565444C
:1048E0001D7001363B46E2E71C70F0BD08B5036859
:1048F0005B69984708BD08B50368DB68984708BD41
:1049000008B503689B68984708BD08B503685B68ED
:10491000984708BD08B503681B68984708BD38B5B7
:10492000054D04462B6821461868FFF7F3FF2B68F6
:104930001A7954401C7138BD3800002038B504463F
:1049400024200D46FFF7EBFF4D20FFF7E8FF002C7A
:10495000084C0CBF3E202120FFF7E1FF2368002216
:1049600028461A71FFF7DBFF236893F84600BDE87D
:104970003840D4E73800002001460020DEE710B5BB
:104980000446C0B2FFF7CBFFC4F30720BDE81040D8
:10499000C5E710B50446C0B2FFF7C1FFC4F3072056
:1049A000FFF7BDFFC4F30740FFF7B9FF200EBDE8D6
:1049B0001040B4E7014B1868ACE700BF7C0500204D
:1049C00010B5441E14F8011F21B1034B1868FFF7FE
:1049D000A1FFF7E710BD00BF7C050020F8B5184B1C
:1049E0001B78042B28D1174B08221A6110221A6158
:1049F000154CA068FFF789FF58B1124D08266E616B
:104A0000A0682768FFF77CFF01463846FFF782FF62
:104A10002E6120680C4EFFF778FF0028E8D0094C83
:104A2000102565613068B768FFF76AFF01463846B0
:104A3000FFF770FF2561DBE70448BDE8F840BFE7FA
:104A400010070020000C01407C050020751A0108A9
:104A50000048B5E79B1A010838B5054C05465E21AC
:104A6000E068FFF757FFE0682946BDE8384051E7A6
:104A70007C050020014B5E21D8684BE77C050020B7
:104A800010B50A4C5E280146E06805D15D21FFF7AC
:104A900041FFE0683E2105E05D2903D1FFF73AFFC1
:104AA000E0683D21BDE8104034E700BF7C050020F0
:104AB00010B50446C0B2FFF7E3FFC4F30720BDE81A
:104AC0001040FFF7DDBF08B5014B1B68984708BDD4
:104AD000F01D002010B5094A094913688C68126856
:104AE0009342F8D1074A106811684FF47A72504324
:104AF000001BB0FBF1F002FB030010BDD418002036
:104B000010E000E09404002038B5124C0123054663
:104B100084F82C30FFF7DEFF236B41F28832C31A92
:104B20009342636384BF002384F8383094F83830AC
:104B3000EDB20F2B2063E55406D1074B01221A700A
:104B4000064B00221A8038BD024A013382F8383001
:104B500038BD00BFD00D0020080100202401002036
:104B600010B50446FFF7B6FF164AD36BD063C31ADD
:104B7000B3F57A6F84BF002382F8403092F840305A
:104B800023B9A82C1CD110490B7006E0022B02D1CE
:104B90000E490C7001E0142B01D80D49CC5401339F
:104BA000DBB282F84030094A127852000532934253
:104BB00006D1044B002283F84020034B01221A70D7
:104BC00010BD00BFD00D0020260100203C010020B8
:104BD0002701002038B50446FFF77CFF114B40F653
:104BE000C4115A6C5864821A8A4284BF002283F826
:104BF000482093F848200AB90F2C11D10A48002107
:104C0000017052B1094D182A154405F8014C04D120
:104C1000012283F84810027038BD013283F8482021
:104C200038BD00BFD00D0020090100200A0100207E
:104C300038B50446FFF74EFF0546FFF74BFF401B14
:104C4000A042FAD338BD10B504462CB14FF47A70A7
:104C5000FFF7EEFF013CF8E710BD40F2DB146043C4
:104C600008B50E4B10221A6108225A61841E0B4BA4
:104C70002046DA6882F01002DA60DA6882F0080210
:104C8000DA60FFF7E0FF0120FFF71DFF1920FFF7B3
:104C9000DAFF0020FFF717FFE9E700BF000C014033
:104CA0002DE9F04106460F4690460025EBB24345FC
:104CB00018D20024E3B2B3420FD20B4B0120DA68C2
:104CC000013482F00802DA60FFF7FDFE3846FFF794
:104CD000BAFF0020FFF7F7FEECE73C20FFF7B3FF39
:104CE0000135E3E7BDE8F081000C01400A4B1A886A
:104CF0000A4B52B99A7842B15A7862B901225A7075
:104D0000074B1A88074B1A8070475B781BB9022043
:104D1000FF210122C4E77047E80B00205406002061
:104D2000CC010020FE0100202DE9F0410F88002376
:104D300047FA03F2D2072BD58A7803F0070512F061
:104D4000100F18BF91F803C002F00F0618BF46EA13
:104D50000C06AD004FF00F0C0CFA05FC06FA05F539
:104D6000DC0850F82480282A28EA0C0C45EA0C05B7
:104D700040F8245005D101229A40C46824EA020276
:104D800005E0482A04D101229A40C4682243C26047
:104D90000133102BCCD1BDE8F081044B1B685A794C
:104DA000511C597113449879704700BF3800002096
:104DB00010B5FFF7F2FF0446FFF7EFFF04EB00200A
:104DC00080B210BD10B5FFF7F3FF0446FFF7F0FF08
:104DD00004EB004010BD034B5A780AB100225A7010
:104DE000704700BF5406002010B50024084BE0B205
:104DF0001B7883420BD9074B33F81010064B1B78F6
:104E0000834202D9054B1B6898470134EEE710BD79
:104E1000DC1C0020DE1C00206D060020680600203F
:104E2000074B03EBC003B3F87C301AB2112A04DC41
:104E30000728DCBF034B33F8123018B2704700BFAD
:104E4000F81C0020C40600202DE9F04F0C68836890
:104E500089B0D0F800A0D0F804800646204603931D
:104E60008B4609F061F90746204609F0D1F9DBF8D5
:104E700004408146204609F057F90546204609F0CE
:104E8000C7F9DBF8082004461046019209F04CF9F6
:104E9000019A8346104609F0BBF9394602905846FC
:104EA00006F076FD39460490029806F071FD5946E9
:104EB0000590484606F06CFD02990690484606F0BB
:104EC00067FD29460790584606F062FD01465046A8
:104ED00006F05EFD21468346069806F059FD014620
:104EE000059806F04DFC0146404606F051FD01468E
:104EF000584606F045FC21468346049806F048FDD6
:104F00000146079806F03AFC0146039806F040FD7A
:104F10000146584606F034FC3060029905F1004025
:104F200006F036FD0146504606F032FD2146834626
:104F3000079806F02DFD0146049806F01FFC014677
:104F4000404606F025FD0146584606F019FC21466C
:104F50008346059806F01CFD0146069806F010FCF5
:104F60000146039806F014FD0146584606F008FC79
:104F700021467060504606F00BFD2946044609F1B3
:104F8000004006F005FD0146404606F001FD0146E1
:104F9000204606F0F5FB39460446284606F0F8FCA4
:104FA0000146039806F0F4FC0146204606F0E8FBB3
:104FB000B06009B0BDE8F08F2DE9F84F384E0446D7
:104FC0003768384609F0B0F80546384609F020F948
:104FD00076688046304609F0A7F88346304609F0E7
:104FE00017F9D4F8049006462946484606F0D0FC46
:104FF000A76882464146384606F0CAFC014650463C
:1050000006F0BCFB21688246584606F0C1FC4146CA
:105010000446484606F0BCFC314606F0B9FC0146A1
:10502000204606F0ADFB31460446384606F0B0FC9B
:10503000294606F0ADFC0146204606F0A1FB0146DC
:10504000504609F073F9174906F0A2FC06F0B4F8CF
:1050500011A3D3E9002306F02DFA134B0446186878
:105060000D4606F0A9F802460B462046294605F0F3
:1050700045FF00220D4B06F01DFA06F02BFB09F050
:1050800089F883B21A0444BF00F5B4739BB218B216
:10509000BDE8F88FAFF30080182D4454FB21094080
:1050A0009C1000200000E144640500200000244022
:1050B00080EAE073A3EBE0738B4206DB002801DD9E
:1050C000401A704702D0084470470020704770B5FE
:1050D0000546441E14F8011F61B1074E304608F022
:1050E000CDFD0028F6D0861B0448631B304480F8B1
:1050F0000F31EFE770BD00BF50230108D818002022
:105100000F4B1A78452A17D1598840F20442914230
:1051100012D11A79BE2A0FD193F802240020EF2A67
:105120000CD113F8012B5040064A9342F9D1D0F12B
:10513000010038BF0020704700207047704700BF53
:1051400000F8010804FC010808B5FFF7D9FF10B901
:105150000A20FFF782FD0C4B0C49184640F204422E
:1051600008F06EFD90F80024022A84BF002280F827
:10517000002490F80014E82202FB0101044801F524
:10518000A47108F05DFD08BDD818002000F80108E2
:10519000F81C00202DE9F04102780346202A00F196
:1051A0000100F9D0092AF7D02D2A02D10346414D3A
:1051B00004E02B2A08BF03464FF07E551E4600240C
:1051C000334616F8012BA2F13007F9B209290DD8A0
:1051D0003949204606F0DCFB0446384606F084FBDD
:1051E0000146204606F0CCFA0446E9E72E2A17D1FC
:1051F000314F334616F8010B3038C2B2092A0FD8A6
:1052000006F072FB394606F077FC0146204606F0B0
:10521000B7FA29490446384606F0BAFB0746E8E7DC
:105220001A7802F0DF02452A38D15A782D2A02D1A5
:105230000233012604E02B2A14BF01330233002677
:10524000013B002713F8012F303AD1B2092903D8C6
:105250000A2101FB0727F5E7B7F59A7F28BF4FF42E
:105260009A77B8464FF07E51B8F1070F07D9084634
:10527000124906F08DFBA8F108080146F4E707F093
:10528000070737B108460C4906F082FB013F01468B
:10529000F7E72EB1204606F02FFC04E04FF07E51D8
:1052A000204606F075FB0146284606F071FBBDE876
:1052B000F08100BF000080BF0000204120BCBE4C38
:1052C00070B50646B6FBF2F40846154614B1204602
:1052D000FFF7F6FF05FB1464024B1B5D00F8013B72
:1052E00070BD00BFC91A010890F83B3210B57BB9F8
:1052F00090F83A3290F83922934209D2012199402C
:10530000B0F8404201332143A0F84012DBB2F3E78A
:1053100010BD90F842321BB1D1F1010138BF00211C
:10532000D0F834315A689B6809B1136170475361F2
:105330007047F8B5101A0C461F4606F0D5FA054618
:10534000381B06F0D1FA184B079E196806F020FBAF
:1053500029460446284606F01BFB21460746204600
:1053600006F016FB0146384606F00AFA09F068F91D
:105370000E4906F00DFB06F0D1FC069B2146186095
:1053800005F1004008F0D2FF094906F001FB094988
:1053900006F0F6F906F0C2FC0028BCBF00F50C4090
:1053A000A0303060F8BD00BF3C0000202C7D8E3F57
:1053B000A00CB34500A00C4610B506F095FA0021EC
:1053C000044606F0A1FC08B1204601E004F10040CB
:1053D000054906F091FB054906F0DAFA08F0A4FE4B
:1053E000034B186010BD00BF8096184B35FA8E3CF9
:1053F0003C00002038B50C4DEB7AA3B10B4B1B7869
:10540000042B10D90A4B0B4C18685B682060636052
:10541000FFF7D2FF084B1A88084B1A80084B1B88ED
:10542000A36001232B7338BD540600200002002026
:105430002402002004020020CC010020CA0F00201A
:105440002002002044F25063984203DDA0F50C4096
:10545000A0387047034B9842BCBF00F50C40A03009
:10546000704700BFB0B9FFFF70B52D4C2D4D60796E
:1054700006F036FA2C4906F03FFB2860E07B06F088
:105480002FFA294906F038FB284E6860EE60A079B3
:1054900006F026FA264906F02FFB264D2860207CD0
:1054A00006F01EFA204906F027FB6860A07E06F091
:1054B00017FA214906F020FBEE60A860E07906F0BB
:1054C0000FFA1B4906F018FB1C4D2860607C06F0A3
:1054D00007FA154906F010FB6860E07E06F000FA56
:1054E000154906F009FB164BA8601B7CEE60ABB1BA
:1054F000207906F0F5F90E4906F0FEFA114D286004
:10550000A07B06F0EDF9084906F0F6FA6860207E07
:1055100006F0E6F9084906F0EFFAA86070BD00BF92
:10552000F81C00209C0F00200000C8420000FA4434
:1055300000002041AC0F002000007A4454040020F9
:1055400054060020400400202DE9F047304A002393
:1055500092F82050D47F03FB03F01938684300F61B
:10556000C4105843604340F6C41190FBF1F0294940
:1055700021F813000133072BEDD192F8213092F876
:105580002260254AC3F1640CB2F8D050B2F8D29030
:1055900003EB830758425FFA8CFC7F00C6F1640876
:1055A000C5EB090980B2002284B221B2002904DCD3
:1055B000002C14BF1C46012400E0644601FB01FAE4
:1055C00064430AFB06FA9AFBF4F444444C434FF05C
:1055D0000A0A94FBFAF43C4424B204FB09F44FF4A5
:1055E0007A7194FBF1F40D492C4454520232504428
:1055F000182A80B2D8D1064BBDE8F0471B78012BA2
:1056000018BF074A074B08BF074A1A602CE700BFBC
:10561000F81C0020F00B0020D8180020080C0020F7
:105620004189000804000020A58B0008084B9A89D6
:1056300098811A89D007FCD5054B9889C0B2044BD4
:105640001A899107FBD51A891206FCD4704700BF4E
:1056500000380040044B1B78834204D9034B53F8B5
:1056600020301B6819807047A0060020A406002087
:105670000328104B0BD8104A12888A4207D2012205
:1056800002FA00F093F84920104383F8490093F898
:1056900049300F2B0CD1074B002283F84920074BD0
:1056A000198808B2142802DD1439198070471A804D
:1056B000704700BFD00D00202200002024010020F0
:1056C000144B10B5B3F84A20A3F84A10891AA3F86E
:1056D0004C2089B240F68C2291421C4603D900220C
:1056E00083F84E2010BDA1F2EF2292B240F2DA53BD
:1056F0009A4208D894F84E00072804D8064B23F89D
:105700001010FFF7B5FF94F84E30013384F84E3097
:1057100010BD00BFD00D00201C130020AFF300808F
:105720002DE9F04F9B4B95B093F83231C4B2012B69
:1057300000F0E78002D3022B40F0D985242C964D4F
:105740000CD006D80A2C00F08C800D2C00F089803B
:10575000C3E02A2C07D02C2C05D0BEE000232B70F0
:105760006B70AB70CAE06A782E782A4400218A4BAD
:10577000D170EEB9DA789E74472A19D11A79502A75
:1057800016D15A79472A07D19A79472A04D1DA796A
:10579000412A01D101229A746A797F4B522A07D19A
:1057A0009A794D2A04D1DA79432A04BF02229A74E5
:1057B000AB7C794F012B02D0022B33D046E0B31ED5
:1057C000072B43D8DFE803F0040810141C244229F7
:1057D00003F0F4FF686139E0EA786F4B532A35D162
:1057E0005A6952425A6131E003F0E8FFA8612DE0A6
:1057F000EA78694B572A29D19A6952429A6125E081
:10580000EA78664B302A94BF00220122DA721DE04A
:10581000002003F0B3FF287718E0002003F0AEFF6C
:10582000E88313E0072E06D0082E0FD1012003F0E5
:10583000A5FF78840AE0012003F0A0FF41F218439D
:1058400058434FF47A72B0FBF2F33B8401360023E5
:105850002A2C514A2E706B704BD1012182F82410F2
:105860004CE095F82430002B33D04B4BDB78402BA9
:1058700004D9A3F137021201D2B202E01B0103F0F6
:10588000F0022B79A978402B8CBF373B303BDBB241
:105890001344DBB29942404A1AD1937C012B08D0C1
:1058A000022B15D1118C3E4B528C19803D4B1A8026
:1058B0000EE03A49C97A61B13B4950690860906984
:1058C0004860107F39490870D18B394A118000E057
:1058D0000023002285F8242010E06B782E4A0E2B3E
:1058E00003D8591C13445170DC7095F824302A4AAF
:1058F0001BB991784C40947000E0002303F0010341
:105900004BE1254B002193F82520082A00F2448121
:10591000DFE802F00B05141E2F506E8A9700622CF0
:1059200001D1022207E083F82510B52C40F0348124
:1059300093F82520013283F825202DE1032283F8F6
:10594000252083F8264083F8274083F8284023E168
:10595000042283F8252093F8272093F82810224466
:10596000D2B283F827200A4483F8282083F82940FC
:1059700012E1052283F8252093F8272093F82810B8
:105980002244D2B283F827200A4483F828205C8579
:1059900002E100BFD8180020200E0020540600208D
:1059A00028040020260400202402002000020020F9
:1059B00020020020062183F8251093F8271093F881
:1059C00028002144C9B283F82710014483F8281025
:1059D000598D644A01EB0424A4B2B4F5007F89BF59
:1059E00000215485518582F8251000229A85D3E044
:1059F00093F8272093F828102244D2B283F8272066
:105A00000A4483F828209A8DC72A03D8554911449F
:105A100081F83040013292B29A855B8D934240F01A
:105A2000BB8007224F4B86E7082283F8252093F896
:105A30002730A34200F0B0804A4A002382F8253084
:105A4000ABE083F8251093F82810464AA14240F0B5
:105A5000A38092F8291006293CD004D8022912D03C
:105A6000032924D098E012294AD0302940F09480AC
:105A700092F834103C4A102988BF10211170107818
:105A80003A4900224AE03A49506B4860906B0860FE
:105A9000116C4FF47A7091FBF0F136480180364971
:105AA00092F8F800C872012182F8F9104BE092F8E0
:105AB000351011F0010105D092F83420D01E424279
:105AC000424100E00A4683F8F820002A3BD12A49E7
:105AD000CA7238E092F83B1011F0010105D092F83B
