:020000040800F2
:10000000005000200DE70008B9E7000875B70008A8
:10001000B9E70008B9E70008B9E7000800000000E8
:10002000000000000000000000000000B9E7000828
:10003000B9E7000800000000B9E7000851B7000860
:10004000B9E70008B9E70008B9E70008B9E7000810
:10005000B9E70008B9E70008B9E70008D5B7000814
:10006000B9E70008B9E70008B9E70008B9E70008F0
:10007000E5B60008B9E7000815B70008B9E70008B9
:10008000B9E70008B9E70008B9E70008B9E70008D0
:10009000B9E70008B9E70008B9E70008D1B70008D8
:1000A000B9E70008B9E70008B9E70008C3B70008D6
:1000B000B9B70008ADB70008A1B7000871B70008CC
:1000C00069B700086DB7000865B70008B9E7000810
:1000D000B9E70008A1B600082DB60008F5B500087C
:1000E000D9B70008B9E70008B9E700080000000028
:1000F0000000000000000000000000000000000000
:0C01000000000000000000005FF808F1A3
:100110002DE9F04F854C93B0A368854D13F008018D
:1001200000F0868094F88A21042A00F28380DFE8B8
:1001300002F00303055075002B787CE068787C4A58
:10014000002877D000209F05507002D5137E1E072F
:1001500070D4E8780023AA7800F00706AB83754BCB
:1001600042EA06221A602A7902F03F06760146EA40
:10017000D00058606879800040EA9210AA7902F0B5
:10018000010640EA86209860E87900F00F06F60143
:1001900046EA5202DA602A7A02F07F06360146EA1F
:1001A00010101861687A400040EAD212A87A00F074
:1001B000030642EA46225A61EA7A02F01F06B601B5
:1001C00046EA90009861287BC00040EA5212DA614A
:1001D0002CE0AA7F564B6AB393F820000022012836
:1001E0009A7727D19A8393F83420082A84BF08226B
:1001F00083F8342095F834004F4A0023DEB286425B
:1002000002F1020212D212F8016C12F8027C46EAE4
:1002100007274A4E46F823700133EFE795F8583028
:10022000434A00203BB1908382F85800012302E04A
:100230000B4600E000234248EE6D02688346961BA1
:10024000002E02DA002B00F0B58402F59C42203229
:10025000EA65DFF800A1DFF80091002939D1394EB5
:1002600088460F46DAF80030F8B29847A0F2EE223E
:1002700092B240F2DC539A42D5F8A020324B88BFAC
:10028000B4F88E011340002B03DA013B63F0030343
:100290000133274903EB870301EB4303A3F8600015
:1002A0003188738801370B44B188082F0B44F188DB
:1002B00006F108060B441BB24FF0040193FBF1F367
:1002C00029F8083008F10208CCD10132C5F8A02085
:1002D00009E00026F0B2DAF80030984729F8160055
:1002E0000136082EF6D1A368580404D595F8A43039
:1002F0000BB90BF033F994F897210C4B72B303321E
:1003000039F91200A0F57A70B0F57A7FA8BF4FF4E2
:100310007A7020EAE0700BF06DFF0C490CF072F877
:100320000B490BF0BBFF0CF0A5F92CE09C19002049
:1003300000010020B4080020220100203801002024
:10034000841F0020600100200300008000007A4428
:1003500000C07F44AC0800208808002093F8980172
:1003600090B1B44AD179B44A32F81100B3F89C2163
:1003700080B2801AB3F89A31C0EB802090FBF3F082
:1003800000B280F30A0080B2A368AC4A13F4024FB3
:10039000A5F8BC006AD0AA4EB2F91C0096F8CE307F
:1003A00003EB8301884241DDA64991F801E00F4645
:1003B000BEF1000F3AD0A449B1F88E11A9F800108F
:1003C000A9F80210A9F80410B6F8D010A9F8061080
:1003D0009E4991F800E08846BEF1030F08D99C4978
:1003E000C2F8C010032188F800100021A2F8C41040
:1003F00096F8CF20134403EB8303984211DDBF7CB2
:100400007FB90BF0ABF88F4B1F7098F80030042BBE
:1004100007D9904B0422C5F8C0308C4BA5F8C470A6
:100420001A70B5F8C6300133A5F8C63096F8CE304C
:10043000B5F91C2003EB83039A42804F13DDDFF8EC
:10044000048298F8016076B90BF088F87F4B88F841
:1004500000601A78042A06D97E4AA7F8C460C7F853
:10046000C02004221A70AB8B0133AB830022B4F896
:100470009011B4F89261134639F902009B08884242
:10048000C4BF63F07F03DBB20232B042B8BF43F0B7
:100490004003082AF0D195F8C800684A984205D16F
:1004A00092F8C900F92804D8013000E0002082F851
:1004B000C90085F8C830A368634A13F4804A604FC6
:1004C000B9F906300AD0B2F88E11B2F84C21881A68
:1004D000834206DD0A44934206DB02E08B4203DBE3
:1004E00018E04FF0000A15E00023C5F8C834C5F83D
:1004F000CC34C5F8D034C5F8D430C5F8D830B7F806
:1005000046302BB14D4B93F8A430002B42F0318094
:100510004FF0010AB7F8463073B195F8A4305BB9D3
:10052000484B5B7843B194F8953113B10BF016F852
:1005300002E0BAF1000FF9D195F8C9203F4B142A17
:1005400040F0C7803F4E7178D1B1B7F846202AB944
:1005500093F8C8305F2B01D10BF000F894F8943178
:10056000002B00F0B680B7F84630002B40F0B18089
:1005700095F8C8307D2B40F0AC800AF0EFFFA8E082
:1005800093F8C820572A15D1334B4FF47A721A804A
:10059000A368D90501D509F06FFE304B1B685A07D7
:1005A00002D52F4A0A21118013F0080337D1A5F88C
:1005B000CA3034E0A068400728D55A2A26D193F8DB
:1005C000CC0028B1012283F8CC1083F8CD2026E09E
:1005D00093F8CE101D4A81F0010183F8CE1051B17D
:1005E00011780A291BD91F49A3F8C400C3F8C01009
:1005F0000A21117013E010780B2810D91A48A3F8BB
:10060000C410C3F8C0000B20107008E05D2A01F090
:10061000B9875B2A01F0B8875E2A01F0B787B7F87F
:1006200046301BBB95F8C8206F2A1FD10AF03CFF4B
:1006300031E000BFF0050020F80500200001002097
:100640007C1E0020150800209C19002000000020BE
:10065000000D0108130D0108AC0D00202806002034
:10066000AE0D0020160D01081B0D010894F8942111
:1006700022B11BB995F8C8307E2BD7D095F8C83079
:10068000972B04D1984B4FF4C8721A8003E0A72B24
:1006900004BF0123B37395F8C830BB2B02D1BB8DC7
:1006A000023303E0B72B03D1BB8D023BBB8509E0CE
:1006B000BE2B02D17B8D023303E0BD2B09D17B8D94
:1006C000023B7B850120014604F0D6F8002385F823
:1006D000C930A068420731D595F8CE20834B8AB146
:1006E000834A527872B1834AB9F90610B2F8902160
:1006F000914207DD93F8A42022B93221A3F8D0104B
:1007000083F8CE2095F8B520784B62B193F8D220CB
:100710002AB993F8CC2012B93222A3F8D0200123B1
:1007200085F8D2300AE093F8CC203AB1704A52787A
:1007300022B983F8CC20012283F8CD206E4E01230C
:10074000002136F8022F03F1FF3CA2F2155EBEF540
:10075000C77F8CBF4FF0000E4FF0010E0EFA03FE64
:1007600012B24EEA010140F2135E7245CCBF4FF067
:10077000000E4FF0010E0EFA0CFE41EA0E0140F29F
:10078000A46E7245D4BF0022012203F1010E02FAC9
:100790000EF2033311430D2B89B2D2D1002307EBA4
:1007A000430EBEF846E0514A11EA0E0F0CBF4FF05F
:1007B000000E4FF0010E02F1A40603F806E001332B
:1007C000182BECD192F8A530494E4C4943B94C4B0B
:1007D000B2F91C2093F8CE3003EB83039A421BDD61
:1007E0000A68930718D5F37843B9C5F8D430C5F82B
:1007F000D8303F4B4FF0010E83F803E000040ED5D4
:1008000097F8CE30B5F91C0003EB8303984206DD60
:10081000920604D5012301E00023F370B37495F828
:10082000A630324A5BB10023F370337943B9C2F882
:10083000D430C2F8D8302E4B01221A7100E0337147
:1008400095F8A4300BB901233370F2782D4B12B90F
:10085000274A127912B110225A6101E010221A615E
:1008600009684B0725D595F8A720204B9AB1B07998
:1008700090B91F4A4FF0010E82F806E0D3F8E0204D
:10088000C3F8F000C3F8DC20B3F8EC20C3F8F400A0
:10089000A3F8E42000E0B271A368980409D595F8A4
:1008A000A8302BB1F37B23B9114B0122DA7300E09E
:1008B000F37311F00A0F30D095F8A9300B4A4BB101
:1008C000737943B90A4B01205871B2F8CA30A2F8C3
:1008D000F83000E0737195F8AA30ABB1737AA3B920
:1008E000034B01225A7210E0901F002000010020EB
:1008F000150800209C1900208E08002028060020E2
:100900007C1E0020000C0140737295F8AB20B04BA8
:100910001AB1B3F8CA20A3F8FA2011F0200FDFF8BB
:10092000B08200F0CC80F27AAA4B002A00F0C2809C
:1009300095F8FC20042A40F2BD8098F8AE20A64924
:100940000AB99A7CB2B1F079A24B002840F09F809E
:1009500048701872A1480122011DDA7102920393B6
:1009600006F0E0FA022185F80C11B5F81C11C5F863
:10097000181136E0DA7198F8AF20002A35D0B8F9AE
:10098000E600B7F8E2200028B8BF404290422CDAD7
:10099000B8F9E8000028B8BF4042904225DA1A7A38
:1009A000002A74D14A70D8F820114FF0010CC8F811
:1009B0001011D8F8241108F58870C8F8141108F53A
:1009C0008A7183F808C0CDF810C00292039306F034
:1009D000A9FADDF810C0B8F81C1188F80CC1C8F8E5
:1009E0001811029A039BDA7451E04978002333729C
:1009F00000294CD1784B01225A708E46744B00224C
:100A000003F594702EF8002003F597702EF800205F
:100A100003F599702EF8002003F59C7C002041F826
:100A20000C008C44CCF80420CCF8080003F5B07C12
:100A300041F80C008C44CCF80420CCF808000EF1EE
:100A4000020E03F5C47C41F80C00BEF1040F8C4487
:100A5000CCF80420CCF8080001F11401CED1317C8F
:100A600011B90023F37412E0C3F8B001C3F8B40164
:100A7000A3F8B821A3F8BA21A3F8BC215849002350
:100A800053520C31535202320A2AF7D1E9E7524944
:100A90000B780C2B13D995F8D6214D4B7AB95148C8
:100AA000A3F8C420C3F8C0000C200870012183F80B
:100AB000D61104E00023F371337285F80C3195F8F8
:100AC000B0302BB1B37C1BB9424B01229A7201E0CA
:100AD0000023B372637903F0EF02082A01D00E2BD2
:100AE0002AD1A268002192053A4B717224D597F859
:100AF000CE2006277A43B5F91C0090421CDD012266
:100B0000DA70394A9972B2F88E118AB2A9F80020C7
:100B1000A9F80220A9F80420344AB2F8D020A9F894
:100B20000620DA7A42B92A4890F8FC00052803D852
:100B30009A742F4B32391980A2682B4BD70640F19B
:100B400068817278002A00F06481224A127C002AAF
:100B500040F05F81BAF1000F23D02649D8F8D821A0
:100B600009684AB993F876314FF47A7202FB03129E
:100B7000174BC3F8D82106E08A4204D293F87631A5
:100B80000BB10AF0EBFC144B1A78092A40F24181B0
:100B9000194AC8F8C02009221A700023A8F8C430E6
:100BA00037E1D8F8D831002B00F03381084BC3F877
:100BB000D8A12EE1064BD3F8DC31042B00F22981B9
:100BC000DFE813F01C00A200F40000010B0100BFDD
:100BD0000001002015080020000000200002002075
:100BE000BE020020220D01089C1900207C1E00205E
:100BF0008808002098190020130D01080123C5F86A
:100C0000DC31B14BB14E1B6818077DD5D6F8E03109
:100C1000D31A002B78DBAE4B02F5C332A0325B68EF
:100C200006F5F270C6F8E0219847AA4B06F5F27770
:100C30009A7B184692B1D6F8E0210023C6F8EC2141
:100C4000E1180022A1F870211646A349FA5A5A5217
:100C500006315A520233062BF2D186739F4B1B7812
:100C6000A3B1B5F8E421B4F87031D31AA5F8E43192
:100C7000B5F8E621B4F87231D31AA5F8E631B5F823
:100C8000E821B4F87431D31AA5F8E831D5F8EC317D
:100C90008E4A002B00F0BD80D2F8E0119048CB1AAC
:100CA000834202F5FB7102F5F87019D88D4BDA68B2
:100CB00082F00802DA600023FA5A30F903E016B233
:100CC000B645C4BFDFF810E223F80E2031F903E087
:100CD000B645BCBF844E9A530233062BECD198E044
:100CE0000023C2F8EC31C75ECE5EE2183E44022714
:100CF0003B4496FBF7F6062BA2F87061F3D1012076
:100D0000014603F0B9FD84E0D5F8DC316F4E0133C4
:100D1000C5F8DC316C4B1B68590747D5D6F8FC3158
:100D2000D31A002B42DBD6F80032C6F8FC216F4FF5
:100D30009BB13B6998477B689847D6F8FC313A8865
:100D400006F501701344C6F8FC3106F502717B69A3
:100D500098470023C6F800325BE0BB689847FB6801
:100D60009847634AD6F80C1292F831204B1C9342F4
:100D700008BF0023D5F8042205EB8101C1F8102239
:100D8000D5F8D012C5F80C320A4405EB8301D1F82E
:100D900010020123121AC5F8D022C5F800327A8851
:100DA000D5F8FC311344C5F8FC3132E0D5F8DC311C
:100DB0000133C5F8DC31444B1B685B0702D505F0F5
:100DC000B3F930BBD5F8DC310133C5F8DC31A368A9
:100DD000DF0502D502F034FB1BE00023C5F8DC314F
:100DE000394B1B68DE0614D5424B1A68424B196812
:100DF0003C318A420DD31A60404F414A334B394E41
:100E0000C3F8D4223B880B20336108F0DDFE3B8819
:100E1000736108F0BFFEA389CBF800002BB1D5F8B1
:100E2000D822821A002AC1F2C3831844C5F8D80216
:100E300007F0A2FE08F0AEFE324BCBF800001A68B5
:100E40001860314B821AB3F90610294B92B2059201
:100E5000A5F8DC22DA8C91420FDBB1F5FA6F93F83A
:100E6000257007DA881A4743A2F5FA6297FBF2F772
:100E7000643703E0C7F1640700E06427B4F88E210B
:100E800093F82350069294F95C2193F876605242CD
:100E900092B293F877E093F82430089200220993F5
:100EA000079513461848DDF8189032F900B040F263
:100EB000E634C9EB0B0000F2F315A54226D8002852
:100EC000B8BF404224E000BF2806002000010020F7
:100ED000A006002015080020F0020020C80600200F
:100EE0007FC3C901000C0140F602002078060020F3
:100EF0007C1E002098190020980D00208C0D0020E9
:100F000038000020A80D0020880800204FF4FA7057
:100F1000022B30D026B1B042CCBFC6EB000000207F
:100F20006424DFF810A390FBF4F80AEB48056FF097
:100F3000630C0CFB080CB5F8DE520AEB4808B8F954
:100F4000E0920FFA85F8C8EB090808FB0CF8DDF809
:100F50001CC098FBF4F800FB0CF0A8440AF1E6056D
:100F600022F80580B24D90FBF5F52544ADB27D43E6
:100F700095FBF4F518E0BEF1000F04D07045CCBF2E
:100F8000CEEB00000020089DDDF8249000FB05F466
:100F90000028B8BF4042A74D00FB09F0A5F8EA4081
:100FA000A34C90FBF4F56435DFF8BC82A24803EB58
:100FB000080494F8019094F80BA005FB09F905FBCF
:100FC0000AFA647D4FF0640C99FBFCF965439AFBC7
:100FD000FCFA03F8009000F1030903F809A0DDF81A
:100FE00018A000F1060995FBFCF5D34503F809505C
:100FF000A0F53B74C14604DA04F1E600155A6D42CF
:1010000015520133032B02F102027FF44BAF8B4ADE
:10101000B2F89031994205DBB1F5FA6FA8BF4FF4F1
:10102000FA6100E01946C91A4FF47A725143C3F5C8
:10103000FA63B1FBF3F3642693FBF6F204EB42018F
:10104000B1F8F6026FF0630101FB023304EB4202D8
:10105000B2F9F81202B28A1A534393FBF6F6784BB0
:1010600030445B7A734DA4F8EC00002B44D0B5F902
:10107000FA30B5F9CA00C01A0AF012FD6AA3D3E922
:1010800000230AF073FD00226E4B0AF099FE0AF06D
:10109000A7FF06460DF02CFD074630460DF09CFDDF
:1010A0000646B5F9E8000BF0A5F88046B5F9E6006C
:1010B0000BF0A0F8394682460BF0F0F83146834633
:1010C00040460BF0EBF8014658460AF0DDFF0BF006
:1010D000ABFA3946A5F8E60040460BF0DFF831469A
:1010E000074650460BF0DAF8014638460AF0CEFFC4
:1010F0000BF09AFAA5F8E800504ED6F8088018F0E0
:10110000020F00F0C280D4F81033DDF814B00622CC
:101110009B4494F81433474D0133DBB2B3FBF2FA2E
:1011200002FB1A3A1AF0FF07C4F810B384F814331C
:10113000059766D1444A454B5078D5F8181333F8D3
:1011400010E0082791FBF7F01FFA8EFE081A704492
:10115000C5F8180390FBF7F080B2029203930BF0EE
:1011600049F83B490BF09AF83A490BF04BF98246A3
:1011700096F87D010BF03EF8014650460BF08EF8D4
:101180000BF078FA96F88111A5F81C03029A039BDC
:10119000002936D05279D5F8201333F8122091FB6C
:1011A000F7F392B2CB1A1344C5F8203393FBF7F34D
:1011B0009BB240F6E441594340F6FF72B1FBF2F1B5
:1011C000B6F87A21B6F87831891A4FF47A72514319
:1011D00091FBF3F10BFB01FB2B469BFBF2F2C5F8F5
:1011E0002413F3E9CA01801841EBE271C3E900015D
:1011F000194A00230BF05EFA059EC5F83003C5F8C6
:101200001063164AB4F81C1312880A4B8A42144A17
:101210002CD31178012938D91249C3F8C010012103
:101220002FE000BFAFF30080182D4454FB2109408C
:101230000CFEFFFF00010020EC0300209C190020A1
:101240001508002000806640F0050020F805002009
:101250003333534000F07F45407E050002060020F6
:1012600000000020310D01087C1E0020AE480088DF
:1012700088420AD31178022907D9AC49C3F8C010B3
:10128000022111700022A3F8C42094F8B130A84DB7
:101290008BB32B78082B2ED918F4807F23D0A54B45
:1012A000DB7A03B3A44B93F8FC0004281BD900237A
:1012B000A24905225A540F26CA185670122B03F160
:1012C0000206F2B204D0B0EB520F3346F0D800E081
:1012D00014222244642382F83533FF2382F8363304
:1012E000C4F8C01002E0964BC4F8C03008232B703D
:1012F0000023A4F8C4302B780D2B1FD0D4F8C020C5
:101300008D4BDAB193F84A038E4980B90868D3F857
:101310004C13814212D8012083F84A03B3F8C43039
:10132000D35C0BB108F02FFC05F0F2FA06E0086878
:10133000D3F84C13814201D80020EDE7824B1B8883
:101340001BB1824B1B68980702D4814B1B882BB1C1
:10135000804BDA6882F00802DA600FE0754B9A7809
:1013600012B17C4A082111615B7813B1794B0822D4
:101370005A61794B1B780BB108F0F8F9774FDFF819
:10138000F081BB6813F0800F62D0D8F80030D4F839
:101390005023694E9A1A002A5ADB03F5434350330F
:1013A000C6F8503396F8543393B97A238DF8303019
:1013B000B6F9CA300222C3F1B40393FBF2F38DF8FD
:1013C00031306D200CABFF2106F0A0FF012324E09B
:1013D000012B25D17923B6F956238DF830300A2315
:1013E00092FBF3F25A32B42AA8BFB42222EAE27284
:1013F0008DF83120B6F958236D2092FBF3F35A3360
:10140000B42BA8BFB42323EAE3738DF83230FF2155
:101410000CAB032206F07AFF022386F8543317E060
:10142000022B15D164238DF8303001238DF8313033
:10143000404B6D205B78FF21002B18BF01238DF8F6
:10144000323003220CAB06F061FF002384F85433E2
:10145000D8F80020D4F85C33D31A002B0FDB354BBF
:10146000597B71B999703B4BD96881F00801D960FB
:1014700002F5F423304A03F59073C2F85C3300267A
:101480000DE001229A70FAE793F8F8331BBB6B6802
:10149000DFF89C80186809F04CFC10BB0136D4F8CA
:1014A000FC23254B9642DFF8CC8080F29E8003F52A
:1014B00058724C2101FB06226A6098F80020002A2D
:1014C000E2D008F037F890E097F8C1348342DED1DB
:1014D000234A244B1A6007F0DFFF234A234BDA60CC
:1014E000D5E7D8F80430186809F01EFCD8F80430A5
:1014F00093F8492082B9B0F124014A424A4183F865
:101500004920002AC3D10B4B5B78002BBFD1232885
:10151000DAD108F00FF8BAE7012A2DD14D2814BF0F
:10152000002202225EE000BF00060020340D010808
:1015300000000020150800200001002034040020D5
:10154000370D010898190020901F00202806002060
:10155000AC0D0020000C0140A40D00209C190020BF
:10156000EFBEADDEF04F00200400FA0500ED00E014
:10157000841F0020881F0020022A04D13C2814BFA9
:10158000002203222EE0032A0BD140284FF0000254
:1015900028D883F847205A7183F84800187104222C
:1015A00020E0042A06D11A7983F8460050401871C9
:1015B000052217E0052A7FF46AAF93F8481093F8E4
:1015C00047209142197907D941401971511C83F87C
:1015D0004710134498715AE7814201D101F000F895
:1015E0006B68002283F8492051E798F800303BB13E
:1015F0000C4B1A681E4612F0200F40F09582AAE2AA
:10160000BA68094B1205F3D5084A1278002AEFD0C0
:1016100093F8AF21AAB993F8B0315BB9044B5B786A
:101620000AE000BF280600209C190020A40D00201D
:101630001508002094F8B830003318BF0123002BA0
:10164000D6D097F8AE31002B40F07E81D94BD868C8
:1016500009F06FFB002840F07781D74ED4F80014D2
:101660003268D64B511A7C2940F26E81C3F80024AF
:1016700093F804248046013283F8042408F12400FE
:10168000CE4EC0B209F0FCFB06F2064333F9180057
:101690000AF0B0FDCA4B824618880AF0ABFD01463D
:1016A00050460AF0AFFEC7490AF0F8FD0AF0BCFF49
:1016B00008F1010800B209F00FFCB8F1030FDDD109
:1016C000302009F0DDFBB6F90C0409F005FC09F047
:1016D000E5FB96F8040410F0030A2AD1102009F063
:1016E000CFFBD6F810344FF0640893FBF8F000B24B
:1016F00009F0F2FB212009F0C3FBD6F8103493FB6C
:10170000F8F008FB103888EAE870A0EBE87000B247
:1017100009F0E2FB142009F0B3FBB6F9CA0009F0A6
:10172000DBFB1C2009F0ACFB504609F0D5FB09F0AF
:10173000B5FB94F80434A14E5B0740F0DF80022033
:1017400009F09EFBB6F914044FF00A0890FBF8F07C
:1017500009F0C2FBBB68980763D5B6F81C334FF09D
:101760006E0A0AFB03FA15239AFBF3FA3A2009F0F2
:1017700087FB1FFA8AFA6422BAFBF2FB0FFA8BF09E
:10178000029209F0A9FB3B2009F07AFB029A02FBC6
:101790001BA080B20530DFF83CA290FBF8F000B24D
:1017A00009F09AFB9AF80030B6F81C2340F6340191
:1017B00092FBF3F24A432A21B2FBF1F2B6F8161477
:1017C00091FBF3F003FB10131B019BB243EA0223CE
:1017D0009BB2C2F3032243EA020B062009F050FB3E
:1017E0000FFA8BF009F078FBB6F816249AF800305F
:1017F000013292B292FBF3F103FB11232820A6F8E9
:10180000163409F03DFBD6F8240390FBF8F000B243
:1018100009F062FB042009F033FBB6F9300309F04C
:101820005BFB694B1B68990666D5D4F82011DFF87D
:10183000A8A1664E0029B8BF494291FBFAF306FB06
:1018400003113C2202FB01FB13200292039309F0D7
:1018500017FB039B9BFBFAF803EB830303EB830368
:1018600008EB830006FB08B800B209F035FB4FF423
:101870007A7B1B2009F004FB98FBFBF000B209F017
:101880002BFB232009F0FCFAD4F820110029ACBF6F
:101890004E20532009F020FBD4F82411029A00298D
:1018A000B8BF494291FBFAF806FB08114A4308EB1E
:1018B000880892FBFAFA122008EB8808029209F0D5
:1018C000DFFA0AEB880000B209F006FB1A2009F0E3
:1018D000D7FA029A06FB0A2A9AFBFBF000B209F03B
:1018E000FBFA222009F0CCFAD4F82431002BACBF4B
:1018F0004520572009F0F0FA09F0D0FA94F80434A2
:10190000282B21D12C482D4B0022066883F8042473
:101910004FF47A73B6FBF3F817203C2609F0B0FABF
:10192000B8FBF6FABAFBF6F006FB10A0000200B214
:1019300009F0D2FA182009F0A3FA06FB1A8000B2C7
:1019400009F0CAFA09F0AAFA97F8AE31012B7FF430
:101950004FAE184EF06809F0ECF900283FF448AE9D
:10196000F06809F0E1F90746052008F038F98A2FF8
:1019700045D08E2FEDD100212E2215480CF04DFEC2
:101980007C2384F84A34E02384F84D347D2384F8A2
:101990007634B4F81C3384F84B74DAB21B0A84F83A
:1019A000693484F85F34142384F8623484F863342F
:1019B00014E000BFCC060020981900200001002090
:1019C0002400002000007A4428060020806967FF78
:1019D0004A05002020000020809698004FF4FA73FA
:1019E000A4F864344823A4F86C34782384F8682479
:1019F00084F85E2484F86E34B1482E2191E0B14B16
:101A00001B689A06A5D5B04E002106F583602C22EE
:101A10000CF003FE7C2384F81834A02384F81B34D4
:101A20007D2384F8433494F8FC3084F8197484F8E6
:101A30003234A64BDB7A002B6ED0D6F82071A44A44
:101A4000DFF8A88297FBF2F06623C0B286F8413433
:101A5000FB0F08FB00774FF0060E0EFB07F786F82A
:101A6000213442F21073B7FBF3F100EB800003FB6B
:101A7000117700EB8000C9B201EB8000D6F8241189
:101A800080B291FBF2F2D2B286F82204000A86F804
:101A90002304C80F08FB02110EFB01F186F826048F
:101AA00002EB8202B1FBF3F003FB101302EB8202A4
:101AB000C0B200EB820292B286F82724120A86F89E
:101AC000282486F82934B6F844241B0A86F82A34D8
:101AD0006423B2FBF3F303EBC3039B009BB286F8D2
:101AE0001F341B0A86F82034B6F8463486F824746E
:101AF00086F82B341B0A86F82C34B6F81C313F0AC2
:101B000086F82D341B0A86F82E34B6F8483486F849
:101B1000257486F8343402E0202386F841346D4879
:101B20002C2105F08DFB14E76B4BD4F878141B685F
:101B3000654A591A00290EDB92F8FC1004290AD9CB
:101B400003F5123303F5F873C2F87834634BDA689F
:101B500082F01002DA60624B9B680BB161489847D3
:101B600031680B0736D5B4F8EA20574E02F1450329
:101B70009BB28A2B2AD8554B58791F4630B3B6F8FA
:101B8000F830B6F8CA00C01A80B283B21EB2B336BB
:101B9000BCBF00F5B4739BB218B2B3287E7B524829
:101BA000C4BFA3F5B4739BB290F85C0196B140B288
:101BB0004042434399F809001BB243436FF01D00B4
:101BC00093FBF0F31A44A4F8EA2003E0B4F8CA3017
:101BD000A4F8F8304F0740F196803C4B9A79002AE0
:101BE00000F091801E7C002E40F0828099F87900F0
:101BF00099F87820344B88B3B4F8ECE0B4F9E400F9
:101C00000FFA8EF7C0EB0708B8F1000FB8BFC8F1A4
:101C1000000890450FDD8742C8BF52421FFA8EFE72
:101C2000C8BF92B2C3F8F0607244012683F87C64A6
:101C3000A4F8EC2067E093F87C242AB1D3F8E020E4
:101C400083F87C64C3F8DC20D4F8F430264A1844C6
:101C5000B2F84031B2F84221984229E0B4F9E47078
:101C6000B4F9EC60F61B86EAE67EAEEBE67E9645BE
:101C70000ADD022296FBF2F60122C3F8806483F8A3
:101C8000842483F87C240AE093F87C243AB1D3F8C6
:101C9000E06083F88404C3F8DC6083F87C041248B5
:101CA000D4F8F420B0F840313A44B0F842019A42F6
:101CB00003DB8242B4BF13460346A4F8EC3022E0B3
:101CC0004A050020280600200001002015080020F9
:101CD000A086010018050020841F0020000C014090
:101CE0002C060020140500209C1900206079FEFFBE
:101CF000AD4BB4F8E82093F99601D4F8F43000FB2A
:101D00000323A4F8E83099F87C305BB1A74BDA786C
:101D10000AB91B7933B1B4F8EC30B4F88624134413
:101D2000A4F8EC308E0640F1C480A04BDA791AB9E1
:101D30001A7A002A00F0B6801B7B002B00F0B280DC
:101D4000B4F9CA000AF056FA99490AF0A7FA074608
:101D50000CF042FF804638460CF0CAFE934B954E7D
:101D60001B7C0746002B40F09A8099F8DBA0B6F95F
:101D70003401BAF1000F5FD0B6F83031CAF1000675
:101D80001FFA83FB1BB2C01A08F09EFAB04203DBB5
:101D90005045A8BF504600E03046B4F82E21834499
:101DA000B4F9320193B212B21FFA8BFB801AA4F875
:101DB00030B1039308F088FAB042039B03DB50452F
:101DC000B4BF064656461E447A49B6B2A1F82E6103
:101DD0000FFA8BF00AF00EFA824630B20AF00AFAD5
:101DE0003946064650460AF059FA4146834630467F
:101DF0000AF054FA014658460AF046F96E490AF0CC
:101E000001FB0AF011FC6B4A4146A2F8280150463A
:101E10000AF044FA3946804630460AF03FFA014655
:101E200040460AF033F964490AF0ECFA0AF0FCFB88
:101E3000604BA3F82A013CE00AF0DCF98346B6F9CE
:101E400032010AF0D7F93946824658460AF026FA96
:101E500041460346504603930AF020FA039B01468D
:101E600018460AF011F954490AF0CCFA0AF0DCFBE2
:101E70004146A6F8280158460AF010FA394680462D
:101E800050460AF00BFA014640460AF0FFF84A496C
:101E90000AF0B8FA0AF0C8FBA6F82A0109E006F031
:101EA00035FB06E00023A4F82831A4F82A31A4F871
:101EB0002C31AB689847414B93F800B0BBF1030F4E
:101EC00013D9B4F9EA10B4F98C240029B8BF4942F7
:101ED0006FF063035B1A9A4204DB01F164039342DF
:101EE000A8BF1346A4F88C3408E0BBF1010F05D855
:101EF0002E492D4B0A7C002A4FD172E099F9D4A0CB
:101F0000B4F98C24CAF1000A02FB0AFAB4F8EC30E6
:101F1000B4F88A74B4F88884294D00265E4505F12A
:101F20001005E5D218B203930AF064F955F8101CB5
:101F30000AF0B4F9024638B202920AF05BF955F899
:101F4000081C0AF0ABF9029A014610460AF09EF806
:101F500002460FFA88F002920AF04CF955F80C1C70
:101F60000AF09CF9029A014610460AF08FF80246E0
:101F7000504602920AF03EF955F8041C0AF08EF918
:101F8000029A014610460AF081F80AF04DFB0D4A0C
:101F9000039B22F816000136C0E74A7809489AB92F
:101FA000B3F844211CE000BF9C1900201508002054
:101FB00035FA8E3C0001002000002041601E002008
:101FC000E4060020621E0020B4F9EC50B3F8402172
:101FD000B3F84261954203DBAE42B4BF32462A46B3
:101FE00002805A79013AD2B2172A00F228810123DD
:101FF00003FA02F2BC4B134053BBD00640F11F81E1
:1020000099F98430B4F95803B8495843322390FB06
:10201000F3F0B9F8823080B21AB2112ADCBFB44BA7
:1020200033F8123003440B80B4F9560399F98E301B
:102030005843322390FBF3F0B9F88C3080B21AB2D7
:10204000112ADCBFAA4B33F8123003444B80F6E070
:102050008B7A53B1B4F8E630ADF83030B4F8E830EC
:10206000ADF83230B4F8EA3009E0B4F88834ADF8AD
:102070003030B4F88A34ADF83230B4F88C34ADF87E
:1020800034309C4B9C4D1B88B5F88E21ADF8363012
:10209000974B1989511AADF838105989511AADF872
:1020A0003A109989511AADF83C10D989511AADF8F6
:1020B0003E101988511AADF840105988511AADF8E0
:1020C00042109988511AADF84410D988521AADF8C7
:1020D0004620002202EB82014944B1F8821008B286
:1020E0001128D8BF33F81010804811520232102A3C
:1020F000F0D1824B00211B785B0006930B46DDF884
:1021000018C0634500F08A807D4D4A19907920B14E
:10211000204490F8B80000287BD0685C0A2505FBB5
:102120000095B5F880707835ED8892F904B07F1B82
:10213000BFB207FB0BFB64259BFBF5FB567992F8BE
:1021400001A04FEA570C92F80380CCEB0B0B0596DD
:102150001FFA8BFB6B4D4FEA4A0E12AEB8F1000F1F
:1021600003D1764436F8186C0CE0B6443EF918EC0E
:10217000EE5E764508DAB044B04503DBC645B4BF31
:1021800076464646EE520AE009DDC8EB0608F04501
:1021900003DBB045B4BFC646B64625F803E0DFF81A
:1021A0006CE14FF00A0808FB00EEBEF886E0DFF8AD
:1021B00054814EFA0AFA33F9088092F902201AF093
:1021C000010F02FB08F24FF06408484D92FBF8F251
:1021D0000FFA8BFB0CBF4FF0010E4FF0FF3E5A453C
:1021E00035F810601FFA8EFE0EDBDDF814A04FFAF2
:1021F0008AFB07FB0BFB9BFBF8FBCCEB0B0B0FFAF3
:102200008BFB9345A8BF93460BFB0E6B25F810B0D4
:1022100001E03C4A98520233073170E73A4A002302
:102220003A49B2F90200194491F984100A33414342
:10223000642091FBF0F1502B22F8021FF0D12E4BBD
:102240009A68324B12F0200F3ED0B3F88220B3F8D8
:102250008C5011B21129D8BF254A2448D8BF32F872
:10226000112029B21129D8BF214D0280D8BF35F8DD
:102270001150DFF89C80458094F8AC001B492E4635
:1022800010B393F8D60093F98E5010F0020FB8F9FE
:1022900056734FF0320093F984E0B8F958C318D060
:1022A0007D43CEF1000E0CFB0EFC95FBF0F56FF0BC
:1022B0003107ADB29CFBF7F72F449CFBF0FC3A448E
:1022C00065440A802E444E800F4A104902F11006E0
:1022D00026E00CFB0EFE7D439EFBF0FE724495FB58
:1022E000F0F00A800644EEE7892098008000002084
:1022F00088080020621E00209C190020A4070020EE
:10230000A50700208E0500207E0000207C1E0020F6
:102310000001002022F8020FB24201F10A010CD0A4
:10232000B2F90250B1F97E00B1F880708542F1DB5C
:1023300038B2A842A8BF2846ECE793F8D630590730
:1023400006D49D4B9D4A93F80090118801230FE01D
:102350009B4B0025DE7D043E9A4BA81903EB4503F9
:10236000C0B21989013508F0B7F8042DF4D1E8E7B7
:102370004B4508D232F9130009B28842A8BF014682
:1023800089B20133F4E7904A8F4DB2F84201B5F8B3
:102390008EB1431A1FFA83FA9368B5F848E18A4E62
:1023A000B5F8445103F4804403F01003B6F84661D5
:1023B000854F844A0B93ABB20893844BB2F9062045
:1023C0000596B7F840610A94B7F890C15C7801921D
:1023D000B2B20994CDF818C05C7C07924FEA490963
:1023E00000234B454CD00AB28242DFF8D0C104DD55
:1023F0003CF8032052442CF803200A9F6F4AC7B1CF
:10240000DDF804C0DC4532F903C007DDF44503DB29
:102410008445A8BF844609E0F44607E0AC4504DBE8
:10242000059FBC45A8BFBC4600E0AC4622F803C0EF
:102430001CE03CF90380B04503DB8045A8BF804623
:1024400000E0B04602EB030C22F80380069F019ADD
:10245000BA420ADA0B9A1AB9079FACF8007005E085
:10246000089A0124ACF8002000E00024099F2FB94D
:10247000574A33F802C0514A23F802C00233B0E78A
:102480004F4A524B917D5C741A4600296ED04E4DD6
:102490006B79013B172B5DD8DFE803F00C5C5C190E
:1024A0005F5C5C215C5C5C5C5C295C5C5C5C5C191A
:1024B000295C5C39474B93F8D5301BB1464B002063
:1024C000598951E050780028F8D101464CE0424C3F
:1024D0000020218908F000F80120618944E03E4C89
:1024E0000020E18807F0F8FF012021893CE03A4C08
:1024F0000020E18807F0F0FF0120218907F0ECFFC0
:102500000220618907F0E8FF0320A1892CE0324C0A
:102510000020E18807F0E0FF0120218907F0DCFFBF
:102520000220618907F0D8FF0320A18907F0D4FFBA
:10253000AB68DA071AD50420218807F0CDFF052003
:10254000618807F0C9FF0620A18807F0C5FF0720B2
:10255000E18909E0AB689B0608D51F4C0020218863
:1025600007F0BAFF6188012007F0B6FF07F0B2FB61
:102570001EE0164B1B78002B3DF4CAAF08F094FF09
:10258000FDF7C6BF012202E0022200E003225FFA4B
:1025900082F8002008F1FF33014684F8C03402F0CD
:1025A0006BF902202821424608F0ECFCFEF737B810
:1025B00013B0BDE8F08F00BF601E0020621E002037
:1025C000CC060020880800209C1900201508002057
:1025D000AE0500207C1E002080000020AFF30080AC
:1025E0002DE9F347CA4D2B6893F84630752B00F060
:1025F000F38400F2EE80692B00F04A8400F2A2809E
:10260000452B00F0FA861CD8422B00F0B9860BD877
:10261000402B00F0D886412B40F00187002008F0C5
:10262000BFFB002400F0DDBE432B00F06186442B8D
:1026300040F0F586002008F0B3FB0122B54B00F016
:10264000DABE662B00F06C8271D8642B00F04382F6
:10265000652B40F0E4860B2008F0A2FBAE4BB3F9EB
:10266000000008F0A0FBAD4B588800B208F09BFBBF
:10267000AB4B1B68C3F3C000C3F38002800040EA89
:102680004200C3F340021043C3F3401240EAC200C9
:1026900003F01003184308F086FBA24A00201479C7
:1026A000D378A40044EA430453781C43937944EA62
:1026B000C304537944EA4314537A44EA83149A4B8B
:1026C000D97944EAC114197A44EA0124597A44EACE
:1026D0004124D17944EA8124117A927A44EAC124CE
:1026E00044EA02345A7B44EA42349A7B44EA823414
:1026F0001A7C44EA02441A7944EA02145A7C44EAF5
:1027000042449A7C44EA8244DA7C44EAC2441A7D18
:1027100044EA02545A7D44EA42549A7DDB7D44EAFD
:10272000825444EAC354814B19780346E3E1672B92
:1027300000F03082682B40F07286102008F030FBE9
:1027400000249DE36F2B00F0CF8323D86C2B00F087
:10275000EB8317D86A2B00F0A7836B2B40F05F86C2
:10276000052008F01DFB724BB3F9000008F01BFBBD
:10277000704BB3F9000008F016FB684B187800F0B6
:102780000100CEE36D2B00F0DD836E2B00F0E583BE
:1027900000F045BE722B00F09D840FD8702B00F026
:1027A0000884712B40F03B86604E00243078400056
:1027B00000F0FE0008F0F4FA00F042BC732B00F0C9
:1027C000CF84742B40F02B864FF00008012400F0DA
:1027D00054BCCE2B00F03F853ED8C82B00F088803B
:1027E00025D8782B00F0E3810DD8762B00F0C38438
:1027F000772B40F014864D4C0026207808F0D0FA54
:10280000274600F061BCA02B00F04C85A42B40F0C3
:102810000686424E0024B07B374680000130C0B2AD
:1028200008F0BEFAB07B08F08EFA00F049BDCB2B61
:102830005CD009D8C92B00F08F80CA2B40F0EF85FF
:102840003D4C04F10A06A8E0CC2B00F0C280CD2B51
:1028500000F0F68400F0E3BDD42B00F03E8216D8E1
:10286000D12B00F0AE8407D8CF2B00F0CF80D02B37
:1028700000F0DC8400F0D3BDD22B00F01881D32B04
:1028800040F0CD8507F0F8F92C4B188080E0F02B54
:1028900000F0FD840DD8D62B00F00081EF2B40F026
:1028A000BE8507F0E9F9264CA08507F0E5F96085BB
:1028B0006EE0FA2B00F0D884FE2B40F0B0850820A3
:1028C00008F06EFA1F4B204A1B680024B3FBF2F39A
:1028D000C3EB431103EB81031C490968B1FBF2F21E
:1028E0000E4902EBC3038B8100F0C9BC002461E0F8
:1028F000002407F0C1F9164B18530234102CF8D1FC
:10290000002008F04DFA0122124B00F074BD00BF08
:1029100004000020F8040020DC030020B00D00209B
:102920002806002015080020A4010020B01800206F
:1029300046050020480500207B1E0020F8010020ED
:102940007C1E00200C00002040420F009000002060
:10295000880800205801002007F084F9C14BC24CC0
:10296000D87207F07FF9C14B187007F08FF920601B
:1029700007F08CF9606007F07FF9BD4B188007F015
:102980007BF9BC4B1880BC4B1A7842F002021A70DB
:10299000002008F005FA00F046BD07F063F90134A5
:1029A000607007F05FF9E07207F05CF9B44260759F
:1029B000F3D1EDE7B14B1B789C42E9D2B04BE65C1A
:1029C00007F05AF9AF4B013403EB4606A6F8460070
:1029D000F0E707F047F9AB4CE07707F043F984F8EC
:1029E000200007F03FF984F8230007F03BF984F852
:1029F000240007F037F984F8250007F033F984F84C
:102A0000210007F02FF984F82200C1E707F034F91C
:102A10006FF4AF6143189C4CC62B98BFA4F88E018D
:102A200007F02AF9A4F8400107F026F9A4F84201BA
:102A300007F022F9A4F8440107F01EF9914EA6F818
:102A4000D00007F00FF984F89E0107F00BF984F825
:102A50009F0107F007F984F8A00107F003F984F853
:102A60007C0107F0FFF884F8970107F0FBF807F006
:102A700003F900EB80004000308507F0F3F884F89C
:102A80007D0107F0EFF884F87F0107F0EBF884F898
:102A90007E0107F0E7F884F8800179E7002407F069
:102AA000EBF87A4B18530234102CF8D170E76D4BC9
:102AB0005B78002B7FF46CAF07F0D4F8724B0228E0
:102AC00094BF83F8C00400224FF0000088BF83F851
:102AD000C0240146CFE3072008F062F9E72008F0A0
:102AE00032F9694B587908F02EF9002008F02BF9DB
:102AF000674800F091BC8B420CD2614A9E5C012277
:102B000002FA06F6264218BF9A4003F1010318BFE5
:102B10001043F0E708F051F95B4B93F8C00400E272
:102B2000122008F03DF95B4B5B4C1B88B3F5806FBE
:102B300023D90026A05F082390FBF3F0023608F0AB
:102B400032F9062EF6D1554CB4F9000008F02BF9F5
:102B5000B4F9020008F027F9B4F90400504C08F069
:102B600022F9B4F9000008F01EF9B4F9020008F0E7
:102B70001AF9B4F9040000F023BCB4F9000008F01D
:102B800012F9B4F9020008F00EF9B4F9040008F0E3
:102B90000AF9D8E7102008F003F90024414B185D2A
:102BA000013408F0D0F8102CF8D100F03CBC3820EB
:102BB00008F0F6F8334C0026B4F97E0008F0F3F87C
:102BC000B4F9800008F0EFF8B4F9820008F0EBF8EF
:102BD0002D4B94F884005B79082B18D004D8012B76
:102BE0000DD0042B05D06FE0142B1ED0152B2ED04A
:102BF0006AE0F3B2042B2FD0052B2DD064E0F3B2A2
:102C0000052B61D1B4F8863013F0040F1BE0F3B24A
:102C1000032B01D0042B57D1B4F886309A0748BF54
:102C200040F0010013F0010F4BE0F3B2042B04D18C
:102C3000B4F8863013F0020F05E0052B44D1B4F848
:102C4000863013F0010F3FD040F001003CE0F3B2BA
:102C5000032B01D0042B27D1B4F8863013F0020FD8
:102C60002AE000BF1508002020020020FC010020FF
:102C70001C02002044050020B00D0020B0180020E8
:102C8000981800207C1E00209C190020AE05002012
:102C90000C0000C024000020060500204213002084
:102CA000E402002080000020052B01D0062B0BD170
:102CB000B4F8863013F0010F18BF40F0010013F094
:102CC000040F18BF40F00200013608F03CF8082E4F
:102CD00004F10A047FF470AFA5E3002008F060F867
:102CE000DFF83093002606F0C7FFA9F87E0006F053
:102CF000C3FFA9F8800006F0BFFFA9F8820006F024
:102D0000B1FF20F0030389F88430B94B04465F79A2
:102D1000082F78D029D8012F71D0042F40F0A98036
:102D20004FF0010A5FFA86F85346CDF800A04046FE
:102D300021463A4606F0B3FF5346CDF800A0404680
:102D40004FF0020A2146052206F0A9FF404621461F
:102D50003A465346CDF800A006F0A1FFCDF800A0FA
:102D6000404621460522534681E0142F6FD0152F8F
:102D70007FD1F7B24FF001084346CDF800803846C6
:102D80002146032206F08BFF4FF0000A4346CDF8A0
:102D9000008038462146042206F081FF434638462B
:102DA00021460522CDF800A006F079FF43463846BB
:102DB0004FF0020821460622CDF800A006F06FFF72
:102DC0003846214603224346CDF8008006F067FFCF
:102DD0003846214604224346CDF8008006F05FFFC6
:102DE0003846214605224346CDF8008006F057FFBD
:102DF000CDF80080384621460622434637E00223BC
:102E00000093F0B230E04FF00108F7B24346CDF83E
:102E1000008038462146032206F041FF4346CDF8A4
:102E200000803846214604224FF0000806F037FFA4
:102E30003846214603220223CDF8008006F02FFFFA
:102E4000CDF8008038462146042202230FE05FFAC5
:102E500086F8012740463B4600972146042206F0AB
:102E60001EFF002300934046214605223B4606F004
:102E700016FF0136082E09F10A097FF434AFD2E2B9
:102E80005C4B185D013407F05EFF102CF8D1CAE2EC
:102E9000102007F085FF0024574B185F023407F01D
:102EA00082FF102CF8D1BEE2102007F079FF534BBF
:102EB000534CD87A07F047FF524B187807F043FF7E
:102EC000206807F07AFF606807F077FF4E4BB3F990
:102ED000000007F068FF4D4BB3F9000007F063FFF7
:102EE0004B4BB3F904006BE24A4C072007F058FF44
:102EF000E07F07F028FF94F8200007F024FF94F803
:102F0000230007F020FF94F8240007F01CFF94F83A
:102F1000250007F018FF94F8210007F014FF94F83B
:102F2000220007F010FF7EE23B4C062007F038FF3E
:102F3000B4F9000007F037FFB4F9020007F033FFDF
:102F4000364B07E0062007F02BFF354B186807F0DB
:102F500034FF344BB3F9000032E2072007F020FFC2
:102F6000314B4FF6FF741888FF28A8BFFF20C0B26E
:102F700007F0E9FE2D4B1868A042A8BF204620EAC2
:102F8000E07000B207F00FFF294BB3F9000007F023
:102F90000AFF174B93F87C21264B18680028B8BF0E
:102FA00040420AB10A235843A042A8BF204600B2BB
:102FB00006E21E2007F0F4FE1F4C04F10A0601345D
:102FC000607807F0C0FEE07A07F0BDFE607D07F094
:102FD000BAFEB442F3D126E22F2007F0E1FE174CEF
:102FE00014F8010F002800F01E8207F0ACFEF7E78E
:102FF0009C190020621E002088080020150800206F
:1030000020020020FC0100201C02002044050020BA
:10301000B00D00207C1E002056040020CA010020B4
:10302000E00100200C0500201C04002030040020DA
:10303000BC010020240400207B1E0020CB150108C9
:1030400033789C4280F0EF81BC4BE25CBC4B013496
:1030500003EB4203B3F9460007F0A5FEF0E7804416
:103060000136B84B1B789E4209DB002C00F0DB8157
:103070005FFA88F007F094FE00240026F1E7AF4BDA
:10308000B14AF35C0C2101FB0323D3F8349048468A
:103090000BF0E5FA8246002CE1D127465745DFDAEE
:1030A00019F8070007F04FFE0137F7E7A74BA34ACF
:1030B00023441B7AB05C984201D107F044FE0C34E3
:1030C000B4F5907FF2D101363B789E4280F0AB811F
:1030D0000024EBE79E4C162007F062FEB4F98E0147
:1030E00007F061FEB4F9400107F05DFE944EB4F9BB
:1030F000420107F058FEB4F9440107F054FEB6F956
:10310000D00007F050FE94F89E0107F01CFE94F8E2
:103110009F0107F018FE94F8A00107F014FE94F840
:103120007C0107F010FE94F8970107F00CFE0020D8
:1031300007F009FEB6F928000A2390FBF3F007F028
:1031400032FE94F87D0107F0FEFD94F87F0107F050
:10315000FAFD94F87E0107F0F6FD94F88001E0E6B0
:10316000082007F01DFE0124E0B2013407F0EBFD5A
:10317000092CF9D157E106F075FD0746122007F03A
:103180000FFE0FB9734B02E0102F03D1724B1E6874
:103190005C6801E000242646384607F0D4FD30463E
:1031A00007F00BFE204607F008FE6C4B186807F08E
:1031B00004FE002007F0F7FD002007F0F4FD0020DA
:1031C000AFE606F04FFD064606F060FD804606F0CD
:1031D0005DFD074606F05AFD044606F04DFD06F07B
:1031E0004BFD06F03FFD76B95A4B01225F60C3F8F4
:1031F00000805B4BDE711A73002C3FF4C9AB574B58
:103200001C60FFF7C5BB102E7FF4C2AB524BC3F856
:1032100000805F600CB1514B1C604F48514B022243
:10322000011D1A7003F07EFEFFF7B2BB4C4B5B78BA
:10323000002B7FF4ADAB012001F0BCFBFFF7A8BB76
:10324000474B5B78002B7FF4A3AB474B4FF4C8721E
:103250001A80FFF79DBB424B5A78002A7FF498AB47
:1032600001229A73FFF794BB3D4B5B78002B40F033
:10327000D6800020012101F0FFFAFFF789BB3B4B0C
:10328000185F023407F08FFD082CF8D1CBE02C4CEE
:10329000042007F085FDB4F92C0007F084FDB4F993
:1032A0002A008DE00C2007F07BFD314B186807F0F9
:1032B00084FD304B186807F080FD2F4B1868ABE099
:1032C000BB7B9C4280F0AF802C4E305D07F03BFD15
:1032D00006F11003185D07F036FD06F12003185DB6
:1032E000303607F030FD305D07F02DFD0134E7E7A3
:1032F000002007F055FD06F0B5FC154C0023A36037
:10330000607106F0C3FC06F05BFE06F0ABFC84F8CF
:103310008A0106F0B1FCA4F8560106F0ADFCA4F851
:10332000580106F0A9FCA4F85A0106F0A5FCA4F87F
:10333000780106F0A1FCA4F87A0174E09818002046
:103340007C1E0020B0180020CC150108FC150108D7
:103350009C1900200002002010020020DC01002047
:10336000150800200C020020901F0020B60D002040
:10337000E8F7FF1FECF7FF1FF0F7FF1FBF0D00205E
:103380002C4C102007F00CFD607907F0DCFCA068E5
:1033900007F013FD94F88A0107F0D5FCB4F9560143
:1033A00007F001FDB4F9580107F0FDFCB4F95A012A
:1033B00007F0F9FCB4F9780107F0F5FCB4F97A01EB
:1033C00007F0F1FC2FE0082007F0EAFC0024194B7D
:1033D000234493F88201013407F0B5FC082CF6D1A0
:1033E00021E006F03FFC134B23440134082C83F802
:1033F0008201F6D117E01A7015E0132007F0D0FC17
:1034000000240D4B185D013407F09DFC0B2CF8D106
:10341000002007F0D2FC002007F0CFFC03E00120E1
:10342000002107F09FFC2B68187902B0BDE8F04737
:1034300007F089BC9C190020372601080000000015
:103440002DE9F04F954B95B09B68CBB9944D2B78F7
:10345000013B042B00F24187DFE813F052065206CD
:1034600052062F071207A06807F05EFC8D4B054639
:1034700093F89E31012B00F02D8108D3022B06D04A
:10348000864CA06807F055FC0028ECD1DEE7242D1F
:10349000854C0CD006D80A2D00F08C800D2D00F044
:1034A0008980E6E02A2D07D02C2D05D0E1E000230D
:1034B00023706370A370EDE06278267822440021C7
:1034C000794BD170EEB9DA789E74472A19D11A79FE
:1034D000502A16D15A79472A07D19A79472A04D116
:1034E000DA79412A01D101229A7462796E4B522A0B
:1034F00007D19A794D2A04D1DA79432A04BF0222EE
:103500009A74A37C684F012B02D0022B33D046E083
:10351000B31E072B43D8DFE803F0040810141C2463
:10352000422901F053F9606139E0E2785E4B532A99
:1035300035D15A6952425A6131E001F047F9A06130
:103540002DE0E278584B572A29D19A6952429A6164
:1035500025E0E278554B302A94BF00220122DA722E
:103560001DE0002001F012F9207718E0002001F0A2
:103570000DF9E08313E0072E06D0082E0FD10120AD
:1035800001F004F978840AE0012001F0FFF841F22B
:10359000184358434FF47A72B0FBF2F33B84013680
:1035A00000232A2D404A267063706ED1012182F8D3
:1035B00024106FE094F82430002B55D03A4BDB7880
:1035C000402B04D9A3F137021201D2B202E01B0151
:1035D00003F0F0022379A178402B8CBF373B303BBE
:1035E000DBB21344DBB299422F4A3DD1937C012BCD
:1035F00002D0022B1FD037E02C49C87A08B901232A
:1036000033E02B485569056095694560157F294869
:10361000D28B057028480280284800684507EED400
:10362000097C0029EBD026498968521A64214A4353
:1036300024490A6019E0244B118C508C19801F4BCF
:10364000224E1B68308013F008070DD164290BD976
:103650000A25684306F038FE90FBF5F080B21C4B5B
:10366000B0FBF5F530801D800023002284F8242073
:1036700010E063780C4A0E2B03D8591C1344517088
:10368000DD7094F82430084A1BB991784D4095704C
:1036900000E0002303F0010381E100BFCC0600201D
:1036A000D40800209C190020000E002015080020DE
:1036B00020020020FC0100201C020020280600201F
:1036C00000020020E001002044050020B40D00208D
:1036D000CA010020A04C002294F82530082B00F2EB
:1036E0005D81DFE803F00B05141C2D3D5A78850041
:1036F000622801D1022307E084F82520B52D40F08F
:103700004D8194F82530013384F8253046E10323B8
:1037100084F8253084F8260084F827003EE104234D
:1037200084F8253094F8263094F827200344DBB23F
:1037300084F82630134484F8273084F828002DE1DB
:10374000052384F8253094F8263094F82720034484
:10375000DBB284F82630134484F8273060851DE1FD
:10376000062284F8252094F8262094F82710024495
:10377000D2B284F826200A4484F82720628D764B42
:1037800002EB0025ADB2C82D89BF00225D855A85A8
:1037900083F825200023A38501E194F8263094F8CE
:1037A00027200344DBB284F82630134484F8273002
:1037B000A38DC72B03D8684A1A4482F8300001331E
:1037C000628D9BB29A42A38540F0E880624B07224B
:1037D00083F82520E2E0082384F8253094F8263089
:1037E000834200F0DB805C4A002382F82530D6E07B
:1037F00084F8252094F82720574B824240F0CE8051
:1038000093F82820062A4BD004D8022A12D0032A83
:1038100033D0C3E0122A59D0302A40F0BF8093F849
:1038200034204E4B102A88BF10221A7019784C4A47
:1038300000236DE04B4A596B93F8F8005160996B87
:1038400011601A6C4FF47A7192FBF1F246490A80CA
:103850004649C872012083F8F900454B1B68580798
:103860006BD40B7C002B68D0424B92B29B68D21A6F
:1038700064235A43404B1A605FE093F8352012F0FE
:10388000010205D093F83430D91E4B424B4100E081
:10389000134684F8F830002B4FD1344AD3724CE0F1
:1038A00093F83B2012F0010205D093F83A30DA1E6B
:1038B0005342534100E0134684F8F8300BB92B4AC9
:1038C000D37294F85F202D4B1A7036E0B3F8442081
:1038D0002B4942F210700A80996C2A4E91FBF0F04D
:1038E000012183F8FA10224B30801B681B0724D477
:1038F000642A22D90A2580B2684306F0E5FC90FBD1
:10390000F5F080B2204BB0FBF5F530801D8014E05F
:103910008B4202F10C0210DA12F8045C1B481D54B1
:1039200012F8035C1A481D5412F8015C19481D5422
:10393000157819481D540133EAE794F8F920064B2D
:1039400062B393F8FA204AB3002283F8F92083F88F
:10395000FA20012323E000BF000E0020BE0D00204E
:10396000300E0020200200201C020020150800203C
:103970002806002000020020E0010020FC010020B9
:1039800044050020B40D0020CA010020BF0D002016
:10399000CF0D0020DF0D0020EF0D00200023002BB5
:1039A0003FF46EAD994B9A4D9A68DA602A689A6036
:1039B000984B1A6842F020021A60974B1A78012A35
:1039C0000CBF002201221A70944BDA7A002A3FF4CD
:1039D00057AD934A1278042A7FF652AD5A7812B93D
:1039E000197C01B91A731B7B13B90AB106F044FCA8
:1039F0008C4C4FF0050C94F8FB3004F1FA070133BE
:103A000093FBFCFC0CEB8C0CCCEB030C864B84F88E
:103A1000FBC01B780397049304F5807303EB8C0CB5
:103A200000238249DFF828925E58814A96FBF9F715
:103A3000069758180590069802F10807D8517D4F4F
:103A400042F2107807FB00679E5097FBF8F8039E40
:103A50001FFA88F802F1100A26F8028F03EB830B95
:103A600053F80A0003965CF80B604CF80B70C6EB39
:103A7000000E0EEB0706069F4FF0050E43F80A6096
:103A800096FBFEF609FB076018329850049A0F4621
:103A9000012A06D1A8F10208B8F5797F9CBF059EDE
:103AA00030600433082BBCD15E4E2868D6F848310C
:103AB000C01A08F09BFB604908F0A4FC2B684FF08B
:103AC0007E51C6F84831804608F086FD10B94FF0A7
:103AD0007E5000E0404610AAC6F84C01574B0092B9
:103AE00011AA019297E803000CCB06F064FB109A30
:103AF0006423534992FBF3F211980A80DFF81C818A
:103B0000504A90FBF3F3138098F80C300BB90B80FC
:103B1000138096F85031434D002B3AD0D5F84C1114
:103B20004FF07E5008F06EFCD5F85431814638686D
:103B3000C01A08F05FFB494608F0B0FB08F074FDBE
:103B4000D5F858211FFA80FA78680FFA8AFA801A95
:103B500008F050FB3C4B196808F0A0FB494608F000
:103B60009DFB08F061FDB5F95E3100B2C218B5F9F0
:103B70005C310221534492FBF1F293FBF1F392B2D8
:103B80009BB2A5F86221A5F86031A5F85E21A5F8E1
:103B90005C31012386F850317968386898F808302C
:103BA000C6F85811C6F8540123B91C4BDB79002B19
:103BB0003FF466AC254B009304330193D4F86421A1
:103BC000D4F8683106F0F7FA7B68D4F86801C01AB7
:103BD00008F010FB1C4B196808F060FB08F024FD8E
:103BE0003A68D4F86431C4F878019B1A98F8102028
:103BF000C4F874310C4B0AB102221A7093F90030E8
:103C0000012B27D0022B00F0F68039E4D4080020E5
:103C10009819002028060020B00D0020150800206B
:103C2000FC010020000E00200C02002020020020D9
:103C3000280F0020806967FF00007A4400020020FE
:103C400046050020480500203C0000206C0F0020A5
:103C500080969800D4F87C71D4F89851D4F88C618F
:103C60000397D4F8907105F100400496069708F088
:103C7000DBFC8146284608F0D7FCD4F84C81D4F808
:103C8000944107904046059407F01CFF8E4B044674
:103C900093F8DA000D4608F0A9FA07F013FF88A39D
:103CA000D3E9002307F062FF02460B460020874954
:103CB00008F086F82B46224607F0A6FD02460B4682
:103CC0002046294608F07CF8CDE90801804E002501
:103CD000804C54F81570A4F11403384635F803A04D
:103CE00008F088FA039908F0D9FA08F09DFCCAEBAD
:103CF000000080B22834285304B2204608F07AFA33
:103D0000049908F0CBFA08F08FFC1FFA80FBE01949
:103D100008F070FA069908F0C1FA414608F0BEFAB8
:103D2000316808F0B3F908F07FFC484504DB0799D7
:103D30008842A8BF084600E0484608F05BFA3060B9
:103D400008F072FCB46858441FFA80FB204607F064
:103D5000B9FECDE90A0170680AF1310A381A08F093
:103D600049FA414608F04EFB214608F08DF907F06C
:103D7000A9FE02460B46DDE9080107F0F7FE024600
:103D80000B46DDE90A0107F03FFD08F029F91FFAAB
:103D90008AFABAF1620F014630617760B0600ED9DD
:103DA000059808F07BFA08F03FFC4B4BB0F5FA6F32
:103DB000A8BF4FF4FA609842B8BF184600E0002050
:103DC000834440F6B8330FFA8BFB9B45A8BF9B4654
:103DD000424B0A229B45B8BF9B466A43404B56F86C
:103DE000141B25F803B03F4B0235042DD1507FF44E
:103DF0006FAFFFF745BB344AD6F86CA1B2F9E0903B
:103E00009AFBF3F39945A8BF9946B6F8A0511FFA5B
:103E100089F90FFA89F22BB29A42334C0BDD334900
:103E2000D4F84C0108F03AFA08F0FEFB28441FFAD7
:103E300080F9A4F8A091D6F87041D6F8A451651B7A
:103E4000284606F041FA0028D8BF404241F29313B9
:103E50009842CCBF0020012000284BD0284608F013
:103E6000C9F9234908F01AFA0AF0B6FE0546504689
:103E700008F0C0F90146284608F010FA08F0D4FB13
:103E800080B240F6B83203B29342A8BF1346134A39
:103E9000A6F8A8019342ACBFE318A31848F6A042C5
:103EA000934203DDA3F50C43A03B04E0002BBCBF11
:103EB00003F50C43A033C6F8AC311DE0AFF300802E
:103EC000182D4454FB2119407C1E00200000F03FB7
:103ED00060020020740F002030F8FFFF48F4FFFF5D
:103EE0003202002088020020000E00200000C8429C
:103EF000D3023739C6F8AC41D6F8AC71C7F50C50CF
:103F00002830039708F076F9AF4908F0C7F904465E
:103F10000AF0EEFD139020460AF05EFED6F8B0716E
:103F2000D6F8BC410597D6F8B471129004F1004060
:103F3000089708F079FB0490204608F075FBD6F846
:103F40004CB1D6F8B8610A905846079607F0BAFD0A
:103F50009E4B044693F8DA000D4608F047F907F047
:103F6000B1FD97A3D3E9002307F000FE02460B46FC
:103F70000020974907F024FF22462B4607F044FC17
:103F800002460B462046294607F01AFFCDE90C01F0
:103F9000904E00270FFA89F008F02CF912AB53F875
:103FA000171008F07BF98C4C0546E05F08F022F909
:103FB0000146284608F068F808F036FB874B0FFAF0
:103FC00080F8B8F57A7FA8BF4FF47A789845B8BFE3
:103FD00098461FFA88F03C34385300B208F00AF9CA
:103FE0000599044608F05AF908F01EFB80B20690C5
:103FF0000899204608F052F9594608F04FF93168FF
:1040000008F044F808F010FB0499884204DB0A9A8F
:104010009042A8BF104600E0049808F0EBF8B4689E
:1040200005463060204607F04DFDCDE90E01706871
:104030001436C0EB080008F0DDF8594608F0E2F944
:10404000214608F021F807F03DFD02460B46DDE968
:104050000C0107F08BFD02460B46DDE90E0107F06F
:10406000D3FB07F0BDFF46F8108C014646F8040C60
:1040700046F80C0C079808F011F908F0D5FA069CE0
:104080000444284608F0D0FA204440F6B83300B281
:104090009842A8BF1846524B0A229842B8BF184609
:1040A0007A43504BF852504B0237042FD5507FF4CF
:1040B00071AF464B93F8DC202AB1039E64214B4A32
:1040C00096FBF1F11180B3F8D830494C9A450EDDDA
:1040D000D4F8A431D4F87001C01A06F0F5F842F211
:1040E00010730028B8BF404298427FF7C9A9414BDE
:1040F00001221A70B4F8C0213C4B1A80FFF7C0B9F6
:10410000DFF8048198F89E7117B1012F0AD0B4E04E
:104110006A78394B03EB0213384A5968906806F005
:10412000FEFDA7E0354EB068B14603681B699847AD
:10413000002800F0A2802B78314C022B66D0032B94
:104140006ED0012B40F099802E4B1E68636AF31AE3
:10415000632B40F29280E369042B2EDCD8F8082010
:10416000254C02F04802482A0ED0EB69D9F8080025
:1041700004EB0313596806F0D2FD6B78D9F8087088
:1041800004EB0314A4680CE098F88C21002AECD10D
:1041900004EB03135B68B3F5964FE6D90323EB6199
:1041A000E3E714F8011B19B1384606F0C7FDF8E73C
:1041B000EB696E620133EB615FE002205BE000BF00
:1041C000182D4454FB211940D30237397C1E00209E
:1041D0000000F03F88020020600F002018FCFFFF65
:1041E00048F4FFFF3202002060020020F8010020A6
:1041F000000E00200C020020080F0108CC06002051
:10420000D4080020981900209C1900206278344BB3
:10421000B06803EB0213596806F081FD03202AE021
:104220002369012B0DD0022B24D033BB226A2D4BE6
:10423000276153F8321003EBC2035B686161A3612D
:104240001BE0E369A269934208DA6269B068D15C55
:1042500006F074FDE3690133E3610EE0226A21494F
:104260000132226251F832200023E36102B90223B5
:10427000236102E0042002F079FB00236B602CE054
:104280006A68194B01326A60184A92F8A1214AB152
:104290005A7805210132D2B2B2FBF1F101EB810172
:1042A000521A5A70124B134A1B680120AB6000234C
:1042B0001370114A2B61D3720DE00D4B1A68AB6875
:1042C000D21A40F6C4139A4207D90C4B05201A683B
:1042D00022F020021A6002F049FB15B0BDE8F08F11
:1042E000080F010808100108D40800209C190020BC
:1042F00098190020FC010020150800202806002045
:1043000070B5064C4FF480550E46656106F0D0F846
:10431000304606F0CDF8256170BD00BF000C0140AD
:1043200070B50468294D037BAC420DD0B4F1804FC9
:104330000CD0A5F59435AC420AD005F58065AC42A9
:1043400014BF0424032404E0002402E0012400E05C
:10435000022433B1042B31D0082B31D00C2B0BD1DC
:1043600030E01D46042C07D0194E05EB840406EB03
:104370000414A26023712173027B03680C2A23D8E2
:10438000DFE802F0072222220C222222112222221E
:1043900016009A8992B242F002020DE09A8992B216
:1043A00042F0040208E09A8992B242F0080203E067
:1043B0009A8992B242F010029A8170BD0125D1E72C
:1043C0000225CFE70325CDE770BD00BF002C0140DB
:1043D000C40F0020134B026810B51C68D1430C4079
:1043E0001C605C682140596019680A431A600268C1
:1043F0009C68D1430C409C60DC682140D9604179C5
:10440000102906D1996811439960D9680A43DA6086
:1044100010BD01F1804303F5823319680A431A6025
:1044200010BD00BF00040140254B10B55343254A81
:10443000254C12680139B2FBF3F20388013AA0421D
:1044400089B292B29BB212D004F50064A0420ED0A1
:10445000B0F1804F0BD0A4F59834A04207D004F5FA
:104460008064A04203D004F58064A04202D123F00E
:1044700070039BB2154CA04206D004F58064A042A4
:104480001CBF23F440739BB203800F4B818598427D
:1044900002850FD003F5006398420BD003F540630B
:1044A000984207D003F58063984203D003F58063F8
:1044B000984201D1002303860123838210BD00BFEF
:1044C00040420F0090000020002C014000100040EE
:1044D0000A88F0B54B880E89CD88002A3AD1048C21
:1044E000834A24F001042404240C0484018B048CEA
:1044F00089B221F0F30141EA0616B6B29042A4B2A5
:1045000046F0010643F0010315D002F50062904227
:1045100011D0B0F1804F0ED0A2F5983290420AD05F
:1045200002F58062904206D002F58062904218BF88
:1045300024F00A0401D124F00204234306830384F7
:10454000038B23F00C031B041B0C0383038B9BB214
:104550001D4345E0042A8F8844D1048C644A24F02A
:1045600010042404240C0484018B048C21F4407175
:104570000905090D41EA0636B6B246EA0727904218
:10458000A4B2BFB212D002F5006290420ED0B0F1D8
:10459000804F0BD0A2F59832904207D002F580628E
:1045A000904203D002F58062904207D124F02004AB
:1045B00044EA03139BB243F0100304E024F0A00488
:1045C00043F01003234307830384038B23F44063E6
:1045D0001B041B0C0383038B9BB243EA0525ADB27E
:1045E0000583F0BD082A018C3ED121F480710904B5
:1045F000090C0184818B3E4A89B221F0F301048CBD
:1046000041EA0616B6B29042A4B246EA070712D0B3
:1046100002F5006290420ED0B0F1804F0BD0A2F5AF
:104620009832904207D002F58062904203D002F5A2
:104630008062904207D124F4007444EA03239BB2C1
:1046400043F4807304E024F4206443F48073234330
:1046500087830384838B23F00C031B041B0C83834D
:10466000838B9BB21D4341E021F480510904090C66
:104670000184828B048C22F440721205120D42EAEE
:10468000072242EA06361A4AA4B29042B6B212D0C3
:1046900002F5006290420ED0B0F1804F0BD0A2F52F
:1046A0009832904207D002F58062904203D002F522
:1046B0008062904207D124F4005242EA033292B25F
:1046C00042F4805205E047F6FF52224043F4805303
:1046D0001A4386830284838B23F440631B041B0CE0
:1046E0008383838B9BB243EA0525ADB28583F0BDFE
:1046F000002C01401FB50123ADF808300023ADF8B0
:104700000A30074BADF804101B7801A9ADF806205C
:10471000ADF80C30FFF7DCFE05B05DF804FB00BF20
:104720002908002070B5164A04011319D8791646D5
:10473000144D38B901221981DA712B192859197BC6
:10474000022219E01A895981891A89B2A1F2EF204F
:1047500080B240F2DA529042998107D898790A4B98
:1047600003EB4003A3F8001105F0C4FE2B19264407
:1047700000222859197BF271BDE87040BAE700BFEA
:10478000701100205C240108C40F002030B5002205
:1047900013460D495C5C9CB12E2C04D1013378B1D9
:1047A0001C1800250D550A246243C95CA1F1300490
:1047B000092C9CBF303A52180E2B03D80133E8E77E
:1047C000104630BD002030BD030E0020264BF0B552
:1047D0001D6800222549505C54182B185E7806F09D
:1047E000040606F0FF0376B10132102AF2D1002050
:1047F000F0BD1BB103EB83035B00DBB211F8012BAF
:10480000303A1344DBB2621A022AF2DC00228C42F4
:104810000AD91AB102EB82025200D2B211F8016B2E
:10482000303E3244D2B2F2E72E280FD101340420B8
:1048300000210A2671432678AF197F787F0702D5B9
:104840003039013431440138F3D100E00021084807
:1048500006244243642000FB01210648B1FBF4F129
:1048600000FB0310F0BD00BF94000020030E0020E9
:1048700040420F0080969800454B2DE9F7434922AE
:104880001A7040F2C4425A80BE221A71EF2283F895
:10489000C2240022074683F8C3241E4651B193F870
:1048A000C0044FF4827202FB00303A4900F5DA701E
:1048B00009F0AAFE00221346B15C01324B4040F2DF
:1048C000C4418A42F8D1324A4FF0030882F8C33417
:1048D000314B324A5A6002F188325A602E4B3422F0
:1048E000DA602F4806F013F82E4806F010F82E4C28
:1048F00004282FD12D4B321953F802904FF4005059
:104900000023019305F0F2FF04281DD1224D4FF43E
:1049100000502B6943F001032B611FFA89F324F83F
:10492000023C05F0E3FF042809D10194019B4FEA02
:104930001949A3F800904FF4005005F0D7FF2A69F9
:1049400041F6FE7313402B61194B04349C42CFD1C6
:10495000042802D0B8F10108C0D10F4B04281A690D
:1049600042F080021A6102D105F032FB10B90A2030
:1049700006F0BDFA06F0DEFA05F028FD27B10F209B
:104980001421012206F0FEFA03B0BDE8F08300BF57
:104990009C1900207C1E0020002002402301674556
:1049A00000F8010800FC010802F80108FE07FEF704
:1049B000C6FC01082DE9F743044605F009FB10B1D8
:1049C000002C00F00882E74AE74D10685168E74C78
:1049D0006B4603C340F2C4420021284609F01DFE85
:1049E00000214FF48272204609F017FE49232B70F4
:1049F000022003236B7105F0E3FA4FF41673A5F858
:104A00006231FA23A5F864312A23A5F860314FF406
:104A1000FA73A5F86831202385F866314FF4C8731E
:104A2000A5F878316E2385F87D312B2385F87E310A
:104A3000212385F87F31232385F8803140F24C43D0
:104A40000026012740F2DC51A5F890314FF4FA42DC
:104A500040F26C7385F85C71A5F88E11A5F892315F
:104A600085F8C064A5F86A61A5F86C61A5F86E6167
:104A700085F8536185F8546185F85561A5F856614C
:104A8000A5F85861A5F85A6185F85D6185F85E6101
:104A900085F8816185F88A6185F88B6185F8AE615A
:104AA00085F8AF6185F8B06185F8946185F89571F6
:104AB000A5F84E21052240F27E4385F876214FF479
:104AC000E132A5F84031C5F8A42140F23A734FF421
:104AD0001652A5F84231C5F8A8214FF47A7340F672
:104AE000AC52A5F84431AA8140F27E5340F6FF72E1
:104AF000A5F84631A5F89A2140F2EA531722A5F805
:104B00004831627540F2B453A27555224FF028081F
:104B10001E20A5F84A31E27032232D2285F89671C5
:104B2000A5F84C31A5F85031E072207362732371FF
:104B300085F89E6185F89F6185F8AC6185F8AD6167
:104B4000AE7385F89761267084F8018084F802803E
:104B5000E675A673267684F82130042384F82E3077
:104B6000152384F83130824B0B204FF0080E63631D
:104B7000804B607184F810E014204FF00E0EA0718D
:104B800084F807E060744FF0640E5020A3637A4B02
:104B9000A276E0764FF00A095A2084F81CE02275CC
:104BA0004FF0780E4122207284F80AE0A777E07770
:104BB00084F82020E184E673667684F8129084F805
:104BC000098084F8236084F8246084F8256084F8E0
:104BD00022606685A685268584F82F8084F830803B
:104BE000E363664B66482364192384F8447084F8B1
:104BF000453005F0CCF94FF44873A4F87A30C82357
:104C000084F8CF304FF49663A4F8D03040F2D93313
:104C100084F8797084F8766084F8776084F8788016
:104C200084F87C6084F8CE90A4F8D23027464FF404
:104C30007F73A4F87E304FF4FA63A4F880301DF837
:104C40000630013640F2DC52082EA4F8822084F8A7
:104C5000843004F10A04EAD1012387F8D43087F8BC
:104C6000D53087F8D63087F8DC306423A7F8DE30FB
:104C70004FF49673A7F8E0302823A7F8E2300F230B
:104C8000A7F8F030A7F8F230A7F8F43040F26C73D0
:104C9000C821A7F8F63040F214534FF07C58A7F81B
:104CA000D8101E201421A7F8FA30A7F8FC60522370
:104CB0004FF07E5685F8C13487F8DA1087F8DB00AC
:104CC000C7F8E480C7F8E880A7F8EE10A7F8F82046
:104CD000C7F800610023EA1810330021C02B224CD2
:104CE0001161F8D1012005F06BF9082005F068F991
:104CF000102005F065F94FF4007005F061F901230B
:104D000084F88A31052384F88B314FF47A73A4F840
:104D100040314FF4FA63A4F842318223FB77142325
:104D200087F8233017483C2387F8243005F02FF903
:104D3000154B4FF03F4226616261A661E361266236
:104D40006262A362E6622663C4F83480A663E66307
:104D50002664C4F84480A364E36426656365A265A1
:104D6000E36513E0281701089C1900207C1E002031
:104D70009A99193FF6287C3F3D0A773F0000A040F2
:104D80000A27010813270108000080BF266666660F
:104D9000A266E66626676367C4F87880E667C4F8AB
:104DA0008060C4F88460C4F88880C4F88C30002423
:104DB000281900F5DA7009494FF4827204F58274FB
:104DC00009F022FCB4F5437FF2D10020014603B084
:104DD000BDE8F04350E503B0BDE8F0837C1E002041
:104DE00030B587B005460C4603A800210C2209F017
:104DF00014FC2846002107F00DFC20B128462A4962
:104E000007F044F903E02846274907F03DF9274910
:104E100007F044FA07F008FC054685EAE570A0EBC8
:104E2000E57069460A2205F08DF900239D42037062
:104E3000ACBF20232D2368468DF80C3009F00FFC01
:104E4000012807D130238DF80D308DF80E308DF804
:104E50000F300CE0022805D130238DF80D308DF88D
:104E60000E3004E0032804BF30238DF80D3069466E
:104E700003A809F0DAFB03A809F0F1FB0338C5B277
:104E80002A4603A9204609F015FC00236355204655
:104E9000074909F0CAFB03A92046294409F0C5FBCC
:104EA000204607B030BD00BF6F12033A00007A44BD
:104EB000802F0108038ACA889BB223F4405313430E
:104EC00030B503820D4682890989AB8892B20B43C3
:104ED000698922F4B0520B4322F00C0213439BB2B7
:104EE0008381838AAA899BB223F4407387B01343DA
:104EF0000446838201A805F0A7FC1749049A039B86
:104F00008C4208BF1346A289192112B25943002AC4
:104F10002A684FF06403B4BF52009200B1FBF2F173
:104F2000B1FBF3F21201100903FB1011A08900B2CA
:104F3000002806DAC9003231B1FBF3F303F00703AE
:104F400005E009013231B1FBF3F303F00F031A431B
:104F500092B2228107B030BD0038014030B5002345
:104F600085B0ADF80A30ADF80430ADF80630ADF8D4
:104F70000830ADF80C3003790446DA0744BF042248
:104F8000ADF80A209B070D46009105D5BDF80A3003
:104F900043F00803ADF80A30A06C6946FFF78AFFBA
:104FA000A56005B030BD70B50F4C064604EB81140A
:104FB00000250E4A308A2A445388B189034289B2B7
:104FC0000CD00B420AD0DB439BB23382304653688D
:104FD0009847A36801460BB1207B98470835202DE0
:104FE00004F11004E5D170BDC40F00203017010892
:104FF000426A10B58469A154416A02690131B1FB6A
:10500000F2F402FB14124262426B32B11368DB0706
:1050100008D4BDE8104005F099BC836CDA6842F012
:105020008002DA6010BD10B50446642004F0D7FD9C
:1050300068202321F02203F0C1F910B9032005F004
:1050400056FF052004F0CBFD054B68201A7820217F
:1050500042F00F0203F0B2F90CB1024B1C7010BD0C
:105060003C0600204000002010B50446192004F042
:10507000B6FD68201521002203F0A0F910B9032025
:1050800005F035FF0D4B16211A78682042F0180202
:1050900003F094F917210022682003F08FF93D21D5
:1050A0000122682003F08AF968203E21012203F0E2
:1050B00085F90CB1024B5C7010BD00BF22000020CE
:1050C0004000002077204821012203F077B97720A3
:1050D0005821012203F072B9064B002193F82020D9
:1050E000054B9201343219707720F42102F0FC0252
:1050F00003F064B954060020801F0020034B0022F7
:105100001A707720F4212E2203F058B9801F002056
:1051100010B50F2108220446182003F04FF90E2283
:105120001820102103F04AF9034B4FF480521A80E3
:105130000CB1024B9C7010BD2400002040000020E8
:1051400008B1034BD8700C200A21012203F036B9B4
:1051500040000020154B10B51B7804462D2153202C
:1051600008227BB103F02AF931210A22532003F0EF
:1051700025F92C210C22532003F020F9532038214B
:10518000902209E003F01AF931210A22532003F09A
:1051900015F953202C210A2203F010F9044B40F298
:1051A00009121A800CB1034B1C7110BD3D06002082
:1051B00024000020400000201F4B37B51B68044628
:1051C000012B0EDD4FF40053ADF8043002238DF8AF
:1051D0000730042319480DEB03018DF8063004F065
:1051E00008FD6B218022682003F0E8F8642004F0B9
:1051F000F6FC19210022682003F0E0F8104D6B2125
:105200000322682003F0DAF837210222682003F035
:10521000D5F81A216A79682003F0D0F81B211822EA
:10522000682003F0CBF868201C21102203F0C6F898
:1052300004B1AC7103B030BD8C1F002000100140E0
:105240004000002037B52023ADF8043004230DEBD7
:105250000301022405461C488DF806308DF80740EE
:1052600004F0C7FC2A2100221C2003F0A7F80E211D
:1052700022461C2003F0A2F80F2103221C2003F079
:105280009DF82B2112221C2003F098F82C21224695
:105290001C2003F093F82D2101221C2003F08EF82E
:1052A0002E2100221C2003F089F805221C202A212F
:1052B00003F084F8054B4FF480721A800DB1044B53
:1052C000DD7103B030BD00BF0008014024000020A4
:1052D000400000201FB50123ADF80830ADF80410E0
:1052E000002301A9ADF80A30ADF80C30ADF8062066
:1052F000FFF7EEF805B05DF804FB454B10B54FF431
:10530000127404FB003494F83C22C2B9A36A616AA7
:10531000994229D0591CA069A162C05C2369C0B21E
:1053200099424FEA400343F40073A4F83E324FF031
:105330000A0384F83D3228BFA262012312E094F9E7
:105340003D327BB1B4F83E1220464B08A4F83E3201
:1053500001F0010104F01FFF94F83D32013B84F895
:105360003D3201E084F83C3294F83832002B4DD1C4
:1053700094F839320133DBB2092B84F8393204D185
:105380002046BDE8104004F0F1BE0A2B3ED194F84F
:105390003B322BB9B4F8403243F00103A4F8403259
:1053A0002379D8071AD5B4F8403203F4007292B2C8
:1053B0000AB9D90705D4B4F846320133A4F8463205
:1053C0000CE0216A6069C3F347034354E168236A30
:1053D00001398B4236BF013322622362012284F8F5
:1053E000382294F83B220023012A84F839320DD167
:1053F00094F8422284F83B32236B002A1868197B08
:105400000CBF02220022BDE8104063E710BD00BFC0
:10541000FC080020094B30B59A68B3F84A51B3F83C
:10542000444102F4804200230549002A14BF284663
:10543000204658520233182BF6D130BD9C1900205B
:10544000AE05002010B540001C4CC0B22070617049
:1054500001200021A170E0702273607320696360F5
:10546000A360A17340B383889B0515D40388D90535
:105470000DD447F230530288920502D5013BFAD190
:1054800012E08BB103889BB243F48073038083885E
:105490009BB243F44073838047F23053627B12B176
:1054A000013BFBD100E01BB9BDE8104002F01EBF7C
:1054B000024B987B80F0010010BD00BFD41000208B
:1054C000F0B5044685B0232004F089FB68207521DF
:1054D00001220DF10703FFF7B5FF00285FD09DF80B
:1054E0000770682F5AD1062102AB38460A46FFF7EB
:1054F000A9FF9DF80B309DF80D6003F001035B00E0
:1055000006F0010643EA86069DF80930254D03F0B2
:1055100001031E4305D0012E17D0022E0DD100230A
:1055200011E00DF1070338460C210122FFF78AFF35
:105530009DF8073013F00F0302D1052005F0D7FCCA
:10554000042B02D101232B7500E02E75164B174A50
:10555000BB2C1A60164A5A60164B174A1A60174A33
:105560005A60174ADA60174B2A7D1A75164B02D912
:105570000120587113E0612C01D902220BE0292C83
:1055800001D9032207E0132C01D9042203E0092CDE
:105590008CBF052206225A71012000E0002005B0D0
:1055A000F0BD00BFD4100020400600201199000873
:1055B000CD5500082C060020B951000821560008DE
:1055C00018449231CC060020400000201FB504464C
:1055D0006B463B2106226820FFF734FF9DF8002030
:1055E0009DF8013002A843EA0223ADF808309DF887
:1055F00002209DF80330214643EA0223ADF80A3029
:105600009DF804209DF8053043EA0223ADF80C30E4
:10561000024B1A7A05F06EFA04B010BD400000206B
:105620001FB504466B46432106226820FFF70AFF98
:105630009DF801309DF800209DF8021043EA0222F7
:1056400012B2042392FBF3F2ADF808209DF8032078
:1056500002A842EA012212B292FBF3F29DF8041072
:10566000ADF80A209DF8052042EA012212B292FB11
:10567000F3F3ADF80C30034B21469A7905F03AFA72
:1056800004B010BD400000201FB504466B46A821A1
:1056900006226820FFF7D6FE9DF801309DF8002015
:1056A0009DF8021043EA022212B2042392FBF3F2A5
:1056B000ADF808209DF8032002A842EA012212B2A8
:1056C00092FBF3F29DF80410ADF80A209DF8052036
:1056D00042EA012212B292FBF3F3ADF80C30034B15
:1056E00021461A7805F006FA04B010BD40000020EB
:1056F00013B50222044601AB1B216820FFF7A2FE6E
:105700009DF804209DF8053043EA022303F54E532B
:105710004FF48C72103393FBF2F32333238002B0E7
:1057200010BD1FB504466B461D2106226820FFF7F9
:1057300089FE9DF801309DF800209DF8021043EA93
:10574000022212B2042392FBF3F2ADF808209DF876
:10575000032002A842EA012212B292FBF3F29DF862
:105760000410ADF80A209DF8052042EA012212B289
:1057700092FBF3F3ADF80C30034B21465A7805F059
:10578000B9F904B010BD00BF400000201FB50446A9
:105790006B46012106221C20FFF754FE9DF80130C4
:1057A0009DF800209DF8021043EA022242F38D0288
:1057B000042392FBF3F2ADF808209DF8032002A821
:1057C00042EA012242F38D0292FBF3F29DF80410AB
:1057D000ADF80A209DF8052042EA012242F38D022D
:1057E00092FBF3F3ADF80C30034B2146DA7905F068
:1057F00081F904B010BD00BF4000002030B585B075
:105800000622054603216B461E20FFF71BFE9DF86E
:1058100001309DF800001A4C43EA002000B206F067
:10582000E9FCE16806F03AFD06F0FEFE9DF8033063
:10583000ADF808009DF8020043EA002000B206F02F
:10584000D9FC616906F02AFD06F0EEFE9DF80530F0
:10585000ADF80C009DF8040043EA002000B206F009
:10586000C9FC216906F01AFD06F0DEFE2946ADF8F6
:105870000A00227E02A805F03DF905B030BD00BF48
:10588000400000202DE9FF4108B1634B1876634BBF
:105890001B68012B0DD14FF48053ADF80430022367
:1058A0008DF8073004238DF806305D480DEB0301B9
:1058B00006E007DD04A94FF480435A4821F80C3D67
:1058C00004F097F9322004F08AF9002111221E20F9
:1058D00002F074FD012160221E2002F06FFD6420A1
:1058E00004F07DF902A8FFF789FF00240A25274666
:1058F0002646022101221E2002F060FD322004F023
:105900006EF902A8FFF77AFFBDF90820BDF90A1069
:10591000BDF90C3014449142B8BF0A461E449A4265
:10592000B8BF134613F5805F0F4409DD3C4B013DC2
:10593000DA6882F01002DA60DBD14FF0010801E092
:105940004FF000081E200021122202F037FD0A2528
:10595000022101221E2002F031FD322004F03FF925
:1059600002A8FFF74BFFBDF90820BDF90A10BDF9E9
:105970000C30A41A9142B8BF0A46F61A9A42B8BF30
:10598000134613F5805FC1EB070707DD244B013D8C
:10599000DA6882F01002DA60DAD101E04FF0000834
:1059A000204606F027FC01461F4806F02BFD1A4D45
:1059B00020F00040E860384606F01CFC01461A481A
:1059C00006F020FD20F000402861304606F012FC71
:1059D0000146164806F016FD20F0004068610021DF
:1059E00070221E2002F0EAFC012120221E2002F07B
:1059F000E5FC1E200221002202F0E0FC642004F0FD
:105A0000EEF8B8F1000F04D14FF07E53EB602B613C
:105A10006B6104B0BDE8F081400000208C1F0020C5
:105A2000000C01400010014000406F4601C05E467E
:105A300007B5002101AB03227720FFF703FD9DF896
:105A400005009DF80430000240EA03409DF806304E
:105A5000184303B05DF804FB08B5FFF7E9FF014BFD
:105A6000986108BDD410002008B5FFF7E1FF014B95
:105A7000D86108BDD4100020104B13B51B78104C12
:105A800013B9238C0133238401ABF6210322772041
:105A9000FFF7D8FC9DF805309DF804201B0243EA6F
:105AA00002439DF806201343064AB2F92020C2F1B2
:105AB0000802D340636202B010BD00BF801F002007
:105AC000D4100020540600200B4B13B51B780B4C50
:105AD00013B9238C0133238401ABF62102227720F2
